:020000000C945E
:10000200CA120C9400000C9400000C9400000C9492
:1000120000000C9400000C9400000C9400000C945E
:1000220000000C9400000C9400000C9400000C944E
:1000320000000C9400000C9400000C94FD1E0C9423
:1000420000000C9400000C94751E0C9400000C949B
:100052004A1E0C9400000C9400000C9400000C94B6
:1000620000000C9400000C9400000C9400000C940E
:1000720000000C9400000C9400000000000000003E
:10008200000000000000000000000000000000006E
:10009200000000000000000000000000000000005E
:1000A200000000000000000000000000000000004E
:1000B200000000000000000000000000000000003E
:1000C200000000000000000000000000000000002E
:1000D200000000000000000000000000000000001E
:1000E200000000000000000000000000000000000E
:1000F20000000000000000000000000000000000FE
:1001020000000000000000000000000000000000ED
:1001120000000000000000000000000000000000DD
:1001220000000000000000000000000000000000CD
:1001320000000000000000000000000000000000BD
:1001420000000000000000000000000000000000AD
:10015200000000000000000000000000000000009D
:10016200000000000000000000000000000000008D
:10017200000000000000000000000000000000007D
:10018200000000004F000000000000070007000010
:1001920000000024FF24FF24000000444AFF4A32EA
:1001A200000040231308C4C2000000364955224013
:1001B20080000000050300000000003C42810000B6
:1001C20000000081423C000000000014083E0814B8
:1001D20000000010107C1010000000002818000021
:1001E200000000080808080808000060600000001D
:1001F20000004020100804020000007EFF8181FF01
:100202007E00008082FEFF80800000E2F191919FDB
:100212008E000062C3C9C9FF760000181412FFFFE6
:100222001000006F8F8989F97100007EFF8989F9BA
:100232007200000101F1FD0703000076FF8989FFCA
:10024200760000468F8989FF7E0000006666000006
:100252000000000056360000000000081422410091
:100262000000002424242424000000004122140859
:100272000000000201B109060000006291F1817ED6
:10028200000000FE111111FE000000FF898989762D
:100292000000007E81818142000000FF8181423C9A
:1002A200000000FF89898981000000FF0909090116
:1002B2000000007E81919172000000FF101010FF7B
:1002C2000000000081FF81000000004080817F016A
:1002D200000000FF18244281000000FF808080801F
:1002E200000000FF020C02FF000000FF040810FFE4
:1002F2000000007E8181817E000000FF1111110E3D
:1003020000007E81A141BE00000000FF1131518E2C
:1003120000000086898989710000000101FF010146
:100322000000007F8080807F0000003F4080403FCF
:100332000000003FC060C03F000000E3140814E367
:100342000000000708F00807000000C1A19189879A
:10035200000000FF8181000000000015167C1615C8
:1003620000000041417F000000000004020102047D
:100372000000004040404040000000010204000034
:100382000000006094949478000000FF88888870D0
:100392000000007884848400000000788484887FD0
:1003A200000000789494945800000010FE1101029D
:1003B2000000000C9292927E000000FF100808F0EC
:1003C2000000000084FD80000000006080807D004D
:1003D200000000FF304884000000000081FF800020
:1003E200000000FC043804F8000000FC080404F8D3
:1003F2000000007884848478000000FC141414083F
:1004020000000008141418FC000000FC0804040892
:100412000000008894949460000000047F8480406F
:100422000000007C808040FC0000003C4080403C9A
:100432000000003EC060C03E00000042241824427A
:10044200000000068888887E000000C4A4948C8482
:1004520000000008768100000000000000FF00009C
:10046200000000817608000000000008082A1C082D
:10047200000000000010307E301001023C4A523C65
:100482004080080C7E0C08000000017E858991A145
:100492007E80080C0EFFFF0E0C08080C0EFFFF0EEC
:1004A2000C08000000000000000000000000000036
:1004B200000000000000000000000000000000003A
:1004C200000000000000000000000000000000002A
:1004D200000000000000000000000000000000001A
:1004E200000000000000000000000000000000000A
:1008720000000000000000000000C1C1C1C1000072
:10088200C2C2FEFE0100C3C31F1F0100C4C4FCFCA0
:100892000100C5C5C5C50101C6BDBFBE0101C7C7AF
:1008A200C0C00100C88284830101C9C9FDFD0100E5
:1008B200CA8587860101CB888A890101CC8BCC8BC2
:1008C2000101CD8CCD8C0101CE11CE110101CFCF12
:1008D20013130100D0D08F8F0100D1D11B1B010057
:1008E200D2D291910100D39294930101D49597961B
:1008F2000101D5179A990101D69B9D9C0101D7D779
:10090200D7D70000D8D89E9E0101D9D99F9F010157
:10091200DAA0A2A10101DBA3A5A40101DCDCDCDCDD
:100922000000DDA6A8A70101DEA9ABAA0101DFAC88
:10093200AEAD0101E0E0E0E00000E1AFB1B00101E5
:10094200E2E2E2E20000E3B2B4B30101E4B5B7B619
:100952000101E5B8BAB90101E6E6BCBC0100E7E76E
:10096200E7E70000E8E8E8E80000E9E9E9E9000073
:10097200EAEAEAEA0000EBEBEBEB0000ECBDBFBEFB
:100982000101EDBDBFBE0101EEEEEEEE0000EFEFA4
:10099200EFEF0000F0F0F0F00000F1F1F1F10000F3
:1009A200F2F2F2F20000F3F3F3F30000F5F5F5F5DD
:1009B2000000F6F6F6F60000F7F7F7F70000F8F891
:1009C200F8F80000FBF9FBFA0101BBBBF4F40100EB
:1009D200811C1E1D010190181A1901019814161587
:1009E20001018E8E121201008D108D100101000086
:1009F2000000000000808000E0E000F8F800FEFE49
:100A020000000000000000000000000000000000E4
:100A120000000000000000000000000000000000D4
:100A220000000000000000000000000000000000C4
:100A320000000000000000000000000000000000B4
:100A42000000000000000000000000000000E010B4
:100A520090908000F0909090600060909010000064
:100A620000002070F8702000807800FC0000000672
:100A72000600070700070700070700070700070728
:100A82000000000000000000000000000000000064
:100A92000000000000000000000000000000000054
:100AA2000000000000000000000000000000000044
:100AB2000000000000000000000000000000000034
:100AC200000000000000000000000000000003041D
:100AD20004040300070000000000040404030000F3
:100AE2000010141414141209040A35180800000026
:100AF20000000000000000000000000000000000F4
:100B020000000000000000000000000000000000E3
:100B120000000000000000000000000000000000D3
:100B220000000000000000000000000000000000C3
:100B320000000000000000000000000000000000B3
:100B420000000000000000000000000000000000A3
:100B52000000000000000000000000000000000093
:100B62000000000000000000000000000000000083
:100B72000000000000000000000000000000000073
:100B82000000000000000000000000000000000063
:100B92000000000000000000000000000000000053
:100BA2000000000000000000000000000000000043
:100BB2000000000000000000000000000000000033
:100BC2000000000000000000000000000000000023
:100BD2000000000000000000000000000000000013
:100BE2000000000000000000000000000000000003
:100BF20000000000000000000000000000000000F3
:100C020000000000000000000000000000000000E2
:100C120000000000000000000000000000000000D2
:100C220000000000000000000000000000000000C2
:100C320000000000000000000000000000000000B2
:100C420000000000000000000000000000000000A2
:100C52000000000000000000000000000000000092
:100C62000000000000000000000000000000000082
:100C72000000000000000000000000000000000072
:100C82000000000000000000000000000000000062
:100C92000000000000000000000000000000000052
:100CA2000000000000000000000000000000000042
:100CB2000000000000000000000000000000000032
:100CC2000000000000000000000000000000000022
:100CD2000000000000000000000000000000000012
:100CE2000000000000000000000000000000000002
:100CF20000F884C282DAFAE2FE020202C2FE0202B4
:100D02000202C4F800000000000000000000000021
:100D120000000000000000000000000000000000D1
:100D220000000000000000000000000000000000C1
:100D320000000000000000000000000000000000B1
:100D420000000000000000000000000000000000A1
:100D52000000000000000000000000000038FC025B
:100D620002020202060606BAFABA0202FC38001EA3
:100D72001F7FFFFD7C1F1F1F1F1C1C1C1F1F7CFCD5
:100D8200FC7C1F0F000000000000000000000000BB
:100D92000000000000000000000000000000000051
:100DA2000000000000000000000000000000000041
:100DB2000000000000000000000000000000000031
:100DC2000000000000000000000000000000000021
:100DD20000000000000000000000000000003F3E94
:100DE200FEF2F23E3E3E3F3FF3F3FF3E3F0000C0C5
:100DF200F030381818181898B0B030303060606091
:100E0200606060C0C0C0C0C0C0C080808080800000
:100E120000000000000000000000000000000000D0
:100E220000000000000000000000000000000000C0
:100E320000000000000000000000000000000000B0
:100E420000000000000000000000000000000000A0
:100E52000000000000000000000000000000000090
:100E6200000000000000000000000000000000FF81
:100E7200FF00000C18F0E70FFD0F07000000000054
:100E820000000000000000000000010101818383D6
:100E920083C3E767E6C6060E0C0C0C0C0C18181878
:100EA2007870E0C00000000000E0E00000000000F8
:100EB20080C0E06000E0E0606060606060E0C00010
:100EC200000080C06060C080000000E0E060606000
:100ED200606060C08000000080C06060C080000070
:100EE200000080C06060606060C08000000000FFA1
:100EF200FF00000000FFFF00FF00000000000000F4
:100F0200000000000080C06030188CC663311808F1
:100F120008090B0B0B090808080808081C3E363E96
:100F22001C00FFFF0000000000FFFF70F88C8E071E
:100F32000301000000FFFFE0E0E06060607F3F002F
:100F4200FEFF616060606061FFFE00FFFF00000065
:100F5200000000FFFF00FEFF616060606061FFFE55
:100F620000FFFF000000000000000100000000FF81
:100F7200FF00000000FFFF003F30303030303030E3
:100F820030180CC6E331180C060301000000000003
:100F9200000000000000000000000000000000004F
:100FA2000000FFFF00000000003F3F0000010307B8
:100FB2000E1C3830003F3F00000103070E3C380092
:100FC2003F3F0000000000003F3F003F3F30303015
:100FD2003030301F0F003F3F0000000000003F3F55
:100FE200000F1F303030303030381800000000FF62
:100FF200FF00000000FFFF00FF03030303030303DE
:1010020003060C193366CC983060C08000000000E3
:1010120000000000000000000000000000000000CE
:101022000000FFFF000000000000000000000000C0
:1010320000000000000000000000000000000000AE
:10104200000000000000000000000000000000009E
:10105200000000000000000000000000000000008E
:10106200000000000000000000000000000000FF7F
:10107200FF00000000FFFF00FF0000000000000072
:10108200000000000000000103060C19336644440E
:1010920044E4F4B4F4E40404040404040E1F1B1F27
:1010A2000E00FFFF000000FC0000000000F8040436
:1010B20004F8000C040404FC00F0888488F000802A
:1010C200808000FC8484040400F80404040800FC0A
:1010D200000000FC00F0888488F000FC040404F89E
:1010E20000F8040404F800FC44C44438000000FF83
:1010F200FF00000603011C3E373E1C0000000000FA
:101102000080808080C0C0C0C0C0E06060603030BD
:10111200303031391918181C0C0C0C0C0E0606064E
:10112200070301000000000F08080808000708086C
:101132000807000608080807000F0000000F00005B
:101142000000000F08080808000708080804000744
:1011520008080807000F0000000F000F0808080722
:10116200000708080807000F0000010E0000000138
:1011720007060E0C0C0C0C0C0606060603030303F2
:101182000301010101010000000000000000000055
:10119200000000000000000000000000000000004D
:1011A200000000000000000000000000000000003D
:1011B200000000000000000000000000000000002D
:1011C200000000000000000000000000000000001D
:1011D200000000000000000000000000000000000D
:1011E20000000000000000000000000000000000FD
:1011F20000000000000000000000000000000000ED
:1012020000000000000000000000000000000000DC
:1012120000000000000000000000000000000000CC
:1012220000000000000000000000000000000000BC
:1012320000000000000000000000000000000000AC
:10124200000000000000000000000000000000009C
:10125200000000000000000000000000000000008C
:10126200000000000000000000000000000000007C
:10127200000000C0E0F0F0F8F8F8F8F8FCFCFCFC24
:10128200FCFCFCFCFCFCFCFCFCFCFCFCFCFCFCFC9C
:10129200F8F8F8F8F8F0E0E0C00000000000000004
:1012A200000000000000000000000000000000003C
:1012B200000000000000000000000000000000002C
:1012C200000000000000000000000000000000001C
:1012D200000000000000000000000000000000000C
:1012E20000000000000000000000000000000000FC
:1012F2000000FEFFFF0301030303030303030303D1
:101302000303030303FFFF030301030303030303B5
:101312000303030303030307FFFE000000000000B2
:1013220000000000000000000000000000000000BB
:1013320000000000000000000000000000000000AB
:10134200000000000000000000000000000000009B
:10135200000000000000000000000000000000008B
:10136200000000000000000000000000000000007B
:101372000000FFFFFFC0C0C0C0C0C0C0C0C0C0C02E
:10138200C0C0C0C0E0FFFFE0C0C0C0E0D0C8C4C45D
:10139200C4C4C8D0E0C0E0F0FFFF000000000000BD
:1013A200000000000000000000000000000000003B
:1013B200000000000000000000000000000000002B
:1013C200000000000000000000000000000000001B
:1013D200000000000000000000000000000000000B
:1013E20000000000000000000000000000000000FB
:1013F2000000FFFFFFFFFFFFFFFFFFFFFFFFFFFFF9
:10140200FFFFFFFFFFFFFFFFFFFFFFFFFFFFFFFFEA
:10141200FFFFFFFFFFFFFFFFFFFF000000000000D4
:1014220000000000000000000000000000000000BA
:1014320000000000000000000000000000000000AA
:10144200000000000000000000000000000000009A
:10145200000000000000000000000000000000008A
:10146200000000000000000000000000000000007A
:1014720000003FFFFFE1E1E1E1FFFFFFF9D9D9D928
:10148200D9D9D9D9D9D9D9D9D9D9D9D9D9D9C9FBB8
:10149200FFFFFFE1E1C1E1F7FF3F000000000000B4
:1014A200000000000000000000000000000000003A
:1014B200000000000000000000000000000000002A
:1014C200000000000000000000000000000000001A
:1014D200000000000000000000000000000000000A
:1014E20000000000000000000000000000000000FA
:1014F200000000001F3F3F3F3F3F3F000000000051
:1015020000000000000000000000000000000000D9
:101512001F3F3F3F3F3F3F1F000000000000000011
:1015220000000000000000000000000000000000B9
:1015320000000000000000000000000000000000A9
:101542000000000000000000000000000000000099
:101552000000000000000000000000000000000089
:101562000000000000000000000000000000000079
:101572000000000000000000000000000000000069
:101582000000000000000000000000000000000059
:101592000000000000000000000000000000000049
:1015A2000000000000000000000000000000000039
:1015B2000000000000000000000000000000000029
:1015C2000000000000000000000000000000000019
:1015D2000000000000000000000000000000000009
:1015E20000000000000000000000000000000000F9
:1015F20000000000000000000000000000000000E9
:1016020000000000000000000000000000000000D8
:1016120000000000000000000000000000000000C8
:1016220000000000000000000000000000000000B8
:1016320000000000000000000000000000000000A8
:101642000000000000000000000000000000E010A8
:1016520090908000F0909090600060909010000058
:101662000000000000000000807800FC0000000084
:101672000000000000000000000000000000000068
:101682000000000000000000000000000000000058
:101692000000000000000000000000000000000048
:1016A2000000000000000000000000000000000038
:1016B2000000000000000000000000000000000028
:1016C2000000000000000000000000000000030411
:1016D20004040300070000000000040404030000E7
:1016E2000010141414141209040A3518080000001A
:1016F20000000000000000000000000000000000E8
:1017020000000000000000000000000000000000D7
:1017120000000000000000000000000000000000C7
:1017220000000000000000000000000000000000B7
:1017320000000000000000000000000000000000A7
:101742000000000000000000000000000000000097
:101752000000000000000000000000000000000087
:101762000000000000000000000000000000000077
:101772000000000000000000000000000000000067
:101782000000000000000000000000000000000057
:101792000000000000000000000000000000000047
:1017A2000000000000000000000000000000000037
:1017B2000000000000000000000000000000000027
:1017C2000000000000000000000000000000000017
:1017D2000000000000000000000000000000000007
:1017E20000000000000000000000000000000000F7
:1017F20000000000000000000000000000000000E7
:1018020000000000000000000000000000000000D6
:1018120000000000000000000000000000000000C6
:1018220000000000000000000000000000000000B6
:1018320000000000000000000000000000000000A6
:101842000000000000000000000000000000000096
:101852000000000000000000000000000000000086
:101862000000000000000000000000000000000076
:101872000000000000000000000000000000000066
:101882000000000000000000000000000000000056
:101892000000000000000000000000000000000046
:1018A2000000000000000000000000000000000036
:1018B2000000000000000000000000000000000026
:1018C2000000000000000000000000000000000016
:1018D2000000000000000000000000000000000006
:1018E20000000000000000000000000000000000F6
:1018F20000F884C202020202FE020202C2FE0202D8
:101902000202C4F800000000000000000000000015
:1019120000000000000000000000000000000000C5
:1019220000000000000000000000000000000000B5
:1019320000000000000000000000000000000000A5
:101942000000000000000000000000000000000095
:101952000000000000000000000000000000000085
:101962000000000000000000000000000000001E57
:101972001F7FFFFD7C1C1C1C1F1C1C1C1F1F7CFCD2
:10198200FC7C1F0F000000000000000000000000AF
:101992000000000000000000000000000000000045
:1019A2000000000000000000000000000000000035
:1019B2000000000000000000000000000000000025
:1019C2000000000000000000000000000000000015
:101D5200000000000000000000000038FC02020247
:101D62000202060606BAFABA0202FC3800000000B5
:101D72000000000000000000000000000000000061
:101D82000000000000000000000000000000000051
:101D92000000000000000000000000000000000041
:101DA2000000000000000000000000000000000031
:101DB2000000000000000000000000000000000021
:101DC2000000000000000000000000000000000011
:101DD2000000000000000000000000003F3EFEF294
:101DE200F23E3E3E3F3FF3F3FF3E3F000000000065
:101DF2000000000000808000E0E000000000000021
:101E020000000000000000000000000000000000D0
:101E120000000000000000000000000000000000C0
:101E220000000000000000000000000000000000B0
:101E320000000000000000000000000000000000A0
:101E42000000000000000000000000000000000090
:101E52000000000000000000000000000000000080
:101E6200000000000000000000000000000000066A
:101E72000600070700070700070700000000000030
:101E82000000000000000000000000000000000050
:101E92000000000000000000000000000000000040
:101EA2000000000000000000000000000000000030
:101EB2000000000000000000000000000000000020
:101EC2000000000000000000000000000000000010
:101ED2000000000000000000000000000000000000
:101EE20000000000000000000000000000000000F0
:101EF20000000000000000000000000000000000E0
:101F020000000000000000000000000000000000CF
:101F120000000000000000000000000000000000BF
:101F220000000000000000000000000000000000AF
:101F3200000000000000000000000000000000009F
:101F4200000000000000000000000000000000008F
:101F5200000000000000000000000000000000007F
:101F6200000000000000000000000000000000006F
:101F7200000000000000000000000000000000005F
:101F8200000000000000000000000000000000004F
:101F92000000000000000000000000000000000639
:101FA200060007070000000000000000000000001B
:101FB200000000000000000000000000000000001F
:101FC200000000000000000000000000000000000F
:101FD20000000000000000000000000000000000FF
:101FE20000000000000000000000000000000000EF
:101FF20000000000000000000000000000000000DF
:1020020000000000000000000000000000000000CE
:1020120000000000000000000000000000000000BE
:1020220000000000000000000000000000000000AE
:10203200000000000000000000000000000000009E
:10204200000000000000000000000000000000008E
:10205200000000000000000000000000000000007E
:10206200000000000000000000000000000000006E
:10207200000000000000000000000000000000005E
:10208200000000000000000000000000000000004E
:10209200000000000000000000000000000000003E
:1020A200000000000000000000000000000000002E
:1020B200000000000000000000000000000000001E
:1020C2000000000000000000000000000000000608
:1020D20006000404040404040404040404040404C0
:1020E20000000000000000000000000000000000EE
:1020F20000000000000000000000000000000000DE
:1021020000000000000000000000000000000000CD
:1021120000000000000000000000000000000000BD
:1021220000000000000000000000000000000000AD
:102132000000000000000000000000000000102766
:10214200E80364000A000100001000011000010011
:10215200C100486F6C61205054525349545538386D
:1021620038384006000000000000000000000000B7
:1021720044050000000020000000000041542454E7
:1021820054534E444D473D342C222424424C257353
:102192002C25303264253032643230253032642CC2
:1021A2002530326425303264253032642C53322C8F
:1021B20025732C25643A58582323220D0A005F5FA9
:1021C2005F0030002A30002A2A30002A2A2A3000F2
:1021D2002A2A2A2A30002A2A2A2A2A30004154246A
:1021E200545454524745563D34322C312C32350D1D
:1021F2000A0031002A31002A2A31002A2A2A310013
:102202002A2A2A2A31002A2A2A2A2A310032002A94
:1022120032002A2A32002A2A2A32002A2A2A2A327A
:10222200002A2A2A2A2A320033002A33002A2A3391
:10223200002A2A2A33002A2A2A2A33002A2A2A2A68
:102242002A3300415424545454524745563D3432A3
:102252002C312C25640D0A00415424545454524705
:1022620045563D34322C312C32330D0A0034002ACB
:1022720034002A2A34002A2A2A34002A2A2A2A3412
:10228200002A2A2A2A2A34000D20486F726120501F
:1022920054523A20253032643A253032643A25309D
:1022A200326420454E44205054520A000D0A5055C3
:1022B2004E5445524F2025730A20454E4400502566
:1022C200640046616C6C6F20616C20706173617296
:1022D2002061206C6120686F7261206C6F63616C99
:1022E2000A0D00415424545444455649443F0A0DB2
:1022F2000041542B4353510A0D0041542454544E6F
:10230200455449503F0A0D004154245454475053F8
:102312005152593D31302C300A0D00425553205351
:102322004954550076657220302E392E37004154BB
:1023320024545454524745563D34322C312C3234B5
:102342000D0A004E4F204155544F52495A41444FB5
:102352000053494E20434F4E4558494F4E002530B9
:1023620032643A253032643A253032640032302504
:102372003032642D253032642D25303264004E4FC8
:1023820020484120494E49434941444F2053455337
:10239200494F4E0053494E2052555441002020527D
:1023A2005554413A20202000494E4752455345207A
:1023B200535520434F4449474F0046494E205255FA
:1023C200544100494E4943494F205255544100203F
:1023D20048412053414C49444F0044454C20534905
:1023E2005354454D41004E454345534954412049BC
:1023F2004E4943494152204A4F524E414441004DB9
:10240200454E53414A453A004553434F4A412053B2
:10241200552052555441002020525554413A202013
:102422000050616E74616C6C61004E6F2041757476
:102432006F72697A6164610001002D4E414E0000A5
:102442000100770452210800440554210400F005DC
:102452005C210400F505602104000003C021040092
:102462000403C02102000803C42103000A03C62199
:1024720004000D03C92105001103CD210600160336
:10248200D22107001C03D82102002303F4210300F8
:102492002503F62104002803F92105002C03FD2160
:1024A20006003103022207003703082202003E031E
:1024B2000F220300400311220400430314220500EB
:1024C2004703182206004C031D2207005203232251
:1024D200020059032A2203005B032C2204005E033C
:1024E2002F22050062033322060067033822070009
:1024F2006D033E22020074036F22030076037122F1
:1025020004007903742205007D0378220600820309
:102512007D2207008803832209008F031D230A00FE
:10252200980326230E00A20345230D00B003532374
:102532001600BD0380230900D30396230B00DC039E
:102542009F231200E703AA230900F903BC230C000E
:102552000204C5230B000E04D1230C001904DC2352
:1025620019002504E82309003E0401240F00470452
:102572000A240A00560419240900600423240E00C8
:1025820069042C240C000300722101006E063A2417
:102592000000F894EE27EFBBF1E0F5BFE5BFF8E1EC
:1025A200A895A4B7A77FA4BFF0936000E093600052
:1025B2008DE0A2E0BB27ED938A95E9F780E098E0F1
:1025C200A0E0B1E0ED930197E9F7E2E4F4E285914E
:1025D2009591009761F0A591B59105901590BF0175
:1025E200F00105900D920197E1F7FB01F0CFE0E0D9
:1025F200EEBBEFEFEDBFE8E0EEBFC0E0D3E00C943E
:10260200091F5F9A87E38A95F1F75F9887E38A95B6
:10261200F1F70895169A179A5E985D98EFE3E8B974
:10262200F0DF08951A935E985D98A981BA81A0346B
:10263200E0E0BE0720F4169A1798198107C0179A8E
:102642001698E981FA81E054F0401E2FE12FE064F0
:10265200EF771E2F18B9D5DF18813BC01A935E9809
:102662005D98E981E86BEF7B1E2F18B9CADF1881EC
:1026720030C0EA81FB810E94A624E881F9810E9490
:10268200AA24249608955E9A5D98E881E8B98DEDB2
:1026920090E00197F1F7B5DF219608951A930A9316
:1026A2000E94AE240E94B324E0E4F0E0FA93EA939D
:1026B2000E94B324169A00E010E00134E0E01E0705
:1026C20034F4E0E0EA93DFDF0F5F1F4FF6CF1981AA
:1026D2000881239608951A930A9300E010E00830C7
:1026E200E0E01E072CF40A93D9DF0F5F1F4FF7CFEC
:1026F2000991199108951A93EB81FC810E94A624F5
:10270200E981FA810E94AA2410E0183080F4ED8158
:10271200FE810E947A27DF010E94B924EA0FFB1F83
:10272200E458FF4FE491EA93AEDF1F5FEECF1881CA
:1027320041C10E942E2820E010E0EC811E1700F516
:1027420000E00830D8F40E94BC24F0E0F595E7954B
:10275200EC93ED81E1703E2F303021F00E94BC24D9
:10276200E068EC932F5FEC81E21731F4ED81F0E049
:10277200F595E795ED8320E00F5FE3CF1F5FDDCF97
:102782000E94352828960895EF9721970E942E28B7
:102792000E94C3240E94A624FE01EB5BFF4F01901E
:1027A200F081E02D0E94AA2410E0183008F50E9462
:1027B200B924BF010E947A27DE011496EA0FFB1F9B
:1027C200FA93EA93FE01E55BFF4F0190F081E02D61
:1027D2000E947A27E60FF71FE458FF4FE491EA932D
:1027E200FE01E95BFF4FE081EA93A3DF1F5FDDCFCC
:1027F20000E0FE01EC5BFF4FE0810E1710F00C943D
:10280200521410E0183010F00C94441430E0FE0121
:10281200EC5BFF4FE0813E17A0F5E32FF0E0DE0115
:10282200A95BBF4F0D90BC91A02DEA0FFB1FBF010A
:10283200DE01AC5BBF4FAC91BB270E94B9240E9462
:102842008E27DB01AE0FBF1FA034E0E0BE0749F4C4
:10285200E0E4F0E0FA93EA930E94C324FA93EA9345
:1028620008DF0E94B9240E947A27DE011496AE0F77
:10287200BF1FEE27A00FBE1FEC91EA9304DF3F5F5C
:10288200C6CF1F5FBFCF0E94C324FA93EA93DE0133
:10289200A95BBF4F0E94CA24FA93EA93EADE0F5F54
:1028A200A8CF0E943528EF962C960895A981A130D1
:1028B20011F00C94D3140E94D024E138A0E0FA075E
:1028C20011F4EAEF17C0E039A0E0FA0711F4EBEFD8
:1028D20011C0E839A0E0FA0711F4ECEF0BC0EE38B2
:1028E200A0E0FA0711F4EDEF05C0ED38A0E0FA0719
:1028F20011F4EEEFEE83AE81A13CB0F0A09177042B
:10290200B0917804A13CE0E0BE0774F00E94D324A9
:102912003596E491E03041F00E94D0240E94E024F8
:102922003496E491E03009F417C00E94D324DF0109
:10293200E0917904F0E03196EA0FFB1FE4910E94E6
:10294200E924E0917A040E94E924E0917B040E9448
:10295200E924D1DEE2E001C0E0E0E0937904AE8157
:10296200A13C58F00E94D0240E94E024DF01E091B3
:1029720079040E94ED24E49101C0EE81F0E00E940E
:10298200F1240E94F1240E94F6240E94D024E093B4
:102992007704F0937804EC81E0937A04EA81E0937F
:1029A2007B0408C00E94D0240E94F1240E94F124DA
:1029B2000E94F624279608951A930A9310E000E0E5
:1029C2000E94FC2418F4AC81A03009F029C00E94B6
:1029D200B9240E940725EC91EA930E940C250E94DB
:1029E2000C25E0E00E9411250E941625AF81B885D2
:1029F200EA0FFB1FEF83F8870E942125A0E8B0E0D1
:102A02000E941328EA1BFB0BAF81B885EA17FB076C
:102A12002CF4E0E0EF83E8870E9426251F5FD0CFE9
:102A22000E94FC2418F4AC81A13009F075C00E9408
:102A3200B9240E940725AC91A13E21F40E942F25C2
:102A4200A73C09F002C009EF29C00E94B9240E94E4
:102A52000725AC91A13E21F40E942F25A33C09F049
:102A620002C007EE1BC00E94B9240E940725AC9148
:102A7200A13E21F40E942F25A23C09F002C008EEDB
:102A82000DC00E94B9240E940725AC91A13E21F4F9
:102A92000E942F25A53C09F001C009EE003079F013
:102AA2000A930E943525E1E00E9411251E5F0E94D3
:102AB2002125AF81B8850E94402500E01CC00E94FC
:102AC200B9240E940725EC91EA930E943525E985F5
:102AD2000E9411250E94B9240E940725AC91A032C0
:102AE20019F40E94162502C00E942125AF81B885E3
:102AF2000E9440251F5F0E9421253196AF81B88533
:102B0200AE17BF0744F40E942125A0E8B0E00E945E
:102B120040250E94262584CFE1ECF0E0E093770483
:102B2200F0937804198108812B9608950E942E282B
:102B320008851985EC81FD81E017F10700F12A85EE
:102B42003B85EE81FF81E217F307B0F03A932A93B7
:102B52001A930A938EDDA0E8A09FF001A19FF00DC9
:102B6200E20FF31FAC85BD85EA0FFB1FE491EA93E8
:102B72008ADD2F5F3F4FE5CF0F5F1F4FDBCF0E94F4
:102B820035282E960895AB85AA2322F0AA85BB8507
:102B920058970CF015C0AD85AA2322F0AC85BD85EF
:102BA200DC970CF00CC0AF85AA2322F0AE85BF855E
:102BB200DC970CF003C0E1E0F0E06DC06AC069C0D0
:102BC20068C0A881B9810E9428280CF062C0EA81FD
:102BD200FB81E130A0E0FA0721F0E330A0E0FA0740
:102BE20009F404C0E530A0E0FA0709F404C0E730B4
:102BF200A0E0FA0709F404C0E830A0E0FA0709F4FB
:102C020004C0EA30A0E0FA0709F404C0EC30A0E006
:102C1200FA0739F4A881B9819097DCF5E1E0F0E098
:102C22003AC0E430A0E0FA0721F0E630A0E0FA076B
:102C320009F404C0E930A0E0FA0709F404C0EB305B
:102C4200A0E0FA0739F4A881B9815F9714F5E1E0B1
:102C5200F0E021C0E230A0E0FA07D9F4A881B981FE
:102C62005E97BCF4A881B9815D971CF4E1E0F0E0C5
:102C720012C00E9445250E944A2539F40E9453251C
:102C820019F40E945D2509F401C003C0E1E0F0E0FF
:102C920002C0E0E0F0E0629608956297EA89FB895B
:102CA200DE0182E10E941A28AA85BB85169714F0DC
:102CB2000C94D716EA85FB857896EA87FB873597C9
:102CC200EA87FB87A881B981119711F00C94D1167C
:102CD200AA81BB81119761F4E885F9853197E8876C
:102CE200F987ECE0F0E0EA83FB83EFE1F0E055C026
:102CF200AA81BB811397C9F40E9445250E944A25E7
:102D020039F40E94532519F40E945D2509F401C08B
:102D120003C0EDE1F0E002C0ECE1F0E0E883F9830A
:102D2200E2E0F0E0EA83FB833AC0EA81FB8131977B
:102D3200EA83FB83E130A0E0FA0721F0E330A0E070
:102D4200FA0709F404C0E530A0E0FA0709F404C068
:102D5200E730A0E0FA0709F404C0E830A0E0FA077F
:102D620009F404C0EA30A0E0FA0719F4EFE1F0E058
:102D720014C0E430A0E0FA0721F0E630A0E0FA0740
:102D820009F404C0E930A0E0FA0709F404C0EB300A
:102D9200A0E0FA0721F4EEE1F0E0E883F98305C050
:102DA200E881F9813197E883F98305C0EA85FB85DB
:102DB2003597EA87FB87FE01A2E10E940B28E3DE3A
:102DC200309739F0FE01A2E10E940B28FADE30971B
:102DD20009F409C0FE01AA89BB8982E10E941A286E
:102DE200E1E0F0E002C0E0E0F0E0649608950E94C5
:102DF2002C28E09169060E9467258F01E0916B06FD
:102E02000E9467259F01E0916806F0E0E00FF11F44
:102E1200DF01E0916A060E94ED24E20FF31FDF0159
:102E22000E947025EAE0F0E00E94CB27AF01E0911A
:102E32006D06DA01F0E0EA17FB0799F4A091680643
:102E4200BB27E09169060E947625E0916A060E94FE
:102E52007625E0916B060E9476250E9470251097D8
:102E620009F403C0E1E0F0E002C0E0E0F0E00E941B
:102E72003328269608955C9A0E947A255C980E94CF
:102E82007A250895EEE7F1E2FA93EA93E5EFF5E0A9
:102E9200662777270E9480250E948B250E9406289C
:102EA2000E9492250E949B25E0E6F6E0662777279E
:102EB2000E940628E091FC05FF27662777270E94DB
:102EC200062884E20E947024A6960895E0910906DD
:102ED200F0910A06309719F4E0E0F3E036C0E130F1
:102EE200A0E0FA0749F4E0E2FFE10E94B4250E9463
:102EF200AE240E94B72531C0E230A0E0FA0749F4BF
:102F0200E0EFFDE10E94B4250E94AE240E94B725A5
:102F120024C0E330A0E0FA0749F4E0EFF9E00E94B0
:102F2200B4250E94AE240E94B72517C0E430A0E069
:102F3200FA0749F4E0E5F0E20E94B4250E94AE24CB
:102F42000E94B7250AC0E4E0F3E0FA93EA930E94F4
:102F5200AE240E94AE240E94C1250895A0E00499E7
:102F6200A1E0A03039F4E0E0EC1521F4A0915F0675
:102F7200A13009F049C0E1E0CE2E0E94C925309768
:102F820031F4E0E0E0936806E8E0F3E031C0E130DC
:102F9200A0E0FA0731F4E0E0E0936906EAE0F3E04A
:102FA20027C0E230A0E0FA0731F4E0E0E0936A06DD
:102FB200EDE0F3E01DC0E330A0E0FA0731F4E0E019
:102FC200E0936B06E1E1F3E013C0E430A0E0FA071E
:102FD20031F4E0E0E0936C06E6E1F3E009C0E530AD
:102FE200A0E0FA0749F4E0E0E0936D06ECE1F3E0DB
:102FF200FA93EA930E94CD250E94C925E05AF94F1F
:10300200A0E30E94D6253FC0A0E00499A1E0A03031
:1030120039F4E0E0EC1521F4A091FB05A03009F0B1
:103022002BC0E0910206EF5FE0930206E1E0CE2EB4
:1030320022DF0E947A25E09102060E94DD2521F41A
:10304200E2E0E093520617C0E230A0E0FA0799F4FA
:10305200E0E0E093FC05E0930406E5E00E94E2254F
:10306200E0E0E0935F06E0936706EFEDF1E20E9495
:10307200E825E093020607C0049B03C0E1E0EC15DB
:1030820009F001C0CC240895A0E00399A1E0A0308A
:1030920039F4E0E0EB1521F4A0915F06A13009F0CC
:1030A20049C0E1E0BE2E0E94C925309731F4E1E02B
:1030B200E0936806E3E2F3E031C0E130A0E0FA0712
:1030C20031F4E1E0E0936906E5E2F3E027C0E230A3
:1030D200A0E0FA0731F4E1E0E0936A06E8E2F3E007
:1030E2001DC0E330A0E0FA0731F4E1E0E0936B06A3
:1030F200ECE2F3E013C0E430A0E0FA0731F4E1E0DF
:10310200E0936C06E1E3F3E009C0E530A0E0FA07E2
:1031120049F4E1E0E0936D06E7E3F3E0FA93EA9322
:103122000E94CD250E94C925E05AF94FA1E30E94D1
:10313200D62532C0A0E00399A1E0A03059F4E0E026
:10314200EB1541F4A091FB05A03021F4A091FC0500
:10315200A13009F01AC0E0910406EF5FE093040683
:103162008ADEE1E0BE2EA0910406AD3010F0E093BD
:103172000406A0915206A93011F4E9E001C0E8E08A
:10318200E09352060E947A2507C0039B03C0E1E048
:10319200EB1509F001C0BB240895A0E00299A1E05B
:1031A200A03039F4E0E0EE1521F4A0915F06A130E1
:1031B20009F049C0E1E0EE2E0E94C925309731F4B2
:1031C200E2E0E0936806EEE3F3E031C0E130A0E034
:1031D200FA0731F4E2E0E0936906E0E4F3E027C0A5
:1031E200E230A0E0FA0731F4E2E0E0936A06E3E4B9
:1031F200F3E01DC0E330A0E0FA0731F4E2E0E0932F
:103202006B06E7E4F3E013C0E430A0E0FA0731F420
:10321200E2E0E0936C06ECE4F3E009C0E530A0E004
:10322200FA0749F4E2E0E0936D06E2E5F3E0FA938F
:10323200EA930E94CD250E94C925E05AF94FA2E3E4
:103242000E94D62535C0A0E00299A1E0A03059F431
:10325200E0E0EE1541F4A091FB05A03021F4A0912D
:10326200FC05A13009F01DC0E0910406E150E09395
:10327200040601DEE1E0EE2EA0910406A13010F07A
:10328200AD3018F0ECE0E0930406A0915206A930AC
:1032920011F4E9E001C0E8E0E09352060E947A25C9
:1032A20007C0029B03C0E1E0EE1509F001C0EE2465
:1032B2000895A0E00199A1E0A03039F4E0E0ED1515
:1032C20021F4A0915F06A13009F049C0E1E0DE2EB1
:1032D2000E94C925309731F4E3E0E0936806E9E5FE
:1032E200F3E031C0E130A0E0FA0731F4E3E0E0932B
:1032F2006906EBE5F3E027C0E230A0E0FA0731F41B
:10330200E3E0E0936A06EEE5F3E01DC0E330A0E0FF
:10331200FA0731F4E3E0E0936B06E2E6F3E013C070
:10332200E430A0E0FA0731F4E3E0E0936C06E7E66C
:10333200F3E009C0E530A0E0FA0749F4E3E0E093E6
:103342006D06EDE6F3E0FA93EA930E94CD250E9422
:10335200C925E05AF94FA3E30E94D62558C0A0E040
:103362000199A1E0A03039F4E0E0ED1521F4A0913B
:10337200FC05A13009F044C0D394E0910306EF5F4D
:10338200E093030678DDE8ECF0E00E94F025E0919E
:1033920003060E94DD2501F5E0910406E030B1F05C
:1033A200E1E0E093FB05E4E0E0935206E5E4F2E2BB
:1033B200FA93EA93E0910406FF27662777270E9493
:1033C200062884E00E947024269605C0E091030638
:1033D200E150E093030613C0E230A0E0FA0779F46B
:1033E200E0E0E093FB05EAE5F2E20E94E825E093E3
:1033F2000406E3E0E0935206E0E0E093030607C030
:10340200019B03C0E1E0ED1509F001C0DD24089540
:10341200A0E00099A1E0A03041F4A091FA05A0300B
:1034220021F4A0915F06A13009F05BC0E1E0E093D6
:10343200FA050E94C925309741F4E4E0E09368065A
:10344200E4E7F3E00E94F42542C0E130A0E0FA078D
:1034520041F4E4E0E0936906E6E7F3E00E94F42534
:1034620036C0E230A0E0FA0741F4E4E0E0936A06F5
:10347200E9E7F3E00E94F4252AC0E330A0E0FA076E
:1034820041F4E4E0E0936B06EDE7F3E00E94F425FB
:103492001EC0E430A0E0FA0741F4E4E0E0936C06D9
:1034A200E2E8F3E00E94F42512C0E530A0E0FA075A
:1034B20081F4E4E0E0936D06E8E8F3E00E9404267C
:1034C2000E940B26E0E0EA93E1E0EA93EEEFEA9352
:1034D20073DA0E94C925E05AF94FA4E30E94D62567
:1034E2000AC0009B04C0A091FA05A13009F003C0F4
:1034F200E0E0E093FA050895EAE8F2E2FA93EA934B
:10350200AA81BB811A960E941026AE81BF811C96A9
:103512000E941026AA85BB851E960E9410268CE06A
:103522000E9470242E96229608952D978DE0A0E099
:10353200B0E0E4E6F1E20E943A280E942C2820E062
:1035420030E000E010E0083CE0E01E0714F00C94CC
:10355200351E0E941726A432B1F40E941F26A432FF
:1035620091F40E942726A43571F40E942F26A837D1
:1035720051F40E943726A43731F4F8010E943F2605
:10358200AC91AC3209F030C066240E944526E0EAD4
:103592006E1690F4E62DF0E0BF01E05BFA4F0F01EA
:1035A200D8011696FB01EA0FFB1F0E945026EC91F0
:1035B200D001EC9363940BC0E1E05E2ED801169625
:1035C200E62D0E94ED240E945026ECE2EC93D801F5
:1035D2001696E62D0E94ED240E945026AC91AC3244
:1035E200B1F6E7E0E09352060E941726AB3281F46F
:1035F2000E941F26A33461F40E942726A33541F4BA
:103602000E942F26A13521F40E943726AA3309F001
:1036120054C00E944526F80136960E9450260E9408
:103622005526AAE0B0E00E948E270F01F8013796D6
:103632000E9450260E945526E00DF11DE987FA8767
:10364200A985BA851B9724F0A985BA851F970CF026
:1036520005C0E1E0F0E00E9459262FC0A985BA8595
:103662001F9724F0A985BA8552970CF005C0E2E0B5
:10367200F0E00E94592621C0A985BA85529724F00C
:10368200A985BA855F970CF005C0E3E0F0E00E94DF
:10369200592613C0A985BA85909724F0A985BA85C1
:1036A200D2970CF005C0E4E0F0E00E94592605C074
:1036B200E0E0E0930906E0930A060E941726A2348E
:1036C20041F40E941F26A53521F40E942726A33526
:1036D20009F08CC00E944526F80170960E9450267F
:1036E2000E945526E0931B06F80171960E9450260F
:1036F2000E945526E0931C06F80172960E945026FD
:103702000E945526E0931D06F80173960E945026EA
:103712000E945526E0931E06A0911E06A13119F4BF
:10372200EAE0E0931E06A0911B06A13130F0E09181
:103732001B06F0E03797E0931B06A0911C06A1310F
:1037420030F0E0911C06F0E03797E0931C06F80198
:1037520076960E945026AC91A13339F4F8017796FF
:103762000E945026AC91A83309F040C0E1E0E093FA
:103772005206A0911D06EAE0EA02F001DF01E091A3
:103782001E060E94ED24E0932306F0932406A091E6
:103792001B06E0E1EA02F0013197DF01E0911C062D
:1037A2000E947625EAE0F0E00E948E27E09325064B
:1037B200F0932606A0912306B0912406EA0FFB1F80
:1037C200E0932706F0932806EFE1F6E0FA93EA93F6
:1037D200E0ECF2E2FA93EA93E0912706F0912806F0
:1037E2000E945E2684E00E94402428960E941726AA
:1037F200AE3481F40E941F26A53461F40E9427266C
:10380200A43541F40E942F26A93421F40E943726C0
:10381200A03509F04EC00E9445260E946326293C2D
:10382200E0E03E076CF40E946926AC91AA3329F4C9
:103832000E946E2611F40E9477262F5F3F4FEFCF32
:103842000E947E26AC91A232A1F50E9482260E949D
:10385200552611F50E9486260E945526E9F40E94FB
:103862008A260E945526C1F4EF85F88937960E9470
:1038720050260E94552681F4EF85F88938960E94D9
:1038820050260E94552641F4EF85F88939960E9408
:1038920050260E94552609F006C0E0E0E093050696
:1038A200E093060606C0E1E0F0E0E0930506F0933F
:1038B20006060E941726A43481F40E941F26A5340E
:1038C20061F40E942726A63541F40E942F26A934CE
:1038D20021F40E943726A43409F03BC00E944526F9
:1038E2000E946326293CE0E03E076CF40E946926B0
:1038F200AC91AA3329F40E946E2611F40E94772615
:103902002F5F3F4FEFCFEF85F88931960E94502607
:10391200AC91A232F1F40E947E26AC91E091F505C1
:10392200EA1789F40E948226AC91E091F605EA1723
:1039320051F40E948626AC91E091F705EA1719F43A
:103942000E948A26AC91E1E0F0E0E0932C06F0932D
:103952002D060E941726A73481F40E941F26A03547
:1039620061F40E942726A23541F40E942F26AD342D
:1039720021F40E943726A33409F073C10E94452620
:103982000E946326293CE0E03E070CF50E9469266E
:10399200AC91AC32C9F40E946E2611F40E947726D3
:1039A200A989BA89129731F4FA01E20FF31F31960D
:1039B200ED87FE87A989BA89199731F4FA01E20FD6
:1039C200F31F3196EB87FC872F5F3F4FDBCFEF85ED
:1039D200F88931960F010E9450260E945526FF2336
:1039E2003AF03A972CF4AD85BE850A161B0609F407
:1039F2007BC0EF85F88936960E9450260E94552694
:103A0200E887A885A03010F0AA3008F003C0E88546
:103A1200E09353060E948A260E945526E887A885CD
:103A2200A03010F0AA3008F003C0E885E0935406F5
:103A32000E9486260E945526E887A885A03010F0AD
:103A4200AA3008F003C0E885E09355060E9482265A
:103A52000E945526E887A885A03010F0AA3008F009
:103A620003C0E885E09356060E947E260E945526F2
:103A7200E887A885A03010F0AA3008F003C0E885D6
:103A8200E0935706EF85F88931960E9450260E94EE
:103A92005526E887A885A03010F0AA3008F003C0A8
:103AA200E885E0935806609153067727E091540623
:103AB2000E948D26E0934E06F0934F0660915506C4
:103AC2007727E09156060E948D26E0934C06F093EC
:103AD2004D06609157067727E09158060E948D2681
:103AE200E0934A06F0934B06ED85FE8531960E94DF
:103AF2005026EC91F0E0E0930706F0930806EB8580
:103B0200FC8531960E9450260E945526FF2312F012
:103B12003A970CF0A6C0EB85FC8531960E945026A0
:103B22000E945526E0935A06EB85FC8532960E9448
:103B320050260E945526E0935906EB85FC85339664
:103B42000E9450260E945526E0935C06EB85FC8578
:103B520034960E9450260E945526E0935B06EB8520
:103B6200FC850E943F260E945526E0935E06EB8567
:103B7200FC8536960E9450260E945526E0935D06EB
:103B8200609159067727E0915A060E948D26E093AC
:103B92004006F093410660915B067727E0915C0650
:103BA2000E948D26E0934206F093430660915D06E3
:103BB2007727E0915E060E948D26E0934806F093F7
:103BC2004906E0914806F09149060E948127E05398
:103BD200F84F6F4F7F4FE0934406F0934506609392
:103BE200460670934706E0E4F6E0A2E10E940B2845
:103BF2000E94E215309749F0E0E4F6E0A2E10E946B
:103C02000B280E94C415309709F42BC00E949326FA
:103C120044D8309741F0E0E4F6E0AEE2B6E082E16B
:103C22000E941A281EC0E4ECF2E20E949826EAE8FA
:103C3200F2E2FA93EA93E0914A06F0914B060E946F
:103C42005E26E0914C06F0914D060E945E26E091C0
:103C52004E06F0914F060E945E268CE00E94702470
:103C62002E960F5F1F4F6FCCAA248824F19A00E092
:103C720010E0083CE0E01E0744F4F8010E945026E0
:103C8200E0E0EC930F5F1F4FF4CF0E94332865965C
:103C92000895EA93FA93EFB7EA931A930A9310916D
:103CA200C0000091C600E091C000E07811F4F198E4
:103CB20001C0F19AE12FEC7181F4E82D8394F0E0D8
:103CC200E458FB4F0083E8ECE81509F48824A39438
:103CD200E8ECEA1511F4AA24F09A09911991E991F4
:103CE200EFBFF991E99118950A921A92FA926A93A2
:103CF2007A938A939A93AA93BA93EA93FA93EFB731
:103D0200EA93E6E0E6BDAAE2B6E00E94CA24A091E8
:103D12002A06B0912B069B9711F00C94EF1EE0E05F
:103D2200E0932A06E0932B06ACE3B6E00E94CA2495
:103D32003197ADEFB5E00E94CA240E949F261A97E0
:103D420021F4E5EEF2E20E9498260E949F261F9738
:103D520021F4E3EFF2E20E9498260E949F265497F4
:103D620021F4ECEFF2E20E9498260E949F2615971A
:103D720021F4EAE0F3E20E9498260E949F26DC9753
:103D82006CF10E94A426AAE3B6E00E94CA24A09184
:103D92003A06B0913B06DC970CF10E94AB26A8E3F1
:103DA200B6E00E94CA24A0913806B091390658970D
:103DB20051F4A0913A06B0913B06109721F40E946B
:103DC2009F26109709F00AC0E0E0F0E0E093380681
:103DD200F09339060E94AB260E94A426E991EFBF18
:103DE200F991E991B991A991999189917991699101
:103DF200F990199009901895EA93EFB7EA93E09138
:103E02002906EF5FE0932906E991EFBFE991189542
:103E120000E010E02CE734E04EE256E0E0E0E09310
:103E22005206E0E8E0936100E0E0E0936100EFEF2A
:103E3200E7B9E2B9E0EFE1B9E0E0E5B9EFEFE4B903
:103E4200E0E0EBB9E0EFEAB9E0E0E093C000E8E9D6
:103E5200E093C100E6E0E093C200E0E0E093C50039
:103E6200E5E0E093C400E0E0E4BDE5E0E5BDE0E0CC
:103E7200E6BDE7BDE8BDE1E0E0936E00E0E0E0937F
:103E82008000E5E0E0938100E0E0E0938500E093CC
:103E92008400E0938700E0938600E0938900E0933A
:103EA2008800E0938B00E0938A00E1E0E0936F00EA
:103EB200E1E0F0E0E0933806F0933906E2E0F0E06A
:103EC200E0933A06F0933B06E3E0F0E0E0933C0631
:103ED200F0933D065A934A930FDB0E940B13EAE0DC
:103EE200F0E00E94F0250E946C130E94B226E0EFDF
:103EF200FDE00E94B4250E94AE240E94B6260E94D4
:103F0200BB260E94C1260E946C13E0EFF1E10E94E1
:103F1200B4250E94AE24EDE2F0E00E94C426E0EF58
:103F2200F5E0FA93EA93E7E3F0E00E94C726EFE8B0
:103F3200F3E0FA93EA93EBE3F0E00E94D526E8E996
:103F4200F3E0FA93EA93E8E2F0E00E94DC260E94B2
:103F5200E1260E94C1260E946C13E0E0E093530622
:103F6200E0935406E0935506E0935606E093570615
:103F7200E0935806E0935906E0935A06E0935B06F5
:103F8200E0935C06E0935D06E0935E0600E010E0DD
:103F9200003AE0E01E072CF40E94E4260F5F1F4F58
:103FA200F7CF7894E0EFF5E10E94B4250E94EB266A
:103FB200E9E1F0E00E94C426E5EEF2E20E949826D2
:103FC20086E695E00197F1F73A932A93AEDACC248C
:103FD200BB24EE24E0E0E0930406E1E0F0E0E093AD
:103FE2002C06F0932D06F19904C03A932A939DDA98
:103FF200F19AE0910406E03011F4E0E203C0E091AE
:104002000406E05C9E2EA091FD05B091FE05A43B46
:10401200E0E0BE074CF0E4EBF0E0E093FD05F09346
:10402200FE05E0E0E0930006A0910006A13041F415
:10403200E0E0E0930106EA930E944F130E946717A3
:104042000E94AF170E944518A8D833D9E1D9A09190
:104052002C06B0912D06119711F00C949F22A0917D
:104062006706A63011F00C947D20E0E0E0935F0635
:10407200E7E0E09367060E94F8163097E9F0E0E384
:10408200F3E20E9498260E94F026ECEDF5E00E94F1
:10409200F025E1E0EA930E944F130E94F4260E9469
:1040A200FD26E1E0E093FC05E09304060E9443173D
:1040B200E8E0E093520620C00E94F026E2EAF3E034
:1040C200FA93EA930E94CD25E4EFF1E00E94F025F5
:1040D200E3E0EA930E944F130E94F0260E94FD261D
:1040E200E0E0E093FC05E2E00E94E225E1E0E093FB
:1040F2005F06E0E0E0936706A0910506B091060630
:10410200119721F4A0910006A13009F002C0E5E464
:104112000CC0A0910506B0910606109721F4A0915B
:104122000006A13009F009C0E0E8EA93E5E1F0E019
:104132000E94B425E1E00E940127A0910706B091F8
:104142000806A134E0E0BE0721F4A0910006A130E8
:1041520009F003C0E0EFF9E006C0A0910006A1302B
:1041620081F4E0EFF5E1FA93EA93EFE5F0E00E94E3
:10417200B4250E94B626E1E0F0E0FA93EA930E94A9
:104182009715A0910006A03021F4A0910106A0305D
:1041920009F015C0E0E0EA930E944F13E1E0EA93D0
:1041A2000E944F13E0EBF3E0FA93EA93E6E1F0E0CA
:1041B2000E94B4250E94C125E1E0E0930106E0914E
:1041C2005206E03011F00C947321A091FC05A1304D
:1041D20069F50E9406270E940F27EBE0F6E00E9495
:1041E200DC260E94C726E3E1F6E0FA93EA93EFE6C3
:1041F200F3E2FA93EA930E9492250E948B250E9491
:1042020080250E940F27E3E1F6E00E940426E5E004
:10421200F0E00E94E126E0EFF9E00E94B4250E945E
:10422200EB26E3E2F0E00E94C4262CC0A091FC053C
:10423200A03021F4A091FF05A03009F023C0E1E0F5
:10424200E093FF050E94F426E7E0EA930E944F13F1
:10425200E0EFF5E10E94B4250E94EB26E9E1F0E0EF
:104262000E94C426EDEBF3E00E94B425E5E0F0E005
:10427200FA93EA93E0E0EA93E1E0EA93EEEFEA935D
:104282000E94DD14A0910406A03021F4A091FC0547
:10429200A13009F00BC0E3EDF3E0FA93EA93E3E215
:1042A200F0E00E94DC260E94E1261BC0A0910406D9
:1042B200A03021F0A091FC05A13009F012C0ECED74
:1042C200F3E00E940426E7E0F0E00E94E1269A92E1
:1042D200EFE4F0E00E94DC26FA93EA93E0E00E9429
:1042E20001272BC1A0915206A13011F50E94F4269C
:1042F2000E94FD260E941427EFE1F6E0FA93EA936A
:10430200E0E3F0E00E941727FA93EA93E0E0EA93F1
:10431200E2E0EA93E1E0EA930E94DD140E94B22611
:104322000E94C1260E94F4260E94FD26E0E003C1FD
:10433200A0915206A23099F40E94F4260E94FD2612
:104342000E941427E7EEF3E00E94B4250E941C2786
:10435200E1E0E0935F060E94B226E3E6ECC0A091A2
:104362005206A330D1F40E94F4260E94FD260E9438
:104372001427E9EFF3E0FA93EA93ECE1F0E00E940C
:1043820017270E94E1260E94B2260E94C1260E949F
:10439200F4260E94FD26E0E0CEC0A0915206A43091
:1043A200C1F40E94F4260E94FD260E941427E2E036
:1043B200F4E00E941F270E9417270E94E1260E9414
:1043C200B2260E9424270E94F4260E94FD26E0E0E5
:1043D200B2C0A0915206A53021F50E94F4260E9497
:1043E200FD260E941427EEE0F4E00E941F27FA93B4
:1043F200EA930E941C27E9E1F4E00E941F27FA9346
:10440200EA930E940B260E94C1250E94B2260E94B6
:1044120024270E94F4260E94FD26E0E00E94E22565
:104422008CC0A0915206A630C1F40E94F4260E94CC
:10443200FD260E941427E5E2F4E00E941F27FA936A
:10444200EA930E941C270E94B2260E9424270E94FF
:10445200F4260E94FD26E0E06EC0A0915206A7302D
:10446200F1F50E946C13EEE3F4E0FA93EA93EEE1C5
:10447200F0E00E94B4250E94C125E0E5F5E00E942B
:10448200B425E1E0F0E00E94E126E8EBFBE00E94C7
:10449200F025049B08C0039B06C0029B04C0019B3D
:1044A20002C0009901C001C0F4CF049B08C0039B65
:1044B20006C0029B04C0019B02C0009901C0F5CF57
:1044C2000E946C1300E010E0003AE0E01E072CF4BA
:1044D2000E94E4260F5F1F4FF7CFE0E02CC0A091AF
:1044E2005206A83079F4E7E4F4E00E941F270E9404
:1044F200D526E6E5F4E00E940426E7E0F0E00E941B
:10450200E12618C0A0915206A930B9F40E940627EC
:104512000E940F27EBE0F6E00E94DC260E94C726ED
:104522009A92EFE4F0E00E94DC26FA93EA93E0E04C
:104532000E940127E9E0E093520612C0E0E6F4E0AF
:104542000E9404260E941C27E9E6F4E0FA93EA930B
:10455200EFE0F0E0FA93EA930E940B260E94C12555
:10456200E0EFF9E1FA93EA93E9E6F0E0FA93EA93ED
:104572000E94EB260E94B6260E94BB2634CDFFCFB6
:10458200E091C000E072E1F3E881E093C600219679
:104592000895EA81EA93F4DFA881B9810E94CA24CE
:1045A200239608951A930A93AA81BB8112960E94B8
:1045B200FE27309729F1AA81BB8114960E94FE271B
:1045C2008F01309761F00230E0E01E07C0F0F80181
:1045D20031978F01AA81BB811496ED93FC93AA8136
:1045E200BB8112960E94CA243197AC81A083AA8112
:1045F200BB810E94FE27FF2312F00E94CA2406C03C
:10460200AA81BB81EFEFFFEFED93FC931981088143
:104612002596089526970E942C2810E0AC85BD852A
:10462200E0E0F0E0ED93FC93EA89FB893196EA8BB6
:10463200FB8B3197E4912E2FE03011F40C94382447
:10464200E12FE03039F4253211F411E002C00E946A
:1046520027270CC1E130A9F4253219F40E9427273B
:1046620004C112E040E000E02D3211F401E0FEC08E
:104672002B3211F44BE2FAC0203211F440E2F6C0C0
:1046820002C0E23039F450E013E0203311F4006844
:10469200EDC004C0E33011F00C943724203310F045
:1046A2002A3308F007C0AAE05A9F502DE22FE053A8
:1046B2005E0FDCC0E22FE33649F40E943027E8891E
:1046C200F989A481AA930E943627CFC0E33741F427
:1046D2000E9430270E943E270E9491241E2F0AC06A
:1046E200E03761F40E9430270E943E270E949B24FB
:1046F2001E2F086002600F7730E035C0E43611F0FB
:10470200E93611F4046002C0E53731F4E0E4F1E285
:10471200EE83FF8315E00DC0E83511F4086004C094
:10472200E83711F00C943624EAE4F1E2EE83FF83D9
:1047320014E002FF14C00E9430270E944627AB8576
:10474200AA233AF4EA85FB850E946E27EA87FB8753
:104752004DE2403011F01F5F01C00B7F04C00E9488
:1047620030270E94462700FD11C0151778F407FF75
:1047720008C002FF04C00B7F242F115001C020E3A8
:1047820001C020E20E9427275150EFCF312F01FFB5
:1047920017C03030A1F003FF06C0EE81FF812591E2
:1047A200EE83FF8305C0AE81BF812D91AE83BF83AF
:1047B2000E942727503009F051503150EACF4BC0A8
:1047C20020E3EE81FF810E940228E887F987EE81CB
:1047D200FF813296EE83FF83E885F985AA85BB8542
:1047E200AE17BF0750F02F5FA885B985EA85FB8514
:1047F200EA1BFB0BEA87FB87EFCF2A3328F003FF84
:1048020002C0295F01C0295D04FD1AC0213320F4D2
:10481200A885B985119709F409C0531710F000FF54
:1048220001C013C020E207FF0BC020E3006102FFBA
:1048320007C00B7F4A930E943627503009F051502F
:104842000E942727503009F051503150A885B98570
:10485200129708F0B5CF00FF08C0503031F0515028
:10486200E0E2EA930E943627F8CF10E0DDCEAC8575
:10487200BD850E94FE270E94332864960895FF9208
:10488200F82E26970E942E280E944E27309719F460
:10489200EFEFFFEF1FC0DE0116960E946A278D011F
:1048A2000E944E27EE83FF83E0E0E887E987DE017E
:1048B2001A960E945527E3EDF2E2FA93EA93FE017B
:1048C2003A96FA93EA93A6DE9F01AE81BF81E0E0B9
:1048D200EC93F9010E9435282A96FF900895FF92E1
:1048E200F82E26971A930A93DE0114960E946A27DD
:1048F2008D01E0E0EC83ED83EE83EF83DE01189619
:104902000E945527EAECF2E2FA93EA93FE01389606
:10491200FA93EA937FDE198108812896FF90089521
:10492200A991B991EE27FF276D91662311F0319677
:10493200FBCF0895AA27BB27E991F99105900020A2
:1049420011F01196FBCFFD010895FA93EA930C94AE
:104952001313FA93EA930C942F13E0E0F0E0FA9326
:10496200EA930895EC81F0E0FA93EA930C943A13F7
:10497200E12FF0E00895AE81BF81EE27A10FBE1FA7
:10498200EC910895FE01E95BFF4F0190F081E02D6B
:104992000895ED91FD913196FE93EE930895EE8187
:1049A200F0E00895E0917704F0917804E15CF04042
:1049B200A6E0B0E00E948627E458F74F0895E15C34
:1049C200F040A6E0B0E00E948627E458F74F089531
:1049D200F0E0FA93EA930895F0E0EA0FFB1F0895DE
:1049E200FA93EA93EE81FF810895FA93EA93EE81B6
:1049F200EA930C94C513E985FA85FA93EA930E9427
:104A02009124A12FB0E0AE17BF070895A985BA85FA
:104A1200AE0FBF1F0895E885F985FA93EA930895CA
:104A2200EA93E985EA930C945714EA81F0E0E7FDF2
:104A3200FFEF3896DF01EB81F0E00E948E270895A8
:104A4200EB81A8E0EA02F0010895EB81F0E0AD818C
:104A5200BE81EA0FFB1FED83FE830895A985BA8507
:104A6200EA0FFB1FA1810895EC81A8E0EA02F001A0
:104A7200A885B985AE1BBF0BBA93AA93CCCFAE1B48
:104A8200BF0BAF83B8870895AC81BD818E819F81B2
:104A92000895E4E0F0E060E070E00E94DC270E940C
:104AA20024280895F1DFE4E6F0E060E070E00E947F
:104AB200DC270E9424280895E7DFE0E9F1E060E0C6
:104AC20070E00E94DC270E9424280895A2E0EA02F6
:104AD200F001DF01EAE0F0E00E94CE270895E091C4
:104AE2006C06F0E0AE0FBF1F0895F0E0AE0FBF1FDF
:104AF2000895E4E6F0E0FA93EA930C945E270E94AC
:104B02000628E0912E06F0912F060E9481270E942E
:104B120006280895E0913006F09131060E9481271F
:104B22000895E0913606F09137060E9481270E948F
:104B320006280895E0913806F09139060E948127EF
:104B42000E940628E0913A06F0913B060E948127D6
:104B52000E940628E0913C06F0913D060E948127C2
:104B62000E9406280895FA93EA93F7CEE4E1F0E072
:104B7200FA93EA93E1E0F0E0FA93EA930C94971542
:104B8200E0E0EA93E1E0EA93EFEFEA930C94DD14BC
:104B9200E0916706F0E00895EEE1F0E0FA93EA931F
:104BA200E4E0F0E0FA93EA93EBCFA083E0916706AA
:104BB200EF5FE09367060895F0E0E130A0E0FA07C6
:104BC2000895E0935206E0E0E093FF050895FA931A
:104BD200EA9380E00E9470242296E0E00895FA931E
:104BE200EA930C945E27FA93EA93EEE1F0E0FA93EB
:104BF200EA93E4E0F0E0FA93EA93E0E0EA93E1E09A
:104C0200EA93EFEF0895FA93EA93EEE1F0E0FA9374
:104C1200EA930895E4E0F0E0FA93EA9308950E949B
:104C2200FE270E9481270E9406280895F8013096E7
:104C3200AB89BC89AE0FBF1FAC910895F8013196C4
:104C4200AB89BC89AE0FBF1FAC910895F8013296B3
:104C5200AB89BC89AE0FBF1FAC910895F8013396A2
:104C6200AB89BC89AE0FBF1FAC910895F801349691
:104C7200AB89BC89AE0FBF1FAC9108953596AB8945
:104C8200BC89AE0FBF1F0895E1E0E0930006E0E0AB
:104C9200E093FD05E093FE05E09329060895AB89B4
:104CA200BC89AE0FBF1F0895EC91F0E0F097089514
:104CB200E0930906F0930A0608950E9481270E9454
:104CC20006280895F8013496AF0120E030E00895F7
:104CD200F901E40FF51F3196E2CFE989FA8931969D
:104CE200E98BFA8BA989BA8911970895FA01E20F23
:104CF200F31F3196EF87F88B0895EF85F889329686
:104D0200CECFEF85F8893396CACFEF85F8893496EE
:104D1200C6CFEF85F889B2CFAAE0EA02F001E60F2A
:104D2200F71F0895EE81FF81FA93EA930895FA93AB
:104D3200EA9380E00E94702422960895A0913C0696
:104D4200B0913D060895E0E0F0E0E0933C06F09378
:104D52003D060895E0E0F0E0E0933A06F0933B066A
:104D620008950E943C170C943C17EFE7F0E0FA9389
:104D7200EA930895E7E0F0E0FA93EA930C9497152A
:104D8200E0EDF7E02CCFFA93EA93F4CFFA93EA93AB
:104D9200E2E0F0E0FA93EA93E0E0EA93E2E0EA93F9
:104DA200EFEFEA930C94DD14FA93EA93E5E0F0E076
:104DB200FA93EA93E5CEFA93EA93E7E0F0E00895F6
:104DC200FA93EA93DDCEA0E5B5E0A00FB11FE0E0D3
:104DD200EC930895E6E0F0E0FA93EA930895E4E0B4
:104DE200EA930C944F13E2E0EA930E944F13E3E03C
:104DF200EA930E944F13F3CFE5E0EA930C944F132A
:104E0200EA93E1E0EA930C945714EBE0F6E0FA93AC
:104E1200EA93E0E6F3E2FA93EA938CCE8CE00E9406
:104E2200402460960895E1E0F0E0D9CEFA93EA9347
:104E3200E3E0F0E00895E2E0F0E0C2CFFA93EA9313
:104E4200E4E1F0E00895E8EEF3E0C9CE2A93ED85BF
:104E5200FE85FA93EA93E989FA8909950895E88922
:104E6200F9893497E88BF98B0895ED85FE85FA93DD
:104E7200EA93E989FA8909950895A889B989149666
:104E82000E94FE27EE83FF834DCFA889B98914962D
:104E92000E94FE27EA87FB870895DE011C960E9486
:104EA2006A270E94FE2708950E946A270E94FE2711
:104EB200FA93EA931A930A930895E991F991309635
:104EC20039F08DEC9AE00197F1F7A8953197C9F77F
:104ED20008950024AF0DB01D0895F195E195F040BD
:104EE2000895F09560957095E195FF4F6F4F7F4F54
:104EF2000895EE0FFF1FEE0FFF1FEE0FFF1F089525
:104F02006F2F660F660B762F0895FA9FF02DEB9F99
:104F1200F00DEA9FE02DF10D089561D0F6DF0EF459
:104F2200DCDF08950024112490E1AA0FBB1F001CAE
:104F3200111C0E1A1F0A18F40E0E1F1E01C0A160CA
:104F42009A9599F7FD01D00108953F934F935F938E
:104F5200002411244427552730E2AA0FBB1F881FC3
:104F6200991F001C111C441F551F0E1A1F0A460BC5
:104F7200570B28F40E0E1F1E461F571F01C0A160BB
:104F82003A9559F7FD01BC01D001CA015F914F91D9
:104F92003F910895C7DFFD010895E894B7FF04C06B
:104FA200A095B09511966894F7FD97DFBBDFFD01E0
:104FB2000EF493DF0895E89497FF09C0A095B09589
:104FC20080959095AF5FBF4F8F4F9F4F689477FD4D
:104FD20088DFBBDFFD01BC010EF483DF0895E89496
:104FE200F7FF02C07ADF6894B7FF06C0A095B095BC
:104FF200119600F8039400FA0895ED91FC9111972F
:1050020008950590F491E02D08957A936A93FA93A6
:10501200EA930895BB27EA0FFB1F02900A921197A9
:10502200E1F708951B2EBF2FF12D1A2EAE2FE12D81
:1050320008959927EF93FF9361916D930197E1F79B
:10504200FF91EF91089530976040704008950024D9
:105052000A160B0608955A934A933A932A931A937F
:105062000A9308955D814C813B812A8119810881CF
:105072000895AC0FBD1F05900D928A95E1F7089532
:00000001FF
