:060000000C94BD170C94E6
:1000060000000C9400000C9400000C9400000C946A
:1000160000000C9400000C9400000C9400000C945A
:1000260000000C9400000C9400000C9400000C944A
:1000360000000C9400000C9400000C9400000C943A
:1000460000000C94E21A0C9400000C94B71A0C945D
:1000560000000C9400000C9400000C9400000C941A
:1000660000000C9400000C9400000C9400000C940A
:1000760000000C94000000000000000000000000DA
:10008600000000000000000000000000000000006A
:10009600000000000000000000000000000000005A
:1000A600000000000000000000000000000000004A
:1000B600000000000000000000000000000000003A
:1000C600000000000000000000000000000000002A
:1000D600000000000000000000000000000000001A
:1000E600000000000000000000000000000000000A
:1000F60000000000000000000000000000000000FA
:1001060000000000000000000000000000000000E9
:1001160000000000000000000000000000000000D9
:1001260000000000000000000000000000000000C9
:1001360000000000000000000000000000000000B9
:1001460000000000000000000000000000000000A9
:100156000000000000000000000000000000000099
:100166000000000000000000000000000000000089
:100176000000000000000000000000000000000079
:100186004F000000000000070007000000000024E8
:10019600FF24FF24000000444AFF4A3200004023A7
:1001A6001308C4C2000000364955224080000000F2
:1001B600050300000000003C4281000000000081B1
:1001C600423C000000000014083E08140000001025
:1001D600107C101000000000281800000000000825
:1001E60008080808080000606000000000004020C1
:1001F600100804020000007EFF8181FF7E0000805F
:1002060082FEFF80800000E2F191919F8E000062E5
:10021600C3C9C9FF760000181412FFFF1000006F53
:100226008F8989F97100007EFF8989F972000001C2
:1002360001F1FD0703000076FF8989FF760000467D
:100246008F8989FF7E0000006666000000000000BE
:100256005636000000000008142241000000002469
:100266002424242400000000412214080000000277
:1002760001B109060000006291F1817E000000FED6
:10028600111111FE000000FF898989760000007EA9
:1002960081818142000000FF8181423C000000FF15
:1002A60089898981000000FF090909010000007E93
:1002B60081919172000000FF101010FF00000000F5
:1002C60081FF81000000004080817F01000000FF67
:1002D60018244281000000FF80808080000000FF1B
:1002E600020C02FF000000FF040810FF0000007E61
:1002F6008181817E000000FF1111110E00007E81B8
:10030600A141BE00000000FF1131518E00000086A1
:10031600898989710000000101FF01010000007F49
:100326008080807F0000003F4080403F0000003F0B
:10033600C060C03F000000E3140814E3000000079B
:1003460008F00807000000C1A1918987000000FF9E
:100356008181000000000015167C16150000004182
:10036600417F00000000000402010204000000407A
:100376004040404000000001020400000000006010
:1003860094949478000000FF8888887000000078B4
:1003960084848400000000788484887F00000078CC
:1003A6009494945800000010FE1101020000000C05
:1003B6009292927E000000FF100808F000000000F4
:1003C60084FD80000000006080807D00000000FF4A
:1003D600304884000000000081FF8000000000FC1F
:1003E600043804F8000000FC080404F80000007853
:1003F60084848478000000FC1414140800000008AB
:10040600141418FC000000FC08040408000000880E
:1004160094949460000000047F8480400000007C77
:10042600808040FC0000003C4080403C0000003ED4
:10043600C060C03E000000422418244200000006AE
:100446008888887E000000C4A4948C84000000087C
:10045600768100000000000000FF0000000000811F
:100466007608000000000008082A1C0800000008A2
:100476001C2A08080000007C8281827C00000000A3
:100486000000000000000000000000000000000066
:100496000000000000000000000000000000000056
:1004A6000000000000000000000000000000000046
:1004B6000000000000000000000000000000000036
:10087600000000000000C1C1C1C10000C2C2FEFEEE
:100886000100C3C31F1F0100C4C4FCFC0100C5C591
:10089600C5C50101C6BDBFBE0101C7C7C0C00100B5
:1008A600C88284830101C9C9FDFD0100CA85878606
:1008B6000101CB888A890101CC8BCC8B0101CD8CBF
:1008C600CD8C0101CE11CE110101CFCF1313010042
:1008D600D0D08F8F0100D1D11B1B0100D2D29191B4
:1008E6000100D39294930101D49597960101D517EF
:1008F6009A990101D69B9D9C0101D7D7D7D70000B5
:10090600D8D89E9E0101D9D99F9F0101DAA0A2A144
:100916000101DBA3A5A40101DCDCDCDC0000DDA613
:10092600A8A70101DEA9ABAA0101DFACAEAD0101AA
:10093600E0E0E0E00000E1AFB1B00101E2E2E2E2B6
:100946000000E3B2B4B30101E4B5B7B60101E5B8FE
:10095600BAB90101E6E6BCBC0100E7E7E7E700003B
:10096600E8E8E8E80000E9E9E9E90000EAEAEAEA95
:100976000000EBEBEBEB0000ECBDBFBE0101EDBDF3
:10098600BFBE0101EEEEEEEE0000EFEFEFEF00006E
:10099600F0F0F0F00000F1F1F1F10000F2F2F2F205
:1009A6000000F3F3F3F30000F5F5F5F50000F6F6B5
:1009B600F6F60000F7F7F7F70000F8F8F8F8000089
:1009C600FBF9FBFA0101BBBBF4F40100811C1E1DFF
:1009D600010190181A1901019814161501018E8E3D
:1009E600121201008D108D10010100C0F030381870
:1009F60018181898B0B0303030606060606060C021
:100A0600C0C0C0C0C0C080808080800000000000E0
:100A160000000000000000000000000000000000D0
:100A260000000000000000000000000000000000C0
:100A360000000000000000000000000000000000B0
:100A460000000000000000000000000000000000A0
:100A56000000000000000000000000000000000090
:100A66000000000000000000000000FFFF00000C76
:100A760018F0E70FFD0F070000000000000000005F
:100A860000000000000001010181838383C3E76742
:100A9600E6C6060E0C0C0C0C0C1818187870E0C084
:100AA6000000000000E0E0000000000080C0E06000
:100AB60000E0E0606060606060E0C000000080C050
:100AC6006060C080000000E0E0606060606060C060
:100AD6008000000080C06060C0800000000080C010
:100AE6006060606060C08000000000FFFF000000E2
:100AF60000FFFF00FF0000000000000000000000F3
:100B06000080C06030188CC66331180808090B0BCA
:100B16000B090808080808081C3E363E1C00FFFFA3
:100B26000000000000FFFF70F88C8E070301000034
:100B360000FFFFE0E0E06060607F3F00FEFF616075
:100B460060606061FFFE00FFFF000000000000FF24
:100B5600FF00FEFF616060606061FFFE00FFFF0056
:100B66000000000000000100000000FFFF00000080
:100B760000FFFF003F3030303030303030180CC6C8
:100B8600E331180C0603010000000000000000001D
:100B96000000000000000000000000000000FFFF51
:100BA60000000000003F3F00000103070E1C383024
:100BB600003F3F00000103070E3C38003F3F0000A6
:100BC600000000003F3F003F3F3030303030301FE4
:100BD6000F003F3F0000000000003F3F000F1F30A6
:100BE6003030303030381800000000FFFF000000C1
:100BF60000FFFF00FF0303030303030303060C19AF
:100C06003366CC983060C080000000000000000011
:100C16000000000000000000000000000000FFFFD0
:100C260000000000000000000000000000000000BE
:100C360000000000000000000000000000000000AE
:100C4600000000000000000000000000000000009E
:100C5600000000000000000000000000000000008E
:100C66000000000000000000000000FFFF00000080
:100C760000FFFF00FF000000000000000000000071
:100C86000000000103060C193366444444E4F4B43E
:100C9600F4E40404040404040E1F1B1F0E00FFFFEB
:100CA600000000FC0000000000F8040404F8000C3A
:100CB600040404FC00F0888488F00080808000FC36
:100CC6008484040400F80404040800FC000000FC0A
:100CD60000F0888488F000FC040404F800F804049A
:100CE60004F800FC44C44438000000FFFF0000067E
:100CF60003011C3E373E1C0000000000008080807F
:100D060080C0C0C0C0C0E060606030303030313973
:100D16001918181C0C0C0C0C0E060606070301000D
:100D26000000000F08080808000708080807000662
:100D360008080807000F0000000F00000000000F61
:100D46000808080800070808080400070808080734
:100D5600000F0000000F000F08080807000708082A
:100D66000807000F0000010E0000000107060E0C28
:100D76000C0C0C0C06060606030303030301010113
:100D8600010100000000000000000000000000005B
:100D9600000000000000000000000000000000004D
:100DA600000000000000000000000000000000003D
:100DB600000000000000000000000000000000002D
:100DC600000000000000000000000000000000001D
:100DD600000000000000000000000000000000000D
:100DE60000000000000000000000000000000000FD
:100DF60000000000000000000000000000000000ED
:100E060000000000000000000000000000000000DC
:100E160000000000000000000000000000000000CC
:100E260000000000000000000000000000000000BC
:100E360000000000000000000000000000000000AC
:100E4600000000000000000000000000000000009C
:100E5600000000000000000000000000000000008C
:100E6600000000000000000000000000000000C0BC
:100E7600E0F0F0F8F8F8F8F8FCFCFCFCFCFCFCFCF4
:100E8600FCFCFCFCFCFCFCFCFCFCFCFCF8F8F8F8AC
:100E9600F8F0E0E0C00000000000000000000000E4
:100EA600000000000000000000000000000000003C
:100EB600000000000000000000000000000000002C
:100EC600000000000000000000000000000000001C
:100ED600000000000000000000000000000000000C
:100EE6000000000000000000000000000000FEFFFF
:100EF600FF030103030303030303030303030303C2
:100F060003FFFF03030103030303030303030303B5
:100F160003030307FFFE00000000000000000000BE
:100F260000000000000000000000000000000000BB
:100F360000000000000000000000000000000000AB
:100F4600000000000000000000000000000000009B
:100F5600000000000000000000000000000000008B
:100F66000000000000000000000000000000FFFF7D
:100F7600FFC0C0C0C0C0C0C0C0C0C0C0C0C0C0C02C
:100F8600E0FFFFE0C0C0C0E0D0C8C4C4C4C4C8D03D
:100F9600E0C0E0F0FFFF00000000000000000000DD
:100FA600000000000000000000000000000000003B
:100FB600000000000000000000000000000000002B
:100FC600000000000000000000000000000000001B
:100FD600000000000000000000000000000000000B
:100FE6000000000000000000000000000000FFFFFD
:100FF600FFFFFFFFFFFFFFFFFFFFFFFFFFFFFFFFFB
:10100600FFFFFFFFFFFFFFFFFFFFFFFFFFFFFFFFEA
:10101600FFFFFFFFFFFF00000000000000000000D0
:1010260000000000000000000000000000000000BA
:1010360000000000000000000000000000000000AA
:10104600000000000000000000000000000000009A
:10105600000000000000000000000000000000008A
:1010660000000000000000000000000000003FFF3C
:10107600FFE1E1E1E1FFFFFFF9D9D9D9D9D9D9D902
:10108600D9D9D9D9D9D9D9D9D9D9C9FBFFFFFFE13E
:10109600E1C1E1F7FF3F0000000000000000000092
:1010A600000000000000000000000000000000003A
:1010B600000000000000000000000000000000002A
:1010C600000000000000000000000000000000001A
:1010D600000000000000000000000000000000000A
:1010E60000000000000000000000000000000000FA
:1010F6001F3F3F3F3F3F3F00000000000000000051
:101106000000000000000000000000001F3F3F3FFD
:101116003F3F3F1F000000000000000000000000ED
:1011260000000000000000000000000000000000B9
:1011360000000000000000000000000000000000A9
:101146000000000000000000000000000000000099
:101156000000000000000000000000000000000089
:1014E600000000000000000000000000000000F8FE
:1014F60084C202020202FE020202C2FE02020202CC
:10150600C4F8000000000000000000000000000019
:1015160000000000000000000000000000000000C5
:1015260000000000000000000000000000000000B5
:1015360000000000000000000000000000000000A5
:101546000000000000000000000000000000000095
:101556000000000000000000000000000000000085
:10156600000000000000000000000000001E1F7FB9
:10157600FFFD7C1C1C1C1F1C1C1C1F1F7CFCFC7CF8
:101586001F0F000000000000000000000000000027
:101596000000000000000000000000000000000045
:1015A6000000000000000000000000000000000035
:1015B6000000000000000000000000000000000025
:1015C6000000000000000000000000000000000015
:101956000000000000000038FC0202020202060637
:1019660006BAFABA0202FC380000000000000000C5
:101976000000000000000000000000000000000061
:101986000000000000000000000000000000000051
:101996000000000000000000000000000000000041
:1019A6000000000000000000000000000000000031
:1019B6000000000000000000000000000000000021
:1019C6000000000000000000000000000000000011
:1019D60000000000000000003F3EFEF2F23E3E3EE8
:1019E6003F3FF3F3FF3E3F00000000000000000011
:1019F60000000000000000000000000000000000E1
:101A060000000000000000000000000000000000D0
:101A160000000000000000000000000000000000C0
:101A260000000000000000000000000000000000B0
:101CE600000000000000000000000000000000F8F6
:101CF60084C282DAFAE2FE020202C2FE0202020294
:101D0600C4F8000000000000000000000000000011
:101D160000000000000000000000000000000000BD
:101D260000000000000000000000000000000000AD
:101D3600000000000000000000000000000000009D
:101D4600000000000000000000000000000000008D
:101D5600000000000000000000000000000000007D
:101D6600000000000000000000000000001E1F7FB1
:101D7600FFFD7C1F1F1F1F1C1C1C1F1F7CFCFC7CE7
:101D86001F0F00000000000000000000000000001F
:101D9600000000000000000000000000000000003D
:101DA600000000000000000000000000000000002D
:101DB600000000000000000000000000000000001D
:101DC600000000000000000000000000000000000D
:101DD60000000000000000000000000000000000FD
:101DE60000000000000000000000000000000000ED
:101DF60000000000000000000000000000000000DD
:101E060000000000000000000000000000000000CC
:101E160000000000000000000000000000000000BC
:101E260000000000000000000000000000000000AC
:101E3600000000000000000000000000000000009C
:101E460000000000000000000000E01090908000FC
:101E5600F09090906000609090100000000020705C
:101E6600F8702000807800FC0000000000000000F0
:101E7600000000000000000000000000000000005C
:101E8600000000000000000000000000000000004C
:101E9600000000000000000000000000000000003C
:101EA600000000000000000000000000000000002C
:101EB600000000000000000000000000000000001C
:101EC60000000000000000000000030404040300FA
:101ED60007000000000004040403000000101414AE
:101EE60014141209040A3518080000000000000046
:101EF60000000000000000000000000000000000DC
:101F060000000000000000000000000000000000CB
:101F160000000000000000000000000000000000BB
:101F260000000000000000000000000000000000AB
:1022460000000000000000000000E01090908000F8
:10225600F0909090600060909010000000000000E8
:1022660000000000807800FC000000000000000074
:102276000000000000000000000000000000000058
:102286000000000000000000000000000000000048
:102296000000000000000000000000000000000038
:1022A6000000000000000000000000000000000028
:1022B6000000000000000000000000000000000018
:1022C60000000000000000000000030404040300F6
:1022D60007000000000004040403000000101414AA
:1022E60014141209040A3518080000000000000042
:1022F60000000000000000000000000000000000D8
:1023060000000000000000000000000000000000C7
:1023160000000000000000000000000000000000B7
:1023260000000000000000000000000000000000A7
:1025F60000808000E0E000F8F800FEFE0000000029
:1026060000000000000000000000000000000000C4
:1026160000000000000000000000000000000000B4
:1026260000000000000000000000000000000000A4
:102636000000000000000000000000000000000094
:102646000000000000000000000000000000000084
:102656000000000000000000000000000000000074
:10266600000000000000000000000006060007074A
:10267600000707000707000707000707000000001C
:102686000000000000000000000000000000000044
:102696000000000000000000000000000000000034
:1026A6000000000000000000000000000000000024
:1026B6000000000000000000000000000000000014
:1029F60000808000E0E00000000000000000000011
:102A060000000000000000000000000000000000C0
:102A160000000000000000000000000000000000B0
:102A260000000000000000000000000000000000A0
:102A36000000000000000000000000000000000090
:102A46000000000000000000000000000000000080
:102A56000000000000000000000000000000000070
:102A66000000000000000000000000060600070746
:102A76000007070007070000000000000000000034
:102A86000000000000000000000000000000000040
:102A96000000000000000000000000000000000030
:102AA6000000000000000000000000000000000020
:102AB6000000000000000000000000000000000010
:102AC6000000000000000000000000000000000000
:102AD60000000000000000000000000000000000F0
:102AE60000000000000000000000000000000000E0
:102AF60000000000000000000000000000000000D0
:102B060000000000000000000000000000000000BF
:102B160000000000000000000000000000000000AF
:102B2600000000000000000000000000000000009F
:102B3600000000000000000000000000000000008F
:102B4600000000000000000000000000000000007F
:102B5600000000000000000000000000000000006F
:102B6600000000000000000000000000000000005F
:102B7600000000000000000000000000000000004F
:102B8600000000000000000000000000000000003F
:102B96000000000000000000000000060600070715
:102BA600000000000000000000000000000000001F
:102BB600000000000000000000000000000000000F
:102BC60000000000000000000000000000000000FF
:102BD60000000000000000000000000000000000EF
:102BE60000000000000000000000000000000000DF
:102BF60000000000000000000000000000000000CF
:102C060000000000000000000000000000000000BE
:102C160000000000000000000000000000000000AE
:102C2600000000000000000000000000000000009E
:102C3600000000000000000000000000000000008E
:102C4600000000000000000000000000000000007E
:102C5600000000000000000000000000000000006E
:102C6600000000000000000000000000000000005E
:102C7600000000000000000000000000000000004E
:102C8600000000000000000000000000000000003E
:102C9600000000000000000000000000000000002E
:102CA600000000000000000000000000000000001E
:102CB600000000000000000000000000000000000E
:102CC60000000000000000000000000606000404EA
:102CD60004040404040404040404040400000000BE
:102CE60000000000000000000000000000000000DE
:102CF60000000000000000000000000000000000CE
:102D060000000000000000000000000000000000BD
:102D160000000000000000000000000000000000AD
:102D2600000000000000000000000000000000009D
:102D3600000000000000000000001027E803640007
:102D46000A0001000010000110000100C1005349F3
:102D560054553838383800000000200000200000A4
:102D66000000415424545444455649443F0A0D003A
:102D760041542B4353510A0D0041542454544E459B
:102D86005449503F0A0D004154245454475053515E
:102D960052593D31302C300A0D00415424545453BD
:102DA6004E444D473D342C222424424C25732C2579
:102DB600642564256425643230256425642C2564E5
:102DC600256425642564256425642C52322C2564EB
:102DD6002C25643A58582323220D0A0041542454C2
:102DE60054534E444D473D342C222424424C2573E3
:102DF6002C25642564256425643230256425642CDD
:102E06002564256425642564256425642C53322CA9
:102E1600313233342C25643A58582323220D0A00C4
:102E2600525554413A00202020202020005025648D
:102E360000256300425553005645525F302E392E09
:102E46003000256425643A256425643A25642564A2
:102E560000494E4943494F20444520534553494F65
:102E66004E002A0046494E205255544100494E49CB
:102E760043494F2052555441002048412053414C6C
:102E860049444F0044454C2053495354454D410055
:102E96004E4543455349544120494E4943494152C1
:102EA600204A4F524E414441004D454E53414A45FA
:102EB6003A003230256425642D256425642D256469
:102EC60025640050616E74616C6C61004E6F204128
:102ED60075746F72697A6164610001002D4E414E0E
:102EE60000000100A603522D04001305542D040012
:102EF6001805582D06000003262E070006032C2E63
:102F060004000D033A2E0A0011033E2E11001B0386
:102F1600572E02002C03682E02002E03682E020094
:102F26003003682E02003203682E090034036A2E2D
:102F36000C003D03732E0B0049037F2E0C00540337
:102F46008A2E19006003962E09007903AF2E06001B
:102F56008203B22E07008803B12E09008F03C92E03
:102F66000E009803D22E0C0003005C2D01005905BB
:102F7600E02E0000F894EE27EFBBF1E0F5BFE5BFC9
:102F8600F8E1A895A4B7A77FA4BFF0936000E093EB
:102F960060008DE0A2E0BB27ED938A95E9F780E01B
:102FA60098E0A0E0B1E0ED930197E9F7E8EEFEE2E4
:102FB60085919591009761F0A591B5910590159031
:102FC600BF01F00105900D920197E1F7FB01F0CFEB
:102FD600E0E0EEBBEFEFEDBFE8E0EEBFC0E0D3E030
:102FE6000C94C4205F9A87E38A95F1F75F9887E38C
:102FF6008A95F1F70895169A179A5E985D98EFE309
:10300600E8B9F0DF08951A935E985D98A981BA81B0
:10301600A034E0E0BE0720F4169A1798198107C07D
:10302600179A1698E981FA81E054F0401E2FE12F95
:10303600E064EF771E2F18B9D5DF18813BC01A93CD
:103046005E985D98E981E86BEF7B1E2F18B9CADFA1
:10305600188130C0EA81FB810E94E725E881F98169
:103066000E94EB25249608955E9A5D98E881E8B95A
:103076008DED90E00197F1F7B5DF219608951A934B
:103086000A930E94EF250E94F425E0E4F0E0FA930B
:10309600EA930E94F425169A00E010E00134E0E07D
:1030A6001E0734F4E0E0EA93DFDF0F5F1F4FF6CF31
:1030B60019810881239608951A930A9300E010E077
:1030C6000830E0E01E072CF40A93D9DF0F5F1F4F8C
:1030D600F7CF0991199108951A93EB81FC810E940B
:1030E600E725E981FA810E94EB2510E0183080F48B
:1030F600ED81FE810E94DF28DF010E94FA25EA0F9A
:10310600FB1FE458FF4FE491EA93AEDF1F5FEECF5B
:10311600188141C10E945F2920E010E0EC811E1752
:1031260000F500E00830D8F40E94FD25F0E0F595A2
:10313600E795EC93ED81E1703E2F303021F00E944F
:10314600FD25E068EC932F5FEC81E21731F4ED8109
:10315600F0E0F595E795ED8320E00F5FE3CF1F5F85
:10316600DDCF0E94662928960895EF9721970E9441
:103176005F290E9404260E94E725FE01EB5BFF4FB4
:103186000190F081E02D0E94EB2510E0183008F543
:103196000E94FA25BF010E94DF28DE011496EA0F7D
:1031A600FB1FFA93EA93FE01E55BFF4F0190F08166
:1031B600E02D0E94DF28E60FF71FE458FF4FE49149
:1031C600EA93FE01E95BFF4FE081EA93A3DF1F5F0D
:1031D600DDCF00E0FE01EC5BFF4FE0810E1710F043
:1031E6000C94451910E0183010F00C94371930E0A3
:1031F600FE01EC5BFF4FE0813E17A0F5E32FF0E008
:10320600DE01A95BBF4F0D90BC91A02DEA0FFB1FFD
:10321600BF01DE01AC5BBF4FAC91BB270E94FA2514
:103226000E94F328DB01AE0FBF1FA034E0E0BE070B
:1032360049F4E0E4F0E0FA93EA930E940426FA9354
:10324600EA9308DF0E94FA250E94DF28DE01149621
:10325600AE0FBF1FEE27A00FBE1FEC91EA9304DF4F
:103266003F5FC6CF1F5FBFCF0E940426FA93EA9343
:10327600DE01A95BBF4F0E940B26FA93EA93EADEB2
:103286000F5FA8CF0E946629EF962C960895A98114
:10329600A13011F00C94C6190E941126E138A0E065
:1032A600FA0711F4EAEF17C0E039A0E0FA0711F4C3
:1032B600EBEF11C0E839A0E0FA0711F4ECEF0BC010
:1032C600EE38A0E0FA0711F4EDEF05C0ED38A0E006
:1032D600FA0711F4EEEFEE83AE81A13CB0F0A091B7
:1032E600A603B091A703A13CE0E0BE0774F00E94DC
:1032F60014263596E491E03041F00E9411260E9492
:1033060021263496E491E03009F417C00E94142671
:10331600DF01E091A803F0E03196EA0FFB1FE4918C
:103326000E942A26E091A9030E942A26E091AA0378
:103336000E942A26D1DEE2E001C0E0E0E093A80385
:10334600AE81A13C58F00E9411260E942126DF0181
:10335600E091A8030E942E26E49101C0EE81F0E0E0
:103366000E9432260E9432260E9437260E9411268B
:10337600E093A603F093A703EC81E093A903EA8107
:10338600E093AA0308C00E9411260E9432260E94DA
:1033960032260E943726279608951A930A9310E03C
:1033A60000E00E943D2618F4AC81A03009F029C047
:1033B6000E94FA250E944826EC91EA930E944D2627
:1033C6000E944D26E0E00E9452260E945726AF81B9
:1033D600B885EA0FFB1FEF83F8870E946226A0E8F4
:1033E600B0E00E943929EA1BFB0BAF81B885EA17CA
:1033F600FB072CF4E0E0EF83E8870E9467261F5F57
:10340600D0CF0E943D2618F4AC81A13009F075C0DA
:103416000E94FA250E944826AC91A13E21F40E9402
:103426007026A73C09F002C009EF29C00E94FA25C0
:103436000E944826AC91A13E21F40E947026A33C2E
:1034460009F002C007EE1BC00E94FA250E9448261A
:10345600AC91A13E21F40E947026A23C09F002C064
:1034660008EE0DC00E94FA250E944826AC91A13EA6
:1034760021F40E947026A53C09F001C009EE003037
:1034860079F00A930E947626E1E00E9452261E5F9A
:103496000E946226AF81B8850E94812600E01CC08A
:1034A6000E94FA250E944826EC91EA930E9476260D
:1034B600E9850E9452260E94FA250E944826AC9170
:1034C600A03219F40E94572602C00E946226AF81DC
:1034D600B8850E9481261F5F0E9462263196AF81C1
:1034E600B885AE17BF0744F40E946226A0E8B0E094
:1034F6000E9481260E94672684CFE1ECF0E0E093EB
:10350600A603F093A703198108812B9608950E94BC
:103516005F2908851985EC81FD81E017F10700F127
:103526002A853B85EE81FF81E217F307B0F03A93D7
:103536002A931A930A938EDDA0E8A09FF001A19F1B
:10354600F00DE20FF31FAC85BD85EA0FFB1FE4917A
:10355600EA938ADD2F5F3F4FE5CF0F5F1F4FDBCF2B
:103566000E9466292E960895EA93FA93EFB7EA9396
:103576001A930A931091C0000091C600E091C00012
:10358600E07811F4F19801C0F19AE12FEC7181F421
:10359600E62D6394F0E0E555FC4F0083E8ECE61574
:1035A60009F466248394E8ECE81511F48824F09A6B
:1035B60009911991E991EFBFF991E99118950A924C
:1035C6001A92FA926A937A938A939A93AA93BA93DF
:1035D600EA93FA93EFB7EA93E6E0E6BDA7E4B5E02F
:1035E6000E940B26A0914705B09148059B9711F0C4
:1035F6000C949A1B0E9486260E948B26E0E0E0939C
:103606004705E09348050E948626E13021F40E9492
:103616009026E13009F002C00E9495260E94862677
:10362600E13021F40E949026E23009F002C00E94A7
:103636009E260E948626E13021F40E949026E330E1
:1036460009F004C0EFE7FDE20E94A7260E94862645
:10365600E13021F40E949026E43009F004C0EDE840
:10366600FDE20E94A7260E948626EA3010F40C94FA
:103676009A1B0E94AE260E9490260E948B260E94CC
:103686009026E63010F40C949A1B0E94B4260E94F1
:10369600BA260E948B260E94BA26EA3010F40C94B1
:1036A6009A1B0E94BF260E94C5260E948B260E9456
:1036B600C526E630E0F10E94CA260E94D0260E9466
:1036C6008B260E94D026EA3090F10E94D5260E94D1
:1036D600DB260E948B260E94DB26E23021F40E9424
:1036E600D026E33009F013C00E94C526E53021F448
:1036F6000E94BA26E93009F00AC00E949026E530F9
:1037060021F40E948626E93009F001C001C00FC0ED
:10371600AAE8B0E0E0E00E944C290E94D5260E946B
:10372600CA260E94BF260E94B4260E94AE26E991B0
:10373600EFBFF991E991B991A991999189917991FF
:103746006991F9901990099018955C9A0E94E02663
:103756005C980E94E02608951A93E981F0E0E0540F
:10376600F0401E2F113010F0153608F002C0E12F80
:1037760001C0E0E01881229608957A92EDDFE09389
:103786005705E0EAFDE20E94E6260E942027E09126
:103796004E050E9420270E94BA260E942027E0910B
:1037A6004C050E9420270E9486260E942027E09131
:1037B60057050E942027E0911D050E9420278CE3D3
:1037C6000E94B125EE960895E2EEFDE20E94E626FD
:1037D6000E942027E0914E050E9420270E94BA26CB
:1037E6000E942027E0914C050E9420270E948626F1
:1037F6000E942027E09158050E94202788E30E9416
:10380600B125EA960895A0E00499A1E0A03019F444
:10381600E0E0E91509F046C0E0911E05EF5FE09390
:103826001E05E1E09E2E0E942627E0911E050E94BD
:103836002E27A9F4E2E0E0933C05E1E0E093580589
:10384600C3DFE1E0E0931F050E9433270E9438277B
:103856000E943D27E0E0F3E00E94472722C0E230C5
:10386600A0E0FA07F1F4A0911D05A13021F4E09142
:103876001E05E15014C00E9459270E9438270E9455
:103886005E27E0E0E0935805E5E0E0933C059CDF29
:103896000E946827E6E0F3E00E944727E0E0E09315
:1038A6001E0507C0049B03C0E1E0E91509F001C04D
:1038B60099240895A0E00399A1E0A03059F4E0E02E
:1038C600EC1541F4A0911D05A03021F4A0915805F6
:1038D600A13009F015C0E0911F05EF5FE0931F05C9
:1038E60034DFE1E0CE2EA0911F05AD3010F0AF30F1
:1038F60009F403C0E1E0E0931F050E94782707C0A2
:10390600039B03C0E1E0EC1509F001C0CC24E09173
:103916001F050E942E2711F4E1E447C0E230A0E023
:10392600FA0711F4E2E441C0E330A0E0FA0711F42B
:10393600E3E43BC0E430A0E0FA0711F4E4E435C068
:10394600E530A0E0FA0711F4E5E42FC0E630A0E088
:10395600FA0711F4E6E429C0E730A0E0FA0711F40B
:10396600E7E423C0E830A0E0FA0711F4E8E41DC05C
:10397600E930A0E0FA0711F4E9E417C0EA30A0E064
:10398600FA0711F4EAE411C0EB30A0E0FA0711F4EB
:10399600EBE40BC0EC30A0E0FA0711F4ECE405C050
:1039A600EF30A0E0FA0711F4E0E2AE2E0895A0E0B1
:1039B6000299A1E0A03059F4E0E0EB1541F4A091A2
:1039C6001D05A03021F4A0915805A13009F015C0BD
:1039D600E0911F05E150E0931F05B7DEE1E0BE2E42
:1039E600A0911F05A03011F4AF3009F403C0ECE03C
:1039F600E0931F050E94782707C0029B03C0E1E001
:103A0600EB1509F001C0BB240895A0E00199A1E0DF
:103A1600A03039F4E0E0EE1521F4A0915805A1306C
:103A260009F02AC0E394E0912005EF5FE0932005BA
:103A36007A2C0E942627E09120050E942E2741F429
:103A4600E1E0E0931D05E4E0E0933C0596DE13C05B
:103A5600E230A0E0FA0779F4EFE0E0931F05E0E03A
:103A6600E0931D05E3E0E0933C0587DEE0E27E2E71
:103A7600E0E0E093200507C0019B03C0E1E0EE15FE
:103A860009F001C0EE240895E0912605F09127057E
:103A9600E130A0E0FA0719F4E0E2FBE214C0E230FC
:103AA600A0E0FA0719F4E0EFF9E20DC0E330A0E078
:103AB600FA0719F4E0EFF5E206C0E430A0E0FA07F1
:103AC60069F4E0E5FCE2FA93EA930E94EF250E948E
:103AD600EF250E947E270E94832719DD08956597AA
:103AE600E0E0EB87EC87ED87EE87EF87E88BE98BE5
:103AF600EA8B0E945D2940E050E000E010E0083CBF
:103B0600E0E01E0714F00C94B0200E948827A4322F
:103B1600B1F40E948D27A43291F40E949227A43515
:103B260071F40E949727A83751F40E949C27A43766
:103B360031F4F801E055FC4FA081AC3209F02EC0FB
:103B46004424E0EAE41590F0E42DF0E0BF01ED58DE
:103B5600FB4F0F01D8011696FB01EA0FFB1FE55537
:103B6600FC4FE081D001EC9343940BC0E1E03E2E84
:103B7600D8011696E42D0E942E26E555FC4FACE2A0
:103B8600A083D8011696E42D0E942E26E555FC4FFB
:103B9600A081AC32B1F6E7E0E0933C050E948827AD
:103BA600AB3281F40E948D27A33461F40E949227E0
:103BB600A33541F40E949727A13521F40E949C2742
:103BC600AA3309F046C0F8010E94A127AAE0B0E096
:103BD6000E94F328DF01F8010E94A727EA0FFB1FC6
:103BE600EF87F88BAF85B8891B9724F0AF85B88926
:103BF6001F970CF005C0E1E0F0E00E94AD2729C058
:103C0600AF85B8891F9724F0AF85B88952970CF015
:103C160005C0E2E0F0E00E94AD271BC0AF85B88981
:103C2600529724F0AF85B8895F970CF005C0E3E0A2
:103C3600F0E00E94AD270DC0AF85B889909724F0BB
:103C4600AF85B889D2970CF004C0E4E0F0E00E949A
:103C5600AD270E948827A23441F40E948D27A535FE
:103C660021F40E949227A33509F087C0F801E55494
:103C7600FC4F0E94B227E0933805F801E454FC4F4C
:103C86000E94B227E0933905F801E354FC4F0E94E5
:103C9600B227E0933A05F801E254FC4F0E94B2279E
:103CA600E0933B05A0913B05A13119F4EAE0E093CE
:103CB6003B05A0913805A13130F0E0913805F0E0E0
:103CC6003797E0933805A0913905A13130F0E0919E
:103CD6003905F0E03797E0933905F801EF53FC4FCB
:103CE600A081A13331F4F801EE53FC4FA081A83333
:103CF60009F043C0E1E0E0933C05A0913A05EAE013
:103D0600EA02F001DF01E0913B050E942E26E093D6
:103D16004105F0934205A0913805E0E1EA02F00181
:103D26003197DF01E0913905F0E0AE0FBF1FEAE001
:103D3600F0E00E94F328E0934305F0934405A09138
:103D46004105B0914205EA0FFB1FE0934505F0934C
:103D56004605EDE3F5E0FA93EA93E3E3FEE2FA9330
:103D6600EA93E0914505F09146050E94E6280E94F7
:103D7600342984E00E94812528960E948827AE3443
:103D860081F40E948D27A53461F40E949227A43500
:103D960041F40E949727A93421F40E949C27A0355C
:103DA60009F049C00E94B62740E050E0493CE0E0F7
:103DB6005E075CF40E94BB2729F40E94C52711F414
:103DC6000E94CE274F5F5F4FF1CFED89FE89E35505
:103DD600FC4FA081A23279F50E94D6270E94B22715
:103DE600E9F40E94DB270E94B227C1F40E94E02773
:103DF6000E94B22799F4ED89FE890E94A72771F4E3
:103E0600ED89FE89ED54FC4F0E94B22739F4ED8905
:103E1600FE89EC54FC4F0E94B22709F006C0E0E090
:103E2600E0932205E093230506C0E1E0F0E0E0938D
:103E36002205F09323050E948827A43481F40E946A
:103E46008D27A53461F40E949227A63541F40E947D
:103E56009727A93421F40E949C27A43409F041C075
:103E66000E94B6270E94E52740E050E0493CE0E08A
:103E76005E075CF40E94BB2729F40E94C52711F453
:103E86000E94CE274F5F5F4FF1CF0E94F527A0819A
:103E9600A23239F5ED89FE89E355FC4FA081E09108
:103EA6001805EA17A9F40E94D627A081E091190502
:103EB600EA1771F40E94DB27A081E0911A05EA1740
:103EC60039F40E94E027A081E0911B05EA1709F06A
:103ED60003C00E94FA2705C0E0E0E0934905E0939D
:103EE6004A050E948827A73481F40E948D27A035B1
:103EF60061F40E949227A23541F40E949727AD34BF
:103F060021F40E949C27A33409F024C10E94B627FD
:103F160040E050E0493CE0E05E0744F5FA01A98D37
:103F2600BA8DEA0FFB1FE455FC4FA081AC32D9F4E1
:103F36000E94C52711F40E94CE27AF89B88D12972B
:103F460039F4E98DFA8DE40FF51F3196EB8BFC8B76
:103F5600AF89B88D199739F4E98DFA8DE40FF51FFD
:103F66003196E98BFA8B4F5F5F4FD4CFE3E0EA934C
:103F760086D8E4E0EA9383D8E5E0EA9380D80E9405
:103F8600F5270E94B227FF2352F03A9744F4ED89B1
:103F9600FE893196AB89BC89EA17FB0709F481C013
:103FA600ED89FE890E94A127EE83AE81A03010F034
:103FB600AA3008F005C0EE81A0E8B0E00E944C29C6
:103FC6000E94E0270E94B227EE83AE81A03010F057
:103FD600AA3008F005C0EE81A2E8B0E00E944C29A4
:103FE6000E94DB270E94B227EE83AE81A03010F03C
:103FF600AA3008F005C0EE81A4E8B0E00E944C2982
:104006000E94D6270E94B227EE83AE81A03010F020
:10401600AA3008F005C0EE81A6E8B0E00E944C295F
:10402600ED89FE89E355FC4F0E94B227EE83AE81EF
:10403600A03010F0AA3008F004C00E941126EB87C9
:10404600FC870E94F5270E94B227EE83AE81A0303E
:1040560010F0AA3008F004C00E941126ED87FE87F2
:10406600ED85FE85AAE0B0E00E94F328AB85BC850D
:10407600EA0FFB1FE987FA873597EF83F887A8854C
:10408600AA234AF47896EF83F8870E9401280E94B3
:1040960006280E940D280E9401280E9406280E94D8
:1040A6000D28EB89FC89E455FC4FE081F0E0E093B4
:1040B6002405F0932505E7E3FEE2FA93EA93E091FF
:1040C6002405F09125050E94E6280E94342984E003
:1040D6000E94B12526960E941428FF2312F03A97D3
:1040E6000CF038C00E941428AEE8B0E00E941928EF
:1040F600E355FC4F0E94B227ACE8B0E00E941928B5
:10410600E255FC4F0E94B227A2E9B0E00E941928AE
:10411600E155FC4F0E94B227A0E9B0E00E941928A1
:10412600E055FC4F0E94B227A6E9B0E00E9419288C
:104136000E94A127A4E9B0E00E944C29AF81B8856E
:10414600539744F00E941E28F0E03197ACE8B0E0A7
:104156000E944C290F5F1F4FD2CC88246624F19A07
:1041660000E010E0083CE0E01E073CF4ABEAB3E0F8
:104176000E9423280F5F1F4FF5CF0E9464296B967C
:10418600089500E010E0E0E8E0936100E0E0E093ED
:104196006100EFEFE7B9E2B9E0EFE1B9E0E0E5B9D8
:1041A600EFEFE4B9E0E0EBB9E0EFEAB9E0E0E09385
:1041B600C000E8E9E093C100E6E0E093C200E0E079
:1041C600E093C500E5E0E093C400E0E0E4BDE5E08F
:1041D600E5BDE0E0E6BDE7BDE8BDE1E0E0936E00E9
:1041E6000E94FE17EAE0F0E00E9428280E942E288E
:1041F600E0EFF9E00E9432280E94EF250E94352860
:104206000E943A28E0EDF7E00E942828E0EFFDE062
:104216000E9432280E94EF25EDE2F0E0FA93EA933D
:104226000E943A28E3E1F5E0FA93EA93E7E3F0E047
:104236000E944028EDE0F3E0FA93EA93EBE3F0E026
:104246000E944E280E945128E8E1F5E0FA93EA938D
:10425600E2E5F0E00E944E280E945128E1E1F3E0F9
:10426600FA93EA93E8E2F0E00E9459280E94512866
:10427600E0EDF7E00E9428280E94DB26EF3F79F464
:10428600AAE8B0E0E0E00E944C290E94CA260E94FB
:10429600B4260E94D5260E94BF260E94AE260E9402
:1042A6006028EF3F41F40E941E28EF3F21F40E9450
:1042B6006528EF3F09F019C0ACE8B0E0E0E00E94E5
:1042C6004C29AEE8B0E00E944C29A0E9B0E00E947B
:1042D6004C29A2E9B0E00E944C29A4E9B0E00E9472
:1042E6004C29A6E9B0E00E944C29A8E2B0E00E9461
:1042F6004029EF3F31F4A8E2B0E0E0E00E944C290B
:1043060004C0A8E2B0E00E944029E0935705AAE263
:10431600B0E00E944029E33038F0AAE2B0E0E0E0E5
:104326000E944C29E093580500E010E0003AE0E0D6
:104336001E073CF4A3E7B4E00E9423280F5F1F4F3B
:10434600F5CF78940E9459270E9438270E945E274D
:104356000E94952686E695E00197F1F7C0DB992441
:10436600CC24BB240E94FA27F19902C0B8DBF19A4B
:10437600AA92EFE4F0E00E945928E0E0EA93E1E037
:10438600EA930E944A193FDA95DA11DB3EDB7CDBC1
:10439600A0914905B0914A05119711F00C94E223BA
:1043A600A0912205B0912305119711F4E5E401C00F
:1043B600E0E2EA93E3E1F0E00E943228E1E0EA93EA
:1043C600EA930E944A19E0913C05E03011F00C9402
:1043D6005B22E8E2F5E0FA93EA93E8E4FEE2FA9378
:1043E600EA930E94DB260E9420270E94D0260E9484
:1043F60020270E94C5260E9420270E94BA260E94D6
:1044060020270E9490260E9420270E9486260E942E
:10441600202788E10E9481256C960E948626E093DB
:104426004B050E949026E0934C050E94BA26E09325
:104436004D050E94C526E0934E050E94D026E093C6
:104446004F050E94DB26E09350050E941E28E0934C
:104456005105AEE8B0E00E944029E09352050E9463
:104466006028E0935305A2E9B0E00E944029E0935A
:1044760054050E946528E0935505A6E9B0E00E9420
:104486004029E0935605E0915705A8E2B0E00E9466
:104496004C29E0915805AAE2B0E00E944C29E8E2D6
:1044A600F5E0FA93EA93E7E0F0E00E94402839C18C
:1044B600A0913C05A130F9F40E94E5270E948327CC
:1044C6000E94CB28EDE3F5E0FA93EA93E0E3F0E00F
:1044D6000E946A28E0E0EA93E2E0EA93E1E0EA93E8
:1044E6000E94D0190E942E28E0EDF7E00E94712864
:1044F6000E94E52713C1A0913C05A23011F00C944F
:10450600C5220E94E5270E9483270E94CB28EBE163
:10451600F3E00E944E280E947528E4EFF1E00E9425
:104526007128ECE2F3E0FA93EA93EDE2F0E00E9400
:104536007A280E948128EEE2F3E0FA93EA93E5E313
:10454600F0E00E947A280E948128E0E3F3E0FA93E3
:10455600EA93EDE3F0E00E947A280E948128E2E3E4
:10456600F3E0FA93EA93E5E4F0E00E947A28E4EFB8
:10457600F1E00E9471280E942E280E9484280E9441
:10458600E527CCC0A0913C05A330B9F40E94E527ED
:104596000E9483270E94CB28E4E3F3E0FA93EA9390
:1045A600ECE1F0E00E946A280E9451280E942E2821
:1045B6000E9484280E94E527B1C0A0913C05A43042
:1045C600B9F40E94E5270E9483270E94CB28EDE3D9
:1045D600F3E00E948728E3E0F0E0FA93EA930E9472
:1045E60051280E942E280E9484280E94E52796C002
:1045F600A0913C05A530E9F40E94E5270E94832797
:104606000E94CB28E9E4F3E00E9487280E947528DF
:10461600E4E5F3E00E948728E4E0F0E0FA93EA9309
:104626000E9451280E942E280E9484280E94E52775
:1046360075C0A0913C05A63099F40E94E5270E941A
:1046460083270E94CB28E0E6F3E00E9487280E9499
:1046560075280E942E280E9484280E94E5275EC0A5
:10466600A0913C05A73011F00C9494230E945F188A
:10467600E9E7F3E0FA93EA93EEE1F0E00E943228EC
:104686000E945128E3E7F4E00E9432280E94832723
:104696000E945128E8EBFBE00E947128049B08C0A9
:1046A600039B06C0029B04C0019B02C0009901C087
:1046B60003C00E947827F2CF0E945F180E947827D5
:1046C600A0915805A13049F40E9433270E9438274B
:1046D6000E943D27E2E8F3E00AC00E9459270E94A3
:1046E60038270E945E270E946827E8E8F3E0FA93DD
:1046F600EA93ECE2F0E00E9459280E9451280E94B9
:104706009E2600E010E0003AE0E01E073CF4A3E736
:10471600B4E00E9423280F5F1F4FF5CFE0E0E0933F
:104726003C050E948A28A134E0E0BE0719F4E0EFB8
:10473600FDE10BC00E948A28A635E0E0BE0719F00D
:104746000E948A28D997E0EFF1E2FA93EA93EFE51F
:10475600F0E00E9432280E9435280E9483270E949A
:104766008A1AE0E3F5E0FA93EA93E8EBFEE2FA93BD
:10477600EA93A6E9B0E00E948F280E9465280E946D
:104786002027A2E9B0E00E948F280E9460280E949C
:104796002027AEE8B0E00E948F280E941E280E94C3
:1047A600202788E1ABD16C96E0E3F5E0FA93EA9333
:1047B600E2E2F0E00E944E280E94512812C0EFE883
:1047C600F3E0FA93EA93EEE1F0E0FA93EA930E94BB
:1047D6007528E8E9F3E0FA93EA93EFE0F0E00E9447
:1047E6007A28E0EFF5E1FA93EA93E9E6F0E00E9431
:1047F6004E280E9435280E943A28B6CDFFCFE09178
:10480600C000E072E1F3E881E093C60021960895C6
:10481600EA81EA93F4DFA881B9810E940B262396E8
:1048260008951A930A93AA81BB8112960E942C2995
:10483600309729F1AA81BB8114960E942C298F01F9
:10484600309761F00230E0E01E07C0F0F8013197C2
:104856008F01AA81BB811496ED93FC93AA81BB813B
:1048660012960E940B263197AC81A083AA81BB8148
:104876000E942C29FF2312F00E940B2606C0AA8153
:10488600BB81EFEFFFEFED93FC931981088125962D
:10489600089526970E945D2910E0AC85BD85E0E06D
:1048A600F0E0ED93FC93EA89FB893196EA8BFB8B6A
:1048B6003197E4912E2FE03011F40C947925E12FF5
:1048C600E03039F4253211F411E002C00E9492283A
:1048D6000CC1E130A9F4253219F40E94922804C1D2
:1048E60012E040E000E02D3211F401E0FEC02B3270
:1048F60011F44BE2FAC0203211F440E2F6C002C0D5
:10490600E23039F450E013E0203311F40068EDC0D2
:1049160004C0E33011F00C947825203310F02A33CC
:1049260008F007C0AAE05A9F502DE22FE0535E0F11
:10493600DCC0E22FE33649F40E949B28E889F98916
:10494600A481AA930E94A128CFC0E33741F40E9414
:104956009B280E94A9280E94D2251E2F0AC0E03754
:1049660061F40E949B280E94A9280E94DC251E2F24
:10497600086002600F7730E035C0E43611F0E936A2
:1049860011F4046002C0E53731F4E0E4FDE2EE83A1
:10499600FF8315E00DC0E83511F4086004C0E83760
:1049A60011F00C947725EAE4FDE2EE83FF8314E030
:1049B60002FF14C00E949B280E94B328AB85AA233D
:1049C6003AF4EA85FB850E94DB28EA87FB874DE2FD
:1049D600403011F01F5F01C00B7F04C00E949B286E
:1049E6000E94B32800FD11C0151778F407FF08C010
:1049F60002FF04C00B7F242F115001C020E301C029
:104A060020E20E9492285150EFCF312F01FF17C0AC
:104A16003030A1F003FF06C0EE81FF812591EE83C1
:104A2600FF8305C0AE81BF812D91AE83BF830E94F7
:104A36009228503009F051503150EACF4BC020E354
:104A4600EE81FF810E943029E887F987EE81FF8198
:104A56003296EE83FF83E885F985AA85BB85AE1776
:104A6600BF0750F02F5FA885B985EA85FB85EA1B4D
:104A7600FB0BEA87FB87EFCF2A3328F003FF02C040
:104A8600295F01C0295D04FD1AC0213320F4A885E1
:104A9600B985119709F409C0531710F000FF01C03A
:104AA60013C020E207FF0BC020E3006102FF07C02E
:104AB6000B7F4A930E94A128503009F051500E9462
:104AC6009228503009F051503150A885B985129777
:104AD60008F0B5CF00FF08C0503031F05150E0E289
:104AE600EA930E94A128F8CF10E0DDCEAC85BD8503
:104AF6000E942C290E94642964960895FF92F82E3C
:104B060026970E945F290E94BB28309719F4EFEF81
:104B1600FFEF1FC0DE0116960E94D7288D010E9466
:104B2600BB28EE83FF83E0E0E887E987DE011A967B
:104B36000E94C228E4E1F4E2FA93EA93FE013A966F
:104B4600FA93EA93A6DE9F01AE81BF81E0E0EC9383
:104B5600F9010E9466292A96FF900895FF92F82E81
:104B660026971A930A93DE0114960E94D7288D0180
:104B7600E0E0EC83ED83EE83EF83DE0118960E947E
:104B8600C228EBE0F4E2FA93EA93FE013896FA9330
:104B9600EA937FDE198108812896FF900895A991EE
:104BA600B991EE27FF276D91662311F03196FBCF61
:104BB6000895AA27BB27E991F9910590002011F0E5
:104BC6001196FBCFFD010895FA93EA930C9406180B
:104BD600FA93EA930C942218E0E0F0E0FA93EA9351
:104BE6000895EC81F0E0FA93EA930C942D18E12FE6
:104BF600F0E00895AE81BF81EE27A10FBE1FEC91B4
:104C06000895FE01E95BFF4F0190F081E02D0895C4
:104C1600ED91FD913196FE93EE930895EE81F0E0CD
:104C26000895E091A603F091A703E15CF040A6E0A9
:104C3600B0E00E94EB28E458F74F0895E15CF0409D
:104C4600A6E0B0E00E94EB28E458F74F0895F0E0A4
:104C5600FA93EA930895F0E0EA0FFB1F0895FA939A
:104C6600EA93EE81FF810895FA93EA93EE81EA933F
:104C76000C94B818E985FA85FA93EA930E94D2252E
:104C8600A12FB0E0AE17BF070895A985BA85AE0F6C
:104C9600BF1F0895E885F985FA93EA930895EA9384
:104CA600E985EA930C944A19EA81F0E0E7FDFFEF03
:104CB6003896DF01EB81F0E00E94F3280895EB813E
:104CC600A8E0EA02F0010895EB81F0E0AD81BE8133
:104CD600EA0FFB1FED83FE830895A985BA85EA0FC7
:104CE600FB1FA1810895EC81A8E0EA02F001A885E6
:104CF600B985AE1BBF0BBA93AA93CCCFAE1BBF0B25
:104D0600AF83B8870895A0E8B0E00E9440290895CF
:104D1600EF5F0E944C29E1500895A2E8B0E00E949E
:104D260040290895E8E6FDE2FA93EA9380E00E94BE
:104D3600B12522960895E6E7FDE2FA93EA9380E02C
:104D46000E94B12522960895FA93EA9380E00E9484
:104D5600B12522960895A0E8B0E0E0E00E944C2933
:104D66000895A2E8B0E0E0E00E944C290895A4E886
:104D7600B0E00E9440290895A4E8B0E0E0E00E9477
:104D86004C290895A6E8B0E00E9440290895A6E8B7
:104D9600B0E0E0E00E944C290895A8E8B0E00E9447
:104DA60040290895A8E8B0E0E0E00E944C29089563
:104DB600AAE8B0E00E9440290895E4E6F0E0FA93FC
:104DC600EA930C94CB28FA93EA93E8E1F5E0662798
:104DD60077270E943429E0915205FF276627772717
:104DE6000E943429E0915105FF27662777270E9404
:104DF6003429E0915405FF27662777270E94342936
:104E0600E0915305FF27662777270E943429E09112
:104E16005605FF27662777270E943429E091550516
:104E2600FF27662777270E943429E0915005FF2740
:104E3600662777270E943429B0CFFF276627772772
:104E46000E94342908950E94A81BE8ECF0E0FA932A
:104E5600EA930C94CB28F0E0E130A0E0FA0708953D
:104E6600E0EFF9E1FA93EA93B7CEE5E0F0E0FA93E2
:104E7600EA930895E3E2F0E0FA93EA93E7E0F0E0DC
:104E8600FA93EA930C948A1AFA93EA93ECE2F0E026
:104E9600FA93EA93E7E0F0E0FA93EA93E0E0EA9324
:104EA600E1E0EA93EFEFEA930C94D019E0EFF1E139
:104EB600FA93EA9391CEE9E1F0E0FA93EA93E7E018
:104EC600F0E0FA93EA930C948A1AE0E2EA93EFE4AC
:104ED600F0E0FA93EA93E7E0F0E0FA93EA93E0E091
:104EE600EA93E1E0EA930C944A19E8ECF0E0FA93CD
:104EF600EA930C94CB28E4E1F0E0FA93EA93089560
:104F0600E1E0F0E0FA93EA930895F801E555FC4FE5
:104F1600A0810895F801E455FC4FA0810895F80199
:104F2600E355FC4FA0810895F801E255FC4FA0819E
:104F36000895F801E155FC4FA0810895EF54FC4F08
:104F4600E081F0E0F0970895EE54FC4FE081F0E048
:104F5600F0970895E0932605F09327050895E081DC
:104F6600F0E0F0970895F8013496E98FFA8F0895E6
:104F7600FA01A98DBA8DEA0FFB1FE455FC4FA081FB
:104F8600AA330895EF89F88D3196EF8BF88FAF89A4
:104F9600B88D11970895E98DFA8DE40FF51F3196B6
:104FA600ED8BFE8B0895ED89FE89E255FC4F089541
:104FB600ED89FE89E155FC4F0895ED89FE89E0559E
:104FC600FC4F0895E2E0EA930E944218E3E0EA9378
:104FD6000E944218E4E0EA930E944218E5E0EA9350
:104FE6000C944218ED89FE89E455FC4F0895E1E0E2
:104FF600F0E0E0934905F0934A050895AF81B8853E
:10500600EAE0F0E008950E941029A8E8B0E00E94C6
:105016004C29F4CF0E940B29AAE8B0E00E944C2943
:105026000895E989FA89E455FC4F99CF0E944C29E5
:10503600E989FA890895ACE8B0E00E94402908950C
:10504600A00FB11FE0E0EC930895FA93EA930E9453
:10505600CB280C945F180E94A81B0C94A81BFA93EB
:10506600EA93BACDEFE7F0E0FA93EA930895E7E022
:10507600F0E0FA93EA930C948A1AFA93EA93E2E040
:10508600F0E0FA93EA93E0E0EA93E2E0EA93EFEFE6
:10509600EA930C94D019FA93EA93E7CEE0E0EA9308
:1050A600E1E0EA93EFEFEA930C94D019FA93EA93CE
:1050B600E7E0F0E0FA93EA930895A0E9B0E00E94F1
:1050C60040290895A4E9B0E00E9440290895FA9382
:1050D600EA93E3E0F0E0FA93EA930895FA93EA9309
:1050E6000C94CB28E2E0F0E0FA93EA93D7CFFA9358
:1050F600EA93E4E0F0E0FA93EA93D0CFECE2F1E051
:10510600EDCFE8EEF3E0EACFFA93EA93F4CEA0917E
:105116002405B091250508950E9440298ECE2A9334
:10512600ED85FE85FA93EA93E989FA89099508954A
:10513600E889F9893497E88BF98B0895ED85FE8522
:10514600FA93EA93E989FA8909950895A889B989AC
:1051560014960E942C29EE83FF83FA93EA9308950E
:10516600A889B98914960E942C29EA87FB87089595
:10517600DE011C960E94D7280E942C2908950E94C1
:10518600D7280E942C29FA93EA931A930A93089532
:10519600E991F991309639F08DEC9AE00197F1F7A3
:1051A600A8953197C9F708950024AF0DB01D08954D
:1051B600F195E195F0400895EE0FFF1FEE0FFF1FEA
:1051C600EE0FFF1F08956F2F660F660B762F08955B
:1051D600FA9FF02DEB9FF00DEA9FE02DF10D08955B
:1051E6002AD0F6DF0EF4E4DF08950024112490E1BE
:1051F600AA0FBB1F001C111C0E1A1F0A18F40E0E54
:105206001F1E01C0A1609A9599F7FD01D00108956E
:1052160012D0EBDF0EF4CCDF0895E894B7FF04C09C
:10522600A095B09511966894F7FDC2DFDEDFFD010B
:105236000EF4BEDF0895E894F7FF02C0B9DF689464
:10524600B7FF06C0A095B095119600F8039400FA32
:105256000895ED91FC91119708950590F491E02D34
:1052660008957A936A93FA93EA9308951B2EBF2FB3
:10527600F12D1A2EAE2FE12D0895F999FECFFF9349
:10528600FFB7F894A1BDB2BDF89AE0B5FFBFFF9194
:105296000895F99B02C0A895FCCF9FB7F894A1BDCD
:1052A600B2BDF89A80B5E81719F0E0BDFA9AF99AF6
:1052B6009FBF08955A934A933A932A931A930A934F
:1052C60008955D814C813B812A8119810881089569
:00000001FF
