:0C0000000C94CA180C9400000C94000032
:10000C000C9400000C9400000C9400000C94000064
:10001C000C9400000C9400000C9400000C94000054
:10002C000C9400000C9400000C9400000C94000044
:10003C000C94FD240C9400000C9400000C9475247A
:10004C000C9400000C944A240C9400000C940000B6
:10005C000C9400000C9400000C9400000C94000014
:10006C000C9400000C9400000C9400000C94000004
:10007C000000000000000000000000000000000074
:10008C000000000000000000000000000000000064
:10009C000000000000000000000000000000000054
:1000AC000000000000000000000000000000000044
:1000BC000000000000000000000000000000000034
:1000CC000000000000000000000000000000000024
:1000DC000000000000000000000000000000000014
:1000EC000000000000000000000000000000000004
:1000FC0000000000000000000000000000000000F4
:10010C0000000000000000000000000000000000E3
:10011C0000000000000000000000000000000000D3
:10012C0000000000000000000000000000000000C3
:10013C0000000000000000000000000000000000B3
:10014C0000000000000000000000000000000000A3
:10015C000000000000000000000000000000000093
:10016C000000000000000000000000000000000083
:10017C00000000000000000000004F000000000024
:10018C0000070007000000000024FF24FF240000EB
:10019C0000444AFF4A32000040231308C4C2000046
:1001AC000036495522408000000005030000000085
:1001BC00003C4281000000000081423C0000000035
:1001CC000014083E081400000010107C10100000F1
:1001DC0000002818000000000008080808080800A3
:1001EC0000606000000000004020100804020000C5
:1001FC00007EFF8181FF7E00008082FEFF808000F8
:10020C0000E2F191919F8E000062C3C9C9FF760094
:10021C0000181412FFFF1000006F8F8989F971000C
:10022C00007EFF8989F97200000101F1FD070300CE
:10023C000076FF8989FF760000468F8989FF7E0052
:10024C00000066660000000000005636000000004A
:10025C00000814224100000000242424242400005F
:10026C000000412214080000000201B10906000040
:10027C00006291F1817E000000FE111111FE000060
:10028C0000FF898989760000007E8181814200000F
:10029C0000FF8181423C000000FF898989810000B8
:1002AC0000FF090909010000007E81919172000094
:1002BC0000FF101010FF0000000081FF8100000003
:1002CC00004080817F01000000FF18244281000063
:1002DC0000FF80808080000000FF020C02FF000005
:1002EC0000FF040810FF0000007E8181817E000069
:1002FC0000FF1111110E00007E81A141BE00000013
:10030C0000FF1131518E000000868989897100002F
:10031C00000101FF01010000007F8080807F000050
:10032C00003F4080403F0000003FC060C03F0000E5
:10033C0000E3140814E30000000708F008070000AD
:10034C0000C1A1918987000000FF8181000000009D
:10035C000015167C161500000041417F00000000BE
:10036C000004020102040000004040404040000034
:10037C0000010204000000000060949494780000D6
:10038C0000FF888888700000007884848400000056
:10039C0000788484887F000000789494945800003E
:1003AC000010FE1101020000000C9292927E0000DF
:1003BC0000FF100808F00000000084FD8000000021
:1003CC00006080807D00000000FF30488400000049
:1003DC00000081FF8000000000FC043804F80000DD
:1003EC0000FC080404F80000007884848478000081
:1003FC0000FC1414140800000008141418FC00006D
:10040C0000FC080404080000008894949460000028
:10041C0000047F8480400000007C808040FC000051
:10042C00003C4080403C0000003EC060C03E0000EC
:10043C00004224182442000000068888887E0000B0
:10044C0000C4A4948C840000000876810000000095
:10045C00000000FF00000000008176080000000092
:10046C000008082A1C08000000000010307E301024
:10047C0001023C4A523C4080080C7E0C08000000F3
:10048C00017E858991A17E80080C0EFFFF0E0C0861
:10049C00080C0EFFFF0E0C0800000000000000000E
:1004AC000000000000000000000000000000000040
:1004BC000000000000000000000000000000000030
:1004CC000000000000000000000000000000000020
:1004DC000000000000000000000000000000000010
:10087C00C1C1C1C10000C2C2FEFE0100C3C31F1F23
:10088C000100C4C4FCFC0100C5C5C5C50101C6BD41
:10089C00BFBE0101C7C7C0C00100C882848301016B
:1008AC00C9C9FDFD0100CA8587860101CB888A89EB
:1008BC000101CC8BCC8B0101CD8CCD8C0101CE11E7
:1008CC00CE110101CFCF13130100D0D08F8F0100B7
:1008DC00D1D11B1B0100D2D291910100D3929493E0
:1008EC000101D49597960101D5179A990101D69BD0
:1008FC009D9C0101D7D7D7D70000D8D89E9E010167
:10090C00D9D99F9F0101DAA0A2A10101DBA3A5A463
:10091C000101DCDCDCDC0000DDA6A8A70101DEA9FE
:10092C00ABAA0101DFACAEAD0101E0E0E0E00000FC
:10093C00E1AFB1B00101E2E2E2E20000E3B2B4B334
:10094C000101E4B5B7B60101E5B8BAB90101E6E6B3
:10095C00BCBC0100E7E7E7E70000E8E8E8E80000D6
:10096C00E9E9E9E90000EAEAEAEA0000EBEBEBEB83
:10097C000000ECBDBFBE0101EDBDBFBE0101EEEE3E
:10098C00EEEE0000EFEFEFEF0000F0F0F0F0000003
:10099C00F1F1F1F10000F2F2F2F20000F3F3F3F3F3
:1009AC000000F5F5F5F50000F6F6F6F60000F7F7A1
:1009BC00F7F70000F8F8F8F80000FBF9FBFA010172
:1009CC00BBBBF4F40100811C1E1D010190181A1907
:1009DC0001019814161501018E8E121201008D1052
:1009EC008D10010100C0F030381818181898B0B0EC
:1009FC00303030606060606060C0C0C0C0C0C0C0DB
:100A0C00808080808000000000000000000000005A
:100A1C0000000000000000000000000000000000CA
:100A2C0000000000000000000000000000000000BA
:100A3C0000000000000000000000000000000000AA
:100A4C00000000000000000000000000000000009A
:100A5C00000000000000000000000000000000008A
:100A6C000000000000FFFF00000C18F0E70FFD0F66
:100A7C000700000000000000000000000000000063
:100A8C0001010181838383C3E767E6C6060E0C0C64
:100A9C000C0C0C1818187870E0C00000000000E076
:100AAC00E0000000000080C0E06000E0E0606060FA
:100ABC00606060E0C000000080C06060C08000002A
:100ACC0000E0E0606060606060C08000000080C09A
:100ADC006060C0800000000080C06060606060C02A
:100AEC008000000000FFFF00000000FFFF00FF007F
:100AFC00000000000000000000000080C060301802
:100B0C008CC66331180808090B0B0B090808080878
:100B1C0008081C3E363E1C00FFFF0000000000FFD2
:100B2C00FF70F88C8E070301000000FFFFE0E0E08F
:100B3C006060607F3F00FEFF616060606061FFFE8F
:100B4C0000FFFF000000000000FFFF00FEFF6160DF
:100B5C0060606061FFFE00FFFF000000000000000D
:100B6C000100000000FFFF00000000FFFF003F300D
:100B7C0030303030303030180CC6E331180C0603EE
:100B8C000100000000000000000000000000000058
:100B9C000000000000000000FFFF00000000003F0C
:100BAC003F00000103070E1C3830003F3F000001DE
:100BBC0003070E3C38003F3F0000000000003F3FA1
:100BCC00003F3F3030303030301F0F003F3F0000CF
:100BDC00000000003F3F000F1F3030303030303805
:100BEC001800000000FFFF00000000FFFF00FF03E3
:100BFC0003030303030303060C193366CC9830601C
:100C0C00C080000000000000000000000000000098
:100C1C000000000000000000FFFF000000000000CA
:100C2C0000000000000000000000000000000000B8
:100C3C0000000000000000000000000000000000A8
:100C4C000000000000000000000000000000000098
:100C5C000000000000000000000000000000000088
:100C6C000000000000FFFF00000000FFFF00FF007D
:100C7C00000000000000000000000000000103065E
:100C8C000C193366444444E4F4B4F4E4040404045A
:100C9C0004040E1F1B1F0E00FFFF000000FC0000D1
:100CAC00000000F8040404F8000C040404FC00F038
:100CBC00888488F00080808000FC8484040400F820
:100CCC000404040800FC000000FC00F0888488F098
:100CDC0000FC040404F800F8040404F800FC44C408
:100CEC004438000000FFFF00000603011C3E373EA5
:100CFC001C00000000000080808080C0C0C0C0C00C
:100D0C00E06060603030303031391918181C0C0C30
:100D1C000C0C0E060606070301000000000F080865
:100D2C000808000708080807000608080807000F4D
:100D3C000000000F00000000000F08080808000762
:100D4C0008080804000708080807000F0000000F37
:100D5C00000F08080807000708080807000F000024
:100D6C00010E0000000107060E0C0C0C0C0C060604
:100D7C000606030303030301010101010000000047
:100D8C000000000000000000000000000000000057
:100D9C000000000000000000000000000000000047
:100DAC000000000000000000000000000000000037
:100DBC000000000000000000000000000000000027
:100DCC000000000000000000000000000000000017
:100DDC000000000000000000000000000000000007
:100DEC0000000000000000000000000000000000F7
:100DFC0000000000000000000000000000000000E7
:100E0C0000000000000000000000000000000000D6
:100E1C0000000000000000000000000000000000C6
:100E2C0000000000000000000000000000000000B6
:100E3C0000000000000000000000000000000000A6
:100E4C000000000000000000000000000000000096
:100E5C000000000000000000000000000000000086
:100E6C00000000000000000000C0E0F0F0F8F8F80E
:100E7C00F8F8FCFCFCFCFCFCFCFCFCFCFCFCFCFCAE
:100E8C00FCFCFCFCFCFCF8F8F8F8F8F0E0E0C00026
:100E9C000000000000000000000000000000000046
:100EAC000000000000000000000000000000000036
:100EBC000000000000000000000000000000000026
:100ECC000000000000000000000000000000000016
:100EDC000000000000000000000000000000000006
:100EEC000000000000000000FEFFFF0301030303ED
:100EFC000303030303030303030303FFFF030301C0
:100F0C000303030303030303030303030307FFFEAA
:100F1C0000000000000000000000000000000000C5
:100F2C0000000000000000000000000000000000B5
:100F3C0000000000000000000000000000000000A5
:100F4C000000000000000000000000000000000095
:100F5C000000000000000000000000000000000085
:100F6C000000000000000000FFFFFFC0C0C0C0C0B8
:100F7C00C0C0C0C0C0C0C0C0C0C0E0FFFFE0C0C0A7
:100F8C00C0E0D0C8C4C4C4C4C8D0E0C0E0F0FFFF07
:100F9C000000000000000000000000000000000045
:100FAC000000000000000000000000000000000035
:100FBC000000000000000000000000000000000025
:100FCC000000000000000000000000000000000015
:100FDC000000000000000000000000000000000005
:100FEC000000000000000000FFFFFFFFFFFFFFFFFD
:100FFC00FFFFFFFFFFFFFFFFFFFFFFFFFFFFFFFFF5
:10100C00FFFFFFFFFFFFFFFFFFFFFFFFFFFFFFFFE4
:10101C0000000000000000000000000000000000C4
:10102C0000000000000000000000000000000000B4
:10103C0000000000000000000000000000000000A4
:10104C000000000000000000000000000000000094
:10105C000000000000000000000000000000000084
:10106C0000000000000000003FFFFFE1E1E1E1FFB4
:10107C00FFFFF9D9D9D9D9D9D9D9D9D9D9D9D9D968
:10108C00D9D9D9D9C9FBFFFFFFE1E1C1E1F7FF3F96
:10109C000000000000000000000000000000000044
:1010AC000000000000000000000000000000000034
:1010BC000000000000000000000000000000000024
:1010CC000000000000000000000000000000000014
:1010DC000000000000000000000000000000000004
:1010EC00000000000000000000001F3F3F3F3F3F9A
:1010FC003F000000000000000000000000000000A5
:10110C000000000000001F3F3F3F3F3F3F1F00001B
:10111C0000000000000000000000000000000000C3
:10112C0000000000000000000000000000000000B3
:10113C0000000000000000000000000000000000A3
:10114C000000000000000000000000000000000093
:1014EC00000000000000000000F884C202020202AA
:1014FC00FE020202C2FE02020202C4F80000000058
:10150C0000000000000000000000000000000000CF
:10151C0000000000000000000000000000000000BF
:10152C0000000000000000000000000000000000AF
:10153C00000000000000000000000000000000009F
:10154C00000000000000000000000000000000008F
:10155C00000000000000000000000000000000007F
:10156C00000000000000001E1F7FFFFD7C1C1C1CE7
:10157C001F1C1C1C1F1F7CFCFC7C1F0F0000000090
:10158C00000000000000000000000000000000004F
:10159C00000000000000000000000000000000003F
:1015AC00000000000000000000000000000000002F
:1015BC00000000000000000000000000000000001F
:10195C000038FC0202020202060606BAFABA0202B9
:10196C00FC38000000000000000000000000000037
:10197C00000000000000000000000000000000005B
:10198C00000000000000000000000000000000004B
:10199C00000000000000000000000000000000003B
:1019AC00000000000000000000000000000000002B
:1019BC00000000000000000000000000000000001B
:1019CC00000000000000000000000000000000000B
:1019DC0000003F3EFEF2F23E3E3E3F3FF3F3FF3E41
:1019EC003F000000000000000000000000000000AC
:1019FC0000000000000000000000000000000000DB
:101A0C0000000000000000000000000000000000CA
:101A1C0000000000000000000000000000000000BA
:101A2C0000000000000000000000000000000000AA
:101CEC00000000000000000000F884C282DAFAE272
:101CFC00FE020202C2FE02020202C4F80000000050
:101D0C0000000000000000000000000000000000C7
:101D1C0000000000000000000000000000000000B7
:101D2C0000000000000000000000000000000000A7
:101D3C000000000000000000000000000000000097
:101D4C000000000000000000000000000000000087
:101D5C000000000000000000000000000000000077
:101D6C00000000000000001E1F7FFFFD7C1F1F1FD6
:101D7C001F1C1C1C1F1F7CFCFC7C1F0F0000000088
:101D8C000000000000000000000000000000000047
:101D9C000000000000000000000000000000000037
:101DAC000000000000000000000000000000000027
:101DBC000000000000000000000000000000000017
:101DCC000000000000000000000000000000000007
:101DDC0000000000000000000000000000000000F7
:101DEC0000000000000000000000000000000000E7
:101DFC0000000000000000000000000000000000D7
:101E0C0000000000000000000000000000000000C6
:101E1C0000000000000000000000000000000000B6
:101E2C0000000000000000000000000000000000A6
:101E3C000000000000000000000000000000000096
:101E4C0000000000E01090908000F09090906000F6
:101E5C0060909010000000002070F87020008078D6
:101E6C0000FC00000000000000000000000000006A
:101E7C000000000000000000000000000000000056
:101E8C000000000000000000000000000000000046
:101E9C000000000000000000000000000000000036
:101EAC000000000000000000000000000000000026
:101EBC000000000000000000000000000000000016
:101ECC0000000000030404040300070000000000ED
:101EDC000404040300000010141414141209040A5E
:101EEC003518080000000000000000000000000091
:101EFC0000000000000000000000000000000000D6
:101F0C0000000000000000000000000000000000C5
:101F1C0000000000000000000000000000000000B5
:101F2C0000000000000000000000000000000000A5
:10224C0000000000E01090908000F09090906000F2
:10225C0060909010000000000000000000008078EA
:10226C0000FC000000000000000000000000000066
:10227C000000000000000000000000000000000052
:10228C000000000000000000000000000000000042
:10229C000000000000000000000000000000000032
:1022AC000000000000000000000000000000000022
:1022BC000000000000000000000000000000000012
:1022CC0000000000030404040300070000000000E9
:1022DC000404040300000010141414141209040A5A
:1022EC00351808000000000000000000000000008D
:1022FC0000000000000000000000000000000000D2
:10230C0000000000000000000000000000000000C1
:10231C0000000000000000000000000000000000B1
:10232C0000000000000000000000000000000000A1
:1025EC000000000000000000000000808000E0E01F
:1025FC0000F8F800FEFE00000000000000000000E3
:10260C0000000000000000000000000000000000BE
:10261C0000000000000000000000000000000000AE
:10262C00000000000000000000000000000000009E
:10263C00000000000000000000000000000000008E
:10264C00000000000000000000000000000000007E
:10265C00000000000000000000000000000000006E
:10266C000000000000060600070700070700070728
:10267C000007070007070000000000000000000032
:10268C00000000000000000000000000000000003E
:10269C00000000000000000000000000000000002E
:1026AC00000000000000000000000000000000001E
:1026BC00000000000000000000000000000000000E
:1029EC000000000000000000000000808000E0E01B
:1029FC0000000000000000000000000000000000CB
:102A0C0000000000000000000000000000000000BA
:102A1C0000000000000000000000000000000000AA
:102A2C00000000000000000000000000000000009A
:102A3C00000000000000000000000000000000008A
:102A4C00000000000000000000000000000000007A
:102A5C00000000000000000000000000000000006A
:102A6C000000000000060600070700070700070724
:102A7C00000000000000000000000000000000004A
:102A8C00000000000000000000000000000000003A
:102A9C00000000000000000000000000000000002A
:102AAC00000000000000000000000000000000001A
:102ABC00000000000000000000000000000000000A
:102ACC0000000000000000000000000000000000FA
:102ADC0000000000000000000000000000000000EA
:102AEC0000000000000000000000000000000000DA
:102AFC0000000000000000000000000000000000CA
:102B0C0000000000000000000000000000000000B9
:102B1C0000000000000000000000000000000000A9
:102B2C000000000000000000000000000000000099
:102B3C000000000000000000000000000000000089
:102B4C000000000000000000000000000000000079
:102B5C000000000000000000000000000000000069
:102B6C000000000000000000000000000000000059
:102B7C000000000000000000000000000000000049
:102B8C000000000000000000000000000000000039
:102B9C00000000000006060007070000000000000F
:102BAC000000000000000000000000000000000019
:102BBC000000000000000000000000000000000009
:102BCC0000000000000000000000000000000000F9
:102BDC0000000000000000000000000000000000E9
:102BEC0000000000000000000000000000000000D9
:102BFC0000000000000000000000000000000000C9
:102C0C0000000000000000000000000000000000B8
:102C1C0000000000000000000000000000000000A8
:102C2C000000000000000000000000000000000098
:102C3C000000000000000000000000000000000088
:102C4C000000000000000000000000000000000078
:102C5C000000000000000000000000000000000068
:102C6C000000000000000000000000000000000058
:102C7C000000000000000000000000000000000048
:102C8C000000000000000000000000000000000038
:102C9C000000000000000000000000000000000028
:102CAC000000000000000000000000000000000018
:102CBC000000000000000000000000000000000008
:102CCC0000000000000606000404040404040404CC
:102CDC0004040404040400000000000000000000D0
:102CEC0000000000000000000000000000000000D8
:102CFC0000000000000000000000000000000000C8
:102D0C0000000000000000000000000000000000B7
:102D1C0000000000000000000000000000000000A7
:102D2C000000000000000000000000000000000097
:102D3C00000000001027E80364000A0001000010E6
:102D4C00000110000100C100486F6C61205054520A
:102D5C0053495455383838384106000000000000FB
:102D6C0000000000000044050000000020000000EE
:102D7C0000004154245454534E444D473D342C22AE
:102D8C002424424C25732C25303264253032643295
:102D9C0030253032642C25303264253032642530B5
:102DAC0032642C53322C25732C25643A5858232327
:102DBC00220D0A005F5F5F0030002A30002A2A30A3
:102DCC00002A2A2A30002A2A2A2A30002A2A2A2AC9
:102DDC002A3000415424545454524745563D343201
:102DEC002C312C32350D0A0031002A31002A2A31BF
:102DFC00002A2A2A31002A2A2A2A31002A2A2A2A97
:102E0C002A310032002A32002A2A32002A2A2A3297
:102E1C00002A2A2A2A32002A2A2A2A2A3200330095
:102E2C002A33002A2A33002A2A2A33002A2A2A2A59
:102E3C0033002A2A2A2A2A33004154245454545247
:102E4C004745563D34322C312C25640D0A00415433
:102E5C0024545454524745563D34322C312C323381
:102E6C000D0A0034002A34002A2A34002A2A2A3473
:102E7C00002A2A2A2A34002A2A2A2A2A34000D2037
:102E8C00486F7261205054523A20253032643A25F2
:102E9C003032643A2530326420454E44205054522E
:102EAC000A000D0A50554E5445524F2025730A20E6
:102EBC00454E44005025640046616C6C6F20616C7B
:102ECC002070617361722061206C6120686F726187
:102EDC00206C6F63616C0A0D0041542454544445BA
:102EEC005649443F0A0D0041542B4353510A0D00DF
:102EFC0041542454544E455449503F0A0D004154FA
:102F0C002454544750535152593D31302C300A0DF2
:102F1C000042555320534954550076657220302E8B
:102F2C00392E3600415424545454524745563D349E
:102F3C00322C312C32340D0A004E4F204155544F57
:102F4C0052495A41444F0053494E20434F4E455825
:102F5C00494F4E00253032643A253032643A2530E0
:102F6C003264003230253032642D253032642D2508
:102F7C00303264004E4F20484120494E494349416C
:102F8C00444F20534553494F4E0053494E20525500
:102F9C005441002020525554413A20202000494EE3
:102FAC00475245534520535520434F4449474F0002
:102FBC0046494E205255544100494E4943494F20F1
:102FCC0052555441002048412053414C49444F0034
:102FDC0044454C2053495354454D41004E454345BF
:102FEC005349544120494E4943494152204A4F527A
:102FFC004E414441004D454E53414A453A004553DC
:10300C00434F4A41205355205255544100202052E1
:10301C005554413A20200050616E74616C6C610013
:10302C004E6F204175746F72697A616461000100A2
:10303C002D4E414E000001007704522D080044052E
:10304C00542D0400F0055C2D0400F505602D0400E2
:10305C000003C02D04000403C02D02000803C42D7E
:10306C0003000A03C62D04000D03C92D050011032E
:10307C00CD2D06001603D22D07001C03D82D0200FF
:10308C002303F42D03002503F62D04002803F92D4A
:10309C0005002C03FD2D06003103022E070037031B
:1030AC00082E02003E030F2E03004003112E0400D5
:1030BC004303142E05004703182E06004C031D2E47
:1030CC0007005203232E020059032A2E03005B0330
:1030DC002C2E04005E032F2E05006203332E0600F7
:1030EC006703382E07006D033E2E020074036F2E0B
:1030FC0003007603712E04007903742E05007D0302
:10310C00782E060082037D2E07008803832E09008B
:10311C008F031D2F0A009803262F0E00A203452FA4
:10312C000D00B003532F1600BD03802F0900D303ED
:10313C00962F0B00DC039F2F1200E703AA2F090028
:10314C00F903BC2F0C000204C52F0B000E04D12F69
:10315C000C001904DC2F19002504E82F09003E048B
:10316C0001300F0047040A300A00560419300900D8
:10317C00600423300E0069042C300C000300722D07
:10318C0001006E063A300000F894EE27EFBBF1E038
:10319C00F5BFE5BFF8E1A895A4B7A77FA4BFF0934E
:1031AC006000E09360008DE0A2E0BB27ED938A9570
:1031BC00E9F780E098E0A0E0B1E0ED930197E9F742
:1031CC00E2E4F0E385919591009761F0A591B591BA
:1031DC0005901590BF01F00105900D920197E1F754
:1031EC00FB01F0CFE0E0EEBBEFEFEDBFE8E0EEBFB0
:1031FC00C0E0D3E00C9409255F9A87E38A95F1F738
:10320C005F9887E38A95F1F70895169A179A5E9856
:10321C005D98EFE3E8B9F0DF08951A935E985D9836
:10322C00A981BA81A034E0E0BE0720F4169A179861
:10323C00198107C0179A1698E981FA81E054F04079
:10324C001E2FE12FE064EF771E2F18B9D5DF188100
:10325C003BC01A935E985D98E981E86BEF7B1E2F5B
:10326C0018B9CADF188130C0EA81FB810E94A32AF9
:10327C00E881F9810E94A72A249608955E9A5D98A8
:10328C00E881E8B98DED90E00197F1F7B5DF219673
:10329C0008951A930A930E94AB2A0E94B02AE0E484
:1032AC00F0E0FA93EA930E94B02A169A00E010E03C
:1032BC000134E0E01E0734F4E0E0EA93DFDF0F5F57
:1032CC001F4FF6CF19810881239608951A930A93FC
:1032DC0000E010E00830E0E01E072CF40A93D9DF80
:1032EC000F5F1F4FF7CF0991199108951A93EB8136
:1032FC00FC810E94A32AE981FA810E94A72A10E08E
:10330C00183080F4ED81FE810E94772DDF010E9440
:10331C00B62AEA0FFB1FE458FF4FE491EA93AEDFA5
:10332C001F5FEECF188141C10E942B2E20E010E0D0
:10333C00EC811E1700F500E00830D8F40E94B92A81
:10334C00F0E0F595E795EC93ED81E1703E2F303090
:10335C0021F00E94B92AE068EC932F5FEC81E21710
:10336C0031F4ED81F0E0F595E795ED8320E00F5F0A
:10337C00E3CF1F5FDDCF0E94322E28960895EF9782
:10338C0021970E942B2E0E94C02A0E94A32AFE0184
:10339C00EB5BFF4F0190F081E02D0E94A72A10E01B
:1033AC00183008F50E94B62ABF010E94772DDE0165
:1033BC001496EA0FFB1FFA93EA93FE01E55BFF4FAD
:1033CC000190F081E02D0E94772DE60FF71FE45855
:1033DC00FF4FE491EA93FE01E95BFF4FE081EA9332
:1033EC00A3DF1F5FDDCF00E0FE01EC5BFF4FE08150
:1033FC000E1710F00C94521A10E0183010F00C94B8
:10340C00441A30E0FE01EC5BFF4FE0813E17A0F563
:10341C00E32FF0E0DE01A95BBF4F0D90BC91A02D16
:10342C00EA0FFB1FBF01DE01AC5BBF4FAC91BB27AA
:10343C000E94B62A0E948B2DDB01AE0FBF1FA03459
:10344C00E0E0BE0749F4E0E4F0E0FA93EA930E946E
:10345C00C02AFA93EA9308DF0E94B62A0E94772DBD
:10346C00DE011496AE0FBF1FEE27A00FBE1FEC910E
:10347C00EA9304DF3F5FC6CF1F5FBFCF0E94C02A15
:10348C00FA93EA93DE01A95BBF4F0E94C72AFA9315
:10349C00EA93EADE0F5FA8CF0E94322EEF962C96AD
:1034AC000895A981A13011F00C94D31A0E94CD2A51
:1034BC00E138A0E0FA0711F4EAEF17C0E039A0E018
:1034CC00FA0711F4EBEF11C0E839A0E0FA0711F498
:1034DC00ECEF0BC0EE38A0E0FA0711F4EDEF05C0ED
:1034EC00ED38A0E0FA0711F4EEEFEE83AE81A13CCB
:1034FC00B0F0A0917704B0917804A13CE0E0BE0755
:10350C0074F00E94D02A3596E491E03041F00E948C
:10351C00CD2A0E94DD2A3496E491E03009F417C0DC
:10352C000E94D02ADF01E0917904F0E03196EA0F95
:10353C00FB1FE4910E94E62AE0917A040E94E62A9D
:10354C00E0917B040E94E62AD1DEE2E001C0E0E0DB
:10355C00E0937904AE81A13C58F00E94CD2A0E94E0
:10356C00DD2ADF01E09179040E94EA2AE49101C08E
:10357C00EE81F0E00E94EE2A0E94EE2A0E94F32ACD
:10358C000E94CD2AE0937704F0937804EC81E093C9
:10359C007A04EA81E0937B0408C00E94CD2A0E9441
:1035AC00EE2A0E94EE2A0E94F32A279608951A9377
:1035BC000A9310E000E00E94F92A18F4AC81A030C4
:1035CC0009F029C00E94B62A0E94042BEC91EA93C0
:1035DC000E94092B0E94092BE0E00E940E2B0E94F6
:1035EC00132BAF81B885EA0FFB1FEF83F8870E947E
:1035FC001E2BA0E8B0E00E94102EEA1BFB0BAF8143
:10360C00B885EA17FB072CF4E0E0EF83E8870E940B
:10361C00232B1F5FD0CF0E94F92A18F4AC81A13064
:10362C0009F075C00E94B62A0E94042BAC91A13EF1
:10363C0021F40E942C2BA73C09F002C009EF29C0F1
:10364C000E94B62A0E94042BAC91A13E21F40E9448
:10365C002C2BA33C09F002C007EE1BC00E94B62A1B
:10366C000E94042BAC91A13E21F40E942C2BA23C75
:10367C0009F002C008EE0DC00E94B62A0E94042B6D
:10368C00AC91A13E21F40E942C2BA53C09F001C069
:10369C0009EE003079F00A930E94322BE1E00E948F
:1036AC000E2B1E5F0E941E2BAF81B8850E943D2BF6
:1036BC0000E01CC00E94B62A0E94042BEC91EA93F5
:1036CC000E94322BE9850E940E2B0E94B62A0E9482
:1036DC00042BAC91A03219F40E94132B02C00E944F
:1036EC001E2BAF81B8850E943D2B1F5F0E941E2BA5
:1036FC003196AF81B885AE17BF0744F40E941E2BDC
:10370C00A0E8B0E00E943D2B0E94232B84CFE1EC7B
:10371C00F0E0E0937704F0937804198108812B96FC
:10372C0008950E942B2E08851985EC81FD81E017E8
:10373C00F10700F12A853B85EE81FF81E217F30743
:10374C00B0F03A932A931A930A938EDDA0E8A09FC7
:10375C00F001A19FF00DE20FF31FAC85BD85EA0FC0
:10376C00FB1FE491EA938ADD2F5F3F4FE5CF0F5F9C
:10377C001F4FDBCF0E94322E2E960895AB85AA23C5
:10378C0022F0AA85BB8558970CF015C0AD85AA23ED
:10379C0022F0AC85BD85DC970CF00CC0AF85AA235C
:1037AC0022F0AE85BF85DC970CF003C0E1E0F0E0C1
:1037BC006DC06AC069C068C0A881B9810E94252EFD
:1037CC000CF062C0EA81FB81E130A0E0FA0721F045
:1037DC00E330A0E0FA0709F404C0E530A0E0FA07F2
:1037EC0009F404C0E730A0E0FA0709F404C0E8309B
:1037FC00A0E0FA0709F404C0EA30A0E0FA0709F4E3
:10380C0004C0EC30A0E0FA0739F4A881B981909794
:10381C00DCF5E1E0F0E03AC0E430A0E0FA0721F09A
:10382C00E630A0E0FA0709F404C0E930A0E0FA079A
:10383C0009F404C0EB30A0E0FA0739F4A881B9818F
:10384C005F9714F5E1E0F0E021C0E230A0E0FA0768
:10385C00D9F4A881B9815E97BCF4A881B9815D9730
:10386C001CF4E1E0F0E012C00E94422B0E94472BB6
:10387C0039F40E94502B19F40E945A2B09F401C000
:10388C0003C0E1E0F0E002C0E0E0F0E062960895F1
:10389C006297EA89FB89DE0182E10E94172EAA85D4
:1038AC00BB85169714F00C94D71CEA85FB8578968B
:1038BC00EA87FB873597EA87FB87A881B98111973F
:1038CC0011F00C94D11CAA81BB81119761F4E8858D
:1038DC00F9853197E887F987ECE0F0E0EA83FB8320
:1038EC00EFE1F0E055C0AA81BB811397C9F40E94A7
:1038FC00422B0E94472B39F40E94502B19F40E9442
:10390C005A2B09F401C003C0EDE1F0E002C0ECE178
:10391C00F0E0E883F983E2E0F0E0EA83FB833AC06D
:10392C00EA81FB813197EA83FB83E130A0E0FA075F
:10393C0021F0E330A0E0FA0709F404C0E530A0E080
:10394C00FA0709F404C0E730A0E0FA0709F404C050
:10395C00E830A0E0FA0709F404C0EA30A0E0FA0766
:10396C0019F4EFE1F0E014C0E430A0E0FA0721F024
:10397C00E630A0E0FA0709F404C0E930A0E0FA0749
:10398C0009F404C0EB30A0E0FA0721F4EEE1F0E01A
:10399C00E883F98305C0E881F9813197E883F983DD
:1039AC0005C0EA85FB853597EA87FB87FE01A2E116
:1039BC000E94082EE3DE309739F0FE01A2E10E944E
:1039CC00082EFADE309709F409C0FE01AA89BB89DA
:1039DC0082E10E94172EE1E0F0E002C0E0E0F0E0AE
:1039EC00649608950E94292EE09169060E94642B2A
:1039FC008F01E0916B060E94642B9F01E091680699
:103A0C00F0E0E00FF11FDF01E0916A060E94EA2A64
:103A1C00E20FF31FDF010E946D2BEAE0F0E00E9441
:103A2C00C82DAF01E0916D06DA01F0E0EA17FB0753
:103A3C0099F4A0916806BB27E09169060E94732B4C
:103A4C00E0916A060E94732BE0916B060E94732B27
:103A5C000E946D2B109709F403C0E1E0F0E002C066
:103A6C00E0E0F0E00E94302E269608955C9A0E94C9
:103A7C00772B5C980E94772B0895EEE7FDE2FA9382
:103A8C00EA93E5EFF5E0662777270E947D2B0E94ED
:103A9C00882B0E94032E0E948F2B0E94982BE0E60D
:103AAC00F6E0662777270E94032EE091FC05FF279E
:103ABC00662777270E94032E84E20E946D2AA69621
:103ACC000895E0910906F0910A06309719F4E0E0A8
:103ADC00F3E036C0E130A0E0FA0749F4E0E2FBE2A3
:103AEC000E94B12B0E94AB2A0E94B42B31C0E23051
:103AFC00A0E0FA0749F4E0EFF9E20E94B12B0E9432
:103B0C00AB2A0E94B42B24C0E330A0E0FA0749F49E
:103B1C00E0EFF5E20E94B12B0E94AB2A0E94B42B7D
:103B2C0017C0E430A0E0FA0749F4E0E5FCE20E949B
:103B3C00B12B0E94AB2A0E94B42B0AC0E4E0F3E044
:103B4C00FA93EA930E94AB2A0E94AB2A0E94BE2BE6
:103B5C000895A0E00499A1E0A03039F4E0E0EC1560
:103B6C0021F4A0915F06A13009F049C0E1E0CE2E0E
:103B7C000E94C62B309731F4E0E0E0936806E8E051
:103B8C00F3E031C0E130A0E0FA0731F4E0E0E0937B
:103B9C006906EAE0F3E027C0E230A0E0FA0731F46E
:103BAC00E0E0E0936A06EDE0F3E01DC0E330A0E056
:103BBC00FA0731F4E0E0E0936B06E1E1F3E013C0C7
:103BCC00E430A0E0FA0731F4E0E0E0936C06E6E1C3
:103BDC00F3E009C0E530A0E0FA0749F4E0E0E09337
:103BEC006D06ECE1F3E0FA93EA930E94CA2B0E9473
:103BFC00C62BE05AF94FA0E30E94D32B3FC0A0E0A4
:103C0C000499A1E0A03039F4E0E0EC1521F4A09186
:103C1C00FB05A03009F02BC0E0910206EF5FE093AA
:103C2C000206E1E0CE2E22DF0E94772BE091020605
:103C3C000E94DA2B21F4E2E0E093290617C0E2306F
:103C4C00A0E0FA0799F4E0E0E093FC05E0930406A9
:103C5C00E5E00E94DF2BE0E0E0935F06E09367066F
:103C6C00EFEDFDE20E94E52BE093020607C0049BFA
:103C7C0003C0E1E0EC1509F001C0CC240895A0E0EC
:103C8C000399A1E0A03039F4E0E0EB1521F4A09108
:103C9C005F06A13009F049C0E1E0BE2E0E94C62BA0
:103CAC00309731F4E1E0E0936806E3E2F3E031C0F1
:103CBC00E130A0E0FA0731F4E1E0E0936906E5E2D7
:103CCC00F3E027C0E230A0E0FA0731F4E1E0E09342
:103CDC006A06E8E2F3E01DC0E330A0E0FA0731F435
:103CEC00E1E0E0936B06ECE2F3E013C0E430A0E01B
:103CFC00FA0731F4E1E0E0936C06E1E3F3E009C08C
:103D0C00E530A0E0FA0749F4E1E0E0936D06E7E363
:103D1C00F3E0FA93EA930E94CA2B0E94C62BE05A56
:103D2C00F94FA1E30E94D32B32C0A0E00399A1E08C
:103D3C00A03059F4E0E0EB1541F4A091FB05A03064
:103D4C0021F4A091FC05A13009F01AC0E091040601
:103D5C00EF5FE09304068ADEE1E0BE2EA09104063C
:103D6C00AD3010F0E0930406A0912906A93011F4AF
:103D7C00E9E001C0E8E0E09329060E94772B07C038
:103D8C00039B03C0E1E0EB1509F001C0BB240895CF
:103D9C00A0E00299A1E0A03039F4E0E0EE1521F4A6
:103DAC00A0915F06A13009F049C0E1E0EE2E0E941F
:103DBC00C62B309731F4E2E0E0936806EEE3F3E0D3
:103DCC0031C0E130A0E0FA0731F4E2E0E09369069B
:103DDC00E0E4F3E027C0E230A0E0FA0731F4E2E0DF
:103DEC00E0936A06E3E4F3E01DC0E330A0E0FA07D9
:103DFC0031F4E2E0E0936B06E7E4F3E013C0E43067
:103E0C00A0E0FA0731F4E2E0E0936C06ECE4F3E0B6
:103E1C0009C0E530A0E0FA0749F4E2E0E0936D0652
:103E2C00E2E5F3E0FA93EA930E94CA2B0E94C62BB8
:103E3C00E05AF94FA2E30E94D32B35C0A0E00299BF
:103E4C00A1E0A03059F4E0E0EE1541F4A091FB059F
:103E5C00A03021F4A091FC05A13009F01DC0E09127
:103E6C000406E150E093040601DEE1E0EE2EA091A1
:103E7C000406A13010F0AD3018F0ECE0E09304062D
:103E8C00A0912906A93011F4E9E001C0E8E0E09323
:103E9C0029060E94772B07C0029B03C0E1E0EE15B8
:103EAC0009F001C0EE240895A0E00199A1E0A03032
:103EBC0039F4E0E0ED1521F4A0915F06A13009F092
:103ECC0049C0E1E0DE2E0E94C62B309731F4E3E0CE
:103EDC00E0936806E9E5F3E031C0E130A0E0FA07D1
:103EEC0031F4E3E0E0936906EBE5F3E027C0E23060
:103EFC00A0E0FA0731F4E3E0E0936A06EEE5F3E0C4
:103F0C001DC0E330A0E0FA0731F4E3E0E0936B0668
:103F1C00E2E6F3E013C0E430A0E0FA0731F4E3E0AA
:103F2C00E0936C06E7E6F3E009C0E530A0E0FA07A1
:103F3C0049F4E3E0E0936D06EDE6F3E0FA93EA93DF
:103F4C000E94CA2B0E94C62BE05AF94FA3E30E9491
:103F5C00D32B58C0A0E00199A1E0A03039F4E0E0E7
:103F6C00ED1521F4A091FC05A13009F044C0D394C7
:103F7C00E0910306EF5FE093030678DDE8ECF0E0F8
:103F8C000E94ED2BE09103060E94DA2B01F5E091E3
:103F9C000406E030B1F0E1E0E093FB05E4E0E093EF
:103FAC002906E5E4FEE2FA93EA93E0910406FF2782
:103FBC00662777270E94032E84E00E946D2A26969E
:103FCC0005C0E0910306E150E093030613C0E23014
:103FDC00A0E0FA0779F4E0E0E093FB05EAE5FEE205
:103FEC000E94E52BE0930406E3E0E0932906E0E071
:103FFC00E093030607C0019B03C0E1E0ED1509F057
:10400C0001C0DD240895A0E00099A1E0A03041F4A6
:10401C00A091FA05A03021F4A0915F06A13009F01F
:10402C005BC0E1E0E093FA050E94C62B309741F4A7
:10403C00E4E0E0936806E4E7F3E00E94F12B42C071
:10404C00E130A0E0FA0741F4E4E0E0936906E6E72A
:10405C00F3E00E94F12B36C0E230A0E0FA0741F405
:10406C00E4E0E0936A06E9E7F3E00E94F12B2AC052
:10407C00E330A0E0FA0741F4E4E0E0936B06EDE7EF
:10408C00F3E00E94F12B1EC0E430A0E0FA0741F4EB
:10409C00E4E0E0936C06E2E8F3E00E94F12B12C03E
:1040AC00E530A0E0FA0781F4E4E0E0936D06E8E87F
:1040BC00F3E00E94012C0E94082CE0E0EA93E1E07E
:1040CC00EA93EEEFEA9373DA0E94C62BE05AF94FAB
:1040DC00A4E30E94D32B0AC0009B04C0A091FA0554
:1040EC00A13009F003C0E0E0E093FA050895EAE896
:1040FC00FEE2FA93EA93AA81BB811A960E940D2CD8
:10410C00AE81BF811C960E940D2CAA85BB851E9684
:10411C000E940D2C8CE00E946D2A2E9622960895FA
:10412C002D978DE0A0E0B0E0E4E6FDE20E94372E92
:10413C000E94292E20E030E000E010E0083CE0E096
:10414C001E0714F00C9435240E94142CA432B1F4E4
:10415C000E941C2CA43291F40E94242CA43571F4DE
:10416C000E942C2CA83751F40E94342CA43731F423
:10417C00F8010E943C2CAC91AC3209F030C06624A2
:10418C000E94422CE0EA6E1690F4E62DF0E0BF019E
:10419C00E05BFA4F0F01D8011696FB01EA0FFB1FEB
:1041AC000E944D2CEC91D001EC9363940BC0E1E098
:1041BC005E2ED8011696E62D0E94EA2A0E944D2CFE
:1041CC00ECE2EC93D8011696E62D0E94EA2A0E94A6
:1041DC004D2CAC91AC32B1F6E7E0E09329060E948D
:1041EC00142CAB3281F40E941C2CA33461F40E9479
:1041FC00242CA33541F40E942C2CA13521F40E94CF
:10420C00342CAA3309F054C00E94422CF801369683
:10421C000E944D2C0E94522CAAE0B0E00E948B2DE3
:10422C000F01F80137960E944D2C0E94522CE00D84
:10423C00F11DE987FA87A985BA851B9724F0A98512
:10424C00BA851F970CF005C0E1E0F0E00E94562CF7
:10425C002FC0A985BA851F9724F0A985BA855297D6
:10426C000CF005C0E2E0F0E00E94562C21C0A985BC
:10427C00BA85529724F0A985BA855F970CF005C0D2
:10428C00E3E0F0E00E94562C13C0A985BA85909704
:10429C0024F0A985BA85D2970CF005C0E4E0F0E0D3
:1042AC000E94562C05C0E0E0E0930906E0930A0654
:1042BC000E94142CA23441F40E941C2CA53521F42C
:1042CC000E94242CA33509F08CC00E94422CF801CA
:1042DC0070960E944D2C0E94522CE0931B06F80104
:1042EC0071960E944D2C0E94522CE0931C06F801F2
:1042FC0072960E944D2C0E94522CE0931D06F801E0
:10430C0073960E944D2C0E94522CE0931E06A09195
:10431C001E06A13119F4EAE0E0931E06A0911B06DB
:10432C00A13130F0E0911B06F0E03797E0931B06CB
:10433C00A0911C06A13130F0E0911C06F0E03797FB
:10434C00E0931C06F80176960E944D2CAC91A1339B
:10435C0039F4F80177960E944D2CAC91A83309F0F2
:10436C0040C0E1E0E0932906A0911D06EAE0EA02D4
:10437C00F001DF01E0911E060E94EA2AE093230679
:10438C00F0932406A0911B06E0E1EA02F0013197BC
:10439C00DF01E0911C060E94732BEAE0F0E00E9422
:1043AC008B2DE0932506F0932606A0912306B09161
:1043BC002406EA0FFB1FE0932706F0932806EFE193
:1043CC00F6E0FA93EA93E0ECFEE2FA93EA93E091DA
:1043DC002706F09128060E945B2C84E00E943D2A5F
:1043EC0028960E94142CAE3481F40E941C2CA53407
:1043FC0061F40E94242CA43541F40E942C2CA93485
:10440C0021F40E94342CA03509F04EC00E94422C9D
:10441C000E94602C293CE0E03E076CF40E94662C64
:10442C00AC91AA3329F40E946B2C11F40E94742CC9
:10443C002F5F3F4FEFCF0E947B2CAC91A232A1F5A6
:10444C000E947F2C0E94522C11F50E94832C0E94FA
:10445C00522CE9F40E94872C0E94522CC1F4EF8557
:10446C00F88937960E944D2C0E94522C81F4EF85CE
:10447C00F88938960E944D2C0E94522C41F4EF85FD
:10448C00F88939960E944D2C0E94522C09F006C0D6
:10449C00E0E0E0930506E093060606C0E1E0F0E0FC
:1044AC00E0930506F09306060E94142CA43481F4C4
:1044BC000E941C2CA53461F40E94242CA63541F4D6
:1044CC000E942C2CA93421F40E94342CA43409F021
:1044DC003BC00E94422C0E94602C293CE0E03E072D
:1044EC006CF40E94662CAC91AA3329F40E946B2CBC
:1044FC0011F40E94742C2F5F3F4FEFCFEF85F8899A
:10450C0031960E944D2CAC91A232F1F40E947B2C7E
:10451C00AC91E091F505EA1789F40E947F2CAC91DF
:10452C00E091F605EA1751F40E94832CAC91E091CE
:10453C00F705EA1719F40E94872CAC91E1E0F0E042
:10454C00E0932D06F0932E060E94142CA73481F4D0
:10455C000E941C2CA03561F40E94242CA23541F43D
:10456C000E942C2CAD3421F40E94342CA33409F07D
:10457C0073C10E94422C0E94602C293CE0E03E0753
:10458C000CF50E94662CAC91AC32C9F40E946B2CD9
:10459C0011F40E94742CA989BA89129731F4FA018A
:1045AC00E20FF31F3196ED87FE87A989BA89199717
:1045BC0031F4FA01E20FF31F3196EB87FC872F5F82
:1045CC003F4FDBCFEF85F88931960F010E944D2CC0
:1045DC000E94522CFF233AF03A972CF4AD85BE85FD
:1045EC000A161B0609F47BC0EF85F88936960E94E3
:1045FC004D2C0E94522CE887A885A03010F0AA30D0
:10460C0008F003C0E885E09353060E94872C0E94B3
:10461C00522CE887A885A03010F0AA3008F003C00F
:10462C00E885E09354060E94832C0E94522CE88764
:10463C00A885A03010F0AA3008F003C0E885E093FC
:10464C0055060E947F2C0E94522CE887A885A0302A
:10465C0010F0AA3008F003C0E885E09356060E94DB
:10466C007B2C0E94522CE887A885A03010F0AA3031
:10467C0008F003C0E885E0935706EF85F88931967A
:10468C000E944D2C0E94522CE887A885A03010F077
:10469C00AA3008F003C0E885E093580660915306F1
:1046AC007727E09154060E948A2CE0934F06F093F2
:1046BC005006609155067727E09156060E948A2C89
:1046CC00E0934D06F0934E06609157067727E091E4
:1046DC0058060E948A2CE0934B06F0934C06ED850D
:1046EC00FE8531960E944D2CEC91F0E0E09307068C
:1046FC00F0930806EB85FC8531960E944D2C0E94A8
:10470C00522CFF2312F03A970CF0A6C0EB85FC85D7
:10471C0031960E944D2C0E94522CE0935A06EB8548
:10472C00FC8532960E944D2C0E94522CE093590627
:10473C00EB85FC8533960E944D2C0E94522CE09305
:10474C005C06EB85FC8534960E944D2C0E94522C05
:10475C00E0935B06EB85FC850E943C2C0E94522C5E
:10476C00E0935E06EB85FC8536960E944D2C0E94EC
:10477C00522CE0935D06609159067727E0915A061A
:10478C000E948A2CE0934106F093420660915B06EE
:10479C007727E0915C060E948A2CE0934306F09305
:1047AC00440660915D067727E0915E060E948A2C94
:1047BC00E0934906F0934A06E0914906F0914A06C7
:1047CC000E947E2DE053F84F6F4F7F4FE0934506CC
:1047DC00F09346066093470670934806E1E4F6E0D2
:1047EC00A2E10E94082E0E94E21B309749F0E1E4FE
:1047FC00F6E0A2E10E94082E0E94C41B309709F437
:10480C002BC00E94902C44D8309741F0E1E4F6E0A4
:10481C00AFE2B6E082E10E94172E1EC0E4ECFEE28D
:10482C000E94952CEAE8FEE2FA93EA93E0914B069B
:10483C00F0914C060E945B2CE0914D06F0914E06D7
:10484C000E945B2CE0914F06F09150060E945B2C6D
:10485C008CE00E946D2A2E960F5F1F4F6FCCAA24FE
:10486C008824F19A00E010E0083CE0E01E0744F4D4
:10487C00F8010E944D2CE0E0EC930F5F1F4FF4CF3A
:10488C000E94302E65960895EA93FA93EFB7EA9357
:10489C001A930A931091C0000091C600E091C000D9
:1048AC00E07811F4F19801C0F19AE12FEC7181F4E8
:1048BC00E82D8394F0E0E458FB4F0083E8ECE81516
:1048CC0009F48824A394E8ECEA1511F4AA24F09ACC
:1048DC0009911991E991EFBFF991E99118950A9213
:1048EC001A92FA926A937A938A939A93AA93BA93A6
:1048FC00EA93FA93EFB7EA93E6E0E6BDABE2B6E0F3
:10490C000E94C72AA0912B06B0912C069B9711F000
:10491C000C94EF24E0E0E0932B06E0932C06ADE33F
:10492C00B6E00E94C72A3197ADEFB5E00E94C72AC6
:10493C000E949C2C1A9721F4E5EEFEE20E94952C25
:10494C000E949C2C1F9721F4E3EFFEE20E94952C11
:10495C000E949C2C549721F4ECEFFEE20E94952CC3
:10496C000E949C2C159721F4EAE0FFE20E94952C02
:10497C000E949C2CDC976CF10E94A12CABE3B6E05E
:10498C000E94C72AA0913B06B0913C06DC970CF123
:10499C000E94A82CA9E3B6E00E94C72AA091390670
:1049AC00B0913A06589751F4A0913B06B0913C0651
:1049BC00109721F40E949C2C109709F00AC0E0E09B
:1049CC00F0E0E0933906F0933A060E94A82C0E947E
:1049DC00A12CE991EFBFF991E991B991A991999124
:1049EC00899179916991F990199009901895EA93A8
:1049FC00EFB7EA93E0912A06EF5FE0932A06E9917C
:104A0C00EFBFE99118950CE714E02FE236E040E097
:104A1C0050E0E0E8E0936100E0E0E0936100EFEF4C
:104A2C00E7B9E2B9E0EFE1B9E0E0E5B9EFEFE4B9FD
:104A3C00E0E0EBB9E0EFEAB9E0E0E093C000E8E9D0
:104A4C00E093C100E6E0E093C200E0E0E093C50033
:104A5C00E5E0E093C400E0E0E4BDE5E0E5BDE0E0C6
:104A6C00E6BDE7BDE8BDE1E0E0936E00E0E0E09379
:104A7C008000E5E0E0938100E0E0E0938500E093C6
:104A8C008400E0938700E0938600E0938900E09334
:104A9C008800E0938B00E0938A00E1E0E0936F00E4
:104AAC00E1E0F0E0E0933906F0933A06E2E0F0E062
:104ABC00E0933B06F0933C06E3E0F0E0E0933D0628
:104ACC00F0933E063A932A9312DB0E940B19EAE00C
:104ADC00F0E00E94ED2B0E946C190E94AF2CE0EFCD
:104AEC00F9E00E94B12B0E94AB2A0E94B32C0E94C9
:104AFC00B82C0E94BE2C0E946C19E0EFFDE00E94C5
:104B0C00B12B0E94AB2AEDE2F0E00E94C12CE0EF49
:104B1C00F5E0FA93EA93E7E3F0E00E94C42CEFE8A7
:104B2C00F3E0FA93EA93EBE3F0E00E94D22CE8E98D
:104B3C00F3E0FA93EA93E8E2F0E00E94D92C0E94A9
:104B4C00DE2C0E94BE2C0E946C19E0E0E093530610
:104B5C00E0935406E0935506E0935606E09357060F
:104B6C00E0935806E0935906E0935A06E0935B06EF
:104B7C00E0935C06E0935D06E0935E0640E050E057
:104B8C00403AE0E05E072CF40E94E12C4F5F5F4F4F
:104B9C00F7CF7894E0EFF1E10E94B12B0E94E82C62
:104BAC00E9E1F0E00E94C12CE5EEFEE20E94952CBA
:104BBC0086E695E00197F1F71A930A93B1DACC24C3
:104BCC00BB24EE24E0E0E0930406E1E0F0E0E093A7
:104BDC002D06F0932E06F19904C01A930A93A0DACD
:104BEC00F19AE0910406E03011F4E0E203C0E091A8
:104BFC000406E05C9E2EA091FD05B091FE05A43B41
:104C0C00E0E0BE074CF0E4EBF0E0E093FD05F09340
:104C1C00FE05E0E0E0930006A0910006A13041F40F
:104C2C00E0E0E0930106EA930E944F190E94671D91
:104C3C000E94AF1D0E94451EABD836D9E4D9A09175
:104C4C002D06B0912E06119711F00C949C28A09172
:104C5C006706A63011F00C947A26E0E0E0935F062C
:104C6C00E7E0E09367060E94F81C3097E9F0E0E378
:104C7C00FFE20E94952C0E94ED2CECEDF5E00E94D9
:104C8C00ED2BE1E0EA930E944F190E94F12C0E9457
:104C9C00FA2CE1E0E093FC05E09304060E94431D2E
:104CAC00E8E0E093290620C00E94ED2CE2EAF3E054
:104CBC00FA93EA930E94CA2BE4EFF1E00E94ED2BE9
:104CCC00E3E0EA930E944F190E94ED2C0E94FA2C0B
:104CDC00E0E0E093FC05E2E00E94DF2BE1E0E093F2
:104CEC005F06E0E0E0936706A0910506B09106062A
:104CFC00119721F4A0910006A13009F002C0E5E45F
:104D0C000CC0A0910506B0910606109721F4A09155
:104D1C000006A13009F009C0E0E8EA93E5E1F0E013
:104D2C000E94B12BE1E00E94FE2CA0910706B091ED
:104D3C000806A134E0E0BE0721F4A0910006A130E2
:104D4C0009F003C0E0EFFDE106C0A0910006A13020
:104D5C0081F4E0EFF1E2FA93EA93EFE5F0E00E94E0
:104D6C00B12B0E94B32CE1E0F0E0FA93EA930E949D
:104D7C00971BA0910006A03021F4A0910106A03051
:104D8C0009F015C0E0E0EA930E944F19E1E0EA93C4
:104D9C000E944F19E0EBF3E0FA93EA93E6E1F0E0BE
:104DAC000E94B12B0E94BE2BE1E0E0930106E09142
:104DBC002906E03011F00C947027A091FC05A1306D
:104DCC0069F50E94032D0E940C2DEBE0F6E00E9489
:104DDC00D92C0E94C42CE3E1F6E0FA93EA93EFE6B7
:104DEC00FFE2FA93EA930E948F2B0E94882B0E9479
:104DFC007D2B0E940C2DE3E1F6E00E94012CE5E0F6
:104E0C00F0E00E94DE2CE0EFF9E10E94B12B0E9451
:104E1C00E82CE3E2F0E00E94C12C2CC0A091FC0530
:104E2C00A03021F4A091FF05A03009F023C0E1E0EF
:104E3C00E093FF050E94F12CE7E0EA930E944F19E2
:104E4C00E0EFF1E10E94B12B0E94E82CE9E1F0E0E7
:104E5C000E94C12CEDEBF3E00E94B12BE5E0F0E0F9
:104E6C00FA93EA93E0E0EA93E1E0EA93EEEFEA9357
:104E7C000E94DD1AA0910406A03021F4A091FC053B
:104E8C00A13009F00BC0E3EDF3E0FA93EA93E3E20F
:104E9C00F0E00E94D92C0E94DE2C1BC0A0910406CD
:104EAC00A03021F0A091FC05A13009F012C0ECED6E
:104EBC00F3E00E94012CE7E0F0E00E94DE2C9A92D5
:104ECC00EFE4F0E00E94D92CFA93EA93E0E00E9420
:104EDC00FE2C2BC1A0912906A13011F50E94F12CBA
:104EEC000E94FA2C0E94112DEFE1F6E0FA93EA935E
:104EFC00E0E3F0E00E94142DFA93EA93E0E0EA93E9
:104F0C00E2E0EA93E1E0EA930E94DD1A0E94AF2C02
:104F1C000E94BE2C0E94F12C0E94FA2CE0E003C1EE
:104F2C00A0912906A23099F40E94F12C0E94FA2C2F
:104F3C000E94112DE7EEF3E00E94B12B0E94192D77
:104F4C00E1E0E0935F060E94AF2CE3E6ECC0A09199
:104F5C002906A330D1F40E94F12C0E94FA2C0E9455
:104F6C00112DE9EFF3E0FA93EA93ECE1F0E00E9403
:104F7C00142D0E94DE2C0E94AF2C0E94BE2C0E948D
:104F8C00F12C0E94FA2CE0E0CEC0A0912906A430AE
:104F9C00C1F40E94F12C0E94FA2C0E94112DE2E027
:104FAC00F4E00E941C2D0E94142D0E94DE2C0E9405
:104FBC00AF2C0E94212D0E94F12C0E94FA2CE0E0D3
:104FCC00B2C0A0912906A53021F50E94F12C0E94B7
:104FDC00FA2C0E94112DEEE0F4E00E941C2DFA93A5
:104FEC00EA930E94192DE9E1F4E00E941C2DFA933A
:104FFC00EA930E94082C0E94BE2B0E94AF2C0E94A8
:10500C00212D0E94F12C0E94FA2CE0E00E94DF2B53
:10501C008CC0A0912906A630C1F40E94F12C0E94EC
:10502C00FA2C0E94112DE5E2F4E00E941C2DFA935B
:10503C00EA930E94192D0E94AF2C0E94212D0E94F0
:10504C00F12C0E94FA2CE0E06EC0A0912906A7304A
:10505C00F1F50E946C19EEE3F4E0FA93EA93EEE1B9
:10506C00F0E00E94B12B0E94BE2BE0E5F5E00E941F
:10507C00B12BE1E0F0E00E94DE2CE8EBFBE00E94BB
:10508C00ED2B049B08C0039B06C0029B04C0019B34
:10509C0002C0009901C001C0F4CF049B08C0039B5F
:1050AC0006C0029B04C0019B02C0009901C0F5CF51
:1050BC000E946C1940E050E0403AE0E05E072CF4AE
:1050CC000E94E12C4F5F5F4FF7CFE0E02CC0A09126
:1050DC002906A83079F4E7E4F4E00E941C2D0E9424
:1050EC00D22CE6E5F4E00E94012CE7E0F0E00E940F
:1050FC00DE2C18C0A0912906A930B9F40E94032D0A
:10510C000E940C2DEBE0F6E00E94D92C0E94C42CDE
:10511C009A92EFE4F0E00E94D92CFA93EA93E0E043
:10512C000E94FE2CE9E0E093290612C0E0E6F4E0D0
:10513C000E94012C0E94192DE9E6F4E0FA93EA93FF
:10514C00EFE0F0E0FA93EA930E94082C0E94BE2B49
:10515C00E0EFF5E1FA93EA93E9E6F0E0FA93EA93EB
:10516C000E94E82C0E94B32C0E94B82C34CDFFCFA7
:10517C00E091C000E072E1F3E881E093C600219673
:10518C000895EA81EA93F4DFA881B9810E94C72AC5
:10519C00239608951A930A93AA81BB8112960E94B2
:1051AC00FB2D309729F1AA81BB8114960E94FB2D0F
:1051BC008F01309761F00230E0E01E07C0F0F8017B
:1051CC0031978F01AA81BB811496ED93FC93AA8130
:1051DC00BB8112960E94C72A3197AC81A083AA8109
:1051EC00BB810E94FB2DFF2312F00E94C72A06C030
:1051FC00AA81BB81EFEFFFEFED93FC93198108813E
:10520C002596089526970E94292E10E0AC85BD8521
:10521C00E0E0F0E0ED93FC93EA89FB893196EA8BB0
:10522C00FB8B3197E4912E2FE03011F40C94352A3E
:10523C00E12FE03039F4253211F411E002C00E9464
:10524C00242D0CC1E130A9F4253219F40E94242D2F
:10525C0004C112E040E000E02D3211F401E0FEC088
:10526C002B3211F44BE2FAC0203211F440E2F6C0BA
:10527C0002C0E23039F450E013E0203311F400683E
:10528C00EDC004C0E33011F00C94342A203310F03C
:10529C002A3308F007C0AAE05A9F502DE22FE053A2
:1052AC005E0FDCC0E22FE33649F40E942D2DE88915
:1052BC00F989A481AA930E94332DCFC0E33741F41E
:1052CC000E942D2D0E943B2D0E948E2A1E2F0AC05B
:1052DC00E03761F40E942D2D0E943B2D0E94982AEC
:1052EC001E2F086002600F7730E035C0E43611F0F5
:1052FC00E93611F4046002C0E53731F4E0E4FDE274
:10530C00EE83FF8315E00DC0E83511F4086004C08E
:10531C00E83711F00C94332AEAE4FDE2EE83FF83C4
:10532C0014E002FF14C00E942D2D0E94432DAB856A
:10533C00AA233AF4EA85FB850E946B2DEA87FB874A
:10534C004DE2403011F01F5F01C00B7F04C00E9482
:10535C002D2D0E94432D00FD11C0151778F407FF69
:10536C0008C002FF04C00B7F242F115001C020E3A2
:10537C0001C020E20E94242D5150EFCF312F01FFAC
:10538C0017C03030A1F003FF06C0EE81FF812591DC
:10539C00EE83FF8305C0AE81BF812D91AE83BF83A9
:1053AC000E94242D503009F051503150EACF4BC09F
:1053BC0020E3EE81FF810E94FF2DE887F987EE81C3
:1053CC00FF813296EE83FF83E885F985AA85BB853C
:1053DC00AE17BF0750F02F5FA885B985EA85FB850E
:1053EC00EA1BFB0BEA87FB87EFCF2A3328F003FF7E
:1053FC0002C0295F01C0295D04FD1AC0213320F4CD
:10540C00A885B985119709F409C0531710F000FF4E
:10541C0001C013C020E207FF0BC020E3006102FFB4
:10542C0007C00B7F4A930E94332D503009F0515026
:10543C000E94242D503009F051503150A885B98567
:10544C00129708F0B5CF00FF08C0503031F0515022
:10545C00E0E2EA930E94332DF8CF10E0DDCEAC856C
:10546C00BD850E94FB2D0E94302E64960895FF92FC
:10547C00F82E26970E942B2E0E944B2D309719F454
:10548C00EFEFFFEF1FC0DE0116960E94672D8D0116
:10549C000E944B2DEE83FF83E0E0E887E987DE0175
:1054AC001A960E94522DE0EDF8E2FA93EA93FE016F
:1054BC003A96FA93EA93A6DE9F01AE81BF81E0E0B3
:1054CC00EC93F9010E94322E2A96FF900895FF92D8
:1054DC00F82E26971A930A93DE0114960E94672DD4
:1054EC008D01E0E0EC83ED83EE83EF83DE01189613
:1054FC000E94522DE7ECF8E2FA93EA93FE013896FB
:10550C00FA93EA937FDE198108812896FF9008951B
:10551C00A991B991EE27FF276D91662311F0319671
:10552C00FBCF0895AA27BB27E991F991059000209C
:10553C0011F01196FBCFFD010895FA93EA930C94A8
:10554C001319FA93EA930C942F19E0E0F0E0FA9314
:10555C00EA930895EC81F0E0FA93EA930C943A19EB
:10556C00E12FF0E00895AE81BF81EE27A10FBE1FA1
:10557C00EC910895FE01E95BFF4F0190F081E02D65
:10558C000895ED91FD913196FE93EE930895EE8181
:10559C00F0E00895E0917704F0917804E15CF0403C
:1055AC00A6E0B0E00E94832DE458F74F0895E15C2B
:1055BC00F040A6E0B0E00E94832DE458F74F089528
:1055CC00F0E0FA93EA930895F0E0EA0FFB1F0895D8
:1055DC00FA93EA93EE81FF810895FA93EA93EE81B0
:1055EC00EA930C94C519E985FA85FA93EA930E941B
:1055FC008E2AA12FB0E0AE17BF070895A985BA85F2
:10560C00AE0FBF1F0895E885F985FA93EA930895C4
:10561C00EA93E985EA930C94571AEA81F0E0E7FDE6
:10562C00FFEF3896DF01EB81F0E00E948B2D08959F
:10563C00EB81A8E0EA02F0010895EB81F0E0AD8186
:10564C00BE81EA0FFB1FED83FE830895A985BA8501
:10565C00EA0FFB1FA1810895EC81A8E0EA02F0019A
:10566C00A885B985AE1BBF0BBA93AA93CCCFAE1B42
:10567C00BF0BAF83B8870895AC81BD818E819F81AC
:10568C000895E4E0F0E060E070E00E94D92D0E9403
:10569C00212E0895F1DFE4E6F0E060E070E00E9476
:1056AC00D92D0E94212E0895E7DFE0E9F1E060E0BA
:1056BC0070E00E94D92D0E94212E0895A2E0EA02EA
:1056CC00F001DF01EAE0F0E00E94CB2D0895E091BB
:1056DC006C06F0E0AE0FBF1F0895F0E0AE0FBF1FD9
:1056EC000895E4E6F0E0FA93EA930C945B2D0E94A3
:1056FC00032EE0912F06F09130060E947E2D0E9421
:10570C00032E0895E0913106F09132060E947E2D11
:10571C000895E0913706F09138060E947E2D0E9484
:10572C00032E0895E0913906F0913A060E947E2DE1
:10573C000E94032EE0913B06F0913C060E947E2DC8
:10574C000E94032EE0913D06F0913E060E947E2DB4
:10575C000E94032E0895FA93EA93F7CEE4E1F0E069
:10576C00FA93EA93E1E0F0E0FA93EA930C94971B36
:10577C00E0E0EA93E1E0EA93EFEFEA930C94DD1AB0
:10578C00E0916706F0E00895EEE1F0E0FA93EA9319
:10579C00E4E0F0E0FA93EA93EBCFA083E0916706A4
:1057AC00EF5FE09367060895F0E0E130A0E0FA07C0
:1057BC000895E0932906E0E0E093FF050895FA933D
:1057CC00EA9380E00E946D2A2296E0E00895FA9315
:1057DC00EA930C945B2DFA93EA93EEE1F0E0FA93E2
:1057EC00EA93E4E0F0E0FA93EA93E0E0EA93E1E094
:1057FC00EA93EFEF0895FA93EA93EEE1F0E0FA936F
:10580C00EA930895E4E0F0E0FA93EA9308950E9495
:10581C00FB2D0E947E2D0E94032E0895F8013096D8
:10582C00AB89BC89AE0FBF1FAC910895F8013196BE
:10583C00AB89BC89AE0FBF1FAC910895F8013296AD
:10584C00AB89BC89AE0FBF1FAC910895F80133969C
:10585C00AB89BC89AE0FBF1FAC910895F80134968B
:10586C00AB89BC89AE0FBF1FAC9108953596AB893F
:10587C00BC89AE0FBF1F0895E1E0E0930006E0E0A5
:10588C00E093FD05E093FE05E0932A060895AB89AD
:10589C00BC89AE0FBF1F0895EC91F0E0F09708950E
:1058AC00E0930906F0930A0608950E947E2D0E944B
:1058BC00032E0895F8013496AF0120E030E00895EE
:1058CC00F901E40FF51F3196E2CFE989FA89319697
:1058DC00E98BFA8BA989BA8911970895FA01E20F1D
:1058EC00F31F3196EF87F88B0895EF85F889329680
:1058FC00CECFEF85F8893396CACFEF85F8893496E9
:10590C00C6CFEF85F889B2CFAAE0EA02F001E60F24
:10591C00F71F0895EE81FF81FA93EA930895FA93A5
:10592C00EA9380E00E946D2A22960895A0913D068C
:10593C00B0913E060895E0E0F0E0E0933D06F09370
:10594C003E060895E0E0F0E0E0933B06F0933C0661
:10595C0008950E943C1D0C943C1DEFE7F0E0FA9377
:10596C00EA930895E7E0F0E0FA93EA930C94971B1E
:10597C00E0EDF7E02CCFFA93EA93F4CFFA93EA93A5
:10598C00E2E0F0E0FA93EA93E0E0EA93E2E0EA93F3
:10599C00EFEFEA930C94DD1AFA93EA93E5E0F0E06A
:1059AC00FA93EA93E5CEFA93EA93E7E0F0E00895F0
:1059BC00FA93EA93DDCEA0E5B5E0A40FB51FE0E0C5
:1059CC00EC930895E6E0F0E0FA93EA930895E4E0AE
:1059DC00EA930C944F19E2E0EA930E944F19E3E02A
:1059EC00EA930E944F19F3CFE5E0EA930C944F1918
:1059FC00EA93E1E0EA930C94571AEBE0F6E0FA93A1
:105A0C00EA93E0E6FFE2FA93EA938CCE8CE00E94F4
:105A1C003D2A60960895E1E0F0E0D9CEFA93EA933E
:105A2C00E3E0F0E00895E2E0F0E0C2CFFA93EA930D
:105A3C00E4E1F0E00895E8EEF3E0C9CE2A93ED85B9
:105A4C00FE85FA93EA93E989FA8909950895E8891C
:105A5C00F9893497E88BF98B0895ED85FE85FA93D7
:105A6C00EA93E989FA8909950895A889B989149660
:105A7C000E94FB2DEE83FF834DCFA889B989149624
:105A8C000E94FB2DEA87FB870895DE011C960E947D
:105A9C00672D0E94FB2D08950E94672D0E94FB2DFF
:105AAC00FA93EA931A930A930895E991F99130962F
:105ABC0039F08DEC9AE00197F1F7A8953197C9F779
:105ACC0008950024AF0DB01D0895F195E195F040B7
:105ADC000895F09560957095E195FF4F6F4F7F4F4E
:105AEC000895EE0FFF1FEE0FFF1FEE0FFF1F08951F
:105AFC006F2F660F660B762F0895FA9FF02DEB9F94
:105B0C00F00DEA9FE02DF10D089561D0F6DF0EF453
:105B1C00DCDF08950024112490E1AA0FBB1F001CA8
:105B2C00111C0E1A1F0A18F40E0E1F1E01C0A160C4
:105B3C009A9599F7FD01D00108953F934F935F9388
:105B4C00002411244427552730E2AA0FBB1F881FBD
:105B5C00991F001C111C441F551F0E1A1F0A460BBF
:105B6C00570B28F40E0E1F1E461F571F01C0A160B5
:105B7C003A9559F7FD01BC01D001CA015F914F91D3
:105B8C003F910895C7DFFD010895E894B7FF04C065
:105B9C00A095B09511966894F7FD97DFBBDFFD01DA
:105BAC000EF493DF0895E89497FF09C0A095B09583
:105BBC0080959095AF5FBF4F8F4F9F4F689477FD47
:105BCC0088DFBBDFFD01BC010EF483DF0895E89490
:105BDC00F7FF02C07ADF6894B7FF06C0A095B095B6
:105BEC00119600F8039400FA0895ED91FC91119729
:105BFC0008950590F491E02D08957A936A93FA93A1
:105C0C00EA930895BB27EA0FFB1F02900A921197A3
:105C1C00E1F708951B2EBF2FF12D1A2EAE2FE12D7B
:105C2C0008959927EF93FF9361916D930197E1F795
:105C3C00FF91EF91089530976040704008950024D3
:105C4C000A160B0608955A934A933A932A931A9379
:105C5C000A9308955D814C813B812A8119810881C9
:105C6C000895AC0FBD1F05900D928A95E1F708952C
:00000001FF
