:040000000C944F17F6
:100004000C9400000C9400000C9400000C9400006C
:100014000C9400000C9400000C9400000C9400005C
:100024000C9400000C9400000C9400000C9400004C
:100034000C9400000C9400000C9400000C9400003C
:100044000C9400000C94751A0C9400000C944A1A39
:100054000C9400000C9400000C9400000C9400001C
:100064000C9400000C9400000C9400000C9400000C
:100074000C9400000C94000000000000000000003C
:10008400000000000000000000000000000000006C
:10009400000000000000000000000000000000005C
:1000A400000000000000000000000000000000004C
:1000B400000000000000000000000000000000003C
:1000C400000000000000000000000000000000002C
:1000D400000000000000000000000000000000001C
:1000E400000000000000000000000000000000000C
:1000F40000000000000000000000000000000000FC
:1001040000000000000000000000000000000000EB
:1001140000000000000000000000000000000000DB
:1001240000000000000000000000000000000000CB
:1001340000000000000000000000000000000000BB
:1001440000000000000000000000000000000000AB
:10015400000000000000000000000000000000009B
:10016400000000000000000000000000000000008B
:10017400000000000000000000000000000000007B
:1001840000004F000000000000070007000000000E
:100194000024FF24FF24000000444AFF4A320000E8
:1001A40040231308C4C20000003649552240800091
:1001B4000000050300000000003C42810000000034
:1001C4000081423C000000000014083E08140000B6
:1001D4000010107C1010000000002818000000001F
:1001E400000808080808080000606000000000001B
:1001F4004020100804020000007EFF8181FF7E0081
:10020400008082FEFF80800000E2F191919F8E00C9
:100214000062C3C9C9FF760000181412FFFF100062
:10022400006F8F8989F97100007EFF8989F9720056
:10023400000101F1FD0703000076FF8989FF7600C4
:1002440000468F8989FF7E0000006666000000007A
:10025400000056360000000000081422410000008F
:100264000024242424240000000041221408000057
:10027400000201B109060000006291F1817E0000D4
:1002840000FE111111FE000000FF8989897600002B
:10029400007E81818142000000FF8181423C000098
:1002A40000FF89898981000000FF09090901000014
:1002B400007E81919172000000FF101010FF000079
:1002C400000081FF81000000004080817F01000068
:1002D40000FF18244281000000FF8080808000001D
:1002E40000FF020C02FF000000FF040810FF0000E2
:1002F400007E8181817E000000FF1111110E00003B
:100304007E81A141BE00000000FF1131518E00002A
:100314000086898989710000000101FF0101000044
:10032400007F8080807F0000003F4080403F0000CD
:10033400003FC060C03F000000E3140814E3000065
:10034400000708F00807000000C1A1918987000098
:1003540000FF8181000000000015167C16150000C6
:100364000041417F0000000000040201020400007B
:100374000040404040400000000102040000000032
:10038400006094949478000000FF888888700000CE
:10039400007884848400000000788484887F0000CE
:1003A40000789494945800000010FE11010200009B
:1003B400000C9292927E000000FF100808F00000EA
:1003C400000084FD80000000006080807D0000004B
:1003D40000FF304884000000000081FF800000001E
:1003E40000FC043804F8000000FC080404F80000D1
:1003F400007884848478000000FC1414140800003D
:100404000008141418FC000000FC08040408000090
:10041400008894949460000000047F84804000006D
:10042400007C808040FC0000003C4080403C000098
:10043400003EC060C03E0000004224182442000078
:1004440000068888887E000000C4A4948C84000080
:100454000008768100000000000000FF000000009A
:1004640000817608000000000008082A1C0800002B
:1004740000081C2A08080000007C8281827C00009D
:100484000000000000000000000000000000000068
:100494000000000000000000000000000000000058
:1004A4000000000000000000000000000000000048
:1004B4000000000000000000000000000000000038
:100874000000000000000000C1C1C1C10000C2C2EC
:10088400FEFE0100C3C31F1F0100C4C4FCFC010021
:10089400C5C5C5C50101C6BDBFBE0101C7C7C0C02E
:1008A4000100C88284830101C9C9FDFD0100CA8514
:1008B40087860101CB888A890101CC8BCC8B01010D
:1008C400CD8CCD8C0101CE11CE110101CFCF1313EC
:1008D4000100D0D08F8F0100D1D11B1B0100D2D2D7
:1008E40091910100D39294930101D49597960101BB
:1008F400D5179A990101D69B9D9C0101D7D7D7D7CB
:100904000000D8D89E9E0101D9D99F9F0101DAA089
:10091400A2A10101DBA3A5A40101DCDCDCDC000055
:10092400DDA6A8A70101DEA9ABAA0101DFACAEAD2B
:100934000101E0E0E0E00000E1AFB1B00101E2E27A
:10094400E2E20000E3B2B4B30101E4B5B7B60101D9
:10095400E5B8BAB90101E6E6BCBC0100E7E7E7E7A0
:100964000000E8E8E8E80000E9E9E9E90000EAEA6B
:10097400EAEA0000EBEBEBEB0000ECBDBFBE0101CB
:10098400EDBDBFBE0101EEEEEEEE0000EFEFEFEFC6
:100994000000F0F0F0F00000F1F1F1F10000F2F2EB
:1009A400F2F20000F3F3F3F30000F5F5F5F50000BF
:1009B400F6F6F6F60000F7F7F7F70000F8F8F8F89F
:1009C4000000FBF9FBFA0101BBBBF4F40100811C3C
:1009D4001E1D010190181A19010198141615010120
:1009E4008E8E121201008D108D10010100C0F030A6
:1009F400381818181898B0B03030306060606060F3
:100A040060C0C0C0C0C0C0C08080808080000000C2
:100A140000000000000000000000000000000000D2
:100A240000000000000000000000000000000000C2
:100A340000000000000000000000000000000000B2
:100A440000000000000000000000000000000000A2
:100A54000000000000000000000000000000000092
:100A640000000000000000000000000000FFFF0084
:100A7400000C18F0E70FFD0F070000000000000055
:100A8400000000000000000001010181838383C392
:100A9400E767E6C6060E0C0C0C0C0C1818187870D8
:100AA400E0C00000000000E0E0000000000080C0A2
:100AB400E06000E0E0606060606060E0C000000052
:100AC40080C06060C080000000E0E0606060606042
:100AD40060C08000000080C06060C0800000000032
:100AE40080C06060606060C08000000000FFFF00A4
:100AF400000000FFFF00FF000000000000000000F5
:100B040000000080C06030188CC6633118080809E2
:100B14000B0B0B090808080808081C3E363E1C008D
:100B2400FFFF0000000000FFFF70F88C8E07030138
:100B3400000000FFFFE0E0E06060607F3F00FEFF38
:100B4400616060606061FFFE00FFFF000000000064
:100B540000FFFF00FEFF616060606061FFFE00FF58
:100B6400FF000000000000000100000000FFFF0083
:100B7400000000FFFF003F3030303030303030189C
:100B84000CC6E331180C060301000000000000004D
:100B94000000000000000000000000000000000051
:100BA400FFFF00000000003F3F00000103070E1C90
:100BB4003830003F3F00000103070E3C38003F3F40
:100BC4000000000000003F3F003F3F303030303035
:100BD400301F0F003F3F0000000000003F3F000FA8
:100BE4001F303030303030381800000000FFFF0074
:100BF400000000FFFF00FF030303030303030306D6
:100C04000C193366CC983060C080000000000000EE
:100C140000000000000000000000000000000000D0
:100C2400FFFF0000000000000000000000000000C2
:100C340000000000000000000000000000000000B0
:100C440000000000000000000000000000000000A0
:100C54000000000000000000000000000000000090
:100C640000000000000000000000000000FFFF0082
:100C7400000000FFFF00FF00000000000000000073
:100C840000000000000103060C193366444444E4E8
:100C9400F4B4F4E40404040404040E1F1B1F0E0043
:100CA400FFFF000000FC0000000000F8040404F84A
:100CB400000C040404FC00F0888488F00080808028
:100CC40000FC8484040400F80404040800FC00000C
:100CD40000FC00F0888488F000FC040404F800F8A8
:100CE400040404F800FC44C44438000000FFFF007E
:100CF400000603011C3E373E1C000000000000807B
:100D0400808080C0C0C0C0C0E060606030303030DF
:100D140031391918181C0C0C0C0C0E0606060703A6
:100D240001000000000F0808080800070808080769
:100D3400000608080807000F0000000F000000006C
:100D4400000F080808080007080808040007080836
:100D54000807000F0000000F000F0808080700072D
:100D640008080807000F0000010E00000001070634
:100D74000E0C0C0C0C0C06060606030303030301FD
:100D8400010101010000000000000000000000005B
:100D9400000000000000000000000000000000004F
:100DA400000000000000000000000000000000003F
:100DB400000000000000000000000000000000002F
:100DC400000000000000000000000000000000001F
:100DD400000000000000000000000000000000000F
:100DE40000000000000000000000000000000000FF
:100DF40000000000000000000000000000000000EF
:100E040000000000000000000000000000000000DE
:100E140000000000000000000000000000000000CE
:100E240000000000000000000000000000000000BE
:100E340000000000000000000000000000000000AE
:100E4400000000000000000000000000000000009E
:100E5400000000000000000000000000000000008E
:100E6400000000000000000000000000000000007E
:100E740000C0E0F0F0F8F8F8F8F8FCFCFCFCFCFC2E
:100E8400FCFCFCFCFCFCFCFCFCFCFCFCFCFCF8F8A6
:100E9400F8F8F8F0E0E0C0000000000000000000F6
:100EA400000000000000000000000000000000003E
:100EB400000000000000000000000000000000002E
:100EC400000000000000000000000000000000001E
:100ED400000000000000000000000000000000000E
:100EE40000000000000000000000000000000000FE
:100EF400FEFFFF03010303030303030303030303CD
:100F0400030303FFFF0303010303030303030303B7
:100F1400030303030307FFFE0000000000000000BA
:100F240000000000000000000000000000000000BD
:100F340000000000000000000000000000000000AD
:100F4400000000000000000000000000000000009D
:100F5400000000000000000000000000000000008D
:100F6400000000000000000000000000000000007D
:100F7400FFFFFFC0C0C0C0C0C0C0C0C0C0C0C0C0B0
:100F8400C0C0E0FFFFE0C0C0C0E0D0C8C4C4C4C457
:100F9400C8D0E0C0E0F0FFFF000000000000000047
:100FA400000000000000000000000000000000003D
:100FB400000000000000000000000000000000002D
:100FC400000000000000000000000000000000001D
:100FD400000000000000000000000000000000000D
:100FE40000000000000000000000000000000000FD
:100FF400FFFFFFFFFFFFFFFFFFFFFFFFFFFFFFFFFD
:10100400FFFFFFFFFFFFFFFFFFFFFFFFFFFFFFFFEC
:10101400FFFFFFFFFFFFFFFF0000000000000000D4
:1010240000000000000000000000000000000000BC
:1010340000000000000000000000000000000000AC
:10104400000000000000000000000000000000009C
:10105400000000000000000000000000000000008C
:10106400000000000000000000000000000000007C
:101074003FFFFFE1E1E1E1FFFFFFF9D9D9D9D9D978
:10108400D9D9D9D9D9D9D9D9D9D9D9D9C9FBFFFF6E
:10109400FFE1E1C1E1F7FF3F0000000000000000B4
:1010A400000000000000000000000000000000003C
:1010B400000000000000000000000000000000002C
:1010C400000000000000000000000000000000001C
:1010D400000000000000000000000000000000000C
:1010E40000000000000000000000000000000000FC
:1010F40000001F3F3F3F3F3F3F0000000000000053
:1011040000000000000000000000000000001F3F7D
:101114003F3F3F3F3F1F0000000000000000000071
:1011240000000000000000000000000000000000BB
:1011340000000000000000000000000000000000AB
:10114400000000000000000000000000000000009B
:10115400000000000000000000000000000000008B
:1014F40000F884C202020202FE020202C2FE0202DA
:101504000202C4F800000000000000000000000017
:1015140000000000000000000000000000000000C7
:1015240000000000000000000000000000000000B7
:1015340000000000000000000000000000000000A7
:101544000000000000000000000000000000000097
:101554000000000000000000000000000000000087
:101564000000000000000000000000000000001E59
:101574001F7FFFFD7C1C1C1C1F1C1C1C1F1F7CFCD4
:10158400FC7C1F0F000000000000000000000000B1
:101594000000000000000000000000000000000047
:1015A4000000000000000000000000000000000037
:1015B4000000000000000000000000000000000027
:1015C4000000000000000000000000000000000017
:1019540000000000000000000038FC020202020245
:10196400060606BAFABA0202FC38000000000000BB
:101974000000000000000000000000000000000063
:101984000000000000000000000000000000000053
:101994000000000000000000000000000000000043
:1019A4000000000000000000000000000000000033
:1019B4000000000000000000000000000000000023
:1019C4000000000000000000000000000000000013
:1019D400000000000000000000003F3EFEF2F23E66
:1019E4003E3E3F3FF3F3FF3E3F0000000000000097
:1019F40000000000000000000000000000000000E3
:101A040000000000000000000000000000000000D2
:101A140000000000000000000000000000000000C2
:101A240000000000000000000000000000000000B2
:101CF40000F884C282DAFAE2FE020202C2FE0202A2
:101D04000202C4F80000000000000000000000000F
:101D140000000000000000000000000000000000BF
:101D240000000000000000000000000000000000AF
:101D3400000000000000000000000000000000009F
:101D4400000000000000000000000000000000008F
:101D5400000000000000000000000000000000007F
:101D64000000000000000000000000000000001E51
:101D74001F7FFFFD7C1F1F1F1F1C1C1C1F1F7CFCC3
:101D8400FC7C1F0F000000000000000000000000A9
:101D9400000000000000000000000000000000003F
:101DA400000000000000000000000000000000002F
:101DB400000000000000000000000000000000001F
:101DC400000000000000000000000000000000000F
:101DD40000000000000000000000000000000000FF
:101DE40000000000000000000000000000000000EF
:101DF40000000000000000000000000000000000DF
:101E040000000000000000000000000000000000CE
:101E140000000000000000000000000000000000BE
:101E240000000000000000000000000000000000AE
:101E3400000000000000000000000000000000009E
:101E4400000000000000000000000000E01090907E
:101E54008000F0909090600060909010000000006E
:101E64002070F8702000807800FC00000000000062
:101E7400000000000000000000000000000000005E
:101E8400000000000000000000000000000000004E
:101E9400000000000000000000000000000000003E
:101EA400000000000000000000000000000000002E
:101EB400000000000000000000000000000000001E
:101EC40000000000000000000000000003040404FF
:101ED40003000700000000000404040300000010D5
:101EE400141414141209040A351808000000000020
:101EF40000000000000000000000000000000000DE
:101F040000000000000000000000000000000000CD
:101F140000000000000000000000000000000000BD
:101F240000000000000000000000000000000000AD
:10224400000000000000000000000000E01090907A
:102254008000F0909090600060909010000000006A
:10226400000000000000807800FC00000000000076
:10227400000000000000000000000000000000005A
:10228400000000000000000000000000000000004A
:10229400000000000000000000000000000000003A
:1022A400000000000000000000000000000000002A
:1022B400000000000000000000000000000000001A
:1022C40000000000000000000000000003040404FB
:1022D40003000700000000000404040300000010D1
:1022E400141414141209040A35180800000000001C
:1022F40000000000000000000000000000000000DA
:1023040000000000000000000000000000000000C9
:1023140000000000000000000000000000000000B9
:1023240000000000000000000000000000000000A9
:1025F400000000808000E0E000F8F800FEFE00002B
:1026040000000000000000000000000000000000C6
:1026140000000000000000000000000000000000B6
:1026240000000000000000000000000000000000A6
:102634000000000000000000000000000000000096
:102644000000000000000000000000000000000086
:102654000000000000000000000000000000000076
:10266400000000000000000000000000000606005A
:102674000707000707000707000707000707000010
:102684000000000000000000000000000000000046
:102694000000000000000000000000000000000036
:1026A4000000000000000000000000000000000026
:1026B4000000000000000000000000000000000016
:1029F400000000808000E0E0000000000000000013
:102A040000000000000000000000000000000000C2
:102A140000000000000000000000000000000000B2
:102A240000000000000000000000000000000000A2
:102A34000000000000000000000000000000000092
:102A44000000000000000000000000000000000082
:102A54000000000000000000000000000000000072
:102A64000000000000000000000000000006060056
:102A74000707000707000707000000000000000028
:102A84000000000000000000000000000000000042
:102A94000000000000000000000000000000000032
:102AA4000000000000000000000000000000000022
:102AB4000000000000000000000000000000000012
:102AC4000000000000000000000000000000000002
:102AD40000000000000000000000000000000000F2
:102AE40000000000000000000000000000000000E2
:102AF40000000000000000000000000000000000D2
:102B040000000000000000000000000000000000C1
:102B140000000000000000000000000000000000B1
:102B240000000000000000000000000000000000A1
:102B34000000000000000000000000000000000091
:102B44000000000000000000000000000000000081
:102B54000000000000000000000000000000000071
:102B64000000000000000000000000000000000061
:102B74000000000000000000000000000000000051
:102B84000000000000000000000000000000000041
:102B94000000000000000000000000000006060025
:102BA4000707000000000000000000000000000013
:102BB4000000000000000000000000000000000011
:102BC4000000000000000000000000000000000001
:102BD40000000000000000000000000000000000F1
:102BE40000000000000000000000000000000000E1
:102BF40000000000000000000000000000000000D1
:102C040000000000000000000000000000000000C0
:102C140000000000000000000000000000000000B0
:102C240000000000000000000000000000000000A0
:102C34000000000000000000000000000000000090
:102C44000000000000000000000000000000000080
:102C54000000000000000000000000000000000070
:102C64000000000000000000000000000000000060
:102C74000000000000000000000000000000000050
:102C84000000000000000000000000000000000040
:102C94000000000000000000000000000000000030
:102CA4000000000000000000000000000000000020
:102CB4000000000000000000000000000000000010
:102CC40000000000000000000000000000060600F4
:102CD40004040404040404040404040404040000B8
:102CE40000000000000000000000000000000000E0
:102CF40000000000000000000000000000000000D0
:102D040000000000000000000000000000000000BF
:102D140000000000000000000000000000000000AF
:102D2400000000000000000000000000000000009F
:102D34000000000000000000000000001027E8036D
:102D440064000A0001000010000110000100C1002D
:102D54005349545531363937200000200000000013
:102D64000000415424545444455649443F0A0D003C
:102D740041542B4353510A0D0041542454544E459D
:102D84005449503F0A0D0041542454544750535160
:102D940052593D31302C300A0D00202020202020B3
:102DA40000525554413A004D454E53414A45204541
:102DB4004E564941444F004154244D5347534E44C9
:102DC4003D342C222424424C25732C25642564256F
:102DD4006425643230256425642C256425642564C7
:102DE4002564256425642C52322C25642C25643AF0
:102DF40058582323220D0A00256300425553002509
:102E04006425643A256425643A2564256400507574
:102E14006E746F20646520636F6E74726F6C003221
:102E240030256425642D256425642D2564256400DE
:102E340050616E74616C6C61004E6F204175746FEB
:102E440072697A616461000001002D4E414E0000F8
:102E540001004903522D04001604542D04001B04E0
:102E6400582D070000039E2D06000703A52D100012
:102E74000D03AB2D04001D03FF2D11002103122EA1
:102E840009003203342E0E003B033D2E0A000500D8
:102E94005C2D010044044C2E0000F894EE27EFBB97
:102EA400F1E0F5BFE5BFF8E1A895A4B7A77FA4BFFB
:102EB400F0936000E09360008DE0A2E0BB27ED9307
:102EC4008A95E9F780E098E0A0E0B1E0ED930197FE
:102ED400E9F7E4E5FEE285919591009761F0A5910B
:102EE400B59105901590BF01F00105900D920197E1
:102EF400E1F7FB01F0CFE0E0EEBBEFEFEDBFE8E080
:102F0400EEBFC0E0D3E00C94B01F5F9A87E38A95CC
:102F1400F1F75F9887E38A95F1F70895169A179A5F
:102F24005E985D98EFE3E8B9F0DF08951A935E9830
:102F34005D98A981BA81A034E0E0BE0720F4169A16
:102F44001798198107C0179A1698E981FA81E054F5
:102F5400F0401E2FE12FE064EF771E2F18B9D5DF64
:102F640018813BC01A935E985D98E981E86BEF7B0A
:102F74001E2F18B9CADF188130C0EA81FB810E9474
:102F84008023E881F9810E948423249608955E9A1F
:102F94005D98E881E8B98DED90E00197F1F7B5DF30
:102FA400219608951A930A930E9488230E948D23E0
:102FB400E0E4F0E0FA93EA930E948D23169A00E08D
:102FC40010E00134E0E01E0734F4E0E0EA93DFDFD0
:102FD4000F5F1F4FF6CF19810881239608951A9326
:102FE4000A9300E010E00830E0E01E072CF40A9396
:102FF400D9DF0F5F1F4FF7CF0991199108951A93E5
:10300400EB81FC810E948023E981FA810E94842360
:1030140010E0183080F4ED81FE810E949A26DF01D1
:103024000E949323EA0FFB1FE458FF4FE491EA93B5
:10303400AEDF1F5FEECF188142C10E94262720E039
:1030440010E0EC811E1700F500E00830D8F40E946F
:103054009623F0E0F595E795EC93ED81E1703E2F32
:10306400303021F00E949623E068EC932F5FEC81CE
:10307400E21731F4ED81F0E0F595E795ED8320E07A
:103084000F5FE3CF1F5FDDCF0E942D2728960895A1
:10309400EF9721970E9426270E949D230E94802358
:1030A400FE01EB5BFF4F0190F081E02D0E94842331
:1030B40010E0183008F50E949323BF010E949A265D
:1030C400DE011496EA0FFB1FFA93EA93FE01E55B17
:1030D400FF4F0190F081E02D0E949A26E60FF71F22
:1030E400E458FF4FE491EA93FE01E95BFF4FE0816E
:1030F400EA93A3DF1F5FDDCF00E0FE01EC5BFF4F2F
:10310400E0810E1710F00C94D71810E0183010F06E
:103114000C94C91830E0FE01EC5BFF4FE0813E17D0
:10312400A0F5E32FF0E0DE01A95BBF4F0D90BC9149
:10313400A02DEA0FFB1FBF01DE01AC5BBF4FAC91BA
:10314400BB270E9493230E94AE26DB01AE0FBF1F54
:10315400A034E0E0BE0749F4E0E4F0E0FA93EA9337
:103164000E949D23FA93EA9308DF0E9493230E940E
:103174009A26DE011496AE0FBF1FEE27A00FBE1FC6
:10318400EC91EA9304DF3F5FC6CF1F5FBFCF0E947D
:103194009D23FA93EA93DE01A95BBF4F0E94A42307
:1031A400FA93EA93EADE0F5FA8CF0E942D27EF96E9
:1031B4002C960895A981A13011F00C9459190E94FC
:1031C400AA23E138A0E0FA0711F4EAEF17C0E039C6
:1031D400A0E0FA0711F4EBEF11C0E839A0E0FA0718
:1031E40011F4ECEF0BC0EE38A0E0FA0711F4EDEFA8
:1031F40005C0ED38A0E0FA0711F4EEEFEE83AE81DE
:10320400A13CB0F0A0914903B0914A03A13CE0E095
:10321400BE0774F00E94AD233596E491E03041F08E
:103224000E94AA230E94BA233496E491E03009F460
:1032340017C00E94AD23DF01E0914B03F0E031960B
:10324400EA0FFB1FE4910E94C323E0914C030E9408
:10325400C323E0914D030E94C323D1DEE2E001C009
:10326400E0E0E0934B03AE81A13C60F00E94AA230E
:103274000E94BA23DF01E0914B03F0E0EA0FFB1F49
:10328400E49101C0EE81F0E00E94C7230E94C723AD
:103294000E94CC230E94AA23E0934903F0934A039B
:1032A400EC81E0934C03EA81E0934D0308C00E9453
:1032B400AA230E94C7230E94C7230E94CC232796D7
:1032C40008951A930A9310E000E00E94D22318F4A0
:1032D400AC81A03009F029C00E9493230E94DD2311
:1032E400EC91EA930E94E2230E94E223E0E00E9430
:1032F400E7230E94EC23AF81B885EA0FFB1FEF831D
:10330400F8870E94F723A0E8B0E00E94F426EA1BA5
:10331400FB0BAF81B885EA17FB072CF4E0E0EF83E1
:10332400E8870E94FC231F5FD0CF0E94D22318F4A9
:10333400AC81A13009F075C00E9493230E94DD2363
:10334400AC91A13E21F40E940524A73C09F002C0DF
:1033540009EF29C00E9493230E94DD23AC91A13E72
:1033640021F40E940524A33C09F002C007EE1BC00F
:103374000E9493230E94DD23AC91A13E21F40E947C
:103384000524A23C09F002C008EE0DC00E9493235C
:103394000E94DD23AC91A13E21F40E940524A53CAA
:1033A40009F001C009EE003079F00A930E940B2461
:1033B400E1E00E94E7231E5F0E94F723AF81B885F6
:1033C4000E94162400E01CC00E9493230E94DD2367
:1033D400EC91EA930E940B24E9850E94E7230E9462
:1033E40093230E94DD23AC91A03219F40E94EC23B4
:1033F40002C00E94F723AF81B8850E9416241F5F84
:103404000E94F7233196AF81B885AE17BF0744F405
:103414000E94F723A0E8B0E00E9416240E94FC2337
:1034240084CFE1ECF0E0E0934903F0934A0319817F
:1034340008812B9608950E94262708851985EC811A
:10344400FD81E017F10700F12A853B85EE81FF81BC
:10345400E217F307B0F03A932A931A930A938DDD97
:10346400A0E8A09FF001A19FF00DE20FF31FAC852F
:10347400BD85EA0FFB1FE491EA9389DD2F5F3F4F7F
:10348400E5CF0F5F1F4FDBCF0E942D272E960895A7
:10349400EA93FA93EFB7EA931A930A931091C00050
:1034A4000091C600E091C000E07811F4F19801C0E9
:1034B400F19AE12FEC7181F4E42D4394F0E0E25BA6
:1034C400FC4F0083E8ECE41509F444246394E8EC2D
:1034D400E61511F46624F09A09911991E991EFBF68
:1034E400F991E99118950A921A92FA926A937A9349
:1034F4008A939A93AA93BA93EA93FA93EFB7EA93C7
:10350400E6E0E6BDAAE2B4E00E94A423A0912A0466
:10351400B0912B049B9711F00C942C1B0E941B243C
:103524000E942024E0E0E0932A04E0932B040E940C
:103534001B24E430A0E0FA0711F40E9425240E9421
:103544001B24E930A0E0FA0741F4E4E7FDE2FA9332
:10355400EA9380E00E94412322960E941B243A971A
:1035640014F40C942C1B0E942E240E9435240E94D7
:1035740020240E943524DF01E2E0F0E00E94CB2603
:10358400309719F4EDE7FDE202C0EBE8FDE2FA93AF
:10359400EA9380E00E94412322960E9435243697C4
:1035A40014F40C942C1B0E943A240E9441240E947F
:1035B40020240E9441243A9714F40C942C1B0E945A
:1035C40046240E944D240E9420240E944D243697B4
:1035D40014F40C942C1B0E9452240E9459240E941F
:1035E40020240E9459243A97ACF10E945E240E9440
:1035F40065240E9420240E946524329731F40E949D
:103604005924E330A0E0FA0709F017C00E944D24C2
:10361400359731F40E944124E930A0E0FA0709F01B
:103624000CC00E943524359731F40E941B24E930E4
:10363400A0E0FA0709F001C001C00CC00E946A248E
:103644000E945E240E9452240E9446240E943A242E
:103654000E942E24E991EFBFF991E991B991A991C2
:103664009991899179916991F99019900990189596
:103674005C9A0E9471245C980E94712408951A93A4
:10368400E981F0E0E054F0401E2F113010F01031C9
:1036940008F002C0E12F01C0E0E0188122960895ED
:1036A400A0E00499A1E0A03019F4E0E0E71509F0E6
:1036B4001BC0E1E0F0E0DE0EEF1E7E2EAAE2B0E0D9
:1036C4000E940B27D5DFE1E0E09324040E947724D5
:1036D4000E947D2428F4E5E0F0E0ED15FE0509F4F0
:1036E40002C0DD24EE2407C0049B03C0E1E0E7151B
:1036F40009F001C07724ED2DFE2D3097E1F4A0915F
:103704002404A130B9F40E9482240E9487240E94D8
:103714008C240E949624E0E0E0932404AAE2B0E022
:103724000E949D24E0E2EA930E94A224E0E0F3E0F8
:103734000E94B02430C0E130A0E0FA07A1F4A091C7
:103744002404A13079F4E0E0E09324040E94C2242C
:103754000E94C9240E9487240E94CE24E7E0F3E05B
:103764000E94B02418C0E230A0E0FA07A1F4A091AE
:103774002404A53081F40E94C9240E9487240E9455
:10378400CE24EDE0F3E0FA93EA93E3E2F0E00E9462
:10379400D8240E94DF240895A0E00399A1E0A0307A
:1037A40041F40E947D2429F4E0E0EA1511F4EB15BC
:1037B40009F016C0A0E2B4E00E94A423319758DFB8
:1037C400E1E0AE2E0E94E7241D9720F00E94E7243A
:1037D4001F9709F402C00E94C2240E94772407C0E4
:1037E400039B03C0E1E0EA1509F001C0AA24E091BB
:1037F4002004F0912104E130A0E0FA0711F4E1E49F
:1038040047C0E230A0E0FA0711F4E2E441C0E3303B
:10381400A0E0FA0711F4E3E43BC0E430A0E0FA07C7
:1038240011F4E4E435C0E530A0E0FA0711F4E5E46E
:103834002FC0E630A0E0FA0711F4E6E429C0E7302F
:10384400A0E0FA0711F4E7E423C0E830A0E0FA07A7
:1038540011F4E8E41DC0E930A0E0FA0711F4E9E44A
:1038640017C0EA30A0E0FA0711F4EAE411C0EB3023
:10387400A0E0FA0711F4EBE40BC0EC30A0E0FA0787
:1038840011F4ECE405C0EF30A0E0FA0711F4E0E233
:103894005E2E0895A0E00299A1E0A03041F40E94B8
:1038A4007D2429F4E0E0E91511F4EB1509F01DC0BD
:1038B400A0E2B4E0ED91FD913197FE93EE93319641
:1038C400D7DEE1E09E2E0E94E724109721F40E94A7
:1038D400E7241F9709F406C0ECE0F0E0E09320042D
:1038E400F09321040E94772407C0029B03C0E1E007
:1038F400E91509F001C099240895A0E00199A1E017
:10390400A03069F4E0E0EC1551F4EB1541F4AAE2BF
:10391400B0E00E94FB26E130A0E0FA0709F01EC0E7
:10392400C394852CE1E0BE2EA3DE0E9477240E947E
:10393400EC240E942E250E9459240E942E250E94C8
:103944004D240E942E250E9433250E942E250E947C
:103954001B240E942E250E943A2507C0019B03C008
:10396400E1E0E91509F001C0C394A0E00199A1E0E8
:10397400A03019F4E1E0EB1509F020C00E94962470
:10398400C394E0E28E2EBB2473DE0E9477240E944F
:10399400EC240E942E250E9459240E942E250E9468
:1039A4004D240E942E250E9433250E942E250E941C
:1039B4001B240E942E250E943A2507C0019B03C0A8
:1039C400E1E0EC1509F001C0CC240895E091320443
:1039D400F0913304E130A0E0FA0719F4E0E2FBE2ED
:1039E40014C0E230A0E0FA0719F4E0EFF9E20DC0E8
:1039F400E330A0E0FA0719F4E0EFF5E206C0E430A2
:103A0400A0E0FA0761F4E0E5FCE2FA93EA930E948D
:103A140088230E948823E4E1F0E00E944E25089563
:103A24006497E0E0EA83EB83EC83ED83EE83EF833A
:103A3400E887E9870E94242740E050E000E010E096
:103A4400083CE0E01E0714F00C949A1F0E945625CF
:103A5400AB3291F40E945B25A33471F4F801E05B6E
:103A6400FC4FA081A33541F40E946025A13521F4C7
:103A74000E946525AA3309F046C0F8010E946A2510
:103A8400AAE0B0E00E94AE26DF01F8010E94702592
:103A9400EA0FFB1FEE83FF83AE81BF811B9724F0E7
:103AA400AE81BF811F970CF005C0E1E0F0E00E94F9
:103AB400762529C0AE81BF811F9724F0AE81BF81D6
:103AC40052970CF005C0E2E0F0E00E9476251BC09E
:103AD400AE81BF81529724F0AE81BF815F970CF015
:103AE40005C0E3E0F0E00E9476250DC0AE81BF8101
:103AF400909724F0AE81BF81D2970CF004C0E4E02B
:103B0400F0E00E9476250E945625A23441F40E94DA
:103B14005B25A53521F40E947B25A33509F028C037
:103B2400F801EF59FC4FE081E0932804F801E05AD2
:103B3400FC4FE081E0932704F801E15AFC4FE08157
:103B4400E0932604F801E25AFC4FE081E093250457
:103B5400F801EC59FC4FA081A13331F4F801EB5981
:103B6400FC4FA081A83309F003C0E1E0E0932904ED
:103B74000E945625AE3481F40E945B25A53461F47D
:103B84000E947B25A43541F40E946025A93421F4C8
:103B94000E946525A03509F049C00E94802540E0B7
:103BA40050E0493CE0E05E075CF40E94852529F47E
:103BB4000E948F2511F40E9498254F5F5F4FF1CF2B
:103BC400EC85FD85E05BFC4FA081A23279F50E9473
:103BD400A0250E94A525E9F40E94A9250E94A525F7
:103BE400C1F40E94AE250E94A52599F4EC85FD85BB
:103BF4000E94702571F4EC85FD85EA5AFC4F0E9401
:103C0400A52539F4EC85FD85E95AFC4F0E94A525CC
:103C140009F006C0E0E0E0932E04E0932F0406C010
:103C2400E1E0F0E0E0932E04F0932F040E94562587
:103C3400A43481F40E945B25A53461F40E947B25A1
:103C4400A63541F40E946025A93421F40E9465251B
:103C5400A43409F043C00E9480250E94B32540E0AB
:103C640050E0493CE0E05E075CF40E94852529F4BD
:103C74000E948F2511F40E9498254F5F5F4FF1CF6A
:103C84000E94C325A081A23249F5EC85FD85E05B45
:103C9400FC4FA081E0911B04EA17A9F40E94A0251F
:103CA400A081E0911C04EA1771F40E94A925A08167
:103CB400E0911D04EA1739F40E94AE25A081E09139
:103CC4001E04EA1709F003C00E94C82507C00E9419
:103CD400B325E0E0E0932C04E0932D040E945625E4
:103CE400A73481F40E945B25A03561F40E947B25F2
:103CF400A23541F40E946025AD3421F40E9465256B
:103D0400A33409F012C10E94802540E050E0493CF0
:103D1400E0E05E0744F5FA01A889B989EA0FFB1FC0
:103D2400E15BFC4FA081AC32D9F40E948F2511F4E1
:103D34000E949825AE85BF85129739F4E889F989E0
:103D4400E40FF51F3196EA87FB87AE85BF85199787
:103D540039F4E889F989E40FF51F3196E887F98782
:103D64004F5F5F4FD4CFE3E0EA931CD9E4E0EA93DA
:103D740019D9E5E0EA9316D90E94C3250E94A52526
:103D8400FF2352F03A9744F4EC85FD853196AA85D9
:103D9400BB85EA17FB0709F44DC0EC85FD850E943D
:103DA4006A25A0E1B0E00E940B270E94AE250E9484
:103DB400A525A2E1B0E00E940B270E94A9250E943C
:103DC400A525A4E1B0E00E940B270E94A0250E9433
:103DD400A525A6E1B0E00E940B27EC85FD85E05BFC
:103DE400FC4F0E94A525EE8BFF8B0E94C3250E94E9
:103DF400A525E88FF98FAAE0B0E00E94AE26AE892F
:103E0400BF89EA0FFB1FEC8BFD8B3597EA8BFB8B8D
:103E1400AB89AA234AF47896EA8BFB8B0E94CF25C0
:103E24000E94D4250E94DB250E94CF250E94D42520
:103E34000E94DB25EA85FB85E15BFC4FE081F0E035
:103E4400E0933004F0933104ECEFFDE2FA93EA934B
:103E5400E0913004F09131040E942E2584E00E9408
:103E6400412326960E94E225FF2312F03A970CF094
:103E740038C00E94E225AEE1B0E00E94E725E05B95
:103E8400FC4F0E94A525ACE1B0E00E94E725EF5A63
:103E9400FC4F0E94A525A2E2B0E00E94E725EE5A5D
:103EA400FC4F0E94A525A0E2B0E00E94E725ED5A50
:103EB400FC4F0E94A525A6E2B0E00E94E7250E94DF
:103EC4006A25A4E2B0E00E940B27AA89BB89539714
:103ED4003CF00E94EC253197ACE1B0E00E940B2746
:103EE40024C00E94F125A6E2B0E00E940B270E94A4
:103EF400F625A4E2B0E00E940B270E94FB25A2E273
:103F0400B0E00E940B270E940026A0E2B0E00E94CD
:103F14000B270E940526AEE1B0E00E940B270E9409
:103F2400EC25ACE1B0E00E940B270F5F1F4F88CD5A
:103F340066244424F19A20E030E0293CE0E03E0786
:103F44004CF4AEE4B3E0A20FB31FE0E0EC932F5FB8
:103F54003F4FF3CF0E942B276A960895E0E8E09341
:103F64006100E0E0E0936100EFEFE7B9E2B9E0EF70
:103F7400E1B9E0E0E5B9EFEFE4B9E0E0EBB9E0EF97
:103F8400EAB9E0E0E093C000E8E9E093C100E6E0CC
:103F9400E093C200E0E0E093C500E5E0E093C400F4
:103FA400E0E0E4BDE5E0E5BDE0E0E6BDE7BDE8BD99
:103FB400E1E0E0936E000E949017EAE0F0E00E94D6
:103FC4000A2656DB55DBE0EFF9E00E9410260E943A
:103FD4008823EFE7F0E00E94D8242DDAE0EDF7E043
:103FE4000E940A26E0EFFDE00E9410260E9488232A
:103FF400EDE2F0E00E94D8241EDAE6E1F4E0FA9360
:10400400EA93E7E3F0E00E9413260E941A26EDE10A
:10401400F3E0FA93EA93EBE3F0E00E9422260E9495
:10402400DF24EBE1F4E0FA93EA93E2E5F0E00E94A6
:1040340022260E94DF24E0EDF7E00E940A26ABE18D
:10404400B0E00E94FF26EE2362F40E946A240E94DC
:1040540052240E943A240E945E240E9446240E9414
:104064002E24A1E2B0E00E94FF26EE23C2F4ACE1CC
:10407400B0E00E949D24AEE1B0E00E949D24A0E245
:10408400B0E00E949D24A2E2B0E00E949D24A4E23C
:10409400B0E00E949D24A6E2B0E00E949D24A8E224
:1040A400B0E00E94FF26AE2F78940E9482240E94E2
:1040B40087240E948C240E94252486E695E001979B
:1040C400F1F7AEDC0E94C8257724AA249924F1993B
:1040D40002C0A6DCF19A5A920E94A224E1DA5CDBC7
:1040E400D9DB0BDC73DCA0912C04B0912D04119767
:1040F40011F00C947121A0912E04B0912F0411970A
:1041040011F4E5E401C0E0E2EA93E3E1F0E00E94A7
:104114001026E1E0EA93EA930E94DC18E091290476
:10412400E03069F5E4E3F4E0FA93EA93E3E0FEE2D5
:10413400FA93EA930E9465240E942E250E94592432
:104144000E942E250E944D240E942E250E94412467
:104154000E942E250E9435240E942E250E941B2495
:104164000E942E250E942526E4E3F4E00E94D82430
:10417400E2E0F0E0FA93EA930E941A2623C00E9438
:10418400B325E1E0F0E0FA93EA930E948626E1E2A7
:10419400F3E00E942226E2E0F0E00E942A26E5E213
:1041A400F4E00E942D260E94322662DA61DAE0ED04
:1041B400F7E0FA93EA930E948626E0E0E09329046C
:1041C4000E94B3250E943726A134E0E0BE07D9F54A
:1041D400E0EFFDE10E943C260E9441260E946524F6
:1041E400EF3FA0E0FA0761F40E946A240E9452247F
:1041F4000E943A240E945E240E9446240E942E2497
:104204000E9444260E942E250E94F6250E942E25F7
:104214000E94FB250E942E250E9400260E942E2526
:104224000E9405260E942E250E94EC250E942E2520
:104234000E942526ECE3F4E00E942D260E9422260B
:104244000E94DF244BC00E943726A635E0E0BE075B
:1042540021F00E943726D997D9F5E0EFF1E20E94C8
:104264003C260E9441260E946524EF3FA0E0FA0705
:1042740061F40E946A240E9452240E943A240E94FB
:104284005E240E9446240E942E240E9444260E94FA
:104294002E250E94F6250E942E250E94FB250E94B1
:1042A4002E250E9400260E942E250E9405260E948B
:1042B4002E250E94EC250E942E250E942526ECE343
:1042C400F4E00E942D260E9422260E94DF2406C0CC
:1042D400E0EFF1E20E943C260E94412612C0E2E394
:1042E400F3E0FA93EA93EEE1F0E00E9413260E94D1
:1042F400DF24EBE3F3E0FA93EA93EFE0F0E00E94CB
:104304003226E0EFF5E1FA93EA93E9E6F0E00E9461
:104314002226EFE7F0E00E94D8248DD8D8CEFFCF34
:10432400E091C000E072E1F3E881E093C6002196D9
:104334000895EA81EA93F4DFA881B9810E94A42355
:10434400239608951A930A93AA81BB8112960E9418
:10435400E726309729F1AA81BB8114960E94E726AB
:104364008F01309761F00230E0E01E07C0F0F801E1
:1043740031978F01AA81BB811496ED93FC93AA8196
:10438400BB8112960E94A4233197AC81A083AA8199
:10439400BB810E94E726FF2312F00E94A42306C0DB
:1043A400AA81BB81EFEFFFEFED93FC9319810881A4
:1043B4002596089526970E94242710E0AC85BD8594
:1043C400E0E0F0E0ED93FC93EA89FB893196EA8B17
:1043D400FB8B3197E4912E2FE03011F40C940923D8
:1043E400E12FE03039F4253211F411E002C00E94CB
:1043F4004D260CC1E130A9F4253219F40E944D2652
:1044040004C112E040E000E02D3211F401E0FEC0EE
:104414002B3211F44BE2FAC0203211F440E2F6C020
:1044240002C0E23039F450E013E0203311F40068A4
:10443400EDC004C0E33011F00C940823203310F0D5
:104444002A3308F007C0AAE05A9F502DE22FE05308
:104454005E0FDCC0E22FE33649F40E945626E88959
:10446400F989A481AA930E945C26CFC0E33741F462
:104474000E9456260E9464260E946B231E2F0AC0A7
:10448400E03761F40E9456260E9464260E94752338
:104494001E2F086002600F7730E035C0E43611F05B
:1044A400E93611F4046002C0E53731F4E0E4FDE2DA
:1044B400EE83FF8315E00DC0E83511F4086004C0F5
:1044C400E83711F00C940723EAE4FDE2EE83FF835E
:1044D40014E002FF14C00E9456260E946E26AB858B
:1044E400AA233AF4EA85FB850E949626EA87FB878D
:1044F4004DE2403011F01F5F01C00B7F04C00E94E9
:1045040056260E946E2600FD11C0151778F407FF89
:1045140008C002FF04C00B7F242F115001C020E308
:1045240001C020E20E944D265150EFCF312F01FFF0
:1045340017C03030A1F003FF06C0EE81FF81259142
:10454400EE83FF8305C0AE81BF812D91AE83BF830F
:104554000E944D26503009F051503150EACF4BC0E3
:1045640020E3EE81FF810E94EB26E887F987EE8144
:10457400FF813296EE83FF83E885F985AA85BB85A2
:10458400AE17BF0750F02F5FA885B985EA85FB8574
:10459400EA1BFB0BEA87FB87EFCF2A3328F003FFE4
:1045A40002C0295F01C0295D04FD1AC0213320F433
:1045B400A885B985119709F409C0531710F000FFB5
:1045C40001C013C020E207FF0BC020E3006102FF1B
:1045D40007C00B7F4A930E945C26503009F051506B
:1045E4000E944D26503009F051503150A885B985AC
:1045F400129708F0B5CF00FF08C0503031F0515089
:10460400E0E2EA930E945C26F8CF10E0DDCEAC85B0
:10461400BD850E94E7260E942B2764960895FF9289
:10462400F82E26970E9426270E947626309719F4A2
:10463400EFEFFFEF1FC0DE0116960E9492268D0158
:104644000E947626EE83FF83E0E0E887E987DE01B7
:104654001A960E947D26E4EAF1E2FA93EA93FE01B7
:104664003A96FA93EA93A6DE9F01AE81BF81E0E019
:10467400EC93F9010E942D272A96FF900895FF924A
:10468400F82E26971A930A93DE0114960E94922616
:104694008D01E0E0EC83ED83EE83EF83DE01189679
:1046A4000E947D26EBE9F1E2FA93EA93FE01389643
:1046B400FA93EA937FDE198108812896FF90089582
:1046C400A991B991E991F991EA17FB070CF0FD0161
:1046D4000895A991B991EE27FF276D91662311F0F2
:1046E4003196FBCF0895AA27BB27E991F99105904C
:1046F400002011F01196FBCFFD010895FA93EA937F
:104704000C949817FA93EA930C94B417E0E0F0E051
:10471400FA93EA930895EC81F0E0FA93EA930C9407
:10472400BF17E12FF0E00895AE81BF81EE27A10FFE
:10473400BE1FEC910895FE01E95BFF4F0190F081EB
:10474400E02D0895ED91FD913196FE93EE93089539
:10475400EE81F0E00895E0914903F0914A03E15CB1
:10476400F040A6E0B0E00E94A626E458F74F089572
:10477400E15CF040A6E0B0E00E94A626E458F74FC2
:104784000895F0E0FA93EA930895FA93EA93EE8198
:10479400FF810895FA93EA93EE81EA930C944A1800
:1047A400E985FA85FA93EA930E946B23A12FB0E07E
:1047B400AE17BF070895A985BA85AE0FBF1F089528
:1047C400E885F985FA93EA930895EA93E985EA93EB
:1047D4000C94DC18EA81F0E0E7FDFFEF3896DF0186
:1047E400EB81F0E00E94AE260895EB81A8E0EA0296
:1047F400F0010895EB81F0E0AD81BE81EA0FFB1F6B
:10480400ED83FE830895A985BA85EA0FFB1FA18174
:104814000895EC81A8E0EA02F001A885B985AE1BF1
:10482400BF0BBA93AA93CCCFAE1BBF0BAF83B88791
:104834000895A0E1B0E00E94FB26089531960E94FD
:104844000B2731970895E6E6FDE2FA93EA9380E0B8
:104854000E94412322960895A0E1B0E0E0E0F0E058
:104864000E940B270895A2E1B0E00E94FB26089560
:10487400A2E1B0E0E0E0F0E00E940B270895A4E19B
:10488400B0E00E94FB260895A4E1B0E0E0E0F0E08F
:104894000E940B270895A6E1B0E00E94FB2608952C
:1048A400A6E1B0E0E0E0F0E00E940B270895A8E163
:1048B400B0E00E94FB260895A8E1B0E0E0E0F0E05B
:1048C4000E940B270895AAE1B0E00E94FB260895F8
:1048D400AAE1B0E0E0E0F0E00E940B270895E4E6EE
:1048E400F0E0FA93EA930C948626E8ECF0E0FA936D
:1048F400EA930C948626E1E0F0E0ED15FE050895B8
:10490400E0EFF1E1FA93EA9301CFE5E0F0E0FA9306
:10491400EA930895E9E1F0E0FA93EA93E7E0F0E03E
:10492400FA93EA930C941D1AEFE0F0E0E09320046C
:10493400F09321040895E0E0F0E00E940B2708952D
:10494400EFE4F0E0FA93EA93E7E0F0E0FA93EA9315
:10495400E0E0EA93E1E0EA930C94DC18FA93EA933A
:10496400ECE2F0E0FA93EA93E7E0F0E0FA93EA93FA
:10497400E0E0EA93E1E0EA93EFEFEA930C94631941
:10498400E1E0F0E0E0932004F09321040895E0EFE7
:10499400F9E1FA93EA93BACEE3E2F0E0FA93EA9308
:1049A400E7E0F0E0FA93EA930C941D1AFA93EA9381
:1049B400E7E0F0E0FA93EA930895E0E0EA93E1E0B7
:1049C400EA93EFEFEA930C946319A0912004B09159
:1049D400210408958A920E94411BA8E2B0E00E943B
:1049E4001327EBEBFDE2FA93EA93EBE1F4E066279D
:1049F40077270E94EF26AEE1B0E00E94FB260E94DA
:104A0400A1260E94EF26ACE1B0E00E94FB260E94A2
:104A1400A1260E94EF26A2E2B0E00E94FB260E949B
:104A2400A1260E94EF26A0E2B0E00E94FB260E948D
:104A3400A1260E94EF26A6E2B0E00E94FB260E9477
:104A4400A1260E94EF26A4E2B0E00E94FB260E9469
:104A5400A1260E94EF2637CF0E94A1260E94EF26AE
:104A64000895E2E6F3E2662777270E94EF26FBCE5D
:104A7400A8E2B0E00E94FF26FF27662777270E945E
:104A8400EF26EB2DFF27662777270E94EF268CE37E
:104A94000E944123EE960895FA93EA93E1E0F0E050
:104AA400FA93EA930C941D1AF801E25BFC4FA0817F
:104AB4000895F801E15BFC4FA0810895F801EF5AD5
:104AC400FC4FA0810895F801EE5AFC4FA08108958F
:104AD400EC5AFC4FE081F0E0F0970895EB5AFC4F5C
:104AE400E081F0E0F0970895E0933204F09333040A
:104AF4000895F801E05BFC4FA0810895F801349615
:104B0400E88BF98B0895FA01A889B989EA0FFB1F8C
:104B1400E15BFC4FA081AA330895EE85FF853196B1
:104B2400EE87FF87AE85BF8511970895E889F989D7
:104B3400E40FF51F3196EC87FD870895EC85FD851C
:104B4400EF5AFC4F0895E081F0E0F0970895EC856A
:104B5400FD85EE5AFC4F0895EC85FD85ED5AFC4F1A
:104B64000895E2E0EA930E94D417E3E0EA930E94F6
:104B7400D417E4E0EA930E94D417E5E0EA930C9496
:104B8400D417EC85FD85E15BFC4F0895E1E0F0E08E
:104B9400E0932C04F0932D040895AA89BB89EAE0DC
:104BA400F0E008950E94CB26A8E1B0E00E940B2714
:104BB400F4CF0E94C626AAE1B0E00E940B27089514
:104BC400E885F985E15BFC4FBECF0E940B27E885A1
:104BD400F9850895ACE1B0E00E94FB260895A6E2B1
:104BE400B0E00E94FB260895A4E2B0E00E94FB26F8
:104BF4000895A2E2B0E00E94FB260895A0E2B0E08E
:104C04000E94FB260895AEE1B0E00E94FB260895C1
:104C1400FA93EA930E9486260C94F117FA93EA9386
:104C240075CDFA93EA93E2E0F0E0FA93EA930895FB
:104C3400E0E0EA93E2E0EA93EFEFEA930C9463197D
:104C4400FA93EA9362CE88E10E9411236C96089548
:104C5400FA93EA93B2CEFA93EA93E2E2F0E008958B
:104C6400FA93EA93E4E0F0E0F3CFA0913004B0913A
:104C740031040895FA93EA93EFE5F0E0CFCFEFE73C
:104C8400F0E00ACFECE3F4E0FA93EA93E3E2FEE225
:104C9400FA93EA93A4CF2A93ED85FE85FA93EA93D7
:104CA400E989FA8909950895E889F9893497E88B9F
:104CB400F98B0895ED85FE85FA93EA93E989FA89DB
:104CC40009950895A889B98914960E94E726EE8368
:104CD400FF83FA93EA930895A889B98914960E94E8
:104CE400E726EA87FB870895DE011C960E94922638
:104CF4000E94E72608950E9492260E94E726FA93CE
:104D0400EA931A930A930895E991F991309639F048
:104D14008DEC9AE00197F1F7A8953197C9F70895BA
:104D24000024AF0DB01D0895F195E195F04008956C
:104D3400EE0FFF1FEE0FFF1FEE0FFF1F08956F2FE3
:104D4400660F660B762F0895FA9FF02DEB9FF00DFA
:104D5400EA9FE02DF10D08952AD0F6DF0EF4E4DF8A
:104D640008950024112490E1AA0FBB1F001C111CFC
:104D74000E1A1F0A18F40E0E1F1E01C0A1609A9588
:104D840099F7FD01D001089512D0EBDF0EF4CCDFCA
:104D94000895E894B7FF04C0A095B095119668945F
:104DA400F7FDC2DFDEDFFD010EF4BEDF0895E894F7
:104DB400F7FF02C0B9DF6894B7FF06C0A095B095AD
:104DC400119600F8039400FA0895ED91FC9111975F
:104DD40008950590F491E02D08957A936A93FA93D7
:104DE400EA9308951B2EBF2FF12D1A2EAE2FE12D1D
:104DF4000895119602D0FE2F1197F999FECFFF93D3
:104E0400FFB7F894A1BDB2BDF89AE0B5FFBFFF911A
:104E1400089507D01196EF93EF2F03D0EF911197D8
:104E24000895F99B02C0A895FCCF9FB7F894A1BD43
:104E3400B2BDF89A80B5E81719F0E0BDFA9AF99A6C
:104E44009FBF08955A934A933A932A931A930A93C5
:104E540008955D814C813B812A81198108810895DF
:00000001FF
