:020000000C945E
:10000200CC170C9400000C9400000C9400000C948B
:1000120000000C9400000C9400000C9400000C945E
:1000220000000C9400000C9400000C9400000C944E
:1000320000000C9400000C9400000C9400000C943E
:1000420000000C9400000C94F11A0C9400000C9423
:10005200C61A0C9400000C9400000C9400000C943E
:1000620000000C9400000C9400000C9400000C940E
:1000720000000C9400000C9400000000000000003E
:10008200000000000000000000000000000000006E
:10009200000000000000000000000000000000005E
:1000A200000000000000000000000000000000004E
:1000B200000000000000000000000000000000003E
:1000C200000000000000000000000000000000002E
:1000D200000000000000000000000000000000001E
:1000E200000000000000000000000000000000000E
:1000F20000000000000000000000000000000000FE
:1001020000000000000000000000000000000000ED
:1001120000000000000000000000000000000000DD
:1001220000000000000000000000000000000000CD
:1001320000000000000000000000000000000000BD
:1001420000000000000000000000000000000000AD
:10015200000000000000000000000000000000009D
:10016200000000000000000000000000000000008D
:10017200000000000000000000000000000000007D
:10018200000000004F000000000000070007000010
:1001920000000024FF24FF24000000444AFF4A32EA
:1001A200000040231308C4C2000000364955224013
:1001B20080000000050300000000003C42810000B6
:1001C20000000081423C000000000014083E0814B8
:1001D20000000010107C1010000000002818000021
:1001E200000000080808080808000060600000001D
:1001F20000004020100804020000007EFF8181FF01
:100202007E00008082FEFF80800000E2F191919FDB
:100212008E000062C3C9C9FF760000181412FFFFE6
:100222001000006F8F8989F97100007EFF8989F9BA
:100232007200000101F1FD0703000076FF8989FFCA
:10024200760000468F8989FF7E0000006666000006
:100252000000000056360000000000081422410091
:100262000000002424242424000000004122140859
:100272000000000201B109060000006291F1817ED6
:10028200000000FE111111FE000000FF898989762D
:100292000000007E81818142000000FF8181423C9A
:1002A200000000FF89898981000000FF0909090116
:1002B2000000007E81919172000000FF101010FF7B
:1002C2000000000081FF81000000004080817F016A
:1002D200000000FF18244281000000FF808080801F
:1002E200000000FF020C02FF000000FF040810FFE4
:1002F2000000007E8181817E000000FF1111110E3D
:1003020000007E81A141BE00000000FF1131518E2C
:1003120000000086898989710000000101FF010146
:100322000000007F8080807F0000003F4080403FCF
:100332000000003FC060C03F000000E3140814E367
:100342000000000708F00807000000C1A19189879A
:10035200000000FF8181000000000015167C1615C8
:1003620000000041417F000000000004020102047D
:100372000000004040404040000000010204000034
:100382000000006094949478000000FF88888870D0
:100392000000007884848400000000788484887FD0
:1003A200000000789494945800000010FE1101029D
:1003B2000000000C9292927E000000FF100808F0EC
:1003C2000000000084FD80000000006080807D004D
:1003D200000000FF304884000000000081FF800020
:1003E200000000FC043804F8000000FC080404F8D3
:1003F2000000007884848478000000FC141414083F
:1004020000000008141418FC000000FC0804040892
:100412000000008894949460000000047F8480406F
:100422000000007C808040FC0000003C4080403C9A
:100432000000003EC060C03E00000042241824427A
:10044200000000068888887E000000C4A4948C8482
:1004520000000008768100000000000000FF00009C
:10046200000000817608000000000008082A1C082D
:10047200000000081C2A08080000007C8281827C9F
:10048200000000000000000000000000000000006A
:10049200000000000000000000000000000000005A
:1004A200000000000000000000000000000000004A
:1004B200000000000000000000000000000000003A
:1008720000000000000000000000C1C1C1C1000072
:10088200C2C2FEFE0100C3C31F1F0100C4C4FCFCA0
:100892000100C5C5C5C50101C6BDBFBE0101C7C7AF
:1008A200C0C00100C88284830101C9C9FDFD0100E5
:1008B200CA8587860101CB888A890101CC8BCC8BC2
:1008C2000101CD8CCD8C0101CE11CE110101CFCF12
:1008D20013130100D0D08F8F0100D1D11B1B010057
:1008E200D2D291910100D39294930101D49597961B
:1008F2000101D5179A990101D69B9D9C0101D7D779
:10090200D7D70000D8D89E9E0101D9D99F9F010157
:10091200DAA0A2A10101DBA3A5A40101DCDCDCDCDD
:100922000000DDA6A8A70101DEA9ABAA0101DFAC88
:10093200AEAD0101E0E0E0E00000E1AFB1B00101E5
:10094200E2E2E2E20000E3B2B4B30101E4B5B7B619
:100952000101E5B8BAB90101E6E6BCBC0100E7E76E
:10096200E7E70000E8E8E8E80000E9E9E9E9000073
:10097200EAEAEAEA0000EBEBEBEB0000ECBDBFBEFB
:100982000101EDBDBFBE0101EEEEEEEE0000EFEFA4
:10099200EFEF0000F0F0F0F00000F1F1F1F10000F3
:1009A200F2F2F2F20000F3F3F3F30000F5F5F5F5DD
:1009B2000000F6F6F6F60000F7F7F7F70000F8F891
:1009C200F8F80000FBF9FBFA0101BBBBF4F40100EB
:1009D200811C1E1D010190181A1901019814161587
:1009E20001018E8E121201008D108D10010100C0C6
:1009F200F030381818181898B0B030303060606095
:100A0200606060C0C0C0C0C0C0C080808080800004
:100A120000000000000000000000000000000000D4
:100A220000000000000000000000000000000000C4
:100A320000000000000000000000000000000000B4
:100A420000000000000000000000000000000000A4
:100A52000000000000000000000000000000000094
:100A6200000000000000000000000000000000FF85
:100A7200FF00000C18F0E70FFD0F07000000000058
:100A820000000000000000000000010101818383DA
:100A920083C3E767E6C6060E0C0C0C0C0C1818187C
:100AA2007870E0C00000000000E0E00000000000FC
:100AB20080C0E06000E0E0606060606060E0C00014
:100AC200000080C06060C080000000E0E060606004
:100AD200606060C08000000080C06060C080000074
:100AE200000080C06060606060C08000000000FFA5
:100AF200FF00000000FFFF00FF00000000000000F8
:100B0200000000000080C06030188CC663311808F5
:100B120008090B0B0B090808080808081C3E363E9A
:100B22001C00FFFF0000000000FFFF70F88C8E0722
:100B32000301000000FFFFE0E0E06060607F3F0033
:100B4200FEFF616060606061FFFE00FFFF00000069
:100B5200000000FFFF00FEFF616060606061FFFE59
:100B620000FFFF000000000000000100000000FF85
:100B7200FF00000000FFFF003F30303030303030E7
:100B820030180CC6E331180C060301000000000007
:100B92000000000000000000000000000000000053
:100BA2000000FFFF00000000003F3F0000010307BC
:100BB2000E1C3830003F3F00000103070E3C380096
:100BC2003F3F0000000000003F3F003F3F30303019
:100BD2003030301F0F003F3F0000000000003F3F59
:100BE200000F1F303030303030381800000000FF66
:100BF200FF00000000FFFF00FF03030303030303E2
:100C020003060C193366CC983060C08000000000E7
:100C120000000000000000000000000000000000D2
:100C22000000FFFF000000000000000000000000C4
:100C320000000000000000000000000000000000B2
:100C420000000000000000000000000000000000A2
:100C52000000000000000000000000000000000092
:100C6200000000000000000000000000000000FF83
:100C7200FF00000000FFFF00FF0000000000000076
:100C8200000000000000000103060C193366444412
:100C920044E4F4B4F4E40404040404040E1F1B1F2B
:100CA2000E00FFFF000000FC0000000000F804043A
:100CB20004F8000C040404FC00F0888488F000802E
:100CC200808000FC8484040400F80404040800FC0E
:100CD200000000FC00F0888488F000FC040404F8A2
:100CE20000F8040404F800FC44C44438000000FF87
:100CF200FF00000603011C3E373E1C0000000000FE
:100D02000080808080C0C0C0C0C0E06060603030C1
:100D1200303031391918181C0C0C0C0C0E06060652
:100D2200070301000000000F080808080007080870
:100D32000807000608080807000F0000000F00005F
:100D42000000000F08080808000708080804000748
:100D520008080807000F0000000F000F0808080726
:100D6200000708080807000F0000010E000000013C
:100D720007060E0C0C0C0C0C0606060603030303F6
:100D82000301010101010000000000000000000059
:100D92000000000000000000000000000000000051
:100DA2000000000000000000000000000000000041
:100DB2000000000000000000000000000000000031
:100DC2000000000000000000000000000000000021
:100DD2000000000000000000000000000000000011
:100DE2000000000000000000000000000000000001
:100DF20000000000000000000000000000000000F1
:100E020000000000000000000000000000000000E0
:100E120000000000000000000000000000000000D0
:100E220000000000000000000000000000000000C0
:100E320000000000000000000000000000000000B0
:100E420000000000000000000000000000000000A0
:100E52000000000000000000000000000000000090
:100E62000000000000000000000000000000000080
:100E7200000000C0E0F0F0F8F8F8F8F8FCFCFCFC28
:100E8200FCFCFCFCFCFCFCFCFCFCFCFCFCFCFCFCA0
:100E9200F8F8F8F8F8F0E0E0C00000000000000008
:100EA2000000000000000000000000000000000040
:100EB2000000000000000000000000000000000030
:100EC2000000000000000000000000000000000020
:100ED2000000000000000000000000000000000010
:100EE2000000000000000000000000000000000000
:100EF2000000FEFFFF0301030303030303030303D5
:100F02000303030303FFFF030301030303030303B9
:100F12000303030303030307FFFE000000000000B6
:100F220000000000000000000000000000000000BF
:100F320000000000000000000000000000000000AF
:100F4200000000000000000000000000000000009F
:100F5200000000000000000000000000000000008F
:100F6200000000000000000000000000000000007F
:100F72000000FFFFFFC0C0C0C0C0C0C0C0C0C0C032
:100F8200C0C0C0C0E0FFFFE0C0C0C0E0D0C8C4C461
:100F9200C4C4C8D0E0C0E0F0FFFF000000000000C1
:100FA200000000000000000000000000000000003F
:100FB200000000000000000000000000000000002F
:100FC200000000000000000000000000000000001F
:100FD200000000000000000000000000000000000F
:100FE20000000000000000000000000000000000FF
:100FF2000000FFFFFFFFFFFFFFFFFFFFFFFFFFFFFD
:10100200FFFFFFFFFFFFFFFFFFFFFFFFFFFFFFFFEE
:10101200FFFFFFFFFFFFFFFFFFFF000000000000D8
:1010220000000000000000000000000000000000BE
:1010320000000000000000000000000000000000AE
:10104200000000000000000000000000000000009E
:10105200000000000000000000000000000000008E
:10106200000000000000000000000000000000007E
:1010720000003FFFFFE1E1E1E1FFFFFFF9D9D9D92C
:10108200D9D9D9D9D9D9D9D9D9D9D9D9D9D9C9FBBC
:10109200FFFFFFE1E1C1E1F7FF3F000000000000B8
:1010A200000000000000000000000000000000003E
:1010B200000000000000000000000000000000002E
:1010C200000000000000000000000000000000001E
:1010D200000000000000000000000000000000000E
:1010E20000000000000000000000000000000000FE
:1010F200000000001F3F3F3F3F3F3F000000000055
:1011020000000000000000000000000000000000DD
:101112001F3F3F3F3F3F3F1F000000000000000015
:1011220000000000000000000000000000000000BD
:1011320000000000000000000000000000000000AD
:10114200000000000000000000000000000000009D
:10115200000000000000000000000000000000008D
:1014F200000000F884C202020202FE020202C2FEE0
:1015020002020202C4F80000000000000000000015
:1015120000000000000000000000000000000000C9
:1015220000000000000000000000000000000000B9
:1015320000000000000000000000000000000000A9
:101542000000000000000000000000000000000099
:101552000000000000000000000000000000000089
:101562000000000000000000000000000000000079
:10157200001E1F7FFFFD7C1C1C1C1F1C1C1C1F1F30
:101582007CFCFC7C1F0F000000000000000000003B
:101592000000000000000000000000000000000049
:1015A2000000000000000000000000000000000039
:1015B2000000000000000000000000000000000029
:1015C2000000000000000000000000000000000019
:10195200000000000000000000000038FC0202024B
:101962000202060606BAFABA0202FC3800000000B9
:101972000000000000000000000000000000000065
:101982000000000000000000000000000000000055
:101992000000000000000000000000000000000045
:1019A2000000000000000000000000000000000035
:1019B2000000000000000000000000000000000025
:1019C2000000000000000000000000000000000015
:1019D2000000000000000000000000003F3EFEF298
:1019E200F23E3E3E3F3FF3F3FF3E3F000000000069
:1019F20000000000000000000000000000000000E5
:101A020000000000000000000000000000000000D4
:101A120000000000000000000000000000000000C4
:101A220000000000000000000000000000000000B4
:101CF200000000F884C282DAFAE2FE020202C2FEA8
:101D020002020202C4F8000000000000000000000D
:101D120000000000000000000000000000000000C1
:101D220000000000000000000000000000000000B1
:101D320000000000000000000000000000000000A1
:101D42000000000000000000000000000000000091
:101D52000000000000000000000000000000000081
:101D62000000000000000000000000000000000071
:101D7200001E1F7FFFFD7C1F1F1F1F1C1C1C1F1F1F
:101D82007CFCFC7C1F0F0000000000000000000033
:101D92000000000000000000000000000000000041
:101DA2000000000000000000000000000000000031
:101DB2000000000000000000000000000000000021
:101DC2000000000000000000000000000000000011
:101DD2000000000000000000000000000000000001
:101DE20000000000000000000000000000000000F1
:101DF20000000000000000000000000000000000E1
:101E020000000000000000000000000000000000D0
:101E120000000000000000000000000000000000C0
:101E220000000000000000000000000000000000B0
:101E320000000000000000000000000000000000A0
:101E42000000000000000000000000000000E010A0
:101E520090908000F0909090600060909010000050
:101E620000002070F8702000807800FC0000000064
:101E72000000000000000000000000000000000060
:101E82000000000000000000000000000000000050
:101E92000000000000000000000000000000000040
:101EA2000000000000000000000000000000000030
:101EB2000000000000000000000000000000000020
:101EC2000000000000000000000000000000030409
:101ED20004040300070000000000040404030000DF
:101EE2000010141414141209040A35180800000012
:101EF20000000000000000000000000000000000E0
:101F020000000000000000000000000000000000CF
:101F120000000000000000000000000000000000BF
:101F220000000000000000000000000000000000AF
:102242000000000000000000000000000000E0109C
:1022520090908000F090909060006090901000004C
:102262000000000000000000807800FC0000000078
:10227200000000000000000000000000000000005C
:10228200000000000000000000000000000000004C
:10229200000000000000000000000000000000003C
:1022A200000000000000000000000000000000002C
:1022B200000000000000000000000000000000001C
:1022C2000000000000000000000000000000030405
:1022D20004040300070000000000040404030000DB
:1022E2000010141414141209040A3518080000000E
:1022F20000000000000000000000000000000000DC
:1023020000000000000000000000000000000000CB
:1023120000000000000000000000000000000000BB
:1023220000000000000000000000000000000000AB
:1025F2000000000000808000E0E000F8F800FEFE2D
:1026020000000000000000000000000000000000C8
:1026120000000000000000000000000000000000B8
:1026220000000000000000000000000000000000A8
:102632000000000000000000000000000000000098
:102642000000000000000000000000000000000088
:102652000000000000000000000000000000000078
:102662000000000000000000000000000000000662
:10267200060007070007070007070007070007070C
:102682000000000000000000000000000000000048
:102692000000000000000000000000000000000038
:1026A2000000000000000000000000000000000028
:1026B2000000000000000000000000000000000018
:1029F2000000000000808000E0E000000000000015
:102A020000000000000000000000000000000000C4
:102A120000000000000000000000000000000000B4
:102A220000000000000000000000000000000000A4
:102A32000000000000000000000000000000000094
:102A42000000000000000000000000000000000084
:102A52000000000000000000000000000000000074
:102A6200000000000000000000000000000000065E
:102A72000600070700070700070700000000000024
:102A82000000000000000000000000000000000044
:102A92000000000000000000000000000000000034
:102AA2000000000000000000000000000000000024
:102AB2000000000000000000000000000000000014
:102AC2000000000000000000000000000000000004
:102AD20000000000000000000000000000000000F4
:102AE20000000000000000000000000000000000E4
:102AF20000000000000000000000000000000000D4
:102B020000000000000000000000000000000000C3
:102B120000000000000000000000000000000000B3
:102B220000000000000000000000000000000000A3
:102B32000000000000000000000000000000000093
:102B42000000000000000000000000000000000083
:102B52000000000000000000000000000000000073
:102B62000000000000000000000000000000000063
:102B72000000000000000000000000000000000053
:102B82000000000000000000000000000000000043
:102B9200000000000000000000000000000000062D
:102BA200060007070000000000000000000000000F
:102BB2000000000000000000000000000000000013
:102BC2000000000000000000000000000000000003
:102BD20000000000000000000000000000000000F3
:102BE20000000000000000000000000000000000E3
:102BF20000000000000000000000000000000000D3
:102C020000000000000000000000000000000000C2
:102C120000000000000000000000000000000000B2
:102C220000000000000000000000000000000000A2
:102C32000000000000000000000000000000000092
:102C42000000000000000000000000000000000082
:102C52000000000000000000000000000000000072
:102C62000000000000000000000000000000000062
:102C72000000000000000000000000000000000052
:102C82000000000000000000000000000000000042
:102C92000000000000000000000000000000000032
:102CA2000000000000000000000000000000000022
:102CB2000000000000000000000000000000000012
:102CC20000000000000000000000000000000006FC
:102CD20006000404040404040404040404040404B4
:102CE20000000000000000000000000000000000E2
:102CF20000000000000000000000000000000000D2
:102D020000000000000000000000000000000000C1
:102D120000000000000000000000000000000000B1
:102D220000000000000000000000000000000000A1
:102D3200000000000000000000000000000010275A
:102D4200E80364000A000100001000011000010005
:102D5200C10053495455383838380000000020006B
:102D62000000000000004154245454444556494494
:102D72003F0A0D0041542B4353510A0D0041542484
:102D820054544E455449503F0A0D00415424545462
:102D92004750535152593D31302C300A0D004154A5
:102DA200245454534E444D473D342C222424424C47
:102DB20025732C2564256425642564323025642519
:102DC200642C2564256425642564256425642C52BD
:102DD200322C25642C25643A58582323220D0A00EC
:102DE2004154245454534E444D473D342C22242400
:102DF200424C25732C2564256425642564323025D4
:102E02006425642C25642564256425642564256471
:102E12002C53322C313233342C25643A5858232324
:102E2200220D0A0050256400425553005645525F58
:102E3200302E392E3000256425643A256425643A03
:102E4200256425640053494E2052555441002020E8
:102E5200525554413A20202000494E4943494F20BF
:102E6200444520534553494F4E002A0046494E20BF
:102E72005255544100494E4943494F2052555441FD
:102E8200002048412053414C49444F0044454C20C6
:102E920053495354454D41004E45434553495441CE
:102EA20020494E4943494152204A4F524E414441E2
:102EB200004D454E53414A453A004553434F4A411E
:102EC2002053552052555441002020525554413A26
:102ED2002020003230256425642D256425642D25AB
:102EE2006425640050616E74616C6C61004E6F20E9
:102EF2004175746F72697A616461000001002D4E40
:102F0200414E00000100B903522D04002605542D44
:102F120004002B05582D040000032A2E0A00040386
:102F22002E2E09000E03472E0B001703502E110000
:102F320022035B2E020033036C2E020035036C2E3B
:102F4200020037036C2E020039036C2E09003B038A
:102F52006E2E0C004403772E0B005003832E0C00C0
:102F62005B038E2E190067039A2E09008003B32E8D
:102F72000F008903BC2E0A009803CB2E0900A2037E
:102F8200E62E0E00AB03EF2E0C0003005C2D0100B9
:102F92006A05FE2E0000F894EE27EFBBF1E0F5BFC4
:102FA200E5BFF8E1A895A4B7A77FA4BFF09360009E
:102FB200E09360008DE0A2E0BB27ED938A95E9F7EC
:102FC20080E098E0A0E0B1E0ED930197E9F7E6E058
:102FD200FFE285919591009761F0A591B5910590D9
:102FE2001590BF01F00105900D920197E1F7FB01E9
:102FF200F0CFE0E0EEBBEFEFEDBFE8E0EEBFC0E008
:10300200D3E00C9473205F9A87E38A95F1F75F9877
:1030120087E38A95F1F70895169A179A5E985D9854
:10302200EFE3E8B9F0DF08951A935E985D98A981FD
:10303200BA81A034E0E0BE0720F4169A17981981ED
:1030420007C0179A1698E981FA81E054F0401E2FC2
:10305200E12FE064EF771E2F18B9D5DF18813BC04E
:103062001A935E985D98E981E86BEF7B1E2F18B981
:10307200CADF188130C0EA81FB810E94A425E88161
:10308200F9810E94A825249608955E9A5D98E881A8
:10309200E8B98DED90E00197F1F7B5DF219608953B
:1030A2001A930A930E94AC250E94B125E0E4F0E055
:1030B200FA93EA930E94B125169A00E010E00134D7
:1030C200E0E01E0734F4E0E0EA93DFDF0F5F1F4F1A
:1030D200F6CF19810881239608951A930A9300E086
:1030E20010E00830E0E01E072CF40A93D9DF0F5FEE
:1030F2001F4FF7CF0991199108951A93EB81FC8123
:103102000E94A425E981FA810E94A82510E01830C6
:1031120080F4ED81FE810E946D28DF010E94B725B7
:10312200EA0FFB1FE458FF4FE491EA93AEDF1F5F03
:10313200EECF188141C10E94ED2820E010E0EC8121
:103142001E1700F500E00830D8F40E94BA25F0E01E
:10315200F595E795EC93ED81E1703E2F303021F04B
:103162000E94BA25E068EC932F5FEC81E21731F4FC
:10317200ED81F0E0F595E795ED8320E00F5FE3CF79
:103182001F5FDDCF0E94F42828960895EF972197BC
:103192000E94ED280E94C1250E94A425FE01EB5B3E
:1031A200FF4F0190F081E02D0E94A82510E0183019
:1031B20008F50E94B725BF010E946D28DE01149612
:1031C200EA0FFB1FFA93EA93FE01E55BFF4F0190C2
:1031D200F081E02D0E946D28E60FF71FE458FF4FA3
:1031E200E491EA93FE01E95BFF4FE081EA93A3DFFA
:1031F2001F5FDDCF00E0FE01EC5BFF4FE0810E17A9
:1032020010F00C94541910E0183010F00C94461978
:1032120030E0FE01EC5BFF4FE0813E17A0F5E32FAB
:10322200F0E0DE01A95BBF4F0D90BC91A02DEA0F2B
:10323200FB1FBF01DE01AC5BBF4FAC91BB270E94FD
:10324200B7250E948128DB01AE0FBF1FA034E0E04A
:10325200BE0749F4E0E4F0E0FA93EA930E94C12544
:10326200FA93EA9308DF0E94B7250E946D28DE01D7
:103272001496AE0FBF1FEE27A00FBE1FEC91EA936C
:1032820004DF3F5FC6CF1F5FBFCF0E94C125FA9305
:10329200EA93DE01A95BBF4F0E94C825FA93EA9325
:1032A200EADE0F5FA8CF0E94F428EF962C960895CD
:1032B200A981A13011F00C94D5190E94CE25E138D4
:1032C200A0E0FA0711F4EAEF17C0E039A0E0FA072C
:1032D20011F4EBEF11C0E839A0E0FA0711F4ECEFBA
:1032E2000BC0EE38A0E0FA0711F4EDEF05C0ED389F
:1032F200A0E0FA0711F4EEEFEE83AE81A13CB0F04C
:10330200A091B903B091BA03A13CE0E0BE0774F00A
:103312000E94D1253596E491E03041F00E94CE25FD
:103322000E94DE253496E491E03009F417C00E9431
:10333200D125DF01E091BB03F0E03196EA0FFB1FDC
:10334200E4910E94E725E091BC030E94E725E09109
:10335200BD030E94E725D1DEE2E001C0E0E0E09398
:10336200BB03AE81A13C58F00E94CE250E94DE250F
:10337200DF01E091BB030E94EB25E49101C0EE81E5
:10338200F0E00E94EF250E94EF250E94F4250E94A2
:10339200CE25E093B903F093BA03EC81E093BC032A
:1033A200EA81E093BD0308C00E94CE250E94EF256A
:1033B2000E94EF250E94F425279608951A930A93F6
:1033C20010E000E00E94FA2518F4AC81A03009F068
:1033D20029C00E94B7250E940526EC91EA930E941B
:1033E2000A260E940A26E0E00E940F260E94142666
:1033F200AF81B885EA0FFB1FEF83F8870E941F2673
:10340200A0E8B0E00E94C728EA1BFB0BAF81B88599
:10341200EA17FB072CF4E0E0EF83E8870E942426FA
:103422001F5FD0CF0E94FA2518F4AC81A13009F0B9
:1034320075C00E94B7250E940526AC91A13E21F4D9
:103442000E942D26A73C09F002C009EF29C00E9464
:10345200B7250E940526AC91A13E21F40E942D269B
:10346200A33C09F002C007EE1BC00E94B7250E94D0
:103472000526AC91A13E21F40E942D26A23C09F022
:1034820002C008EE0DC00E94B7250E940526AC912D
:10349200A13E21F40E942D26A53C09F001C009EEAF
:1034A200003079F00A930E943326E1E00E940F2651
:1034B2001E5F0E941F26AF81B8850E943E2600E053
:1034C2001CC00E94B7250E940526EC91EA930E9437
:1034D2003326E9850E940F260E94B7250E94052601
:1034E200AC91A03219F40E94142602C00E941F2639
:1034F200AF81B8850E943E261F5F0E941F2631962B
:10350200AF81B885AE17BF0744F40E941F26A0E81A
:10351200B0E00E943E260E94242684CFE1ECF0E037
:10352200E093B903F093BA03198108812B960895A9
:103532000E94ED2808851985EC81FD81E017F107CD
:1035420000F12A853B85EE81FF81E217F307B0F097
:103552003A932A931A930A938EDDA0E8A09FF00172
:10356200A19FF00DE20FF31FAC85BD85EA0FFB1F93
:10357200E491EA938ADD2F5F3F4FE5CF0F5F1F4F44
:10358200DBCF0E94F4282E960895EA93FA93EFB7C0
:10359200EA931A930A931091C0000091C600E09139
:1035A200C000E07811F4F19801C0F19AE12FEC71BA
:1035B20081F4E62D6394F0E0E254FC4F0083E8ECE2
:1035C200E61509F466248394E8ECE81511F48824DE
:1035D200F09A09911991E991EFBFF991E991189542
:1035E2000A921A92FA926A937A938A939A93AA9374
:1035F200BA93EA93FA93EFB7EA93E6E0E6BDAAE557
:10360200B5E00E94C825A0915A05B0915B059B9731
:1036120011F00C94AB1B0E9443260E944826E0E066
:10362200E0935A05E0935B050E944326E13021F4C2
:103632000E944D26E13009F002C00E9452260E94EB
:103642004326E13021F40E944D26E23009F004C005
:10365200E6E7FDE20E945B260E944326E13021F468
:103662000E944D26E33009F004C0EFE7FDE20E941C
:103672005B260E944326E13021F40E944D26E4306D
:1036820009F004C0EDE8FDE20E945B260E94432699
:10369200EA3010F40C94AB1B0E9462260E944D2665
:1036A2000E9448260E944D26E63010F40C94AB1B73
:1036B2000E9468260E946E260E9448260E946E265C
:1036C200EA3010F40C94AB1B0E9473260E947926F8
:1036D2000E9448260E947926E630E0F10E947E266A
:1036E2000E9484260E9448260E948426EA3090F195
:1036F2000E9489260E948F260E9448260E948F26B9
:10370200E23021F40E948426E33009F013C00E94C3
:103712007926E53021F40E946E26E93009F00AC0CC
:103722000E944D26E53021F40E944326E93009F03B
:1037320001C001C00FC0AAE8B0E0E0E00E94DA28B0
:103742000E9489260E947E260E9473260E94682675
:103752000E946226E991EFBFF991E991B991A9918D
:103762009991899179916991F99019900990189597
:103772005C9A0E9494265C980E94942608951A935B
:10378200E981F0E0E054F0401E2F113010F01536C0
:1037920008F002C0E12F01C0E0E0188122960895EE
:1037A2007A92EDDFE0933105E0EAFDE20E949A268B
:1037B2000E94D426E09161050E94D4260E946E26C2
:1037C2000E94D426E0915F050E94D4260E944326DF
:1037D2000E94D426E09131050E94D426ED2D0E944C
:1037E200D4268CE30E946E25EE960895E2EEFDE269
:1037F2000E949A260E94D426E09161050E94D42656
:103802000E946E260E94D426E0915F050E94D42673
:103812000E9443260E94D426E09159050E94D42694
:1038220088E30E946E25EA960895A0E00499A1E03B
:10383200A03019F4E0E0EA1509F02FC0E09130055C
:10384200EF5FE0933005E1E0AE2E0E94DA26E091D0
:1038520030050E94E22659F4E2E0E0934E05E1E0F1
:10386200E0935905C3DFE1E0E093310515C0E23092
:10387200A0E0FA0789F4E1E0ED1521F4E0913005CA
:10388200E15008C0E0E0E0935905E5E0E0934E0521
:10389200ADDFE0E0E093300507C0049B03C0E1E048
:1038A200EA1509F001C0AA240895A0E00399A1E055
:1038B200A03049F4E0E0E91531F4ED1521F4A091CE
:1038C2005905A13009F011C0E0913105EF5FE09395
:1038D20031054EDFE1E09E2EA0913105AD3010F0B2
:1038E200E09331050E94E72607C0039B03C0E1E095
:1038F200E91509F001C099240895A0E00299A1E018
:10390200A03049F4E0E0EC1531F4ED1521F4A0917A
:103912005905A13009F012C0E0913105E150E09360
:10392200310526DFE1E0CE2EA0913105A03019F459
:10393200ECE0E09331050E94E72607C0029B03C03A
:10394200E1E0EC1509F001C0CC240895A0E0019952
:10395200A1E0A03039F4E0E0EB1521F4A091590583
:10396200A13009F026C0B394E0913205EF5FE093F5
:1039720032050E94DA26E09132050E94E22639F4ED
:10398200E1E0DE2EE4E0E0934E050ADF11C0E23012
:10399200A0E0FA0769F4E0E0E0933105DD24E3E01A
:1039A200E0934E05FDDEE0E27E2EE0E0E09332059C
:1039B20007C0019B03C0E1E0EB1509F001C0BB2485
:1039C2000895E0913305EF5FE0933305E3940E949D
:1039D200DA26E09133050E94E22659F1E230A0E0B6
:1039E200FA0739F1E330A0E0FA0719F1E430A0E078
:1039F200FA07F9F0E530A0E0FA07D9F0E630A0E0E6
:103A0200FA07B9F0E730A0E0FA0799F0E830A0E051
:103A1200FA0779F0E930A0E0FA0759F0EA30A0E0BD
:103A2200FA0739F0EB30A0E0FA0719F4E0E0E0938E
:103A320033050895E0913805F0913905E130A0E0B1
:103A4200FA0719F4E0E2FBE214C0E230A0E0FA0760
:103A520019F4E0EFF9E20DC0E330A0E0FA0719F43F
:103A6200E0EFF5E206C0E430A0E0FA0769F4E0E531
:103A7200FCE2FA93EA930E94AC250E94AC250E94D4
:103A8200ED260E94F22654DD08956397E0E0EB876D
:103A9200EC87ED87EE87EF87E88BE98BEA8B0E9454
:103AA200EB2820E030E000E010E0083CE0E01E07F8
:103AB20014F00C945F200E94F726A432B1F40E9405
:103AC200FC26A43291F40E940127A43571F40E94CD
:103AD2000627A83751F40E940B27A43731F4F801C6
:103AE200ED53FC4FA081AC3209F02EC04424E0EA31
:103AF200E41590F0E42DF0E0BF01EA57FB4F0F010F
:103B0200D8011696FB01EA0FFB1FE254FC4FE0813D
:103B1200D001EC9343940BC0E1E03E2ED8011696FF
:103B2200E42D0E94EB25E254FC4FACE2A083D801C5
:103B32001696E42D0E94EB25E254FC4FA081AC3294
:103B4200B1F6E7E0E0934E050E94F726AB3281F42E
:103B52000E94FC26A33461F40E940127A33541F49C
:103B62000E940627A13521F40E940B27AA3309F0EF
:103B720046C0F8010E941027AAE0B0E00E94812806
:103B8200DF01F8010E941627EA0FFB1FEF87F88B6F
:103B9200AF85B8891B9724F0AF85B8891F970CF0C1
:103BA20005C0E1E0F0E00E941C2729C0AF85B8897A
:103BB2001F9724F0AF85B88952970CF005C0E2E058
:103BC200F0E00E941C271BC0AF85B889529724F0F1
:103BD200AF85B8895F970CF005C0E3E0F0E00E9482
:103BE2001C270DC0AF85B889909724F0AF85B8899E
:103BF200D2970CF004C0E4E0F0E00E941C270E947F
:103C0200F726A23441F40E94FC26A53521F40E9435
:103C12000127A33509F087C0F801E253FC4F0E9447
:103C22002127E0934A05F801E153FC4F0E94212726
:103C3200E0934B05F801E053FC4F0E942127E093EB
:103C42004C05F801EF52FC4F0E942127E0934D05ED
:103C5200A0914D05A13119F4EAE0E0934D05A09140
:103C62004A05A13130F0E0914A05F0E03797E09340
:103C72004A05A0914B05A13130F0E0914B05F0E0EF
:103C82003797E0934B05F801EC52FC4FA081A1332A
:103C920031F4F801EB52FC4FA081A83309F043C084
:103CA200E1E0E0934E05A0914C05EAE0EA02F00162
:103CB200DF01E0914D050E94EB25E0935305F0935F
:103CC2005405A0914A05E0E1EA02F0013197DF01D3
:103CD200E0914B05F0E0AE0FBF1FEAE0F0E00E947A
:103CE2008128E0935505F0935605A0915305B091B4
:103CF2005405EA0FFB1FE0935705F0935805EFE4D4
:103D0200F5E0FA93EA93E6E2FEE2FA93EA93E091AF
:103D12005705F09158050E9474280E94C22884E039
:103D22000E943E2528960E94F726AE3481F40E9416
:103D3200FC26A53461F40E940127A43541F40E94B7
:103D42000627A93421F40E940B27A03509F047C0A9
:103D52000E942527293CE0E03E075CF40E942B27C5
:103D620029F40E94332711F40E943C272F5F3F4F12
:103D7200F1CFED89FE89E054FC4FA081A23279F5A2
:103D82000E9443270E942127E9F40E9448270E94AB
:103D92002127C1F40E944D270E94212799F4ED8921
:103DA200FE890E94162771F4ED89FE89EA53FC4FC1
:103DB2000E94212739F4ED89FE89E953FC4F0E94C4
:103DC200212709F006C0E0E0E0933405E0933505D1
:103DD20006C0E1E0F0E0E0933405F09335050E947F
:103DE200F726A43481F40E94FC26A53461F40E94D3
:103DF2000127A63541F40E940627A93421F40E9426
:103E02000B27A43409F03DC00E942527293CE0E09D
:103E12003E075CF40E942B2729F40E94332711F4F9
:103E22000E943C272F5F3F4FF1CF0E945227A08173
:103E3200A23239F5ED89FE89E054FC4FA081E09170
:103E42002B05EA17A9F40E944327A081E0912C05D3
:103E5200EA1771F40E944827A081E0912D05EA1724
:103E620039F40E944D27A081E0912E05EA1709F04E
:103E720003C00E94572705C0E0E0E0935C05E09391
:103E82005D050E94F726A73481F40E94FC26A03526
:103E920061F40E940127A23541F40E940627AD3445
:103EA20021F40E940B27A33409F005C10E942527A3
:103EB200293CE0E03E0724F5F901E40FF51FE15447
:103EC200FC4FA081AC32C9F40E94332711F40E9446
:103ED2003C27AF89B88D129731F4FA01E20FF31F34
:103EE2003196EB8BFC8BAF89B88D199731F4FA01BF
:103EF200E20FF31F3196E98BFA8B2F5F3F4FD8CF3A
:103F02000E9452270E942127FF2352F03A9744F43D
:103F1200ED89FE893196AB89BC89EA17FB0709F462
:103F220081C0ED89FE890E941027EE83AE81A03008
:103F320010F0AA3008F005C0EE81A0E8B0E00E94BF
:103F4200DA280E944D270E942127EE83AE81A030FD
:103F520010F0AA3008F005C0EE81A2E8B0E00E949D
:103F6200DA280E9448270E942127EE83AE81A030E2
:103F720010F0AA3008F005C0EE81A4E8B0E00E947B
:103F8200DA280E9443270E942127EE83AE81A030C7
:103F920010F0AA3008F005C0EE81A6E8B0E00E9459
:103FA200DA28ED89FE89E054FC4F0E942127EE8336
:103FB200AE81A03010F0AA3008F004C00E94CE25D5
:103FC200EB87FC870E9452270E942127EE83AE8155
:103FD200A03010F0AA3008F004C00E94CE25ED8770
:103FE200FE87ED85FE85AAE0B0E00E948128AB85C0
:103FF200BC85EA0FFB1FE987FA873597EF83F887BD
:10400200A885AA234AF47896EF83F8870E945E2750
:104012000E9463270E946A270E945E270E946327EC
:104022000E946A27EB89FC89E154FC4FE081F0E0B1
:10403200E0933605F09337050E947127FF2312F0B3
:104042003A970CF038C00E947127AEE8B0E00E94A7
:104052007627E054FC4F0E942127ACE8B0E00E9492
:104062007627EF53FC4F0E942127A2E9B0E00E947D
:104072007627EE53FC4F0E942127A0E9B0E00E9470
:104082007627ED53FC4F0E942127A6E9B0E00E945B
:1040920076270E941027A4E9B0E00E94DA28AF81B7
:1040A200B885539744F00E947B27F0E03197ACE843
:1040B200B0E00E94DA280F5F1F4FF7CC88246624F5
:1040C200F19A00E010E0083CE0E01E073CF4AEEBA1
:1040D200B3E00E9480270F5F1F4FF5CF0E94F228A6
:1040E2006996089500E010E0E0E8E0936100E0E006
:1040F200E0936100EFEFE7B9E2B9E0EFE1B9E0E0A8
:10410200E5B9EFEFE4B9E0E0EBB9E0EFEAB9E0E0FE
:10411200E093C000E8E9E093C100E6E0E093C2006A
:10412200E0E0E093C500E5E0E093C400E0E0E4BD38
:10413200E5E0E5BDE0E0E6BDE7BDE8BDE1E0E09336
:104142006E000E940D18EAE0F0E00E9485270E94AE
:104152008B27E0EFF9E00E948F270E94AC250E9496
:1041620092270E949727E0EDF7E00E948527E0EF73
:10417200FDE00E948F270E94AC25EDE2F0E00E9454
:104182009D27E6E2F5E0FA93EA93E7E3F0E00E9486
:10419200A027E0E0F3E0FA93EA93EBE3F0E00E9479
:1041A200AE27EBE2F5E0FA93EA93E2E5F0E00E9453
:1041B200AE27E4E0F3E0FA93EA93E8E2F0E00E944B
:1041C200BC270E94C127E0EDF7E00E9485270E94EC
:1041D2008F26EF3F79F4AAE8B0E0E0E00E94DA2807
:1041E2000E947E260E9468260E9489260E947326CB
:1041F2000E9462260E94CB27EF3F41F40E947B2758
:10420200EF3F21F40E94D027EF3F09F019C0ACE83C
:10421200B0E0E0E00E94DA28AEE8B0E00E94DA28DE
:10422200A0E9B0E00E94DA28A2E9B0E00E94DA2810
:10423200A4E9B0E00E94DA28A6E9B0E00E94DA28F8
:1042420000E010E0003AE0E01E073CF4A6E8B4E02B
:104252000E9480270F5F1F4FF5CF7894E0EFF1E1C6
:104262000E948F270E94D527E9E1F0E00E949D2756
:104272000E94522686E695E00197F1F706DCAA2411
:104282009924CC24E0E0E09331050E945727F1996C
:1042920002C0FBDBF19AE0913105E03011F4E0E27B
:1042A20003C0E0913105E05C7E2EC4DBBEDAFDDAAC
:1042B20024DB4CDB86DBA0915C05B0915D05119798
:1042C20011F00C949F23A0913405B09135051197FC
:1042D20011F4E5E401C0E0E2EA93E3E1F0E00E94D8
:1042E2008F27E1E00E94DA27E0914E05E03011F0DD
:1042F2000C941522EAE3F5E0FA93EA93E8E3FEE28E
:10430200FA93EA930E948F260E94D4260E94842662
:104312000E94D4260E9479260E94D4260E946E26EC
:104322000E94D4260E944D260E94D4260E94432633
:104332000E94D42688E10E943E256C960E94432664
:10434200E0935E050E944D26E0935F050E946E2673
:10435200E09360050E947926E09361050E9484261D
:10436200E09362050E948F26E09363050E947B27FB
:10437200E0936405AEE8B0E00E94CE28E0936505C4
:104382000E94CB27E0936605A2E9B0E00E94CE2806
:10439200E09367050E94D027E0936805A6E9B0E0A4
:1043A2000E94CE28E0936905EAE3F5E00E94BC276B
:1043B2000E94A027E0913105E03051F4EEE0F3E0F5
:1043C200FA93EA93E3E2F0E00E94BC270E94C1273D
:1043D200A0915905A130E9F4E0EFF9E10E948F279D
:1043E2000E94D527E3E2F0E00E949D27E7E1F3E097
:1043F2000E94DF270E94BC270E94C1277A92EFE425
:10440200F0E00E94BC27FA93EA93E0E00E94DA27E8
:104412000AC0E0EFF1E10E948F270E94D527E9E16F
:10442200F0E00E949D273EC1A0914E05A13001F50A
:104432000E94E4270E94F2260E945928EFE4F5E048
:10444200FA93EA93E0E3F0E0FA93EA93E3E0F0E030
:10445200FA93EA93E0E0EA93E2E0EA93E1E0EA9396
:104462000E94DF190E948B270E94F427E0E018C106
:10447200A0914E05A23011F00C9480220E94E427F4
:104482000E94F2260E945928E2E2F3E0FA93EA93AC
:104492000E94D5270E94FB27ECE2F1E00E94FE2752
:1044A200E3E3F3E0FA93EA93EDE2F0E00E940228FC
:1044B2000E94E726E5E3F3E0FA93EA93E5E3F0E00E
:1044C2000E9402280E94E726E7E3F3E0FA93EA93C8
:1044D200EDE3F0E00E9402280E94E726E9E3F3E020
:1044E200FA93EA93E5E4F0E00E9402280E94E726AC
:1044F2000E948B270E9407280E94E427D0C0A09127
:104502004E05A330B1F40E94E4270E94F2260E94D5
:104512005928EBE3F3E0FA93EA93ECE1F0E0FA9343
:10452200EA930E940A280E948B270E94F427E0E067
:10453200B7C0A0914E05A430A1F40E94E4270E94C6
:10454200F2260E945928E4E4F3E00E940D280E941A
:104552000A280E948B270E9407280E94E427E0E095
:104562009FC0A0914E05A530E1F40E94E4270E946D
:10457200F2260E945928E0E5F3E00E940D280E94ED
:10458200FB27EBE5F3E00E940D28E4E0F0E00E9457
:10459200C1270E948B270E9407280E94E427E0E09F
:1045A2007FC0A0914E05A630A1F40E94E4270E948C
:1045B200F2260E945928E7E6F3E00E940D280E94A5
:1045C200FB270E948B270E9407280E94E427E0E035
:1045D20067C0A0914E05A730F1F50E946E18E0E881
:1045E200F3E00E94DF270E948F270E941028E6E84E
:1045F200F4E00E948F270E94F2260E941028E8EB26
:10460200FBE00E94FE27049B08C0039B06C0029B9E
:1046120004C0019B02C0009901C00CC0049B08C0E9
:10462200039B06C0029B04C0019B02C0009901C00B
:10463200F5CFE9CF0E946E1800E010E0003AE0E00A
:104642001E073CF4A6E8B4E00E9480270F5F1F4FCC
:10465200F5CFE0E025C0A0914E05A83019F50E94E3
:10466200E4270E94F2260E945928E9E8F3E00E941A
:104672008F270E940A280E948B27E8E9F3E00E9414
:10468200DF270E94BC270E94C1277A92EFE4F0E064
:104692000E94BC27FA93EA93E0E00E94DA27E8E05E
:1046A200E0934E050E941828A134E0E0BE0719F4F9
:1046B200E0EFFDE10BC00E941828A635E0E0BE073E
:1046C20019F00E941828D997E0EFF1E2FA93EA93E1
:1046D200EFE5F0E00E948F270E9492270E94F226C7
:1046E2000E94991AE2E4F5E0FA93EA93E5EDFEE21C
:1046F200FA93EA93A6E9B0E00E941D280E94D0270F
:104702000E94D426A2E9B0E00E941D280E94CB2775
:104712000E94D426AEE8B0E00E941D280E947B27AA
:104722000E94D42688E1A9D16C96E2E4F5E0FA93DE
:10473200EA93E2E2F0E00E94AE2710C0E2EAF3E080
:104742000E94DF27FA93EA930E94FB27EBEAF3E049
:10475200FA93EA93EFE0F0E00E940228E0EFF5E13D
:10476200FA93EA93E9E6F0E0FA93EA930E94D527F6
:104772000E9492270E9497278ACDFFCFE091C00026
:10478200E072E1F3E881E093C60021960895EA81A0
:10479200EA93F4DFA881B9810E94C825239608957F
:1047A2001A930A93AA81BB8112960E94BA28309763
:1047B20029F1AA81BB8114960E94BA288F013097F1
:1047C20061F00230E0E01E07C0F0F80131978F017E
:1047D200AA81BB811496ED93FC93AA81BB811296A8
:1047E2000E94C8253197AC81A083AA81BB810E9417
:1047F200BA28FF2312F00E94C82506C0AA81BB81F5
:10480200EFEFFFEFED93FC93198108812596089550
:1048120026970E94EB2810E0AC85BD85E0E0F0E031
:10482200ED93FC93EA89FB893196EA8BFB8B3197F6
:10483200E4912E2FE03011F40C943625E12FE03074
:1048420039F4253211F411E002C00E9420280CC173
:10485200E130A9F4253219F40E94202804C112E0A3
:1048620040E000E02D3211F401E0FEC02B3211F4E1
:104872004BE2FAC0203211F440E2F6C002C0E2304C
:1048820039F450E013E0203311F40068EDC004C0A5
:10489200E33011F00C943525203310F02A3308F060
:1048A20007C0AAE05A9F502DE22FE0535E0FDCC0F2
:1048B200E22FE33649F40E942928E889F989A48184
:1048C200AA930E942F28CFC0E33741F40E942928DF
:1048D2000E9437280E948F251E2F0AC0E03761F4FC
:1048E2000E9429280E9437280E9499251E2F0860BD
:1048F20002600F7730E035C0E43611F0E93611F48A
:10490200046002C0E53731F4E0E4FDE2EE83FF83A8
:1049120015E00DC0E83511F4086004C0E83711F065
:104922000C943425EAE4FDE2EE83FF8314E002FFF7
:1049320014C00E9429280E944128AB85AA233AF478
:10494200EA85FB850E946928EA87FB874DE24030B1
:1049520011F01F5F01C00B7F04C00E9429280E9432
:10496200412800FD11C0151778F407FF08C002FFA7
:1049720004C00B7F242F115001C020E301C020E2AC
:104982000E9420285150EFCF312F01FF17C0303045
:10499200A1F003FF06C0EE81FF812591EE83FF8324
:1049A20005C0AE81BF812D91AE83BF830E942028B6
:1049B200503009F051503150EACF4BC020E3EE8124
:1049C200FF810E94BE28E887F987EE81FF81329637
:1049D200EE83FF83E885F985AA85BB85AE17BF07FD
:1049E20050F02F5FA885B985EA85FB85EA1BFB0B92
:1049F200EA87FB87EFCF2A3328F003FF02C0295F43
:104A020001C0295D04FD1AC0213320F4A885B985AF
:104A1200119709F409C0531710F000FF01C013C029
:104A220020E207FF0BC020E3006102FF07C00B7FFB
:104A32004A930E942F28503009F051500E9420289A
:104A4200503009F051503150A885B985129708F0BD
:104A5200B5CF00FF08C0503031F05150E0E2EA9388
:104A62000E942F28F8CF10E0DDCEAC85BD850E94D4
:104A7200BA280E94F22864960895FF92F82E26978B
:104A82000E94ED280E944928309719F4EFEFFFEFBA
:104A92001FC0DE0116960E9465288D010E944928DA
:104AA200EE83FF83E0E0E887E987DE011A960E9441
:104AB2005028E1EDF3E2FA93EA93FE013A96FA9373
:104AC200EA93A6DE9F01AE81BF81E0E0EC93F9019B
:104AD2000E94F4282A96FF900895FF92F82E2697B6
:104AE2001A930A93DE0114960E9465288D01E0E074
:104AF200EC83ED83EE83EF83DE0118960E9450284B
:104B0200E8ECF3E2FA93EA93FE013896FA93EA9319
:104B12007FDE198108812896FF900895A991B991A5
:104B2200EE27FF276D91662311F03196FBCF089592
:104B3200AA27BB27E991F9910590002011F011965F
:104B4200FBCFFD010895FA93EA930C941518FA939A
:104B5200EA930C943118E0E0F0E0FA93EA930895B6
:104B6200EC81F0E0FA93EA930C943C18E12FF0E028
:104B72000895AE81BF81EE27A10FBE1FEC9108956B
:104B8200FE01E95BFF4F0190F081E02D0895ED9168
:104B9200FD913196FE93EE930895EE81F0E0089533
:104BA200E091B903F091BA03E15CF040A6E0B0E015
:104BB2000E947928E458F74F0895E15CF040A6E09E
:104BC200B0E00E947928E458F74F0895F0E0FA9394
:104BD200EA930895F0E0EA0FFB1F0895FA93EA932F
:104BE200EE81FF810895FA93EA93EE81EA930C94A1
:104BF200C718E985FA85FA93EA930E948F25A12FB7
:104C0200B0E0AE17BF070895A985BA85AE0FBF1FE2
:104C12000895E885F985FA93EA930895EA93E98578
:104C2200EA930C945919EA81F0E0E7FDFFEF389618
:104C3200DF01EB81F0E00E9481280895EB81A8E07A
:104C4200EA02F0010895EB81F0E0AD81BE81EA0F46
:104C5200FB1FED83FE830895A985BA85EA0FFB1F2A
:104C6200A1810895EC81A8E0EA02F001A885B98546
:104C7200AE1BBF0BBA93AA93CCCFAE1BBF0BAF83B5
:104C8200B8870895A0E8B0E00E94CE280895EF5FAB
:104C92000E94DA28E1500895A2E8B0E00E94CE28EE
:104CA2000895E8E6FDE2FA93EA9380E00E946E2519
:104CB20022960895FA93EA9380E00E946E25229646
:104CC2000895A0E8B0E0E0E00E94DA280895A2E8A2
:104CD200B0E0E0E00E94DA280895A4E8B0E00E9483
:104CE200CE280895A4E8B0E0E0E00E94DA28089512
:104CF200A6E8B0E00E94CE280895A6E8B0E0E0E081
:104D02000E94DA280895A8E8B0E00E94CE2808950B
:104D1200A8E8B0E0E0E00E94DA280895AAE8B0E04E
:104D22000E94CE280895E4E6F0E0FA93EA930C9408
:104D32005928FA93EA93EBE2F5E0662777270E9477
:104D4200C228E0916505FF27662777270E94C228BF
:104D5200E0916405FF27662777270E94C228E09129
:104D62006705FF27662777270E94C228E09166051C
:104D7200FF27662777270E94C228E0916905FF274F
:104D8200662777270E94C228E0916805FF276627D9
:104D920077270E94C228E0916305FF2766277727BD
:104DA2000E94C228B0CFFF27662777270E94C22819
:104DB20008950E94B91BE8ECF0E0FA93EA930C9490
:104DC2005928F0E0E130A0E0FA070895E8ECF0E0BD
:104DD200FA93EA930C945928E4E1F0E0FA93EA9307
:104DE2000895E1E0F0E0FA93EA930895F801E254BD
:104DF200FC4FA0810895F801E154FC4FA081089571
:104E0200F801E054FC4FA0810895F801EF53FC4FE4
:104E1200A0810895F801EE53FC4FA0810895EC5350
:104E2200FC4FE081F0E0F0970895EB53FC4FE081F6
:104E3200F0E0F0970895E0933805F093390508956E
:104E4200E081F0E0F0970895F8013496AF0120E098
:104E520030E00895F901E40FF51FE154FC4FA08101
:104E6200AA330895EF89F88D3196EF8BF88FAF89C9
:104E7200B88D11970895FA01E20FF31F3196ED8B69
:104E8200FE8B0895ED89FE89EF53FC4F0895ED895D
:104E9200FE89EE53FC4F0895ED89FE89ED53FC4FD8
:104EA2000895ED89FE89E154FC4F0895E1E0F0E0B8
:104EB200E0935C05F0935D050895AF81B885EAE063
:104EC200F0E008950E949E28A8E8B0E00E94DA2847
:104ED200F4CF0E949928AAE8B0E00E94DA28089547
:104EE200E989FA89E154FC4FABCF0E94DA28E989BB
:104EF200FA890895ACE8B0E00E94CE280895A00F88
:104F0200B11FE0E0EC930895FA93EA930E945928C6
:104F12000C946E180E94B91B0C94B91BFA93EA9375
:104F22001ACEEFE7F0E0FA93EA930895E7E0F0E0B3
:104F3200FA93EA930C94991AFA93EA93F7CFFA93B5
:104F4200EA93E2E0F0E0FA93EA93E0E0EA93E2E047
:104F5200EA93EFEFEA930C94DF19FA93EA93E5E010
:104F6200F0E0FA93EA93E0E0EA93E1E0EA93EFEF0C
:104F7200EA930C94DF19FA93EA93E7E0F0E00895DC
:104F8200FA93EA93E0E0EA93E1E0EA93EFEFEA933F
:104F92000C94DF19A0E9B0E00E94CE280895A4E99C
:104FA200B0E00E94CE280895E5E0F0E0FA93EA939B
:104FB2000895EA93E1E0EA930C945919FA93EA937B
:104FC200EEE1F0E00895E2E0EA930E945118E3E096
:104FD200EA930E945118E4E0EA930E945118E5E036
:104FE200EA930C945118E0EDF7E0FA93EA930E94E9
:104FF2005928E9CFE2E0F0E0C3CFFA93EA930C94A8
:105002005928FA93EA93E4E0F0E0BACFE8EEF3E04D
:10501200F4CFE3E0F0E0B4CFFA93EA93DDCEE0E040
:10502200EA93E1E0EA93EFEFEA930C94DF19A0919F
:105032003605B091370508950E94CE28B4CE2A9342
:10504200ED85FE85FA93EA93E989FA89099508952F
:10505200E889F9893497E88BF98B0895ED85FE8507
:10506200FA93EA93E989FA8909950895A889B98991
:1050720014960E94BA28EE83FF83FA93EA93089566
:10508200A889B98914960E94BA28EA87FB870895ED
:10509200DE011C960E9465280E94BA2808950E948B
:1050A20065280E94BA28FA93EA931A930A930895FC
:1050B200E991F991309639F08DEC9AE00197F1F788
:1050C200A8953197C9F708950024AF0DB01D089532
:1050D200F195E195F0400895EE0FFF1FEE0FFF1FCF
:1050E200EE0FFF1F08956F2F660F660B762F089540
:1050F200FA9FF02DEB9FF00DEA9FE02DF10D089540
:105102002AD0F6DF0EF4E4DF08950024112490E1A2
:10511200AA0FBB1F001C111C0E1A1F0A18F40E0E38
:105122001F1E01C0A1609A9599F7FD01D001089553
:1051320012D0EBDF0EF4CCDF0895E894B7FF04C081
:10514200A095B09511966894F7FDC2DFDEDFFD01F0
:105152000EF4BEDF0895E894F7FF02C0B9DF689449
:10516200B7FF06C0A095B095119600F8039400FA17
:105172000895ED91FC91119708950590F491E02D19
:1051820008957A936A93FA93EA9308951B2EBF2F98
:10519200F12D1A2EAE2FE12D0895F999FECFFF932E
:1051A200FFB7F894A1BDB2BDF89AE0B5FFBFFF9179
:1051B2000895F99B02C0A895FCCF9FB7F894A1BDB2
:1051C200B2BDF89A80B5E81719F0E0BDFA9AF99ADB
:1051D2009FBF08955A934A933A932A931A930A9334
:1051E20008955D814C813B812A811981088108954E
:00000001FF
