:020000000C945E
:10000200B7170C9400000C9400000C9400000C94A0
:1000120000000C9400000C9400000C9400000C945E
:1000220000000C9400000C9400000C9400000C944E
:1000320000000C9400000C9400000C9400000C943E
:1000420000000C9400000C94DC1A0C9400000C9438
:10005200B11A0C9400000C9400000C9400000C9453
:1000620000000C9400000C9400000C9400000C940E
:1000720000000C9400000C9400000000000000003E
:10008200000000000000000000000000000000006E
:10009200000000000000000000000000000000005E
:1000A200000000000000000000000000000000004E
:1000B200000000000000000000000000000000003E
:1000C200000000000000000000000000000000002E
:1000D200000000000000000000000000000000001E
:1000E200000000000000000000000000000000000E
:1000F20000000000000000000000000000000000FE
:1001020000000000000000000000000000000000ED
:1001120000000000000000000000000000000000DD
:1001220000000000000000000000000000000000CD
:1001320000000000000000000000000000000000BD
:1001420000000000000000000000000000000000AD
:10015200000000000000000000000000000000009D
:10016200000000000000000000000000000000008D
:10017200000000000000000000000000000000007D
:10018200000000004F000000000000070007000010
:1001920000000024FF24FF24000000444AFF4A32EA
:1001A200000040231308C4C2000000364955224013
:1001B20080000000050300000000003C42810000B6
:1001C20000000081423C000000000014083E0814B8
:1001D20000000010107C1010000000002818000021
:1001E200000000080808080808000060600000001D
:1001F20000004020100804020000007EFF8181FF01
:100202007E00008082FEFF80800000E2F191919FDB
:100212008E000062C3C9C9FF760000181412FFFFE6
:100222001000006F8F8989F97100007EFF8989F9BA
:100232007200000101F1FD0703000076FF8989FFCA
:10024200760000468F8989FF7E0000006666000006
:100252000000000056360000000000081422410091
:100262000000002424242424000000004122140859
:100272000000000201B109060000006291F1817ED6
:10028200000000FE111111FE000000FF898989762D
:100292000000007E81818142000000FF8181423C9A
:1002A200000000FF89898981000000FF0909090116
:1002B2000000007E81919172000000FF101010FF7B
:1002C2000000000081FF81000000004080817F016A
:1002D200000000FF18244281000000FF808080801F
:1002E200000000FF020C02FF000000FF040810FFE4
:1002F2000000007E8181817E000000FF1111110E3D
:1003020000007E81A141BE00000000FF1131518E2C
:1003120000000086898989710000000101FF010146
:100322000000007F8080807F0000003F4080403FCF
:100332000000003FC060C03F000000E3140814E367
:100342000000000708F00807000000C1A19189879A
:10035200000000FF8181000000000015167C1615C8
:1003620000000041417F000000000004020102047D
:100372000000004040404040000000010204000034
:100382000000006094949478000000FF88888870D0
:100392000000007884848400000000788484887FD0
:1003A200000000789494945800000010FE1101029D
:1003B2000000000C9292927E000000FF100808F0EC
:1003C2000000000084FD80000000006080807D004D
:1003D200000000FF304884000000000081FF800020
:1003E200000000FC043804F8000000FC080404F8D3
:1003F2000000007884848478000000FC141414083F
:1004020000000008141418FC000000FC0804040892
:100412000000008894949460000000047F8480406F
:100422000000007C808040FC0000003C4080403C9A
:100432000000003EC060C03E00000042241824427A
:10044200000000068888887E000000C4A4948C8482
:1004520000000008768100000000000000FF00009C
:10046200000000817608000000000008082A1C082D
:10047200000000081C2A08080000007C8281827C9F
:10048200000000000000000000000000000000006A
:10049200000000000000000000000000000000005A
:1004A200000000000000000000000000000000004A
:1004B200000000000000000000000000000000003A
:1008720000000000000000000000C1C1C1C1000072
:10088200C2C2FEFE0100C3C31F1F0100C4C4FCFCA0
:100892000100C5C5C5C50101C6BDBFBE0101C7C7AF
:1008A200C0C00100C88284830101C9C9FDFD0100E5
:1008B200CA8587860101CB888A890101CC8BCC8BC2
:1008C2000101CD8CCD8C0101CE11CE110101CFCF12
:1008D20013130100D0D08F8F0100D1D11B1B010057
:1008E200D2D291910100D39294930101D49597961B
:1008F2000101D5179A990101D69B9D9C0101D7D779
:10090200D7D70000D8D89E9E0101D9D99F9F010157
:10091200DAA0A2A10101DBA3A5A40101DCDCDCDCDD
:100922000000DDA6A8A70101DEA9ABAA0101DFAC88
:10093200AEAD0101E0E0E0E00000E1AFB1B00101E5
:10094200E2E2E2E20000E3B2B4B30101E4B5B7B619
:100952000101E5B8BAB90101E6E6BCBC0100E7E76E
:10096200E7E70000E8E8E8E80000E9E9E9E9000073
:10097200EAEAEAEA0000EBEBEBEB0000ECBDBFBEFB
:100982000101EDBDBFBE0101EEEEEEEE0000EFEFA4
:10099200EFEF0000F0F0F0F00000F1F1F1F10000F3
:1009A200F2F2F2F20000F3F3F3F30000F5F5F5F5DD
:1009B2000000F6F6F6F60000F7F7F7F70000F8F891
:1009C200F8F80000FBF9FBFA0101BBBBF4F40100EB
:1009D200811C1E1D010190181A1901019814161587
:1009E20001018E8E121201008D108D10010100C0C6
:1009F200F030381818181898B0B030303060606095
:100A0200606060C0C0C0C0C0C0C080808080800004
:100A120000000000000000000000000000000000D4
:100A220000000000000000000000000000000000C4
:100A320000000000000000000000000000000000B4
:100A420000000000000000000000000000000000A4
:100A52000000000000000000000000000000000094
:100A6200000000000000000000000000000000FF85
:100A7200FF00000C18F0E70FFD0F07000000000058
:100A820000000000000000000000010101818383DA
:100A920083C3E767E6C6060E0C0C0C0C0C1818187C
:100AA2007870E0C00000000000E0E00000000000FC
:100AB20080C0E06000E0E0606060606060E0C00014
:100AC200000080C06060C080000000E0E060606004
:100AD200606060C08000000080C06060C080000074
:100AE200000080C06060606060C08000000000FFA5
:100AF200FF00000000FFFF00FF00000000000000F8
:100B0200000000000080C06030188CC663311808F5
:100B120008090B0B0B090808080808081C3E363E9A
:100B22001C00FFFF0000000000FFFF70F88C8E0722
:100B32000301000000FFFFE0E0E06060607F3F0033
:100B4200FEFF616060606061FFFE00FFFF00000069
:100B5200000000FFFF00FEFF616060606061FFFE59
:100B620000FFFF000000000000000100000000FF85
:100B7200FF00000000FFFF003F30303030303030E7
:100B820030180CC6E331180C060301000000000007
:100B92000000000000000000000000000000000053
:100BA2000000FFFF00000000003F3F0000010307BC
:100BB2000E1C3830003F3F00000103070E3C380096
:100BC2003F3F0000000000003F3F003F3F30303019
:100BD2003030301F0F003F3F0000000000003F3F59
:100BE200000F1F303030303030381800000000FF66
:100BF200FF00000000FFFF00FF03030303030303E2
:100C020003060C193366CC983060C08000000000E7
:100C120000000000000000000000000000000000D2
:100C22000000FFFF000000000000000000000000C4
:100C320000000000000000000000000000000000B2
:100C420000000000000000000000000000000000A2
:100C52000000000000000000000000000000000092
:100C6200000000000000000000000000000000FF83
:100C7200FF00000000FFFF00FF0000000000000076
:100C8200000000000000000103060C193366444412
:100C920044E4F4B4F4E40404040404040E1F1B1F2B
:100CA2000E00FFFF000000FC0000000000F804043A
:100CB20004F8000C040404FC00F0888488F000802E
:100CC200808000FC8484040400F80404040800FC0E
:100CD200000000FC00F0888488F000FC040404F8A2
:100CE20000F8040404F800FC44C44438000000FF87
:100CF200FF00000603011C3E373E1C0000000000FE
:100D02000080808080C0C0C0C0C0E06060603030C1
:100D1200303031391918181C0C0C0C0C0E06060652
:100D2200070301000000000F080808080007080870
:100D32000807000608080807000F0000000F00005F
:100D42000000000F08080808000708080804000748
:100D520008080807000F0000000F000F0808080726
:100D6200000708080807000F0000010E000000013C
:100D720007060E0C0C0C0C0C0606060603030303F6
:100D82000301010101010000000000000000000059
:100D92000000000000000000000000000000000051
:100DA2000000000000000000000000000000000041
:100DB2000000000000000000000000000000000031
:100DC2000000000000000000000000000000000021
:100DD2000000000000000000000000000000000011
:100DE2000000000000000000000000000000000001
:100DF20000000000000000000000000000000000F1
:100E020000000000000000000000000000000000E0
:100E120000000000000000000000000000000000D0
:100E220000000000000000000000000000000000C0
:100E320000000000000000000000000000000000B0
:100E420000000000000000000000000000000000A0
:100E52000000000000000000000000000000000090
:100E62000000000000000000000000000000000080
:100E7200000000C0E0F0F0F8F8F8F8F8FCFCFCFC28
:100E8200FCFCFCFCFCFCFCFCFCFCFCFCFCFCFCFCA0
:100E9200F8F8F8F8F8F0E0E0C00000000000000008
:100EA2000000000000000000000000000000000040
:100EB2000000000000000000000000000000000030
:100EC2000000000000000000000000000000000020
:100ED2000000000000000000000000000000000010
:100EE2000000000000000000000000000000000000
:100EF2000000FEFFFF0301030303030303030303D5
:100F02000303030303FFFF030301030303030303B9
:100F12000303030303030307FFFE000000000000B6
:100F220000000000000000000000000000000000BF
:100F320000000000000000000000000000000000AF
:100F4200000000000000000000000000000000009F
:100F5200000000000000000000000000000000008F
:100F6200000000000000000000000000000000007F
:100F72000000FFFFFFC0C0C0C0C0C0C0C0C0C0C032
:100F8200C0C0C0C0E0FFFFE0C0C0C0E0D0C8C4C461
:100F9200C4C4C8D0E0C0E0F0FFFF000000000000C1
:100FA200000000000000000000000000000000003F
:100FB200000000000000000000000000000000002F
:100FC200000000000000000000000000000000001F
:100FD200000000000000000000000000000000000F
:100FE20000000000000000000000000000000000FF
:100FF2000000FFFFFFFFFFFFFFFFFFFFFFFFFFFFFD
:10100200FFFFFFFFFFFFFFFFFFFFFFFFFFFFFFFFEE
:10101200FFFFFFFFFFFFFFFFFFFF000000000000D8
:1010220000000000000000000000000000000000BE
:1010320000000000000000000000000000000000AE
:10104200000000000000000000000000000000009E
:10105200000000000000000000000000000000008E
:10106200000000000000000000000000000000007E
:1010720000003FFFFFE1E1E1E1FFFFFFF9D9D9D92C
:10108200D9D9D9D9D9D9D9D9D9D9D9D9D9D9C9FBBC
:10109200FFFFFFE1E1C1E1F7FF3F000000000000B8
:1010A200000000000000000000000000000000003E
:1010B200000000000000000000000000000000002E
:1010C200000000000000000000000000000000001E
:1010D200000000000000000000000000000000000E
:1010E20000000000000000000000000000000000FE
:1010F200000000001F3F3F3F3F3F3F000000000055
:1011020000000000000000000000000000000000DD
:101112001F3F3F3F3F3F3F1F000000000000000015
:1011220000000000000000000000000000000000BD
:1011320000000000000000000000000000000000AD
:10114200000000000000000000000000000000009D
:10115200000000000000000000000000000000008D
:1014F200000000F884C202020202FE020202C2FEE0
:1015020002020202C4F80000000000000000000015
:1015120000000000000000000000000000000000C9
:1015220000000000000000000000000000000000B9
:1015320000000000000000000000000000000000A9
:101542000000000000000000000000000000000099
:101552000000000000000000000000000000000089
:101562000000000000000000000000000000000079
:10157200001E1F7FFFFD7C1C1C1C1F1C1C1C1F1F30
:101582007CFCFC7C1F0F000000000000000000003B
:101592000000000000000000000000000000000049
:1015A2000000000000000000000000000000000039
:1015B2000000000000000000000000000000000029
:1015C2000000000000000000000000000000000019
:10195200000000000000000000000038FC0202024B
:101962000202060606BAFABA0202FC3800000000B9
:101972000000000000000000000000000000000065
:101982000000000000000000000000000000000055
:101992000000000000000000000000000000000045
:1019A2000000000000000000000000000000000035
:1019B2000000000000000000000000000000000025
:1019C2000000000000000000000000000000000015
:1019D2000000000000000000000000003F3EFEF298
:1019E200F23E3E3E3F3FF3F3FF3E3F000000000069
:1019F20000000000000000000000000000000000E5
:101A020000000000000000000000000000000000D4
:101A120000000000000000000000000000000000C4
:101A220000000000000000000000000000000000B4
:101CF200000000F884C282DAFAE2FE020202C2FEA8
:101D020002020202C4F8000000000000000000000D
:101D120000000000000000000000000000000000C1
:101D220000000000000000000000000000000000B1
:101D320000000000000000000000000000000000A1
:101D42000000000000000000000000000000000091
:101D52000000000000000000000000000000000081
:101D62000000000000000000000000000000000071
:101D7200001E1F7FFFFD7C1F1F1F1F1C1C1C1F1F1F
:101D82007CFCFC7C1F0F0000000000000000000033
:101D92000000000000000000000000000000000041
:101DA2000000000000000000000000000000000031
:101DB2000000000000000000000000000000000021
:101DC2000000000000000000000000000000000011
:101DD2000000000000000000000000000000000001
:101DE20000000000000000000000000000000000F1
:101DF20000000000000000000000000000000000E1
:101E020000000000000000000000000000000000D0
:101E120000000000000000000000000000000000C0
:101E220000000000000000000000000000000000B0
:101E320000000000000000000000000000000000A0
:101E42000000000000000000000000000000E010A0
:101E520090908000F0909090600060909010000050
:101E620000002070F8702000807800FC0000000064
:101E72000000000000000000000000000000000060
:101E82000000000000000000000000000000000050
:101E92000000000000000000000000000000000040
:101EA2000000000000000000000000000000000030
:101EB2000000000000000000000000000000000020
:101EC2000000000000000000000000000000030409
:101ED20004040300070000000000040404030000DF
:101EE2000010141414141209040A35180800000012
:101EF20000000000000000000000000000000000E0
:101F020000000000000000000000000000000000CF
:101F120000000000000000000000000000000000BF
:101F220000000000000000000000000000000000AF
:102242000000000000000000000000000000E0109C
:1022520090908000F090909060006090901000004C
:102262000000000000000000807800FC0000000078
:10227200000000000000000000000000000000005C
:10228200000000000000000000000000000000004C
:10229200000000000000000000000000000000003C
:1022A200000000000000000000000000000000002C
:1022B200000000000000000000000000000000001C
:1022C2000000000000000000000000000000030405
:1022D20004040300070000000000040404030000DB
:1022E2000010141414141209040A3518080000000E
:1022F20000000000000000000000000000000000DC
:1023020000000000000000000000000000000000CB
:1023120000000000000000000000000000000000BB
:1023220000000000000000000000000000000000AB
:1025F2000000000000808000E0E000F8F800FEFE2D
:1026020000000000000000000000000000000000C8
:1026120000000000000000000000000000000000B8
:1026220000000000000000000000000000000000A8
:102632000000000000000000000000000000000098
:102642000000000000000000000000000000000088
:102652000000000000000000000000000000000078
:102662000000000000000000000000000000000662
:10267200060007070007070007070007070007070C
:102682000000000000000000000000000000000048
:102692000000000000000000000000000000000038
:1026A2000000000000000000000000000000000028
:1026B2000000000000000000000000000000000018
:1029F2000000000000808000E0E000000000000015
:102A020000000000000000000000000000000000C4
:102A120000000000000000000000000000000000B4
:102A220000000000000000000000000000000000A4
:102A32000000000000000000000000000000000094
:102A42000000000000000000000000000000000084
:102A52000000000000000000000000000000000074
:102A6200000000000000000000000000000000065E
:102A72000600070700070700070700000000000024
:102A82000000000000000000000000000000000044
:102A92000000000000000000000000000000000034
:102AA2000000000000000000000000000000000024
:102AB2000000000000000000000000000000000014
:102AC2000000000000000000000000000000000004
:102AD20000000000000000000000000000000000F4
:102AE20000000000000000000000000000000000E4
:102AF20000000000000000000000000000000000D4
:102B020000000000000000000000000000000000C3
:102B120000000000000000000000000000000000B3
:102B220000000000000000000000000000000000A3
:102B32000000000000000000000000000000000093
:102B42000000000000000000000000000000000083
:102B52000000000000000000000000000000000073
:102B62000000000000000000000000000000000063
:102B72000000000000000000000000000000000053
:102B82000000000000000000000000000000000043
:102B9200000000000000000000000000000000062D
:102BA200060007070000000000000000000000000F
:102BB2000000000000000000000000000000000013
:102BC2000000000000000000000000000000000003
:102BD20000000000000000000000000000000000F3
:102BE20000000000000000000000000000000000E3
:102BF20000000000000000000000000000000000D3
:102C020000000000000000000000000000000000C2
:102C120000000000000000000000000000000000B2
:102C220000000000000000000000000000000000A2
:102C32000000000000000000000000000000000092
:102C42000000000000000000000000000000000082
:102C52000000000000000000000000000000000072
:102C62000000000000000000000000000000000062
:102C72000000000000000000000000000000000052
:102C82000000000000000000000000000000000042
:102C92000000000000000000000000000000000032
:102CA2000000000000000000000000000000000022
:102CB2000000000000000000000000000000000012
:102CC20000000000000000000000000000000006FC
:102CD20006000404040404040404040404040404B4
:102CE20000000000000000000000000000000000E2
:102CF20000000000000000000000000000000000D2
:102D020000000000000000000000000000000000C1
:102D120000000000000000000000000000000000B1
:102D220000000000000000000000000000000000A1
:102D3200000000000000000000000000000010275A
:102D4200E80364000A000100001000011000010005
:102D5200C10053495455383838380000000020006B
:102D62000020000000004154245454444556494474
:102D72003F0A0D0041542B4353510A0D0041542484
:102D820054544E455449503F0A0D00415424545462
:102D92004750535152593D31302C300A0D004154A5
:102DA200245454534E444D473D342C222424424C47
:102DB20025732C2564256425642564323025642519
:102DC200642C2564256425642564256425642C52BD
:102DD200322C25642C25643A58582323220D0A00EC
:102DE2004154245454534E444D473D342C22242400
:102DF200424C25732C2564256425642564323025D4
:102E02006425642C25642564256425642564256471
:102E12002C53322C313233342C25643A5858232324
:102E2200220D0A00525554413A0020202020202031
:102E32000050256400256300425553005645525FF9
:102E4200302E392E3000256425643A256425643AF3
:102E52002564256400494E4943494F204445205387
:102E62004553494F4E002A0046494E20525554417F
:102E720000494E4943494F20525554410020484190
:102E82002053414C49444F0044454C20534953542C
:102E9200454D41004E4543455349544120494E4911
:102EA20043494152204A4F524E414441004D454E02
:102EB20053414A453A003230256425642D25642564
:102EC200642D256425640050616E74616C6C610030
:102ED2004E6F204175746F72697A616461000100FE
:102EE2002D4E414E000001009903522D04000605AB
:102EF200542D04000B05582D06000003262E070052
:102F020006032C2E04000D033A2E0A0011033E2E56
:102F120011001B03572E02002C03682E02002E0301
:102F2200682E02003003682E02003203682E090068
:102F320034036A2E0C003D03732E0B0049037F2ECF
:102F42000C0054038A2E19006003962E090079039F
:102F5200AF2E09008203C92E0E008B03D22E0C0065
:102F620003005C2D01004C05E02E0000F894EE27D2
:102F7200EFBBF1E0F5BFE5BFF8E1A895A4B7A77FE5
:102F8200A4BFF0936000E09360008DE0A2E0BB2755
:102F9200ED938A95E9F780E098E0A0E0B1E0ED9347
:102FA2000197E9F7E8EEFEE285919591009761F0CD
:102FB200A591B59105901590BF01F00105900D9274
:102FC2000197E1F7FB01F0CFE0E0EEBBEFEFEDBFE1
:102FD200E8E0EEBFC0E0D3E00C94D7205F9A87E32D
:102FE2008A95F1F75F9887E38A95F1F70895169A23
:102FF200179A5E985D98EFE3E8B9F0DF08951A93A7
:103002005E985D98A981BA81A034E0E0BE0720F401
:10301200169A1798198107C0179A1698E981FA81AA
:10302200E054F0401E2FE12FE064EF771E2F18B915
:10303200D5DF18813BC01A935E985D98E981E86BF1
:10304200EF7B1E2F18B9CADF188130C0EA81FB81DD
:103052000E94FF25E881F9810E94032624960895A3
:103062005E9A5D98E881E8B98DED90E00197F1F7FD
:10307200B5DF219608951A930A930E9407260E94AB
:103082000C26E0E4F0E0FA93EA930E940C26169AEA
:1030920000E010E00134E0E01E0734F4E0E0EA93DF
:1030A200DFDF0F5F1F4FF6CF198108812396089546
:1030B2001A930A9300E010E00830E0E01E072CF4B7
:1030C2000A93D9DF0F5F1F4FF7CF09911991089526
:1030D2001A93EB81FC810E94FF25E981FA810E940B
:1030E200032610E0183080F4ED81FE810E94B5289D
:1030F200DF010E941226EA0FFB1FE458FF4FE49102
:10310200EA93AEDF1F5FEECF188141C10E943529DD
:1031120020E010E0EC811E1700F500E00830D8F442
:103122000E941526F0E0F595E795EC93ED81E170AC
:103132003E2F303021F00E941526E068EC932F5F7D
:10314200EC81E21731F4ED81F0E0F595E795ED833E
:1031520020E00F5FE3CF1F5FDDCF0E943C2928965E
:103162000895EF9721970E9435290E941C260E94FC
:10317200FF25FE01EB5BFF4F0190F081E02D0E94E5
:10318200032610E0183008F50E941226BF010E94A3
:10319200B528DE011496EA0FFB1FFA93EA93FE01AB
:1031A200E55BFF4F0190F081E02D0E94B528E60F0C
:1031B200F71FE458FF4FE491EA93FE01E95BFF4FEA
:1031C200E081EA93A3DF1F5FDDCF00E0FE01EC5B4D
:1031D200FF4FE0810E1710F00C943F1910E01830E9
:1031E20010F00C94311930E0FE01EC5BFF4FE081EE
:1031F2003E17A0F5E32FF0E0DE01A95BBF4F0D9073
:10320200BC91A02DEA0FFB1FBF01DE01AC5BBF4FDB
:10321200AC91BB270E9412260E94C928DB01AE0F87
:10322200BF1FA034E0E0BE0749F4E0E4F0E0FA9307
:10323200EA930E941C26FA93EA9308DF0E94122660
:103242000E94B528DE011496AE0FBF1FEE27A00F15
:10325200BE1FEC91EA9304DF3F5FC6CF1F5FBFCF73
:103262000E941C26FA93EA93DE01A95BBF4F0E94DB
:103272002326FA93EA93EADE0F5FA8CF0E943C2945
:10328200EF962C960895A981A13011F00C94C019E3
:103292000E942926E138A0E0FA0711F4EAEF17C0EC
:1032A200E039A0E0FA0711F4EBEF11C0E839A0E031
:1032B200FA0711F4ECEF0BC0EE38A0E0FA0711F4B4
:1032C200EDEF05C0ED38A0E0FA0711F4EEEFEE8362
:1032D200AE81A13CB0F0A0919903B0919A03A13CB8
:1032E200E0E0BE0774F00E942C263596E491E030AF
:1032F20041F00E9429260E9439263496E491E0305A
:1033020009F417C00E942C26DF01E0919B03F0E034
:103312003196EA0FFB1FE4910E944226E0919C0342
:103322000E944226E0919D030E944226D1DEE2E005
:1033320001C0E0E0E0939B03AE81A13C58F00E9403
:1033420029260E943926DF01E0919B030E9446262E
:10335200E49101C0EE81F0E00E944A260E944A26D2
:103362000E944F260E942926E0939903F0939A0324
:10337200EC81E0939C03EA81E0939D0308C00E94E4
:1033820029260E944A260E944A260E944F262796F4
:1033920008951A930A9310E000E00E94552618F44B
:1033A200AC81A03009F029C00E9412260E9460263A
:1033B200EC91EA930E9465260E946526E0E00E9455
:1033C2006A260E946F26AF81B885EA0FFB1FEF8342
:1033D200F8870E947A26A0E8B0E00E940F29EA1B33
:1033E200FB0BAF81B885EA17FB072CF4E0E0EF8313
:1033F200E8870E947F261F5FD0CF0E94552618F4CF
:10340200AC81A13009F075C00E9412260E9460268C
:10341200AC91A13E21F40E948826A73C09F002C08B
:1034220009EF29C00E9412260E946026AC91A13E9B
:1034320021F40E948826A33C09F002C007EE1BC0BB
:103442000E9412260E946026AC91A13E21F40E94A5
:103452008826A23C09F002C008EE0DC00E94122686
:103462000E946026AC91A13E21F40E948826A53CD0
:1034720009F001C009EE003079F00A930E948E260D
:10348200E1E00E946A261E5F0E947A26AF81B8851B
:103492000E94992600E01CC00E9412260E9460260B
:1034A200EC91EA930E948E26E9850E946A260E9488
:1034B20012260E946026AC91A03219F40E946F2657
:1034C20002C00E947A26AF81B8850E9499261F5FAA
:1034D2000E947A263196AF81B885AE17BF0744F4B1
:1034E2000E947A26A0E8B0E00E9499260E947F26D8
:1034F20084CFE1ECF0E0E0939903F0939A03198111
:1035020008812B9608950E94352908851985EC813A
:10351200FD81E017F10700F12A853B85EE81FF81ED
:10352200E217F307B0F03A932A931A930A938EDDC7
:10353200A0E8A09FF001A19FF00DE20FF31FAC8560
:10354200BD85EA0FFB1FE491EA938ADD2F5F3F4FAF
:10355200E5CF0F5F1F4FDBCF0E943C292E960895C7
:10356200EA93FA93EFB7EA931A930A931091C00081
:103572000091C600E091C000E07811F4F19801C01A
:10358200F19AE12FEC7181F4E62D6394F0E0E256BA
:10359200FC4F0083E8ECE61509F466248394E8EC1A
:1035A200E81511F48824F09A09911991E991EFBF75
:1035B200F991E99118950A921A92FA926A937A937A
:1035C2008A939A93AA93BA93EA93FA93EFB7EA93F8
:1035D200E6E0E6BDAAE3B5E00E942326A0913A0503
:1035E200B0913B059B9711F00C94941B0E949E2670
:1035F2000E94A326E0E0E0933A05E0933B050E9497
:103602009E26E13021F40E94A826E13009F002C092
:103612000E94AD260E949E26E13021F40E94A82637
:10362200E23009F002C00E94B6260E949E26E130D6
:1036320021F40E94A826E33009F004C0EFE7FDE27E
:103642000E94BF260E949E26E13021F40E94A826F5
:10365200E43009F004C0EDE8FDE20E94BF260E94BA
:103662009E26EA3010F40C94941B0E94C6260E94F7
:10367200A8260E94A3260E94A826E63010F40C94E5
:10368200941B0E94CC260E94D2260E94A3260E944E
:10369200D226EA3010F40C94941B0E94D7260E9482
:1036A200DD260E94A3260E94DD26E630E0F10E947C
:1036B200E2260E94E8260E94A3260E94E826EA301B
:1036C20090F10E94ED260E94F3260E94A3260E94FA
:1036D200F326E23021F40E94E826E33009F013C019
:1036E2000E94DD26E53021F40E94D226E93009F05D
:1036F2000AC00E94A826E53021F40E949E26E930E5
:1037020009F001C001C00FC0AAE8B0E0E0E00E94E9
:1037120022290E94ED260E94E2260E94D7260E94BC
:10372200CC260E94C626E991EFBFF991E991B991A1
:10373200A9919991899179916991F990199009903A
:1037420018955C9A0E94F8265C980E94F8260895C3
:103752001A93E981F0E0E054F0401E2F113010F08E
:10376200153608F002C0E12F01C0E0E01881229670
:1037720008957A92EDDFE0934A05E0EAFDE20E94C5
:10378200FE260E943827E09141050E9438270E94B8
:10379200D2260E943827E0913F050E9438270E94D6
:1037A2009E260E943827E0914A050E943827E09120
:1037B20010050E9438278CE30E94C925EE960895D1
:1037C200E2EEFDE20E94FE260E943827E0914105CA
:1037D2000E9438270E94D2260E943827E0913F0596
:1037E2000E9438270E949E260E943827E0914B05AE
:1037F2000E94382788E30E94C925EA960895A0E02E
:103802000499A1E0A03019F4E0E0E91509F061C0E3
:10381200E2E0E0932F05E0911105EF5FE0931105DF
:10382200E1E09E2E0E943E27E09111050E9446276C
:10383200D9F4E1E0E0934B05C3DFE1E0E093120548
:10384200E0EFF9E10E944B270E944E27E3E2F0E00D
:103852000E94532758DEE0E0F3E00E945A270E94BC
:103862005F270E94642734C0E230A0E0FA0781F5A6
:10387200E0EFF1E10E944B270E944E27E9E1F0E0E0
:103882000E94532740DE0E946827E0934B05E5E043
:10389200E0932F0595DF0E946827E0931005E0E290
:1038A200E71509F066DFE0E27E2EEA93EFE4F0E04E
:1038B2000E9453270E945F27E6DCE6E0F3E00E94C5
:1038C2005A270E945F270E946427E0E0E0931105D7
:1038D20007C0049B03C0E1E0E91509F001C0992487
:1038E2000895A0E00399A1E0A03059F4E0E0EC15BE
:1038F20041F4A0911005A03021F4A0914B05A13014
:1039020009F015C0E0911205EF5FE093120519DF8F
:10391200E1E0CE2EA0911205AD3010F0AF3009F4E7
:1039220003C0E1E0E09312050E946D2707C0039BEC
:1039320003C0E1E0EC1509F001C0CC24E0911205CE
:103942000E94462711F4E1E447C0E230A0E0FA0702
:1039520011F4E2E441C0E330A0E0FA0711F4E3E439
:103962003BC0E430A0E0FA0711F4E4E435C0E530EE
:10397200A0E0FA0711F4E5E42FC0E630A0E0FA0770
:1039820011F4E6E429C0E730A0E0FA0711F4E7E415
:1039920023C0E830A0E0FA0711F4E8E41DC0E930E2
:1039A200A0E0FA0711F4E9E417C0EA30A0E0FA0750
:1039B20011F4EAE411C0EB30A0E0FA0711F4EBE4F1
:1039C2000BC0EC30A0E0FA0711F4ECE405C0EF30D4
:1039D200A0E0FA0711F4E0E2AE2E0895A0E0029909
:1039E200A1E0A03059F4E0E0EB1541F4A0911005FC
:1039F200A03021F4A0914B05A13009F015C0E0914F
:103A02001205E150E09312059CDEE1E0BE2EA0918A
:103A12001205A03011F4AF3009F403C0ECE0E093DA
:103A220012050E946D2707C0029B03C0E1E0EB155F
:103A320009F001C0BB240895A0E00199A1E0A030E3
:103A420039F4E0E0EE1521F4A0914B05A13009F024
:103A520028C0E394E0911305EF5FE09313057A2CFD
:103A62000E943E27E09113050E94462741F4E1E0BF
:103A7200E0931005E4E0E0932F057BDE11C0E23015
:103A8200A0E0FA0769F40E946827E0931005E3E0DA
:103A9200E0932F056EDEE0E27E2EE0E0E093130578
:103AA20007C0019B03C0E1E0EE1509F001C0EE245E
:103AB2000895E0911905F0911A05E130A0E0FA07A6
:103AC20019F4E0E2FBE214C0E230A0E0FA0719F4D4
:103AD200E0EFF9E20DC0E330A0E0FA0719F4E0EFFD
:103AE200F5E206C0E430A0E0FA0769F4E0E5FCE2A2
:103AF200FA93EA930E9407260E9407260E947327E0
:103B02000E94782700DD08956597E0E0EB87EC8757
:103B1200ED87EE87EF87E88BE98BEA8B0E943329EA
:103B220040E050E000E010E0083CE0E01E0714F046
:103B32000C94C3200E947D27A432B1F40E948227F4
:103B4200A43291F40E948727A43571F40E948C2735
:103B5200A83751F40E949127A43731F4F801ED55AA
:103B6200FC4FA081AC3209F02EC04424E0EAE415F7
:103B720090F0E42DF0E0BF01EA59FB4F0F01D801AC
:103B82001696FB01EA0FFB1FE256FC4FE081D001C3
:103B9200EC9343940BC0E1E03E2ED8011696E42D3F
:103BA2000E944626E256FC4FACE2A083D80116964C
:103BB200E42D0E944626E256FC4FA081AC32B1F6BB
:103BC200E7E0E0932F050E947D27AB3281F40E944B
:103BD2008227A33461F40E948727A33541F40E940F
:103BE2008C27A13521F40E949127AA3309F046C0FF
:103BF200F8010E949627AAE0B0E00E94C928DF01DE
:103C0200F8010E949C27EA0FFB1FEF87F88BAF8514
:103C1200B8891B9724F0AF85B8891F970CF005C0AF
:103C2200E1E0F0E00E94A22729C0AF85B8891F9782
:103C320024F0AF85B88952970CF005C0E2E0F0E0BD
:103C42000E94A2271BC0AF85B889529724F0AF8586
:103C5200B8895F970CF005C0E3E0F0E00E94A2276C
:103C62000DC0AF85B889909724F0AF85B889D297F7
:103C72000CF004C0E4E0F0E00E94A2270E947D273D
:103C8200A23441F40E948227A53521F40E9487279D
:103C9200A33509F087C0F801E255FC4F0E94A7271F
:103CA200E0932B05F801E155FC4F0E94A727E09312
:103CB2002C05F801E055FC4F0E94A727E0932D0543
:103CC200F801EF54FC4F0E94A727E0932E05A09124
:103CD2002E05A13119F4EAE0E0932E05A0912B05FF
:103CE200A13130F0E0912B05F0E03797E0932B05FE
:103CF200A0912C05A13130F0E0912C05F0E037972E
:103D0200E0932C05F801EC54FC4FA081A13331F46F
:103D1200F801EB54FC4FA081A83309F043C0E1E065
:103D2200E0932F05A0912D05EAE0EA02F001DF0100
:103D3200E0912E050E944626E0933405F093350566
:103D4200A0912B05E0E1EA02F0013197DF01E09159
:103D52002C05F0E0AE0FBF1FEAE0F0E00E94C92898
:103D6200E0933605F0933705A0913405B0913505FF
:103D7200EA0FFB1FE0933805F0933905E0E3F5E025
:103D8200FA93EA93E3E3FEE2FA93EA93E0913805C9
:103D9200F09139050E94BC280E940A2984E00E9401
:103DA200992528960E947D27AE3481F40E948227AD
:103DB200A53461F40E948727A43541F40E948C2720
:103DC200A93421F40E949127A03509F049C00E942C
:103DD200AB2740E050E0493CE0E05E075CF40E9423
:103DE200B02729F40E94BA2711F40E94C3274F5F1B
:103DF2005F4FF1CFED89FE89E056FC4FA081A232E0
:103E020079F50E94CB270E94A727E9F40E94D027C8
:103E12000E94A727C1F40E94D5270E94A72799F4E0
:103E2200ED89FE890E949C2771F4ED89FE89EA558D
:103E3200FC4F0E94A72739F4ED89FE89E955FC4F12
:103E42000E94A72709F006C0E0E0E0931505E09381
:103E5200160506C0E1E0F0E0E0931505F0931605C3
:103E62000E947D27A43481F40E948227A53461F444
:103E72000E948727A63541F40E948C27A93421F499
:103E82000E949127A43409F041C00E94AB270E94EE
:103E9200DA2740E050E0493CE0E05E075CF40E9433
:103EA200B02729F40E94BA2711F40E94C3274F5F5A
:103EB2005F4FF1CF0E94EA27A081A23239F5ED8946
:103EC200FE89E056FC4FA081E0910B05EA17A9F4A8
:103ED2000E94CB27A081E0910C05EA1771F40E94A1
:103EE200D027A081E0910D05EA1739F40E94D52769
:103EF200A081E0910E05EA1709F003C00E94EF27A6
:103F020005C0E0E0E0933C05E0933D050E947D277B
:103F1200A73481F40E948227A03561F40E9487278A
:103F2200A23541F40E948C27AD3421F40E949127DE
:103F3200A33409F024C10E94AB2740E050E0493C81
:103F4200E0E05E0744F5FA01A98DBA8DEA0FFB1F86
:103F5200E156FC4FA081AC32D9F40E94BA2711F489
:103F62000E94C327AF89B88D129739F4E98DFA8D73
:103F7200E40FF51F3196EB8BFC8BAF89B88D199747
:103F820039F4E98DFA8DE40FF51F3196E98BFA8B3E
:103F92004F5F5F4FD4CFE3E0EA936DD8E4E0EA935A
:103FA2006AD8E5E0EA9367D80E94EA270E94A72729
:103FB200FF2352F03A9744F4ED89FE893196AB899A
:103FC200BC89EA17FB0709F481C0ED89FE890E94CA
:103FD2009627EE83AE81A03010F0AA3008F005C01B
:103FE200EE81A0E8B0E00E9422290E94D5270E941B
:103FF200A727EE83AE81A03010F0AA3008F005C0EA
:10400200EE81A2E8B0E00E9422290E94D0270E94FD
:10401200A727EE83AE81A03010F0AA3008F005C0C9
:10402200EE81A4E8B0E00E9422290E94CB270E94E0
:10403200A727EE83AE81A03010F0AA3008F005C0A9
:10404200EE81A6E8B0E00E942229ED89FE89E056C1
:10405200FC4F0E94A727EE83AE81A03010F0AA3059
:1040620008F004C00E942926EB87FC870E94EA27F9
:104072000E94A727EE83AE81A03010F0AA3008F08C
:1040820004C00E942926ED87FE87ED85FE85AAE001
:10409200B0E00E94C928AB85BC85EA0FFB1FE98707
:1040A200FA873597EF83F887A885AA234AF478968A
:1040B200EF83F8870E94F6270E94FB270E940228BE
:1040C2000E94F6270E94FB270E940228EB89FC89A6
:1040D200E156FC4FE081F0E0E0931705F0931805FC
:1040E200E7E3FEE2FA93EA93E0911705F0911805EF
:1040F2000E94BC280E940A2984E00E94C9252696B3
:104102000E940928FF2312F03A970CF038C00E944F
:104112000928AEE8B0E00E940E28E056FC4F0E944B
:10412200A727ACE8B0E00E940E28EF55FC4F0E9492
:10413200A727A2E9B0E00E940E28EE55FC4F0E948C
:10414200A727A0E9B0E00E940E28ED55FC4F0E947F
:10415200A727A6E9B0E00E940E280E949627A4E9AC
:10416200B0E00E942229AF81B885539744F00E94A3
:104172001328F0E03197ACE8B0E00E9422290F5FEB
:104182001F4FD2CC88246624F19A00E010E0083C4C
:10419200E0E01E073CF4AEE9B3E00E9418280F5F8E
:1041A2001F4FF5CF0E943A296B96089500E010E068
:1041B200E0E8E0936100E0E0E0936100EFEFE7B94F
:1041C200E2B9E0EFE1B9E0E0E5B9EFEFE4B9E0E050
:1041D200EBB9E0EFEAB9E0E0E093C000E8E9E09390
:1041E200C100E6E0E093C200E0E0E093C500E5E054
:1041F200E093C400E0E0E4BDE5E0E5BDE0E0E6BD5B
:10420200E7BDE8BDE1E0E0936E000E94F817EAE046
:10421200F0E00E941D280E942328E0EFF9E00E94AE
:104222004B270E940726EFE7F0E00E9453276BD945
:10423200E0EDF7E00E941D28E0EFFDE00E944B2731
:104242000E940726EDE2F0E00E9453275CD9E6E0E7
:10425200F5E0FA93EA93E7E3F0E00E9427280E9450
:104262002E28EDE0F3E0FA93EA93EBE3F0E00E940C
:1042720033280E945F270E946427EBE0F5E0FA935F
:10428200EA93E2E5F0E00E9433280E945F270E9451
:104292006427E1E1F3E0FA93EA93E8E2F0E00E94B6
:1042A20053270E945F270E946427E0EDF7E00E94F7
:1042B2001D280E94F326EF3F79F4AAE8B0E0E0E07F
:1042C2000E9422290E94E2260E94CC260E94ED260C
:1042D2000E94D7260E94C6260E943628EF3F41F44C
:1042E2000E941328EF3F21F40E943B28EF3F09F080
:1042F20019C0ACE8B0E0E0E00E942229AEE8B0E0EC
:104302000E942229A0E9B0E00E942229A2E9B0E09D
:104312000E942229A4E9B0E00E942229A6E9B0E085
:104322000E942229A8E2B0E00E941629EF3F31F450
:10433200A8E2B0E0E0E00E94222904C0A8E2B0E0D6
:104342000E941629E0934A05AAE2B0E00E941629CB
:10435200EF3F31F4AAE2B0E0E0E00E94222904C07B
:10436200AAE2B0E00E941629E0934B0500E010E0BB
:10437200003AE0E01E073CF4A6E6B4E00E941828EA
:104382000F5F1F4FF5CF7894E0EFF1E10E944B27CA
:104392000E944E27E9E1F0E00E945327B4D80E9420
:1043A200AD2686E695E00197F1F7AEDB9924CC24A1
:1043B200BB240E94EF27F19902C0A6DBF19AAA92D0
:1043C200EFE4F0E00E9453270E945F270E94441905
:1043D20016DA87DA03DB30DB6CDBA0913C05B091A7
:1043E2003D05119711F00C94F423A0911505B0919D
:1043F2001605119711F4E5E401C0E0E2EA93E3E166
:10440200F0E00E944B27E1E0EA93EA930E9444190C
:10441200E0912F05E03011F00C947E22EBE1F5E003
:10442200FA93EA93E8E4FEE2FA93EA930E94F3260F
:104432000E9438270E94E8260E9438270E94DD2623
:104442000E9438270E94D2260E9438270E94A8265E
:104452000E9438270E949E260E94382788E10E94E7
:1044620099256C960E949E26E0933E050E94A826FE
:10447200E0933F050E94D226E09340050E94DD268C
:10448200E09341050E94E826E09342050E94F3264C
:10449200E09343050E941328E0934405AEE8B0E0A0
:1044A2000E941629E09345050E943628E0934605AE
:1044B200A2E9B0E00E941629E09347050E943B283A
:1044C200E0934805A6E9B0E00E941629E093490569
:1044D200E0914A05A8E2B0E00E942229E0914B0552
:1044E200AAE2B0E00E942229EBE1F5E00E94532704
:1044F2000E9440280E942E2824C1A0912F05A1309D
:10450200F9F40E94DA270E9478270E94A128E0E3AA
:10451200F5E0FA93EA93E0E3F0E00E944528E0E058
:10452200EA93E2E0EA93E1E0EA930E94CA190E9468
:104532002328E0EDF7E00E944C280E94DA27FEC013
:10454200A0912F05A23011F00C94F4220E94DA27D8
:104552000E9478270E94A128EBE1F3E00E94332811
:104562000E9440280E945F270E946427E4EFF1E046
:104572000E944C28ECE2F3E0FA93EA93EDE2F0E0D9
:104582000E9450280E9464270E945728EEE2F3E01E
:10459200FA93EA93E5E3F0E00E9450280E94642730
:1045A2000E945728E0E3F3E0FA93EA93EDE3F0E0A8
:1045B2000E9450280E9464270E945728E2E3F3E0F9
:1045C200FA93EA93E5E4F0E00E9450280E946427FF
:1045D200E4EFF1E00E944C280E9423280E945A280E
:1045E2000E94DA27ABC0A0912F05A330C9F40E9424
:1045F200DA270E9478270E94A128E4E3F3E0FA93E5
:10460200EA93ECE1F0E00E9445280E945F270E94B5
:1046120064270E9423280E945A280E94DA278EC00B
:10462200A0912F05A430C9F40E94DA270E947827AE
:104632000E94A128EDE3F3E00E945D28E3E0F0E0B0
:10464200FA93EA930E945F270E9464270E9423281C
:104652000E945A280E94DA2771C0A0912F05A53026
:1046620019F50E94DA270E9478270E94A128E9E41E
:10467200F3E00E945D280E9440280E945F270E946A
:104682006427E4E5F3E00E945D28E4E0F0E0FA93B9
:10469200EA930E945F270E9464270E9423280E94B7
:1046A2005A280E94DA274AC0A0912F05A630B9F4F1
:1046B2000E94DA270E9478270E94A128E0E6F3E010
:1046C2000E945D280E9440280E945F270E94642762
:1046D2000E9423280E945A280E94DA272FC0A09104
:1046E2002F05A73071F50E945918E9E7F3E0FA9314
:1046F200EA93EEE1F0E00E944B270E945F270E94BE
:104702006427E6E6F4E00E944B270E9478270E9485
:104712005F270E946427E8EBFBE00E941D280E94AD
:10472200B62600E010E0003AE0E01E073CF4A6E600
:10473200B4E00E9418280F5F1F4FF5CFE0E0E0932E
:104742002F050E946028A134E0E0BE0719F4E0EFD3
:10475200FDE10BC00E946028A635E0E0BE0719F01B
:104762000E946028D997E0EFF1E2FA93EA93EFE52D
:10477200F0E00E944B27EFE7F0E0FA93EA930E9401
:1047820078270E94841AE3E2F5E0FA93EA93E8EBD1
:10479200FEE2FA93EA93A6E9B0E00E9465280E943D
:1047A2003B280E943827A2E9B0E00E9465280E94B7
:1047B20036280E943827AEE8B0E00E9465280E94A1
:1047C20013280E94382788E1B3D16C96E3E2F5E022
:1047D200FA93EA93E2E2F0E00E9433280E945F2714
:1047E2000E94642716C0E2E8F3E0FA93EA93EEE14E
:1047F200F0E00E9427280E945F270E946427EBE8CE
:10480200F3E0FA93EA93EFE0F0E00E9450280E946E
:104812006427E0EFF5E1FA93EA93E9E6F0E00E941B
:104822003328EFE7F0E00E9453270E94841AC3CD99
:10483200FFCFE091C000E072E1F3E881E093C600AF
:1048420021960895EA81EA93F4DFA881B9810E9452
:104852002326239608951A930A93AA81BB8112965E
:104862000E940229309729F1AA81BB8114960E94E5
:1048720002298F01309761F00230E0E01E07C0F09C
:10488200F80131978F01AA81BB811496ED93FC93B5
:10489200AA81BB8112960E9423263197AC81A08304
:1048A200AA81BB810E940229FF2312F00E942326C3
:1048B20006C0AA81BB81EFEFFFEFED93FC93198154
:1048C20008812596089526970E94332910E0AC8529
:1048D200BD85E0E0F0E0ED93FC93EA89FB89319637
:1048E200EA8BFB8B3197E4912E2FE03011F40C947C
:1048F2009125E12FE03039F4253211F411E002C0A4
:104902000E9468280CC1E130A9F4253219F40E94F2
:10491200682804C112E040E000E02D3211F401E009
:10492200FEC02B3211F44BE2FAC0203211F440E205
:10493200F6C002C0E23039F450E013E0203311F443
:104942000068EDC004C0E33011F00C9490252033D0
:1049520010F02A3308F007C0AAE05A9F502DE22F28
:10496200E0535E0FDCC0E22FE33649F40E94712867
:10497200E889F989A481AA930E947728CFC0E337F6
:1049820041F40E9471280E947F280E94EA251E2F6E
:104992000AC0E03761F40E9471280E947F280E94B9
:1049A200F4251E2F086002600F7730E035C0E43630
:1049B20011F0E93611F4046002C0E53731F4E0E4A5
:1049C200FDE2EE83FF8315E00DC0E83511F40860C7
:1049D20004C0E83711F00C948F25EAE4FDE2EE837F
:1049E200FF8314E002FF14C00E9471280E948928EC
:1049F200AB85AA233AF4EA85FB850E94B128EA87AF
:104A0200FB874DE2403011F01F5F01C00B7F04C0F5
:104A12000E9471280E94892800FD11C0151778F4A0
:104A220007FF08C002FF04C00B7F242F115001C0F2
:104A320020E301C020E20E9468285150EFCF312FBD
:104A420001FF17C03030A1F003FF06C0EE81FF81E5
:104A52002591EE83FF8305C0AE81BF812D91AE8388
:104A6200BF830E946828503009F051503150EACF7C
:104A72004BC020E3EE81FF810E940629E887F98777
:104A8200EE81FF813296EE83FF83E885F985AA8560
:104A9200BB85AE17BF0750F02F5FA885B985EA85A1
:104AA200FB85EA1BFB0BEA87FB87EFCF2A3328F053
:104AB20003FF02C0295F01C0295D04FD1AC0213332
:104AC20020F4A885B985119709F409C0531710F08D
:104AD20000FF01C013C020E207FF0BC020E300610A
:104AE20002FF07C00B7F4A930E947728503009F0DB
:104AF20051500E946828503009F051503150A88519
:104B0200B985129708F0B5CF00FF08C0503031F0D8
:104B12005150E0E2EA930E947728F8CF10E0DDCE10
:104B2200AC85BD850E9402290E943A2964960895A7
:104B3200FF92F82E26970E9435290E9491283097DD
:104B420019F4EFEFFFEF1FC0DE0116960E94AD28A9
:104B52008D010E949128EE83FF83E0E0E887E987D8
:104B6200DE011A960E949828ECE2F4E2FA93EA93A4
:104B7200FE013A96FA93EA93A6DE9F01AE81BF81C7
:104B8200E0E0EC93F9010E943C292A96FF900895F7
:104B9200FF92F82E26971A930A93DE0114960E942A
:104BA200AD288D01E0E0EC83ED83EE83EF83DE013F
:104BB20018960E949828E3E2F4E2FA93EA93FE013F
:104BC2003896FA93EA937FDE198108812896FF903E
:104BD2000895A991B991EE27FF276D91662311F0EF
:104BE2003196FBCF0895AA27BB27E991F991059049
:104BF200002011F01196FBCFFD010895FA93EA937C
:104C02000C940018FA93EA930C941C18E0E0F0E07C
:104C1200FA93EA930895EC81F0E0FA93EA930C9404
:104C22002718E12FF0E00895AE81BF81EE27A10F92
:104C3200BE1FEC910895FE01E95BFF4F0190F081E8
:104C4200E02D0895ED91FD913196FE93EE93089536
:104C5200EE81F0E00895E0919903F0919A03E15C0E
:104C6200F040A6E0B0E00E94C128E458F74F089552
:104C7200E15CF040A6E0B0E00E94C128E458F74FA2
:104C82000895F0E0FA93EA930895F0E0EA0FFB1F2B
:104C92000895FA93EA93EE81FF810895FA93EA93D5
:104CA200EE81EA930C94B218E985FA85FA93EA93B5
:104CB2000E94EA25A12FB0E0AE17BF070895A9858B
:104CC200BA85AE0FBF1F0895E885F985FA93EA9376
:104CD2000895EA93E985EA930C944419EA81F0E095
:104CE200E7FDFFEF3896DF01EB81F0E00E94C92873
:104CF2000895EB81A8E0EA02F0010895EB81F0E06B
:104D0200AD81BE81EA0FFB1FED83FE830895A98565
:104D1200BA85EA0FFB1FA1810895EC81A8E0EA029F
:104D2200F001A885B985AE1BBF0BBA93AA93CCCF6D
:104D3200AE1BBF0BAF83B8870895A0E8B0E00E9416
:104D420016290895EF5F0E942229E1500895A2E8F2
:104D5200B0E00E9416290895E8E6FDE2FA93EA938C
:104D620080E00E94C92522960895E6E7FDE2FA93C3
:104D7200EA9380E00E94C92522960895FA93EA9365
:104D820080E00E94C92522960895A0E8B0E0E0E004
:104D92000E9422290895A2E8B0E0E0E00E942229C0
:104DA2000895A4E8B0E00E9416290895A4E8B0E0AE
:104DB200E0E00E9422290895A6E8B0E00E941629A8
:104DC2000895A6E8B0E0E0E00E9422290895A8E84C
:104DD200B0E00E9416290895A8E8B0E0E0E00E9441
:104DE20022290895AAE8B0E00E9416290895E4E66F
:104DF200F0E0FA93EA930C94A128FA93EA93EBE099
:104E0200F5E0662777270E940A29E0914505FF27EA
:104E1200662777270E940A29E0914405FF27662723
:104E220077270E940A29E0914705FF2766277727FF
:104E32000E940A29E0914605FF27662777270E94EC
:104E42000A29E0914905FF27662777270E940A2948
:104E5200E0914805FF27662777270E940A29E091FB
:104E62004305FF27662777270E940A29B0CFFF272D
:104E7200662777270E940A2908950E94A21BE8EC60
:104E8200F0E0FA93EA930C94A128F0E0E130A0E07C
:104E9200FA070895FA93EA93B9CEE5E0F0E0FA93BF
:104EA200EA930895FA93EA93E7E0F0E0FA93EA933B
:104EB2000895FA93EA93ECE2F0E0F4CFE0E0EA93AB
:104EC200E1E0EA930895EFEFEA930C94CA19EFE058
:104ED200E0931205E0E00895E8ECF0E0FA93EA933B
:104EE2000C94A128E4E1F0E0FA93EA930895E1E05A
:104EF200F0E0FA93EA930895F801E256FC4FA0819C
:104F02000895F801E156FC4FA0810895F801E0569A
:104F1200FC4FA0810895F801EF55FC4FA081089540
:104F2200F801EE55FC4FA0810895EC55FC4FE0814D
:104F3200F0E0F0970895EB55FC4FE081F0E0F09738
:104F42000895E0931905F0931A050895E081F0E0C1
:104F5200F0970895F8013496E98FFA8F0895FA01CF
:104F6200A98DBA8DEA0FFB1FE156FC4FA081AA332F
:104F72000895EF89F88D3196EF8BF88FAF89B88D50
:104F820011970895E98DFA8DE40FF51F3196ED8B97
:104F9200FE8B0895ED89FE89EF55FC4F0895ED894A
:104FA200FE89EE55FC4F0895ED89FE89ED55FC4FC3
:104FB2000895E2E0EA930E943C18E3E0EA930E943B
:104FC2003C18E4E0EA930E943C18E5E0EA930C9472
:104FD2003C18ED89FE89E156FC4F0895E1E0F0E0CE
:104FE200E0933C05F0933D050895AF81B885EAE072
:104FF200F0E008950E94E628A8E8B0E00E94222985
:10500200F4CF0E94E128AAE8B0E00E942229089584
:10501200E989FA89E156FC4F99CF0E942229E98950
:10502200FA890895ACE8B0E00E9416290895A00F0D
:10503200B11FE0E0EC930895FA93EA930E94A1284D
:105042000C9459180E94A21B0C94A21BFA93EA9387
:10505200E2E0F0E0FA93EA930895E0E0EA93E2E016
:10506200EA9331CFFA93EA9318CFA0E9B0E00E9415
:1050720016290895A4E9B0E00E9416290895E2E0F5
:10508200F0E0FA93EA930895FA93EA93E3E0F0E00A
:10509200FA93EA930895FA93EA930C94A128FA9367
:1050A200EA93E4E0F0E0FA93EA9308CFECE2F1E06D
:1050B200F2CFE8EEF3E0EFCFFA93EA9313CFA091A9
:1050C2001705B091180508950E941629D0CE2A938B
:1050D200ED85FE85FA93EA93E989FA89099508959F
:1050E200E889F9893497E88BF98B0895ED85FE8577
:1050F200FA93EA93E989FA8909950895A889B98901
:1051020014960E940229EE83FF83FA93EA9308958C
:10511200A889B98914960E940229EA87FB87089513
:10512200DE011C960E94AD280E94022908950E9469
:10513200AD280E940229FA93EA931A930A930895DA
:10514200E991F991309639F08DEC9AE00197F1F7F7
:10515200A8953197C9F708950024AF0DB01D0895A1
:10516200F195E195F0400895EE0FFF1FEE0FFF1F3E
:10517200EE0FFF1F08956F2F660F660B762F0895AF
:10518200FA9FF02DEB9FF00DEA9FE02DF10D0895AF
:105192002AD0F6DF0EF4E4DF08950024112490E112
:1051A200AA0FBB1F001C111C0E1A1F0A18F40E0EA8
:1051B2001F1E01C0A1609A9599F7FD01D0010895C3
:1051C20012D0EBDF0EF4CCDF0895E894B7FF04C0F1
:1051D200A095B09511966894F7FDC2DFDEDFFD0160
:1051E2000EF4BEDF0895E894F7FF02C0B9DF6894B9
:1051F200B7FF06C0A095B095119600F8039400FA87
:105202000895ED91FC91119708950590F491E02D88
:1052120008957A936A93FA93EA9308951B2EBF2F07
:10522200F12D1A2EAE2FE12D0895F999FECFFF939D
:10523200FFB7F894A1BDB2BDF89AE0B5FFBFFF91E8
:105242000895F99B02C0A895FCCF9FB7F894A1BD21
:10525200B2BDF89A80B5E81719F0E0BDFA9AF99A4A
:105262009FBF08955A934A933A932A931A930A93A3
:1052720008955D814C813B812A81198108810895BD
:00000001FF
