:0E0000000C94AA170C9400000C9400000C94B1
:10000E0000000C9400000C9400000C9400000C9462
:10001E0000000C9400000C9400000C9400000C9452
:10002E0000000C9400000C9400000C9400000C9442
:10003E0000000C9400000C9400000C94CF1A0C9449
:10004E0000000C94A41A0C9400000C9400000C9464
:10005E0000000C9400000C9400000C9400000C9412
:10006E0000000C9400000C9400000C9400000000A2
:10007E000000000000000000000000000000000072
:10008E000000000000000000000000000000000062
:10009E000000000000000000000000000000000052
:1000AE000000000000000000000000000000000042
:1000BE000000000000000000000000000000000032
:1000CE000000000000000000000000000000000022
:1000DE000000000000000000000000000000000012
:1000EE000000000000000000000000000000000002
:1000FE0000000000000000000000000000000000F2
:10010E0000000000000000000000000000000000E1
:10011E0000000000000000000000000000000000D1
:10012E0000000000000000000000000000000000C1
:10013E0000000000000000000000000000000000B1
:10014E0000000000000000000000000000000000A1
:10015E000000000000000000000000000000000091
:10016E000000000000000000000000000000000081
:10017E0000000000000000004F000000000000071B
:10018E000007000000000024FF24FF2400000044AC
:10019E004AFF4A32000040231308C4C20000003652
:1001AE004955224080000000050300000000003C7D
:1001BE004281000000000081423C0000000000145B
:1001CE00083E081400000010107C10100000000003
:1001DE002818000000000008080808080800006041
:1001EE006000000000004020100804020000007EA5
:1001FE00FF8181FF7E00008082FEFF80800000E292
:10020E00F191919F8E000062C3C9C9FF760000185C
:10021E001412FFFF1000006F8F8989F97100007EA4
:10022E00FF8989F97200000101F1FD0703000076D4
:10023E00FF8989FF760000468F8989FF7E000000C6
:10024E006666000000000000563600000000000840
:10025E001422410000000024242424240000000065
:10026E00412214080000000201B1090600000062DC
:10027E0091F1817E000000FE111111FE000000FFC1
:10028E00898989760000007E81818142000000FF0D
:10029E008181423C000000FF89898981000000FFB6
:1002AE00090909010000007E81919172000000FF92
:1002BE00101010FF0000000081FF810000000040C0
:1002CE0080817F01000000FF18244281000000FFA2
:1002DE0080808080000000FF020C02FF000000FF03
:1002EE00040810FF0000007E8181817E000000FF67
:1002FE001111110E00007E81A141BE00000000FF11
:10030E001131518E0000008689898971000000012B
:10031E0001FF01010000007F8080807F0000003F10
:10032E004080403F0000003FC060C03F000000E33F
:10033E00140814E30000000708F00807000000C1CD
:10034E00A1918987000000FF818100000000001547
:10035E00167C161500000041417F000000000004CD
:10036E000201020400000040404040400000000135
:10037E00020400000000006094949478000000FFD6
:10038E0088888870000000788484840000000078DB
:10039E008484887F000000789494945800000010A4
:1003AE00FE1101020000000C9292927E000000FFEE
:1003BE00100808F00000000084FD800000000060BE
:1003CE0080807D00000000FF3048840000000000A7
:1003DE0081FF8000000000FC043804F8000000FCDF
:1003EE00080404F80000007884848478000000FC7F
:1003FE001414140800000008141418FC000000FC6B
:10040E00080404080000008894949460000000041E
:10041E007F8480400000007C808040FC0000003C17
:10042E004080403C0000003EC060C03E00000042E4
:10043E0024182442000000068888887E000000C42C
:10044E00A4948C8400000008768100000000000057
:10045E0000FF000000000081760800000000000888
:10046E00082A1C08000000081C2A08080000007C4E
:10047E008281827C0000000000000000000000006D
:10048E00000000000000000000000000000000005E
:10049E00000000000000000000000000000000004E
:1004AE00000000000000000000000000000000003E
:1004BE00000000000000000000000000000000002E
:10086E000000000000000000000000000000C1C1F8
:10087E00C1C10000C2C2FEFE0100C3C31F1F0100A2
:10088E00C4C4FCFC0100C5C5C5C50101C6BDBFBEC3
:10089E000101C7C7C0C00100C88284830101C9C954
:1008AE00FDFD0100CA8587860101CB888A89010179
:1008BE00CC8BCC8B0101CD8CCD8C0101CE11CE1108
:1008CE000101CFCF13130100D0D08F8F0100D1D1F2
:1008DE001B1B0100D2D291910100D392949301017E
:1008EE00D49597960101D5179A990101D69B9D9C97
:1008FE000101D7D7D7D70000D8D89E9E0101D9D9EC
:10090E009F9F0101DAA0A2A10101DBA3A5A4010111
:10091E00DCDCDCDC0000DDA6A8A70101DEA9ABAAA9
:10092E000101DFACAEAD0101E0E0E0E00000E1AFBF
:10093E00B1B00101E2E2E2E20000E3B2B4B30101C0
:10094E00E4B5B7B60101E5B8BAB90101E6E6BCBC3B
:10095E000100E7E7E7E70000E8E8E8E80000E9E97A
:10096E00E9E90000EAEAEAEA0000EBEBEBEB000053
:10097E00ECBDBFBE0101EDBDBFBE0101EEEEEEEE60
:10098E000000EFEFEFEF0000F0F0F0F00000F1F1FB
:10099E00F1F10000F2F2F2F20000F3F3F3F30000D3
:1009AE00F5F5F5F50000F6F6F6F60000F7F7F7F7B1
:1009BE000000F8F8F8F80000FBF9FBFA0101BBBBE8
:1009CE00F4F40100811C1E1D010190181A19010179
:1009DE009814161501018E8E121201008D108D10B5
:1009EE00010100C0F030381818181898B0B0303027
:1009FE0030606060606060C0C0C0C0C0C0C0808039
:100A0E008080800000000000000000000000000058
:100A1E0000000000000000000000000000000000C8
:100A2E0000000000000000000000000000000000B8
:100A3E0000000000000000000000000000000000A8
:100A4E000000000000000000000000000000000098
:100A5E000000000000000000000000000000000088
:100A6E00000000FFFF00000C18F0E70FFD0F07005D
:100A7E000000000000000000000000000000010166
:100A8E000181838383C3E767E6C6060E0C0C0C0C4C
:100A9E000C1818187870E0C00000000000E0E000AC
:100AAE000000000080C0E06000E0E0606060606018
:100ABE0060E0C000000080C06060C080000000E008
:100ACE00E0606060606060C08000000080C06060B8
:100ADE00C0800000000080C06060606060C0800068
:100AEE00000000FFFF00000000FFFF00FF000000FD
:100AFE0000000000000000000080C06030188CC6AE
:100B0E006331180808090B0B0B09080808080808B8
:100B1E001C3E363E1C00FFFF0000000000FFFF7071
:100B2E00F88C8E070301000000FFFFE0E0E060603C
:100B3E00607F3F00FEFF616060606061FFFE00FF4E
:100B4E00FF000000000000FFFF00FEFF616060601C
:100B5E006061FFFE00FFFF000000000000000100CA
:100B6E00000000FFFF00000000FFFF003F303030AC
:100B7E003030303030180CC6E331180C060301004B
:100B8E000000000000000000000000000000000057
:100B9E00000000000000FFFF00000000003F3F00CB
:100BAE00000103070E1C3830003F3F000001030711
:100BBE000E3C38003F3F0000000000003F3F003F6A
:100BCE003F3030303030301F0F003F3F000000000C
:100BDE0000003F3F000F1F303030303030381800EB
:100BEE00000000FFFF00000000FFFF00FF030303F3
:100BFE000303030303060C193366CC983060C080E0
:100C0E0000000000000000000000000000000000D6
:100C1E00000000000000FFFF0000000000000000C8
:100C2E0000000000000000000000000000000000B6
:100C3E0000000000000000000000000000000000A6
:100C4E000000000000000000000000000000000096
:100C5E000000000000000000000000000000000086
:100C6E00000000FFFF00000000FFFF00FF0000007B
:100C7E0000000000000000000000000103060C1937
:100C8E003366444444E4F4B4F4E404040404040475
:100C9E000E1F1B1F0E00FFFF000000FC00000000D7
:100CAE0000F8040404F8000C040404FC00F088842A
:100CBE0088F00080808000FC8484040400F8040422
:100CCE00040800FC000000FC00F0888488F000FCA2
:100CDE00040404F800F8040404F800FC44C4443886
:100CEE00000000FFFF00000603011C3E373E1C0003
:100CFE00000000000080808080C0C0C0C0C0E060E6
:100D0E0060603030303031391918181C0C0C0C0C56
:100D1E000E060606070301000000000F080808086B
:100D2E00000708080807000608080807000F00005B
:100D3E00000F00000000000F080808080007080850
:100D4E000804000708080807000F0000000F000F36
:100D5E0008080807000708080807000F0000010E22
:100D6E000000000107060E0C0C0C0C0C0606060605
:100D7E000303030303010101010100000000000051
:100D8E000000000000000000000000000000000055
:100D9E000000000000000000000000000000000045
:100DAE000000000000000000000000000000000035
:100DBE000000000000000000000000000000000025
:100DCE000000000000000000000000000000000015
:100DDE000000000000000000000000000000000005
:100DEE0000000000000000000000000000000000F5
:100DFE0000000000000000000000000000000000E5
:100E0E0000000000000000000000000000000000D4
:100E1E0000000000000000000000000000000000C4
:100E2E0000000000000000000000000000000000B4
:100E3E0000000000000000000000000000000000A4
:100E4E000000000000000000000000000000000094
:100E5E000000000000000000000000000000000084
:100E6E0000000000000000C0E0F0F0F8F8F8F8F81C
:100E7E00FCFCFCFCFCFCFCFCFCFCFCFCFCFCFCFCA4
:100E8E00FCFCFCFCF8F8F8F8F8F0E0E0C00000001C
:100E9E000000000000000000000000000000000044
:100EAE000000000000000000000000000000000034
:100EBE000000000000000000000000000000000024
:100ECE000000000000000000000000000000000014
:100EDE000000000000000000000000000000000004
:100EEE00000000000000FEFFFF03010303030303E5
:100EFE00030303030303030303FFFF0303010303BE
:100F0E00030303030303030303030307FFFE0000AE
:100F1E0000000000000000000000000000000000C3
:100F2E0000000000000000000000000000000000B3
:100F3E0000000000000000000000000000000000A3
:100F4E000000000000000000000000000000000093
:100F5E000000000000000000000000000000000083
:100F6E00000000000000FFFFFFC0C0C0C0C0C0C036
:100F7E00C0C0C0C0C0C0C0C0E0FFFFE0C0C0C0E085
:100F8E00D0C8C4C4C4C4C8D0E0C0E0F0FFFF0000A5
:100F9E000000000000000000000000000000000043
:100FAE000000000000000000000000000000000033
:100FBE000000000000000000000000000000000023
:100FCE000000000000000000000000000000000013
:100FDE000000000000000000000000000000000003
:100FEE00000000000000FFFFFFFFFFFFFFFFFFFFFD
:100FFE00FFFFFFFFFFFFFFFFFFFFFFFFFFFFFFFFF3
:10100E00FFFFFFFFFFFFFFFFFFFFFFFFFFFF0000E0
:10101E0000000000000000000000000000000000C2
:10102E0000000000000000000000000000000000B2
:10103E0000000000000000000000000000000000A2
:10104E000000000000000000000000000000000092
:10105E000000000000000000000000000000000082
:10106E000000000000003FFFFFE1E1E1E1FFFFFFB4
:10107E00F9D9D9D9D9D9D9D9D9D9D9D9D9D9D9D9B2
:10108E00D9D9C9FBFFFFFFE1E1C1E1F7FF3F000046
:10109E000000000000000000000000000000000042
:1010AE000000000000000000000000000000000032
:1010BE000000000000000000000000000000000022
:1010CE000000000000000000000000000000000012
:1010DE000000000000000000000000000000000002
:1010EE0000000000000000001F3F3F3F3F3F3F0059
:1010FE0000000000000000000000000000000000E2
:10110E00000000001F3F3F3F3F3F3F1F0000000019
:10111E0000000000000000000000000000000000C1
:10112E0000000000000000000000000000000000B1
:10113E0000000000000000000000000000000000A1
:10114E000000000000000000000000000000000091
:1014EE0000000000000000F884C202020202FE02A8
:1014FE000202C2FE02020202C4F800000000000056
:10150E0000000000000000000000000000000000CD
:10151E0000000000000000000000000000000000BD
:10152E0000000000000000000000000000000000AD
:10153E00000000000000000000000000000000009D
:10154E00000000000000000000000000000000008D
:10155E00000000000000000000000000000000007D
:10156E0000000000001E1F7FFFFD7C1C1C1C1F1CAA
:10157E001C1C1F1F7CFCFC7C1F0F000000000000C9
:10158E00000000000000000000000000000000004D
:10159E00000000000000000000000000000000003D
:1015AE00000000000000000000000000000000002D
:1015BE00000000000000000000000000000000001D
:10194E000000000000000000000000000000003851
:10195E00FC0202020202060606BAFABA0202FC38BB
:10196E000000000000000000000000000000000069
:10197E000000000000000000000000000000000059
:10198E000000000000000000000000000000000049
:10199E000000000000000000000000000000000039
:1019AE000000000000000000000000000000000029
:1019BE000000000000000000000000000000000019
:1019CE000000000000000000000000000000000009
:1019DE003F3EFEF2F23E3E3E3F3FF3F3FF3E3F0000
:1019EE0000000000000000000000000000000000E9
:1019FE0000000000000000000000000000000000D9
:101A0E0000000000000000000000000000000000C8
:101A1E0000000000000000000000000000000000B8
:101CEE0000000000000000F884C282DAFAE2FE0270
:101CFE000202C2FE02020202C4F80000000000004E
:101D0E0000000000000000000000000000000000C5
:101D1E0000000000000000000000000000000000B5
:101D2E0000000000000000000000000000000000A5
:101D3E000000000000000000000000000000000095
:101D4E000000000000000000000000000000000085
:101D5E000000000000000000000000000000000075
:101D6E0000000000001E1F7FFFFD7C1F1F1F1F1C99
:101D7E001C1C1F1F7CFCFC7C1F0F000000000000C1
:101D8E000000000000000000000000000000000045
:101D9E000000000000000000000000000000000035
:101DAE000000000000000000000000000000000025
:101DBE000000000000000000000000000000000015
:101DCE000000000000000000000000000000000005
:101DDE0000000000000000000000000000000000F5
:101DEE0000000000000000000000000000000000E5
:101DFE0000000000000000000000000000000000D5
:101E0E0000000000000000000000000000000000C4
:101E1E0000000000000000000000000000000000B4
:101E2E0000000000000000000000000000000000A4
:101E3E000000000000000000000000000000000094
:101E4E000000E01090908000F09090906000609004
:101E5E009010000000002070F8702000807800FCC8
:101E6E000000000000000000000000000000000064
:101E7E000000000000000000000000000000000054
:101E8E000000000000000000000000000000000044
:101E9E000000000000000000000000000000000034
:101EAE000000000000000000000000000000000024
:101EBE000000000000000000000000000000000014
:101ECE0000000304040403000700000000000404E3
:101EDE00040300000010141414141209040A351817
:101EEE0008000000000000000000000000000000DC
:101EFE0000000000000000000000000000000000D4
:101F0E0000000000000000000000000000000000C3
:101F1E0000000000000000000000000000000000B3
:101F2E0000000000000000000000000000000000A3
:10224E000000E01090908000F09090906000609000
:10225E00901000000000000000000000807800FCDC
:10226E000000000000000000000000000000000060
:10227E000000000000000000000000000000000050
:10228E000000000000000000000000000000000040
:10229E000000000000000000000000000000000030
:1022AE000000000000000000000000000000000020
:1022BE000000000000000000000000000000000010
:1022CE0000000304040403000700000000000404DF
:1022DE00040300000010141414141209040A351813
:1022EE0008000000000000000000000000000000D8
:1022FE0000000000000000000000000000000000D0
:10230E0000000000000000000000000000000000BF
:10231E0000000000000000000000000000000000AF
:10232E00000000000000000000000000000000009F
:1025EE00000000000000000000808000E0E000F825
:1025FE00F800FEFE000000000000000000000000D9
:10260E0000000000000000000000000000000000BC
:10261E0000000000000000000000000000000000AC
:10262E00000000000000000000000000000000009C
:10263E00000000000000000000000000000000008C
:10264E00000000000000000000000000000000007C
:10265E00000000000000000000000000000000006C
:10266E00000000060600070700070700070700071F
:10267E000700070700000000000000000000000037
:10268E00000000000000000000000000000000003C
:10269E00000000000000000000000000000000002C
:1026AE00000000000000000000000000000000001C
:1026BE00000000000000000000000000000000000C
:1029EE00000000000000000000808000E0E0000019
:1029FE0000000000000000000000000000000000C9
:102A0E0000000000000000000000000000000000B8
:102A1E0000000000000000000000000000000000A8
:102A2E000000000000000000000000000000000098
:102A3E000000000000000000000000000000000088
:102A4E000000000000000000000000000000000078
:102A5E000000000000000000000000000000000068
:102A6E000000000606000707000707000707000022
:102A7E000000000000000000000000000000000048
:102A8E000000000000000000000000000000000038
:102A9E000000000000000000000000000000000028
:102AAE000000000000000000000000000000000018
:102ABE000000000000000000000000000000000008
:102ACE0000000000000000000000000000000000F8
:102ADE0000000000000000000000000000000000E8
:102AEE0000000000000000000000000000000000D8
:102AFE0000000000000000000000000000000000C8
:102B0E0000000000000000000000000000000000B7
:102B1E0000000000000000000000000000000000A7
:102B2E000000000000000000000000000000000097
:102B3E000000000000000000000000000000000087
:102B4E000000000000000000000000000000000077
:102B5E000000000000000000000000000000000067
:102B6E000000000000000000000000000000000057
:102B7E000000000000000000000000000000000047
:102B8E000000000000000000000000000000000037
:102B9E00000000060600070700000000000000000D
:102BAE000000000000000000000000000000000017
:102BBE000000000000000000000000000000000007
:102BCE0000000000000000000000000000000000F7
:102BDE0000000000000000000000000000000000E7
:102BEE0000000000000000000000000000000000D7
:102BFE0000000000000000000000000000000000C7
:102C0E0000000000000000000000000000000000B6
:102C1E0000000000000000000000000000000000A6
:102C2E000000000000000000000000000000000096
:102C3E000000000000000000000000000000000086
:102C4E000000000000000000000000000000000076
:102C5E000000000000000000000000000000000066
:102C6E000000000000000000000000000000000056
:102C7E000000000000000000000000000000000046
:102C8E000000000000000000000000000000000036
:102C9E000000000000000000000000000000000026
:102CAE000000000000000000000000000000000016
:102CBE000000000000000000000000000000000006
:102CCE0000000006060004040404040404040404C2
:102CDE0004040404000000000000000000000000D6
:102CEE0000000000000000000000000000000000D6
:102CFE0000000000000000000000000000000000C6
:102D0E0000000000000000000000000000000000B5
:102D1E0000000000000000000000000000000000A5
:102D2E000000000000000000000000000000000095
:102D3E0000001027E80364000A00010000100001E3
:102D4E0010000100C100534954553838383800007E
:102D5E000000200000200000000041542454544480
:102D6E00455649443F0A0D0041542B4353510A0D19
:102D7E000041542454544E455449503F0A0D0041CD
:102D8E00542454544750535152593D31302C300A2B
:102D9E000D004154245454534E444D473D342C227F
:102DAE002424424C25732C25642564256425643225
:102DBE0030256425642C25642564256425642564EA
:102DCE0025642C52322C25642C25643A5858232322
:102DDE00220D0A004154245454534E444D473D3461
:102DEE002C222424424C25732C256425642564252D
:102DFE00643230256425642C25642564256425649D
:102E0E00256425642C53322C313233342C25643A0C
:102E1E0058582323220D0A00525554413A002020BF
:102E2E0020202020005025640025630042555300C9
:102E3E00256425643A256425643A25642564004991
:102E4E004E4943494F20444520534553494F4E0068
:102E5E002A0046494E205255544100494E49434995
:102E6E004F2052555441002048412053414C494473
:102E7E004F0044454C2053495354454D41004E4557
:102E8E0043455349544120494E4943494152204AF2
:102E9E004F524E414441003230256425642D256445
:102EAE0025642D256425640050616E74616C6C611F
:102EBE00004E6F204175746F72697A616461000013
:102ECE0001002D4E414E00494E4600000100860382
:102EDE00522D0400F304542D0400F804582D06005E
:102EEE000003262E070006032C2E04000D033A2E97
:102EFE00110011034D2E020022035E2E0200240348
:102F0E005E2E020026035E2E020028035E2E0900AE
:102F1E002A03602E0C003303692E0B003F03752E1F
:102F2E000C004A03802E190056038C2E09006F03E5
:102F3E00B62E0E007803BF2E0C0003005C2D010090
:102F4E003905CE2E0000F894EE27EFBBF1E0F5BF69
:102F5E00E5BFF8E1A895A4B7A77FA4BFF0936000E2
:102F6E00E09360008DE0A2E0BB27ED938A95E9F730
:102F7E0080E098E0A0E0B1E0ED930197E9F7EAED8B
:102F8E00FEE285919591009761F0A591B59105901E
:102F9E001590BF01F00105900D920197E1F7FB012D
:102FAE00F0CFE0E0EEBBEFEFEDBFE8E0EEBFC0E04C
:102FBE00D3E00C94CC205F9A87E38A95F1F75F9863
:102FCE0087E38A95F1F70895169A179A5E985D9899
:102FDE00EFE3E8B9F0DF08951A935E985D98A98142
:102FEE00BA81A034E0E0BE0720F4169A1798198132
:102FFE0007C0179A1698E981FA81E054F0401E2F07
:10300E00E12FE064EF771E2F18B9D5DF18813BC092
:10301E001A935E985D98E981E86BEF7B1E2F18B9C5
:10302E00CADF188130C0EA81FB810E94DE25E8816B
:10303E00F9810E94E225249608955E9A5D98E881B2
:10304E00E8B98DED90E00197F1F7B5DF219608957F
:10305E001A930A930E94E6250E94EB25E0E4F0E025
:10306E00FA93EA930E94EB25169A00E010E00134E1
:10307E00E0E01E0734F4E0E0EA93DFDF0F5F1F4F5E
:10308E00F6CF19810881239608951A930A9300E0CA
:10309E0010E00830E0E01E072CF40A93D9DF0F5F32
:1030AE001F4FF7CF0991199108951A93EB81FC8167
:1030BE000E94DE25E981FA810E94E22510E0183097
:1030CE0080F4ED81FE810E948B28DF010E94F125A4
:1030DE00EA0FFB1FE458FF4FE491EA93AEDF1F5F48
:1030EE00EECF188141C10E940B2920E010E0EC8147
:1030FE001E1700F500E00830D8F40E94F425F0E029
:10310E00F595E795EC93ED81E1703E2F303021F08F
:10311E000E94F425E068EC932F5FEC81E21731F406
:10312E00ED81F0E0F595E795ED8320E00F5FE3CFBD
:10313E001F5FDDCF0E94122928960895EF972197E1
:10314E000E940B290E94FB250E94DE25FE01EB5BEF
:10315E00FF4F0190F081E02D0E94E22510E0183023
:10316E0008F50E94F125BF010E948B28DE011496FE
:10317E00EA0FFB1FFA93EA93FE01E55BFF4F019006
:10318E00F081E02D0E948B28E60FF71FE458FF4FC9
:10319E00E491EA93FE01E95BFF4FE081EA93A3DF3E
:1031AE001F5FDDCF00E0FE01EC5BFF4FE0810E17ED
:1031BE0010F00C94321910E0183010F00C94241901
:1031CE0030E0FE01EC5BFF4FE0813E17A0F5E32FF0
:1031DE00F0E0DE01A95BBF4F0D90BC91A02DEA0F70
:1031EE00FB1FBF01DE01AC5BBF4FAC91BB270E9442
:1031FE00F1250E949F28DB01AE0FBF1FA034E0E037
:10320E00BE0749F4E0E4F0E0FA93EA930E94FB254E
:10321E00FA93EA9308DF0E94F1250E948B28DE01C3
:10322E001496AE0FBF1FEE27A00FBE1FEC91EA93B0
:10323E0004DF3F5FC6CF1F5FBFCF0E94FB25FA930F
:10324E00EA93DE01A95BBF4F0E940226FA93EA932E
:10325E00EADE0F5FA8CF0E941229EF962C960895F2
:10326E00A981A13011F00C94B3190E940826E138FF
:10327E00A0E0FA0711F4EAEF17C0E039A0E0FA0770
:10328E0011F4EBEF11C0E839A0E0FA0711F4ECEFFE
:10329E000BC0EE38A0E0FA0711F4EDEF05C0ED38E3
:1032AE00A0E0FA0711F4EEEFEE83AE81A13CB0F090
:1032BE00A0918603B0918703A13CE0E0BE0774F0B5
:1032CE000E940B263596E491E03041F00E940826CC
:1032DE000E9418263496E491E03009F417C00E943B
:1032EE000B26DF01E0918803F0E03196EA0FFB1F19
:1032FE00E4910E942126E09189030E942126E0910B
:10330E008A030E942126D1DEE2E001C0E0E0E093D4
:10331E008803AE81A13C58F00E9408260E94182610
:10332E00DF01E09188030E942526E49101C0EE8121
:10333E00F0E00E9429260E9429260E942E260E9435
:10334E000826E0938603F0938703EC81E0938903CC
:10335E00EA81E0938A0308C00E9408260E9429266B
:10336E000E9429260E942E26279608951A930A93C4
:10337E0010E000E00E94342618F4AC81A03009F071
:10338E0029C00E94F1250E943F26EC91EA930E94EB
:10339E0044260E944426E0E00E9449260E944E26C2
:1033AE00AF81B885EA0FFB1FEF83F8870E9459267D
:1033BE00A0E8B0E00E94E528EA1BFB0BAF81B885C0
:1033CE00EA17FB072CF4E0E0EF83E8870E945E2605
:1033DE001F5FD0CF0E94342618F4AC81A13009F0C3
:1033EE0075C00E94F1250E943F26AC91A13E21F4AA
:1033FE000E946726A73C09F002C009EF29C00E946F
:10340E00F1250E943F26AC91A13E21F40E94672631
:10341E00A33C09F002C007EE1BC00E94F1250E94DA
:10342E003F26AC91A13E21F40E946726A23C09F0F2
:10343E0002C008EE0DC00E94F1250E943F26AC91FD
:10344E00A13E21F40E946726A53C09F001C009EEB9
:10345E00003079F00A930E946D26E1E00E94492621
:10346E001E5F0E945926AF81B8850E94782600E023
:10347E001CC00E94F1250E943F26EC91EA930E9407
:10348E006D26E9850E9449260E94F1250E943F265D
:10349E00AC91A03219F40E944E2602C00E94592609
:1034AE00AF81B8850E9478261F5F0E9459263196FB
:1034BE00AF81B885AE17BF0744F40E945926A0E825
:1034CE00B0E00E9478260E945E2684CFE1ECF0E008
:1034DE00E0938603F0938703198108812B96089554
:1034EE000E940B2908851985EC81FD81E017F107F3
:1034FE0000F12A853B85EE81FF81E217F307B0F0DC
:10350E003A932A931A930A938EDDA0E8A09FF001B6
:10351E00A19FF00DE20FF31FAC85BD85EA0FFB1FD7
:10352E00E491EA938ADD2F5F3F4FE5CF0F5F1F4F88
:10353E00DBCF0E9412292E960895EA93FA93EFB7E5
:10354E00EA931A930A931091C0000091C600E0917D
:10355E00C000E07811F4F19801C0F19AE12FEC71FE
:10356E0081F4E62D6394F0E0E557FC4F0083E8EC20
:10357E00E61509F466248394E8ECE81511F4882422
:10358E00F09A09911991E991EFBFF991E991189586
:10359E000A921A92FA926A937A938A939A93AA93B8
:1035AE00BA93EA93FA93EFB7EA93E6E0E6BDA7E2A1
:1035BE00B5E00E940226A0912705B09128059B97A1
:1035CE0011F00C94891B0E947D260E948226E0E059
:1035DE00E0932705E09328050E947D26E13021F433
:1035EE000E948726E13009F002C00E948C260E94BC
:1035FE007D26E13021F40E948726E23009F004C0D6
:10360E00E6E7FDE20E9495260E947D26E13021F438
:10361E000E948726E33009F004C0EFE7FDE20E9426
:10362E0095260E947D26E13021F40E948726E43003
:10363E0009F004C0EDE8FDE20E9495260E947D2669
:10364E00EA3010F40C94891B0E949C260E94872657
:10365E000E9482260E948726E63010F40C94891B65
:10366E000E94A2260E94A8260E9482260E94A826B8
:10367E00EA3010F40C94891B0E94AD260E94B326EA
:10368E000E9482260E94B326E630E0F10E94B82600
:10369E000E94BE260E9482260E94BE26EA3090F12B
:1036AE000E94C3260E94C9260E9482260E94C92615
:1036BE00E23021F40E94BE26E33009F013C00E94CE
:1036CE00B326E53021F40E94A826E93009F00AC09D
:1036DE000E948726E53021F40E947D26E93009F00C
:1036EE0001C001C00FC0AAE8B0E0E0E00E94F828D7
:1036FE000E94C3260E94B8260E94AD260E94A226D2
:10370E000E949C26E991EFBFF991E991B991A99197
:10371E009991899179916991F990199009901895DB
:10372E005C9A0E94CE265C980E94CE2608951A932B
:10373E00E981F0E0E054F0401E2F113010F0153604
:10374E0008F002C0E12F01C0E0E018812296089532
:10375E007A92EDDFE0933705E0EAFDE20E94D4268F
:10376E000E940E27E0912E050E940E270E94A82689
:10377E000E940E27E0912C050E940E270E947D26A6
:10378E000E940E27E09137050E940E27E091FD045E
:10379E000E940E278CE30E94A825EE960895E2EE75
:1037AE00FDE20E94D4260E940E27E0912E050E9473
:1037BE000E270E94A8260E940E27E0912C050E943B
:1037CE000E270E947D260E940E27E09138050E944A
:1037DE000E2788E30E94A825EA960895A0E0049992
:1037EE00A1E0A03019F4E0E0E91509F061C0E2E0D3
:1037FE00E0931C05E091FE04EF5FE093FE04E1E030
:10380E009E2E0E941427E091FE040E941C27D9F4DC
:10381E00E1E0E0933805C3DFE1E0E093FF04E0EF81
:10382E00F9E10E9421270E942427E3E2F0E00E94A2
:10383E00292756DEE0E0F3E00E9430270E9435276C
:10384E000E943A2734C0E230A0E0FA0781F5E0EF9B
:10385E00F1E10E9421270E942427E9E1F0E00E9475
:10386E0029273EDE0E943E27E0933805E5E0E093EF
:10387E001C0595DF0E943E27E093FD04E0E2E7156C
:10388E0009F066DFE0E27E2EEA93EFE4F0E00E94BC
:10389E0029270E943527E4DCE6E0F3E00E9430277A
:1038AE000E9435270E943A27E0E0E093FE0407C00D
:1038BE00049B03C0E1E0E91509F001C099240895C5
:1038CE00A0E00399A1E0A03059F4E0E0EC1541F43A
:1038DE00A091FD04A03021F4A0913805A13009F08B
:1038EE0015C0E091FF04EF5FE093FF0419DFE1E004
:1038FE00CE2EA091FF04AD3010F0AF3009F403C00E
:10390E00E1E0E093FF040E94432707C0039B03C03E
:10391E00E1E0EC1509F001C0CC24E091FF040E9417
:10392E001C2711F4E1E447C0E230A0E0FA0711F4DD
:10393E00E2E441C0E330A0E0FA0711F4E3E43BC057
:10394E00E430A0E0FA0711F4E4E435C0E530A0E07D
:10395E00FA0711F4E5E42FC0E630A0E0FA0711F4FF
:10396E00E6E429C0E730A0E0FA0711F4E7E423C04B
:10397E00E830A0E0FA0711F4E8E41DC0E930A0E059
:10398E00FA0711F4E9E417C0EA30A0E0FA0711F4DF
:10399E00EAE411C0EB30A0E0FA0711F4EBE40BC03F
:1039AE00EC30A0E0FA0711F4ECE405C0EF30A0E033
:1039BE00FA0711F4E0E2AE2E0895A0E00299A1E01C
:1039CE00A03059F4E0E0EB1541F4A091FD04A030D5
:1039DE0021F4A0913805A13009F015C0E091FF0443
:1039EE00E150E093FF049CDEE1E0BE2EA091FF04C7
:1039FE00A03011F4AF3009F403C0ECE0E093FF0403
:103A0E000E94432707C0029B03C0E1E0EB1509F0BB
:103A1E0001C0BB240895A0E00199A1E0A03039F4C3
:103A2E00E0E0EE1521F4A0913805A13009F028C090
:103A3E00E394E0910005EF5FE09300057A2C0E947D
:103A4E001427E09100050E941C2741F4E1E0E09369
:103A5E00FD04E4E0E0931C057BDE11C0E230A0E043
:103A6E00FA0769F40E943E27E093FD04E3E0E09339
:103A7E001C056EDEE0E27E2EE0E0E093000507C05E
:103A8E00019B03C0E1E0EE1509F001C0EE2408959C
:103A9E00E0910605F0910705E130A0E0FA0719F470
:103AAE00E0E2FBE214C0E230A0E0FA0719F4E0EF26
:103ABE00F9E20DC0E330A0E0FA0719F4E0EFF5E209
:103ACE0006C0E430A0E0FA0769F4E0E5FCE2FA9300
:103ADE00EA930E94E6250E94E6250E9449270E944D
:103AEE004E27FEDC08956597E0E0EB87EC87ED87C7
:103AFE00EE87EF87E88BE98BEA8B0E94092940E07D
:103B0E0050E000E010E0083CE0E01E0714F00C94DA
:103B1E00B8200E945327A432B1F40E945827A43231
:103B2E0091F40E945D27A43571F40E946227A83794
:103B3E0051F40E946727A43731F4F801E057FC4F87
:103B4E00A081AC3209F02EC04424E4E6E41590F0D6
:103B5E00E42DF0E0BF01ED5AFB4F0F01D80117968F
:103B6E00FB01EA0FFB1FE557FC4FE081D001EC9300
:103B7E0043940BC0E1E03E2ED8011796E42D0E942F
:103B8E002526E557FC4FA2E2A083D8011796E42D17
:103B9E000E942526E557FC4FA081A232B1F6E7E040
:103BAE00E0931C050E945327AB3281F40E945827E4
:103BBE00A33461F40E945D27A33541F40E9462276D
:103BCE00A13521F40E946727AA3309F046C0F801F7
:103BDE000E946C27AAE0B0E00E949F28DF01F80146
:103BEE000E947227EA0FFB1FEF87F88BAF85B8890B
:103BFE001B9724F0AF85B8891F970CF005C0E1E044
:103C0E00F0E00E94782729C0AF85B8891F9724F06D
:103C1E00AF85B88952970CF005C0E2E0F0E00E9443
:103C2E0078271BC0AF85B889529724F0AF85B88925
:103C3E005F970CF005C0E3E0F0E00E9478270DC01E
:103C4E00AF85B889909724F0AF85B889D2970CF0DC
:103C5E0004C0E4E0F0E00E9478270E945327A234CB
:103C6E0041F40E945827A53521F40E945D27A33503
:103C7E0009F087C0F801E556FC4F0E947D27E093BE
:103C8E001805F801E456FC4F0E947D27E0931905B4
:103C9E00F801E356FC4F0E947D27E0931A05F801C8
:103CAE00E256FC4F0E947D27E0931B05A0911B0559
:103CBE00A13119F4EAE0E0931B05A0911805A1319A
:103CCE0030F0E0911805F0E03797E0931805A091D9
:103CDE001905A13130F0E0911905F0E03797E09326
:103CEE001905F801EF55FC4FA081A13331F4F8010D
:103CFE00EE55FC4FA081A83309F043C0E1E0E093FC
:103D0E001C05A0911A05EAE0EA9FF001DF01E0919F
:103D1E001B050E942526E0932105F0932205A09114
:103D2E001805E0E1EA9FF0013197DF01E0911905F6
:103D3E00F0E0AE0FBF1FEAE0F0E00E949F28E09394
:103D4E002305F0932405A0912105B0912205EA0FD9
:103D5E00FB1FE0932505F0932605EDE1F5E0FA93C0
:103D6E00EA93E3E3FEE2FA93EA93E0912505F091FC
:103D7E0026050E9492280E94E02884E00E94782561
:103D8E0028960E945327AE3481F40E945827A534FA
:103D9E0061F40E945D27A43541F40E946227A93484
:103DAE0021F40E946727A03509F049C00E9481279F
:103DBE0040E050E0493CE0E05E075CF40E9486275C
:103DCE0029F40E94902711F40E9499274F5F5F4FAC
:103DDE00F1CFED89FE89E357FC4FA081A23279F530
:103DEE000E94A1270E947D27E9F40E94A6270E9427
:103DFE007D27C1F40E94AB270E947D2799F4ED899F
:103E0E00FE890E94722771F4ED89FE89ED56FC4FF2
:103E1E000E947D2739F4ED89FE89EC56FC4F0E94F5
:103E2E007D2709F006C0E0E0E0930205E09303056C
:103E3E0006C0E1E0F0E0E0930205F09303050E9476
:103E4E005327A43481F40E945827A53461F40E94AC
:103E5E005D27A63541F40E946227A93421F40E9401
:103E6E006727A43409F041C00E9481270E94B02721
:103E7E0040E050E0493CE0E05E075CF40E9486279B
:103E8E0029F40E94902711F40E9499274F5F5F4FEB
:103E9E00F1CF0E94C027A081A23239F5ED89FE89AB
:103EAE00E357FC4FA081E091F804EA17A9F40E94B1
:103EBE00A127A081E091F904EA1771F40E94A627C8
:103ECE00A081E091FA04EA1739F40E94AB27A08191
:103EDE00E091FB04EA1709F003C00E94C52705C054
:103EEE00E0E0E0932905E0932A050E945327A734CA
:103EFE0081F40E945827A03561F40E945D27A235F7
:103F0E0041F40E946227AD3421F40E946727A33446
:103F1E0009F024C10E94812740E050E0493CE0E0D6
:103F2E005E0744F5FA01A98DBA8DEA0FFB1FE4571F
:103F3E00FC4FA081AC32D9F40E94902711F40E945C
:103F4E009927AF89B88D129739F4E98DFA8DE40F60
:103F5E00F51F3196EB8BFC8BAF89B88D199739F421
:103F6E00E98DFA8DE40FF51F3196E98BFA8B4F5FD1
:103F7E005F4FD4CFE3E0EA936BD8E4E0EA9368D8DE
:103F8E00E5E0EA9365D80E94C0270E947D27FF23B3
:103F9E0052F03A9744F4ED89FE893196AB89BC898B
:103FAE00EA17FB0709F481C0ED89FE890E946C2790
:103FBE00EE83AE81A03010F0AA3008F005C0EE817D
:103FCE00A0E8B0E00E94F8280E94AB270E947D274F
:103FDE00EE83AE81A03010F0AA3008F005C0EE815D
:103FEE00A2E8B0E00E94F8280E94A6270E947D2732
:103FFE00EE83AE81A03010F0AA3008F005C0EE813D
:10400E00A4E8B0E00E94F8280E94A1270E947D2714
:10401E00EE83AE81A03010F0AA3008F005C0EE811C
:10402E00A6E8B0E00E94F828ED89FE89E357FC4F20
:10403E000E947D27EE83AE81A03010F0AA3008F0EA
:10404E0004C00E940826EB87FC870E94C0270E94AE
:10405E007D27EE83AE81A03010F0AA3008F004C0A8
:10406E000E940826ED87FE87ED85FE85AAE0B0E06A
:10407E000E949F28AB85BC85EA0FFB1FE987FA8754
:10408E003597EF83F887A885AA234AF47896EF83AD
:10409E00F8870E94CC270E94D1270E94D8270E9421
:1040AE00CC270E94D1270E94D827EB89FC89E457A0
:1040BE00FC4FE081F0E0E0930405F0930505E7E3A3
:1040CE00FEE2FA93EA93E0910405F09105050E9451
:1040DE0092280E94E02884E00E94A82526960E943D
:1040EE00DF27FF2312F03A970CF038C00E94DF272B
:1040FE00AEE8B0E00E94E427E357FC4F0E947D2714
:10410E00ACE8B0E00E94E427E257FC4F0E947D2706
:10411E00A2E9B0E00E94E427E157FC4F0E947D2700
:10412E00A0E9B0E00E94E427E057FC4F0E947D27F3
:10413E00A6E9B0E00E94E4270E946C27A4E9B0E053
:10414E000E94F828AF81B885539744F00E94E92762
:10415E00F0E03197ACE8B0E00E94F8280F5F1F4FF7
:10416E00D2CC88246624F19A00E010E0083CE0E00E
:10417E001E073CF4ABE8B3E00E94EE270F5F1F4F23
:10418E00F5CF0E9410296B96089500E010E0E0E84C
:10419E00E0936100E0E0E0936100EFEFE7B9E2B990
:1041AE00E0EFE1B9E0E0E5B9EFEFE4B9E0E0EBB95B
:1041BE00E0EFEAB9E0E0E093C000E8E9E093C10087
:1041CE00E6E0E093C200E0E0E093C500E5E0E093B6
:1041DE00C400E0E0E4BDE5E0E5BDE0E0E6BDE7BD3E
:1041EE00E8BDE1E0E0936E000E94EB17EAE0F0E03C
:1041FE000E94F3270E94F927E0EFF9E00E942127A1
:10420E000E94E625EFE7F0E00E94292769D9E0ED4C
:10421E00F7E00E94F327E0EFFDE00E9421270E94C5
:10422E00E625EDE2F0E00E9429275AD9E3EFF4E00B
:10423E00FA93EA93E7E3F0E00E94FD270E94042838
:10424E00EDE0F3E0FA93EA93EBE3F0E00E94092845
:10425E000E9435270E943A27E8EFF4E0FA93EA939A
:10426E00E2E5F0E00E9409280E9435270E943A27D5
:10427E00E0EDF7E00E94F3270E94C926EF3F79F4A4
:10428E00AAE8B0E0E0E00E94F8280E94B8260E945A
:10429E00A2260E94C3260E94AD260E949C260E9442
:1042AE000C28EF3F41F40E94E927EF3F21F40E94D2
:1042BE001128EF3F09F019C0ACE8B0E0E0E00E9431
:1042CE00F828AEE8B0E00E94F828A0E9B0E00E941D
:1042DE00F828A2E9B0E00E94F828A4E9B0E00E9414
:1042EE00F828A6E9B0E00E94F828A8E2B0E00E9403
:1042FE00EC28EF3F31F4A8E2B0E0E0E00E94F828AD
:10430E0004C0A8E2B0E00E94EC28E0933705AAE2D0
:10431E00B0E00E94EC28EF3F31F4AAE2B0E0E0E01A
:10432E000E94F82804C0AAE2B0E00E94EC28E093B4
:10433E00380500E010E0003AE0E01E073CF4A3E58B
:10434E00B4E00E94EE270F5F1F4FF5CF7894E0EF99
:10435E00F1E10E9421270E942427E9E1F0E00E946A
:10436E002927BED80E948C2686E695E00197F1F7A4
:10437E00BADB9924CC24BB240E94C527F19902C034
:10438E00B2DBF19AAA92EFE4F0E00E9429270E9494
:10439E0035270E94371922DA93DA0FDB3CDB78DB04
:1043AE00A0912905B0912A05119711F00C94D323F1
:1043BE00A0910205B0910305119711F4E5E401C037
:1043CE00E0E2EA93E3E1F0E00E942127E1E0EA93E4
:1043DE00EA930E943719E0911C05E03011F00C941D
:1043EE006722E8E0F5E0FA93EA93EEE3FEE2FA9351
:1043FE00EA930E94C9260E940E270E94BE260E94A2
:10440E000E270E94B3260E940E270E94A8260E9405
:10441E000E270E9487260E940E270E947D260E944C
:10442E000E2788E10E9478256C960E947D26E093E7
:10443E002B050E948726E0932C050E94A826E09368
:10444E002D050E94B326E0932E050E94BE26E09312
:10445E002F050E94C926E09330050E94E927E093BC
:10446E003105AEE8B0E00E94EC28E09332050E94E0
:10447E000C28E0933305A2E9B0E00E94EC28E0930B
:10448E0034050E941128E0933505A6E9B0E00E949C
:10449E00EC28E0933605E0913705A8E2B0E00E94E3
:1044AE00F828E0913805AAE2B0E00E94F828E8E08A
:1044BE00F5E00E9429270E9416280E9404281AC19E
:1044CE00A0911C05A130F9F40E94B0270E944E273E
:1044DE000E947728EDE1F5E0FA93EA93E0E3F0E04D
:1044EE000E941B28E0E0EA93E2E0EA93E1E0EA931F
:1044FE000E94BD190E94F927E0EDF7E00E942228E4
:10450E000E94B027F4C0A0911C05A23011F00C94AB
:10451E00DD220E94B0270E944E270E947728E1E1FB
:10452E00F3E00E9409280E9416280E9435270E9457
:10453E003A27E4EFF1E00E942228E2E2F3E0FA9358
:10454E00EA93EDE2F0E00E9426280E943A270E94AC
:10455E002D28E4E2F3E0FA93EA93E5E3F0E00E941B
:10456E0026280E943A270E942D28E6E2F3E0FA93CD
:10457E00EA93EDE3F0E00E9426280E943A270E947B
:10458E002D28E8E2F3E0FA93EA93E5E4F0E00E94E6
:10459E0026280E943A27E4EFF1E00E9422280E948A
:1045AE00F9270E9430280E94B027A1C0A0911C05B7
:1045BE00A330C9F40E94B0270E944E270E9477288C
:1045CE00EAE2F3E0FA93EA93ECE1F0E00E941B28B2
:1045DE000E9435270E943A270E94F9270E94302810
:1045EE000E94B02784C0A0911C05A430C9F40E947B
:1045FE00B0270E944E270E947728E3E3F3E00E9443
:10460E003328E3E0F0E0FA93EA930E9435270E9404
:10461E003A270E94F9270E9430280E94B02767C0CF
:10462E00A0911C05A53019F50E94B0270E944E27B7
:10463E000E947728EFE3F3E00E9433280E941628A9
:10464E000E9435270E943A27EAE4F3E00E943328BD
:10465E00E4E0F0E0FA93EA930E9435270E943A27AD
:10466E000E94F9270E9430280E94B02740C0A091D6
:10467E001C05A630B9F40E94B0270E944E270E9456
:10468E007728E6E5F3E00E9433280E9416280E9460
:10469E0035270E943A270E94F9270E9430280E944F
:1046AE00B02725C0A0911C05A73021F50E94B02788
:1046BE00E3E5F4E0FA93EA930E944E270E9416284F
:1046CE000E9435270E943A27E8EBFBE00E94222841
:1046DE000E94B02700E010E0003AE0E01E073CF434
:1046EE00A3E5B4E00E94EE270F5F1F4FF5CFE0E089
:1046FE00E0931C050E943628A134E0E0BE0719F4B1
:10470E00E0EFFDE10BC00E943628A635E0E0BE07C3
:10471E0019F00E943628D997E0EFF1E2FA93EA9366
:10472E00EFE5F0E00E942127EFE7F0E0FA93EA933D
:10473E000E944E270E94771AE0E1F5E0FA93EA9381
:10474E00E5EAFEE2FA93EA93A6E9B0E00E943B287E
:10475E000E9411280E940E27A2E9B0E00E943B2879
:10476E000E940C280E940E27AEE8B0E00E943B2863
:10477E000E94E9270E940E2788E1B3D16C96E0E1F2
:10478E00F5E0FA93EA93E2E2F0E00E9409280E9433
:10479E0035270E943A2716C0EFE6F3E0FA93EA9324
:1047AE00EEE1F0E00E94FD270E9435270E943A2795
:1047BE00E8E7F3E0FA93EA93EFE0F0E00E942628B0
:1047CE000E943A27E0EFF5E1FA93EA93E9E6F0E08A
:1047DE000E940928EFE7F0E00E9429270E94771A2D
:1047EE00CDCDFFCFE091C000E072E1F3E881E09320
:1047FE00C60021960895EA81EA93F4DFA881B98173
:10480E000E940226239608951A930A93AA81BB81C9
:10481E0012960E94D828309729F1AA81BB8114964E
:10482E000E94D8288F01309761F00230E0E01E0719
:10483E00C0F0F80131978F01AA81BB811496ED93D8
:10484E00FC93AA81BB8112960E9402263197AC81FD
:10485E00A083AA81BB810E94D828FF2312F00E9458
:10486E00022606C0AA81BB81EFEFFFEFED93FC930A
:10487E00198108812596089526970E94092910E02E
:10488E00AC85BD85E0E0F0E0ED93FC93EA89FB8911
:10489E003196EA8BFB8B3197E4912E2FE03011F499
:1048AE000C947025E12FE03039F4253211F411E02B
:1048BE0002C00E943E280CC1E130A9F4253219F441
:1048CE000E943E2804C112E040E000E02D3211F4B7
:1048DE0001E0FEC02B3211F44BE2FAC0203211F48B
:1048EE0040E2F6C002C0E23039F450E013E020336B
:1048FE0011F40068EDC004C0E33011F00C946F2584
:10490E00203310F02A3308F007C0AAE05A9F502D2A
:10491E00E22FE0535E0FDCC0E22FE33649F40E9433
:10492E004728E889F989A481AA930E944D28CFC00F
:10493E00E33741F40E9447280E9455280E94C9255A
:10494E001E2F0AC0E03761F40E9447280E945528A6
:10495E000E94D3251E2F086002600F7730E035C00D
:10496E00E43611F0E93611F4046002C0E53731F493
:10497E00E0E4FDE2EE83FF8315E00DC0E83511F4AF
:10498E00086004C0E83711F00C946E25EAE4FDE2ED
:10499E00EE83FF8314E002FF14C00E9447280E949A
:1049AE005F28AB85AA233AF4EA85FB850E94872807
:1049BE00EA87FB874DE2403011F01F5F01C00B7F8D
:1049CE0004C00E9447280E945F2800FD11C01517E1
:1049DE0078F407FF08C002FF04C00B7F242F11508C
:1049EE0001C020E301C020E20E943E285150EFCFCB
:1049FE00312F01FF17C03030A1F003FF06C0EE814A
:104A0E00FF812591EE83FF8305C0AE81BF812D917D
:104A1E00AE83BF830E943E28503009F05150315072
:104A2E00EACF4BC020E3EE81FF810E94DC28E887AD
:104A3E00F987EE81FF813296EE83FF83E885F98553
:104A4E00AA85BB85AE17BF0750F02F5FA885B98525
:104A5E00EA85FB85EA1BFB0BEA87FB87EFCF2A3340
:104A6E0028F003FF02C0295F01C0295D04FD1AC0B2
:104A7E00213320F4A885B985119709F409C053177D
:104A8E0010F000FF01C013C020E207FF0BC020E3AF
:104A9E00006102FF07C00B7F4A930E944D285030E1
:104AAE0009F051500E943E28503009F051503150BB
:104ABE00A885B985129708F0B5CF00FF08C0503011
:104ACE0031F05150E0E2EA930E944D28F8CF10E009
:104ADE00DDCEAC85BD850E94D8280E941029649633
:104AEE000895FF92F82E26970E940B290E946728A0
:104AFE00309719F4EFEFFFEF1FC0DE0116960E94FC
:104B0E0083288D010E946728EE83FF83E0E0E8870B
:104B1E00E987DE011A960E946E28EBE0F4E2FA9322
:104B2E00EA93FE013A96FA93EA93A6DE9F01AE81CE
:104B3E00BF81E0E0EC93F9010E9412292A96FF90C2
:104B4E000895FF92F82E26971A930A93DE01149673
:104B5E000E9483288D01E0E0EC83ED83EE83EF83EA
:104B6E00DE0118960E946E28E2E0F4E2FA93EA93D0
:104B7E00FE013896FA93EA937FDE19810881289612
:104B8E00FF900895A991B991EE27FF276D916623A5
:104B9E0011F03196FBCF0895AA27BB27E991F99121
:104BAE000590002011F01196FBCFFD010895FA93A8
:104BBE00EA930C94F317FA93EA930C940F18E0E02F
:104BCE00F0E0FA93EA930895EC81F0E0FA93EA9319
:104BDE000C941A18E12FF0E00895AE81BF81EE27F4
:104BEE00A10FBE1FEC910895FE01E95BFF4F0190EE
:104BFE00F081E02D0895ED91FD913196FE93EE93A7
:104C0E000895EE81F0E00895E0918603F091870318
:104C1E00E15CF040A6E0B0E00E949728E458F74F20
:104C2E000895E15CF040A6E0B0E00E949728E458B9
:104C3E00F74F0895F0E0FA93EA930895F0E0EA0F43
:104C4E00FB1F0895FA93EA93EE81FF810895FA937C
:104C5E00EA93EE81EA930C94A518E985FA85FA9306
:104C6E00EA930E94C925A12FB0E0AE17BF070895A1
:104C7E00A985BA85AE0FBF1F0895E885F985FA9309
:104C8E00EA930895EA93E985EA930C943719EA8139
:104C9E00F0E0E7FDFFEF3896DF01EB81F0E00E94D8
:104CAE009F280895EB81A8E0EA9FF0010895EB811B
:104CBE00F0E0AD81BE81EA0FFB1FED83FE83089508
:104CCE00A985BA85EA0FFB1FA1810895EC81A8E0A2
:104CDE00EA9FF001A885B985AE1BBF0BBA93AA93C4
:104CEE00CCCFAE1BBF0BAF83B8870895A0E8B0E062
:104CFE000E94EC280895EF5F0E94F828E150089575
:104D0E00A2E8B0E00E94EC280895E8E6FDE2FA93EE
:104D1E00EA9380E00E94A82522960895FA93EA93DA
:104D2E0080E00E94A82522960895A0E8B0E0E0E079
:104D3E000E94F8280895A2E8B0E0E0E00E94F8286A
:104D4E000895A4E8B0E00E94EC280895A4E8B0E02D
:104D5E00E0E00E94F8280895A6E8B0E00E94EC2852
:104D6E000895A6E8B0E0E0E00E94F8280895A8E8CB
:104D7E00B0E00E94EC280895A8E8B0E0E0E00E94C0
:104D8E00F8280895AAE8B0E00E94EC280895E4E619
:104D9E00F0E0FA93EA930C947728FA93EA93E8EF0B
:104DAE00F4E0662777270E94E028E0913205FF277E
:104DBE00662777270E94E028E0913105FF276627B6
:104DCE0077270E94E028E0913405FF276627772792
:104DDE000E94E028E0913305FF27662777270E947F
:104DEE00E028E0913605FF27662777270E94E02806
:104DFE00E0913505FF27662777270E94E028E0918E
:104E0E003005FF27662777270E94E028B0CFFF27BF
:104E1E00662777270E94E02808950E94971BE8ECEA
:104E2E00F0E0FA93EA930C947728F0E0E130A0E0FA
:104E3E00FA070895FA93EA93C2CEE5E0F0E0FA930A
:104E4E00EA930895FA93EA93E7E0F0E0FA93EA938F
:104E5E000895FA93EA93ECE2F0E0F4CFE0E0EA93FF
:104E6E00E1E0EA930895EFEFEA930C94BD19EFE0B9
:104E7E00E093FF04E0E00895E8ECF0E0FA93EA93A3
:104E8E000C947728E4E1F0E0FA93EA930895E1E0D8
:104E9E00F0E0FA93EA930895F801E557FC4FA081EC
:104EAE000895F801E457FC4FA0810895F801E357E7
:104EBE00FC4FA0810895F801E257FC4FA0810895A0
:104ECE00F801E157FC4FA0810895EF56FC4FE081A9
:104EDE00F0E0F0970895EE56FC4FE081F0E0F09789
:104EEE000895E0930605F09307050895E081F0E03C
:104EFE00F0970895F8013496E98FFA8F0895FA0124
:104F0E00A98DBA8DEA0FFB1FE457FC4FA081AA337F
:104F1E000895EF89F88D3196EF8BF88FAF89B88DA4
:104F2E0011970895E98DFA8DE40FF51F3196ED8BEB
:104F3E00FE8B0895ED89FE89E257FC4F0895ED89A9
:104F4E00FE89E157FC4F0895ED89FE89E057FC4F2D
:104F5E000895E2E0EA930E942F18E3E0EA930E949C
:104F6E002F18E4E0EA930E942F18E5E0EA930C94E0
:104F7E002F18ED89FE89E457FC4F0895E1E0F0E02B
:104F8E00E0932905F0932A050895AF81B885EAE0EC
:104F9E00F0E008950E94BC28A8E8B0E00E94F8282E
:104FAE00F4CF0E94B728AAE8B0E00E94F82808952E
:104FBE00E989FA89E457FC4F99CF0E94F828E989CC
:104FCE00FA890895ACE8B0E00E94EC280895A00F8D
:104FDE00B11FE0E0EC930895FA93EA930E947728CC
:104FEE000C944C180E94971B0C94971BFA93EA93FF
:104FFE00E2E0F0E0FA93EA930895E0E0EA93E2E06B
:10500E00EA9331CFFA93EA9318CFA0E9B0E00E9469
:10501E00EC280895A4E9B0E00E94EC280895E2E09F
:10502E00F0E0FA93EA930895FA93EA93E3E0F0E05E
:10503E00FA93EA930895FA93EA930C947728FA93E5
:10504E00EA93E4E0F0E0FA93EA9308CFECE2F1E0C1
:10505E00F2CFE8EEF3E0EFCFFA93EA9313CFA091FD
:10506E000405B091050508950E94EC28D0CE2A9330
:10507E00ED85FE85FA93EA93E989FA8909950895F3
:10508E00E889F9893497E88BF98B0895ED85FE85CB
:10509E00FA93EA93E989FA8909950895A889B98955
:1050AE0014960E94D828EE83FF83FA93EA9308950C
:1050BE00A889B98914960E94D828EA87FB87089593
:1050CE00DE011C960E9483280E94D82808950E9413
:1050DE0083280E94D828FA93EA931A930A93089584
:1050EE00E991F991309639F08DEC9AE00197F1F74C
:1050FE00A8953197C9F708950024AF0DB01D0895F6
:10510E00F195E195F0400895EE0FFF1FEE0FFF1F92
:10511E00EE0FFF1F08956F2F660F660B762F089503
:10512E00FA9FF02DEB9FF00DEA9FE02DF10D089503
:10513E002AD0F6DF0EF4E4DF08950024112490E166
:10514E00AA0FBB1F001C111C0E1A1F0A18F40E0EFC
:10515E001F1E01C0A1609A9599F7FD01D001089517
:10516E0012D0EBDF0EF4CCDF0895E894B7FF04C045
:10517E00A095B09511966894F7FDC2DFDEDFFD01B4
:10518E000EF4BEDF0895E894F7FF02C0B9DF68940D
:10519E00B7FF06C0A095B095119600F8039400FADB
:1051AE000895ED91FC91119708950590F491E02DDD
:1051BE0008957A936A93FA93EA9308951B2EBF2F5C
:1051CE00F12D1A2EAE2FE12D0895F999FECFFF93F2
:1051DE00FFB7F894A1BDB2BDF89AE0B5FFBFFF913D
:1051EE000895F99B02C0A895FCCF9FB7F894A1BD76
:1051FE00B2BDF89A80B5E81719F0E0BDFA9AF99A9F
:10520E009FBF08955A934A933A932A931A930A93F7
:10521E0008955D814C813B812A8119810881089511
:00000001FF
