:080000000C9443170C9400005E
:100008000C9400000C9400000C9400000C94000068
:100018000C9400000C9400000C9400000C94000058
:100028000C9400000C9400000C9400000C94000048
:100038000C9400000C9400000C9400000C94000038
:100048000C94691A0C9400000C943E1A0C9400004D
:100058000C9400000C9400000C9400000C94000018
:100068000C9400000C9400000C9400000C94000008
:100078000C940000000000000000000000000000D8
:100088000000000000000000000000000000000068
:100098000000000000000000000000000000000058
:1000A8000000000000000000000000000000000048
:1000B8000000000000000000000000000000000038
:1000C8000000000000000000000000000000000028
:1000D8000000000000000000000000000000000018
:1000E8000000000000000000000000000000000008
:1000F80000000000000000000000000000000000F8
:1001080000000000000000000000000000000000E7
:1001180000000000000000000000000000000000D7
:1001280000000000000000000000000000000000C7
:1001380000000000000000000000000000000000B7
:1001480000000000000000000000000000000000A7
:100158000000000000000000000000000000000097
:100168000000000000000000000000000000000087
:1001780000000000000000000000000000004F0028
:100188000000000000070007000000000024FF2412
:10019800FF24000000444AFF4A32000040231308AD
:1001A800C4C2000000364955224080000000050303
:1001B80000000000003C4281000000000081423C39
:1001C800000000000014083E081400000010107C15
:1001D800101000000000281800000000000808089F
:1001E80008080800006060000000000040201008B7
:1001F80004020000007EFF8181FF7E00008082FEF5
:10020800FF80800000E2F191919F8E000062C3C9D7
:10021800C9FF760000181412FFFF1000006F8F89C5
:1002280089F97100007EFF8989F97200000101F1E6
:10023800FD0703000076FF8989FF760000468F8955
:1002480089FF7E0000006666000000000000563648
:1002580000000000000814224100000000242424AB
:10026800242400000000412214080000000201B10B
:1002780009060000006291F1817E000000FE111164
:1002880011FE000000FF898989760000007E8181C7
:100298008142000000FF8181423C000000FF898903
:1002A8008981000000FF090909010000007E819191
:1002B8009172000000FF101010FF0000000081FF85
:1002C80081000000004080817F01000000FF1824A9
:1002D8004281000000FF80808080000000FF020C47
:1002E80002FF000000FF040810FF0000007E81816B
:1002F800817E000000FF1111110E00007E81A141D6
:10030800BE00000000FF1131518E0000008689896F
:1003180089710000000101FF01010000007F808059
:10032800807F0000003F4080403F0000003FC060E9
:10033800C03F000000E3140814E30000000708F0C1
:100348000807000000C1A1918987000000FF818192
:10035800000000000015167C161500000041417FC2
:1003680000000000000402010204000000404040B8
:100378004040000000010204000000000060949466
:100388009478000000FF88888870000000788484D2
:100398008400000000788484887F000000789494AA
:1003A800945800000010FE1101020000000C929207
:1003B800927E000000FF100808F00000000084FD95
:1003C80080000000006080807D00000000FF304851
:1003D80084000000000081FF8000000000FC043859
:1003E80004F8000000FC080404F800000078848485
:1003F8008478000000FC1414140800000008141489
:1004080018FC000000FC080404080000008894940C
:100418009460000000047F8480400000007C80809D
:1004280040FC0000003C4080403C0000003EC060B2
:10043800C03E0000004224182442000000068888BC
:10044800887E000000C4A4948C8400000008768193
:1004580000000000000000FF000000000081760896
:10046800000000000008082A1C08000000081C2AD8
:1004780008080000007C8281827C000000000000E7
:100488000000000000000000000000000000000064
:100498000000000000000000000000000000000054
:1004A8000000000000000000000000000000000044
:1004B8000000000000000000000000000000000034
:1008780000000000C1C1C1C10000C2C2FEFE0100EB
:10088800C3C31F1F0100C4C4FCFC0100C5C5C5C506
:100898000101C6BDBFBE0101C7C7C0C00100C882F3
:1008A80084830101C9C9FDFD0100CA85878601014C
:1008B800CB888A890101CC8BCC8B0101CD8CCD8C66
:1008C8000101CE11CE110101CFCF13130100D0D0F9
:1008D8008F8F0100D1D11B1B0100D2D29191010051
:1008E800D39294930101D49597960101D5179A99BB
:1008F8000101D69B9D9C0101D7D7D7D70000D8D836
:100908009E9E0101D9D99F9F0101DAA0A2A10101F0
:10091800DBA3A5A40101DCDCDCDC0000DDA6A8A7C4
:100928000101DEA9ABAA0101DFACAEAD0101E0E037
:10093800E0E00000E1AFB1B00101E2E2E2E2000074
:10094800E3B2B4B30101E4B5B7B60101E5B8BAB989
:100958000101E6E6BCBC0100E7E7E7E70000E8E8DC
:10096800E8E80000E9E9E9E90000EAEAEAEA000063
:10097800EBEBEBEB0000ECBDBFBE0101EDBDBFBE74
:100988000101EEEEEEEE0000EFEFEFEF0000F0F009
:10099800F0F00000F1F1F1F10000F2F2F2F20000E3
:1009A800F3F3F3F30000F5F5F5F50000F6F6F6F6C7
:1009B8000000F7F7F7F70000F8F8F8F80000FBF97F
:1009C800FBFA0101BBBBF4F40100811C1E1D0101EF
:1009D80090181A1901019814161501018E8E121219
:1009E80001008D108D10010100C0F0303818181862
:1009F8001898B0B0303030606060606060C0C0C0CF
:100A0800C0C0C0C08080808080000000000000005E
:100A180000000000000000000000000000000000CE
:100A280000000000000000000000000000000000BE
:100A380000000000000000000000000000000000AE
:100A4800000000000000000000000000000000009E
:100A5800000000000000000000000000000000008E
:100A6800000000000000000000FFFF00000C18F06C
:100A7800E70FFD0F07000000000000000000000065
:100A88000000000001010181838383C3E767E6C694
:100A9800060E0C0C0C0C0C1818187870E0C000002E
:100AA800000000E0E0000000000080C0E06000E01E
:100AB800E0606060606060E0C000000080C060606E
:100AC800C080000000E0E0606060606060C080009E
:100AD800000080C06060C0800000000080C06060CE
:100AE800606060C08000000000FFFF00000000FFA1
:100AF800FF00FF0000000000000000000000008070
:100B0800C06030188CC66331180808090B0B0B0934
:100B18000808080808081C3E363E1C00FFFF0000B5
:100B2800000000FFFF70F88C8E070301000000FF33
:100B3800FFE0E0E06060607F3F00FEFF61606060B2
:100B48006061FFFE00FFFF000000000000FFFF00E3
:100B5800FEFF616060606061FFFE00FFFF00000053
:100B6800000000000100000000FFFF00000000FF7F
:100B7800FF003F3030303030303030180CC6E331B1
:100B8800180C06030100000000000000000000002F
:100B9800000000000000000000000000FFFF00004F
:100BA8000000003F3F00000103070E1C3830003FE3
:100BB8003F00000103070E3C38003F3F00000000E3
:100BC80000003F3F003F3F3030303030301F0F00D3
:100BD8003F3F0000000000003F3F000F1F30303053
:100BE800303030381800000000FFFF00000000FF20
:100BF800FF00FF0303030303030303060C19336613
:100C0800CC983060C08000000000000000000000A8
:100C1800000000000000000000000000FFFF0000CE
:100C280000000000000000000000000000000000BC
:100C380000000000000000000000000000000000AC
:100C4800000000000000000000000000000000009C
:100C5800000000000000000000000000000000008C
:100C6800000000000000000000FFFF00000000FF7F
:100C7800FF00FF000000000000000000000000006E
:100C8800000103060C193366444444E4F4B4F4E464
:100C98000404040404040E1F1B1F0E00FFFF0000C1
:100CA80000FC0000000000F8040404F8000C040430
:100CB80004FC00F0888488F00080808000FC848434
:100CC800040400F80404040800FC000000FC00F020
:100CD800888488F000FC040404F800F8040404F88C
:100CE80000FC44C44438000000FFFF000006030174
:100CF8001C3E373E1C00000000000080808080C041
:100D0800C0C0C0C0E0606060303030303139191880
:100D1800181C0C0C0C0C0E0606060703010000003C
:100D2800000F080808080007080808070006080850
:100D38000807000F0000000F00000000000F08085F
:100D48000808000708080804000708080807000F33
:100D58000000000F000F0808080700070808080728
:100D6800000F0000010E0000000107060E0C0C0C1D
:100D78000C0C060606060303030303010101010127
:100D8800000000000000000000000000000000005B
:100D9800000000000000000000000000000000004B
:100DA800000000000000000000000000000000003B
:100DB800000000000000000000000000000000002B
:100DC800000000000000000000000000000000001B
:100DD800000000000000000000000000000000000B
:100DE80000000000000000000000000000000000FB
:100DF80000000000000000000000000000000000EB
:100E080000000000000000000000000000000000DA
:100E180000000000000000000000000000000000CA
:100E280000000000000000000000000000000000BA
:100E380000000000000000000000000000000000AA
:100E4800000000000000000000000000000000009A
:100E5800000000000000000000000000000000008A
:100E680000000000000000000000000000C0E0F0EA
:100E7800F0F8F8F8F8F8FCFCFCFCFCFCFCFCFCFCCA
:100E8800FCFCFCFCFCFCFCFCFCFCF8F8F8F8F8F0BA
:100E9800E0E0C000000000000000000000000000CA
:100EA800000000000000000000000000000000003A
:100EB800000000000000000000000000000000002A
:100EC800000000000000000000000000000000001A
:100ED800000000000000000000000000000000000A
:100EE800000000000000000000000000FEFFFF03FB
:100EF800010303030303030303030303030303FFC0
:100F0800FF030301030303030303030303030303AF
:100F18000307FFFE000000000000000000000000C2
:100F280000000000000000000000000000000000B9
:100F380000000000000000000000000000000000A9
:100F48000000000000000000000000000000000099
:100F58000000000000000000000000000000000089
:100F6800000000000000000000000000FFFFFFC0BC
:100F7800C0C0C0C0C0C0C0C0C0C0C0C0C0C0E0FF0A
:100F8800FFE0C0C0C0E0D0C8C4C4C4C4C8D0E0C07A
:100F9800E0F0FFFF0000000000000000000000007B
:100FA8000000000000000000000000000000000039
:100FB8000000000000000000000000000000000029
:100FC8000000000000000000000000000000000019
:100FD8000000000000000000000000000000000009
:100FE800000000000000000000000000FFFFFFFFFD
:100FF800FFFFFFFFFFFFFFFFFFFFFFFFFFFFFFFFF9
:10100800FFFFFFFFFFFFFFFFFFFFFFFFFFFFFFFFE8
:10101800FFFFFFFF000000000000000000000000CC
:1010280000000000000000000000000000000000B8
:1010380000000000000000000000000000000000A8
:101048000000000000000000000000000000000098
:101058000000000000000000000000000000000088
:101068000000000000000000000000003FFFFFE15A
:10107800E1E1E1FFFFFFF9D9D9D9D9D9D9D9D9D92E
:10108800D9D9D9D9D9D9D9D9C9FBFFFFFFE1E1C14C
:10109800E1F7FF3F00000000000000000000000032
:1010A8000000000000000000000000000000000038
:1010B8000000000000000000000000000000000028
:1010C8000000000000000000000000000000000018
:1010D8000000000000000000000000000000000008
:1010E80000000000000000000000000000001F3F9A
:1010F8003F3F3F3F3F0000000000000000000000AD
:10110800000000000000000000001F3F3F3F3F3F7D
:101118003F1F000000000000000000000000000069
:1011280000000000000000000000000000000000B7
:1011380000000000000000000000000000000000A7
:101148000000000000000000000000000000000097
:101158000000000000000000000000000000000087
:1014E80000000000000000000000000000F884C2B6
:1014F80002020202FE020202C2FE02020202C4F854
:1015080000000000000000000000000000000000D3
:1015180000000000000000000000000000000000C3
:1015280000000000000000000000000000000000B3
:1015380000000000000000000000000000000000A3
:101548000000000000000000000000000000000093
:101558000000000000000000000000000000000083
:1015680000000000000000000000001E1F7FFFFDBB
:101578007C1C1C1C1F1C1C1C1F1F7CFCFC7C1F0FC4
:101588000000000000000000000000000000000053
:101598000000000000000000000000000000000043
:1015A8000000000000000000000000000000000033
:1015B8000000000000000000000000000000000023
:10195800000000000038FC0202020202060606BA75
:10196800FABA0202FC380000000000000000000083
:10197800000000000000000000000000000000005F
:10198800000000000000000000000000000000004F
:10199800000000000000000000000000000000003F
:1019A800000000000000000000000000000000002F
:1019B800000000000000000000000000000000001F
:1019C800000000000000000000000000000000000F
:1019D8000000000000003F3EFEF2F23E3E3E3F3F68
:1019E800F3F3FF3E3F00000000000000000000008D
:1019F80000000000000000000000000000000000DF
:101A080000000000000000000000000000000000CE
:101A180000000000000000000000000000000000BE
:101A280000000000000000000000000000000000AE
:101CE80000000000000000000000000000F884C2AE
:101CF80082DAFAE2FE020202C2FE02020202C4F81C
:101D080000000000000000000000000000000000CB
:101D180000000000000000000000000000000000BB
:101D280000000000000000000000000000000000AB
:101D3800000000000000000000000000000000009B
:101D4800000000000000000000000000000000008B
:101D5800000000000000000000000000000000007B
:101D680000000000000000000000001E1F7FFFFDB3
:101D78007C1F1F1F1F1C1C1C1F1F7CFCFC7C1F0FB3
:101D8800000000000000000000000000000000004B
:101D9800000000000000000000000000000000003B
:101DA800000000000000000000000000000000002B
:101DB800000000000000000000000000000000001B
:101DC800000000000000000000000000000000000B
:101DD80000000000000000000000000000000000FB
:101DE80000000000000000000000000000000000EB
:101DF80000000000000000000000000000000000DB
:101E080000000000000000000000000000000000CA
:101E180000000000000000000000000000000000BA
:101E280000000000000000000000000000000000AA
:101E3800000000000000000000000000000000009A
:101E48000000000000000000E01090908000F0907A
:101E58009090600060909010000000002070F87072
:101E68002000807800FC0000000000000000000056
:101E7800000000000000000000000000000000005A
:101E8800000000000000000000000000000000004A
:101E9800000000000000000000000000000000003A
:101EA800000000000000000000000000000000002A
:101EB800000000000000000000000000000000001A
:101EC80000000000000000000304040403000700F1
:101ED800000000000404040300000010141414148B
:101EE8001209040A3518080000000000000000006C
:101EF80000000000000000000000000000000000DA
:101F080000000000000000000000000000000000C9
:101F180000000000000000000000000000000000B9
:101F280000000000000000000000000000000000A9
:102248000000000000000000E01090908000F09076
:102258009090600060909010000000000000000066
:102268000000807800FC0000000000000000000072
:102278000000000000000000000000000000000056
:102288000000000000000000000000000000000046
:102298000000000000000000000000000000000036
:1022A8000000000000000000000000000000000026
:1022B8000000000000000000000000000000000016
:1022C80000000000000000000304040403000700ED
:1022D8000000000004040403000000101414141487
:1022E8001209040A35180800000000000000000068
:1022F80000000000000000000000000000000000D6
:1023080000000000000000000000000000000000C5
:1023180000000000000000000000000000000000B5
:1023280000000000000000000000000000000000A5
:1025E8000000000000000000000000000000008063
:1025F8008000E0E000F8F800FEFE000000000000A7
:1026080000000000000000000000000000000000C2
:1026180000000000000000000000000000000000B2
:1026280000000000000000000000000000000000A2
:102638000000000000000000000000000000000092
:102648000000000000000000000000000000000082
:102658000000000000000000000000000000000072
:102668000000000000000000000606000707000741
:102678000700070700070700070700000000000021
:102688000000000000000000000000000000000042
:102698000000000000000000000000000000000032
:1026A8000000000000000000000000000000000022
:1026B8000000000000000000000000000000000012
:1029E800000000000000000000000000000000805F
:1029F8008000E0E00000000000000000000000008F
:102A080000000000000000000000000000000000BE
:102A180000000000000000000000000000000000AE
:102A2800000000000000000000000000000000009E
:102A3800000000000000000000000000000000008E
:102A4800000000000000000000000000000000007E
:102A5800000000000000000000000000000000006E
:102A6800000000000000000000060600070700073D
:102A78000700070700000000000000000000000039
:102A8800000000000000000000000000000000003E
:102A9800000000000000000000000000000000002E
:102AA800000000000000000000000000000000001E
:102AB800000000000000000000000000000000000E
:102AC80000000000000000000000000000000000FE
:102AD80000000000000000000000000000000000EE
:102AE80000000000000000000000000000000000DE
:102AF80000000000000000000000000000000000CE
:102B080000000000000000000000000000000000BD
:102B180000000000000000000000000000000000AD
:102B2800000000000000000000000000000000009D
:102B3800000000000000000000000000000000008D
:102B4800000000000000000000000000000000007D
:102B5800000000000000000000000000000000006D
:102B6800000000000000000000000000000000005D
:102B7800000000000000000000000000000000004D
:102B8800000000000000000000000000000000003D
:102B98000000000000000000000606000707000013
:102BA800000000000000000000000000000000001D
:102BB800000000000000000000000000000000000D
:102BC80000000000000000000000000000000000FD
:102BD80000000000000000000000000000000000ED
:102BE80000000000000000000000000000000000DD
:102BF80000000000000000000000000000000000CD
:102C080000000000000000000000000000000000BC
:102C180000000000000000000000000000000000AC
:102C2800000000000000000000000000000000009C
:102C3800000000000000000000000000000000008C
:102C4800000000000000000000000000000000007C
:102C5800000000000000000000000000000000006C
:102C6800000000000000000000000000000000005C
:102C7800000000000000000000000000000000004C
:102C8800000000000000000000000000000000003C
:102C9800000000000000000000000000000000002C
:102CA800000000000000000000000000000000001C
:102CB800000000000000000000000000000000000C
:102CC80000000000000000000006060004040404E0
:102CD80004040404040404040404000000000000C4
:102CE80000000000000000000000000000000000DC
:102CF80000000000000000000000000000000000CC
:102D080000000000000000000000000000000000BB
:102D180000000000000000000000000000000000AB
:102D2800000000000000000000000000000000009B
:102D380000000000000000001027E80364000A00FB
:102D480001000010000110000100C1005349545552
:102D580031363937200000200000000000004154BF
:102D680024545444455649443F0A0D0041542B43CA
:102D780053510A0D0041542454544E455449503F70
:102D88000A0D0041542454544750535152593D316F
:102D9800302C300A0D0020202020200052555441AC
:102DA8003A004154244D5347534E443D342C222479
:102DB80024424C25732C256425642564256432300F
:102DC800256425642C2564256425642564256425EB
:102DD800642C52322C25642C25643A58582323221B
:102DE8000D0A0025630042555300256425643A25E1
:102DF8006425643A256425640050756E746F2064F8
:102E08006520636F6E74726F6C00323025642564C0
:102E18002D256425642D256425640050616E746138
:102E28006C6C61004E6F204175746F72697A6164D1
:102E3800610001002D4E414E000001003803522D63
:102E480004000504542D04000A04582D060000034C
:102E58009E2D06000603A42D04000C03EE2D110080
:102E68001003012E09002103232E0E002A032C2E05
:102E78000A0005005C2D010030043A2E0000F89489
:102E8800EE27EFBBF1E0F5BFE5BFF8E1A895A4B7E1
:102E9800A77FA4BFF0936000E09360008DE0A2E0FC
:102EA800BB27ED938A95E9F780E098E0A0E0B1E0D0
:102EB800ED930197E9F7E2E4FEE285919591009799
:102EC80061F0A591B59105901590BF01F0010590AD
:102ED8000D920197E1F7FB01F0CFE0E0EEBBEFEFD9
:102EE800EDBFE8E0EEBFC0E0D3E00C94541F5F9A5A
:102EF80087E38A95F1F75F9887E38A95F1F7089554
:102F0800169A179A5E985D98EFE3E8B9F0DF08958E
:102F18001A935E985D98A981BA81A034E0E0BE0753
:102F280020F4169A1798198107C0179A1698E981FC
:102F3800FA81E054F0401E2FE12FE064EF771E2F56
:102F480018B9D5DF18813BC01A935E985D98E9815E
:102F5800E86BEF7B1E2F18B9CADF188130C0EA81F1
:102F6800FB810E941D23E881F9810E942123249678
:102F780008955E9A5D98E881E8B98DED90E0019733
:102F8800F1F7B5DF219608951A930A930E94252335
:102F98000E942A23E0E4F0E0FA93EA930E942A23AD
:102FA800169A00E010E00134E0E01E0734F4E0E097
:102FB800EA93DFDF0F5F1F4FF6CF19810881239651
:102FC80008951A930A9300E010E00830E0E01E0725
:102FD8002CF40A93D9DF0F5F1F4FF7CF099119918E
:102FE80008951A93EB81FC810E941D23E981FA81DF
:102FF8000E94212310E0183080F4ED81FE810E94A8
:103008000426DF010E943023EA0FFB1FE458FF4F1C
:10301800E491EA93AEDF1F5FEECF188142C10E94B0
:10302800902620E010E0EC811E1700F500E0083043
:10303800D8F40E943323F0E0F595E795EC93ED8101
:10304800E1703E2F303021F00E943323E068EC938A
:103058002F5FEC81E21731F4ED81F0E0F595E7950B
:10306800ED8320E00F5FE3CF1F5FDDCF0E9497263F
:1030780028960895EF9721970E9490260E943A2358
:103088000E941D23FE01EB5BFF4F0190F081E02DB4
:103098000E94212310E0183008F50E943023BF0158
:1030A8000E940426DE011496EA0FFB1FFA93EA93A6
:1030B800FE01E55BFF4F0190F081E02D0E940426A0
:1030C800E60FF71FE458FF4FE491EA93FE01E95B2E
:1030D800FF4FE081EA93A3DF1F5FDDCF00E0FE0131
:1030E800EC5BFF4FE0810E1710F00C94CB1810E04A
:1030F800183010F00C94BD1830E0FE01EC5BFF4F67
:10310800E0813E17A0F5E32FF0E0DE01A95BBF4F99
:103118000D90BC91A02DEA0FFB1FBF01DE01AC5B37
:10312800BF4FAC91BB270E9430230E941826DB01B9
:10313800AE0FBF1FA034E0E0BE0749F4E0E4F0E0C2
:10314800FA93EA930E943A23FA93EA9308DF0E94DB
:1031580030230E940426DE011496AE0FBF1FEE270F
:10316800A00FBE1FEC91EA9304DF3F5FC6CF1F5F3D
:10317800BFCF0E943A23FA93EA93DE01A95BBF4FBF
:103188000E944123FA93EA93EADE0F5FA8CF0E94D8
:103198009726EF962C960895A981A13011F00C94EA
:1031A8004D190E944723E138A0E0FA0711F4EAEF2D
:1031B80017C0E039A0E0FA0711F4EBEF11C0E839C5
:1031C800A0E0FA0711F4ECEF0BC0EE38A0E0FA0724
:1031D80011F4EDEF05C0ED38A0E0FA0711F4EEEFB9
:1031E800EE83AE81A13CB0F0A0913803B0913903D1
:1031F800A13CE0E0BE0774F00E944A233596E491B2
:10320800E03041F00E9447230E9457233496E4910E
:10321800E03009F417C00E944A23DF01E0913A0325
:10322800F0E03196EA0FFB1FE4910E946023E091E1
:103238003B030E946023E0913C030E946023D1DE9F
:10324800E2E001C0E0E0E0933A03AE81A13C60F027
:103258000E9447230E945723DF01E0913A03F0E0E0
:10326800EA0FFB1FE49101C0EE81F0E00E946423A5
:103278000E9464230E9469230E944723E093380335
:10328800F0933903EC81E0933B03EA81E0933C033C
:1032980008C00E9447230E9464230E9464230E945E
:1032A8006923279608951A930A9310E000E00E9474
:1032B8006F2318F4AC81A03009F029C00E94302394
:1032C8000E947A23EC91EA930E947F230E947F2335
:1032D800E0E00E9484230E948923AF81B885EA0F29
:1032E800FB1FEF83F8870E949423A0E8B0E00E94B8
:1032F8005E26EA1BFB0BAF81B885EA17FB072CF4A7
:10330800E0E0EF83E8870E9499231F5FD0CF0E94F7
:103318006F2318F4AC81A13009F075C00E943023E6
:103328000E947A23AC91A13E21F40E94A223A73CDB
:1033380009F002C009EF29C00E9430230E947A23B5
:10334800AC91A13E21F40E94A223A33C09F002C043
:1033580007EE1BC00E9430230E947A23AC91A13E45
:1033680021F40E94A223A23C09F002C008EE0DC07D
:103378000E9430230E947A23AC91A13E21F40E943E
:10338800A223A53C09F001C009EE003079F00A93A8
:103398000E94A823E1E00E9484231E5F0E949423D8
:1033A800AF81B8850E94B32300E01CC00E9430237F
:1033B8000E947A23EC91EA930E94A823E9850E944F
:1033C80084230E9430230E947A23AC91A03219F4FE
:1033D8000E94892302C00E949423AF81B8850E946D
:1033E800B3231F5F0E9494233196AF81B885AE172F
:1033F800BF0744F40E949423A0E8B0E00E94B323DE
:103408000E94992384CFE1ECF0E0E0933803F09335
:103418003903198108812B9608950E949026088502
:103428001985EC81FD81E017F10700F12A853B85BC
:10343800EE81FF81E217F307B0F03A932A931A93CB
:103448000A938DDDA0E8A09FF001A19FF00DE20F87
:10345800F31FAC85BD85EA0FFB1FE491EA9389DD74
:103468002F5F3F4FE5CF0F5F1F4FDBCF0E9497269F
:103478002E960895EA93FA93EFB7EA931A930A936C
:103488001091C0000091C600E091C000E07811F4EE
:10349800F19801C0F19AE12FEC7181F4E42D439485
:1034A800F0E0E35CFC4F0083E8ECE41509F4442405
:1034B8006394E8ECE61511F46624F09A09911991E1
:1034C800E991EFBFF991E99118950A921A92FA9247
:1034D8006A937A938A939A93AA93BA93EA93FA93FC
:1034E800EFB7EA93E6E0E6BDA6E1B4E00E94412327
:1034F800A0911604B09117049B9711F00C94201B0F
:103508000E94B8230E94BD23E0E0E0931604E093F4
:1035180017040E94B823E430A0E0FA0711F40E94CF
:10352800C2230E94B823E930A0E0FA0741F4E4E797
:10353800FDE2FA93EA9380E00E94DE2222960E943E
:10354800B8233A9714F40C94201B0E94CB230E94B2
:10355800D2230E94BD230E94D223DF01E2E0F0E0E3
:103568000E943526309719F4EDE7FDE202C0EBE83A
:10357800FDE2FA93EA9380E00E94DE2222960E94FE
:10358800D223369714F40C94201B0E94D7230E9450
:10359800DE230E94BD230E94DE233A9714F40C9484
:1035A800201B0E94E3230E94EA230E94BD230E945D
:1035B800EA23369714F40C94201B0E94EF230E94F0
:1035C800F6230E94BD230E94F6233A97ACF10E948D
:1035D800FB230E9402240E94BD230E9402243297EA
:1035E80031F40E94F623E330A0E0FA0709F017C08F
:1035F8000E94EA23359731F40E94DE23E930A0E0E7
:10360800FA0709F00CC00E94D223359731F40E94C2
:10361800B823E930A0E0FA0709F001C001C00CC0E6
:103628000E9407240E94FB230E94EF230E94E323A9
:103638000E94D7230E94CB23E991EFBFF991E9912A
:10364800B991A9919991899179916991F990199074
:10365800099018955C9A0E940E245C980E940E248A
:1036680008951A93E981F0E0E854F0401E2F1130D4
:1036780010F0103108F002C0E12F01C0E0E018811D
:1036880022960895A0E00499A1E0A03029F4A0E0D2
:10369800F299A1E0A03009F012C0E1E0F0E09E0E3E
:1036A800AF1EF29AD7DFE1E07E2E0E941424E1E0FB
:1036B800F0E0E915FA0510F49924AA2406C0049B41
:1036C80002C0F29901C001C0F298E92DFA2D309795
:1036D800D1F4E1E0E715B1F40E941A240E941F24F6
:1036E8000E942424BB24CC247724E0E2EA93ECE46F
:1036F800F0E00E942E2450DDE0E0F3E00E9439243F
:103708000E943E2418C0E130A0E0FA07A1F4E1E0ED
:10371800E71589F47724E0EFF9E10E9442240E943A
:103728001F24E3E2F0E00E944524E6E0F3E00E9473
:1037380039240E943E240895A0E00399A1E0A03016
:1037480079F4E1E0F0E0E915FA0551F4A0E0F39925
:10375800A1E0A03029F4A0E0F699A1E0A03009F09A
:1037680018C0E1E0F0E0BE0ECF1E74DFF39AECE083
:10377800F0E0EB15FC0528F4EFE0F0E0EB15FC05B4
:1037880009F404C0E1E0F0E0BE2ECF2E0E9414241C
:1037980006C0039B02C0F39901C001C0F398EB2D4A
:1037A800FC2DE130A0E0FA0711F4E1E447C0E23073
:1037B800A0E0FA0711F4E2E441C0E330A0E0FA0720
:1037C80011F4E3E43BC0E430A0E0FA0711F4E4E4C8
:1037D80035C0E530A0E0FA0711F4E5E42FC0E63083
:1037E800A0E0FA0711F4E6E429C0E730A0E0FA0700
:1037F80011F4E7E423C0E830A0E0FA0711F4E8E4A4
:103808001DC0E930A0E0FA0711F4E9E417C0EA3076
:10381800A0E0FA0711F4EAE411C0EB30A0E0FA07DF
:1038280011F4EBE40BC0EC30A0E0FA0711F4ECE47F
:1038380005C0EF30A0E0FA0711F4E0E25E2E08952B
:10384800A0E00299A1E0A03051F4A0E0F499A1E031
:10385800A03029F4A0E0F699A1E0A03009F01DC03D
:10386800F49A852CF69AF6DE0E9414240E944D24C0
:103878000E948F240E94F6230E948F240E94EA232C
:103888000E948F240E9494240E948F240E94B823AF
:103898000E948F240E949B2406C0029B02C0F499B8
:1038A80001C001C0F4980895A0E00199A1E0A030FA
:1038B80029F4A0E0F599A1E0A03009F022C0EFE0DA
:1038C800F0E0BE2ECF2EF59AE0E28E2EF698C2DEFC
:1038D8000E9414240E944D240E948F240E94F623E3
:1038E8000E948F240E94EA230E948F240E9494241D
:1038F8000E948F240E94B8230E948F240E949B2438
:1039080006C0019B02C0F59901C001C0F598089551
:10391800E0911E04F0911F04E130A0E0FA0719F4C9
:10392800E0E2FBE214C0E230A0E0FA0719F4E0EFAD
:10393800F9E20DC0E330A0E0FA0719F4E0EFF5E290
:1039480006C0E430A0E0FA0761F4E0E5FCE2FA938F
:10395800EA930E9425230E942523E4E1F0E00E94D7
:10396800B12408956497E0E0EA83EB83EC83ED8368
:10397800EE83EF83E887E9870E948E2640E050E0D7
:1039880000E010E0083CE0E01E0714F00C943E1F35
:103998000E94B924AB3291F40E94BE24A33471F47E
:1039A800F801E15CFC4FA081A33541F40E94C324D7
:1039B800A13521F40E94C824AA3309F046C0F801B1
:1039C8000E94CD24AAE0B0E00E941826DF01F80189
:1039D8000E94D324EA0FFB1FEE83FF83AE81BF81D1
:1039E8001B9724F0AE81BF811F970CF005C0E1E062
:1039F800F0E00E94D92429C0AE81BF811F9724F02E
:103A0800AE81BF8152970CF005C0E2E0F0E00E9461
:103A1800D9241BC0AE81BF81529724F0AE81BF81EB
:103A28005F970CF005C0E3E0F0E00E94D9240DC0D8
:103A3800AE81BF81909724F0AE81BF81D2970CF000
:103A480004C0E4E0F0E00E94D9240E94B924A23422
:103A580041F40E94BE24A53521F40E94DE24A3353A
:103A680009F028C0F801E05BFC4FE081E093140402
:103A7800F801E15BFC4FE081E0931304F801E25B9D
:103A8800FC4FE081E0931204F801E35BFC4FE08116
:103A9800E0931104F801ED5AFC4FA081A13331F4F1
:103AA800F801EC5AFC4FA081A83309F003C0E1E00B
:103AB800E09315040E94B924AE3481F40E94BE2418
:103AC800A53461F40E94DE24A43541F40E94C32485
:103AD800A93421F40E94C824A03509F049C00E94E5
:103AE800E32440E050E0493CE0E05E075CF40E94DB
:103AF800E82429F40E94F22411F40E94FB244F5F69
:103B08005F4FF1CFEC85FD85E15CFC4FA081A232CF
:103B180079F50E9403250E940825E9F40E940C25E6
:103B28000E940825C1F40E9411250E94082599F4D5
:103B3800EC85FD850E94D32471F4EC85FD85EB5B53
:103B4800FC4F0E94082539F4EC85FD85EA5BFC4FA3
:103B58000E94082509F006C0E0E0E0931A04E0930B
:103B68001B0406C0E1E0F0E0E0931A04F0931B04A4
:103B78000E94B924A43481F40E94BE24A53461F4BF
:103B88000E94DE24A63541F40E94C324A93421F4FE
:103B98000E94C824A43409F043C00E94E3240E9470
:103BA800162540E050E0493CE0E05E075CF40E94E6
:103BB800E82429F40E94F22411F40E94FB244F5FA8
:103BC8005F4FF1CF0E942625A081A23249F5EC85EE
:103BD800FD85E15CFC4FA081E0910A04EA17A9F495
:103BE8000E940325A081E0910B04EA1771F40E945A
:103BF8000C25A081E0910C04EA1739F40E941125E4
:103C0800A081E0910D04EA1709F003C00E942B255A
:103C180007C00E941625E0E0E0931804E093190419
:103C28000E94B924A73481F40E94BE24A03561F40F
:103C38000E94DE24A23541F40E94C324AD3421F44D
:103C48000E94C824A33409F012C10E94E32440E072
:103C580050E0493CE0E05E0744F5FA01A889B989DB
:103C6800EA0FFB1FE25CFC4FA081AC32D9F40E9442
:103C7800F22411F40E94FB24AE85BF85129739F413
:103C8800E889F989E40FF51F3196EA87FB87AE8545
:103C9800BF85199739F4E889F989E40FF51F31963A
:103CA800E887F9874F5F5F4FD4CFE3E0EA936CD999
:103CB800E4E0EA9369D9E5E0EA9366D90E9426250B
:103CC8000E940825FF2352F03A9744F4EC85FD85BD
:103CD8003196AA85BB85EA17FB0709F44DC0EC8528
:103CE800FD850E94CD24A0E1B0E00E9475260E94C7
:103CF80011250E940825A2E1B0E00E9475260E94C5
:103D08000C250E940825A4E1B0E00E9475260E94B7
:103D180003250E940825A6E1B0E00E947526EC85DF
:103D2800FD85E15CFC4F0E940825EE8BFF8B0E940D
:103D380026250E940825E88FF98FAAE0B0E00E94A6
:103D48001826AE89BF89EA0FFB1FEC8BFD8B3597D0
:103D5800EA8BFB8BAB89AA234AF47896EA8BFB8B18
:103D68000E9432250E9437250E943E250E94322556
:103D78000E9437250E943E25EA85FB85E25CFC4FC0
:103D8800E081F0E0E0931C04F0931D04EBEEFDE20B
:103D9800FA93EA93E0911C04F0911D040E948F2489
:103DA80084E00E94DE2226960E944525FF2312F019
:103DB8003A970CF038C00E944525AEE1B0E00E9469
:103DC8004A25E15CFC4F0E940825ACE1B0E00E9466
:103DD8004A25E05CFC4F0E940825A2E2B0E00E9460
:103DE8004A25EF5BFC4F0E940825A0E2B0E00E9444
:103DF8004A25EE5BFC4F0E940825A6E2B0E00E942F
:103E08004A250E94CD24A4E2B0E00E947526AA8922
:103E1800BB8953973CF00E944F253197ACE1B0E045
:103E28000E94752624C00E945425A6E2B0E00E9494
:103E380075260E945925A4E2B0E00E9475260E94CA
:103E48005E25A2E2B0E00E9475260E946325A0E2EA
:103E5800B0E00E9475260E946825AEE1B0E00E949D
:103E680075260E944F25ACE1B0E00E9475260F5FD1
:103E78001F4F88CD66244424F19A20E030E0293C85
:103E8800E0E03E074CF4ADE3B3E0A20FB31FE0E07F
:103E9800EC932F5F3F4FF3CF0E9495266A960895C3
:103EA800E0E8E0936100E0E0E0936100EFEFE7B95C
:103EB800E2B9E0EFE1B9E0E0E5B9EFEFE4B9E0E05D
:103EC800EBB9E0EFEAB9E0E0E093C000E8E9E0939D
:103ED800C100E6E0E093C200E0E0E093C500E5E061
:103EE800E093C400E0E0E4BDE5E0E5BDE0E0E6BD68
:103EF800E7BDE8BDE1E0E0936E000E948417EAE0C8
:103F0800F0E00E946D25A6DBA5DBE0EFF9E00E945A
:103F180042240E942523EFE7F0E00E944524E0EDCB
:103F2800F7E00E946D25E0EFFDE00E9442240E9428
:103F38002523EDE2F0E00E944524E5E0F4E0FA9361
:103F4800EA93E7E3F0E00E947325ECE0F3E0FA93EC
:103F5800EA93EBE3F0E00E947E250E948125EAE0E7
:103F6800F4E0FA93EA93E2E5F0E00E947E250E94ED
:103F78008125E0EDF7E00E946D25ABE1B0E00E94FD
:103F88006926EE2362F40E9407240E94EF230E9410
:103F9800D7230E94FB230E94E3230E94CB23A1E2A4
:103FA800B0E00E946926EE23C2F4ACE1B0E00E94C2
:103FB8008625AEE1B0E00E948625A0E2B0E00E942E
:103FC8008625A2E2B0E00E948625A4E2B0E00E9425
:103FD8008625A6E2B0E00E948625A8E2B0E00E940D
:103FE8006926AE2F78940E941A240E941F240E94EA
:103FF80024240E94C22386E695E00197F1F7B2DCFB
:104008000E942B25F298F398F498F19902C0AADC43
:10401800F19A5A92EFE4F0E00E942E24BDD832DBE8
:104028008BDB0EDC41DC74DCA0911804B091190420
:10403800119711F00C940F21A0911A04B0911B0450
:10404800119711F4E5E401C0E0E2EA93E3E1F0E05E
:104058000E944224E1E0EA93EA939ED8E091150495
:10406800E03059F5E0E2F4E0FA93EA93E2EFFDE29A
:10407800FA93EA930E9402240E948F240E94F62356
:104088000E948F240E94EA230E948F240E94DE232C
:104098000E948F240E94D2230E948F240E94B8235A
:1040A8000E948F240E948B25E0E2F4E0FA93EA93C1
:1040B800E7E0F0E00E94732521C00E941625E1E0A8
:1040C800F0E0FA93EA930E94F025E0E1F3E00E9421
:1040D8007E250E949025E1E1F4E00E9495250E944A
:1040E8009A25B8DAB7DAE0EDF7E0FA93EA930E9496
:1040F800F025E0E0E09315040E9416250E94A12512
:10410800A134E0E0BE07D9F5E0EFFDE10E94A62565
:104118000E94AB250E940224EF3FA0E0FA0761F459
:104128000E9407240E94EF230E94D7230E94FB23AA
:104138000E94E3230E94CB230E94AE250E948F2475
:104148000E9459250E948F240E945E250E948F2478
:104158000E9463250E948F240E9468250E948F2454
:104168000E944F250E948F240E948B25E8E2F4E0EC
:104178000E9495250E947E250E9481254BC00E94A1
:10418800A125A635E0E0BE0721F00E94A125D99718
:10419800D9F5E0EFF1E20E94A6250E94AB250E9426
:1041A8000224EF3FA0E0FA0761F40E9407240E946E
:1041B800EF230E94D7230E94FB230E94E3230E943F
:1041C800CB230E94AE250E948F240E9459250E946D
:1041D8008F240E945E250E948F240E9463250E94DE
:1041E8008F240E9468250E948F240E944F250E94D8
:1041F8008F240E948B25E8E2F4E00E9495250E9416
:104208007E250E94812506C0E0EFF1E20E94A625E6
:104218000E94AB2512C0E1E2F3E0FA93EA93EEE1E3
:10422800F0E0FA93EA930E949025EAE2F3E0FA9329
:10423800EA93EFE0F0E00E949A25E0EFF5E1FA93C7
:10424800EA93E9E6F0E00E947E25EFE7F0E00E94BD
:104258004524DBCEFFCFE091C000E072E1F3E881B6
:10426800E093C60021960895EA81EA93F4DFA881D5
:10427800B9810E944123239608951A930A93AA812B
:10428800BB8112960E945126309729F1AA81BB81E1
:1042980014960E9451268F01309761F00230E0E0B9
:1042A8001E07C0F0F80131978F01AA81BB811496CF
:1042B800ED93FC93AA81BB8112960E94412331970A
:1042C800AC81A083AA81BB810E945126FF2312F0F2
:1042D8000E94412306C0AA81BB81EFEFFFEFED9357
:1042E800FC93198108812596089526970E948E26A9
:1042F80010E0AC85BD85E0E0F0E0ED93FC93EA8941
:10430800FB893196EA8BFB8B3197E4912E2FE030B5
:1043180011F40C94A622E12FE03039F4253211F47F
:1043280011E002C00E94B7250CC1E130A9F4253282
:1043380019F40E94B72504C112E040E000E02D32D4
:1043480011F401E0FEC02B3211F44BE2FAC0203226
:1043580011F440E2F6C002C0E23039F450E013E054
:10436800203311F40068EDC004C0E33011F00C9460
:10437800A522203310F02A3308F007C0AAE05A9F7C
:10438800502DE22FE0535E0FDCC0E22FE33649F4F4
:104398000E94C025E889F989A481AA930E94C625AC
:1043A800CFC0E33741F40E94C0250E94CE250E9469
:1043B80008231E2F0AC0E03761F40E94C0250E941E
:1043C800CE250E9412231E2F086002600F7730E06E
:1043D80035C0E43611F0E93611F4046002C0E5375F
:1043E80031F4E0E4FDE2EE83FF8315E00DC0E8352B
:1043F80011F4086004C0E83711F00C94A422EAE430
:10440800FDE2EE83FF8314E002FF14C00E94C02582
:104418000E94D825AB85AA233AF4EA85FB850E9439
:104428000026EA87FB874DE2403011F01F5F01C08C
:104438000B7F04C00E94C0250E94D82500FD11C032
:10444800151778F407FF08C002FF04C00B7F242F5C
:10445800115001C020E301C020E20E94B72551504D
:10446800EFCF312F01FF17C03030A1F003FF06C096
:10447800EE81FF812591EE83FF8305C0AE81BF8168
:104488002D91AE83BF830E94B725503009F051505B
:104498003150EACF4BC020E3EE81FF810E945526C0
:1044A800E887F987EE81FF813296EE83FF83E885FE
:1044B800F985AA85BB85AE17BF0750F02F5FA88581
:1044C800B985EA85FB85EA1BFB0BEA87FB87EFCFFB
:1044D8002A3328F003FF02C0295F01C0295D04FDCB
:1044E8001AC0213320F4A885B985119709F409C0A9
:1044F800531710F000FF01C013C020E207FF0BC0E4
:1045080020E3006102FF07C00B7F4A930E94C62583
:10451800503009F051500E94B725503009F05150E1
:104528003150A885B985129708F0B5CF00FF08C0AB
:10453800503031F05150E0E2EA930E94C625F8CF9E
:1045480010E0DDCEAC85BD850E9451260E949526DF
:1045580064960895FF92F82E26970E9490260E944E
:10456800E025309719F4EFEFFFEF1FC0DE01169634
:104578000E94FC258D010E94E025EE83FF83E0E088
:10458800E887E987DE011A960E94E725E1E4F1E26F
:10459800FA93EA93FE013A96FA93EA93A6DE9F010C
:1045A800AE81BF81E0E0EC93F9010E9497262A963C
:1045B800FF900895FF92F82E26971A930A93DE012A
:1045C80014960E94FC258D01E0E0EC83ED83EE83D8
:1045D800EF83DE0118960E94E725E8E3F1E2FA93FB
:1045E800EA93FE013896FA93EA937FDE19810881EF
:1045F8002896FF900895A991B991E991F991EA1740
:10460800FB070CF0FD010895A991B991EE27FF274A
:104618006D91662311F03196FBCF0895AA27BB2729
:10462800E991F9910590002011F01196FBCFFD0159
:104638000895FA93EA930C948C17FA93EA930C94DE
:10464800A817E0E0F0E0FA93EA930895EC81F0E02F
:10465800FA93EA930C94B317E12FF0E00895AE8132
:10466800BF81EE27A10FBE1FEC910895FE01E95B03
:10467800FF4F0190F081E02D0895ED91FD91319665
:10468800FE93EE930895EE81F0E00895E0913803EB
:10469800F0913903E15CF040A6E0B0E00E941026FA
:1046A800E458F74F0895E15CF040A6E0B0E00E94BE
:1046B8001026E458F74F0895F0E0FA93EA93089526
:1046C800FA93EA93EE81FF810895FA93EA93EE81D3
:1046D800EA930C943E18E985FA85FA93EA930E94C6
:1046E8000823A12FB0E0AE17BF070895A985BA85A2
:1046F800AE0FBF1F0895E885F985FA93EA930895E8
:10470800EA93E985EA930C94D018EA81F0E0E7FD92
:10471800FFEF3896DF01EB81F0E00E94182608953C
:10472800EB81A8E0EA02F0010895EB81F0E0AD81A9
:10473800BE81EA0FFB1FED83FE830895A985BA8524
:10474800EA0FFB1FA1810895EC81A8E0EA02F001BD
:10475800A885B985AE1BBF0BBA93AA93CCCFAE1B65
:10476800BF0BAF83B8870895A0E1B0E00E9465262B
:10477800089531960E94752631970895E6E6FDE280
:10478800FA93EA9380E00E94DE2222960895A0E13F
:10479800B0E0E0E0F0E00E9475260895A2E1B0E004
:1047A8000E9465260895A2E1B0E0E0E0F0E00E94F2
:1047B80075260895A4E1B0E00E9465260895A4E155
:1047C800B0E0E0E0F0E00E9475260895A6E1B0E0D0
:1047D8000E9465260895A6E1B0E0E0E0F0E00E94BE
:1047E80075260895A8E1B0E00E9465260895A8E11D
:1047F800B0E0E0E0F0E00E9475260895AAE1B0E09C
:104808000E9465260895AAE1B0E0E0E0F0E00E9489
:1048180075260895E4E6F0E0FA93EA930C94F025FF
:10482800E8ECF0E0FA93EA930C94F025E0EFF1E17C
:10483800FA93EA9306CFE5E0F0E0FA93EA93089555
:10484800E9E1F0E0FA93EA93E7E0F0E0FA93EA931B
:104858000C94111AFA93EA93E7E0F0E0FA93EA93DA
:10486800E0E0EA93E1E0EA930895FA93EA93ECE250
:10487800F0E0F0CFEFEFEA930C945719FA93EA932C
:10488800E0CEFA93EA93E7E0F0E0FA93EA930C9427
:10489800111A8A920E94351BA8E2B0E00E947D2678
:1048A800EAEAFDE2FA93EA93EAE0F4E0662777277A
:1048B8000E945926AEE1B0E00E9465260E940B26B0
:1048C8000E945926ACE1B0E00E9465260E940B26A2
:1048D8000E945926A2E2B0E00E9465260E940B269B
:1048E8000E945926A0E2B0E00E9465260E940B268D
:1048F8000E945926A6E2B0E00E9465260E940B2677
:104908000E945926A4E2B0E00E9465260E940B2668
:104918000E94592673CF0E940B260E94592608959B
:10492800EFEFF2E2662777270E94592637CFA8E2F1
:10493800B0E00E946926FF27662777270E9459263C
:10494800E0E0F699E1E0FF27662777270E945926DD
:104958008CE30E94DE22EE960895FA93EA93E1E052
:10496800F0E0FA93EA930C94111AF801E35CFC4F17
:10497800A0810895F801E25CFC4FA0810895F80138
:10498800E05CFC4FA0810895F801EF5BFC4FA0812B
:104998000895ED5BFC4FE081F0E0F0970895EC5B43
:1049A800FC4FE081F0E0F0970895E0931E04F09347
:1049B8001F040895F801E15CFC4FA0810895F801F7
:1049C8003496E88BF98B0895FA01A889B989EA0F1A
:1049D800FB1FE25CFC4FA081AA330895EE85FF859A
:1049E8003196EE87FF87AE85BF8511970895E889D0
:1049F800F989E40FF51F3196EC87FD870895EC855A
:104A0800FD85E05CFC4F0895E081F0E0F0970895A3
:104A1800EC85FD85EF5BFC4F0895EC85FD85EE5B2D
:104A2800FC4F0895E2E0EA930E94C817E3E0EA9396
:104A38000E94C817E4E0EA930E94C817E5E0EA93E9
:104A48000C94C817EC85FD85E25CFC4F0895E1E005
:104A5800F0E0E0931804F09319040895AA89BB893B
:104A6800EAE0F0E008950E943526A8E1B0E00E944F
:104A78007526F4CF0E943026AAE1B0E00E94752680
:104A88000895E885F985E25CFC4FBECF0E94752643
:104A9800E885F9850895ACE1B0E00E94652608959F
:104AA800A6E2B0E00E9465260895A4E2B0E00E9464
:104AB80065260895A2E2B0E00E9465260895A0E266
:104AC800B0E00E9465260895AEE1B0E00E94652638
:104AD8000895FA93EA930E94F0250C94E517FA9347
:104AE800EA93E2E0F0E0FA93EA93E0E0EA93E2E0A6
:104AF800EA93C0CEFA93EA939ECEE0E0EA93E1E02F
:104B0800EA93B8CEE0E0F0E00E947526089588E1C7
:104B18000E94AE226C960895E2E0F0E0FA93EA93E0
:104B2800ECCFFA93EA93E2E2F0E00895FA93EA937D
:104B3800E4E0F0E0FA93EA93E0CFA0911C04B0918E
:104B48001D040895FA93EA93EFE5F0E097CEEFE7B6
:104B5800F0E003CFE8E2F4E0FA93EA93E2E1FEE260
:104B6800FA93EA939DCF2A93ED85FE85FA93EA930B
:104B7800E989FA8909950895E889F9893497E88BCC
:104B8800F98B0895ED85FE85FA93EA93E989FA8908
:104B980009950895A889B98914960E945126EE832B
:104BA800FF83FA93EA930895A889B98914960E9415
:104BB8005126EA87FB870895DE011C960E94FC2592
:104BC8000E94512608950E94FC250E945126FA93BE
:104BD800EA931A930A930895E991F991309639F076
:104BE8008DEC9AE00197F1F7A8953197C9F70895E8
:104BF8000024AF0DB01D0895F195E195F04008959A
:104C0800EE0FFF1FEE0FFF1FEE0FFF1F08956F2F10
:104C1800660F660B762F0895FA9FF02DEB9FF00D27
:104C2800EA9FE02DF10D08952AD0F6DF0EF4E4DFB7
:104C380008950024112490E1AA0FBB1F001C111C29
:104C48000E1A1F0A18F40E0E1F1E01C0A1609A95B5
:104C580099F7FD01D001089512D0EBDF0EF4CCDFF7
:104C68000895E894B7FF04C0A095B095119668948C
:104C7800F7FDC2DFDEDFFD010EF4BEDF0895E89424
:104C8800F7FF02C0B9DF6894B7FF06C0A095B095DA
:104C9800119600F8039400FA0895ED91FC9111978C
:104CA80008950590F491E02D08957A936A93FA9304
:104CB800EA9308951B2EBF2FF12D1A2EAE2FE12D4A
:104CC8000895119602D0FE2F1197F999FECFFF9300
:104CD800FFB7F894A1BDB2BDF89AE0B5FFBFFF9148
:104CE800089507D01196EF93EF2F03D0EF91119706
:104CF8000895F99B02C0A895FCCF9FB7F894A1BD71
:104D0800B2BDF89A80B5E81719F0E0BDFA9AF99A99
:104D18009FBF08955A934A933A932A931A930A93F2
:104D280008955D814C813B812A811981088108950C
:00000001FF
