:0C0000000C94CA120C9400000C94000038
:10000C000C9400000C9400000C9400000C94000064
:10001C000C9400000C9400000C9400000C94000054
:10002C000C9400000C9400000C9400000C94000044
:10003C000C94FD1E0C9400000C9400000C94751E86
:10004C000C9400000C944A1E0C9400000C940000BC
:10005C000C9400000C9400000C9400000C94000014
:10006C000C9400000C9400000C9400000C94000004
:10007C000000000000000000000000000000000074
:10008C000000000000000000000000000000000064
:10009C000000000000000000000000000000000054
:1000AC000000000000000000000000000000000044
:1000BC000000000000000000000000000000000034
:1000CC000000000000000000000000000000000024
:1000DC000000000000000000000000000000000014
:1000EC000000000000000000000000000000000004
:1000FC0000000000000000000000000000000000F4
:10010C0000000000000000000000000000000000E3
:10011C0000000000000000000000000000000000D3
:10012C0000000000000000000000000000000000C3
:10013C0000000000000000000000000000000000B3
:10014C0000000000000000000000000000000000A3
:10015C000000000000000000000000000000000093
:10016C000000000000000000000000000000000083
:10017C00000000000000000000004F000000000024
:10018C0000070007000000000024FF24FF240000EB
:10019C0000444AFF4A32000040231308C4C2000046
:1001AC000036495522408000000005030000000085
:1001BC00003C4281000000000081423C0000000035
:1001CC000014083E081400000010107C10100000F1
:1001DC0000002818000000000008080808080800A3
:1001EC0000606000000000004020100804020000C5
:1001FC00007EFF8181FF7E00008082FEFF808000F8
:10020C0000E2F191919F8E000062C3C9C9FF760094
:10021C0000181412FFFF1000006F8F8989F971000C
:10022C00007EFF8989F97200000101F1FD070300CE
:10023C000076FF8989FF760000468F8989FF7E0052
:10024C00000066660000000000005636000000004A
:10025C00000814224100000000242424242400005F
:10026C000000412214080000000201B10906000040
:10027C00006291F1817E000000FE111111FE000060
:10028C0000FF898989760000007E8181814200000F
:10029C0000FF8181423C000000FF898989810000B8
:1002AC0000FF090909010000007E81919172000094
:1002BC0000FF101010FF0000000081FF8100000003
:1002CC00004080817F01000000FF18244281000063
:1002DC0000FF80808080000000FF020C02FF000005
:1002EC0000FF040810FF0000007E8181817E000069
:1002FC0000FF1111110E00007E81A141BE00000013
:10030C0000FF1131518E000000868989897100002F
:10031C00000101FF01010000007F8080807F000050
:10032C00003F4080403F0000003FC060C03F0000E5
:10033C0000E3140814E30000000708F008070000AD
:10034C0000C1A1918987000000FF8181000000009D
:10035C000015167C161500000041417F00000000BE
:10036C000004020102040000004040404040000034
:10037C0000010204000000000060949494780000D6
:10038C0000FF888888700000007884848400000056
:10039C0000788484887F000000789494945800003E
:1003AC000010FE1101020000000C9292927E0000DF
:1003BC0000FF100808F00000000084FD8000000021
:1003CC00006080807D00000000FF30488400000049
:1003DC00000081FF8000000000FC043804F80000DD
:1003EC0000FC080404F80000007884848478000081
:1003FC0000FC1414140800000008141418FC00006D
:10040C0000FC080404080000008894949460000028
:10041C0000047F8480400000007C808040FC000051
:10042C00003C4080403C0000003EC060C03E0000EC
:10043C00004224182442000000068888887E0000B0
:10044C0000C4A4948C840000000876810000000095
:10045C00000000FF00000000008176080000000092
:10046C000008082A1C08000000000010307E301024
:10047C0001023C4A523C4080080C7E0C08000000F3
:10048C00017E858991A17E80080C0EFFFF0E0C0861
:10049C00080C0EFFFF0E0C0800000000000000000E
:1004AC000000000000000000000000000000000040
:1004BC000000000000000000000000000000000030
:1004CC000000000000000000000000000000000020
:1004DC000000000000000000000000000000000010
:10087C00C1C1C1C10000C2C2FEFE0100C3C31F1F23
:10088C000100C4C4FCFC0100C5C5C5C50101C6BD41
:10089C00BFBE0101C7C7C0C00100C882848301016B
:1008AC00C9C9FDFD0100CA8587860101CB888A89EB
:1008BC000101CC8BCC8B0101CD8CCD8C0101CE11E7
:1008CC00CE110101CFCF13130100D0D08F8F0100B7
:1008DC00D1D11B1B0100D2D291910100D3929493E0
:1008EC000101D49597960101D5179A990101D69BD0
:1008FC009D9C0101D7D7D7D70000D8D89E9E010167
:10090C00D9D99F9F0101DAA0A2A10101DBA3A5A463
:10091C000101DCDCDCDC0000DDA6A8A70101DEA9FE
:10092C00ABAA0101DFACAEAD0101E0E0E0E00000FC
:10093C00E1AFB1B00101E2E2E2E20000E3B2B4B334
:10094C000101E4B5B7B60101E5B8BAB90101E6E6B3
:10095C00BCBC0100E7E7E7E70000E8E8E8E80000D6
:10096C00E9E9E9E90000EAEAEAEA0000EBEBEBEB83
:10097C000000ECBDBFBE0101EDBDBFBE0101EEEE3E
:10098C00EEEE0000EFEFEFEF0000F0F0F0F0000003
:10099C00F1F1F1F10000F2F2F2F20000F3F3F3F3F3
:1009AC000000F5F5F5F50000F6F6F6F60000F7F7A1
:1009BC00F7F70000F8F8F8F80000FBF9FBFA010172
:1009CC00BBBBF4F40100811C1E1D010190181A1907
:1009DC0001019814161501018E8E121201008D1052
:1009EC008D10010100000000000000808000E0E09C
:1009FC0000F8F800FEFE00000000000000000000FF
:100A0C0000000000000000000000000000000000DA
:100A1C0000000000000000000000000000000000CA
:100A2C0000000000000000000000000000000000BA
:100A3C0000000000000000000000000000000000AA
:100A4C0000000000E01090908000F090909060000A
:100A5C0060909010000000002070F87020008078EA
:100A6C0000FC000000060600070700070700070748
:100A7C00000707000707000000000000000000004E
:100A8C00000000000000000000000000000000005A
:100A9C00000000000000000000000000000000004A
:100AAC00000000000000000000000000000000003A
:100ABC00000000000000000000000000000000002A
:100ACC000000000003040404030007000000000001
:100ADC000404040300000010141414141209040A72
:100AEC0035180800000000000000000000000000A5
:100AFC0000000000000000000000000000000000EA
:100B0C0000000000000000000000000000000000D9
:100B1C0000000000000000000000000000000000C9
:100B2C0000000000000000000000000000000000B9
:100B3C0000000000000000000000000000000000A9
:100B4C000000000000000000000000000000000099
:100B5C000000000000000000000000000000000089
:100B6C000000000000000000000000000000000079
:100B7C000000000000000000000000000000000069
:100B8C000000000000000000000000000000000059
:100B9C000000000000000000000000000000000049
:100BAC000000000000000000000000000000000039
:100BBC000000000000000000000000000000000029
:100BCC000000000000000000000000000000000019
:100BDC000000000000000000000000000000000009
:100BEC0000000000000000000000000000000000F9
:100BFC0000000000000000000000000000000000E9
:100C0C0000000000000000000000000000000000D8
:100C1C0000000000000000000000000000000000C8
:100C2C0000000000000000000000000000000000B8
:100C3C0000000000000000000000000000000000A8
:100C4C000000000000000000000000000000000098
:100C5C000000000000000000000000000000000088
:100C6C000000000000000000000000000000000078
:100C7C000000000000000000000000000000000068
:100C8C000000000000000000000000000000000058
:100C9C000000000000000000000000000000000048
:100CAC000000000000000000000000000000000038
:100CBC000000000000000000000000000000000028
:100CCC000000000000000000000000000000000018
:100CDC000000000000000000000000000000000008
:100CEC0000000000000000F884C282DAFAE2FE0282
:100CFC000202C2FE02020202C4F800000000000060
:100D0C0000000000000000000000000000000000D7
:100D1C0000000000000000000000000000000000C7
:100D2C0000000000000000000000000000000000B7
:100D3C0000000000000000000000000000000000A7
:100D4C000000000000000000000000000000000097
:100D5C0000000038FC0202020202060606BAFABAC9
:100D6C000202FC38001E1F7FFFFD7C1F1F1F1F1C73
:100D7C001C1C1F1F7CFCFC7C1F0F000000000000D3
:100D8C000000000000000000000000000000000057
:100D9C000000000000000000000000000000000047
:100DAC000000000000000000000000000000000037
:100DBC000000000000000000000000000000000027
:100DCC000000000000000000000000000000000017
:100DDC00000000003F3EFEF2F23E3E3E3F3FF3F38A
:100DEC00FF3E3F0000C0F030381818181898B0B00B
:100DFC00303030606060606060C0C0C0C0C0C0C0D7
:100E0C008080808080000000000000000000000056
:100E1C0000000000000000000000000000000000C6
:100E2C0000000000000000000000000000000000B6
:100E3C0000000000000000000000000000000000A6
:100E4C000000000000000000000000000000000096
:100E5C000000000000000000000000000000000086
:100E6C000000000000FFFF00000C18F0E70FFD0F62
:100E7C00070000000000000000000000000000005F
:100E8C0001010181838383C3E767E6C6060E0C0C60
:100E9C000C0C0C1818187870E0C00000000000E072
:100EAC00E0000000000080C0E06000E0E0606060F6
:100EBC00606060E0C000000080C06060C080000026
:100ECC0000E0E0606060606060C08000000080C096
:100EDC006060C0800000000080C06060606060C026
:100EEC008000000000FFFF00000000FFFF00FF007B
:100EFC00000000000000000000000080C0603018FE
:100F0C008CC66331180808090B0B0B090808080874
:100F1C0008081C3E363E1C00FFFF0000000000FFCE
:100F2C00FF70F88C8E070301000000FFFFE0E0E08B
:100F3C006060607F3F00FEFF616060606061FFFE8B
:100F4C0000FFFF000000000000FFFF00FEFF6160DB
:100F5C0060606061FFFE00FFFF0000000000000009
:100F6C000100000000FFFF00000000FFFF003F3009
:100F7C0030303030303030180CC6E331180C0603EA
:100F8C000100000000000000000000000000000054
:100F9C000000000000000000FFFF00000000003F08
:100FAC003F00000103070E1C3830003F3F000001DA
:100FBC0003070E3C38003F3F0000000000003F3F9D
:100FCC00003F3F3030303030301F0F003F3F0000CB
:100FDC00000000003F3F000F1F3030303030303801
:100FEC001800000000FFFF00000000FFFF00FF03DF
:100FFC0003030303030303060C193366CC98306018
:10100C00C080000000000000000000000000000094
:10101C000000000000000000FFFF000000000000C6
:10102C0000000000000000000000000000000000B4
:10103C0000000000000000000000000000000000A4
:10104C000000000000000000000000000000000094
:10105C000000000000000000000000000000000084
:10106C000000000000FFFF00000000FFFF00FF0079
:10107C00000000000000000000000000000103065A
:10108C000C193366444444E4F4B4F4E40404040456
:10109C0004040E1F1B1F0E00FFFF000000FC0000CD
:1010AC00000000F8040404F8000C040404FC00F034
:1010BC00888488F00080808000FC8484040400F81C
:1010CC000404040800FC000000FC00F0888488F094
:1010DC0000FC040404F800F8040404F800FC44C404
:1010EC004438000000FFFF00000603011C3E373EA1
:1010FC001C00000000000080808080C0C0C0C0C008
:10110C00E06060603030303031391918181C0C0C2C
:10111C000C0C0E060606070301000000000F080861
:10112C000808000708080807000608080807000F49
:10113C000000000F00000000000F0808080800075E
:10114C0008080804000708080807000F0000000F33
:10115C00000F08080807000708080807000F000020
:10116C00010E0000000107060E0C0C0C0C0C060600
:10117C000606030303030301010101010000000043
:10118C000000000000000000000000000000000053
:10119C000000000000000000000000000000000043
:1011AC000000000000000000000000000000000033
:1011BC000000000000000000000000000000000023
:1011CC000000000000000000000000000000000013
:1011DC000000000000000000000000000000000003
:1011EC0000000000000000000000000000000000F3
:1011FC0000000000000000000000000000000000E3
:10120C0000000000000000000000000000000000D2
:10121C0000000000000000000000000000000000C2
:10122C0000000000000000000000000000000000B2
:10123C0000000000000000000000000000000000A2
:10124C000000000000000000000000000000000092
:10125C000000000000000000000000000000000082
:10126C00000000000000000000C0E0F0F0F8F8F80A
:10127C00F8F8FCFCFCFCFCFCFCFCFCFCFCFCFCFCAA
:10128C00FCFCFCFCFCFCF8F8F8F8F8F0E0E0C00022
:10129C000000000000000000000000000000000042
:1012AC000000000000000000000000000000000032
:1012BC000000000000000000000000000000000022
:1012CC000000000000000000000000000000000012
:1012DC000000000000000000000000000000000002
:1012EC000000000000000000FEFFFF0301030303E9
:1012FC000303030303030303030303FFFF030301BC
:10130C000303030303030303030303030307FFFEA6
:10131C0000000000000000000000000000000000C1
:10132C0000000000000000000000000000000000B1
:10133C0000000000000000000000000000000000A1
:10134C000000000000000000000000000000000091
:10135C000000000000000000000000000000000081
:10136C000000000000000000FFFFFFC0C0C0C0C0B4
:10137C00C0C0C0C0C0C0C0C0C0C0E0FFFFE0C0C0A3
:10138C00C0E0D0C8C4C4C4C4C8D0E0C0E0F0FFFF03
:10139C000000000000000000000000000000000041
:1013AC000000000000000000000000000000000031
:1013BC000000000000000000000000000000000021
:1013CC000000000000000000000000000000000011
:1013DC000000000000000000000000000000000001
:1013EC000000000000000000FFFFFFFFFFFFFFFFF9
:1013FC00FFFFFFFFFFFFFFFFFFFFFFFFFFFFFFFFF1
:10140C00FFFFFFFFFFFFFFFFFFFFFFFFFFFFFFFFE0
:10141C0000000000000000000000000000000000C0
:10142C0000000000000000000000000000000000B0
:10143C0000000000000000000000000000000000A0
:10144C000000000000000000000000000000000090
:10145C000000000000000000000000000000000080
:10146C0000000000000000003FFFFFE1E1E1E1FFB0
:10147C00FFFFF9D9D9D9D9D9D9D9D9D9D9D9D9D964
:10148C00D9D9D9D9C9FBFFFFFFE1E1C1E1F7FF3F92
:10149C000000000000000000000000000000000040
:1014AC000000000000000000000000000000000030
:1014BC000000000000000000000000000000000020
:1014CC000000000000000000000000000000000010
:1014DC000000000000000000000000000000000000
:1014EC00000000000000000000001F3F3F3F3F3F96
:1014FC003F000000000000000000000000000000A1
:10150C000000000000001F3F3F3F3F3F3F1F000017
:10151C0000000000000000000000000000000000BF
:10152C0000000000000000000000000000000000AF
:10153C00000000000000000000000000000000009F
:10154C00000000000000000000000000000000008F
:10155C00000000000000000000000000000000007F
:10156C00000000000000000000000000000000006F
:10157C00000000000000000000000000000000005F
:10158C00000000000000000000000000000000004F
:10159C00000000000000000000000000000000003F
:1015AC00000000000000000000000000000000002F
:1015BC00000000000000000000000000000000001F
:1015CC00000000000000000000000000000000000F
:1015DC0000000000000000000000000000000000FF
:1015EC0000000000000000000000000000000000EF
:1015FC0000000000000000000000000000000000DF
:10160C0000000000000000000000000000000000CE
:10161C0000000000000000000000000000000000BE
:10162C0000000000000000000000000000000000AE
:10163C00000000000000000000000000000000009E
:10164C0000000000E01090908000F09090906000FE
:10165C0060909010000000000000000000008078F6
:10166C0000FC000000000000000000000000000072
:10167C00000000000000000000000000000000005E
:10168C00000000000000000000000000000000004E
:10169C00000000000000000000000000000000003E
:1016AC00000000000000000000000000000000002E
:1016BC00000000000000000000000000000000001E
:1016CC0000000000030404040300070000000000F5
:1016DC000404040300000010141414141209040A66
:1016EC003518080000000000000000000000000099
:1016FC0000000000000000000000000000000000DE
:10170C0000000000000000000000000000000000CD
:10171C0000000000000000000000000000000000BD
:10172C0000000000000000000000000000000000AD
:10173C00000000000000000000000000000000009D
:10174C00000000000000000000000000000000008D
:10175C00000000000000000000000000000000007D
:10176C00000000000000000000000000000000006D
:10177C00000000000000000000000000000000005D
:10178C00000000000000000000000000000000004D
:10179C00000000000000000000000000000000003D
:1017AC00000000000000000000000000000000002D
:1017BC00000000000000000000000000000000001D
:1017CC00000000000000000000000000000000000D
:1017DC0000000000000000000000000000000000FD
:1017EC0000000000000000000000000000000000ED
:1017FC0000000000000000000000000000000000DD
:10180C0000000000000000000000000000000000CC
:10181C0000000000000000000000000000000000BC
:10182C0000000000000000000000000000000000AC
:10183C00000000000000000000000000000000009C
:10184C00000000000000000000000000000000008C
:10185C00000000000000000000000000000000007C
:10186C00000000000000000000000000000000006C
:10187C00000000000000000000000000000000005C
:10188C00000000000000000000000000000000004C
:10189C00000000000000000000000000000000003C
:1018AC00000000000000000000000000000000002C
:1018BC00000000000000000000000000000000001C
:1018CC00000000000000000000000000000000000C
:1018DC0000000000000000000000000000000000FC
:1018EC0000000000000000F884C202020202FE02A6
:1018FC000202C2FE02020202C4F800000000000054
:10190C0000000000000000000000000000000000CB
:10191C0000000000000000000000000000000000BB
:10192C0000000000000000000000000000000000AB
:10193C00000000000000000000000000000000009B
:10194C00000000000000000000000000000000008B
:10195C00000000000000000000000000000000007B
:10196C0000000000001E1F7FFFFD7C1C1C1C1F1CA8
:10197C001C1C1F1F7CFCFC7C1F0F000000000000C7
:10198C00000000000000000000000000000000004B
:10199C00000000000000000000000000000000003B
:1019AC00000000000000000000000000000000002B
:1019BC00000000000000000000000000000000001B
:101D5C000038FC0202020202060606BAFABA0202B5
:101D6C00FC38000000000000000000000000000033
:101D7C000000000000000000000000000000000057
:101D8C000000000000000000000000000000000047
:101D9C000000000000000000000000000000000037
:101DAC000000000000000000000000000000000027
:101DBC000000000000000000000000000000000017
:101DCC000000000000000000000000000000000007
:101DDC0000003F3EFEF2F23E3E3E3F3FF3F3FF3E3D
:101DEC003F00000000000000000000808000E0E0E8
:101DFC0000000000000000000000000000000000D7
:101E0C0000000000000000000000000000000000C6
:101E1C0000000000000000000000000000000000B6
:101E2C0000000000000000000000000000000000A6
:101E3C000000000000000000000000000000000096
:101E4C000000000000000000000000000000000086
:101E5C000000000000000000000000000000000076
:101E6C000000000000060600070700070700070730
:101E7C000000000000000000000000000000000056
:101E8C000000000000000000000000000000000046
:101E9C000000000000000000000000000000000036
:101EAC000000000000000000000000000000000026
:101EBC000000000000000000000000000000000016
:101ECC000000000000000000000000000000000006
:101EDC0000000000000000000000000000000000F6
:101EEC0000000000000000000000000000000000E6
:101EFC0000000000000000000000000000000000D6
:101F0C0000000000000000000000000000000000C5
:101F1C0000000000000000000000000000000000B5
:101F2C0000000000000000000000000000000000A5
:101F3C000000000000000000000000000000000095
:101F4C000000000000000000000000000000000085
:101F5C000000000000000000000000000000000075
:101F6C000000000000000000000000000000000065
:101F7C000000000000000000000000000000000055
:101F8C000000000000000000000000000000000045
:101F9C00000000000006060007070000000000001B
:101FAC000000000000000000000000000000000025
:101FBC000000000000000000000000000000000015
:101FCC000000000000000000000000000000000005
:101FDC0000000000000000000000000000000000F5
:101FEC0000000000000000000000000000000000E5
:101FFC0000000000000000000000000000000000D5
:10200C0000000000000000000000000000000000C4
:10201C0000000000000000000000000000000000B4
:10202C0000000000000000000000000000000000A4
:10203C000000000000000000000000000000000094
:10204C000000000000000000000000000000000084
:10205C000000000000000000000000000000000074
:10206C000000000000000000000000000000000064
:10207C000000000000000000000000000000000054
:10208C000000000000000000000000000000000044
:10209C000000000000000000000000000000000034
:1020AC000000000000000000000000000000000024
:1020BC000000000000000000000000000000000014
:1020CC0000000000000606000404040404040404D8
:1020DC0004040404040400000000000000000000DC
:1020EC0000000000000000000000000000000000E4
:1020FC0000000000000000000000000000000000D4
:10210C0000000000000000000000000000000000C3
:10211C0000000000000000000000000000000000B3
:10212C0000000000000000000000000000000000A3
:10213C00000000001027E80364000A0001000010F2
:10214C00000110000100C100486F6C612050545216
:10215C005349545538383838410600000000000007
:10216C0000000000000044050000000020000000FA
:10217C0000004154245454534E444D473D342C22BA
:10218C002424424C25732C253032642530326432A1
:10219C0030253032642C25303264253032642530C1
:1021AC0032642C53322C25732C25643A5858232333
:1021BC00220D0A005F5F5F0030002A30002A2A30AF
:1021CC00002A2A2A30002A2A2A2A30002A2A2A2AD5
:1021DC002A3000415424545454524745563D34320D
:1021EC002C312C32350D0A0031002A31002A2A31CB
:1021FC00002A2A2A31002A2A2A2A31002A2A2A2AA3
:10220C002A310032002A32002A2A32002A2A2A32A3
:10221C00002A2A2A2A32002A2A2A2A2A32003300A1
:10222C002A33002A2A33002A2A2A33002A2A2A2A65
:10223C0033002A2A2A2A2A33004154245454545253
:10224C004745563D34322C312C25640D0A0041543F
:10225C0024545454524745563D34322C312C32338D
:10226C000D0A0034002A34002A2A34002A2A2A347F
:10227C00002A2A2A2A34002A2A2A2A2A34000D2043
:10228C00486F7261205054523A20253032643A25FE
:10229C003032643A2530326420454E44205054523A
:1022AC000A000D0A50554E5445524F2025730A20F2
:1022BC00454E44005025640046616C6C6F20616C87
:1022CC002070617361722061206C6120686F726193
:1022DC00206C6F63616C0A0D0041542454544445C6
:1022EC005649443F0A0D0041542B4353510A0D00EB
:1022FC0041542454544E455449503F0A0D00415406
:10230C002454544750535152593D31302C300A0DFE
:10231C000042555320534954550076657220302E97
:10232C00392E3700415424545454524745563D34A9
:10233C00322C312C32340D0A004E4F204155544F63
:10234C0052495A41444F0053494E20434F4E455831
:10235C00494F4E00253032643A253032643A2530EC
:10236C003264003230253032642D253032642D2514
:10237C00303264004E4F20484120494E4943494178
:10238C00444F20534553494F4E0053494E2052550C
:10239C005441002020525554413A20202000494EEF
:1023AC00475245534520535520434F4449474F000E
:1023BC0046494E205255544100494E4943494F20FD
:1023CC0052555441002048412053414C49444F0040
:1023DC0044454C2053495354454D41004E454345CB
:1023EC005349544120494E4943494152204A4F5286
:1023FC004E414441004D454E53414A453A004553E8
:10240C00434F4A41205355205255544100202052ED
:10241C005554413A20200050616E74616C6C61001F
:10242C004E6F204175746F72697A616461000100AE
:10243C002D4E414E00000100770452210800440546
:10244C0054210400F0055C210400F5056021040012
:10245C000003C02104000403C02102000803C421AE
:10246C0003000A03C62104000D03C9210500110352
:10247C00CD2106001603D22107001C03D82102002F
:10248C002303F42103002503F62104002803F9217A
:10249C0005002C03FD21060031030222070037033F
:1024AC00082202003E030F22030040031122040005
:1024BC004303142205004703182206004C031D2277
:1024CC00070052032322020059032A2203005B0354
:1024DC002C2204005E032F22050062033322060027
:1024EC006703382207006D033E22020074036F223B
:1024FC0003007603712204007903742205007D0326
:10250C007822060082037D220700880383220900BB
:10251C008F031D230A00980326230E00A2034523D4
:10252C000D00B00353231600BD0380230900D30311
:10253C0096230B00DC039F231200E703AA23090058
:10254C00F903BC230C000204C5230B000E04D12399
:10255C000C001904DC2319002504E82309003E04AF
:10256C0001240F0047040A240A0056041924090008
:10257C00600423240E0069042C240C000300722137
:10258C0001006E063A240000F894EE27EFBBF1E050
:10259C00F5BFE5BFF8E1A895A4B7A77FA4BFF0935A
:1025AC006000E09360008DE0A2E0BB27ED938A957C
:1025BC00E9F780E098E0A0E0B1E0ED930197E9F74E
:1025CC00E2E4F4E285919591009761F0A591B591C3
:1025DC0005901590BF01F00105900D920197E1F760
:1025EC00FB01F0CFE0E0EEBBEFEFEDBFE8E0EEBFBC
:1025FC00C0E0D3E00C94091F5F9A87E38A95F1F74A
:10260C005F9887E38A95F1F70895169A179A5E9862
:10261C005D98EFE3E8B9F0DF08951A935E985D9842
:10262C00A981BA81A034E0E0BE0720F4169A17986D
:10263C00198107C0179A1698E981FA81E054F04085
:10264C001E2FE12FE064EF771E2F18B9D5DF18810C
:10265C003BC01A935E985D98E981E86BEF7B1E2F67
:10266C0018B9CADF188130C0EA81FB810E94A3240B
:10267C00E881F9810E94A724249608955E9A5D98BA
:10268C00E881E8B98DED90E00197F1F7B5DF21967F
:10269C0008951A930A930E94AB240E94B024E0E49C
:1026AC00F0E0FA93EA930E94B024169A00E010E04E
:1026BC000134E0E01E0734F4E0E0EA93DFDF0F5F63
:1026CC001F4FF6CF19810881239608951A930A9308
:1026DC0000E010E00830E0E01E072CF40A93D9DF8C
:1026EC000F5F1F4FF7CF0991199108951A93EB8142
:1026FC00FC810E94A324E981FA810E94A72410E0A6
:10270C00183080F4ED81FE810E947727DF010E9452
:10271C00B624EA0FFB1FE458FF4FE491EA93AEDFB7
:10272C001F5FEECF188141C10E942B2820E010E0E2
:10273C00EC811E1700F500E00830D8F40E94B92493
:10274C00F0E0F595E795EC93ED81E1703E2F30309C
:10275C0021F00E94B924E068EC932F5FEC81E21722
:10276C0031F4ED81F0E0F595E795ED8320E00F5F16
:10277C00E3CF1F5FDDCF0E94322828960895EF9794
:10278C0021970E942B280E94C0240E94A324FE01A2
:10279C00EB5BFF4F0190F081E02D0E94A72410E02D
:1027AC00183008F50E94B624BF010E947727DE017D
:1027BC001496EA0FFB1FFA93EA93FE01E55BFF4FB9
:1027CC000190F081E02D0E947727E60FF71FE45867
:1027DC00FF4FE491EA93FE01E95BFF4FE081EA933E
:1027EC00A3DF1F5FDDCF00E0FE01EC5BFF4FE0815C
:1027FC000E1710F00C94521410E0183010F00C94CA
:10280C00441430E0FE01EC5BFF4FE0813E17A0F575
:10281C00E32FF0E0DE01A95BBF4F0D90BC91A02D22
:10282C00EA0FFB1FBF01DE01AC5BBF4FAC91BB27B6
:10283C000E94B6240E948B27DB01AE0FBF1FA03471
:10284C00E0E0BE0749F4E0E4F0E0FA93EA930E947A
:10285C00C024FA93EA9308DF0E94B6240E947727DB
:10286C00DE011496AE0FBF1FEE27A00FBE1FEC911A
:10287C00EA9304DF3F5FC6CF1F5FBFCF0E94C02427
:10288C00FA93EA93DE01A95BBF4F0E94C724FA9327
:10289C00EA93EADE0F5FA8CF0E943228EF962C96BF
:1028AC000895A981A13011F00C94D3140E94CD2469
:1028BC00E138A0E0FA0711F4EAEF17C0E039A0E024
:1028CC00FA0711F4EBEF11C0E839A0E0FA0711F4A4
:1028DC00ECEF0BC0EE38A0E0FA0711F4EDEF05C0F9
:1028EC00ED38A0E0FA0711F4EEEFEE83AE81A13CD7
:1028FC00B0F0A0917704B0917804A13CE0E0BE0761
:10290C0074F00E94D0243596E491E03041F00E949E
:10291C00CD240E94DD243496E491E03009F417C0F4
:10292C000E94D024DF01E0917904F0E03196EA0FA7
:10293C00FB1FE4910E94E624E0917A040E94E624B5
:10294C00E0917B040E94E624D1DEE2E001C0E0E0ED
:10295C00E0937904AE81A13C58F00E94CD240E94F2
:10296C00DD24DF01E09179040E94EA24E49101C0A6
:10297C00EE81F0E00E94EE240E94EE240E94F324EB
:10298C000E94CD24E0937704F0937804EC81E093DB
:10299C007A04EA81E0937B0408C00E94CD240E9453
:1029AC00EE240E94EE240E94F324279608951A9395
:1029BC000A9310E000E00E94F92418F4AC81A030D6
:1029CC0009F029C00E94B6240E940425EC91EA93D8
:1029DC000E9409250E940925E0E00E940E250E9414
:1029EC001325AF81B885EA0FFB1FEF83F8870E9490
:1029FC001E25A0E8B0E00E941028EA1BFB0BAF815B
:102A0C00B885EA17FB072CF4E0E0EF83E8870E9417
:102A1C0023251F5FD0CF0E94F92418F4AC81A1307C
:102A2C0009F075C00E94B6240E940425AC91A13E09
:102A3C0021F40E942C25A73C09F002C009EF29C003
:102A4C000E94B6240E940425AC91A13E21F40E9460
:102A5C002C25A33C09F002C007EE1BC00E94B62433
:102A6C000E940425AC91A13E21F40E942C25A23C8D
:102A7C0009F002C008EE0DC00E94B6240E94042585
:102A8C00AC91A13E21F40E942C25A53C09F001C07B
:102A9C0009EE003079F00A930E943225E1E00E94A1
:102AAC000E251E5F0E941E25AF81B8850E943D2514
:102ABC0000E01CC00E94B6240E940425EC91EA930D
:102ACC000E943225E9850E940E250E94B6240E94A0
:102ADC000425AC91A03219F40E94132502C00E9467
:102AEC001E25AF81B8850E943D251F5F0E941E25C3
:102AFC003196AF81B885AE17BF0744F40E941E25EE
:102B0C00A0E8B0E00E943D250E94232584CFE1EC93
:102B1C00F0E0E0937704F0937804198108812B9608
:102B2C0008950E942B2808851985EC81FD81E017FA
:102B3C00F10700F12A853B85EE81FF81E217F3074F
:102B4C00B0F03A932A931A930A938EDDA0E8A09FD3
:102B5C00F001A19FF00DE20FF31FAC85BD85EA0FCC
:102B6C00FB1FE491EA938ADD2F5F3F4FE5CF0F5FA8
:102B7C001F4FDBCF0E9432282E960895AB85AA23D7
:102B8C0022F0AA85BB8558970CF015C0AD85AA23F9
:102B9C0022F0AC85BD85DC970CF00CC0AF85AA2368
:102BAC0022F0AE85BF85DC970CF003C0E1E0F0E0CD
:102BBC006DC06AC069C068C0A881B9810E9425280F
:102BCC000CF062C0EA81FB81E130A0E0FA0721F051
:102BDC00E330A0E0FA0709F404C0E530A0E0FA07FE
:102BEC0009F404C0E730A0E0FA0709F404C0E830A7
:102BFC00A0E0FA0709F404C0EA30A0E0FA0709F4EF
:102C0C0004C0EC30A0E0FA0739F4A881B9819097A0
:102C1C00DCF5E1E0F0E03AC0E430A0E0FA0721F0A6
:102C2C00E630A0E0FA0709F404C0E930A0E0FA07A6
:102C3C0009F404C0EB30A0E0FA0739F4A881B9819B
:102C4C005F9714F5E1E0F0E021C0E230A0E0FA0774
:102C5C00D9F4A881B9815E97BCF4A881B9815D973C
:102C6C001CF4E1E0F0E012C00E9442250E944725CE
:102C7C0039F40E94502519F40E945A2509F401C018
:102C8C0003C0E1E0F0E002C0E0E0F0E062960895FD
:102C9C006297EA89FB89DE0182E10E941728AA85E6
:102CAC00BB85169714F00C94D716EA85FB8578969D
:102CBC00EA87FB873597EA87FB87A881B98111974B
:102CCC0011F00C94D116AA81BB81119761F4E8859F
:102CDC00F9853197E887F987ECE0F0E0EA83FB832C
:102CEC00EFE1F0E055C0AA81BB811397C9F40E94B3
:102CFC0042250E94472539F40E94502519F40E9460
:102D0C005A2509F401C003C0EDE1F0E002C0ECE18A
:102D1C00F0E0E883F983E2E0F0E0EA83FB833AC079
:102D2C00EA81FB813197EA83FB83E130A0E0FA076B
:102D3C0021F0E330A0E0FA0709F404C0E530A0E08C
:102D4C00FA0709F404C0E730A0E0FA0709F404C05C
:102D5C00E830A0E0FA0709F404C0EA30A0E0FA0772
:102D6C0019F4EFE1F0E014C0E430A0E0FA0721F030
:102D7C00E630A0E0FA0709F404C0E930A0E0FA0755
:102D8C0009F404C0EB30A0E0FA0721F4EEE1F0E026
:102D9C00E883F98305C0E881F9813197E883F983E9
:102DAC0005C0EA85FB853597EA87FB87FE01A2E122
:102DBC000E940828E3DE309739F0FE01A2E10E9460
:102DCC000828FADE309709F409C0FE01AA89BB89EC
:102DDC0082E10E941728E1E0F0E002C0E0E0F0E0C0
:102DEC00649608950E942928E09169060E94642542
:102DFC008F01E0916B060E9464259F01E0916806AB
:102E0C00F0E0E00FF11FDF01E0916A060E94EA2476
:102E1C00E20FF31FDF010E946D25EAE0F0E00E9453
:102E2C00C827AF01E0916D06DA01F0E0EA17FB0765
:102E3C0099F4A0916806BB27E09169060E9473255E
:102E4C00E0916A060E947325E0916B060E9473253F
:102E5C000E946D25109709F403C0E1E0F0E002C078
:102E6C00E0E0F0E00E943028269608955C9A0E94DB
:102E7C0077255C980E9477250895EEE7F1E2FA93A6
:102E8C00EA93E5EFF5E0662777270E947D250E94FF
:102E9C0088250E9403280E948F250E949825E0E631
:102EAC00F6E0662777270E940328E091FC05FF27B0
:102EBC00662777270E94032884E20E946D24A69639
:102ECC000895E0910906F0910A06309719F4E0E0B4
:102EDC00F3E036C0E130A0E0FA0749F4E0E2FFE1AC
:102EEC000E94B1250E94AB240E94B42531C0E2306F
:102EFC00A0E0FA0749F4E0EFFDE10E94B1250E9441
:102F0C00AB240E94B42524C0E330A0E0FA0749F4B6
:102F1C00E0EFF9E00E94B1250E94AB240E94B42599
:102F2C0017C0E430A0E0FA0749F4E0E5F0E20E94B3
:102F3C00B1250E94AB240E94B4250AC0E4E0F3E062
:102F4C00FA93EA930E94AB240E94AB240E94BE2504
:102F5C000895A0E00499A1E0A03039F4E0E0EC156C
:102F6C0021F4A0915F06A13009F049C0E1E0CE2E1A
:102F7C000E94C625309731F4E0E0E0936806E8E063
:102F8C00F3E031C0E130A0E0FA0731F4E0E0E09387
:102F9C006906EAE0F3E027C0E230A0E0FA0731F47A
:102FAC00E0E0E0936A06EDE0F3E01DC0E330A0E062
:102FBC00FA0731F4E0E0E0936B06E1E1F3E013C0D3
:102FCC00E430A0E0FA0731F4E0E0E0936C06E6E1CF
:102FDC00F3E009C0E530A0E0FA0749F4E0E0E09343
:102FEC006D06ECE1F3E0FA93EA930E94CA250E9485
:102FFC00C625E05AF94FA0E30E94D3253FC0A0E0BC
:10300C000499A1E0A03039F4E0E0EC1521F4A09192
:10301C00FB05A03009F02BC0E0910206EF5FE093B6
:10302C000206E1E0CE2E22DF0E947725E091020617
:10303C000E94DA2521F4E2E0E093290617C0E23081
:10304C00A0E0FA0799F4E0E0E093FC05E0930406B5
:10305C00E5E00E94DF25E0E0E0935F06E093670681
:10306C00EFEDF1E20E94E525E093020607C0049B18
:10307C0003C0E1E0EC1509F001C0CC240895A0E0F8
:10308C000399A1E0A03039F4E0E0EB1521F4A09114
:10309C005F06A13009F049C0E1E0BE2E0E94C625B2
:1030AC00309731F4E1E0E0936806E3E2F3E031C0FD
:1030BC00E130A0E0FA0731F4E1E0E0936906E5E2E3
:1030CC00F3E027C0E230A0E0FA0731F4E1E0E0934E
:1030DC006A06E8E2F3E01DC0E330A0E0FA0731F441
:1030EC00E1E0E0936B06ECE2F3E013C0E430A0E027
:1030FC00FA0731F4E1E0E0936C06E1E3F3E009C098
:10310C00E530A0E0FA0749F4E1E0E0936D06E7E36F
:10311C00F3E0FA93EA930E94CA250E94C625E05A6E
:10312C00F94FA1E30E94D32532C0A0E00399A1E09E
:10313C00A03059F4E0E0EB1541F4A091FB05A03070
:10314C0021F4A091FC05A13009F01AC0E09104060D
:10315C00EF5FE09304068ADEE1E0BE2EA091040648
:10316C00AD3010F0E0930406A0912906A93011F4BB
:10317C00E9E001C0E8E0E09329060E94772507C04A
:10318C00039B03C0E1E0EB1509F001C0BB240895DB
:10319C00A0E00299A1E0A03039F4E0E0EE1521F4B2
:1031AC00A0915F06A13009F049C0E1E0EE2E0E942B
:1031BC00C625309731F4E2E0E0936806EEE3F3E0E5
:1031CC0031C0E130A0E0FA0731F4E2E0E0936906A7
:1031DC00E0E4F3E027C0E230A0E0FA0731F4E2E0EB
:1031EC00E0936A06E3E4F3E01DC0E330A0E0FA07E5
:1031FC0031F4E2E0E0936B06E7E4F3E013C0E43073
:10320C00A0E0FA0731F4E2E0E0936C06ECE4F3E0C2
:10321C0009C0E530A0E0FA0749F4E2E0E0936D065E
:10322C00E2E5F3E0FA93EA930E94CA250E94C625D0
:10323C00E05AF94FA2E30E94D32535C0A0E00299D1
:10324C00A1E0A03059F4E0E0EE1541F4A091FB05AB
:10325C00A03021F4A091FC05A13009F01DC0E09133
:10326C000406E150E093040601DEE1E0EE2EA091AD
:10327C000406A13010F0AD3018F0ECE0E093040639
:10328C00A0912906A93011F4E9E001C0E8E0E0932F
:10329C0029060E94772507C0029B03C0E1E0EE15CA
:1032AC0009F001C0EE240895A0E00199A1E0A0303E
:1032BC0039F4E0E0ED1521F4A0915F06A13009F09E
:1032CC0049C0E1E0DE2E0E94C625309731F4E3E0E0
:1032DC00E0936806E9E5F3E031C0E130A0E0FA07DD
:1032EC0031F4E3E0E0936906EBE5F3E027C0E2306C
:1032FC00A0E0FA0731F4E3E0E0936A06EEE5F3E0D0
:10330C001DC0E330A0E0FA0731F4E3E0E0936B0674
:10331C00E2E6F3E013C0E430A0E0FA0731F4E3E0B6
:10332C00E0936C06E7E6F3E009C0E530A0E0FA07AD
:10333C0049F4E3E0E0936D06EDE6F3E0FA93EA93EB
:10334C000E94CA250E94C625E05AF94FA3E30E94A9
:10335C00D32558C0A0E00199A1E0A03039F4E0E0F9
:10336C00ED1521F4A091FC05A13009F044C0D394D3
:10337C00E0910306EF5FE093030678DDE8ECF0E004
:10338C000E94ED25E09103060E94DA2501F5E091FB
:10339C000406E030B1F0E1E0E093FB05E4E0E093FB
:1033AC002906E5E4F2E2FA93EA93E0910406FF279A
:1033BC00662777270E94032884E00E946D242696B6
:1033CC0005C0E0910306E150E093030613C0E23020
:1033DC00A0E0FA0779F4E0E0E093FB05EAE5F2E21D
:1033EC000E94E525E0930406E3E0E0932906E0E083
:1033FC00E093030607C0019B03C0E1E0ED1509F063
:10340C0001C0DD240895A0E00099A1E0A03041F4B2
:10341C00A091FA05A03021F4A0915F06A13009F02B
:10342C005BC0E1E0E093FA050E94C625309741F4B9
:10343C00E4E0E0936806E4E7F3E00E94F12542C083
:10344C00E130A0E0FA0741F4E4E0E0936906E6E736
:10345C00F3E00E94F12536C0E230A0E0FA0741F417
:10346C00E4E0E0936A06E9E7F3E00E94F1252AC064
:10347C00E330A0E0FA0741F4E4E0E0936B06EDE7FB
:10348C00F3E00E94F1251EC0E430A0E0FA0741F4FD
:10349C00E4E0E0936C06E2E8F3E00E94F12512C050
:1034AC00E530A0E0FA0781F4E4E0E0936D06E8E88B
:1034BC00F3E00E9401260E940826E0E0EA93E1E096
:1034CC00EA93EEEFEA9373DA0E94C625E05AF94FBD
:1034DC00A4E30E94D3250AC0009B04C0A091FA0566
:1034EC00A13009F003C0E0E0E093FA050895EAE8A2
:1034FC00F2E2FA93EA93AA81BB811A960E940D26F6
:10350C00AE81BF811C960E940D26AA85BB851E9696
:10351C000E940D268CE00E946D242E962296089512
:10352C002D978DE0A0E0B0E0E4E6F1E20E943728B0
:10353C000E94292820E030E000E010E0083CE0E0A8
:10354C001E0714F00C94351E0E941426A432B1F4FC
:10355C000E941C26A43291F40E942426A43571F4F6
:10356C000E942C26A83751F40E943426A43731F43B
:10357C00F8010E943C26AC91AC3209F030C06624B4
:10358C000E944226E0EA6E1690F4E62DF0E0BF01B0
:10359C00E05BFA4F0F01D8011696FB01EA0FFB1FF7
:1035AC000E944D26EC91D001EC9363940BC0E1E0AA
:1035BC005E2ED8011696E62D0E94EA240E944D2616
:1035CC00ECE2EC93D8011696E62D0E94EA240E94B8
:1035DC004D26AC91AC32B1F6E7E0E09329060E949F
:1035EC001426AB3281F40E941C26A33461F40E9491
:1035FC002426A33541F40E942C26A13521F40E94E7
:10360C003426AA3309F054C00E944226F80136969B
:10361C000E944D260E945226AAE0B0E00E948B2701
:10362C000F01F80137960E944D260E945226E00D9C
:10363C00F11DE987FA87A985BA851B9724F0A9851E
:10364C00BA851F970CF005C0E1E0F0E00E94562609
:10365C002FC0A985BA851F9724F0A985BA855297E2
:10366C000CF005C0E2E0F0E00E94562621C0A985CE
:10367C00BA85529724F0A985BA855F970CF005C0DE
:10368C00E3E0F0E00E94562613C0A985BA85909716
:10369C0024F0A985BA85D2970CF005C0E4E0F0E0DF
:1036AC000E94562605C0E0E0E0930906E0930A0666
:1036BC000E941426A23441F40E941C26A53521F444
:1036CC000E942426A33509F08CC00E944226F801E2
:1036DC0070960E944D260E945226E0931B06F8011C
:1036EC0071960E944D260E945226E0931C06F8010A
:1036FC0072960E944D260E945226E0931D06F801F8
:10370C0073960E944D260E945226E0931E06A091AD
:10371C001E06A13119F4EAE0E0931E06A0911B06E7
:10372C00A13130F0E0911B06F0E03797E0931B06D7
:10373C00A0911C06A13130F0E0911C06F0E0379707
:10374C00E0931C06F80176960E944D26AC91A133AD
:10375C0039F4F80177960E944D26AC91A83309F004
:10376C0040C0E1E0E0932906A0911D06EAE0EA02E0
:10377C00F001DF01E0911E060E94EA24E09323068B
:10378C00F0932406A0911B06E0E1EA02F0013197C8
:10379C00DF01E0911C060E947325EAE0F0E00E9434
:1037AC008B27E0932506F0932606A0912306B09173
:1037BC002406EA0FFB1FE0932706F0932806EFE19F
:1037CC00F6E0FA93EA93E0ECF2E2FA93EA93E091F2
:1037DC002706F09128060E945B2684E00E943D2477
:1037EC0028960E941426AE3481F40E941C26A5341F
:1037FC0061F40E942426A43541F40E942C26A9349D
:10380C0021F40E943426A03509F04EC00E944226B5
:10381C000E946026293CE0E03E076CF40E9466267C
:10382C00AC91AA3329F40E946B2611F40E947426E1
:10383C002F5F3F4FEFCF0E947B26AC91A232A1F5B8
:10384C000E947F260E94522611F50E9483260E9418
:10385C005226E9F40E9487260E945226C1F4EF8575
:10386C00F88937960E944D260E94522681F4EF85E6
:10387C00F88938960E944D260E94522641F4EF8515
:10388C00F88939960E944D260E94522609F006C0EE
:10389C00E0E0E0930506E093060606C0E1E0F0E008
:1038AC00E0930506F09306060E941426A43481F4D6
:1038BC000E941C26A53461F40E942426A63541F4EE
:1038CC000E942C26A93421F40E943426A43409F039
:1038DC003BC00E9442260E946026293CE0E03E0745
:1038EC006CF40E946626AC91AA3329F40E946B26D4
:1038FC0011F40E9474262F5F3F4FEFCFEF85F889AC
:10390C0031960E944D26AC91A232F1F40E947B2696
:10391C00AC91E091F505EA1789F40E947F26AC91F1
:10392C00E091F605EA1751F40E948326AC91E091E0
:10393C00F705EA1719F40E948726AC91E1E0F0E054
:10394C00E0932D06F0932E060E941426A73481F4E2
:10395C000E941C26A03561F40E942426A23541F455
:10396C000E942C26AD3421F40E943426A33409F095
:10397C0073C10E9442260E946026293CE0E03E076B
:10398C000CF50E946626AC91AC32C9F40E946B26F1
:10399C0011F40E947426A989BA89129731F4FA019C
:1039AC00E20FF31F3196ED87FE87A989BA89199723
:1039BC0031F4FA01E20FF31F3196EB87FC872F5F8E
:1039CC003F4FDBCFEF85F88931960F010E944D26D2
:1039DC000E945226FF233AF03A972CF4AD85BE850F
:1039EC000A161B0609F47BC0EF85F88936960E94EF
:1039FC004D260E945226E887A885A03010F0AA30E8
:103A0C0008F003C0E885E09353060E9487260E94C5
:103A1C005226E887A885A03010F0AA3008F003C021
:103A2C00E885E09354060E9483260E945226E8877C
:103A3C00A885A03010F0AA3008F003C0E885E09308
:103A4C0055060E947F260E945226E887A885A03042
:103A5C0010F0AA3008F003C0E885E09356060E94E7
:103A6C007B260E945226E887A885A03010F0AA3049
:103A7C0008F003C0E885E0935706EF85F889319686
:103A8C000E944D260E945226E887A885A03010F08F
:103A9C00AA3008F003C0E885E093580660915306FD
:103AAC007727E09154060E948A26E0934F06F09304
:103ABC005006609155067727E09156060E948A269B
:103ACC00E0934D06F0934E06609157067727E091F0
:103ADC0058060E948A26E0934B06F0934C06ED851F
:103AEC00FE8531960E944D26EC91F0E0E09307069E
:103AFC00F0930806EB85FC8531960E944D260E94BA
:103B0C005226FF2312F03A970CF0A6C0EB85FC85E9
:103B1C0031960E944D260E945226E0935A06EB8560
:103B2C00FC8532960E944D260E945226E09359063F
:103B3C00EB85FC8533960E944D260E945226E0931D
:103B4C005C06EB85FC8534960E944D260E9452261D
:103B5C00E0935B06EB85FC850E943C260E94522676
:103B6C00E0935E06EB85FC8536960E944D260E94FE
:103B7C005226E0935D06609159067727E0915A062C
:103B8C000E948A26E0934106F093420660915B0600
:103B9C007727E0915C060E948A26E0934306F09317
:103BAC00440660915D067727E0915E060E948A26A6
:103BBC00E0934906F0934A06E0914906F0914A06D3
:103BCC000E947E27E053F84F6F4F7F4FE0934506DE
:103BDC00F09346066093470670934806E1E4F6E0DE
:103BEC00A2E10E9408280E94E215309749F0E1E416
:103BFC00F6E0A2E10E9408280E94C415309709F44F
:103C0C002BC00E94902644D8309741F0E1E4F6E0B6
:103C1C00AFE2B6E082E10E9417281EC0E4ECF2E2AB
:103C2C000E949526EAE8F2E2FA93EA93E0914B06B9
:103C3C00F0914C060E945B26E0914D06F0914E06E9
:103C4C000E945B26E0914F06F09150060E945B2685
:103C5C008CE00E946D242E960F5F1F4F6FCCAA2410
:103C6C008824F19A00E010E0083CE0E01E0744F4E0
:103C7C00F8010E944D26E0E0EC930F5F1F4FF4CF4C
:103C8C000E94302865960895EA93FA93EFB7EA9369
:103C9C001A930A931091C0000091C600E091C000E5
:103CAC00E07811F4F19801C0F19AE12FEC7181F4F4
:103CBC00E82D8394F0E0E458FB4F0083E8ECE81522
:103CCC0009F48824A394E8ECEA1511F4AA24F09AD8
:103CDC0009911991E991EFBFF991E99118950A921F
:103CEC001A92FA926A937A938A939A93AA93BA93B2
:103CFC00EA93FA93EFB7EA93E6E0E6BDABE2B6E0FF
:103D0C000E94C724A0912B06B0912C069B9711F012
:103D1C000C94EF1EE0E0E0932B06E0932C06ADE351
:103D2C00B6E00E94C7243197ADEFB5E00E94C724DE
:103D3C000E949C261A9721F4E5EEF2E20E94952649
:103D4C000E949C261F9721F4E3EFF2E20E94952635
:103D5C000E949C26549721F4ECEFF2E20E949526E7
:103D6C000E949C26159721F4EAE0F3E20E94952626
:103D7C000E949C26DC976CF10E94A126ABE3B6E076
:103D8C000E94C724A0913B06B0913C06DC970CF135
:103D9C000E94A826A9E3B6E00E94C724A091390688
:103DAC00B0913A06589751F4A0913B06B0913C065D
:103DBC00109721F40E949C26109709F00AC0E0E0AD
:103DCC00F0E0E0933906F0933A060E94A8260E9490
:103DDC00A126E991EFBFF991E991B991A991999136
:103DEC00899179916991F990199009901895EA93B4
:103DFC00EFB7EA93E0912A06EF5FE0932A06E99188
:103E0C00EFBFE99118950CE714E02FE236E040E0A3
:103E1C0050E0E0E8E0936100E0E0E0936100EFEF58
:103E2C00E7B9E2B9E0EFE1B9E0E0E5B9EFEFE4B909
:103E3C00E0E0EBB9E0EFEAB9E0E0E093C000E8E9DC
:103E4C00E093C100E6E0E093C200E0E0E093C5003F
:103E5C00E5E0E093C400E0E0E4BDE5E0E5BDE0E0D2
:103E6C00E6BDE7BDE8BDE1E0E0936E00E0E0E09385
:103E7C008000E5E0E0938100E0E0E0938500E093D2
:103E8C008400E0938700E0938600E0938900E09340
:103E9C008800E0938B00E0938A00E1E0E0936F00F0
:103EAC00E1E0F0E0E0933906F0933A06E2E0F0E06E
:103EBC00E0933B06F0933C06E3E0F0E0E0933D0634
:103ECC00F0933E063A932A9312DB0E940B13EAE01E
:103EDC00F0E00E94ED250E946C130E94AF26E0EFEB
:103EEC00FDE00E94B1250E94AB240E94B3260E94E3
:103EFC00B8260E94BE260E946C13E0EFF1E10E94EE
:103F0C00B1250E94AB24EDE2F0E00E94C126E0EF67
:103F1C00F5E0FA93EA93E7E3F0E00E94C426EFE8B9
:103F2C00F3E0FA93EA93EBE3F0E00E94D226E8E99F
:103F3C00F3E0FA93EA93E8E2F0E00E94D9260E94BB
:103F4C00DE260E94BE260E946C13E0E0E09353062E
:103F5C00E0935406E0935506E0935606E09357061B
:103F6C00E0935806E0935906E0935A06E0935B06FB
:103F7C00E0935C06E0935D06E0935E0640E050E063
:103F8C00403AE0E05E072CF40E94E1264F5F5F4F61
:103F9C00F7CF7894E0EFF5E10E94B1250E94E82676
:103FAC00E9E1F0E00E94C126E5EEF2E20E949526DE
:103FBC0086E695E00197F1F71A930A93B1DACC24CF
:103FCC00BB24EE24E0E0E0930406E1E0F0E0E093B3
:103FDC002D06F0932E06F19904C01A930A93A0DAD9
:103FEC00F19AE0910406E03011F4E0E203C0E091B4
:103FFC000406E05C9E2EA091FD05B091FE05A43B4D
:10400C00E0E0BE074CF0E4EBF0E0E093FD05F0934C
:10401C00FE05E0E0E0930006A0910006A13041F41B
:10402C00E0E0E0930106EA930E944F130E946717A9
:10403C000E94AF170E944518ABD836D9E4D9A0918D
:10404C002D06B0912E06119711F00C949C22A09184
:10405C006706A63011F00C947A20E0E0E0935F063E
:10406C00E7E0E09367060E94F8163097E9F0E0E38A
:10407C00F3E20E9495260E94ED26ECEDF5E00E94FD
:10408C00ED25E1E0EA930E944F130E94F1260E9475
:10409C00FA26E1E0E093FC05E09304060E94431746
:1040AC00E8E0E093290620C00E94ED26E2EAF3E066
:1040BC00FA93EA930E94CA25E4EFF1E00E94ED2501
:1040CC00E3E0EA930E944F130E94ED260E94FA2629
:1040DC00E0E0E093FC05E2E00E94DF25E1E0E09304
:1040EC005F06E0E0E0936706A0910506B091060636
:1040FC00119721F4A0910006A13009F002C0E5E46B
:10410C000CC0A0910506B0910606109721F4A09161
:10411C000006A13009F009C0E0E8EA93E5E1F0E01F
:10412C000E94B125E1E00E94FE26A0910706B09105
:10413C000806A134E0E0BE0721F4A0910006A130EE
:10414C0009F003C0E0EFF9E006C0A0910006A13031
:10415C0081F4E0EFF5E1FA93EA93EFE5F0E00E94E9
:10416C00B1250E94B326E1E0F0E0FA93EA930E94B5
:10417C009715A0910006A03021F4A0910106A03063
:10418C0009F015C0E0E0EA930E944F13E1E0EA93D6
:10419C000E944F13E0EBF3E0FA93EA93E6E1F0E0D0
:1041AC000E94B1250E94BE25E1E0E0930106E0915A
:1041BC002906E03011F00C947021A091FC05A1307F
:1041CC0069F50E9403270E940C27EBE0F6E00E94A1
:1041DC00D9260E94C426E3E1F6E0FA93EA93EFE6CF
:1041EC00F3E2FA93EA930E948F250E9488250E949D
:1041FC007D250E940C27E3E1F6E00E940126E5E014
:10420C00F0E00E94DE26E0EFF9E00E94B1250E946A
:10421C00E826E3E2F0E00E94C1262CC0A091FC0548
:10422C00A03021F4A091FF05A03009F023C0E1E0FB
:10423C00E093FF050E94F126E7E0EA930E944F13FA
:10424C00E0EFF5E10E94B1250E94E826E9E1F0E0FB
:10425C000E94C126EDEBF3E00E94B125E5E0F0E011
:10426C00FA93EA93E0E0EA93E1E0EA93EEEFEA9363
:10427C000E94DD14A0910406A03021F4A091FC054D
:10428C00A13009F00BC0E3EDF3E0FA93EA93E3E21B
:10429C00F0E00E94D9260E94DE261BC0A0910406E5
:1042AC00A03021F0A091FC05A13009F012C0ECED7A
:1042BC00F3E00E940126E7E0F0E00E94DE269A92ED
:1042CC00EFE4F0E00E94D926FA93EA93E0E00E9432
:1042DC00FE262BC1A0912906A13011F50E94F126D2
:1042EC000E94FA260E941127EFE1F6E0FA93EA9376
:1042FC00E0E3F0E00E941427FA93EA93E0E0EA93FB
:10430C00E2E0EA93E1E0EA930E94DD140E94AF261A
:10431C000E94BE260E94F1260E94FA26E0E003C10C
:10432C00A0912906A23099F40E94F1260E94FA2647
:10433C000E941127E7EEF3E00E94B1250E94192795
:10434C00E1E0E0935F060E94AF26E3E6ECC0A091AB
:10435C002906A330D1F40E94F1260E94FA260E946D
:10436C001127E9EFF3E0FA93EA93ECE1F0E00E9415
:10437C0014270E94DE260E94AF260E94BE260E94B1
:10438C00F1260E94FA26E0E0CEC0A0912906A430C6
:10439C00C1F40E94F1260E94FA260E941127E2E045
:1043AC00F4E00E941C270E9414270E94DE260E9423
:1043BC00AF260E9421270E94F1260E94FA26E0E0F7
:1043CC00B2C0A0912906A53021F50E94F1260E94C9
:1043DC00FA260E941127EEE0F4E00E941C27FA93C3
:1043EC00EA930E941927E9E1F4E00E941C27FA9352
:1043FC00EA930E9408260E94BE250E94AF260E94C6
:10440C0021270E94F1260E94FA26E0E00E94DF2577
:10441C008CC0A0912906A630C1F40E94F1260E94FE
:10442C00FA260E941127E5E2F4E00E941C27FA9379
:10443C00EA930E9419270E94AF260E9421270E940E
:10444C00F1260E94FA26E0E06EC0A0912906A73062
:10445C00F1F50E946C13EEE3F4E0FA93EA93EEE1CB
:10446C00F0E00E94B1250E94BE25E0E5F5E00E9437
:10447C00B125E1E0F0E00E94DE26E8EBFBE00E94D3
:10448C00ED25049B08C0039B06C0029B04C0019B46
:10449C0002C0009901C001C0F4CF049B08C0039B6B
:1044AC0006C0029B04C0019B02C0009901C0F5CF5D
:1044BC000E946C1340E050E0403AE0E05E072CF4C0
:1044CC000E94E1264F5F5F4FF7CFE0E02CC0A09138
:1044DC002906A83079F4E7E4F4E00E941C270E9436
:1044EC00D226E6E5F4E00E940126E7E0F0E00E9427
:1044FC00DE2618C0A0912906A930B9F40E94032722
:10450C000E940C27EBE0F6E00E94D9260E94C426FC
:10451C009A92EFE4F0E00E94D926FA93EA93E0E055
:10452C000E94FE26E9E0E093290612C0E0E6F4E0E2
:10453C000E9401260E941927E9E6F4E0FA93EA9317
:10454C00EFE0F0E0FA93EA930E9408260E94BE2561
:10455C00E0EFF9E1FA93EA93E9E6F0E0FA93EA93F3
:10456C000E94E8260E94B3260E94B82634CDFFCFC5
:10457C00E091C000E072E1F3E881E093C60021967F
:10458C000895EA81EA93F4DFA881B9810E94C724D7
:10459C00239608951A930A93AA81BB8112960E94BE
:1045AC00FB27309729F1AA81BB8114960E94FB2727
:1045BC008F01309761F00230E0E01E07C0F0F80187
:1045CC0031978F01AA81BB811496ED93FC93AA813C
:1045DC00BB8112960E94C7243197AC81A083AA811B
:1045EC00BB810E94FB27FF2312F00E94C72406C048
:1045FC00AA81BB81EFEFFFEFED93FC93198108814A
:10460C002596089526970E94292810E0AC85BD8533
:10461C00E0E0F0E0ED93FC93EA89FB893196EA8BBC
:10462C00FB8B3197E4912E2FE03011F40C94352450
:10463C00E12FE03039F4253211F411E002C00E9470
:10464C0024270CC1E130A9F4253219F40E94242747
:10465C0004C112E040E000E02D3211F401E0FEC094
:10466C002B3211F44BE2FAC0203211F440E2F6C0C6
:10467C0002C0E23039F450E013E0203311F400684A
:10468C00EDC004C0E33011F00C943424203310F04E
:10469C002A3308F007C0AAE05A9F502DE22FE053AE
:1046AC005E0FDCC0E22FE33649F40E942D27E88927
:1046BC00F989A481AA930E943327CFC0E33741F430
:1046CC000E942D270E943B270E948E241E2F0AC079
:1046DC00E03761F40E942D270E943B270E9498240A
:1046EC001E2F086002600F7730E035C0E43611F001
:1046FC00E93611F4046002C0E53731F4E0E4F1E28C
:10470C00EE83FF8315E00DC0E83511F4086004C09A
:10471C00E83711F00C943324EAE4F1E2EE83FF83E2
:10472C0014E002FF14C00E942D270E944327AB8582
:10473C00AA233AF4EA85FB850E946B27EA87FB875C
:10474C004DE2403011F01F5F01C00B7F04C00E948E
:10475C002D270E94432700FD11C0151778F407FF81
:10476C0008C002FF04C00B7F242F115001C020E3AE
:10477C0001C020E20E9424275150EFCF312F01FFBE
:10478C0017C03030A1F003FF06C0EE81FF812591E8
:10479C00EE83FF8305C0AE81BF812D91AE83BF83B5
:1047AC000E942427503009F051503150EACF4BC0B1
:1047BC0020E3EE81FF810E94FF27E887F987EE81D5
:1047CC00FF813296EE83FF83E885F985AA85BB8548
:1047DC00AE17BF0750F02F5FA885B985EA85FB851A
:1047EC00EA1BFB0BEA87FB87EFCF2A3328F003FF8A
:1047FC0002C0295F01C0295D04FD1AC0213320F4D9
:10480C00A885B985119709F409C0531710F000FF5A
:10481C0001C013C020E207FF0BC020E3006102FFC0
:10482C0007C00B7F4A930E943327503009F0515038
:10483C000E942427503009F051503150A885B98579
:10484C00129708F0B5CF00FF08C0503031F051502E
:10485C00E0E2EA930E943327F8CF10E0DDCEAC857E
:10486C00BD850E94FB270E94302864960895FF9214
:10487C00F82E26970E942B280E944B27309719F46C
:10488C00EFEFFFEF1FC0DE0116960E9467278D0128
:10489C000E944B27EE83FF83E0E0E887E987DE0187
:1048AC001A960E945227E0EDF2E2FA93EA93FE0187
:1048BC003A96FA93EA93A6DE9F01AE81BF81E0E0BF
:1048CC00EC93F9010E9432282A96FF900895FF92EA
:1048DC00F82E26971A930A93DE0114960E946727E6
:1048EC008D01E0E0EC83ED83EE83EF83DE0118961F
:1048FC000E945227E7ECF2E2FA93EA93FE01389613
:10490C00FA93EA937FDE198108812896FF90089527
:10491C00A991B991EE27FF276D91662311F031967D
:10492C00FBCF0895AA27BB27E991F99105900020A8
:10493C0011F01196FBCFFD010895FA93EA930C94B4
:10494C001313FA93EA930C942F13E0E0F0E0FA932C
:10495C00EA930895EC81F0E0FA93EA930C943A13FD
:10496C00E12FF0E00895AE81BF81EE27A10FBE1FAD
:10497C00EC910895FE01E95BFF4F0190F081E02D71
:10498C000895ED91FD913196FE93EE930895EE818D
:10499C00F0E00895E0917704F0917804E15CF04048
:1049AC00A6E0B0E00E948327E458F74F0895E15C3D
:1049BC00F040A6E0B0E00E948327E458F74F08953A
:1049CC00F0E0FA93EA930895F0E0EA0FFB1F0895E4
:1049DC00FA93EA93EE81FF810895FA93EA93EE81BC
:1049EC00EA930C94C513E985FA85FA93EA930E942D
:1049FC008E24A12FB0E0AE17BF070895A985BA8504
:104A0C00AE0FBF1F0895E885F985FA93EA930895D0
:104A1C00EA93E985EA930C945714EA81F0E0E7FDF8
:104A2C00FFEF3896DF01EB81F0E00E948B270895B1
:104A3C00EB81A8E0EA02F0010895EB81F0E0AD8192
:104A4C00BE81EA0FFB1FED83FE830895A985BA850D
:104A5C00EA0FFB1FA1810895EC81A8E0EA02F001A6
:104A6C00A885B985AE1BBF0BBA93AA93CCCFAE1B4E
:104A7C00BF0BAF83B8870895AC81BD818E819F81B8
:104A8C000895E4E0F0E060E070E00E94D9270E9415
:104A9C0021280895F1DFE4E6F0E060E070E00E9488
:104AAC00D9270E9421280895E7DFE0E9F1E060E0D2
:104ABC0070E00E94D9270E9421280895A2E0EA0202
:104ACC00F001DF01EAE0F0E00E94CB270895E091CD
:104ADC006C06F0E0AE0FBF1F0895F0E0AE0FBF1FE5
:104AEC000895E4E6F0E0FA93EA930C945B270E94B5
:104AFC000328E0912F06F09130060E947E270E9439
:104B0C0003280895E0913106F09132060E947E2729
:104B1C000895E0913706F09138060E947E270E9496
:104B2C0003280895E0913906F0913A060E947E27F9
:104B3C000E940328E0913B06F0913C060E947E27E0
:104B4C000E940328E0913D06F0913E060E947E27CC
:104B5C000E9403280895FA93EA93F7CEE4E1F0E07B
:104B6C00FA93EA93E1E0F0E0FA93EA930C94971548
:104B7C00E0E0EA93E1E0EA93EFEFEA930C94DD14C2
:104B8C00E0916706F0E00895EEE1F0E0FA93EA9325
:104B9C00E4E0F0E0FA93EA93EBCFA083E0916706B0
:104BAC00EF5FE09367060895F0E0E130A0E0FA07CC
:104BBC000895E0932906E0E0E093FF050895FA9349
:104BCC00EA9380E00E946D242296E0E00895FA9327
:104BDC00EA930C945B27FA93EA93EEE1F0E0FA93F4
:104BEC00EA93E4E0F0E0FA93EA93E0E0EA93E1E0A0
:104BFC00EA93EFEF0895FA93EA93EEE1F0E0FA937B
:104C0C00EA930895E4E0F0E0FA93EA9308950E94A1
:104C1C00FB270E947E270E9403280895F8013096F6
:104C2C00AB89BC89AE0FBF1FAC910895F8013196CA
:104C3C00AB89BC89AE0FBF1FAC910895F8013296B9
:104C4C00AB89BC89AE0FBF1FAC910895F8013396A8
:104C5C00AB89BC89AE0FBF1FAC910895F801349697
:104C6C00AB89BC89AE0FBF1FAC9108953596AB894B
:104C7C00BC89AE0FBF1F0895E1E0E0930006E0E0B1
:104C8C00E093FD05E093FE05E0932A060895AB89B9
:104C9C00BC89AE0FBF1F0895EC91F0E0F09708951A
:104CAC00E0930906F0930A0608950E947E270E945D
:104CBC0003280895F8013496AF0120E030E0089500
:104CCC00F901E40FF51F3196E2CFE989FA893196A3
:104CDC00E98BFA8BA989BA8911970895FA01E20F29
:104CEC00F31F3196EF87F88B0895EF85F88932968C
:104CFC00CECFEF85F8893396CACFEF85F8893496F5
:104D0C00C6CFEF85F889B2CFAAE0EA02F001E60F30
:104D1C00F71F0895EE81FF81FA93EA930895FA93B1
:104D2C00EA9380E00E946D2422960895A0913D069E
:104D3C00B0913E060895E0E0F0E0E0933D06F0937C
:104D4C003E060895E0E0F0E0E0933B06F0933C066D
:104D5C0008950E943C170C943C17EFE7F0E0FA938F
:104D6C00EA930895E7E0F0E0FA93EA930C94971530
:104D7C00E0EDF7E02CCFFA93EA93F4CFFA93EA93B1
:104D8C00E2E0F0E0FA93EA93E0E0EA93E2E0EA93FF
:104D9C00EFEFEA930C94DD14FA93EA93E5E0F0E07C
:104DAC00FA93EA93E5CEFA93EA93E7E0F0E00895FC
:104DBC00FA93EA93DDCEA0E5B5E0A40FB51FE0E0D1
:104DCC00EC930895E6E0F0E0FA93EA930895E4E0BA
:104DDC00EA930C944F13E2E0EA930E944F13E3E042
:104DEC00EA930E944F13F3CFE5E0EA930C944F1330
:104DFC00EA93E1E0EA930C945714EBE0F6E0FA93B3
:104E0C00EA93E0E6F3E2FA93EA938CCE8CE00E940C
:104E1C003D2460960895E1E0F0E0D9CEFA93EA9350
:104E2C00E3E0F0E00895E2E0F0E0C2CFFA93EA9319
:104E3C00E4E1F0E00895E8EEF3E0C9CE2A93ED85C5
:104E4C00FE85FA93EA93E989FA8909950895E88928
:104E5C00F9893497E88BF98B0895ED85FE85FA93E3
:104E6C00EA93E989FA8909950895A889B98914966C
:104E7C000E94FB27EE83FF834DCFA889B989149636
:104E8C000E94FB27EA87FB870895DE011C960E948F
:104E9C0067270E94FB2708950E9467270E94FB2723
:104EAC00FA93EA931A930A930895E991F99130963B
:104EBC0039F08DEC9AE00197F1F7A8953197C9F785
:104ECC0008950024AF0DB01D0895F195E195F040C3
:104EDC000895F09560957095E195FF4F6F4F7F4F5A
:104EEC000895EE0FFF1FEE0FFF1FEE0FFF1F08952B
:104EFC006F2F660F660B762F0895FA9FF02DEB9FA0
:104F0C00F00DEA9FE02DF10D089561D0F6DF0EF45F
:104F1C00DCDF08950024112490E1AA0FBB1F001CB4
:104F2C00111C0E1A1F0A18F40E0E1F1E01C0A160D0
:104F3C009A9599F7FD01D00108953F934F935F9394
:104F4C00002411244427552730E2AA0FBB1F881FC9
:104F5C00991F001C111C441F551F0E1A1F0A460BCB
:104F6C00570B28F40E0E1F1E461F571F01C0A160C1
:104F7C003A9559F7FD01BC01D001CA015F914F91DF
:104F8C003F910895C7DFFD010895E894B7FF04C071
:104F9C00A095B09511966894F7FD97DFBBDFFD01E6
:104FAC000EF493DF0895E89497FF09C0A095B0958F
:104FBC0080959095AF5FBF4F8F4F9F4F689477FD53
:104FCC0088DFBBDFFD01BC010EF483DF0895E8949C
:104FDC00F7FF02C07ADF6894B7FF06C0A095B095C2
:104FEC00119600F8039400FA0895ED91FC91119735
:104FFC0008950590F491E02D08957A936A93FA93AD
:10500C00EA930895BB27EA0FFB1F02900A921197AF
:10501C00E1F708951B2EBF2FF12D1A2EAE2FE12D87
:10502C0008959927EF93FF9361916D930197E1F7A1
:10503C00FF91EF91089530976040704008950024DF
:10504C000A160B0608955A934A933A932A931A9385
:10505C000A9308955D814C813B812A8119810881D5
:10506C000895AC0FBD1F05900D928A95E1F7089538
:00000001FF
