:040000000C947F17C6
:100004000C9400000C9400000C9400000C9400006C
:100014000C9400000C9400000C9400000C9400005C
:100024000C9400000C9400000C9400000C9400004C
:100034000C9400000C9400000C9400000C9400003C
:100044000C9400000C94A51A0C9400000C947A1AD9
:100054000C9400000C9400000C9400000C9400001C
:100064000C9400000C9400000C9400000C9400000C
:100074000C9400000C94000000000000000000003C
:10008400000000000000000000000000000000006C
:10009400000000000000000000000000000000005C
:1000A400000000000000000000000000000000004C
:1000B400000000000000000000000000000000003C
:1000C400000000000000000000000000000000002C
:1000D400000000000000000000000000000000001C
:1000E400000000000000000000000000000000000C
:1000F40000000000000000000000000000000000FC
:1001040000000000000000000000000000000000EB
:1001140000000000000000000000000000000000DB
:1001240000000000000000000000000000000000CB
:1001340000000000000000000000000000000000BB
:1001440000000000000000000000000000000000AB
:10015400000000000000000000000000000000009B
:10016400000000000000000000000000000000008B
:10017400000000000000000000000000000000007B
:1001840000004F000000000000070007000000000E
:100194000024FF24FF24000000444AFF4A320000E8
:1001A40040231308C4C20000003649552240800091
:1001B4000000050300000000003C42810000000034
:1001C4000081423C000000000014083E08140000B6
:1001D4000010107C1010000000002818000000001F
:1001E400000808080808080000606000000000001B
:1001F4004020100804020000007EFF8181FF7E0081
:10020400008082FEFF80800000E2F191919F8E00C9
:100214000062C3C9C9FF760000181412FFFF100062
:10022400006F8F8989F97100007EFF8989F9720056
:10023400000101F1FD0703000076FF8989FF7600C4
:1002440000468F8989FF7E0000006666000000007A
:10025400000056360000000000081422410000008F
:100264000024242424240000000041221408000057
:10027400000201B109060000006291F1817E0000D4
:1002840000FE111111FE000000FF8989897600002B
:10029400007E81818142000000FF8181423C000098
:1002A40000FF89898981000000FF09090901000014
:1002B400007E81919172000000FF101010FF000079
:1002C400000081FF81000000004080817F01000068
:1002D40000FF18244281000000FF8080808000001D
:1002E40000FF020C02FF000000FF040810FF0000E2
:1002F400007E8181817E000000FF1111110E00003B
:100304007E81A141BE00000000FF1131518E00002A
:100314000086898989710000000101FF0101000044
:10032400007F8080807F0000003F4080403F0000CD
:10033400003FC060C03F000000E3140814E3000065
:10034400000708F00807000000C1A1918987000098
:1003540000FF8181000000000015167C16150000C6
:100364000041417F0000000000040201020400007B
:100374000040404040400000000102040000000032
:10038400006094949478000000FF888888700000CE
:10039400007884848400000000788484887F0000CE
:1003A40000789494945800000010FE11010200009B
:1003B400000C9292927E000000FF100808F00000EA
:1003C400000084FD80000000006080807D0000004B
:1003D40000FF304884000000000081FF800000001E
:1003E40000FC043804F8000000FC080404F80000D1
:1003F400007884848478000000FC1414140800003D
:100404000008141418FC000000FC08040408000090
:10041400008894949460000000047F84804000006D
:10042400007C808040FC0000003C4080403C000098
:10043400003EC060C03E0000004224182442000078
:1004440000068888887E000000C4A4948C84000080
:100454000008768100000000000000FF000000009A
:1004640000817608000000000008082A1C0800002B
:1004740000081C2A08080000007C8281827C00009D
:100484000000000000000000000000000000000068
:100494000000000000000000000000000000000058
:1004A4000000000000000000000000000000000048
:1004B4000000000000000000000000000000000038
:100874000000000000000000C1C1C1C10000C2C2EC
:10088400FEFE0100C3C31F1F0100C4C4FCFC010021
:10089400C5C5C5C50101C6BDBFBE0101C7C7C0C02E
:1008A4000100C88284830101C9C9FDFD0100CA8514
:1008B40087860101CB888A890101CC8BCC8B01010D
:1008C400CD8CCD8C0101CE11CE110101CFCF1313EC
:1008D4000100D0D08F8F0100D1D11B1B0100D2D2D7
:1008E40091910100D39294930101D49597960101BB
:1008F400D5179A990101D69B9D9C0101D7D7D7D7CB
:100904000000D8D89E9E0101D9D99F9F0101DAA089
:10091400A2A10101DBA3A5A40101DCDCDCDC000055
:10092400DDA6A8A70101DEA9ABAA0101DFACAEAD2B
:100934000101E0E0E0E00000E1AFB1B00101E2E27A
:10094400E2E20000E3B2B4B30101E4B5B7B60101D9
:10095400E5B8BAB90101E6E6BCBC0100E7E7E7E7A0
:100964000000E8E8E8E80000E9E9E9E90000EAEA6B
:10097400EAEA0000EBEBEBEB0000ECBDBFBE0101CB
:10098400EDBDBFBE0101EEEEEEEE0000EFEFEFEFC6
:100994000000F0F0F0F00000F1F1F1F10000F2F2EB
:1009A400F2F20000F3F3F3F30000F5F5F5F50000BF
:1009B400F6F6F6F60000F7F7F7F70000F8F8F8F89F
:1009C4000000FBF9FBFA0101BBBBF4F40100811C3C
:1009D4001E1D010190181A19010198141615010120
:1009E4008E8E121201008D108D10010100C0F030A6
:1009F400381818181898B0B03030306060606060F3
:100A040060C0C0C0C0C0C0C08080808080000000C2
:100A140000000000000000000000000000000000D2
:100A240000000000000000000000000000000000C2
:100A340000000000000000000000000000000000B2
:100A440000000000000000000000000000000000A2
:100A54000000000000000000000000000000000092
:100A640000000000000000000000000000FFFF0084
:100A7400000C18F0E70FFD0F070000000000000055
:100A8400000000000000000001010181838383C392
:100A9400E767E6C6060E0C0C0C0C0C1818187870D8
:100AA400E0C00000000000E0E0000000000080C0A2
:100AB400E06000E0E0606060606060E0C000000052
:100AC40080C06060C080000000E0E0606060606042
:100AD40060C08000000080C06060C0800000000032
:100AE40080C06060606060C08000000000FFFF00A4
:100AF400000000FFFF00FF000000000000000000F5
:100B040000000080C06030188CC6633118080809E2
:100B14000B0B0B090808080808081C3E363E1C008D
:100B2400FFFF0000000000FFFF70F88C8E07030138
:100B3400000000FFFFE0E0E06060607F3F00FEFF38
:100B4400616060606061FFFE00FFFF000000000064
:100B540000FFFF00FEFF616060606061FFFE00FF58
:100B6400FF000000000000000100000000FFFF0083
:100B7400000000FFFF003F3030303030303030189C
:100B84000CC6E331180C060301000000000000004D
:100B94000000000000000000000000000000000051
:100BA400FFFF00000000003F3F00000103070E1C90
:100BB4003830003F3F00000103070E3C38003F3F40
:100BC4000000000000003F3F003F3F303030303035
:100BD400301F0F003F3F0000000000003F3F000FA8
:100BE4001F303030303030381800000000FFFF0074
:100BF400000000FFFF00FF030303030303030306D6
:100C04000C193366CC983060C080000000000000EE
:100C140000000000000000000000000000000000D0
:100C2400FFFF0000000000000000000000000000C2
:100C340000000000000000000000000000000000B0
:100C440000000000000000000000000000000000A0
:100C54000000000000000000000000000000000090
:100C640000000000000000000000000000FFFF0082
:100C7400000000FFFF00FF00000000000000000073
:100C840000000000000103060C193366444444E4E8
:100C9400F4B4F4E40404040404040E1F1B1F0E0043
:100CA400FFFF000000FC0000000000F8040404F84A
:100CB400000C040404FC00F0888488F00080808028
:100CC40000FC8484040400F80404040800FC00000C
:100CD40000FC00F0888488F000FC040404F800F8A8
:100CE400040404F800FC44C44438000000FFFF007E
:100CF400000603011C3E373E1C000000000000807B
:100D0400808080C0C0C0C0C0E060606030303030DF
:100D140031391918181C0C0C0C0C0E0606060703A6
:100D240001000000000F0808080800070808080769
:100D3400000608080807000F0000000F000000006C
:100D4400000F080808080007080808040007080836
:100D54000807000F0000000F000F0808080700072D
:100D640008080807000F0000010E00000001070634
:100D74000E0C0C0C0C0C06060606030303030301FD
:100D8400010101010000000000000000000000005B
:100D9400000000000000000000000000000000004F
:100DA400000000000000000000000000000000003F
:100DB400000000000000000000000000000000002F
:100DC400000000000000000000000000000000001F
:100DD400000000000000000000000000000000000F
:100DE40000000000000000000000000000000000FF
:100DF40000000000000000000000000000000000EF
:100E040000000000000000000000000000000000DE
:100E140000000000000000000000000000000000CE
:100E240000000000000000000000000000000000BE
:100E340000000000000000000000000000000000AE
:100E4400000000000000000000000000000000009E
:100E5400000000000000000000000000000000008E
:100E6400000000000000000000000000000000007E
:100E740000C0E0F0F0F8F8F8F8F8FCFCFCFCFCFC2E
:100E8400FCFCFCFCFCFCFCFCFCFCFCFCFCFCF8F8A6
:100E9400F8F8F8F0E0E0C0000000000000000000F6
:100EA400000000000000000000000000000000003E
:100EB400000000000000000000000000000000002E
:100EC400000000000000000000000000000000001E
:100ED400000000000000000000000000000000000E
:100EE40000000000000000000000000000000000FE
:100EF400FEFFFF03010303030303030303030303CD
:100F0400030303FFFF0303010303030303030303B7
:100F1400030303030307FFFE0000000000000000BA
:100F240000000000000000000000000000000000BD
:100F340000000000000000000000000000000000AD
:100F4400000000000000000000000000000000009D
:100F5400000000000000000000000000000000008D
:100F6400000000000000000000000000000000007D
:100F7400FFFFFFC0C0C0C0C0C0C0C0C0C0C0C0C0B0
:100F8400C0C0E0FFFFE0C0C0C0E0D0C8C4C4C4C457
:100F9400C8D0E0C0E0F0FFFF000000000000000047
:100FA400000000000000000000000000000000003D
:100FB400000000000000000000000000000000002D
:100FC400000000000000000000000000000000001D
:100FD400000000000000000000000000000000000D
:100FE40000000000000000000000000000000000FD
:100FF400FFFFFFFFFFFFFFFFFFFFFFFFFFFFFFFFFD
:10100400FFFFFFFFFFFFFFFFFFFFFFFFFFFFFFFFEC
:10101400FFFFFFFFFFFFFFFF0000000000000000D4
:1010240000000000000000000000000000000000BC
:1010340000000000000000000000000000000000AC
:10104400000000000000000000000000000000009C
:10105400000000000000000000000000000000008C
:10106400000000000000000000000000000000007C
:101074003FFFFFE1E1E1E1FFFFFFF9D9D9D9D9D978
:10108400D9D9D9D9D9D9D9D9D9D9D9D9C9FBFFFF6E
:10109400FFE1E1C1E1F7FF3F0000000000000000B4
:1010A400000000000000000000000000000000003C
:1010B400000000000000000000000000000000002C
:1010C400000000000000000000000000000000001C
:1010D400000000000000000000000000000000000C
:1010E40000000000000000000000000000000000FC
:1010F40000001F3F3F3F3F3F3F0000000000000053
:1011040000000000000000000000000000001F3F7D
:101114003F3F3F3F3F1F0000000000000000000071
:1011240000000000000000000000000000000000BB
:1011340000000000000000000000000000000000AB
:10114400000000000000000000000000000000009B
:10115400000000000000000000000000000000008B
:1014F40000F884C202020202FE020202C2FE0202DA
:101504000202C4F800000000000000000000000017
:1015140000000000000000000000000000000000C7
:1015240000000000000000000000000000000000B7
:1015340000000000000000000000000000000000A7
:101544000000000000000000000000000000000097
:101554000000000000000000000000000000000087
:101564000000000000000000000000000000001E59
:101574001F7FFFFD7C1C1C1C1F1C1C1C1F1F7CFCD4
:10158400FC7C1F0F000000000000000000000000B1
:101594000000000000000000000000000000000047
:1015A4000000000000000000000000000000000037
:1015B4000000000000000000000000000000000027
:1015C4000000000000000000000000000000000017
:1019540000000000000000000038FC020202020245
:10196400060606BAFABA0202FC38000000000000BB
:101974000000000000000000000000000000000063
:101984000000000000000000000000000000000053
:101994000000000000000000000000000000000043
:1019A4000000000000000000000000000000000033
:1019B4000000000000000000000000000000000023
:1019C4000000000000000000000000000000000013
:1019D400000000000000000000003F3EFEF2F23E66
:1019E4003E3E3F3FF3F3FF3E3F0000000000000097
:1019F40000000000000000000000000000000000E3
:101A040000000000000000000000000000000000D2
:101A140000000000000000000000000000000000C2
:101A240000000000000000000000000000000000B2
:101CF40000F884C282DAFAE2FE020202C2FE0202A2
:101D04000202C4F80000000000000000000000000F
:101D140000000000000000000000000000000000BF
:101D240000000000000000000000000000000000AF
:101D3400000000000000000000000000000000009F
:101D4400000000000000000000000000000000008F
:101D5400000000000000000000000000000000007F
:101D64000000000000000000000000000000001E51
:101D74001F7FFFFD7C1F1F1F1F1C1C1C1F1F7CFCC3
:101D8400FC7C1F0F000000000000000000000000A9
:101D9400000000000000000000000000000000003F
:101DA400000000000000000000000000000000002F
:101DB400000000000000000000000000000000001F
:101DC400000000000000000000000000000000000F
:101DD40000000000000000000000000000000000FF
:101DE40000000000000000000000000000000000EF
:101DF40000000000000000000000000000000000DF
:101E040000000000000000000000000000000000CE
:101E140000000000000000000000000000000000BE
:101E240000000000000000000000000000000000AE
:101E3400000000000000000000000000000000009E
:101E4400000000000000000000000000E01090907E
:101E54008000F0909090600060909010000000006E
:101E64002070F8702000807800FC00000000000062
:101E7400000000000000000000000000000000005E
:101E8400000000000000000000000000000000004E
:101E9400000000000000000000000000000000003E
:101EA400000000000000000000000000000000002E
:101EB400000000000000000000000000000000001E
:101EC40000000000000000000000000003040404FF
:101ED40003000700000000000404040300000010D5
:101EE400141414141209040A351808000000000020
:101EF40000000000000000000000000000000000DE
:101F040000000000000000000000000000000000CD
:101F140000000000000000000000000000000000BD
:101F240000000000000000000000000000000000AD
:10224400000000000000000000000000E01090907A
:102254008000F0909090600060909010000000006A
:10226400000000000000807800FC00000000000076
:10227400000000000000000000000000000000005A
:10228400000000000000000000000000000000004A
:10229400000000000000000000000000000000003A
:1022A400000000000000000000000000000000002A
:1022B400000000000000000000000000000000001A
:1022C40000000000000000000000000003040404FB
:1022D40003000700000000000404040300000010D1
:1022E400141414141209040A35180800000000001C
:1022F40000000000000000000000000000000000DA
:1023040000000000000000000000000000000000C9
:1023140000000000000000000000000000000000B9
:1023240000000000000000000000000000000000A9
:1025F400000000808000E0E000F8F800FEFE00002B
:1026040000000000000000000000000000000000C6
:1026140000000000000000000000000000000000B6
:1026240000000000000000000000000000000000A6
:102634000000000000000000000000000000000096
:102644000000000000000000000000000000000086
:102654000000000000000000000000000000000076
:10266400000000000000000000000000000606005A
:102674000707000707000707000707000707000010
:102684000000000000000000000000000000000046
:102694000000000000000000000000000000000036
:1026A4000000000000000000000000000000000026
:1026B4000000000000000000000000000000000016
:1029F400000000808000E0E0000000000000000013
:102A040000000000000000000000000000000000C2
:102A140000000000000000000000000000000000B2
:102A240000000000000000000000000000000000A2
:102A34000000000000000000000000000000000092
:102A44000000000000000000000000000000000082
:102A54000000000000000000000000000000000072
:102A64000000000000000000000000000006060056
:102A74000707000707000707000000000000000028
:102A84000000000000000000000000000000000042
:102A94000000000000000000000000000000000032
:102AA4000000000000000000000000000000000022
:102AB4000000000000000000000000000000000012
:102AC4000000000000000000000000000000000002
:102AD40000000000000000000000000000000000F2
:102AE40000000000000000000000000000000000E2
:102AF40000000000000000000000000000000000D2
:102B040000000000000000000000000000000000C1
:102B140000000000000000000000000000000000B1
:102B240000000000000000000000000000000000A1
:102B34000000000000000000000000000000000091
:102B44000000000000000000000000000000000081
:102B54000000000000000000000000000000000071
:102B64000000000000000000000000000000000061
:102B74000000000000000000000000000000000051
:102B84000000000000000000000000000000000041
:102B94000000000000000000000000000006060025
:102BA4000707000000000000000000000000000013
:102BB4000000000000000000000000000000000011
:102BC4000000000000000000000000000000000001
:102BD40000000000000000000000000000000000F1
:102BE40000000000000000000000000000000000E1
:102BF40000000000000000000000000000000000D1
:102C040000000000000000000000000000000000C0
:102C140000000000000000000000000000000000B0
:102C240000000000000000000000000000000000A0
:102C34000000000000000000000000000000000090
:102C44000000000000000000000000000000000080
:102C54000000000000000000000000000000000070
:102C64000000000000000000000000000000000060
:102C74000000000000000000000000000000000050
:102C84000000000000000000000000000000000040
:102C94000000000000000000000000000000000030
:102CA4000000000000000000000000000000000020
:102CB4000000000000000000000000000000000010
:102CC40000000000000000000000000000060600F4
:102CD40004040404040404040404040404040000B8
:102CE40000000000000000000000000000000000E0
:102CF40000000000000000000000000000000000D0
:102D040000000000000000000000000000000000BF
:102D140000000000000000000000000000000000AF
:102D2400000000000000000000000000000000009F
:102D34000000000000000000000000001027E8036D
:102D440064000A0001000010000110000100C1002D
:102D54005349545531363937200000200000000013
:102D64000000415424545444455649443F0A0D003C
:102D740041542B4353510A0D0041542454544E459D
:102D84005449503F0A0D0041542454544750535160
:102D940052593D31302C300A0D004154244D5347D3
:102DA400534E443D342C222424424C25732C256458
:102DB4002564256425643230256425642C25642526
:102DC4006425642564256425642C52322C25642CE6
:102DD40025643A58582323220D0A004154244D53A4
:102DE40047534E443D342C222424424C25732C2535
:102DF400642564256425643230256425642C2564A7
:102E0400256425642564256425642C53322C3132D1
:102E140033342C25643A58582323220D0A00525582
:102E240054413A0020202020202000502564002511
:102E3400630042555300256425643A256425643AA9
:102E4400256425640020204249454E56454E494498
:102E54004F200046494E204A4F524E4144410046BD
:102E6400494E205255544100494E4943494F20523E
:102E7400555441003230256425642D256425642D84
:102E8400256425640050616E74616C6C61004E6F42
:102E9400204175746F72697A6164610001002D4E7E
:102EA400414E000001005703522D04002404542D08
:102EB40004002904582D06000003222E07000603EF
:102EC400282E04000D03362E0E001103492E0C008B
:102ED4001F03572E09002B03632E0C0034036C2EA2
:102EE40009004003892E0E004903922E0A000500B2
:102EF4005C2D01006704A02E0000F894EE27EFBBC0
:102F0400F1E0F5BFE5BFF8E1A895A4B7A77FA4BF9A
:102F1400F0936000E09360008DE0A2E0BB27ED93A6
:102F24008A95E9F780E098E0A0E0B1E0ED9301979D
:102F3400E9F7E8EAFEE285919591009761F0A591A1
:102F4400B59105901590BF01F00105900D92019780
:102F5400E1F7FB01F0CFE0E0EEBBEFEFEDBFE8E01F
:102F6400EEBFC0E0D3E00C944C205F9A87E38A95CF
:102F7400F1F75F9887E38A95F1F70895169A179AFF
:102F84005E985D98EFE3E8B9F0DF08951A935E98D0
:102F94005D98A981BA81A034E0E0BE0720F4169AB6
:102FA4001798198107C0179A1698E981FA81E05495
:102FB400F0401E2FE12FE064EF771E2F18B9D5DF04
:102FC40018813BC01A935E985D98E981E86BEF7BAA
:102FD4001E2F18B9CADF188130C0EA81FB810E9414
:102FE400AC24E881F9810E94B024249608955E9A65
:102FF4005D98E881E8B98DED90E00197F1F7B5DFD0
:10300400219608951A930A930E94B4240E94B92425
:10301400E0E4F0E0FA93EA930E94B924169A00E0FF
:1030240010E00134E0E01E0734F4E0E0EA93DFDF6F
:103034000F5F1F4FF6CF19810881239608951A93C5
:103044000A9300E010E00830E0E01E072CF40A9335
:10305400D9DF0F5F1F4FF7CF0991199108951A9384
:10306400EB81FC810E94AC24E981FA810E94B024A6
:1030740010E0183080F4ED81FE810E943627DF01D4
:103084000E94BF24EA0FFB1FE458FF4FE491EA9328
:10309400AEDF1F5FEECF188142C10E94B62720E049
:1030A40010E0EC811E1700F500E00830D8F40E940F
:1030B400C224F0E0F595E795EC93ED81E1703E2FA5
:1030C400303021F00E94C224E068EC932F5FEC8141
:1030D400E21731F4ED81F0E0F595E795ED8320E01A
:1030E4000F5FE3CF1F5FDDCF0E94BD2728960895B1
:1030F400EF9721970E94B6270E94C9240E94AC240E
:10310400FE01EB5BFF4F0190F081E02D0E94B024A3
:1031140010E0183008F50E94BF24BF010E94362732
:10312400DE011496EA0FFB1FFA93EA93FE01E55BB6
:10313400FF4F0190F081E02D0E943627E60FF71F24
:10314400E458FF4FE491EA93FE01E95BFF4FE0810D
:10315400EA93A3DF1F5FDDCF00E0FE01EC5BFF4FCE
:10316400E0810E1710F00C94071910E0183010F0DD
:103174000C94F91830E0FE01EC5BFF4FE0813E1740
:10318400A0F5E32FF0E0DE01A95BBF4F0D90BC91E9
:10319400A02DEA0FFB1FBF01DE01AC5BBF4FAC915A
:1031A400BB270E94BF240E944A27DB01AE0FBF1F2A
:1031B400A034E0E0BE0749F4E0E4F0E0FA93EA93D7
:1031C4000E94C924FA93EA9308DF0E94BF240E9454
:1031D4003627DE011496AE0FBF1FEE27A00FBE1FC9
:1031E400EC91EA9304DF3F5FC6CF1F5FBFCF0E941D
:1031F400C924FA93EA93DE01A95BBF4F0E94D0244D
:10320400FA93EA93EADE0F5FA8CF0E94BD27EF96F8
:103214002C960895A981A13011F00C9489190E946B
:10322400D624E138A0E0FA0711F4EAEF17C0E03938
:10323400A0E0FA0711F4EBEF11C0E839A0E0FA07B7
:1032440011F4ECEF0BC0EE38A0E0FA0711F4EDEF47
:1032540005C0ED38A0E0FA0711F4EEEFEE83AE817D
:10326400A13CB0F0A0915703B0915803A13CE0E019
:10327400BE0774F00E94D9243596E491E03041F001
:103284000E94D6240E94E6243496E491E03009F4A6
:1032940017C00E94D924DF01E0915903F0E0319670
:1032A400EA0FFB1FE4910E94EF24E0915A030E946D
:1032B400EF24E0915B030E94EF24D1DEE2E001C041
:1032C400E0E0E0935903AE81A13C60F00E94D62473
:1032D4000E94E624DF01E0915903F0E0EA0FFB1FAE
:1032E400E49101C0EE81F0E00E94F3240E94F324F3
:1032F4000E94F8240E94D624E0935703F0935803C5
:10330400EC81E0935A03EA81E0935B0308C00E94D6
:10331400D6240E94F3240E94F3240E94F8242796C2
:1033240008951A930A9310E000E00E94FE2418F412
:10333400AC81A03009F029C00E94BF240E94092555
:10334400EC91EA930E940E250E940E25E0E00E9473
:1033540013250E941825AF81B885EA0FFB1FEF8360
:10336400F8870E942325A0E8B0E00E949027EA1B7A
:10337400FB0BAF81B885EA17FB072CF4E0E0EF8381
:10338400E8870E9428251F5FD0CF0E94FE2418F4EE
:10339400AC81A13009F075C00E94BF240E940925A8
:1033A400AC91A13E21F40E943125A73C09F002C052
:1033B40009EF29C00E94BF240E940925AC91A13EB7
:1033C40021F40E943125A33C09F002C007EE1BC082
:1033D4000E94BF240E940925AC91A13E21F40E94C1
:1033E4003125A23C09F002C008EE0DC00E94BF24A2
:1033F4000E940925AC91A13E21F40E943125A53CEF
:1034040009F001C009EE003079F00A930E943725D3
:10341400E1E00E9413251E5F0E942325AF81B88539
:103424000E94422500E01CC00E94BF240E9409257E
:10343400EC91EA930E943725E9850E9413250E94A6
:10344400BF240E940925AC91A03219F40E941825CA
:1034540002C00E942325AF81B8850E9442251F5FC8
:103464000E9423253196AF81B885AE17BF0744F477
:103474000E942325A0E8B0E00E9442250E9428254E
:1034840084CFE1ECF0E0E0935703F0935803198103
:1034940008812B9608950E94B62708851985EC812A
:1034A400FD81E017F10700F12A853B85EE81FF815C
:1034B400E217F307B0F03A932A931A930A938DDD37
:1034C400A0E8A09FF001A19FF00DE20FF31FAC85CF
:1034D400BD85EA0FFB1FE491EA9389DD2F5F3F4F1F
:1034E400E5CF0F5F1F4FDBCF0E94BD272E960895B7
:1034F400EA93FA93EFB7EA931A930A931091C000F0
:103504000091C600E091C000E07811F4F19801C088
:10351400F19AE12FEC7181F4E42D4394F0E0E45A44
:10352400FC4F0083E8ECE41509F444246394E8ECCC
:10353400E61511F46624F09A09911991E991EFBF07
:10354400F991E99118950A921A92FA926A937A93E8
:103554008A939A93AA93BA93EA93FA93EFB7EA9366
:10356400E6E0E6BDAFE3B4E00E94D024A0913F04BE
:10357400B09140049B9711F00C945F1B0E94472567
:103584000E944C25E0E0E0933F04E09340040E9455
:103594004725E13021F40E945125E13009F002C0B1
:1035A4000E9456250E944725E13021F40E945125AE
:1035B400E23009F004C0E4E7FDE20E945F250E94C6
:1035C4004725E13021F40E945125E33009F004C07D
:1035D400EDE7FDE20E945F250E944725E13021F4DA
:1035E4000E945125E43009F004C0EBE8FDE20E949A
:1035F4005F250E944725EA3010F40C945F1B0E945B
:1036040066250E9451250E944C250E945125E630D2
:1036140010F40C945F1B0E946C250E9472250E947A
:103624004C250E947225EA3010F40C945F1B0E9412
:1036340077250E947D250E944C250E947D25E63039
:10364400E0F10E9482250E9488250E944C250E9458
:103654008825EA3090F10E948D250E9493250E94CE
:103664004C250E949325E23021F40E948825E33002
:1036740009F013C00E947D25E53021F40E947225D3
:10368400E93009F00AC00E945125E53021F40E9476
:103694004725E93009F001C001C00FC0AAE8B0E035
:1036A400E0E00E94A3270E948D250E9482250E94AB
:1036B40077250E946C250E946625E991EFBFF99158
:1036C400E991B991A9919991899179916991F99027
:1036D4001990099018955C9A0E9498255C980E940C
:1036E400982508951A93E981F0E0E054F0401E2FE4
:1036F400113010F0153608F002C0E12F01C0E0E0EF
:103704001881229608958A92EDDFE0934F04EEE942
:10371400FDE20E949E250E94D825E09146040E9465
:10372400D8250E9472250E94D825E09144040E9465
:10373400D8250E9447250E94D825E0914F040E9475
:10374400D825EB2D0E94D8258CE30E947624EE9692
:103754000895EFEDFDE20E949E250E94D825E09198
:1037640046040E94D8250E9472250E94D825E09123
:1037740044040E94D8250E9447250E94D825E09140
:1037840050040E94D82588E30E947624EA9608957E
:10379400A0E00499A1E0A03019F4E0E0E71509F0F5
:1037A4005BC0E2E0E0933404E394E1E07E2E0E9407
:1037B400DE25EE2D0E94E625D1F4E1E0E0935004ED
:1037C400C8DFE1E0DE2EE0EFF9E10E94EB250E9484
:1037D400EE25E3E2F0E00E94F3255DDEE0E0F3E0B5
:1037E4000E94FA250E94FF250E94042634C0E2307C
:1037F400A0E0FA0781F5E0EFF1E10E94EB250E94D9
:10380400EE25E9E1F0E00E94F32545DEEFE0DE2E4F
:10381400E0E0E0932F04E0935004E5E0E093340407
:1038240098DFEFE0DE2EBB24E0E2E81509F06BDF61
:10383400E0E28E2EEA93EFE4F0E00E94F3250E948A
:10384400FF25E8DCE6E0F3E00E94FA250E94FF256C
:103854000E940426EE2407C0049B03C0E1E0E715A0
:1038640009F001C077240895A0E00399A1E0A030F5
:1038740049F4E0E0EA1531F4EB1521F4A091500489
:10388400A13009F010C0D39426DFE1E0AE2EECE0C5
:10389400ED1518F4EFE0ED1509F402C0E1E0DE2EB9
:1038A4000E94082607C0039B03C0E1E0EA1509F063
:1038B40001C0AA24ED2D0E94E62511F4E1E447C0DD
:1038C400E230A0E0FA0711F4E2E441C0E330A0E002
:1038D400FA0711F4E3E43BC0E430A0E0FA0711F482
:1038E400E4E435C0E530A0E0FA0711F4E5E42FC0C4
:1038F400E630A0E0FA0711F4E6E429C0E730A0E0DE
:10390400FA0711F4E7E423C0E830A0E0FA0711F461
:10391400E8E41DC0E930A0E0FA0711F4E9E417C0B7
:10392400EA30A0E0FA0711F4EAE411C0EB30A0E0B9
:10393400FA0711F4EBE40BC0EC30A0E0FA0711F441
:10394400ECE405C0EF30A0E0FA0711F4E0E25E2EEB
:103954000895A0E00299A1E0A03049F4E0E0E9155F
:1039640031F4EB1521F4A0915004A13009F00FC0FB
:10397400DA94B1DEE1E09E2EDD2019F4EFE0ED15DE
:1039840009F402C0ECE0DE2E0E94082607C0029B68
:1039940003C0E1E0E91509F001C099240895A0E00D
:1039A4000199A1E0A03039F4E0E0EC1521F4A091F4
:1039B4005004A13009F00EC0C394852CE1E0BE2E62
:1039C4000E94DE25E5E0E0932F04E4E0E093340474
:1039D4009ADE07C0019B03C0E1E0EC1509F001C0C9
:1039E400C394A0E00199A1E0A03031F4E1E0EB152B
:1039F40019F4E2E0EC1509F00DC0EFE0DE2EC394FB
:103A0400BB240E94DE25E3E0E09334047CDEE0E2A4
:103A14008E2E07C0019B03C0E3E0EC1509F001C042
:103A2400CC240895E0915504F0915604E130A0E0CF
:103A3400FA0719F4E0E2FBE214C0E230A0E0FA076E
:103A440019F4E0EFF9E20DC0E330A0E0FA0719F44D
:103A5400E0EFF5E206C0E430A0E0FA0761F4E0E547
:103A6400FCE2FA93EA930E94B4240E94B424E4E1B1
:103A7400F0E00E940E2608956597E0E0EB87EC875E
:103A8400ED87EE87EF87E88BE98BEA8B0E94B427FA
:103A940040E050E000E010E0083CE0E01E0714F0D5
:103AA4000C9436200E941626AB3291F40E941B26F9
:103AB400A33471F4F801E25AFC4FA081A33541F418
:103AC4000E942026A13521F40E942526AA3309F05C
:103AD40046C0F8010E942A26AAE0B0E00E944A27C4
:103AE400DF01F8010E943026EA0FFB1FEF87F88BF5
:103AF400AF85B8891B9724F0AF85B8891F970CF060
:103B040005C0E1E0F0E00E94362629C0AF85B889FF
:103B14001F9724F0AF85B88952970CF005C0E2E0F6
:103B2400F0E00E9436261BC0AF85B889529724F076
:103B3400AF85B8895F970CF005C0E3E0F0E00E9420
:103B440036260DC0AF85B889909724F0AF85B88923
:103B5400D2970CF004C0E4E0F0E00E9436260E9404
:103B64001626A23441F40E941B26A53521F40E9496
:103B74003B26A33509F088C0F801E459FC4F0E94A4
:103B84004026E0933004F801E359FC4F0E9440269C
:103B9400E0933104F801E259FC4F0E944026E0937F
:103BA4003204F801E159FC4F0E944026E0933304AB
:103BB400A0913304A13119F4EAE0E0933304A09115
:103BC4003004A13130F0E0913004F0E03797E09315
:103BD4003004A0913104A13130F0E0913104F0E0DF
:103BE4003797E0933104F801EE58FC4FA081A133DC
:103BF40031F4F801ED58FC4FA081A83309F044C01A
:103C0400E1E0E0933404A0913204EAE0EA02F00136
:103C1400DF01E0913304F0E0EA0FFB1FE093390485
:103C2400F0933A04A0913004E0E1EA02F001319704
:103C3400DF01E0913104F0E0AE0FBF1FEAE0F0E0F5
:103C44000E944A27E0933B04F0933C04A09139047A
:103C5400B0913A04EA0FFB1FE0933D04F0933E0455
:103C6400E5E3F4E0FA93EA93EFE2FEE2FA93EA93EF
:103C7400E0913D04F0913E040E943D270E948B2771
:103C840084E00E94462428960E941626AE3481F4CD
:103C94000E941B26A53461F40E943B26A43541F4FE
:103CA4000E942026A93421F40E942526A03509F07B
:103CB40049C00E94442640E050E0493CE0E05E07F1
:103CC4005CF40E94492629F40E94532611F40E94B0
:103CD4005C264F5F5F4FF1CFED89FE89E25AFC4FBE
:103CE400A081A23279F50E9464260E944026E9F45C
:103CF4000E9469260E944026C1F40E946E260E94FA
:103D0400402699F4ED89FE890E94302671F4ED89EC
:103D1400FE89EC59FC4F0E94402639F4ED89FE8956
:103D2400EB59FC4F0E94402609F006C0E0E0E09306
:103D34005104E093520406C0E1E0F0E0E093510442
:103D4400F09352040E941626A43481F40E941B2688
:103D5400A53461F40E943B26A63541F40E94202636
:103D6400A93421F40E942526A43409F041C00E94FC
:103D740044260E94732640E050E0493CE0E05E07A0
:103D84005CF40E94492629F40E94532611F40E94EF
:103D94005C264F5F5F4FF1CF0E948326A081A23241
:103DA40039F5ED89FE89E25AFC4FA081E09129049E
:103DB400EA17A9F40E946426A081E0912A04EA1774
:103DC40071F40E946926A081E0912B04EA1739F46A
:103DD4000E946E26A081E0912C04EA1709F003C02A
:103DE4000E94882605C0E0E0E0934104E093420489
:103DF4000E941626A73481F40E941B26A03561F484
:103E04000E943B26A23541F40E942026AD3421F4C1
:103E14000E942526A33409F024C10E94442640E0D0
:103E240050E0493CE0E05E0744F5FA01A98DBA8D03
:103E3400EA0FFB1FE35AFC4FA081AC32D9F40E9475
:103E4400532611F40E945C26AF89B88D129739F479
:103E5400E98DFA8DE40FF51F3196EB8BFC8BAF895E
:103E6400B88D199739F4E98DFA8DE40FF51F319661
:103E7400E98BFA8B4F5F5F4FD4CFE3E0EA93C2D86C
:103E8400E4E0EA93BFD8E5E0EA93BCD80E94832635
:103E94000E944026FF2352F03A9744F4ED89FE89AC
:103EA4003196AB89BC89EA17FB0709F481C0ED8917
:103EB400FE890E942A26EE83AE81A03010F0AA303B
:103EC40008F005C0EE81A0E8B0E00E94A3270E949C
:103ED4006E260E944026EE83AE81A03010F0AA30F8
:103EE40008F005C0EE81A2E8B0E00E94A3270E947A
:103EF40069260E944026EE83AE81A03010F0AA30DD
:103F040008F005C0EE81A4E8B0E00E94A3270E9457
:103F140064260E944026EE83AE81A03010F0AA30C1
:103F240008F005C0EE81A6E8B0E00E94A327ED8961
:103F3400FE89E25AFC4F0E944026EE83AE81A030F7
:103F440010F0AA3008F004C00E94D624EB87FC8746
:103F54000E9483260E944026EE83AE81A03010F09A
:103F6400AA3008F004C00E94D624ED87FE87ED85B0
:103F7400FE85AAE0B0E00E944A27AB85BC85EA0F23
:103F8400FB1FE987FA873597EF83F887A885AA236B
:103F94004AF47896EF83F8870E948F260E9494262D
:103FA4000E949B260E948F260E9494260E949B2694
:103FB400EB89FC89E35AFC4FE081F0E0E093530481
:103FC400F0935404E3E3FEE2FA93EA93E09153049A
:103FD400F09154040E943D270E948B2784E00E94A4
:103FE400762426960E94A226FF2312F03A970CF01C
:103FF40038C00E94A226AEE8B0E00E94A726E25A8A
:10400400FC4F0E944026ACE8B0E00E94A726E15A8B
:10401400FC4F0E944026A2E9B0E00E94A726E05A85
:10402400FC4F0E944026A0E9B0E00E94A726EF5969
:10403400FC4F0E944026A6E9B0E00E94A7260E94F9
:104044002A26A4E9B0E00E94A327AF81B88553973C
:1040540044F00E94AC26F0E03197ACE8B0E00E9456
:10406400A3270F5F1F4F18CD66244424F19A20E044
:1040740030E0293CE0E03E074CF4ACE5B3E0A20FAD
:10408400B31FE0E0EC932F5F3F4FF3CF0E94BB27B9
:104094006B960895E0E8E0936100E0E0E09361004E
:1040A400EFEFE7B9E2B9E0EFE1B9E0E0E5B9EFEF4E
:1040B400E4B9E0E0EBB9E0EFEAB9E0E0E093C00096
:1040C400E8E9E093C100E6E0E093C200E0E0E093B9
:1040D400C500E5E0E093C400E0E0E4BDE5E0E5BD53
:1040E400E0E0E6BDE7BDE8BDE1E0E0936E000E94DC
:1040F400C017EAE0F0E00E94B1260E94B726E0EF84
:10410400F9E00E94EB250E94B424EFE7F0E00E945E
:10411400F325C1D9E0EDF7E00E94B126E0EFFDE020
:104124000E94EB250E94B424EDE2F0E00E94F32506
:10413400B2D9E4E2F4E0FA93EA93E7E3F0E00E9410
:10414400BB260E94C026EDE0F3E0FA93EA93EBE38A
:10415400F0E00E94C7260E94FF250E940426E9E29F
:10416400F4E0FA93EA93E2E5F0E00E94C7260E94A5
:10417400FF250E940426E0EDF7E00E94B1260E948C
:104184009325EF3F79F4AAE8B0E0E0E00E94A3278A
:104194000E9482250E946C250E948D250E9477250D
:1041A4000E9466250E94CA26EF3F41F40E94AC2675
:1041B400EF3F21F40E94CF26EF3F09F019C0ACE88D
:1041C400B0E0E0E00E94A327AEE8B0E00E94A3279D
:1041D400A0E9B0E00E94A327A2E9B0E00E94A327CF
:1041E400A4E9B0E00E94A327A6E9B0E00E94A327B7
:1041F400A8E2B0E00E949727EF3F31F4A8E2B0E0D4
:10420400E0E00E94A32704C0A8E2B0E00E94972740
:10421400E0934F04AAE2B0E00E949727EF3F31F405
:10422400AAE2B0E0E0E00E94A32704C0AAE2B0E062
:104234000E949727E09350047894E0EFF1E10E9404
:10424400EB250E94EE25E9E1F0E00E94F32523D955
:104254000E94562586E695E00197F1F70DDC772458
:10426400AA2499240E948826F19902C005DCF19AB7
:104274005A92EFE4F0E00E94F3250E94FF250E9489
:104284000C1986DAF1DA65DB8ADBCCDBA091410418
:10429400B0914204119711F00C949F22A091510403
:1042A400B0915204119711F4E5E401C0E0E2EA93FD
:1042B400E3E1F0E00E94EB25E1E0EA93EA930E9457
:1042C4000C19E0913404E03011F00C94D721E7E5A7
:1042D400F4E0FA93EA93EAE3FEE2FA93EA930E94A3
:1042E40093250E94D8250E9488250E94D8250E94E3
:1042F4007D250E94D8250E9472250E94D8250E94FF
:1043040051250E94D8250E9447250E94D82588E17E
:10431400BBD26C960E944725E09343040E9451252A
:10432400E09344040E947225E09345040E947D2595
:10433400E09346040E948825E09347040E94932555
:10434400E09348040E94AC26E0934904AEE8B0E050
:104354000E949727E0934A040E94CA26E0934B04E4
:10436400A2E9B0E00E949727E0934C040E94CF2674
:10437400E0934D04A6E9B0E00E949727E0934E0431
:10438400E0914F04A8E2B0E00E94A327E09150041A
:10439400AAE2B0E00E94A327E7E5F4E00E94F32537
:1043A400E2E0F0E00E94C0267AC0A0913404A1307B
:1043B400E9F40E9473260E94D426E5E3F4E0FA931C
:1043C400EA93E0E3F0E0FA93EA93E3E0F0E0FA93AF
:1043D400EA93E0E0EA93E2E0EA93E1E0EA930E9400
:1043E40093190E94B726E0EDF7E050C0A091340481
:1043F400A23071F40E9473260E94D426E1E1F3E016
:10440400FA93EA93E4E1F0E00E94DA26EEEF37C093
:10441400A0913404A53069F40E9473260E94D42626
:10442400EFE1F3E0FA93EA93E9E1F0E00E94BB26BE
:1044340021C0A0913404A33059F40E9473260E9431
:10444400D426EBE2F3E0FA93EA93ECE1F0E00EC059
:10445400A0913404A43019F50E9473260E94D42636
:10446400E4E3F3E0FA93EA93E4E1F0E0FA93EA9305
:10447400E3E0F0E0FA93EA930E94FF25EFEFEA937A
:104484000E9493190E94B726E8EEF3E0FA93EA93A8
:104494000E9422270E947326E0E0E09334040E94E5
:1044A400E126A134E0E0BE0719F4E0EFFDE10BC022
:1044B4000E94E126A635E0E0BE0719F00E94E1263D
:1044C400D997E0EFF1E2FA93EA93EFE5F0E00E9486
:1044D400EB25EFE7F0E00E940E26EFE5F4E0FA9317
:1044E400EA93E8E7FEE2FA93EA93A6E9B0E00E94D1
:1044F400E6260E94CF260E94D825A2E9B0E00E94B9
:10450400E6260E94CA260E94D825AEE8B0E00E94A2
:10451400E6260E94AC260E94D82588E1B5D16C9687
:10452400EFE5F4E0FA93EA93E2E2F0E00E94C726B2
:104534000E94FF250E94042618C0E0E4F3E0FA93E9
:10454400EA93EEE1F0E00E94BB26FA93EA930E941C
:10455400FF250E940426E9E4F3E0FA93EA93EFE0EE
:10456400F0E00E94DA260E940426E0EFF5E1FA93D7
:10457400EA93E9E6F0E00E94C726EFE7F0E00E9444
:10458400F3250E944D1A70CEFFCFE091C000E07277
:10459400E1F3E881E093C60021960895EA81EA9365
:1045A400F4DFA881B9810E94D024239608951A9338
:1045B4000A93AA81BB8112960E948327309729F11E
:1045C400AA81BB8114960E9483278F01309761F0E2
:1045D4000230E0E01E07C0F0F80131978F01AA8194
:1045E400BB811496ED93FC93AA81BB8112960E9421
:1045F400D0243197AC81A083AA81BB810E948327F8
:10460400FF2312F00E94D02406C0AA81BB81EFEFE1
:10461400FFEFED93FC931981088125960895269761
:104624000E94B42710E0AC85BD85E0E0F0E0ED9396
:10463400FC93EA89FB893196EA8BFB8B3197E491F1
:104644002E2FE03011F40C943E24E12FE03039F4A5
:10465400253211F411E002C00E94E9260CC1E130B8
:10466400A9F4253219F40E94E92604C112E040E0BD
:1046740000E02D3211F401E0FEC02B3211F44BE2C4
:10468400FAC0203211F440E2F6C002C0E23039F43C
:1046940050E013E0203311F40068EDC004C0E330AF
:1046A40011F00C943D24203310F02A3308F007C095
:1046B400AAE05A9F502DE22FE0535E0FDCC0E22F98
:1046C400E33649F40E94F226E889F989A481AA9381
:1046D4000E94F826CFC0E33741F40E94F2260E94DC
:1046E40000270E9497241E2F0AC0E03761F40E941D
:1046F400F2260E9400270E94A1241E2F0860026057
:104704000F7730E035C0E43611F0E93611F4046077
:1047140002C0E53731F4E0E4FDE2EE83FF8315E007
:104724000DC0E83511F4086004C0E83711F00C94AA
:104734003C24EAE4FDE2EE83FF8314E002FF14C0AC
:104744000E94F2260E940A27AB85AA233AF4EA853E
:10475400FB850E943227EA87FB874DE2403011F047
:104764001F5F01C00B7F04C00E94F2260E940A272B
:1047740000FD11C0151778F407FF08C002FF04C03C
:104784000B7F242F115001C020E301C020E20E94BE
:10479400E9265150EFCF312F01FF17C03030A1F07F
:1047A40003FF06C0EE81FF812591EE83FF8305C0E0
:1047B400AE81BF812D91AE83BF830E94E926503024
:1047C40009F051503150EACF4BC020E3EE81FF8114
:1047D4000E948727E887F987EE81FF813296EE836E
:1047E400FF83E885F985AA85BB85AE17BF0750F01E
:1047F4002F5FA885B985EA85FB85EA1BFB0BEA8751
:10480400FB87EFCF2A3328F003FF02C0295F01C0E2
:10481400295D04FD1AC0213320F4A885B9851197B8
:1048240009F409C0531710F000FF01C013C020E2BF
:1048340007FF0BC020E3006102FF07C00B7F4A9310
:104844000E94F826503009F051500E94E926503059
:1048540009F051503150A885B985129708F0B5CFA9
:1048640000FF08C0503031F05150E0E2EA930E945A
:10487400F826F8CF10E0DDCEAC85BD850E948327F5
:104884000E94BB2764960895FF92F82E26970E94F3
:10489400B6270E941227309719F4EFEFFFEF1FC0DD
:1048A400DE0116960E942E278D010E941227EE83A8
:1048B400FF83E0E0E887E987DE011A960E94192762
:1048C400E9EDF2E2FA93EA93FE013A96FA93EA9357
:1048D400A6DE9F01AE81BF81E0E0EC93F9010E9466
:1048E400BD272A96FF900895FF92F82E26971A93D3
:1048F4000A93DE0114960E942E278D01E0E0EC83DA
:10490400ED83EE83EF83DE0118960E941927E0ED14
:10491400F2E2FA93EA93FE013896FA93EA937FDE81
:10492400198108812896FF900895A991B991EE27DD
:10493400FF276D91662311F03196FBCF0895AA27C6
:10494400BB27E991F9910590002011F01196FBCF56
:10495400FD010895FA93EA930C94C817FA93EA9325
:104964000C94E417E0E0F0E0FA93EA930895EC8104
:10497400F0E0FA93EA930C94EF17E12FF0E0089536
:10498400AE81BF81EE27A10FBE1FEC910895FE01F9
:10499400E95BFF4F0190F081E02D0895ED91FD91C9
:1049A4003196FE93EE930895EE81F0E00895E09140
:1049B4005703F0915803E15CF040A6E0B0E00E9498
:1049C4004227E458F74F0895E15CF040A6E0B0E0D8
:1049D4000E944227E458F74F0895F0E0FA93EA93CF
:1049E4000895FA93EA93EE81FF810895FA93EA9386
:1049F400EE81EA930C947A18E985FA85FA93EA939E
:104A04000E949724A12FB0E0AE17BF070895A9858F
:104A1400BA85AE0FBF1F0895E885F985FA93EA9326
:104A24000895EA93E985EA930C940C19EA81F0E07D
:104A3400E7FDFFEF3896DF01EB81F0E00E944A27A3
:104A44000895EB81A8E0EA02F0010895EB81F0E01B
:104A5400AD81BE81EA0FFB1FED83FE830895A98516
:104A6400BA85EA0FFB1FA1810895EC81A8E0EA0250
:104A7400F001A885B985AE1BBF0BBA93AA93CCCF1E
:104A8400AE1BBF0BAF83B8870895A0E8B0E00E94C7
:104A940097270895EF5F0E94A327E1500895A2E8A5
:104AA400B0E00E9497270895E6E6FDE2FA93EA93C0
:104AB40080E00E94762422960895FA93EA9380E097
:104AC4000E94762422960895A0E8B0E0E0E00E94D7
:104AD400A3270895A2E8B0E0E0E00E94A327089588
:104AE400A4E8B0E00E9497270895A4E8B0E0E0E0CD
:104AF4000E94A3270895A6E8B0E00E94972708958E
:104B0400A6E8B0E0E0E00E94A3270895A8E8B0E09A
:104B14000E9497270895A8E8B0E0E0E00E94A32748
:104B24000895AAE8B0E00E9497270895E4E6F0E02B
:104B3400FA93EA930C942227FA93EA93E9E2F4E0D5
:104B4400662777270E948B27E0914A04FF27662770
:104B540077270E948B27E0914904FF276627772750
:104B64000E948B27E0914C04FF27662777270E9439
:104B74008B27E0914B04FF27662777270E948B271A
:104B8400E0914E04FF27662777270E948B27E09148
:104B94004D04FF27662777270E948B27E09148045E
:104BA400FF27662777270E948B27B0CFFF2766272A
:104BB40077270E948B2708950E946D1BE8ECF0E094
:104BC400FA93EA930C942227F0E0E130A0E0FA078C
:104BD4000895FA93EA93C6CEE5E0F0E0FA93EA93F7
:104BE4000895FA93EA93E7E0F0E0FA93EA930895DC
:104BF400FA93EA93ECE2F0E0F4CFE0E0EA93E1E048
:104C0400EA930895EFEFEA930C949319E8ECF0E03B
:104C1400FA93EA930C942227FA93EA93E1E0F0E002
:104C2400FA93EA930C944D1AF801E45AFC4FA081CC
:104C34000895F801E35AFC4FA0810895F801E15A60
:104C4400FC4FA0810895F801E05AFC4FA08108951B
:104C5400EE59FC4FE081F0E0F0970895ED59FC4FD8
:104C6400E081F0E0F0970895E0935504F093560442
:104C74000895F801E25AFC4FA0810895E081F0E024
:104C8400F0970895F8013496E98FFA8F0895FA01A0
:104C9400A98DBA8DEA0FFB1FE35AFC4FA081AA33FA
:104CA4000895EF89F88D3196EF8BF88FAF89B88D21
:104CB40011970895E98DFA8DE40FF51F3196ED8B68
:104CC400FE8B0895ED89FE89E15AFC4F0895ED8924
:104CD400FE89E05AFC4F0895ED89FE89EF59FC4F97
:104CE4000895E2E0EA930E940418E3E0EA930E9444
:104CF4000418E4E0EA930E940418E5E0EA930C94B3
:104D04000418ED89FE89E35AFC4F0895E1E0F0E0D0
:104D1400E0934104F09342040895AF81B885EAE03A
:104D2400F0E008950E946727A8E8B0E00E94A32756
:104D3400F4CF0E946227AAE8B0E00E94A327089556
:104D4400E989FA89E35AFC4F99CF0E94A327E9899C
:104D5400FA890895ACE8B0E00E9497270895FA9381
:104D6400EA930E9422270C9421180E946D1B0C9434
:104D74006D1BFA93EA93E2E0F0E00895FA93EA9364
:104D8400E0E0EA93E2E0EA933DCFFA93EA9324CF9A
:104D9400A0E9B0E00E9497270895A4E9B0E00E943A
:104DA40097270895E1E0F0E0FA93EA930C94222720
:104DB400FA93EA93E4E0F0E0FA93EA931ECFA09129
:104DC4005304B091540408950E949727EFCE2A9378
:104DD400ED85FE85FA93EA93E989FA8909950895A0
:104DE400E889F9893497E88BF98B0895ED85FE8578
:104DF400FA93EA93E989FA8909950895A889B98902
:104E040014960E948327EE83FF83FA93EA9308950E
:104E1400A889B98914960E948327EA87FB87089595
:104E2400DE011C960E942E270E94832708950E946B
:104E34002E270E948327FA93EA931A930A930895DC
:104E4400E991F991309639F08DEC9AE00197F1F7F8
:104E5400A8953197C9F708950024AF0DB01D0895A2
:104E6400F195E195F0400895EE0FFF1FEE0FFF1F3F
:104E7400EE0FFF1F08956F2F660F660B762F0895B0
:104E8400FA9FF02DEB9FF00DEA9FE02DF10D0895B0
:104E94002AD0F6DF0EF4E4DF08950024112490E113
:104EA400AA0FBB1F001C111C0E1A1F0A18F40E0EA9
:104EB4001F1E01C0A1609A9599F7FD01D0010895C4
:104EC40012D0EBDF0EF4CCDF0895E894B7FF04C0F2
:104ED400A095B09511966894F7FDC2DFDEDFFD0161
:104EE4000EF4BEDF0895E894F7FF02C0B9DF6894BA
:104EF400B7FF06C0A095B095119600F8039400FA88
:104F04000895ED91FC91119708950590F491E02D89
:104F140008957A936A93FA93EA9308951B2EBF2F08
:104F2400F12D1A2EAE2FE12D0895F999FECFFF939E
:104F3400FFB7F894A1BDB2BDF89AE0B5FFBFFF91E9
:104F44000895F99B02C0A895FCCF9FB7F894A1BD22
:104F5400B2BDF89A80B5E81719F0E0BDFA9AF99A4B
:104F64009FBF08955A934A933A932A931A930A93A4
:104F740008955D814C813B812A81198108810895BE
:00000001FF
