:0E0000000C94BD170C9400000C9400000C949E
:10000E0000000C9400000C9400000C9400000C9462
:10001E0000000C9400000C9400000C9400000C9452
:10002E0000000C9400000C9400000C9400000C9442
:10003E0000000C9400000C9400000C94E21A0C9436
:10004E0000000C94B71A0C9400000C9400000C9451
:10005E0000000C9400000C9400000C9400000C9412
:10006E0000000C9400000C9400000C9400000000A2
:10007E000000000000000000000000000000000072
:10008E000000000000000000000000000000000062
:10009E000000000000000000000000000000000052
:1000AE000000000000000000000000000000000042
:1000BE000000000000000000000000000000000032
:1000CE000000000000000000000000000000000022
:1000DE000000000000000000000000000000000012
:1000EE000000000000000000000000000000000002
:1000FE0000000000000000000000000000000000F2
:10010E0000000000000000000000000000000000E1
:10011E0000000000000000000000000000000000D1
:10012E0000000000000000000000000000000000C1
:10013E0000000000000000000000000000000000B1
:10014E0000000000000000000000000000000000A1
:10015E000000000000000000000000000000000091
:10016E000000000000000000000000000000000081
:10017E0000000000000000004F000000000000071B
:10018E000007000000000024FF24FF2400000044AC
:10019E004AFF4A32000040231308C4C20000003652
:1001AE004955224080000000050300000000003C7D
:1001BE004281000000000081423C0000000000145B
:1001CE00083E081400000010107C10100000000003
:1001DE002818000000000008080808080800006041
:1001EE006000000000004020100804020000007EA5
:1001FE00FF8181FF7E00008082FEFF80800000E292
:10020E00F191919F8E000062C3C9C9FF760000185C
:10021E001412FFFF1000006F8F8989F97100007EA4
:10022E00FF8989F97200000101F1FD0703000076D4
:10023E00FF8989FF760000468F8989FF7E000000C6
:10024E006666000000000000563600000000000840
:10025E001422410000000024242424240000000065
:10026E00412214080000000201B1090600000062DC
:10027E0091F1817E000000FE111111FE000000FFC1
:10028E00898989760000007E81818142000000FF0D
:10029E008181423C000000FF89898981000000FFB6
:1002AE00090909010000007E81919172000000FF92
:1002BE00101010FF0000000081FF810000000040C0
:1002CE0080817F01000000FF18244281000000FFA2
:1002DE0080808080000000FF020C02FF000000FF03
:1002EE00040810FF0000007E8181817E000000FF67
:1002FE001111110E00007E81A141BE00000000FF11
:10030E001131518E0000008689898971000000012B
:10031E0001FF01010000007F8080807F0000003F10
:10032E004080403F0000003FC060C03F000000E33F
:10033E00140814E30000000708F00807000000C1CD
:10034E00A1918987000000FF818100000000001547
:10035E00167C161500000041417F000000000004CD
:10036E000201020400000040404040400000000135
:10037E00020400000000006094949478000000FFD6
:10038E0088888870000000788484840000000078DB
:10039E008484887F000000789494945800000010A4
:1003AE00FE1101020000000C9292927E000000FFEE
:1003BE00100808F00000000084FD800000000060BE
:1003CE0080807D00000000FF3048840000000000A7
:1003DE0081FF8000000000FC043804F8000000FCDF
:1003EE00080404F80000007884848478000000FC7F
:1003FE001414140800000008141418FC000000FC6B
:10040E00080404080000008894949460000000041E
:10041E007F8480400000007C808040FC0000003C17
:10042E004080403C0000003EC060C03E00000042E4
:10043E0024182442000000068888887E000000C42C
:10044E00A4948C8400000008768100000000000057
:10045E0000FF000000000081760800000000000888
:10046E00082A1C08000000081C2A08080000007C4E
:10047E008281827C0000000000000000000000006D
:10048E00000000000000000000000000000000005E
:10049E00000000000000000000000000000000004E
:1004AE00000000000000000000000000000000003E
:1004BE00000000000000000000000000000000002E
:10086E000000000000000000000000000000C1C1F8
:10087E00C1C10000C2C2FEFE0100C3C31F1F0100A2
:10088E00C4C4FCFC0100C5C5C5C50101C6BDBFBEC3
:10089E000101C7C7C0C00100C88284830101C9C954
:1008AE00FDFD0100CA8587860101CB888A89010179
:1008BE00CC8BCC8B0101CD8CCD8C0101CE11CE1108
:1008CE000101CFCF13130100D0D08F8F0100D1D1F2
:1008DE001B1B0100D2D291910100D392949301017E
:1008EE00D49597960101D5179A990101D69B9D9C97
:1008FE000101D7D7D7D70000D8D89E9E0101D9D9EC
:10090E009F9F0101DAA0A2A10101DBA3A5A4010111
:10091E00DCDCDCDC0000DDA6A8A70101DEA9ABAAA9
:10092E000101DFACAEAD0101E0E0E0E00000E1AFBF
:10093E00B1B00101E2E2E2E20000E3B2B4B30101C0
:10094E00E4B5B7B60101E5B8BAB90101E6E6BCBC3B
:10095E000100E7E7E7E70000E8E8E8E80000E9E97A
:10096E00E9E90000EAEAEAEA0000EBEBEBEB000053
:10097E00ECBDBFBE0101EDBDBFBE0101EEEEEEEE60
:10098E000000EFEFEFEF0000F0F0F0F00000F1F1FB
:10099E00F1F10000F2F2F2F20000F3F3F3F30000D3
:1009AE00F5F5F5F50000F6F6F6F60000F7F7F7F7B1
:1009BE000000F8F8F8F80000FBF9FBFA0101BBBBE8
:1009CE00F4F40100811C1E1D010190181A19010179
:1009DE009814161501018E8E121201008D108D10B5
:1009EE00010100C0F030381818181898B0B0303027
:1009FE0030606060606060C0C0C0C0C0C0C0808039
:100A0E008080800000000000000000000000000058
:100A1E0000000000000000000000000000000000C8
:100A2E0000000000000000000000000000000000B8
:100A3E0000000000000000000000000000000000A8
:100A4E000000000000000000000000000000000098
:100A5E000000000000000000000000000000000088
:100A6E00000000FFFF00000C18F0E70FFD0F07005D
:100A7E000000000000000000000000000000010166
:100A8E000181838383C3E767E6C6060E0C0C0C0C4C
:100A9E000C1818187870E0C00000000000E0E000AC
:100AAE000000000080C0E06000E0E0606060606018
:100ABE0060E0C000000080C06060C080000000E008
:100ACE00E0606060606060C08000000080C06060B8
:100ADE00C0800000000080C06060606060C0800068
:100AEE00000000FFFF00000000FFFF00FF000000FD
:100AFE0000000000000000000080C06030188CC6AE
:100B0E006331180808090B0B0B09080808080808B8
:100B1E001C3E363E1C00FFFF0000000000FFFF7071
:100B2E00F88C8E070301000000FFFFE0E0E060603C
:100B3E00607F3F00FEFF616060606061FFFE00FF4E
:100B4E00FF000000000000FFFF00FEFF616060601C
:100B5E006061FFFE00FFFF000000000000000100CA
:100B6E00000000FFFF00000000FFFF003F303030AC
:100B7E003030303030180CC6E331180C060301004B
:100B8E000000000000000000000000000000000057
:100B9E00000000000000FFFF00000000003F3F00CB
:100BAE00000103070E1C3830003F3F000001030711
:100BBE000E3C38003F3F0000000000003F3F003F6A
:100BCE003F3030303030301F0F003F3F000000000C
:100BDE0000003F3F000F1F303030303030381800EB
:100BEE00000000FFFF00000000FFFF00FF030303F3
:100BFE000303030303060C193366CC983060C080E0
:100C0E0000000000000000000000000000000000D6
:100C1E00000000000000FFFF0000000000000000C8
:100C2E0000000000000000000000000000000000B6
:100C3E0000000000000000000000000000000000A6
:100C4E000000000000000000000000000000000096
:100C5E000000000000000000000000000000000086
:100C6E00000000FFFF00000000FFFF00FF0000007B
:100C7E0000000000000000000000000103060C1937
:100C8E003366444444E4F4B4F4E404040404040475
:100C9E000E1F1B1F0E00FFFF000000FC00000000D7
:100CAE0000F8040404F8000C040404FC00F088842A
:100CBE0088F00080808000FC8484040400F8040422
:100CCE00040800FC000000FC00F0888488F000FCA2
:100CDE00040404F800F8040404F800FC44C4443886
:100CEE00000000FFFF00000603011C3E373E1C0003
:100CFE00000000000080808080C0C0C0C0C0E060E6
:100D0E0060603030303031391918181C0C0C0C0C56
:100D1E000E060606070301000000000F080808086B
:100D2E00000708080807000608080807000F00005B
:100D3E00000F00000000000F080808080007080850
:100D4E000804000708080807000F0000000F000F36
:100D5E0008080807000708080807000F0000010E22
:100D6E000000000107060E0C0C0C0C0C0606060605
:100D7E000303030303010101010100000000000051
:100D8E000000000000000000000000000000000055
:100D9E000000000000000000000000000000000045
:100DAE000000000000000000000000000000000035
:100DBE000000000000000000000000000000000025
:100DCE000000000000000000000000000000000015
:100DDE000000000000000000000000000000000005
:100DEE0000000000000000000000000000000000F5
:100DFE0000000000000000000000000000000000E5
:100E0E0000000000000000000000000000000000D4
:100E1E0000000000000000000000000000000000C4
:100E2E0000000000000000000000000000000000B4
:100E3E0000000000000000000000000000000000A4
:100E4E000000000000000000000000000000000094
:100E5E000000000000000000000000000000000084
:100E6E0000000000000000C0E0F0F0F8F8F8F8F81C
:100E7E00FCFCFCFCFCFCFCFCFCFCFCFCFCFCFCFCA4
:100E8E00FCFCFCFCF8F8F8F8F8F0E0E0C00000001C
:100E9E000000000000000000000000000000000044
:100EAE000000000000000000000000000000000034
:100EBE000000000000000000000000000000000024
:100ECE000000000000000000000000000000000014
:100EDE000000000000000000000000000000000004
:100EEE00000000000000FEFFFF03010303030303E5
:100EFE00030303030303030303FFFF0303010303BE
:100F0E00030303030303030303030307FFFE0000AE
:100F1E0000000000000000000000000000000000C3
:100F2E0000000000000000000000000000000000B3
:100F3E0000000000000000000000000000000000A3
:100F4E000000000000000000000000000000000093
:100F5E000000000000000000000000000000000083
:100F6E00000000000000FFFFFFC0C0C0C0C0C0C036
:100F7E00C0C0C0C0C0C0C0C0E0FFFFE0C0C0C0E085
:100F8E00D0C8C4C4C4C4C8D0E0C0E0F0FFFF0000A5
:100F9E000000000000000000000000000000000043
:100FAE000000000000000000000000000000000033
:100FBE000000000000000000000000000000000023
:100FCE000000000000000000000000000000000013
:100FDE000000000000000000000000000000000003
:100FEE00000000000000FFFFFFFFFFFFFFFFFFFFFD
:100FFE00FFFFFFFFFFFFFFFFFFFFFFFFFFFFFFFFF3
:10100E00FFFFFFFFFFFFFFFFFFFFFFFFFFFF0000E0
:10101E0000000000000000000000000000000000C2
:10102E0000000000000000000000000000000000B2
:10103E0000000000000000000000000000000000A2
:10104E000000000000000000000000000000000092
:10105E000000000000000000000000000000000082
:10106E000000000000003FFFFFE1E1E1E1FFFFFFB4
:10107E00F9D9D9D9D9D9D9D9D9D9D9D9D9D9D9D9B2
:10108E00D9D9C9FBFFFFFFE1E1C1E1F7FF3F000046
:10109E000000000000000000000000000000000042
:1010AE000000000000000000000000000000000032
:1010BE000000000000000000000000000000000022
:1010CE000000000000000000000000000000000012
:1010DE000000000000000000000000000000000002
:1010EE0000000000000000001F3F3F3F3F3F3F0059
:1010FE0000000000000000000000000000000000E2
:10110E00000000001F3F3F3F3F3F3F1F0000000019
:10111E0000000000000000000000000000000000C1
:10112E0000000000000000000000000000000000B1
:10113E0000000000000000000000000000000000A1
:10114E000000000000000000000000000000000091
:1014EE0000000000000000F884C202020202FE02A8
:1014FE000202C2FE02020202C4F800000000000056
:10150E0000000000000000000000000000000000CD
:10151E0000000000000000000000000000000000BD
:10152E0000000000000000000000000000000000AD
:10153E00000000000000000000000000000000009D
:10154E00000000000000000000000000000000008D
:10155E00000000000000000000000000000000007D
:10156E0000000000001E1F7FFFFD7C1C1C1C1F1CAA
:10157E001C1C1F1F7CFCFC7C1F0F000000000000C9
:10158E00000000000000000000000000000000004D
:10159E00000000000000000000000000000000003D
:1015AE00000000000000000000000000000000002D
:1015BE00000000000000000000000000000000001D
:10194E000000000000000000000000000000003851
:10195E00FC0202020202060606BAFABA0202FC38BB
:10196E000000000000000000000000000000000069
:10197E000000000000000000000000000000000059
:10198E000000000000000000000000000000000049
:10199E000000000000000000000000000000000039
:1019AE000000000000000000000000000000000029
:1019BE000000000000000000000000000000000019
:1019CE000000000000000000000000000000000009
:1019DE003F3EFEF2F23E3E3E3F3FF3F3FF3E3F0000
:1019EE0000000000000000000000000000000000E9
:1019FE0000000000000000000000000000000000D9
:101A0E0000000000000000000000000000000000C8
:101A1E0000000000000000000000000000000000B8
:101CEE0000000000000000F884C282DAFAE2FE0270
:101CFE000202C2FE02020202C4F80000000000004E
:101D0E0000000000000000000000000000000000C5
:101D1E0000000000000000000000000000000000B5
:101D2E0000000000000000000000000000000000A5
:101D3E000000000000000000000000000000000095
:101D4E000000000000000000000000000000000085
:101D5E000000000000000000000000000000000075
:101D6E0000000000001E1F7FFFFD7C1F1F1F1F1C99
:101D7E001C1C1F1F7CFCFC7C1F0F000000000000C1
:101D8E000000000000000000000000000000000045
:101D9E000000000000000000000000000000000035
:101DAE000000000000000000000000000000000025
:101DBE000000000000000000000000000000000015
:101DCE000000000000000000000000000000000005
:101DDE0000000000000000000000000000000000F5
:101DEE0000000000000000000000000000000000E5
:101DFE0000000000000000000000000000000000D5
:101E0E0000000000000000000000000000000000C4
:101E1E0000000000000000000000000000000000B4
:101E2E0000000000000000000000000000000000A4
:101E3E000000000000000000000000000000000094
:101E4E000000E01090908000F09090906000609004
:101E5E009010000000002070F8702000807800FCC8
:101E6E000000000000000000000000000000000064
:101E7E000000000000000000000000000000000054
:101E8E000000000000000000000000000000000044
:101E9E000000000000000000000000000000000034
:101EAE000000000000000000000000000000000024
:101EBE000000000000000000000000000000000014
:101ECE0000000304040403000700000000000404E3
:101EDE00040300000010141414141209040A351817
:101EEE0008000000000000000000000000000000DC
:101EFE0000000000000000000000000000000000D4
:101F0E0000000000000000000000000000000000C3
:101F1E0000000000000000000000000000000000B3
:101F2E0000000000000000000000000000000000A3
:10224E000000E01090908000F09090906000609000
:10225E00901000000000000000000000807800FCDC
:10226E000000000000000000000000000000000060
:10227E000000000000000000000000000000000050
:10228E000000000000000000000000000000000040
:10229E000000000000000000000000000000000030
:1022AE000000000000000000000000000000000020
:1022BE000000000000000000000000000000000010
:1022CE0000000304040403000700000000000404DF
:1022DE00040300000010141414141209040A351813
:1022EE0008000000000000000000000000000000D8
:1022FE0000000000000000000000000000000000D0
:10230E0000000000000000000000000000000000BF
:10231E0000000000000000000000000000000000AF
:10232E00000000000000000000000000000000009F
:1025EE00000000000000000000808000E0E000F825
:1025FE00F800FEFE000000000000000000000000D9
:10260E0000000000000000000000000000000000BC
:10261E0000000000000000000000000000000000AC
:10262E00000000000000000000000000000000009C
:10263E00000000000000000000000000000000008C
:10264E00000000000000000000000000000000007C
:10265E00000000000000000000000000000000006C
:10266E00000000060600070700070700070700071F
:10267E000700070700000000000000000000000037
:10268E00000000000000000000000000000000003C
:10269E00000000000000000000000000000000002C
:1026AE00000000000000000000000000000000001C
:1026BE00000000000000000000000000000000000C
:1029EE00000000000000000000808000E0E0000019
:1029FE0000000000000000000000000000000000C9
:102A0E0000000000000000000000000000000000B8
:102A1E0000000000000000000000000000000000A8
:102A2E000000000000000000000000000000000098
:102A3E000000000000000000000000000000000088
:102A4E000000000000000000000000000000000078
:102A5E000000000000000000000000000000000068
:102A6E000000000606000707000707000707000022
:102A7E000000000000000000000000000000000048
:102A8E000000000000000000000000000000000038
:102A9E000000000000000000000000000000000028
:102AAE000000000000000000000000000000000018
:102ABE000000000000000000000000000000000008
:102ACE0000000000000000000000000000000000F8
:102ADE0000000000000000000000000000000000E8
:102AEE0000000000000000000000000000000000D8
:102AFE0000000000000000000000000000000000C8
:102B0E0000000000000000000000000000000000B7
:102B1E0000000000000000000000000000000000A7
:102B2E000000000000000000000000000000000097
:102B3E000000000000000000000000000000000087
:102B4E000000000000000000000000000000000077
:102B5E000000000000000000000000000000000067
:102B6E000000000000000000000000000000000057
:102B7E000000000000000000000000000000000047
:102B8E000000000000000000000000000000000037
:102B9E00000000060600070700000000000000000D
:102BAE000000000000000000000000000000000017
:102BBE000000000000000000000000000000000007
:102BCE0000000000000000000000000000000000F7
:102BDE0000000000000000000000000000000000E7
:102BEE0000000000000000000000000000000000D7
:102BFE0000000000000000000000000000000000C7
:102C0E0000000000000000000000000000000000B6
:102C1E0000000000000000000000000000000000A6
:102C2E000000000000000000000000000000000096
:102C3E000000000000000000000000000000000086
:102C4E000000000000000000000000000000000076
:102C5E000000000000000000000000000000000066
:102C6E000000000000000000000000000000000056
:102C7E000000000000000000000000000000000046
:102C8E000000000000000000000000000000000036
:102C9E000000000000000000000000000000000026
:102CAE000000000000000000000000000000000016
:102CBE000000000000000000000000000000000006
:102CCE0000000006060004040404040404040404C2
:102CDE0004040404000000000000000000000000D6
:102CEE0000000000000000000000000000000000D6
:102CFE0000000000000000000000000000000000C6
:102D0E0000000000000000000000000000000000B5
:102D1E0000000000000000000000000000000000A5
:102D2E000000000000000000000000000000000095
:102D3E0000001027E80364000A00010000100001E3
:102D4E0010000100C100534954553838383800007E
:102D5E000000200000200000000041542454544480
:102D6E00455649443F0A0D0041542B4353510A0D19
:102D7E000041542454544E455449503F0A0D0041CD
:102D8E00542454544750535152593D31302C300A2B
:102D9E000D004154245454534E444D473D342C227F
:102DAE002424424C25732C25642564256425643225
:102DBE0030256425642C25642564256425642564EA
:102DCE0025642C52322C25642C25643A5858232322
:102DDE00220D0A004154245454534E444D473D3461
:102DEE002C222424424C25732C256425642564252D
:102DFE00643230256425642C25642564256425649D
:102E0E00256425642C53322C313233342C25643A0C
:102E1E0058582323220D0A00525554413A002020BF
:102E2E0020202020005025640025630042555300C9
:102E3E005645525F302E392E3000256425643A25D2
:102E4E006425643A2564256400494E4943494F2060
:102E5E00444520534553494F4E002A0046494E20C3
:102E6E005255544100494E4943494F205255544101
:102E7E00002048412053414C49444F0044454C20CA
:102E8E0053495354454D41004E45434553495441D2
:102E9E0020494E4943494152204A4F524E414441E6
:102EAE00004D454E53414A453A0032302564256463
:102EBE002D256425642D256425640050616E746192
:102ECE006C6C61004E6F204175746F72697A61642B
:102EDE00610001002D4E414E00000100A603522D4F
:102EEE0004001305542D04001805582D0600000388
:102EFE00262E070006032C2E04000D033A2E0A0080
:102F0E0011033E2E11001B03572E02002C03682EB8
:102F1E0002002E03682E02003003682E02003203D8
:102F2E00682E090034036A2E0C003D03732E0B002D
:102F3E0049037F2E0C0054038A2E19006003962E2F
:102F4E0009007903AF2E06008203B22E0700880314
:102F5E00B12E09008F03C92E0E009803D22E0C003D
:102F6E0003005C2D01005905E02E0000F894EE27B9
:102F7E00EFBBF1E0F5BFE5BFF8E1A895A4B7A77FD9
:102F8E00A4BFF0936000E09360008DE0A2E0BB2749
:102F9E00ED938A95E9F780E098E0A0E0B1E0ED933B
:102FAE000197E9F7E8EEFEE285919591009761F0C1
:102FBE00A591B59105901590BF01F00105900D9268
:102FCE000197E1F7FB01F0CFE0E0EEBBEFEFEDBFD5
:102FDE00E8E0EEBFC0E0D3E00C94BE205F9A87E33A
:102FEE008A95F1F75F9887E38A95F1F70895169A17
:102FFE00179A5E985D98EFE3E8B9F0DF08951A939B
:10300E005E985D98A981BA81A034E0E0BE0720F4F5
:10301E00169A1798198107C0179A1698E981FA819E
:10302E00E054F0401E2FE12FE064EF771E2F18B909
:10303E00D5DF18813BC01A935E985D98E981E86BE5
:10304E00EF7B1E2F18B9CADF188130C0EA81FB81D1
:10305E000E94E525E881F9810E94E92524960895CC
:10306E005E9A5D98E881E8B98DED90E00197F1F7F1
:10307E00B5DF219608951A930A930E94ED250E94BA
:10308E00F225E0E4F0E0FA93EA930E94F225169A14
:10309E0000E010E00134E0E01E0734F4E0E0EA93D3
:1030AE00DFDF0F5F1F4FF6CF19810881239608953A
:1030BE001A930A9300E010E00830E0E01E072CF4AB
:1030CE000A93D9DF0F5F1F4FF7CF0991199108951A
:1030DE001A93EB81FC810E94E525E981FA810E9419
:1030EE00E92510E0183080F4ED81FE810E94DB2886
:1030FE00DF010E94F825EA0FFB1FE458FF4FE49111
:10310E00EA93AEDF1F5FEECF188141C10E945B29AB
:10311E0020E010E0EC811E1700F500E00830D8F436
:10312E000E94FB25F0E0F595E795EC93ED81E170BB
:10313E003E2F303021F00E94FB25E068EC932F5F8C
:10314E00EC81E21731F4ED81F0E0F595E795ED8332
:10315E0020E00F5FE3CF1F5FDDCF0E94622928962C
:10316E000895EF9721970E945B290E9402260E94E4
:10317E00E525FE01EB5BFF4F0190F081E02D0E94F3
:10318E00E92510E0183008F50E94F825BF010E94CD
:10319E00DB28DE011496EA0FFB1FFA93EA93FE0179
:1031AE00E55BFF4F0190F081E02D0E94DB28E60FDA
:1031BE00F71FE458FF4FE491EA93FE01E95BFF4FDE
:1031CE00E081EA93A3DF1F5FDDCF00E0FE01EC5B41
:1031DE00FF4FE0810E1710F00C94451910E01830D7
:1031EE0010F00C94371930E0FE01EC5BFF4FE081DC
:1031FE003E17A0F5E32FF0E0DE01A95BBF4F0D9067
:10320E00BC91A02DEA0FFB1FBF01DE01AC5BBF4FCF
:10321E00AC91BB270E94F8250E94EF28DB01AE0F70
:10322E00BF1FA034E0E0BE0749F4E0E4F0E0FA93FB
:10323E00EA930E940226FA93EA9308DF0E94F82589
:10324E000E94DB28DE011496AE0FBF1FEE27A00FE3
:10325E00BE1FEC91EA9304DF3F5FC6CF1F5FBFCF67
:10326E000E940226FA93EA93DE01A95BBF4F0E94E9
:10327E000926FA93EA93EADE0F5FA8CF0E9462292D
:10328E00EF962C960895A981A13011F00C94C619D1
:10329E000E940F26E138A0E0FA0711F4EAEF17C0FA
:1032AE00E039A0E0FA0711F4EBEF11C0E839A0E025
:1032BE00FA0711F4ECEF0BC0EE38A0E0FA0711F4A8
:1032CE00EDEF05C0ED38A0E0FA0711F4EEEFEE8356
:1032DE00AE81A13CB0F0A091A603B091A703A13C92
:1032EE00E0E0BE0774F00E9412263596E491E030BD
:1032FE0041F00E940F260E941F263496E491E03082
:10330E0009F417C00E941226DF01E091A803F0E035
:10331E003196EA0FFB1FE4910E942826E091A90343
:10332E000E942826E091AA030E942826D1DEE2E020
:10333E0001C0E0E0E093A803AE81A13C58F00E94EA
:10334E000F260E941F26DF01E091A8030E942C2663
:10335E00E49101C0EE81F0E00E9430260E943026FA
:10336E000E9435260E940F26E093A603F093A70332
:10337E00EC81E093A903EA81E093AA0308C00E94BE
:10338E000F260E9430260E9430260E943526279650
:10339E0008951A930A9310E000E00E943B2618F459
:1033AE00AC81A03009F029C00E94F8250E94462663
:1033BE00EC91EA930E944B260E944B26E0E00E947D
:1033CE0050260E945526AF81B885EA0FFB1FEF836A
:1033DE00F8870E946026A0E8B0E00E943529EA1B1B
:1033EE00FB0BAF81B885EA17FB072CF4E0E0EF8307
:1033FE00E8870E9465261F5FD0CF0E943B2618F4F7
:10340E00AC81A13009F075C00E94F8250E944626B5
:10341E00AC91A13E21F40E946E26A73C09F002C099
:10342E0009EF29C00E94F8250E944626AC91A13EC4
:10343E0021F40E946E26A33C09F002C007EE1BC0C9
:10344E000E94F8250E944626AC91A13E21F40E94CE
:10345E006E26A23C09F002C008EE0DC00E94F825AF
:10346E000E944626AC91A13E21F40E946E26A53CF8
:10347E0009F001C009EE003079F00A930E9474261B
:10348E00E1E00E9450261E5F0E946026AF81B88543
:10349E000E947F2600E01CC00E94F8250E9446264E
:1034AE00EC91EA930E947426E9850E9450260E94B0
:1034BE00F8250E944626AC91A03219F40E9455269A
:1034CE0002C00E946026AF81B8850E947F261F5FD2
:1034DE000E9460263196AF81B885AE17BF0744F4BF
:1034EE000E946026A0E8B0E00E947F260E9465261A
:1034FE0084CFE1ECF0E0E093A603F093A7031981EB
:10350E0008812B9608950E945B2908851985EC8108
:10351E00FD81E017F10700F12A853B85EE81FF81E1
:10352E00E217F307B0F03A932A931A930A938EDDBB
:10353E00A0E8A09FF001A19FF00DE20FF31FAC8554
:10354E00BD85EA0FFB1FE491EA938ADD2F5F3F4FA3
:10355E00E5CF0F5F1F4FDBCF0E9462292E96089595
:10356E00EA93FA93EFB7EA931A930A931091C00075
:10357E000091C600E091C000E07811F4F19801C00E
:10358E00F19AE12FEC7181F4E62D6394F0E0E555AC
:10359E00FC4F0083E8ECE61509F466248394E8EC0E
:1035AE00E81511F48824F09A09911991E991EFBF69
:1035BE00F991E99118950A921A92FA926A937A936E
:1035CE008A939A93AA93BA93EA93FA93EFB7EA93EC
:1035DE00E6E0E6BDA7E4B5E00E940926A091470506
:1035EE00B09148059B9711F00C949A1B0E9484266B
:1035FE000E948926E0E0E0934705E09348050E948B
:10360E008426E13021F40E948E26E13009F002C0BA
:10361E000E9493260E948426E13021F40E948E2679
:10362E00E23009F002C00E949C260E948426E130FE
:10363E0021F40E948E26E33009F004C0EFE7FDE28C
:10364E000E94A5260E948426E13021F40E948E2637
:10365E00E43009F004C0EDE8FDE20E94A5260E94C8
:10366E008426EA3010F40C949A1B0E94AC260E9419
:10367E008E260E9489260E948E26E63010F40C9427
:10368E009A1B0E94B2260E94B8260E9489260E948A
:10369E00B826EA3010F40C949A1B0E94BD260E94A4
:1036AE00C3260E9489260E94C326E630E0F10E94BE
:1036BE00C8260E94CE260E9489260E94CE26EA3077
:1036CE0090F10E94D3260E94D9260E9489260E943C
:1036DE00D926E23021F40E94CE26E33009F013C041
:1036EE000E94C326E53021F40E94B826E93009F085
:1036FE000AC00E948E26E53021F40E948426E9300D
:10370E0009F001C001C00FC0AAE8B0E0E0E00E94DD
:10371E0048290E94D3260E94C8260E94BD260E94D8
:10372E00B2260E94AC26E991EFBFF991E991B991C9
:10373E00A9919991899179916991F990199009902E
:10374E0018955C9A0E94DE265C980E94DE260895EB
:10375E001A93E981F0E0E054F0401E2F113010F082
:10376E00153608F002C0E12F01C0E0E01881229664
:10377E0008957A92EDDFE0935705E0EAFDE20E94AC
:10378E00E4260E941E27E0914E050E941E270E94ED
:10379E00B8260E941E27E0914C050E941E270E940B
:1037AE0084260E941E27E09157050E941E27E09155
:1037BE001D050E941E278CE30E94AF25EE960895EC
:1037CE00E2EEFDE20E94E4260E941E27E0914E05E5
:1037DE000E941E270E94B8260E941E27E0914C05CB
:1037EE000E941E270E9484260E941E27E0915805E3
:1037FE000E941E2788E30E94AF25EA960895A0E056
:10380E000499A1E0A03019F4E0E0E91509F049C0EF
:10381E00E2E0E0933C05E0911E05EF5FE0931E05AC
:10382E00E1E09E2E0E942427E0911E050E942C2787
:10383E0091F4E1E0E0935805C3DFE1E0E0931F056A
:10384E000E9431270E9436270E943B27E0E0F3E0DA
:10385E000E94452725C0E230A0E0FA0709F50E9434
:10386E0057270E9436270E945C270E946627E09306
:10387E005805E5E0E0933C05A3DF0E946627E09340
:10388E001D05E0E2E71509F074DFE0E27E2E0E94EE
:10389E006B27E6E0F3E00E944527E0E0E0931E058B
:1038AE0007C0049B03C0E1E0E91509F001C09924AB
:1038BE000895A0E00399A1E0A03059F4E0E0EC15E2
:1038CE0041F4A0911D05A03021F4A0915805A1301E
:1038DE0009F015C0E0911F05EF5FE0931F0531DF82
:1038EE00E1E0CE2EA0911F05AD3010F0AF3009F4FF
:1038FE0003C0E1E0E0931F050E947B2707C0039BF6
:10390E0003C0E1E0EC1509F001C0CC24E0911F05E5
:10391E000E942C2711F4E1E447C0E230A0E0FA0740
:10392E0011F4E2E441C0E330A0E0FA0711F4E3E45D
:10393E003BC0E430A0E0FA0711F4E4E435C0E53012
:10394E00A0E0FA0711F4E5E42FC0E630A0E0FA0794
:10395E0011F4E6E429C0E730A0E0FA0711F4E7E439
:10396E0023C0E830A0E0FA0711F4E8E41DC0E93006
:10397E00A0E0FA0711F4E9E417C0EA30A0E0FA0774
:10398E0011F4EAE411C0EB30A0E0FA0711F4EBE415
:10399E000BC0EC30A0E0FA0711F4ECE405C0EF30F8
:1039AE00A0E0FA0711F4E0E2AE2E0895A0E002992D
:1039BE00A1E0A03059F4E0E0EB1541F4A0911D0513
:1039CE00A03021F4A0915805A13009F015C0E09166
:1039DE001F05E150E0931F05B4DEE1E0BE2EA0917D
:1039EE001F05A03011F4AF3009F403C0ECE0E093F2
:1039FE001F050E947B2707C0029B03C0E1E0EB1569
:103A0E0009F001C0BB240895A0E00199A1E0A03007
:103A1E0039F4E0E0EE1521F4A0915805A13009F03B
:103A2E0028C0E394E0912005EF5FE09320057A2C07
:103A3E000E942427E09120050E942C2741F4E1E00A
:103A4E00E0931D05E4E0E0933C0593DE11C0E23007
:103A5E00A0E0FA0769F40E946627E0931D05E3E0F3
:103A6E00E0933C0586DEE0E27E2EE0E0E09320056A
:103A7E0007C0019B03C0E1E0EE1509F001C0EE2482
:103A8E000895E0912605F0912705E130A0E0FA07B0
:103A9E0019F4E0E2FBE214C0E230A0E0FA0719F4F8
:103AAE00E0EFF9E20DC0E330A0E0FA0719F4E0EF21
:103ABE00F5E206C0E430A0E0FA0769F4E0E5FCE2C6
:103ACE00FA93EA930E94ED250E94ED250E9481272C
:103ADE000E94862718DD08956597E0E0EB87EC8756
:103AEE00ED87EE87EF87E88BE98BEA8B0E945929E9
:103AFE0040E050E000E010E0083CE0E01E0714F06B
:103B0E000C94AA200E948B27A432B1F40E94902715
:103B1E00A43291F40E949527A43571F40E949A273D
:103B2E00A83751F40E949F27A43731F4F801E055CD
:103B3E00FC4FA081AC3209F02EC04424E0EAE4151B
:103B4E0090F0E42DF0E0BF01ED58FB4F0F01D801CE
:103B5E001696FB01EA0FFB1FE555FC4FE081D001E5
:103B6E00EC9343940BC0E1E03E2ED8011696E42D63
:103B7E000E942C26E555FC4FACE2A083D801169688
:103B8E00E42D0E942C26E555FC4FA081AC32B1F6F7
:103B9E00E7E0E0933C050E948B27AB3281F40E9454
:103BAE009027A33461F40E949527A33541F40E9417
:103BBE009A27A13521F40E949F27AA3309F046C007
:103BCE00F8010E94A427AAE0B0E00E94EF28DF01CE
:103BDE00F8010E94AA27EA0FFB1FEF87F88BAF852B
:103BEE00B8891B9724F0AF85B8891F970CF005C0D4
:103BFE00E1E0F0E00E94B02729C0AF85B8891F9799
:103C0E0024F0AF85B88952970CF005C0E2E0F0E0E1
:103C1E000E94B0271BC0AF85B889529724F0AF859C
:103C2E00B8895F970CF005C0E3E0F0E00E94B02782
:103C3E000DC0AF85B889909724F0AF85B889D2971B
:103C4E000CF004C0E4E0F0E00E94B0270E948B2745
:103C5E00A23441F40E949027A53521F40E949527A5
:103C6E00A33509F087C0F801E554FC4F0E94B52733
:103C7E00E0933805F801E454FC4F0E94B527E09319
:103C8E003905F801E354FC4F0E94B527E0933A053D
:103C9E00F801E254FC4F0E94B527E0933B05A0913A
:103CAE003B05A13119F4EAE0E0933B05A0913805FC
:103CBE00A13130F0E0913805F0E03797E093380508
:103CCE00A0913905A13130F0E0913905F0E0379738
:103CDE00E0933905F801EF53FC4FA081A13331F485
:103CEE00F801EE53FC4FA081A83309F043C0E1E088
:103CFE00E0933C05A0913A05EAE0EA02F001DF010B
:103D0E00E0913B050E942C26E0934105F09342057D
:103D1E00A0913805E0E1EA02F0013197DF01E09170
:103D2E003905F0E0AE0FBF1FEAE0F0E00E94EF2889
:103D3E00E0934305F0934405A0914105B0914205EF
:103D4E00EA0FFB1FE0934505F0934605EDE3F5E022
:103D5E00FA93EA93E3E3FEE2FA93EA93E0914505E0
:103D6E00F09146050E94E2280E94302984E00E94CC
:103D7E007F2528960E948B27AE3481F40E949027CF
:103D8E00A53461F40E949527A43541F40E949A2728
:103D9E00A93421F40E949F27A03509F049C00E9442
:103DAE00B92740E050E0493CE0E05E075CF40E9439
:103DBE00BE2729F40E94C82711F40E94D1274F5F15
:103DCE005F4FF1CFED89FE89E355FC4FA081A23202
:103DDE0079F50E94D9270E94B527E9F40E94DE27C3
:103DEE000E94B527C1F40E94E3270E94B52799F4DB
:103DFE00ED89FE890E94AA2771F4ED89FE89ED54A2
:103E0E00FC4F0E94B52739F4ED89FE89EC54FC4F26
:103E1E000E94B52709F006C0E0E0E0932205E0938A
:103E2E00230506C0E1E0F0E0E0932205F0932305C0
:103E3E000E948B27A43481F40E949027A53461F44C
:103E4E000E949527A63541F40E949A27A93421F4A1
:103E5E000E949F27A43409F03AC00E94B9270E94FD
:103E6E00E82740E050E0493CE0E05E075CF40E9449
:103E7E00BE2729F40E94C82711F40E94D1274F5F54
:103E8E005F4FF1CF0E94F827A081A23201F5ED8994
:103E9E00FE89E355FC4FA081E0911805EA1789F4DD
:103EAE000E94D927A081E0911905EA1751F40E94CA
:103EBE00DE27A081E0911A05EA1719F40E94E32784
:103ECE00A081E1E0F0E0E0934905F0934A050E94FD
:103EDE008B27A73481F40E949027A03561F40E94AD
:103EEE009527A23541F40E949A27AD3421F40E9401
:103EFE009F27A33409F024C10E94B92740E050E067
:103F0E00493CE0E05E0744F5FA01A98DBA8DEA0F4F
:103F1E00FB1FE455FC4FA081AC32D9F40E94C82798
:103F2E0011F40E94D127AF89B88D129739F4E98D1B
:103F3E00FA8DE40FF51F3196EB8BFC8BAF89B88DA4
:103F4E00199739F4E98DFA8DE40FF51F3196E98B47
:103F5E00FA8B4F5F5F4FD4CFE3E0EA938CD8E4E067
:103F6E00EA9389D8E5E0EA9386D80E94F8270E9462
:103F7E00B527FF2352F03A9744F4ED89FE89319626
:103F8E00AB89BC89EA17FB0709F481C0ED89FE896C
:103F9E000E94A427EE83AE81A03010F0AA3008F064
:103FAE0005C0EE81A0E8B0E00E9448290E94E327F8
:103FBE000E94B527EE83AE81A03010F0AA3008F033
:103FCE0005C0EE81A2E8B0E00E9448290E94DE27DB
:103FDE000E94B527EE83AE81A03010F0AA3008F013
:103FEE0005C0EE81A4E8B0E00E9448290E94D927BE
:103FFE000E94B527EE83AE81A03010F0AA3008F0F3
:10400E0005C0EE81A6E8B0E00E944829ED89FE8940
:10401E00E355FC4F0E94B527EE83AE81A03010F021
:10402E00AA3008F004C00E940F26EB87FC870E947E
:10403E00F8270E94B527EE83AE81A03010F0AA308B
:10404E0008F004C00E940F26ED87FE87ED85FE85E1
:10405E00AAE0B0E00E94EF28AB85BC85EA0FFB1FFB
:10406E00E987FA873597EF83F887A885AA234AF45C
:10407E007896EF83F8870E94FD270E9402280E94FF
:10408E0009280E94FD270E9402280E940928EB8918
:10409E00FC89E455FC4FE081F0E0E0932405F093B9
:1040AE002505E7E3FEE2FA93EA93E0912405F09109
:1040BE0025050E94E2280E94302984E00E94AF2547
:1040CE0026960E941028FF2312F03A970CF038C063
:1040DE000E941028AEE8B0E00E941528E355FC4F70
:1040EE000E94B527ACE8B0E00E941528E255FC4FBF
:1040FE000E94B527A2E9B0E00E941528E155FC4FB9
:10410E000E94B527A0E9B0E00E941528E055FC4FAB
:10411E000E94B527A6E9B0E00E9415280E94A427A8
:10412E00A4E9B0E00E944829AF81B885539744F0C6
:10413E000E941A28F0E03197ACE8B0E00E944829BE
:10414E000F5F1F4FD9CC88246624F19A00E010E04F
:10415E00083CE0E01E073CF4ABEAB3E00E941F28E7
:10416E000F5F1F4FF5CF0E9460296B96089500E0F8
:10417E0010E0E0E8E0936100E0E0E0936100EFEF33
:10418E00E7B9E2B9E0EFE1B9E0E0E5B9EFEFE4B9A4
:10419E00E0E0EBB9E0EFEAB9E0E0E093C000E8E977
:1041AE00E093C100E6E0E093C200E0E0E093C500DA
:1041BE00E5E0E093C400E0E0E4BDE5E0E5BDE0E06D
:1041CE00E6BDE7BDE8BDE1E0E0936E000E94FE179C
:1041DE00EAE0F0E00E9424280E942A28E0EFF9E0AD
:1041EE000E942E280E94ED250E9431280E9436281A
:1041FE00E0EDF7E00E942428E0EFFDE00E942E287B
:10420E000E94ED25EDE2F0E0FA93EA930E94362843
:10421E00E3E1F5E0FA93EA93E7E3F0E00E943C284D
:10422E00EDE0F3E0FA93EA93EBE3F0E00E944A2824
:10423E000E944D28E8E1F5E0FA93EA93E2E5F0E01A
:10424E000E944A280E944D28E1E1F3E0FA93EA9396
:10425E00E8E2F0E00E9455280E944D28E0EDF7E0DC
:10426E000E9424280E94D926EF3F79F4AAE8B0E0F4
:10427E00E0E00E9448290E94C8260E94B2260E94B1
:10428E00D3260E94BD260E94AC260E945C28EF3FDA
:10429E0041F40E941A28EF3F21F40E946128EF3F5B
:1042AE0009F019C0ACE8B0E0E0E00E944829AEE8A1
:1042BE00B0E00E944829A0E9B0E00E944829A2E996
:1042CE00B0E00E944829A4E9B0E00E944829A6E97E
:1042DE00B0E00E944829A8E2B0E00E943C29EF3FDE
:1042EE0031F4A8E2B0E0E0E00E94482904C0A8E260
:1042FE00B0E00E943C29E0935705AAE2B0E00E948C
:10430E003C29E33038F0AAE2B0E0E0E00E94482910
:10431E00E093580500E010E0003AE0E01E073CF4A0
:10432E00A3E7B4E00E941F280F5F1F4FF5CF7894CC
:10433E000E9457270E9436270E945C270E949326D0
:10434E0086E695E00197F1F7C7DB9924CC24BB24D0
:10435E00E1E0F0E0E0934905F0934A05F19902C0DF
:10436E00BBDBF19AAA92EFE4F0E00E945528E0E060
:10437E00EA93E1E0EA930E944A1941DA9ADA16DBEF
:10438E0043DB7FDBA0914905B0914A05119711F0EF
:10439E000C94E023A0912205B0912305119711F4FE
:1043AE00E5E401C0E0E2EA93E3E1F0E00E942E28AA
:1043BE00E1E0EA93EA930E944A19E0913C05E0306D
:1043CE0011F00C945922E8E2F5E0FA93EA93E8E44E
:1043DE00FEE2FA93EA930E94D9260E941E270E94BB
:1043EE00CE260E941E270E94C3260E941E270E94D0
:1043FE00B8260E941E270E948E260E941E270E940B
:10440E0084260E941E2788E10E947F256C960E94BA
:10441E008426E0934B050E948E26E0934C050E9465
:10442E00B826E0934D050E94C326E0934E050E94E8
:10443E00CE26E0934F050E94D926E09350050E94A8
:10444E001A28E0935105AEE8B0E00E943C29E093B3
:10445E0052050E945C28E0935305A2E9B0E00E9449
:10446E003C29E09354050E946128E0935505A6E986
:10447E00B0E00E943C29E0935605E0915705A8E272
:10448E00B0E00E944829E0915805AAE2B0E00E94EF
:10449E004829E8E2F5E0FA93EA93E7E0F0E00E94BB
:1044AE003C2839C1A0913C05A130F9F40E94E827BF
:1044BE000E9486270E94C728EDE3F5E0FA93EA935F
:1044CE00E0E3F0E00E946628E0E0EA93E2E0EA939F
:1044DE00E1E0EA930E94D0190E942A28E0EDF7E06D
:1044EE000E946D280E94E82713C1A0913C05A230BE
:1044FE0011F00C94C3220E94E8270E9486270E9486
:10450E00C728EBE1F3E00E944A280E947128E4EFED
:10451E00F1E00E946D28ECE2F3E0FA93EA93EDE20B
:10452E00F0E00E9476280E947D28EEE2F3E0FA93F6
:10453E00EA93E5E3F0E00E9476280E947D28E0E30E
:10454E00F3E0FA93EA93EDE3F0E00E9476280E94FE
:10455E007D28E2E3F3E0FA93EA93E5E4F0E00E94CB
:10456E007628E4EFF1E00E946D280E942A280E942E
:10457E0080280E94E827CCC0A0913C05A330B9F456
:10458E000E94E8270E9486270E94C728E4E3F3E0F2
:10459E00FA93EA93ECE1F0E00E9466280E944D281F
:1045AE000E942A280E9480280E94E827B1C0A0916C
:1045BE003C05A430B9F40E94E8270E9486270E9489
:1045CE00C728EDE3F3E00E948328E3E0F0E0FA93DE
:1045DE00EA930E944D280E942A280E9480280E9459
:1045EE00E82796C0A0913C05A530E9F40E94E82783
:1045FE000E9486270E94C728E9E4F3E00E948328E0
:10460E000E947128E4E5F3E00E948328E4E0F0E0E4
:10461E00FA93EA930E944D280E942A280E9480282D
:10462E000E94E82775C0A0913C05A63099F40E941F
:10463E00E8270E9486270E94C728E0E6F3E00E9442
:10464E0083280E9471280E942A280E9480280E9496
:10465E00E8275EC0A0913C05A73011F00C94922380
:10466E000E945F18E9E7F3E0FA93EA93EEE1F0E0D7
:10467E000E942E280E944D28E3E7F4E00E942E2887
:10468E000E9486270E944D28E8EBFBE00E946D28D1
:10469E00049B08C0039B06C0029B04C0019B02C082
:1046AE00009901C003C00E947B27F2CF0E945F18C1
:1046BE000E947B27A0915805A13049F40E94312712
:1046CE000E9436270E943B27E2E8F3E00AC00E94D0
:1046DE0057270E9436270E945C270E946B27E8E826
:1046EE00F3E0FA93EA93ECE2F0E00E9455280E9480
:1046FE004D280E949C2600E010E0003AE0E01E07E4
:10470E003CF4A3E7B4E00E941F280F5F1F4FF5CFC4
:10471E00E0E0E0933C050E948628A134E0E0BE076D
:10472E0019F4E0EFFDE10BC00E948628A635E0E00B
:10473E00BE0719F00E948628D997E0EFF1E2FA93AE
:10474E00EA93EFE5F0E00E942E280E9431280E94A5
:10475E0086270E948A1AE0E3F5E0FA93EA93E8EBE3
:10476E00FEE2FA93EA93A6E9B0E00E948B280E943B
:10477E0061280E941E27A2E9B0E00E948B280E94A9
:10478E005C280E941E27AEE8B0E00E948B280E9493
:10479E001A280E941E2788E1ABD16C96E0E3F5E063
:1047AE00FA93EA93E2E2F0E00E944A280E944D2832
:1047BE0012C0EFE8F3E0FA93EA93EEE1F0E0FA9339
:1047CE00EA930E947128E8E9F3E0FA93EA93EFE0A6
:1047DE00F0E00E947628E0EFF5E1FA93EA93E9E63D
:1047EE00F0E00E944A280E9431280E943628B6CD59
:1047FE00FFCFE091C000E072E1F3E881E093C600E4
:10480E0021960895EA81EA93F4DFA881B9810E9486
:10481E000926239608951A930A93AA81BB811296AC
:10482E000E942829309729F1AA81BB8114960E94F3
:10483E0028298F01309761F00230E0E01E07C0F0AA
:10484E00F80131978F01AA81BB811496ED93FC93E9
:10485E00AA81BB8112960E9409263197AC81A08352
:10486E00AA81BB810E942829FF2312F00E940926EB
:10487E0006C0AA81BB81EFEFFFEFED93FC93198188
:10488E0008812596089526970E94592910E0AC8537
:10489E00BD85E0E0F0E0ED93FC93EA89FB8931966B
:1048AE00EA8BFB8B3197E4912E2FE03011F40C94B0
:1048BE007725E12FE03039F4253211F411E002C0F2
:1048CE000E948E280CC1E130A9F4253219F40E9401
:1048DE008E2804C112E040E000E02D3211F401E018
:1048EE00FEC02B3211F44BE2FAC0203211F440E23A
:1048FE00F6C002C0E23039F450E013E0203311F478
:10490E000068EDC004C0E33011F00C94762520331E
:10491E0010F02A3308F007C0AAE05A9F502DE22F5C
:10492E00E0535E0FDCC0E22FE33649F40E94972875
:10493E00E889F989A481AA930E949D28CFC0E33704
:10494E0041F40E9497280E94A5280E94D0251E2F70
:10495E000AC0E03761F40E9497280E94A5280E94A1
:10496E00DA251E2F086002600F7730E035C0E4367E
:10497E0011F0E93611F4046002C0E53731F4E0E4D9
:10498E00FDE2EE83FF8315E00DC0E83511F40860FB
:10499E0004C0E83711F00C947525EAE4FDE2EE83CD
:1049AE00FF8314E002FF14C00E9497280E94AF28D4
:1049BE00AB85AA233AF4EA85FB850E94D728EA87BD
:1049CE00FB874DE2403011F01F5F01C00B7F04C02A
:1049DE000E9497280E94AF2800FD11C0151778F489
:1049EE0007FF08C002FF04C00B7F242F115001C027
:1049FE0020E301C020E20E948E285150EFCF312FCC
:104A0E0001FF17C03030A1F003FF06C0EE81FF8119
:104A1E002591EE83FF8305C0AE81BF812D91AE83BC
:104A2E00BF830E948E28503009F051503150EACF8A
:104A3E004BC020E3EE81FF810E942C29E887F98785
:104A4E00EE81FF813296EE83FF83E885F985AA8594
:104A5E00BB85AE17BF0750F02F5FA885B985EA85D5
:104A6E00FB85EA1BFB0BEA87FB87EFCF2A3328F087
:104A7E0003FF02C0295F01C0295D04FD1AC0213366
:104A8E0020F4A885B985119709F409C0531710F0C1
:104A9E0000FF01C013C020E207FF0BC020E300613E
:104AAE0002FF07C00B7F4A930E949D28503009F0E9
:104ABE0051500E948E28503009F051503150A88527
:104ACE00B985129708F0B5CF00FF08C0503031F00D
:104ADE005150E0E2EA930E949D28F8CF10E0DDCE1F
:104AEE00AC85BD850E9428290E9460296496089590
:104AFE00FF92F82E26970E945B290E94B7283097C6
:104B0E0019F4EFEFFFEF1FC0DE0116960E94D328B7
:104B1E008D010E94B728EE83FF83E0E0E887E987E6
:104B2E00DE011A960E94BE28E2E1F4E2FA93EA93BD
:104B3E00FE013A96FA93EA93A6DE9F01AE81BF81FB
:104B4E00E0E0EC93F9010E9462292A96FF90089505
:104B5E00FF92F82E26971A930A93DE0114960E945E
:104B6E00D3288D01E0E0EC83ED83EE83EF83DE014D
:104B7E0018960E94BE28E9E0F4E2FA93EA93FE0149
:104B8E003896FA93EA937FDE198108812896FF9072
:104B9E000895A991B991EE27FF276D91662311F023
:104BAE003196FBCF0895AA27BB27E991F99105907D
:104BBE00002011F01196FBCFFD010895FA93EA93B0
:104BCE000C940618FA93EA930C942218E0E0F0E0A5
:104BDE00FA93EA930895EC81F0E0FA93EA930C9439
:104BEE002D18E12FF0E00895AE81BF81EE27A10FC1
:104BFE00BE1FEC910895FE01E95BFF4F0190F0811D
:104C0E00E02D0895ED91FD913196FE93EE9308956A
:104C1E00EE81F0E00895E091A603F091A703E15C28
:104C2E00F040A6E0B0E00E94E728E458F74F089560
:104C3E00E15CF040A6E0B0E00E94E728E458F74FB0
:104C4E000895F0E0FA93EA930895F0E0EA0FFB1F5F
:104C5E000895FA93EA93EE81FF810895FA93EA9309
:104C6E00EE81EA930C94B818E985FA85FA93EA93E3
:104C7E000E94D025A12FB0E0AE17BF070895A985D9
:104C8E00BA85AE0FBF1F0895E885F985FA93EA93AA
:104C9E000895EA93E985EA930C944A19EA81F0E0C3
:104CAE00E7FDFFEF3896DF01EB81F0E00E94EF2881
:104CBE000895EB81A8E0EA02F0010895EB81F0E09F
:104CCE00AD81BE81EA0FFB1FED83FE830895A9859A
:104CDE00BA85EA0FFB1FA1810895EC81A8E0EA02D4
:104CEE00F001A885B985AE1BBF0BBA93AA93CCCFA2
:104CFE00AE1BBF0BAF83B8870895A0E8B0E00E944B
:104D0E003C290895EF5F0E944829E1500895A2E8DA
:104D1E00B0E00E943C290895E8E6FDE2FA93EA939A
:104D2E0080E00E94AF2522960895E6E7FDE2FA9311
:104D3E00EA9380E00E94AF2522960895FA93EA93B3
:104D4E0080E00E94AF2522960895A0E8B0E0E0E052
:104D5E000E9448290895A2E8B0E0E0E00E944829A8
:104D6E000895A4E8B0E00E943C290895A4E8B0E0BC
:104D7E00E0E00E9448290895A6E8B0E00E943C2990
:104D8E000895A6E8B0E0E0E00E9448290895A8E85A
:104D9E00B0E00E943C290895A8E8B0E0E0E00E944F
:104DAE0048290895AAE8B0E00E943C290895E4E657
:104DBE00F0E0FA93EA930C94C728FA93EA93E8E1A9
:104DCE00F5E0662777270E943029E0915205FF27EC
:104DDE00662777270E943029E0915105FF27662725
:104DEE0077270E943029E0915405FF276627772701
:104DFE000E943029E0915305FF27662777270E94EE
:104E0E003029E0915605FF27662777270E94302923
:104E1E00E0915505FF27662777270E943029E091FC
:104E2E005005FF27662777270E943029B0CFFF272E
:104E3E00662777270E94302908950E94A81BE8EC68
:104E4E00F0E0FA93EA930C94C728F0E0E130A0E08A
:104E5E00FA070895E0EFF9E1FA93EA93B7CEE5E0A9
:104E6E00F0E0FA93EA930895E3E2F0E0FA93EA931E
:104E7E00E7E0F0E0FA93EA930C948A1AFA93EA9335
:104E8E00ECE2F0E0FA93EA93E7E0F0E0FA93EA93CB
:104E9E00E0E0EA93E1E0EA93EFEFEA930C94D019A5
:104EAE00E0EFF1E1FA93EA9391CEE9E1F0E0FA93C3
:104EBE00EA93E7E0F0E0FA93EA930C948A1AEFE0B3
:104ECE00E0931F05E0E00895E0E2EA93EFE4F0E0FE
:104EDE00FA93EA93E7E0F0E0FA93EA93E0E0EA93DC
:104EEE00E1E0EA930C944A19E8ECF0E0FA93EA93C5
:104EFE000C94C728E4E1F0E0FA93EA930895E1E018
:104F0E00F0E0FA93EA930895F801E555FC4FA0817D
:104F1E000895F801E455FC4FA0810895F801E3557A
:104F2E00FC4FA0810895F801E255FC4FA081089531
:104F3E00F801E155FC4FA0810895EF54FC4FE0813C
:104F4E00F0E0F0970895EE54FC4FE081F0E0F0971A
:104F5E000895E0932605F09327050895E081F0E08B
:104F6E00F0970895F8013496E98FFA8F0895FA01B3
:104F7E00A98DBA8DEA0FFB1FE455FC4FA081AA3311
:104F8E000895EF89F88D3196EF8BF88FAF89B88D34
:104F9E0011970895E98DFA8DE40FF51F3196ED8B7B
:104FAE00FE8B0895ED89FE89E255FC4F0895ED893B
:104FBE00FE89E155FC4F0895ED89FE89E055FC4FC1
:104FCE000895E2E0EA930E944218E3E0EA930E9419
:104FDE004218E4E0EA930E944218E5E0EA930C944A
:104FEE004218ED89FE89E455FC4F0895AF81B885CE
:104FFE00EAE0F0E008950E940C29A8E8B0E00E94D3
:10500E004829F4CF0E940729AAE8B0E00E94482957
:10501E000895E989FA89E455FC4FA0CF0E944829EA
:10502E00E989FA890895ACE8B0E00E943C29089518
:10503E00A00FB11FE0E0EC930895FA93EA930E945B
:10504E00C7280C945F180E94A81B0C94A81BFA93F7
:10505E00EA93BCCDEFE7F0E0FA93EA930895E7E028
:10506E00F0E0FA93EA930C948A1AFA93EA93E2E048
:10507E00F0E0FA93EA93E0E0EA93E2E0EA93EFEFEE
:10508E00EA930C94D019FA93EA93E9CEE0E0EA930E
:10509E00E1E0EA93EFEFEA930C94D019FA93EA93D6
:1050AE00E7E0F0E0FA93EA930895A0E9B0E00E94F9
:1050BE003C290895A4E9B0E00E943C290895FA9392
:1050CE00EA93E3E0F0E0FA93EA930895FA93EA9311
:1050DE000C94C728E2E0F0E0FA93EA93D7CFFA9364
:1050EE00EA93E4E0F0E0FA93EA93D0CFECE2F1E059
:1050FE00EDCFE8EEF3E0EACFFA93EA93FBCEA09180
:10510E002405B091250508950E943C2990CE2A933E
:10511E00ED85FE85FA93EA93E989FA890995089552
:10512E00E889F9893497E88BF98B0895ED85FE852A
:10513E00FA93EA93E989FA8909950895A889B989B4
:10514E0014960E942829EE83FF83FA93EA9308951A
:10515E00A889B98914960E942829EA87FB870895A1
:10516E00DE011C960E94D3280E94282908950E94D1
:10517E00D3280E942829FA93EA931A930A93089542
:10518E00E991F991309639F08DEC9AE00197F1F7AB
:10519E00A8953197C9F708950024AF0DB01D089555
:1051AE00F195E195F0400895EE0FFF1FEE0FFF1FF2
:1051BE00EE0FFF1F08956F2F660F660B762F089563
:1051CE00FA9FF02DEB9FF00DEA9FE02DF10D089563
:1051DE002AD0F6DF0EF4E4DF08950024112490E1C6
:1051EE00AA0FBB1F001C111C0E1A1F0A18F40E0E5C
:1051FE001F1E01C0A1609A9599F7FD01D001089577
:10520E0012D0EBDF0EF4CCDF0895E894B7FF04C0A4
:10521E00A095B09511966894F7FDC2DFDEDFFD0113
:10522E000EF4BEDF0895E894F7FF02C0B9DF68946C
:10523E00B7FF06C0A095B095119600F8039400FA3A
:10524E000895ED91FC91119708950590F491E02D3C
:10525E0008957A936A93FA93EA9308951B2EBF2FBB
:10526E00F12D1A2EAE2FE12D0895F999FECFFF9351
:10527E00FFB7F894A1BDB2BDF89AE0B5FFBFFF919C
:10528E000895F99B02C0A895FCCF9FB7F894A1BDD5
:10529E00B2BDF89A80B5E81719F0E0BDFA9AF99AFE
:1052AE009FBF08955A934A933A932A931A930A9357
:1052BE0008955D814C813B812A8119810881089571
:00000001FF
