:0A0000000C94A8170C9400000C9457
:10000A0000000C9400000C9400000C9400000C9466
:10001A0000000C9400000C9400000C9400000C9456
:10002A0000000C9400000C9400000C9400000C9446
:10003A0000000C9400000C9400000C9400000C9436
:10004A00CD1A0C9400000C94A21A0C9400000C9483
:10005A0000000C9400000C9400000C9400000C9416
:10006A0000000C9400000C9400000C9400000C9406
:10007A000000000000000000000000000000000076
:10008A000000000000000000000000000000000066
:10009A000000000000000000000000000000000056
:1000AA000000000000000000000000000000000046
:1000BA000000000000000000000000000000000036
:1000CA000000000000000000000000000000000026
:1000DA000000000000000000000000000000000016
:1000EA000000000000000000000000000000000006
:1000FA0000000000000000000000000000000000F6
:10010A0000000000000000000000000000000000E5
:10011A0000000000000000000000000000000000D5
:10012A0000000000000000000000000000000000C5
:10013A0000000000000000000000000000000000B5
:10014A0000000000000000000000000000000000A5
:10015A000000000000000000000000000000000095
:10016A000000000000000000000000000000000085
:10017A000000000000000000000000004F00000026
:10018A00000000070007000000000024FF24FF24ED
:10019A00000000444AFF4A32000040231308C4C248
:1001AA000000003649552240800000000503000087
:1001BA000000003C4281000000000081423C000037
:1001CA0000000014083E081400000010107C1010F3
:1001DA0000000000281800000000000808080808AD
:1001EA0008000060600000000000402010080402BF
:1001FA000000007EFF8181FF7E00008082FEFF807A
:10020A00800000E2F191919F8E000062C3C9C9FF8C
:10021A00760000181412FFFF1000006F8F8989F909
:10022A007100007EFF8989F97200000101F1FD0762
:10023A0003000076FF8989FF760000468F8989FFCF
:10024A007E000000666600000000000056360000CE
:10025A000000000814224100000000242424242461
:10026A0000000000412214080000000201B1090642
:10027A000000006291F1817E000000FE111111FE62
:10028A00000000FF898989760000007E8181814211
:10029A00000000FF8181423C000000FF89898981BA
:1002AA00000000FF090909010000007E8191917296
:1002BA00000000FF101010FF0000000081FF810005
:1002CA000000004080817F01000000FF1824428165
:1002DA00000000FF80808080000000FF020C02FF07
:1002EA00000000FF040810FF0000007E8181817E6B
:1002FA00000000FF1111110E00007E81A141BE0015
:10030A00000000FF1131518E000000868989897131
:10031A000000000101FF01010000007F8080807F52
:10032A000000003F4080403F0000003FC060C03FE7
:10033A00000000E3140814E30000000708F00807AF
:10034A00000000C1A1918987000000FF818100009F
:10035A0000000015167C161500000041417F0000C0
:10036A000000000402010204000000404040404036
:10037A0000000001020400000000006094949478D8
:10038A00000000FF88888870000000788484840058
:10039A00000000788484887F000000789494945840
:1003AA0000000010FE1101020000000C9292927EE1
:1003BA00000000FF100808F00000000084FD800023
:1003CA000000006080807D00000000FF304884004B
:1003DA000000000081FF8000000000FC043804F8DF
:1003EA00000000FC080404F8000000788484847883
:1003FA00000000FC1414140800000008141418FC6F
:10040A00000000FC0804040800000088949494602A
:10041A00000000047F8480400000007C808040FC53
:10042A000000003C4080403C0000003EC060C03EEE
:10043A000000004224182442000000068888887EB2
:10044A00000000C4A4948C84000000087681000097
:10045A000000000000FF0000000000817608000094
:10046A0000000008082A1C08000000081C2A0808C6
:10047A000000007C8281827C0000000000000000F5
:10048A000000000000000000000000000000000062
:10049A000000000000000000000000000000000052
:1004AA000000000000000000000000000000000042
:1004BA000000000000000000000000000000000032
:10087A000000C1C1C1C10000C2C2FEFE0100C3C363
:10088A001F1F0100C4C4FCFC0100C5C5C5C5010188
:10089A00C6BDBFBE0101C7C7C0C00100C8828483EC
:1008AA000101C9C9FDFD0100CA8587860101CB88FE
:1008BA008A890101CC8BCC8B0101CD8CCD8C0101B5
:1008CA00CE11CE110101CFCF13130100D0D08F8FDB
:1008DA000100D1D11B1B0100D2D291910100D39208
:1008EA0094930101D49597960101D5179A9901011C
:1008FA00D69B9D9C0101D7D7D7D70000D8D89E9EFA
:10090A000101D9D99F9F0101DAA0A2A10101DBA3AC
:10091A00A5A40101DCDCDCDC0000DDA6A8A701013E
:10092A00DEA9ABAA0101DFACAEAD0101E0E0E0E077
:10093A000000E1AFB1B00101E2E2E2E20000E3B29D
:10094A00B4B30101E4B5B7B60101E5B8BAB901011A
:10095A00E6E6BCBC0100E7E7E7E70000E8E8E8E80C
:10096A000000E9E9E9E90000EAEAEAEA0000EBEB5B
:10097A00EBEB0000ECBDBFBE0101EDBDBFBE010146
:10098A00EEEEEEEE0000EFEFEFEF0000F0F0F0F029
:10099A000000F1F1F1F10000F2F2F2F20000F3F3DB
:1009AA00F3F30000F5F5F5F50000F6F6F6F60000AB
:1009BA00F7F7F7F70000F8F8F8F80000FBF9FBFA88
:1009CA000101BBBBF4F40100811C1E1D010190183A
:1009DA001A1901019814161501018E8E12120100BE
:1009EA008D108D10010100C0F030381818181898B1
:1009FA00B0B0303030606060606060C0C0C0C0C0FD
:100A0A00C0C08080808080000000000000000000DC
:100A1A0000000000000000000000000000000000CC
:100A2A0000000000000000000000000000000000BC
:100A3A0000000000000000000000000000000000AC
:100A4A00000000000000000000000000000000009C
:100A5A00000000000000000000000000000000008C
:100A6A0000000000000000FFFF00000C18F0E70F74
:100A7A00FD0F070000000000000000000000000059
:100A8A00000001010181838383C3E767E6C6060E7E
:100A9A000C0C0C0C0C1818187870E0C00000000040
:100AAA0000E0E0000000000080C0E06000E0E060DC
:100ABA006060606060E0C000000080C06060C0806C
:100ACA00000000E0E0606060606060C080000000DC
:100ADA0080C06060C0800000000080C0606060600C
:100AEA0060C08000000000FFFF00000000FFFF0060
:100AFA00FF00000000000000000000000080C0604D
:100B0A0030188CC66331180808090B0B0B09080842
:100B1A00080808081C3E363E1C00FFFF00000000C3
:100B2A0000FFFF70F88C8E070301000000FFFFE052
:100B3A00E0E06060607F3F00FEFF616060606061CE
:100B4A00FFFE00FFFF000000000000FFFF00FEFFA5
:100B5A00616060606061FFFE00FFFF00000000004E
:100B6A0000000100000000FFFF00000000FFFF007E
:100B7A003F3030303030303030180CC6E331180C8A
:100B8A000603010000000000000000000000000051
:100B9A0000000000000000000000FFFF000000004D
:100BAA00003F3F00000103070E1C3830003F3F00A2
:100BBA00000103070E3C38003F3F00000000000020
:100BCA003F3F003F3F3030303030301F0F003F3F53
:100BDA000000000000003F3F000F1F30303030306F
:100BEA0030381800000000FFFF00000000FFFF007F
:100BFA00FF0303030303030303060C193366CC98AC
:100C0A003060C0800000000000000000000000000A
:100C1A0000000000000000000000FFFF00000000CC
:100C2A0000000000000000000000000000000000BA
:100C3A0000000000000000000000000000000000AA
:100C4A00000000000000000000000000000000009A
:100C5A00000000000000000000000000000000008A
:100C6A0000000000000000FFFF00000000FFFF007E
:100C7A00FF0000000000000000000000000000016A
:100C8A0003060C193366444444E4F4B4F4E404045B
:100C9A00040404040E1F1B1F0E00FFFF000000FCCB
:100CAA000000000000F8040404F8000C040404FC2A
:100CBA0000F0888488F00080808000FC848404042A
:100CCA0000F80404040800FC000000FC00F088841A
:100CDA0088F000FC040404F800F8040404F800FC9A
:100CEA0044C44438000000FFFF00000603011C3E14
:100CFA00373E1C00000000000080808080C0C0C019
:100D0A00C0C0E06060603030303031391918181CCA
:100D1A000C0C0C0C0E060606070301000000000F5F
:100D2A00080808080007080808070006080808074E
:100D3A00000F0000000F00000000000F080808085C
:100D4A00000708080804000708080807000F000041
:100D5A00000F000F08080807000708080807000F17
:100D6A000000010E0000000107060E0C0C0C0C0C12
:100D7A00060606060303030303010101010100003D
:100D8A000000000000000000000000000000000059
:100D9A000000000000000000000000000000000049
:100DAA000000000000000000000000000000000039
:100DBA000000000000000000000000000000000029
:100DCA000000000000000000000000000000000019
:100DDA000000000000000000000000000000000009
:100DEA0000000000000000000000000000000000F9
:100DFA0000000000000000000000000000000000E9
:100E0A0000000000000000000000000000000000D8
:100E1A0000000000000000000000000000000000C8
:100E2A0000000000000000000000000000000000B8
:100E3A0000000000000000000000000000000000A8
:100E4A000000000000000000000000000000000098
:100E5A000000000000000000000000000000000088
:100E6A000000000000000000000000C0E0F0F0F800
:100E7A00F8F8F8F8FCFCFCFCFCFCFCFCFCFCFCFCB8
:100E8A00FCFCFCFCFCFCFCFCF8F8F8F8F8F0E0E0F0
:100E9A00C000000000000000000000000000000088
:100EAA000000000000000000000000000000000038
:100EBA000000000000000000000000000000000028
:100ECA000000000000000000000000000000000018
:100EDA000000000000000000000000000000000008
:100EEA0000000000000000000000FEFFFF030103F5
:100EFA0003030303030303030303030303FFFF03C0
:100F0A0003010303030303030303030303030307A5
:100F1A00FFFE0000000000000000000000000000CA
:100F2A0000000000000000000000000000000000B7
:100F3A0000000000000000000000000000000000A7
:100F4A000000000000000000000000000000000097
:100F5A000000000000000000000000000000000087
:100F6A0000000000000000000000FFFFFFC0C0C03A
:100F7A00C0C0C0C0C0C0C0C0C0C0C0C0E0FFFFE0A9
:100F8A00C0C0C0E0D0C8C4C4C4C4C8D0E0C0E0F087
:100F9A00FFFF000000000000000000000000000049
:100FAA000000000000000000000000000000000037
:100FBA000000000000000000000000000000000027
:100FCA000000000000000000000000000000000017
:100FDA000000000000000000000000000000000007
:100FEA0000000000000000000000FFFFFFFFFFFFFD
:100FFA00FFFFFFFFFFFFFFFFFFFFFFFFFFFFFFFFF7
:10100A00FFFFFFFFFFFFFFFFFFFFFFFFFFFFFFFFE6
:10101A00FFFF0000000000000000000000000000C8
:10102A0000000000000000000000000000000000B6
:10103A0000000000000000000000000000000000A6
:10104A000000000000000000000000000000000096
:10105A000000000000000000000000000000000086
:10106A00000000000000000000003FFFFFE1E1E196
:10107A00E1FFFFFFF9D9D9D9D9D9D9D9D9D9D9D93C
:10108A00D9D9D9D9D9D9C9FBFFFFFFE1E1C1E1F724
:10109A00FF3F000000000000000000000000000008
:1010AA000000000000000000000000000000000036
:1010BA000000000000000000000000000000000026
:1010CA000000000000000000000000000000000016
:1010DA000000000000000000000000000000000006
:1010EA000000000000000000000000001F3F3F3F1A
:1010FA003F3F3F0000000000000000000000000029
:10110A0000000000000000001F3F3F3F3F3F3F1F1D
:10111A0000000000000000000000000000000000C5
:10112A0000000000000000000000000000000000B5
:10113A0000000000000000000000000000000000A5
:10114A000000000000000000000000000000000095
:1014EA000000000000000000000000F884C20202B0
:1014FA000202FE020202C2FE02020202C4F8000056
:10150A0000000000000000000000000000000000D1
:10151A0000000000000000000000000000000000C1
:10152A0000000000000000000000000000000000B1
:10153A0000000000000000000000000000000000A1
:10154A000000000000000000000000000000000091
:10155A000000000000000000000000000000000081
:10156A000000000000000000001E1F7FFFFD7C1C21
:10157A001C1C1F1C1C1C1F1F7CFCFC7C1F0F00005A
:10158A000000000000000000000000000000000051
:10159A000000000000000000000000000000000041
:1015AA000000000000000000000000000000000031
:1015BA000000000000000000000000000000000021
:10195A0000000038FC0202020202060606BAFABABF
:10196A000202FC3800000000000000000000000035
:10197A00000000000000000000000000000000005D
:10198A00000000000000000000000000000000004D
:10199A00000000000000000000000000000000003D
:1019AA00000000000000000000000000000000002D
:1019BA00000000000000000000000000000000001D
:1019CA00000000000000000000000000000000000D
:1019DA00000000003F3EFEF2F23E3E3E3F3FF3F380
:1019EA00FF3E3F0000000000000000000000000071
:1019FA0000000000000000000000000000000000DD
:101A0A0000000000000000000000000000000000CC
:101A1A0000000000000000000000000000000000BC
:101A2A0000000000000000000000000000000000AC
:101CEA000000000000000000000000F884C282DA50
:101CFA00FAE2FE020202C2FE02020202C4F8000076
:101D0A0000000000000000000000000000000000C9
:101D1A0000000000000000000000000000000000B9
:101D2A0000000000000000000000000000000000A9
:101D3A000000000000000000000000000000000099
:101D4A000000000000000000000000000000000089
:101D5A000000000000000000000000000000000079
:101D6A000000000000000000001E1F7FFFFD7C1F16
:101D7A001F1F1F1C1C1C1F1F7CFCFC7C1F0F00004C
:101D8A000000000000000000000000000000000049
:101D9A000000000000000000000000000000000039
:101DAA000000000000000000000000000000000029
:101DBA000000000000000000000000000000000019
:101DCA000000000000000000000000000000000009
:101DDA0000000000000000000000000000000000F9
:101DEA0000000000000000000000000000000000E9
:101DFA0000000000000000000000000000000000D9
:101E0A0000000000000000000000000000000000C8
:101E1A0000000000000000000000000000000000B8
:101E2A0000000000000000000000000000000000A8
:101E3A000000000000000000000000000000000098
:101E4A00000000000000E01090908000F090909058
:101E5A00600060909010000000002070F870200070
:101E6A00807800FC00000000000000000000000074
:101E7A000000000000000000000000000000000058
:101E8A000000000000000000000000000000000048
:101E9A000000000000000000000000000000000038
:101EAA000000000000000000000000000000000028
:101EBA000000000000000000000000000000000018
:101ECA0000000000000003040404030007000000EF
:101EDA00000004040403000000101414141412096E
:101EEA00040A351808000000000000000000000085
:101EFA0000000000000000000000000000000000D8
:101F0A0000000000000000000000000000000000C7
:101F1A0000000000000000000000000000000000B7
:101F2A0000000000000000000000000000000000A7
:10224A00000000000000E01090908000F090909054
:10225A006000609090100000000000000000000084
:10226A00807800FC00000000000000000000000070
:10227A000000000000000000000000000000000054
:10228A000000000000000000000000000000000044
:10229A000000000000000000000000000000000034
:1022AA000000000000000000000000000000000024
:1022BA000000000000000000000000000000000014
:1022CA0000000000000003040404030007000000EB
:1022DA00000004040403000000101414141412096A
:1022EA00040A351808000000000000000000000081
:1022FA0000000000000000000000000000000000D4
:10230A0000000000000000000000000000000000C3
:10231A0000000000000000000000000000000000B3
:10232A0000000000000000000000000000000000A3
:1025EA0000000000000000000000000000808000E1
:1025FA00E0E000F8F800FEFE000000000000000025
:10260A0000000000000000000000000000000000C0
:10261A0000000000000000000000000000000000B0
:10262A0000000000000000000000000000000000A0
:10263A000000000000000000000000000000000090
:10264A000000000000000000000000000000000080
:10265A000000000000000000000000000000000070
:10266A000000000000000006060007070007070038
:10267A000707000707000707000000000000000026
:10268A000000000000000000000000000000000040
:10269A000000000000000000000000000000000030
:1026AA000000000000000000000000000000000020
:1026BA000000000000000000000000000000000010
:1029EA0000000000000000000000000000808000DD
:1029FA00E0E000000000000000000000000000000D
:102A0A0000000000000000000000000000000000BC
:102A1A0000000000000000000000000000000000AC
:102A2A00000000000000000000000000000000009C
:102A3A00000000000000000000000000000000008C
:102A4A00000000000000000000000000000000007C
:102A5A00000000000000000000000000000000006C
:102A6A000000000000000006060007070007070034
:102A7A00070700000000000000000000000000003E
:102A8A00000000000000000000000000000000003C
:102A9A00000000000000000000000000000000002C
:102AAA00000000000000000000000000000000001C
:102ABA00000000000000000000000000000000000C
:102ACA0000000000000000000000000000000000FC
:102ADA0000000000000000000000000000000000EC
:102AEA0000000000000000000000000000000000DC
:102AFA0000000000000000000000000000000000CC
:102B0A0000000000000000000000000000000000BB
:102B1A0000000000000000000000000000000000AB
:102B2A00000000000000000000000000000000009B
:102B3A00000000000000000000000000000000008B
:102B4A00000000000000000000000000000000007B
:102B5A00000000000000000000000000000000006B
:102B6A00000000000000000000000000000000005B
:102B7A00000000000000000000000000000000004B
:102B8A00000000000000000000000000000000003B
:102B9A000000000000000006060007070000000011
:102BAA00000000000000000000000000000000001B
:102BBA00000000000000000000000000000000000B
:102BCA0000000000000000000000000000000000FB
:102BDA0000000000000000000000000000000000EB
:102BEA0000000000000000000000000000000000DB
:102BFA0000000000000000000000000000000000CB
:102C0A0000000000000000000000000000000000BA
:102C1A0000000000000000000000000000000000AA
:102C2A00000000000000000000000000000000009A
:102C3A00000000000000000000000000000000008A
:102C4A00000000000000000000000000000000007A
:102C5A00000000000000000000000000000000006A
:102C6A00000000000000000000000000000000005A
:102C7A00000000000000000000000000000000004A
:102C8A00000000000000000000000000000000003A
:102C9A00000000000000000000000000000000002A
:102CAA00000000000000000000000000000000001A
:102CBA00000000000000000000000000000000000A
:102CCA0000000000000000060600040404040404D6
:102CDA0004040404040404040000000000000000CA
:102CEA0000000000000000000000000000000000DA
:102CFA0000000000000000000000000000000000CA
:102D0A0000000000000000000000000000000000B9
:102D1A0000000000000000000000000000000000A9
:102D2A000000000000000000000000000000000099
:102D3A000000000000001027E80364000A000100F8
:102D4A000010000110000100C100534954553136EA
:102D5A003937000000002000002000000000415424
:102D6A0024545444455649443F0A0D0041542B43C8
:102D7A0053510A0D0041542454544E455449503F6E
:102D8A000A0D0041542454544750535152593D316D
:102D9A00302C300A0D004154245454534E444D47AC
:102DAA003D342C222424424C25732C256425642589
:102DBA006425643230256425642C256425642564E1
:102DCA002564256425642C52322C25642C25643A0A
:102DDA0058582323220D0A004154245454534E4474
:102DEA004D473D342C222424424C25732C2564253E
:102DFA0064256425643230256425642C25642564A1
:102E0A0025642564256425642C53322C31323334ED
:102E1A002C25643A58582323220D0A00525554414E
:102E2A003A0020202020202000502564002563003D
:102E3A0042555300256425643A256425643A25647D
:102E4A00256400494E4943494F2044452053455380
:102E5A00494F4E002A0046494E20525554410049D6
:102E6A004E4943494F20525554410020484120536E
:102E7A00414C49444F0044454C2053495354454D15
:102E8A0041004E4543455349544120494E4943491F
:102E9A004152204A4F524E41444100323025642566
:102EAA00642D256425642D256425640050616E74A3
:102EBA00616C6C61004E6F204175746F72697A6142
:102ECA006461000001002D4E414E0000010086039E
:102EDA00522D0400F304542D0400F804582D060062
:102EEA000003262E070006032C2E04000D033A2E9B
:102EFA00110011034D2E020022035E2E020024034C
:102F0A005E2E020026035E2E020028035E2E0900B2
:102F1A002A03602E0C003303692E0B003F03752E23
:102F2A000C004A03802E190056038C2E09006F03E9
:102F3A00B62E0E007803BF2E0C0003005C2D010094
:102F4A003905CE2E0000F894EE27EFBBF1E0F5BF6D
:102F5A00E5BFF8E1A895A4B7A77FA4BFF0936000E6
:102F6A00E09360008DE0A2E0BB27ED938A95E9F734
:102F7A0080E098E0A0E0B1E0ED930197E9F7E6ED93
:102F8A00FEE285919591009761F0A591B591059022
:102F9A001590BF01F00105900D920197E1F7FB0131
:102FAA00F0CFE0E0EEBBEFEFEDBFE8E0EEBFC0E050
:102FBA00D3E00C94CA205F9A87E38A95F1F75F9869
:102FCA0087E38A95F1F70895169A179A5E985D989D
:102FDA00EFE3E8B9F0DF08951A935E985D98A98146
:102FEA00BA81A034E0E0BE0720F4169A1798198136
:102FFA0007C0179A1698E981FA81E054F0401E2F0B
:10300A00E12FE064EF771E2F18B9D5DF18813BC096
:10301A001A935E985D98E981E86BEF7B1E2F18B9C9
:10302A00CADF188130C0EA81FB810E94DC25E88171
:10303A00F9810E94E025249608955E9A5D98E881B8
:10304A00E8B98DED90E00197F1F7B5DF2196089583
:10305A001A930A930E94E4250E94E925E0E4F0E02D
:10306A00FA93EA930E94E925169A00E010E00134E7
:10307A00E0E01E0734F4E0E0EA93DFDF0F5F1F4F62
:10308A00F6CF19810881239608951A930A9300E0CE
:10309A0010E00830E0E01E072CF40A93D9DF0F5F36
:1030AA001F4FF7CF0991199108951A93EB81FC816B
:1030BA000E94DC25E981FA810E94E02510E018309F
:1030CA0080F4ED81FE810E948928DF010E94EF25AC
:1030DA00EA0FFB1FE458FF4FE491EA93AEDF1F5F4C
:1030EA00EECF188141C10E94092920E010E0EC814D
:1030FA001E1700F500E00830D8F40E94F225F0E02F
:10310A00F595E795EC93ED81E1703E2F303021F093
:10311A000E94F225E068EC932F5FEC81E21731F40C
:10312A00ED81F0E0F595E795ED8320E00F5FE3CFC1
:10313A001F5FDDCF0E94102928960895EF972197E7
:10314A000E9409290E94F9250E94DC25FE01EB5BF9
:10315A00FF4F0190F081E02D0E94E02510E0183029
:10316A0008F50E94EF25BF010E948928DE01149606
:10317A00EA0FFB1FFA93EA93FE01E55BFF4F01900A
:10318A00F081E02D0E948928E60FF71FE458FF4FCF
:10319A00E491EA93FE01E95BFF4FE081EA93A3DF42
:1031AA001F5FDDCF00E0FE01EC5BFF4FE0810E17F1
:1031BA0010F00C94301910E0183010F00C94221909
:1031CA0030E0FE01EC5BFF4FE0813E17A0F5E32FF4
:1031DA00F0E0DE01A95BBF4F0D90BC91A02DEA0F74
:1031EA00FB1FBF01DE01AC5BBF4FAC91BB270E9446
:1031FA00EF250E949D28DB01AE0FBF1FA034E0E03F
:10320A00BE0749F4E0E4F0E0FA93EA930E94F92554
:10321A00FA93EA9308DF0E94EF250E948928DE01CB
:10322A001496AE0FBF1FEE27A00FBE1FEC91EA93B4
:10323A0004DF3F5FC6CF1F5FBFCF0E94F925FA9315
:10324A00EA93DE01A95BBF4F0E940026FA93EA9334
:10325A00EADE0F5FA8CF0E941029EF962C960895F8
:10326A00A981A13011F00C94B1190E940626E13807
:10327A00A0E0FA0711F4EAEF17C0E039A0E0FA0774
:10328A0011F4EBEF11C0E839A0E0FA0711F4ECEF02
:10329A000BC0EE38A0E0FA0711F4EDEF05C0ED38E7
:1032AA00A0E0FA0711F4EEEFEE83AE81A13CB0F094
:1032BA00A0918603B0918703A13CE0E0BE0774F0B9
:1032CA000E9409263596E491E03041F00E940626D4
:1032DA000E9416263496E491E03009F417C00E9441
:1032EA000926DF01E0918803F0E03196EA0FFB1F1F
:1032FA00E4910E941F26E09189030E941F26E09113
:10330A008A030E941F26D1DEE2E001C0E0E0E093DA
:10331A008803AE81A13C58F00E9406260E94162618
:10332A00DF01E09188030E942326E49101C0EE8127
:10333A00F0E00E9427260E9427260E942C260E943F
:10334A000626E0938603F0938703EC81E0938903D2
:10335A00EA81E0938A0308C00E9406260E94272673
:10336A000E9427260E942C26279608951A930A93CC
:10337A0010E000E00E94322618F4AC81A03009F077
:10338A0029C00E94EF250E943D26EC91EA930E94F3
:10339A0042260E944226E0E00E9447260E944C26CE
:1033AA00AF81B885EA0FFB1FEF83F8870E94572683
:1033BA00A0E8B0E00E94E328EA1BFB0BAF81B885C6
:1033CA00EA17FB072CF4E0E0EF83E8870E945C260B
:1033DA001F5FD0CF0E94322618F4AC81A13009F0C9
:1033EA0075C00E94EF250E943D26AC91A13E21F4B2
:1033FA000E946526A73C09F002C009EF29C00E9475
:10340A00EF250E943D26AC91A13E21F40E9465263B
:10341A00A33C09F002C007EE1BC00E94EF250E94E0
:10342A003D26AC91A13E21F40E946526A23C09F0FA
:10343A0002C008EE0DC00E94EF250E943D26AC9105
:10344A00A13E21F40E946526A53C09F001C009EEBF
:10345A00003079F00A930E946B26E1E00E94472629
:10346A001E5F0E945726AF81B8850E94762600E02B
:10347A001CC00E94EF250E943D26EC91EA930E940F
:10348A006B26E9850E9447260E94EF250E943D2669
:10349A00AC91A03219F40E944C2602C00E94572611
:1034AA00AF81B8850E9476261F5F0E945726319603
:1034BA00AF81B885AE17BF0744F40E945726A0E82B
:1034CA00B0E00E9476260E945C2684CFE1ECF0E010
:1034DA00E0938603F0938703198108812B96089558
:1034EA000E94092908851985EC81FD81E017F107F9
:1034FA0000F12A853B85EE81FF81E217F307B0F0E0
:10350A003A932A931A930A938EDDA0E8A09FF001BA
:10351A00A19FF00DE20FF31FAC85BD85EA0FFB1FDB
:10352A00E491EA938ADD2F5F3F4FE5CF0F5F1F4F8C
:10353A00DBCF0E9410292E960895EA93FA93EFB7EB
:10354A00EA931A930A931091C0000091C600E09181
:10355A00C000E07811F4F19801C0F19AE12FEC7102
:10356A0081F4E62D6394F0E0E557FC4F0083E8EC24
:10357A00E61509F466248394E8ECE81511F4882426
:10358A00F09A09911991E991EFBFF991E99118958A
:10359A000A921A92FA926A937A938A939A93AA93BC
:1035AA00BA93EA93FA93EFB7EA93E6E0E6BDA7E2A5
:1035BA00B5E00E940026A0912705B09128059B97A7
:1035CA0011F00C94871B0E947B260E948026E0E063
:1035DA00E0932705E09328050E947B26E13021F439
:1035EA000E948526E13009F002C00E948A260E94C4
:1035FA007B26E13021F40E948526E23009F004C0DE
:10360A00E6E7FDE20E9493260E947B26E13021F440
:10361A000E948526E33009F004C0EFE7FDE20E942C
:10362A0093260E947B26E13021F40E948526E4300D
:10363A0009F004C0EDE8FDE20E9493260E947B2671
:10364A00EA3010F40C94871B0E949A260E94852661
:10365A000E9480260E948526E63010F40C94871B6F
:10366A000E94A0260E94A6260E9480260E94A626C4
:10367A00EA3010F40C94871B0E94AB260E94B126F4
:10368A000E9480260E94B126E630E0F10E94B6260A
:10369A000E94BC260E9480260E94BC26EA3090F135
:1036AA000E94C1260E94C7260E9480260E94C72621
:1036BA00E23021F40E94BC26E33009F013C00E94D4
:1036CA00B126E53021F40E94A626E93009F00AC0A5
:1036DA000E948526E53021F40E947B26E93009F014
:1036EA0001C001C00FC0AAE8B0E0E0E00E94F628DD
:1036FA000E94C1260E94B6260E94AB260E94A026DE
:10370A000E949A26E991EFBFF991E991B991A9919D
:10371A009991899179916991F990199009901895DF
:10372A005C9A0E94CC265C980E94CC2608951A9333
:10373A00E981F0E0E054F0401E2F113010F0153608
:10374A0008F002C0E12F01C0E0E018812296089536
:10375A007A92EDDFE0933705E0EAFDE20E94D22695
:10376A000E940C27E0912E050E940C270E94A62693
:10377A000E940C27E0912C050E940C270E947B26B0
:10378A000E940C27E09137050E940C27E091FD0466
:10379A000E940C278CE30E94A625EE960895E2EE7D
:1037AA00FDE20E94D2260E940C27E0912E050E947B
:1037BA000C270E94A6260E940C27E0912C050E9445
:1037CA000C270E947B260E940C27E09138050E9454
:1037DA000C2788E30E94A625EA960895A0E004999A
:1037EA00A1E0A03019F4E0E0E91509F061C0E2E0D7
:1037FA00E0931C05E091FE04EF5FE093FE04E1E034
:10380A009E2E0E941227E091FE040E941A27D9F4E4
:10381A00E1E0E0933805C3DFE1E0E093FF04E0EF85
:10382A00F9E10E941F270E942227E3E2F0E00E94AA
:10383A00272756DEE0E0F3E00E942E270E94332776
:10384A000E94382734C0E230A0E0FA0781F5E0EFA1
:10385A00F1E10E941F270E942227E9E1F0E00E947D
:10386A0027273EDE0E943C27E0933805E5E0E093F7
:10387A001C0595DF0E943C27E093FD04E0E2E71572
:10388A0009F066DFE0E27E2EEA93EFE4F0E00E94C0
:10389A0027270E943327E4DCE6E0F3E00E942E2784
:1038AA000E9433270E943827E0E0E093FE0407C015
:1038BA00049B03C0E1E0E91509F001C099240895C9
:1038CA00A0E00399A1E0A03059F4E0E0EC1541F43E
:1038DA00A091FD04A03021F4A0913805A13009F08F
:1038EA0015C0E091FF04EF5FE093FF0419DFE1E008
:1038FA00CE2EA091FF04AD3010F0AF3009F403C012
:10390A00E1E0E093FF040E94412707C0039B03C044
:10391A00E1E0EC1509F001C0CC24E091FF040E941B
:10392A001A2711F4E1E447C0E230A0E0FA0711F4E3
:10393A00E2E441C0E330A0E0FA0711F4E3E43BC05B
:10394A00E430A0E0FA0711F4E4E435C0E530A0E081
:10395A00FA0711F4E5E42FC0E630A0E0FA0711F403
:10396A00E6E429C0E730A0E0FA0711F4E7E423C04F
:10397A00E830A0E0FA0711F4E8E41DC0E930A0E05D
:10398A00FA0711F4E9E417C0EA30A0E0FA0711F4E3
:10399A00EAE411C0EB30A0E0FA0711F4EBE40BC043
:1039AA00EC30A0E0FA0711F4ECE405C0EF30A0E037
:1039BA00FA0711F4E0E2AE2E0895A0E00299A1E020
:1039CA00A03059F4E0E0EB1541F4A091FD04A030D9
:1039DA0021F4A0913805A13009F015C0E091FF0447
:1039EA00E150E093FF049CDEE1E0BE2EA091FF04CB
:1039FA00A03011F4AF3009F403C0ECE0E093FF0407
:103A0A000E94412707C0029B03C0E1E0EB1509F0C1
:103A1A0001C0BB240895A0E00199A1E0A03039F4C7
:103A2A00E0E0EE1521F4A0913805A13009F028C094
:103A3A00E394E0910005EF5FE09300057A2C0E9481
:103A4A001227E09100050E941A2741F4E1E0E09371
:103A5A00FD04E4E0E0931C057BDE11C0E230A0E047
:103A6A00FA0769F40E943C27E093FD04E3E0E0933F
:103A7A001C056EDEE0E27E2EE0E0E093000507C062
:103A8A00019B03C0E1E0EE1509F001C0EE240895A0
:103A9A00E0910605F0910705E130A0E0FA0719F474
:103AAA00E0E2FBE214C0E230A0E0FA0719F4E0EF2A
:103ABA00F9E20DC0E330A0E0FA0719F4E0EFF5E20D
:103ACA0006C0E430A0E0FA0769F4E0E5FCE2FA9304
:103ADA00EA930E94E4250E94E4250E9447270E9457
:103AEA004C27FEDC08956597E0E0EB87EC87ED87CD
:103AFA00EE87EF87E88BE98BEA8B0E94072940E083
:103B0A0050E000E010E0083CE0E01E0714F00C94DE
:103B1A00B6200E945127A432B1F40E945627A4323B
:103B2A0091F40E945B27A43571F40E946027A8379C
:103B3A0051F40E946527A43731F4F801E057FC4F8D
:103B4A00A081AC3209F02EC04424E4E6E41590F0DA
:103B5A00E42DF0E0BF01ED5AFB4F0F01D801179693
:103B6A00FB01EA0FFB1FE557FC4FE081D001EC9304
:103B7A0043940BC0E1E03E2ED8011796E42D0E9433
:103B8A002326E557FC4FA2E2A083D8011796E42D1D
:103B9A000E942326E557FC4FA081A232B1F6E7E046
:103BAA00E0931C050E945127AB3281F40E945627EC
:103BBA00A33461F40E945B27A33541F40E94602775
:103BCA00A13521F40E946527AA3309F046C0F801FD
:103BDA000E946A27AAE0B0E00E949D28DF01F8014E
:103BEA000E947027EA0FFB1FEF87F88BAF85B88911
:103BFA001B9724F0AF85B8891F970CF005C0E1E048
:103C0A00F0E00E94762729C0AF85B8891F9724F073
:103C1A00AF85B88952970CF005C0E2E0F0E00E9447
:103C2A0076271BC0AF85B889529724F0AF85B8892B
:103C3A005F970CF005C0E3E0F0E00E9476270DC024
:103C4A00AF85B889909724F0AF85B889D2970CF0E0
:103C5A0004C0E4E0F0E00E9476270E945127A234D3
:103C6A0041F40E945627A53521F40E945B27A3350B
:103C7A0009F087C0F801E556FC4F0E947B27E093C4
:103C8A001805F801E456FC4F0E947B27E0931905BA
:103C9A00F801E356FC4F0E947B27E0931A05F801CE
:103CAA00E256FC4F0E947B27E0931B05A0911B055F
:103CBA00A13119F4EAE0E0931B05A0911805A1319E
:103CCA0030F0E0911805F0E03797E0931805A091DD
:103CDA001905A13130F0E0911905F0E03797E0932A
:103CEA001905F801EF55FC4FA081A13331F4F80111
:103CFA00EE55FC4FA081A83309F043C0E1E0E09300
:103D0A001C05A0911A05EAE0EA02F001DF01E09140
:103D1A001B050E942326E0932105F0932205A0911A
:103D2A001805E0E1EA02F0013197DF01E091190597
:103D3A00F0E0AE0FBF1FEAE0F0E00E949D28E0939A
:103D4A002305F0932405A0912105B0912205EA0FDD
:103D5A00FB1FE0932505F0932605EDE1F5E0FA93C4
:103D6A00EA93E3E3FEE2FA93EA93E0912505F09100
:103D7A0026050E9490280E94DE2884E00E9476256B
:103D8A0028960E945127AE3481F40E945627A53402
:103D9A0061F40E945B27A43541F40E946027A9348C
:103DAA0021F40E946527A03509F049C00E947F27A7
:103DBA0040E050E0493CE0E05E075CF40E94842762
:103DCA0029F40E948E2711F40E9497274F5F5F4FB4
:103DDA00F1CFED89FE89E357FC4FA081A23279F534
:103DEA000E949F270E947B27E9F40E94A4270E9431
:103DFA007B27C1F40E94A9270E947B2799F4ED89A9
:103E0A00FE890E94702771F4ED89FE89ED56FC4FF8
:103E1A000E947B2739F4ED89FE89EC56FC4F0E94FB
:103E2A007B2709F006C0E0E0E0930205E093030572
:103E3A0006C0E1E0F0E0E0930205F09303050E947A
:103E4A005127A43481F40E945627A53461F40E94B4
:103E5A005B27A63541F40E946027A93421F40E9409
:103E6A006527A43409F041C00E947F270E94AE272B
:103E7A0040E050E0493CE0E05E075CF40E948427A1
:103E8A0029F40E948E2711F40E9497274F5F5F4FF3
:103E9A00F1CF0E94BE27A081A23239F5ED89FE89B1
:103EAA00E357FC4FA081E091F804EA17A9F40E94B5
:103EBA009F27A081E091F904EA1771F40E94A427D0
:103ECA00A081E091FA04EA1739F40E94A927A08197
:103EDA00E091FB04EA1709F003C00E94C32705C05A
:103EEA00E0E0E0932905E0932A050E945127A734D0
:103EFA0081F40E945627A03561F40E945B27A235FF
:103F0A0041F40E946027AD3421F40E946527A3344E
:103F1A0009F024C10E947F2740E050E0493CE0E0DC
:103F2A005E0744F5FA01A98DBA8DEA0FFB1FE45723
:103F3A00FC4FA081AC32D9F40E948E2711F40E9462
:103F4A009727AF89B88D129739F4E98DFA8DE40F66
:103F5A00F51F3196EB8BFC8BAF89B88D199739F425
:103F6A00E98DFA8DE40FF51F3196E98BFA8B4F5FD5
:103F7A005F4FD4CFE3E0EA936BD8E4E0EA9368D8E2
:103F8A00E5E0EA9365D80E94BE270E947B27FF23BB
:103F9A0052F03A9744F4ED89FE893196AB89BC898F
:103FAA00EA17FB0709F481C0ED89FE890E946A2796
:103FBA00EE83AE81A03010F0AA3008F005C0EE8181
:103FCA00A0E8B0E00E94F6280E94A9270E947B2759
:103FDA00EE83AE81A03010F0AA3008F005C0EE8161
:103FEA00A2E8B0E00E94F6280E94A4270E947B273C
:103FFA00EE83AE81A03010F0AA3008F005C0EE8141
:10400A00A4E8B0E00E94F6280E949F270E947B271E
:10401A00EE83AE81A03010F0AA3008F005C0EE8120
:10402A00A6E8B0E00E94F628ED89FE89E357FC4F26
:10403A000E947B27EE83AE81A03010F0AA3008F0F0
:10404A0004C00E940626EB87FC870E94BE270E94B6
:10405A007B27EE83AE81A03010F0AA3008F004C0AE
:10406A000E940626ED87FE87ED85FE85AAE0B0E070
:10407A000E949D28AB85BC85EA0FFB1FE987FA875A
:10408A003597EF83F887A885AA234AF47896EF83B1
:10409A00F8870E94CA270E94CF270E94D6270E942B
:1040AA00CA270E94CF270E94D627EB89FC89E457AA
:1040BA00FC4FE081F0E0E0930405F0930505E7E3A7
:1040CA00FEE2FA93EA93E0910405F09105050E9455
:1040DA0090280E94DE2884E00E94A62526960E9447
:1040EA00DD27FF2312F03A970CF038C00E94DD2733
:1040FA00AEE8B0E00E94E227E357FC4F0E947B271C
:10410A00ACE8B0E00E94E227E257FC4F0E947B270E
:10411A00A2E9B0E00E94E227E157FC4F0E947B2708
:10412A00A0E9B0E00E94E227E057FC4F0E947B27FB
:10413A00A6E9B0E00E94E2270E946A27A4E9B0E05B
:10414A000E94F628AF81B885539744F00E94E7276A
:10415A00F0E03197ACE8B0E00E94F6280F5F1F4FFD
:10416A00D2CC88246624F19A00E010E0083CE0E012
:10417A001E073CF4ABE8B3E00E94EC270F5F1F4F29
:10418A00F5CF0E940E296B96089500E010E0E0E852
:10419A00E0936100E0E0E0936100EFEFE7B9E2B994
:1041AA00E0EFE1B9E0E0E5B9EFEFE4B9E0E0EBB95F
:1041BA00E0EFEAB9E0E0E093C000E8E9E093C1008B
:1041CA00E6E0E093C200E0E0E093C500E5E0E093BA
:1041DA00C400E0E0E4BDE5E0E5BDE0E0E6BDE7BD42
:1041EA00E8BDE1E0E0936E000E94E917EAE0F0E042
:1041FA000E94F1270E94F727E0EFF9E00E941F27AB
:10420A000E94E425EFE7F0E00E94272769D9E0ED54
:10421A00F7E00E94F127E0EFFDE00E941F270E94CD
:10422A00E425EDE2F0E00E9427275AD9E3EFF4E013
:10423A00FA93EA93E7E3F0E00E94FB270E94022840
:10424A00EDE0F3E0FA93EA93EBE3F0E00E9407284B
:10425A000E9433270E943827E8EFF4E0FA93EA93A2
:10426A00E2E5F0E00E9407280E9433270E943827DF
:10427A00E0EDF7E00E94F1270E94C726EF3F79F4AC
:10428A00AAE8B0E0E0E00E94F6280E94B6260E9462
:10429A00A0260E94C1260E94AB260E949A260E944E
:1042AA000A28EF3F41F40E94E727EF3F21F40E94DA
:1042BA000F28EF3F09F019C0ACE8B0E0E0E00E9437
:1042CA00F628AEE8B0E00E94F628A0E9B0E00E9425
:1042DA00F628A2E9B0E00E94F628A4E9B0E00E941C
:1042EA00F628A6E9B0E00E94F628A8E2B0E00E940B
:1042FA00EA28EF3F31F4A8E2B0E0E0E00E94F628B5
:10430A0004C0A8E2B0E00E94EA28E0933705AAE2D6
:10431A00B0E00E94EA28EF3F31F4AAE2B0E0E0E020
:10432A000E94F62804C0AAE2B0E00E94EA28E093BC
:10433A00380500E010E0003AE0E01E073CF4A3E58F
:10434A00B4E00E94EC270F5F1F4FF5CF7894E0EF9F
:10435A00F1E10E941F270E942227E9E1F0E00E9472
:10436A002727BED80E948A2686E695E00197F1F7AC
:10437A00BADB9924CC24BB240E94C327F19902C03A
:10438A00B2DBF19AAA92EFE4F0E00E9427270E949A
:10439A0033270E94351922DA93DA0FDB3CDB78DB0C
:1043AA00A0912905B0912A05119711F00C94D123F7
:1043BA00A0910205B0910305119711F4E5E401C03B
:1043CA00E0E2EA93E3E1F0E00E941F27E1E0EA93EA
:1043DA00EA930E943519E0911C05E03011F00C9423
:1043EA006522E8E0F5E0FA93EA93EEE3FEE2FA9357
:1043FA00EA930E94C7260E940C270E94BC260E94AC
:10440A000C270E94B1260E940C270E94A6260E9411
:10441A000C270E9485260E940C270E947B260E9458
:10442A000C2788E10E9476256C960E947B26E093F1
:10443A002B050E948526E0932C050E94A626E09370
:10444A002D050E94B126E0932E050E94BC26E0931A
:10445A002F050E94C726E09330050E94E727E093C4
:10446A003105AEE8B0E00E94EA28E09332050E94E6
:10447A000A28E0933305A2E9B0E00E94EA28E09313
:10448A0034050E940F28E0933505A6E9B0E00E94A2
:10449A00EA28E0933605E0913705A8E2B0E00E94E9
:1044AA00F628E0913805AAE2B0E00E94F628E8E092
:1044BA00F5E00E9427270E9414280E9402281AC1A8
:1044CA00A0911C05A130F9F40E94AE270E944C2746
:1044DA000E947528EDE1F5E0FA93EA93E0E3F0E053
:1044EA000E941928E0E0EA93E2E0EA93E1E0EA9325
:1044FA000E94BB190E94F727E0EDF7E00E942028EE
:10450A000E94AE27F4C0A0911C05A23011F00C94B1
:10451A00DB220E94AE270E944C270E947528E1E107
:10452A00F3E00E9407280E9414280E9433270E9461
:10453A003827E4EFF1E00E942028E2E2F3E0FA9360
:10454A00EA93EDE2F0E00E9424280E9438270E94B4
:10455A002B28E4E2F3E0FA93EA93E5E3F0E00E9421
:10456A0024280E9438270E942B28E6E2F3E0FA93D7
:10457A00EA93EDE3F0E00E9424280E9438270E9483
:10458A002B28E8E2F3E0FA93EA93E5E4F0E00E94EC
:10459A0024280E943827E4EFF1E00E9420280E9494
:1045AA00F7270E942E280E94AE27A1C0A0911C05C1
:1045BA00A330C9F40E94AE270E944C270E94752896
:1045CA00EAE2F3E0FA93EA93ECE1F0E00E941928B8
:1045DA000E9433270E9438270E94F7270E942E281C
:1045EA000E94AE2784C0A0911C05A430C9F40E9481
:1045FA00AE270E944C270E947528E3E3F3E00E944D
:10460A003128E3E0F0E0FA93EA930E9433270E940C
:10461A0038270E94F7270E942E280E94AE2767C0DB
:10462A00A0911C05A53019F50E94AE270E944C27BF
:10463A000E947528EFE3F3E00E9431280E941428B3
:10464A000E9433270E943827EAE4F3E00E943128C7
:10465A00E4E0F0E0FA93EA930E9433270E943827B5
:10466A000E94F7270E942E280E94AE2740C0A091E0
:10467A001C05A630B9F40E94AE270E944C270E945E
:10468A007528E6E5F3E00E9431280E9414280E946A
:10469A0033270E9438270E94F7270E942E280E945B
:1046AA00AE2725C0A0911C05A73021F50E94AE2790
:1046BA00E3E5F4E0FA93EA930E944C270E94142857
:1046CA000E9433270E943827E8EBFBE00E9420284B
:1046DA000E94AE2700E010E0003AE0E01E073CF43A
:1046EA00A3E5B4E00E94EC270F5F1F4FF5CFE0E08F
:1046FA00E0931C050E943428A134E0E0BE0719F4B7
:10470A00E0EFFDE10BC00E943428A635E0E0BE07C9
:10471A0019F00E943428D997E0EFF1E2FA93EA936C
:10472A00EFE5F0E00E941F27EFE7F0E0FA93EA9343
:10473A000E944C270E94751AE0E1F5E0FA93EA9389
:10474A00E5EAFEE2FA93EA93A6E9B0E00E94392884
:10475A000E940F280E940C27A2E9B0E00E94392883
:10476A000E940A280E940C27AEE8B0E00E9439286D
:10477A000E94E7270E940C2788E1B3D16C96E0E1FA
:10478A00F5E0FA93EA93E2E2F0E00E9407280E9439
:10479A0033270E94382716C0EFE6F3E0FA93EA932C
:1047AA00EEE1F0E00E94FB270E9433270E9438279F
:1047BA00E8E7F3E0FA93EA93EFE0F0E00E942428B6
:1047CA000E943827E0EFF5E1FA93EA93E9E6F0E090
:1047DA000E940728EFE7F0E00E9427270E94751A37
:1047EA00CDCDFFCFE091C000E072E1F3E881E09324
:1047FA00C60021960895EA81EA93F4DFA881B98177
:10480A000E940026239608951A930A93AA81BB81CF
:10481A0012960E94D628309729F1AA81BB81149654
:10482A000E94D6288F01309761F00230E0E01E071F
:10483A00C0F0F80131978F01AA81BB811496ED93DC
:10484A00FC93AA81BB8112960E9400263197AC8103
:10485A00A083AA81BB810E94D628FF2312F00E945E
:10486A00002606C0AA81BB81EFEFFFEFED93FC9310
:10487A00198108812596089526970E94072910E034
:10488A00AC85BD85E0E0F0E0ED93FC93EA89FB8915
:10489A003196EA8BFB8B3197E4912E2FE03011F49D
:1048AA000C946E25E12FE03039F4253211F411E031
:1048BA0002C00E943C280CC1E130A9F4253219F447
:1048CA000E943C2804C112E040E000E02D3211F4BD
:1048DA0001E0FEC02B3211F44BE2FAC0203211F48F
:1048EA0040E2F6C002C0E23039F450E013E020336F
:1048FA0011F40068EDC004C0E33011F00C946D258A
:10490A00203310F02A3308F007C0AAE05A9F502D2E
:10491A00E22FE0535E0FDCC0E22FE33649F40E9437
:10492A004528E889F989A481AA930E944B28CFC017
:10493A00E33741F40E9445280E9453280E94C72564
:10494A001E2F0AC0E03761F40E9445280E945328AE
:10495A000E94D1251E2F086002600F7730E035C013
:10496A00E43611F0E93611F4046002C0E53731F497
:10497A00E0E4FDE2EE83FF8315E00DC0E83511F4B3
:10498A00086004C0E83711F00C946C25EAE4FDE2F3
:10499A00EE83FF8314E002FF14C00E9445280E94A0
:1049AA005D28AB85AA233AF4EA85FB850E9485280F
:1049BA00EA87FB874DE2403011F01F5F01C00B7F91
:1049CA0004C00E9445280E945D2800FD11C01517E9
:1049DA0078F407FF08C002FF04C00B7F242F115090
:1049EA0001C020E301C020E20E943C285150EFCFD1
:1049FA00312F01FF17C03030A1F003FF06C0EE814E
:104A0A00FF812591EE83FF8305C0AE81BF812D9181
:104A1A00AE83BF830E943C28503009F05150315078
:104A2A00EACF4BC020E3EE81FF810E94DA28E887B3
:104A3A00F987EE81FF813296EE83FF83E885F98557
:104A4A00AA85BB85AE17BF0750F02F5FA885B98529
:104A5A00EA85FB85EA1BFB0BEA87FB87EFCF2A3344
:104A6A0028F003FF02C0295F01C0295D04FD1AC0B6
:104A7A00213320F4A885B985119709F409C0531781
:104A8A0010F000FF01C013C020E207FF0BC020E3B3
:104A9A00006102FF07C00B7F4A930E944B285030E7
:104AAA0009F051500E943C28503009F051503150C1
:104ABA00A885B985129708F0B5CF00FF08C0503015
:104ACA0031F05150E0E2EA930E944B28F8CF10E00F
:104ADA00DDCEAC85BD850E94D6280E940E2964963B
:104AEA000895FF92F82E26970E9409290E946528A8
:104AFA00309719F4EFEFFFEF1FC0DE0116960E9400
:104B0A0081288D010E946528EE83FF83E0E0E88713
:104B1A00E987DE011A960E946C28E9E0F4E2FA932A
:104B2A00EA93FE013A96FA93EA93A6DE9F01AE81D2
:104B3A00BF81E0E0EC93F9010E9410292A96FF90C8
:104B4A000895FF92F82E26971A930A93DE01149677
:104B5A000E9481288D01E0E0EC83ED83EE83EF83F0
:104B6A00DE0118960E946C28E0E0F4E2FA93EA93D8
:104B7A00FE013896FA93EA937FDE19810881289616
:104B8A00FF900895A991B991EE27FF276D916623A9
:104B9A0011F03196FBCF0895AA27BB27E991F99125
:104BAA000590002011F01196FBCFFD010895FA93AC
:104BBA00EA930C94F117FA93EA930C940D18E0E037
:104BCA00F0E0FA93EA930895EC81F0E0FA93EA931D
:104BDA000C941818E12FF0E00895AE81BF81EE27FA
:104BEA00A10FBE1FEC910895FE01E95BFF4F0190F2
:104BFA00F081E02D0895ED91FD913196FE93EE93AB
:104C0A000895EE81F0E00895E0918603F09187031C
:104C1A00E15CF040A6E0B0E00E949528E458F74F26
:104C2A000895E15CF040A6E0B0E00E949528E458BF
:104C3A00F74F0895F0E0FA93EA930895F0E0EA0F47
:104C4A00FB1F0895FA93EA93EE81FF810895FA9380
:104C5A00EA93EE81EA930C94A318E985FA85FA930C
:104C6A00EA930E94C725A12FB0E0AE17BF070895A7
:104C7A00A985BA85AE0FBF1F0895E885F985FA930D
:104C8A00EA930895EA93E985EA930C943519EA813F
:104C9A00F0E0E7FDFFEF3896DF01EB81F0E00E94DC
:104CAA009D280895EB81A8E0EA02F0010895EB81BE
:104CBA00F0E0AD81BE81EA0FFB1FED83FE8308950C
:104CCA00A985BA85EA0FFB1FA1810895EC81A8E0A6
:104CDA00EA02F001A885B985AE1BBF0BBA93AA9365
:104CEA00CCCFAE1BBF0BAF83B8870895A0E8B0E066
:104CFA000E94EA280895EF5F0E94F628E15008957D
:104D0A00A2E8B0E00E94EA280895E8E6FDE2FA93F4
:104D1A00EA9380E00E94A62522960895FA93EA93E0
:104D2A0080E00E94A62522960895A0E8B0E0E0E07F
:104D3A000E94F6280895A2E8B0E0E0E00E94F62872
:104D4A000895A4E8B0E00E94EA280895A4E8B0E033
:104D5A00E0E00E94F6280895A6E8B0E00E94EA285A
:104D6A000895A6E8B0E0E0E00E94F6280895A8E8D1
:104D7A00B0E00E94EA280895A8E8B0E0E0E00E94C6
:104D8A00F6280895AAE8B0E00E94EA280895E4E621
:104D9A00F0E0FA93EA930C947528FA93EA93E8EF11
:104DAA00F4E0662777270E94DE28E0913205FF2784
:104DBA00662777270E94DE28E0913105FF276627BC
:104DCA0077270E94DE28E0913405FF276627772798
:104DDA000E94DE28E0913305FF27662777270E9485
:104DEA00DE28E0913605FF27662777270E94DE280E
:104DFA00E0913505FF27662777270E94DE28E09194
:104E0A003005FF27662777270E94DE28B0CFFF27C5
:104E1A00662777270E94DE2808950E94951BE8ECF2
:104E2A00F0E0FA93EA930C947528F0E0E130A0E000
:104E3A00FA070895FA93EA93C2CEE5E0F0E0FA930E
:104E4A00EA930895FA93EA93E7E0F0E0FA93EA9393
:104E5A000895FA93EA93ECE2F0E0F4CFE0E0EA9303
:104E6A00E1E0EA930895EFEFEA930C94BB19EFE0BF
:104E7A00E093FF04E0E00895E8ECF0E0FA93EA93A7
:104E8A000C947528E4E1F0E0FA93EA930895E1E0DE
:104E9A00F0E0FA93EA930895F801E557FC4FA081F0
:104EAA000895F801E457FC4FA0810895F801E357EB
:104EBA00FC4FA0810895F801E257FC4FA0810895A4
:104ECA00F801E157FC4FA0810895EF56FC4FE081AD
:104EDA00F0E0F0970895EE56FC4FE081F0E0F0978D
:104EEA000895E0930605F09307050895E081F0E040
:104EFA00F0970895F8013496E98FFA8F0895FA0128
:104F0A00A98DBA8DEA0FFB1FE457FC4FA081AA3383
:104F1A000895EF89F88D3196EF8BF88FAF89B88DA8
:104F2A0011970895E98DFA8DE40FF51F3196ED8BEF
:104F3A00FE8B0895ED89FE89E257FC4F0895ED89AD
:104F4A00FE89E157FC4F0895ED89FE89E057FC4F31
:104F5A000895E2E0EA930E942D18E3E0EA930E94A2
:104F6A002D18E4E0EA930E942D18E5E0EA930C94E8
:104F7A002D18ED89FE89E457FC4F0895E1E0F0E031
:104F8A00E0932905F0932A050895AF81B885EAE0F0
:104F9A00F0E008950E94BA28A8E8B0E00E94F62836
:104FAA00F4CF0E94B528AAE8B0E00E94F628089536
:104FBA00E989FA89E457FC4F99CF0E94F628E989D2
:104FCA00FA890895ACE8B0E00E94EA280895A00F93
:104FDA00B11FE0E0EC930895FA93EA930E947528D2
:104FEA000C944A180E94951B0C94951BFA93EA9309
:104FFA00E2E0F0E0FA93EA930895E0E0EA93E2E06F
:10500A00EA9331CFFA93EA9318CFA0E9B0E00E946D
:10501A00EA280895A4E9B0E00E94EA280895E2E0A7
:10502A00F0E0FA93EA930895FA93EA93E3E0F0E062
:10503A00FA93EA930895FA93EA930C947528FA93EB
:10504A00EA93E4E0F0E0FA93EA9308CFECE2F1E0C5
:10505A00F2CFE8EEF3E0EFCFFA93EA9313CFA09101
:10506A000405B091050508950E94EA28D0CE2A9336
:10507A00ED85FE85FA93EA93E989FA8909950895F7
:10508A00E889F9893497E88BF98B0895ED85FE85CF
:10509A00FA93EA93E989FA8909950895A889B98959
:1050AA0014960E94D628EE83FF83FA93EA93089512
:1050BA00A889B98914960E94D628EA87FB87089599
:1050CA00DE011C960E9481280E94D62808950E941B
:1050DA0081280E94D628FA93EA931A930A9308958C
:1050EA00E991F991309639F08DEC9AE00197F1F750
:1050FA00A8953197C9F708950024AF0DB01D0895FA
:10510A00F195E195F0400895EE0FFF1FEE0FFF1F96
:10511A00EE0FFF1F08956F2F660F660B762F089507
:10512A00FA9FF02DEB9FF00DEA9FE02DF10D089507
:10513A002AD0F6DF0EF4E4DF08950024112490E16A
:10514A00AA0FBB1F001C111C0E1A1F0A18F40E0E00
:10515A001F1E01C0A1609A9599F7FD01D00108951B
:10516A0012D0EBDF0EF4CCDF0895E894B7FF04C049
:10517A00A095B09511966894F7FDC2DFDEDFFD01B8
:10518A000EF4BEDF0895E894F7FF02C0B9DF689411
:10519A00B7FF06C0A095B095119600F8039400FADF
:1051AA000895ED91FC91119708950590F491E02DE1
:1051BA0008957A936A93FA93EA9308951B2EBF2F60
:1051CA00F12D1A2EAE2FE12D0895F999FECFFF93F6
:1051DA00FFB7F894A1BDB2BDF89AE0B5FFBFFF9141
:1051EA000895F99B02C0A895FCCF9FB7F894A1BD7A
:1051FA00B2BDF89A80B5E81719F0E0BDFA9AF99AA3
:10520A009FBF08955A934A933A932A931A930A93FB
:10521A0008955D814C813B812A8119810881089515
:00000001FF
