:0A0000000C94A7170C9400000C9458
:10000A0000000C9400000C9400000C9400000C9466
:10001A0000000C9400000C9400000C9400000C9456
:10002A0000000C9400000C9400000C9400000C9446
:10003A0000000C9400000C9400000C9400000C9436
:10004A00CC1A0C9400000C94A11A0C9400000C9485
:10005A0000000C9400000C9400000C9400000C9416
:10006A0000000C9400000C9400000C9400000C9406
:10007A000000000000000000000000000000000076
:10008A000000000000000000000000000000000066
:10009A000000000000000000000000000000000056
:1000AA000000000000000000000000000000000046
:1000BA000000000000000000000000000000000036
:1000CA000000000000000000000000000000000026
:1000DA000000000000000000000000000000000016
:1000EA000000000000000000000000000000000006
:1000FA0000000000000000000000000000000000F6
:10010A0000000000000000000000000000000000E5
:10011A0000000000000000000000000000000000D5
:10012A0000000000000000000000000000000000C5
:10013A0000000000000000000000000000000000B5
:10014A0000000000000000000000000000000000A5
:10015A000000000000000000000000000000000095
:10016A000000000000000000000000000000000085
:10017A000000000000000000000000004F00000026
:10018A00000000070007000000000024FF24FF24ED
:10019A00000000444AFF4A32000040231308C4C248
:1001AA000000003649552240800000000503000087
:1001BA000000003C4281000000000081423C000037
:1001CA0000000014083E081400000010107C1010F3
:1001DA0000000000281800000000000808080808AD
:1001EA0008000060600000000000402010080402BF
:1001FA000000007EFF8181FF7E00008082FEFF807A
:10020A00800000E2F191919F8E000062C3C9C9FF8C
:10021A00760000181412FFFF1000006F8F8989F909
:10022A007100007EFF8989F97200000101F1FD0762
:10023A0003000076FF8989FF760000468F8989FFCF
:10024A007E000000666600000000000056360000CE
:10025A000000000814224100000000242424242461
:10026A0000000000412214080000000201B1090642
:10027A000000006291F1817E000000FE111111FE62
:10028A00000000FF898989760000007E8181814211
:10029A00000000FF8181423C000000FF89898981BA
:1002AA00000000FF090909010000007E8191917296
:1002BA00000000FF101010FF0000000081FF810005
:1002CA000000004080817F01000000FF1824428165
:1002DA00000000FF80808080000000FF020C02FF07
:1002EA00000000FF040810FF0000007E8181817E6B
:1002FA00000000FF1111110E00007E81A141BE0015
:10030A00000000FF1131518E000000868989897131
:10031A000000000101FF01010000007F8080807F52
:10032A000000003F4080403F0000003FC060C03FE7
:10033A00000000E3140814E30000000708F00807AF
:10034A00000000C1A1918987000000FF818100009F
:10035A0000000015167C161500000041417F0000C0
:10036A000000000402010204000000404040404036
:10037A0000000001020400000000006094949478D8
:10038A00000000FF88888870000000788484840058
:10039A00000000788484887F000000789494945840
:1003AA0000000010FE1101020000000C9292927EE1
:1003BA00000000FF100808F00000000084FD800023
:1003CA000000006080807D00000000FF304884004B
:1003DA000000000081FF8000000000FC043804F8DF
:1003EA00000000FC080404F8000000788484847883
:1003FA00000000FC1414140800000008141418FC6F
:10040A00000000FC0804040800000088949494602A
:10041A00000000047F8480400000007C808040FC53
:10042A000000003C4080403C0000003EC060C03EEE
:10043A000000004224182442000000068888887EB2
:10044A00000000C4A4948C84000000087681000097
:10045A000000000000FF0000000000817608000094
:10046A0000000008082A1C08000000081C2A0808C6
:10047A000000007C8281827C0000000000000000F5
:10048A000000000000000000000000000000000062
:10049A000000000000000000000000000000000052
:1004AA000000000000000000000000000000000042
:1004BA000000000000000000000000000000000032
:10087A000000C1C1C1C10000C2C2FEFE0100C3C363
:10088A001F1F0100C4C4FCFC0100C5C5C5C5010188
:10089A00C6BDBFBE0101C7C7C0C00100C8828483EC
:1008AA000101C9C9FDFD0100CA8587860101CB88FE
:1008BA008A890101CC8BCC8B0101CD8CCD8C0101B5
:1008CA00CE11CE110101CFCF13130100D0D08F8FDB
:1008DA000100D1D11B1B0100D2D291910100D39208
:1008EA0094930101D49597960101D5179A9901011C
:1008FA00D69B9D9C0101D7D7D7D70000D8D89E9EFA
:10090A000101D9D99F9F0101DAA0A2A10101DBA3AC
:10091A00A5A40101DCDCDCDC0000DDA6A8A701013E
:10092A00DEA9ABAA0101DFACAEAD0101E0E0E0E077
:10093A000000E1AFB1B00101E2E2E2E20000E3B29D
:10094A00B4B30101E4B5B7B60101E5B8BAB901011A
:10095A00E6E6BCBC0100E7E7E7E70000E8E8E8E80C
:10096A000000E9E9E9E90000EAEAEAEA0000EBEB5B
:10097A00EBEB0000ECBDBFBE0101EDBDBFBE010146
:10098A00EEEEEEEE0000EFEFEFEF0000F0F0F0F029
:10099A000000F1F1F1F10000F2F2F2F20000F3F3DB
:1009AA00F3F30000F5F5F5F50000F6F6F6F60000AB
:1009BA00F7F7F7F70000F8F8F8F80000FBF9FBFA88
:1009CA000101BBBBF4F40100811C1E1D010190183A
:1009DA001A1901019814161501018E8E12120100BE
:1009EA008D108D10010100C0F030381818181898B1
:1009FA00B0B0303030606060606060C0C0C0C0C0FD
:100A0A00C0C08080808080000000000000000000DC
:100A1A0000000000000000000000000000000000CC
:100A2A0000000000000000000000000000000000BC
:100A3A0000000000000000000000000000000000AC
:100A4A00000000000000000000000000000000009C
:100A5A00000000000000000000000000000000008C
:100A6A0000000000000000FFFF00000C18F0E70F74
:100A7A00FD0F070000000000000000000000000059
:100A8A00000001010181838383C3E767E6C6060E7E
:100A9A000C0C0C0C0C1818187870E0C00000000040
:100AAA0000E0E0000000000080C0E06000E0E060DC
:100ABA006060606060E0C000000080C06060C0806C
:100ACA00000000E0E0606060606060C080000000DC
:100ADA0080C06060C0800000000080C0606060600C
:100AEA0060C08000000000FFFF00000000FFFF0060
:100AFA00FF00000000000000000000000080C0604D
:100B0A0030188CC66331180808090B0B0B09080842
:100B1A00080808081C3E363E1C00FFFF00000000C3
:100B2A0000FFFF70F88C8E070301000000FFFFE052
:100B3A00E0E06060607F3F00FEFF616060606061CE
:100B4A00FFFE00FFFF000000000000FFFF00FEFFA5
:100B5A00616060606061FFFE00FFFF00000000004E
:100B6A0000000100000000FFFF00000000FFFF007E
:100B7A003F3030303030303030180CC6E331180C8A
:100B8A000603010000000000000000000000000051
:100B9A0000000000000000000000FFFF000000004D
:100BAA00003F3F00000103070E1C3830003F3F00A2
:100BBA00000103070E3C38003F3F00000000000020
:100BCA003F3F003F3F3030303030301F0F003F3F53
:100BDA000000000000003F3F000F1F30303030306F
:100BEA0030381800000000FFFF00000000FFFF007F
:100BFA00FF0303030303030303060C193366CC98AC
:100C0A003060C0800000000000000000000000000A
:100C1A0000000000000000000000FFFF00000000CC
:100C2A0000000000000000000000000000000000BA
:100C3A0000000000000000000000000000000000AA
:100C4A00000000000000000000000000000000009A
:100C5A00000000000000000000000000000000008A
:100C6A0000000000000000FFFF00000000FFFF007E
:100C7A00FF0000000000000000000000000000016A
:100C8A0003060C193366444444E4F4B4F4E404045B
:100C9A00040404040E1F1B1F0E00FFFF000000FCCB
:100CAA000000000000F8040404F8000C040404FC2A
:100CBA0000F0888488F00080808000FC848404042A
:100CCA0000F80404040800FC000000FC00F088841A
:100CDA0088F000FC040404F800F8040404F800FC9A
:100CEA0044C44438000000FFFF00000603011C3E14
:100CFA00373E1C00000000000080808080C0C0C019
:100D0A00C0C0E06060603030303031391918181CCA
:100D1A000C0C0C0C0E060606070301000000000F5F
:100D2A00080808080007080808070006080808074E
:100D3A00000F0000000F00000000000F080808085C
:100D4A00000708080804000708080807000F000041
:100D5A00000F000F08080807000708080807000F17
:100D6A000000010E0000000107060E0C0C0C0C0C12
:100D7A00060606060303030303010101010100003D
:100D8A000000000000000000000000000000000059
:100D9A000000000000000000000000000000000049
:100DAA000000000000000000000000000000000039
:100DBA000000000000000000000000000000000029
:100DCA000000000000000000000000000000000019
:100DDA000000000000000000000000000000000009
:100DEA0000000000000000000000000000000000F9
:100DFA0000000000000000000000000000000000E9
:100E0A0000000000000000000000000000000000D8
:100E1A0000000000000000000000000000000000C8
:100E2A0000000000000000000000000000000000B8
:100E3A0000000000000000000000000000000000A8
:100E4A000000000000000000000000000000000098
:100E5A000000000000000000000000000000000088
:100E6A000000000000000000000000C0E0F0F0F800
:100E7A00F8F8F8F8FCFCFCFCFCFCFCFCFCFCFCFCB8
:100E8A00FCFCFCFCFCFCFCFCF8F8F8F8F8F0E0E0F0
:100E9A00C000000000000000000000000000000088
:100EAA000000000000000000000000000000000038
:100EBA000000000000000000000000000000000028
:100ECA000000000000000000000000000000000018
:100EDA000000000000000000000000000000000008
:100EEA0000000000000000000000FEFFFF030103F5
:100EFA0003030303030303030303030303FFFF03C0
:100F0A0003010303030303030303030303030307A5
:100F1A00FFFE0000000000000000000000000000CA
:100F2A0000000000000000000000000000000000B7
:100F3A0000000000000000000000000000000000A7
:100F4A000000000000000000000000000000000097
:100F5A000000000000000000000000000000000087
:100F6A0000000000000000000000FFFFFFC0C0C03A
:100F7A00C0C0C0C0C0C0C0C0C0C0C0C0E0FFFFE0A9
:100F8A00C0C0C0E0D0C8C4C4C4C4C8D0E0C0E0F087
:100F9A00FFFF000000000000000000000000000049
:100FAA000000000000000000000000000000000037
:100FBA000000000000000000000000000000000027
:100FCA000000000000000000000000000000000017
:100FDA000000000000000000000000000000000007
:100FEA0000000000000000000000FFFFFFFFFFFFFD
:100FFA00FFFFFFFFFFFFFFFFFFFFFFFFFFFFFFFFF7
:10100A00FFFFFFFFFFFFFFFFFFFFFFFFFFFFFFFFE6
:10101A00FFFF0000000000000000000000000000C8
:10102A0000000000000000000000000000000000B6
:10103A0000000000000000000000000000000000A6
:10104A000000000000000000000000000000000096
:10105A000000000000000000000000000000000086
:10106A00000000000000000000003FFFFFE1E1E196
:10107A00E1FFFFFFF9D9D9D9D9D9D9D9D9D9D9D93C
:10108A00D9D9D9D9D9D9C9FBFFFFFFE1E1C1E1F724
:10109A00FF3F000000000000000000000000000008
:1010AA000000000000000000000000000000000036
:1010BA000000000000000000000000000000000026
:1010CA000000000000000000000000000000000016
:1010DA000000000000000000000000000000000006
:1010EA000000000000000000000000001F3F3F3F1A
:1010FA003F3F3F0000000000000000000000000029
:10110A0000000000000000001F3F3F3F3F3F3F1F1D
:10111A0000000000000000000000000000000000C5
:10112A0000000000000000000000000000000000B5
:10113A0000000000000000000000000000000000A5
:10114A000000000000000000000000000000000095
:1014EA000000000000000000000000F884C20202B0
:1014FA000202FE020202C2FE02020202C4F8000056
:10150A0000000000000000000000000000000000D1
:10151A0000000000000000000000000000000000C1
:10152A0000000000000000000000000000000000B1
:10153A0000000000000000000000000000000000A1
:10154A000000000000000000000000000000000091
:10155A000000000000000000000000000000000081
:10156A000000000000000000001E1F7FFFFD7C1C21
:10157A001C1C1F1C1C1C1F1F7CFCFC7C1F0F00005A
:10158A000000000000000000000000000000000051
:10159A000000000000000000000000000000000041
:1015AA000000000000000000000000000000000031
:1015BA000000000000000000000000000000000021
:10195A0000000038FC0202020202060606BAFABABF
:10196A000202FC3800000000000000000000000035
:10197A00000000000000000000000000000000005D
:10198A00000000000000000000000000000000004D
:10199A00000000000000000000000000000000003D
:1019AA00000000000000000000000000000000002D
:1019BA00000000000000000000000000000000001D
:1019CA00000000000000000000000000000000000D
:1019DA00000000003F3EFEF2F23E3E3E3F3FF3F380
:1019EA00FF3E3F0000000000000000000000000071
:1019FA0000000000000000000000000000000000DD
:101A0A0000000000000000000000000000000000CC
:101A1A0000000000000000000000000000000000BC
:101A2A0000000000000000000000000000000000AC
:101CEA000000000000000000000000F884C282DA50
:101CFA00FAE2FE020202C2FE02020202C4F8000076
:101D0A0000000000000000000000000000000000C9
:101D1A0000000000000000000000000000000000B9
:101D2A0000000000000000000000000000000000A9
:101D3A000000000000000000000000000000000099
:101D4A000000000000000000000000000000000089
:101D5A000000000000000000000000000000000079
:101D6A000000000000000000001E1F7FFFFD7C1F16
:101D7A001F1F1F1C1C1C1F1F7CFCFC7C1F0F00004C
:101D8A000000000000000000000000000000000049
:101D9A000000000000000000000000000000000039
:101DAA000000000000000000000000000000000029
:101DBA000000000000000000000000000000000019
:101DCA000000000000000000000000000000000009
:101DDA0000000000000000000000000000000000F9
:101DEA0000000000000000000000000000000000E9
:101DFA0000000000000000000000000000000000D9
:101E0A0000000000000000000000000000000000C8
:101E1A0000000000000000000000000000000000B8
:101E2A0000000000000000000000000000000000A8
:101E3A000000000000000000000000000000000098
:101E4A00000000000000E01090908000F090909058
:101E5A00600060909010000000002070F870200070
:101E6A00807800FC00000000000000000000000074
:101E7A000000000000000000000000000000000058
:101E8A000000000000000000000000000000000048
:101E9A000000000000000000000000000000000038
:101EAA000000000000000000000000000000000028
:101EBA000000000000000000000000000000000018
:101ECA0000000000000003040404030007000000EF
:101EDA00000004040403000000101414141412096E
:101EEA00040A351808000000000000000000000085
:101EFA0000000000000000000000000000000000D8
:101F0A0000000000000000000000000000000000C7
:101F1A0000000000000000000000000000000000B7
:101F2A0000000000000000000000000000000000A7
:10224A00000000000000E01090908000F090909054
:10225A006000609090100000000000000000000084
:10226A00807800FC00000000000000000000000070
:10227A000000000000000000000000000000000054
:10228A000000000000000000000000000000000044
:10229A000000000000000000000000000000000034
:1022AA000000000000000000000000000000000024
:1022BA000000000000000000000000000000000014
:1022CA0000000000000003040404030007000000EB
:1022DA00000004040403000000101414141412096A
:1022EA00040A351808000000000000000000000081
:1022FA0000000000000000000000000000000000D4
:10230A0000000000000000000000000000000000C3
:10231A0000000000000000000000000000000000B3
:10232A0000000000000000000000000000000000A3
:1025EA0000000000000000000000000000808000E1
:1025FA00E0E000F8F800FEFE000000000000000025
:10260A0000000000000000000000000000000000C0
:10261A0000000000000000000000000000000000B0
:10262A0000000000000000000000000000000000A0
:10263A000000000000000000000000000000000090
:10264A000000000000000000000000000000000080
:10265A000000000000000000000000000000000070
:10266A000000000000000006060007070007070038
:10267A000707000707000707000000000000000026
:10268A000000000000000000000000000000000040
:10269A000000000000000000000000000000000030
:1026AA000000000000000000000000000000000020
:1026BA000000000000000000000000000000000010
:1029EA0000000000000000000000000000808000DD
:1029FA00E0E000000000000000000000000000000D
:102A0A0000000000000000000000000000000000BC
:102A1A0000000000000000000000000000000000AC
:102A2A00000000000000000000000000000000009C
:102A3A00000000000000000000000000000000008C
:102A4A00000000000000000000000000000000007C
:102A5A00000000000000000000000000000000006C
:102A6A000000000000000006060007070007070034
:102A7A00070700000000000000000000000000003E
:102A8A00000000000000000000000000000000003C
:102A9A00000000000000000000000000000000002C
:102AAA00000000000000000000000000000000001C
:102ABA00000000000000000000000000000000000C
:102ACA0000000000000000000000000000000000FC
:102ADA0000000000000000000000000000000000EC
:102AEA0000000000000000000000000000000000DC
:102AFA0000000000000000000000000000000000CC
:102B0A0000000000000000000000000000000000BB
:102B1A0000000000000000000000000000000000AB
:102B2A00000000000000000000000000000000009B
:102B3A00000000000000000000000000000000008B
:102B4A00000000000000000000000000000000007B
:102B5A00000000000000000000000000000000006B
:102B6A00000000000000000000000000000000005B
:102B7A00000000000000000000000000000000004B
:102B8A00000000000000000000000000000000003B
:102B9A000000000000000006060007070000000011
:102BAA00000000000000000000000000000000001B
:102BBA00000000000000000000000000000000000B
:102BCA0000000000000000000000000000000000FB
:102BDA0000000000000000000000000000000000EB
:102BEA0000000000000000000000000000000000DB
:102BFA0000000000000000000000000000000000CB
:102C0A0000000000000000000000000000000000BA
:102C1A0000000000000000000000000000000000AA
:102C2A00000000000000000000000000000000009A
:102C3A00000000000000000000000000000000008A
:102C4A00000000000000000000000000000000007A
:102C5A00000000000000000000000000000000006A
:102C6A00000000000000000000000000000000005A
:102C7A00000000000000000000000000000000004A
:102C8A00000000000000000000000000000000003A
:102C9A00000000000000000000000000000000002A
:102CAA00000000000000000000000000000000001A
:102CBA00000000000000000000000000000000000A
:102CCA0000000000000000060600040404040404D6
:102CDA0004040404040404040000000000000000CA
:102CEA0000000000000000000000000000000000DA
:102CFA0000000000000000000000000000000000CA
:102D0A0000000000000000000000000000000000B9
:102D1A0000000000000000000000000000000000A9
:102D2A000000000000000000000000000000000099
:102D3A000000000000001027E80364000A000100F8
:102D4A000010000110000100C100534954553136EA
:102D5A0039372000002000000000000041542454AC
:102D6A005444455649443F0A0D0041542B4353519C
:102D7A000A0D0041542454544E455449503F0A0DFB
:102D8A000041542454544750535152593D31302C28
:102D9A00300A0D004154245454534E444D473D3497
:102DAA002C222424424C25732C2564256425642571
:102DBA00643230256425642C2564256425642564E1
:102DCA00256425642C52322C25642C25643A5858E3
:102DDA002323220D0A004154245454534E444D4790
:102DEA003D342C222424424C25732C256425642549
:102DFA006425643230256425642C256425642564A1
:102E0A002564256425642C53322C313233342C2525
:102E1A00643A58582323220D0A00525554413A0065
:102E2A0020202020202000502564002563004255E0
:102E3A005300256425643A256425643A256425648B
:102E4A0000494E4943494F20444520534553494F71
:102E5A004E002A0046494E205255544100494E49D7
:102E6A0043494F2052555441002048412053414C78
:102E7A0049444F0044454C2053495354454D410061
:102E8A004E4543455349544120494E4943494152CD
:102E9A00204A4F524E414441003230256425642D68
:102EAA00256425642D256425640050616E74616C67
:102EBA006C61004E6F204175746F72697A6164614A
:102ECA00000001002D4E414E000001008603522DE4
:102EDA0004005304542D04005804582D060000031E
:102EEA00242E070006032A2E04000D03382E110093
:102EFA0011034B2E020022035C2E020024035C2ED7
:102F0A00020026035C2E020028035C2E09002A0315
:102F1A005E2E0C003303672E0B003F03732E0C004A
:102F2A004A037E2E190056038A2E09006F03B42E17
:102F3A000E007803BD2E0A0005005C2D0100FF0477
:102F4A00CC2E0000F894EE27EFBBF1E0F5BFE5BF09
:102F5A00F8E1A895A4B7A77FA4BFF0936000E09317
:102F6A0060008DE0A2E0BB27ED938A95E9F780E047
:102F7A0098E0A0E0B1E0ED930197E9F7E4EDFEE215
:102F8A0085919591009761F0A591B591059015905D
:102F9A00BF01F00105900D920197E1F7FB01F0CF17
:102FAA00E0E0EEBBEFEFEDBFE8E0EEBFC0E0D3E05C
:102FBA000C94CA205F9A87E38A95F1F75F9887E3B2
:102FCA008A95F1F70895169A179A5E985D98EFE335
:102FDA00E8B9F0DF08951A935E985D98A981BA81DD
:102FEA00A034E0E0BE0720F4169A1798198107C0AA
:102FFA00179A1698E981FA81E054F0401E2FE12FC2
:10300A00E064EF771E2F18B9D5DF18813BC01A93F9
:10301A005E985D98E981E86BEF7B1E2F18B9CADFCD
:10302A00188130C0EA81FB810E94AF25E881F981CD
:10303A000E94B325249608955E9A5D98E881E8B9BE
:10304A008DED90E00197F1F7B5DF219608951A9377
:10305A000A930E94B7250E94BC25E0E4F0E0FA93A7
:10306A00EA930E94BC25169A00E010E00134E0E0E1
:10307A001E0734F4E0E0EA93DFDF0F5F1F4FF6CF5D
:10308A0019810881239608951A930A9300E010E0A3
:10309A000830E0E01E072CF40A93D9DF0F5F1F4FB8
:1030AA00F7CF0991199108951A93EB81FC810E9437
:1030BA00AF25E981FA810E94B32510E0183080F427
:1030CA00ED81FE810E945928DF010E94C225EA0F84
:1030DA00FB1FE458FF4FE491EA93AEDF1F5FEECF88
:1030EA00188141C10E94D92820E010E0EC811E1706
:1030FA0000F500E00830D8F40E94C525F0E0F59507
:10310A00E795EC93ED81E1703E2F303021F00E947B
:10311A00C525E068EC932F5FEC81E21731F4ED816D
:10312A00F0E0F595E795ED8320E00F5FE3CF1F5FB1
:10313A00DDCF0E94E02828960895EF9721970E94F4
:10314A00D9280E94CC250E94AF25FE01EB5BFF4FD8
:10315A000190F081E02D0E94B32510E0183008F5A7
:10316A000E94C225BF010E945928DE011496EA0F67
:10317A00FB1FFA93EA93FE01E55BFF4F0190F08192
:10318A00E02D0E945928E60FF71FE458FF4FE491FB
:10319A00EA93FE01E95BFF4FE081EA93A3DF1F5F39
:1031AA00DDCF00E0FE01EC5BFF4FE0810E1710F06F
:1031BA000C942F1910E0183010F00C94211930E0FB
:1031CA00FE01EC5BFF4FE0813E17A0F5E32FF0E034
:1031DA00DE01A95BBF4F0D90BC91A02DEA0FFB1F2A
:1031EA00BF01DE01AC5BBF4FAC91BB270E94C22579
:1031FA000E946D28DB01AE0FBF1FA034E0E0BE07BE
:10320A0049F4E0E4F0E0FA93EA930E94CC25FA93B9
:10321A00EA9308DF0E94C2250E945928DE0114960B
:10322A00AE0FBF1FEE27A00FBE1FEC91EA9304DF7B
:10323A003F5FC6CF1F5FBFCF0E94CC25FA93EA93A8
:10324A00DE01A95BBF4F0E94D325FA93EA93EADE17
:10325A000F5FA8CF0E94E028EF962C960895A981C7
:10326A00A13011F00C94B0190E94D925E138A0E0E0
:10327A00FA0711F4EAEF17C0E039A0E0FA0711F4EF
:10328A00EBEF11C0E839A0E0FA0711F4ECEF0BC03C
:10329A00EE38A0E0FA0711F4EDEF05C0ED38A0E032
:1032AA00FA0711F4EEEFEE83AE81A13CB0F0A091E3
:1032BA008603B0918703A13CE0E0BE0774F00E9448
:1032CA00DC253596E491E03041F00E94D9250E9430
:1032DA00E9253496E491E03009F417C00E94DC2510
:1032EA00DF01E0918803F0E03196EA0FFB1FE491D9
:1032FA000E94F225E09189030E94F225E0918A0357
:10330A000E94F225D1DEE2E001C0E0E0E09388030A
:10331A00AE81A13C58F00E94D9250E94E925DF011F
:10332A00E09188030E94F625E49101C0EE81F0E065
:10333A000E94FA250E94FA250E94FF250E94D9259B
:10334A00E0938603F0938703EC81E0938903EA8193
:10335A00E0938A0308C00E94D9250E94FA250E9498
:10336A00FA250E94FF25279608951A930A9310E0DA
:10337A0000E00E94052618F4AC81A03009F029C0AB
:10338A000E94C2250E941026EC91EA930E941526FB
:10339A000E941526E0E00E941A260E941F26AF818D
:1033AA00B885EA0FFB1FEF83F8870E942A26A0E858
:1033BA00B0E00E94B328EA1BFB0BAF81B885EA177D
:1033CA00FB072CF4E0E0EF83E8870E942F261F5FBB
:1033DA00D0CF0E94052618F4AC81A13009F075C03F
:1033EA000E94C2250E941026AC91A13E21F40E949F
:1033FA003826A73C09F002C009EF29C00E94C2255D
:10340A000E941026AC91A13E21F40E943826A33CCA
:10341A0009F002C007EE1BC00E94C2250E941026B6
:10342A00AC91A13E21F40E943826A23C09F002C0C8
:10343A0008EE0DC00E94C2250E941026AC91A13E42
:10344A0021F40E943826A53C09F001C009EE00309B
:10345A0079F00A930E943E26E1E00E941A261E5F36
:10346A000E942A26AF81B8850E94492600E01CC026
:10347A000E94C2250E941026EC91EA930E943E26E1
:10348A00E9850E941A260E94C2250E941026AC9144
:10349A00A03219F40E941F2602C00E942A26AF8178
:1034AA00B8850E9449261F5F0E942A263196AF815D
:1034BA00B885AE17BF0744F40E942A26A0E8B0E0F8
:1034CA000E9449260E942F2684CFE1ECF0E0E09387
:1034DA008603F0938703198108812B9608950E9429
:1034EA00D92808851985EC81FD81E017F10700F1DB
:1034FA002A853B85EE81FF81E217F307B0F03A9304
:10350A002A931A930A938EDDA0E8A09FF001A19F47
:10351A00F00DE20FF31FAC85BD85EA0FFB1FE491A6
:10352A00EA938ADD2F5F3F4FE5CF0F5F1F4FDBCF57
:10353A000E94E0282E960895EA93FA93EFB7EA9349
:10354A001A930A931091C0000091C600E091C0003E
:10355A00E07811F4F19801C0F19AE12FEC7181F44D
:10356A00E42D4394F0E0E557FC4F0083E8ECE415C2
:10357A0009F444246394E8ECE61511F46624F09AFD
:10358A0009911991E991EFBFF991E99118950A9278
:10359A001A92FA926A937A938A939A93AA93BA930B
:1035AA00EA93FA93EFB7EA93E6E0E6BDADEEB4E04C
:1035BA000E94D325A091ED04B091EE049B9711F0DF
:1035CA000C94861B0E944E260E945326E0E0E0934C
:1035DA00ED04E093EE040E944E26E13021F40E94AD
:1035EA005826E13009F002C00E945D260E944E264C
:1035FA00E13021F40E945826E23009F004C0E4E7E1
:10360A00FDE20E9466260E944E26E13021F40E94C5
:10361A005826E33009F004C0EDE7FDE20E94662671
:10362A000E944E26E13021F40E945826E43009F027
:10363A0004C0EBE8FDE20E9466260E944E26EA30AC
:10364A0010F40C94861B0E946D260E9458260E9434
:10365A0053260E945826E63010F40C94861B0E94CA
:10366A0073260E9479260E9453260E947926EA3000
:10367A0010F40C94861B0E947E260E9484260E94C7
:10368A0053260E948426E630E0F10E9489260E9491
:10369A008F260E9453260E948F26EA3090F10E94BC
:1036AA0094260E949A260E9453260E949A26E23065
:1036BA0021F40E948F26E33009F013C00E94842669
:1036CA00E53021F40E947926E93009F00AC00E9407
:1036DA005826E53021F40E944E26E93009F001C04F
:1036EA0001C00FC0AAE8B0E0E0E00E94C6280E942C
:1036FA0094260E9489260E947E260E9473260E9492
:10370A006D26E991EFBFF991E991B991A991999142
:10371A00899179916991F9901990099018955C9A13
:10372A000E949F265C980E949F2608951A93E98119
:10373A00F0E0E054F0401E2F113010F0153608F07A
:10374A0002C0E12F01C0E0E01881229608955A9242
:10375A00EDDFE093FD04EEE9FDE20E94A5260E945A
:10376A00DF26E091F4040E94DF260E9479260E9457
:10377A00DF26E091F2040E94DF260E944E260E9474
:10378A00DF26E091FD040E94DF26EE2D0E94DF264F
:10379A008CE30E947925EE960895E0EEFDE20E9400
:1037AA00A5260E94DF26E091F4040E94DF260E94EB
:1037BA0079260E94DF26E091F2040E94DF260E9409
:1037CA004E260E94DF26E091FE040E94DF2688E34F
:1037DA000E947925EA960895A0E00499A1E0A03014
:1037EA0019F4E0E0E71509F05CC0E2E0E0937A043E
:1037FA00D394E1E07E2E0E94E526ED2D0E94ED266F
:10380A00D9F4E1E0E093FE04C8DFE1E0E0935D046F
:10381A00E0EFF9E10E94F2260E94F526E3E2F0E0E9
:10382A000E94FA265CDEE0E0F3E00E9401270E9493
:10383A0006270E940B2734C0E230A0E0FA0781F580
:10384A00E0EFF1E10E94F2260E94F526E9E1F0E0BC
:10385A000E94FA2644DEEFE0E0935D04E0E0E093A4
:10386A00FE04E5E0E0937A0498DFEFE0E0935D047C
:10387A00EE24E0E2E51509F06ADFE0E25E2EEA9363
:10388A00EFE4F0E00E94FA260E940627E8DCE6E070
:10389A00F3E00E9401270E9406270E940B27DD24DD
:1038AA0007C0049B03C0E1E0E71509F001C07724D3
:1038BA000895A0E00399A1E0A03049F4E0E0EA15F8
:1038CA0031F4EE1521F4A091FE04A13009F015C0DF
:1038DA00E0915D04EF5FE0935D0421DFE1E0AE2E4D
:1038EA00A0915D04AD3010F0AF3009F403C0E1E0FF
:1038FA00E0935D040E940F2707C0039B03C0E1E029
:10390A00EA1509F001C0AA24E0915D040E94ED269F
:10391A0011F4E1E447C0E230A0E0FA0711F4E2E46E
:10392A0041C0E330A0E0FA0711F4E3E43BC0E4301D
:10393A00A0E0FA0711F4E4E435C0E530A0E0FA07A4
:10394A0011F4E5E42FC0E630A0E0FA0711F4E6E44A
:10395A0029C0E730A0E0FA0711F4E7E423C0E83011
:10396A00A0E0FA0711F4E8E41DC0E930A0E0FA0784
:10397A0011F4E9E417C0EA30A0E0FA0711F4EAE426
:10398A0011C0EB30A0E0FA0711F4EBE40BC0EC3005
:10399A00A0E0FA0711F4ECE405C0EF30A0E0FA0762
:1039AA0011F4E0E28E2E0895A0E00299A1E0A03081
:1039BA0049F4E0E0E91531F4EE1521F4A091FE0492
:1039CA00A13009F015C0E0915D04E150E0935D0477
:1039DA00A6DEE1E09E2EA0915D04A03011F4AF3086
:1039EA0009F403C0ECE0E0935D040E940F2707C0CE
:1039FA00029B03C0E1E0E91509F001C0992408958A
:103A0A00A0E00199A1E0A03039F4E0E0EC1521F43E
:103A1A00A091FE04A13009F027C0C394E0915E048E
:103A2A00EF5FE0935E04582C0E94E526E0915E0465
:103A3A000E94ED2639F4E1E0EE2EE4E0E0937A0408
:103A4A0086DE11C0E230A0E0FA0769F4EFE0E09305
:103A5A005D04EE24E3E0E0937A0479DEE0E25E2E90
:103A6A00E0E0E0935E0407C0019B03C0E1E0EC15CF
:103A7A0009F001C0CC240895E0916404F091650432
:103A8A00E130A0E0FA0719F4E0E2FBE214C0E23008
:103A9A00A0E0FA0719F4E0EFF9E20DC0E330A0E084
:103AAA00FA0719F4E0EFF5E206C0E430A0E0FA07FD
:103ABA0069F4E0E5FCE2FA93EA930E94B7250E94D2
:103ACA00B7250E9415270E941A2709DD08956597D0
:103ADA00E0E0EB87EC87ED87EE87EF87E88BE98BF1
:103AEA00EA8B0E94D72840E050E000E010E0083C52
:103AFA00E0E01E0714F00C94B4200E941F27A432A1
:103B0A00B1F40E942427A43291F40E942927A435F3
:103B1A0071F40E942E27A83751F40E943327A43744
:103B2A0031F4F801E057FC4FA081AC3209F038C0FB
:103B3A00E0E0E093EB04A091EB04A536B8F4E09141
:103B4A00EB04F0E0BF01EB57FB4F0F01D8011796CA
:103B5A00FB01EA0FFB1FE557FC4FE081D001EC9314
:103B6A00E091EB04EF5FE093EB0409C0E1E0E0933E
:103B7A00EC040E943827E557FC4FA2E2A0830E947A
:103B8A003827E557FC4FA081A232A9F6E091EB0451
:103B9A00F0E0EB57FB4FA0E0A083E7E0E0937A0464
:103BAA000E941F27AB3281F40E942427A33461F4B8
:103BBA000E942927A33541F40E942E27A13521F41A
:103BCA000E943327AA3309F046C0F8010E943D2714
:103BDA00AAE0B0E00E946D28DF01F8010E944327A5
:103BEA00EA0FFB1FEF87F88BAF85B8891B9724F084
:103BFA00AF85B8891F970CF005C0E1E0F0E00E949C
:103C0A00492729C0AF85B8891F9724F0AF85B8899D
:103C1A0052970CF005C0E2E0F0E00E9449271BC071
:103C2A00AF85B889529724F0AF85B8895F970CF0B1
:103C3A0005C0E3E0F0E00E9449270DC0AF85B889CE
:103C4A00909724F0AF85B889D2970CF004C0E4E0CD
:103C5A00F0E00E9449270E941F27A23441F40E94E3
:103C6A002427A53521F40E942927A33509F087C006
:103C7A00F801E556FC4F0E944E27E0937604F801BE
:103C8A00E456FC4F0E944E27E0937704F801E3566E
:103C9A00FC4F0E944E27E0937804F801E256FC4F4D
:103CAA000E944E27E0937904A0917904A13119F476
:103CBA00EAE0E0937904A0917604A13130F0E09132
:103CCA007604F0E03797E0937604A0917704A13167
:103CDA0030F0E0917704F0E03797E0937704F80149
:103CEA00EF55FC4FA081A13331F4F801EE55FC4F9A
:103CFA00A081A83309F043C0E1E0E0937A04A091DF
:103D0A007804EAE0EA02F001DF01E09179040E9416
:103D1A00F625E0937F04F0938004A0917604E0E115
:103D2A00EA02F0013197DF01E0917704F0E0AE0F8B
:103D3A00BF1FEAE0F0E00E946D28E0938104F0934F
:103D4A008204A0917F04B0918004EA0FFB1FE093E4
:103D5A008304F0938404EBE7F4E0FA93EA93E1E353
:103D6A00FEE2FA93EA93E0918304F09184040E94BC
:103D7A0060280E94AE2884E00E94492528960E9465
:103D8A001F27AE3481F40E942427A53461F40E94CF
:103D9A002927A43541F40E942E27A93421F40E9430
:103DAA003327A03509F049C00E94522740E050E06D
:103DBA00493CE0E05E075CF40E94572729F40E9420
:103DCA00612711F40E946A274F5F5F4FF1CFED8997
:103DDA00FE89E357FC4FA081A23279F50E9472272F
:103DEA000E944E27E9F40E9477270E944E27C1F4C9
:103DFA000E947C270E944E2799F4ED89FE890E9431
:103E0A00432771F4ED89FE89ED56FC4F0E944E2737
:103E1A0039F4ED89FE89EC56FC4F0E944E2709F0D1
:103E2A0006C0E0E0E0936004E093610406C0E1E0CC
:103E3A00F0E0E0936004F09361040E941F27A43429
:103E4A0081F40E942427A53461F40E942927A6350B
:103E5A0041F40E942E27A93421F40E943327A43466
:103E6A0009F041C00E9452270E94812740E050E099
:103E7A00493CE0E05E075CF40E94572729F40E945F
:103E8A00612711F40E946A274F5F5F4FF1CF0E94AA
:103E9A009127A081A23239F5ED89FE89E357FC4FBB
:103EAA00A081E0915804EA17A9F40E947227A08120
:103EBA00E0915904EA1771F40E947727A081E091F2
:103ECA005A04EA1739F40E947C27A081E0915B0426
:103EDA00EA1709F003C00E94962705C0E0E0E093C4
:103EEA00EF04E093F0040E941F27A73481F40E9494
:103EFA002427A03561F40E942927A23541F40E94A3
:103F0A002E27AD3421F40E943327A33409F024C1AB
:103F1A000E94522740E050E0493CE0E05E0744F549
:103F2A00FA01A98DBA8DEA0FFB1FE457FC4FA08155
:103F3A00AC32D9F40E94612711F40E946A27AF8932
:103F4A00B88D129739F4E98DFA8DE40FF51F319681
:103F5A00EB8BFC8BAF89B88D199739F4E98DFA8D03
:103F6A00E40FF51F3196E98BFA8B4F5F5F4FD4CF81
:103F7A00E3E0EA936CD8E4E0EA9369D8E5E0EA93EF
:103F8A0066D80E9491270E944E27FF2352F03A9743
:103F9A0044F4ED89FE893196AB89BC89EA17FB079F
:103FAA0009F481C0ED89FE890E943D27EE83AE8126
:103FBA00A03010F0AA3008F005C0EE81A0E8B0E009
:103FCA000E94C6280E947C270E944E27EE83AE815B
:103FDA00A03010F0AA3008F005C0EE81A2E8B0E0E7
:103FEA000E94C6280E9477270E944E27EE83AE8140
:103FFA00A03010F0AA3008F005C0EE81A4E8B0E0C5
:10400A000E94C6280E9472270E944E27EE83AE8124
:10401A00A03010F0AA3008F005C0EE81A6E8B0E0A2
:10402A000E94C628ED89FE89E357FC4F0E944E275D
:10403A00EE83AE81A03010F0AA3008F004C00E94CE
:10404A00D925EB87FC870E9491270E944E27EE8391
:10405A00AE81A03010F0AA3008F004C00E94D92521
:10406A00ED87FE87ED85FE85AAE0B0E00E946D2807
:10407A00AB85BC85EA0FFB1FE987FA873597EF8383
:10408A00F887A885AA234AF47896EF83F8870E94CE
:10409A009D270E94A2270E94A9270E949D270E946D
:1040AA00A2270E94A927EB89FC89E457FC4FE081EB
:1040BA00F0E0E0936204F0936304E5E3FEE2FA932E
:1040CA00EA93E0916204F09163040E9460280E94DE
:1040DA00AE2884E00E94792526960E94B027FF2305
:1040EA0012F03A970CF038C00E94B027AEE8B0E060
:1040FA000E94B527E357FC4F0E944E27ACE8B0E078
:10410A000E94B527E257FC4F0E944E27A2E9B0E071
:10411A000E94B527E157FC4F0E944E27A0E9B0E064
:10412A000E94B527E057FC4F0E944E27A6E9B0E04F
:10413A000E94B5270E943D27A4E9B0E00E94C62844
:10414A00AF81B885539744F00E94BA27F0E03197BF
:10415A00ACE8B0E00E94C6280F5F1F4FC8CC6624A7
:10416A004424F19A20E030E0293CE0E03E074CF498
:10417A00ABE8B3E0A20FB31FE0E0EC932F5F3F4F31
:10418A00F3CF0E94DE286B960895E0E8E093610081
:10419A00E0E0E0936100EFEFE7B9E2B9E0EFE1B9FF
:1041AA00E0E0E5B9EFEFE4B9E0E0EBB9E0EFEAB956
:1041BA00E0E0E093C000E8E9E093C100E6E0E093C4
:1041CA00C200E0E0E093C500E5E0E093C400E0E06F
:1041DA00E4BDE5E0E5BDE0E0E6BDE7BDE8BDE1E060
:1041EA00E0936E000E94E817EAE0F0E00E94BF2721
:1041FA000E94C527E0EFF9E00E94F2260E94B72547
:10420A00EFE7F0E00E94FA266AD9E0EDF7E00E94B3
:10421A00BF27E0EFFDE00E94F2260E94B725EDE2FB
:10422A00F0E00E94FA265BD9E3E5F4E0FA93EA9318
:10423A00E7E3F0E00E94C9270E94D027EDE0F3E00F
:10424A00FA93EA93EBE3F0E00E94D5270E9406274F
:10425A000E940B27E8E5F4E0FA93EA93E2E5F0E03E
:10426A000E94D5270E9406270E940B27E0EDF7E05F
:10427A000E94BF270E949A26EF3F79F4AAE8B0E08D
:10428A00E0E00E94C6280E9489260E9473260E94A6
:10429A0094260E947E260E946D260E94D827EF3F10
:1042AA0041F40E94BA27EF3F21F40E94DD27EF3F35
:1042BA0009F019C0ACE8B0E0E0E00E94C628AEE818
:1042CA00B0E00E94C628A0E9B0E00E94C628A2E990
:1042DA00B0E00E94C628A4E9B0E00E94C628A6E978
:1042EA00B0E00E94C628A8E2B0E00E94BA28EF3FD8
:1042FA0031F4A8E2B0E0E0E00E94C62804C0A8E2D7
:10430A00B0E00E94BA28E093FD04AAE2B0E00E945D
:10431A00BA28EF3F31F4AAE2B0E0E0E00E94C628F2
:10432A0004C0AAE2B0E00E94BA28E093FE0478949E
:10433A00E0EFF1E10E94F2260E94F526E9E1F0E0C1
:10434A000E94FA26CCD80E945D2686E695E001975F
:10435A00F1F7BDDB7724AA2499240E949627F199C4
:10436A0002C0B5DBF19A8A92EFE4F0E00E94FA26E5
:10437A000E9406270E9434192FDA9BDA15DB40DBEC
:10438A007BDBA091EF04B091F004119711F00C942B
:10439A00A423A0916004B0916104119711F4E5E49B
:1043AA0001C0E0E2EA93E3E1F0E00E94F226E1E0F4
:1043BA00EA93EA930E943419E0917A04E03011F00A
:1043CA000C945522E6E6F4E0FA93EA93ECE3FEE273
:1043DA00FA93EA930E949A260E94DF260E948F2669
:1043EA000E94DF260E9484260E94DF260E947926E8
:1043FA000E94DF260E9458260E94DF260E944E262F
:10440A000E94DF2688E140D36C960E944E26E093F4
:10441A00F1040E945826E093F2040E947926E09360
:10442A00F3040E948426E093F4040E948F26E0930A
:10443A00F5040E949A26E093F6040E94BA27E093B4
:10444A00F704AEE8B0E00E94BA28E093F8040E94AC
:10445A00D827E093F904A2E9B0E00E94BA28E093D1
:10446A00FA040E94DD27E093FB04A6E9B0E00E946B
:10447A00BA28E093FC04E091FD04A8E2B0E00E94AF
:10448A00C628E091FE04AAE2B0E00E94C628E6E649
:10449A00F4E00E94FA260E94E2270E94D027FDC07B
:1044AA00A0917A04A130D9F40E9481270E941A2788
:1044BA000E944528EBE7F4E0FA93EA93E0E3F0E0A0
:1044CA000E94E727E0E0EA93E2E0EA93E1E0EA9378
:1044DA000E94BA190E94C527E0EDF7E0D5C0A09165
:1044EA007A04A23011F00C94C1220E9481270E9402
:1044FA001A270E944528E1E1F3E00E94D5270E948D
:10450A00E2270E9406270E940B270E94EE27E2E27A
:10451A00F3E0FA93EA93EDE2F0E00E94F4270E94B6
:10452A000B270E94FB27E4E2F3E0FA93EA93E5E320
:10453A00F0E00E94F4270E940B270E94FB27E6E284
:10454A00F3E0FA93EA93EDE3F0E00E94F4270E9485
:10455A000B270E94FB27E8E2F3E0FA93EA93E5E4EB
:10456A00F0E00E94F4270E940B270E94EE270E9487
:10457A00C527E8EEF3E088C0A0917A04A330B9F425
:10458A000E9481270E941A270E944528EAE2F3E046
:10459A00FA93EA93ECE1F0E00E94E7270E940627EB
:1045AA000E940B270E94C527E8EEF3E06DC0A09198
:1045BA007A04A430B9F40E9481270E941A270E9423
:1045CA004528E3E3F3E00E940128E3E0F0E0FA93F0
:1045DA00EA930E9406270E940B270E94C527E8EE4D
:1045EA00F3E052C0A0917A04A53009F50E94812710
:1045FA000E941A270E944528EFE3F3E00E9401284F
:10460A000E94E2270E9406270E940B27EAE4F3E0B1
:10461A000E940128E4E0F0E0FA93EA930E94062758
:10462A000E940B270E94C527E8EEF3E02DC0A09157
:10463A007A04A630A9F40E9481270E941A270E94B0
:10464A004528E6E5F3E00E9401280E94E2270E943D
:10465A0006270E940B270E94C527E8EEF3E014C044
:10466A00A0917A04A730C9F40E948127E5E8F4E012
:10467A00FA93EA930E941A270E94E2270E940627C9
:10468A000E940B27E8EBFBE0FA93EA930E94452885
:10469A000E948127E0E0E0937A040E940428A13472
:1046AA00E0E0BE0719F4E0EFFDE10BC00E94042828
:1046BA00A635E0E0BE0719F00E940428D997E0EF7A
:1046CA00F1E2FA93EA93EFE5F0E00E94F226EFE7CF
:1046DA00F0E0FA93EA930E941A270E94741AEEE60F
:1046EA00F4E0FA93EA93E3EAFEE2FA93EA93A6E99C
:1046FA00B0E00E9409280E94DD270E94DF26A2E975
:10470A00B0E00E9409280E94D8270E94DF26AEE85E
:10471A00B0E00E9409280E94BA270E94DF2688E199
:10472A00B3D16C96EEE6F4E0FA93EA93E2E2F0E0B3
:10473A000E94D5270E9406270E940B2716C0EFE683
:10474A00F3E0FA93EA93EEE1F0E00E94C9270E94AF
:10475A0006270E940B27E8E7F3E0FA93EA93EFE0D3
:10476A00F0E00E94F4270E940B27E0EFF5E1FA93AC
:10477A00EA93E9E6F0E00E94D527EFE7F0E00E942D
:10478A00FA260E94741AEBCDFFCFE091C000E072C6
:10479A00E1F3E881E093C60021960895EA81EA935D
:1047AA00F4DFA881B9810E94D325239608951A932C
:1047BA000A93AA81BB8112960E94A628309729F1F2
:1047CA00AA81BB8114960E94A6288F01309761F0B6
:1047DA000230E0E01E07C0F0F80131978F01AA818C
:1047EA00BB811496ED93FC93AA81BB8112960E9419
:1047FA00D3253197AC81A083AA81BB810E94A628C8
:10480A00FF2312F00E94D32506C0AA81BB81EFEFD5
:10481A00FFEFED93FC931981088125960895269759
:10482A000E94D72810E0AC85BD85E0E0F0E0ED936A
:10483A00FC93EA89FB893196EA8BFB8B3197E491E9
:10484A002E2FE03011F40C944125E12FE03039F499
:10485A00253211F411E002C00E940C280CC1E1308B
:10486A00A9F4253219F40E940C2804C112E040E090
:10487A0000E02D3211F401E0FEC02B3211F44BE2BC
:10488A00FAC0203211F440E2F6C002C0E23039F434
:10489A0050E013E0203311F40068EDC004C0E330A7
:1048AA0011F00C944025203310F02A3308F007C089
:1048BA00AAE05A9F502DE22FE0535E0FDCC0E22F90
:1048CA00E33649F40E941528E889F989A481AA9354
:1048DA000E941B28CFC0E33741F40E9415280E948A
:1048EA0023280E949A251E2F0AC0E03761F40E94ED
:1048FA0015280E9423280E94A4251E2F0860026002
:10490A000F7730E035C0E43611F0E93611F404606F
:10491A0002C0E53731F4E0E4FDE2EE83FF8315E0FF
:10492A000DC0E83511F4086004C0E83711F00C94A2
:10493A003F25EAE4FDE2EE83FF8314E002FF14C0A0
:10494A000E9415280E942D28AB85AA233AF4EA85ED
:10495A00FB850E945528EA87FB874DE2403011F01B
:10496A001F5F01C00B7F04C00E9415280E942D28DA
:10497A0000FD11C0151778F407FF08C002FF04C034
:10498A000B7F242F115001C020E301C020E20E94B6
:10499A000C285150EFCF312F01FF17C03030A1F052
:1049AA0003FF06C0EE81FF812591EE83FF8305C0D8
:1049BA00AE81BF812D91AE83BF830E940C285030F7
:1049CA0009F051503150EACF4BC020E3EE81FF810C
:1049DA000E94AA28E887F987EE81FF813296EE8342
:1049EA00FF83E885F985AA85BB85AE17BF0750F016
:1049FA002F5FA885B985EA85FB85EA1BFB0BEA8749
:104A0A00FB87EFCF2A3328F003FF02C0295F01C0DA
:104A1A00295D04FD1AC0213320F4A885B9851197B0
:104A2A0009F409C0531710F000FF01C013C020E2B7
:104A3A0007FF0BC020E3006102FF07C00B7F4A9308
:104A4A000E941B28503009F051500E940C28503007
:104A5A0009F051503150A885B985129708F0B5CFA1
:104A6A0000FF08C0503031F05150E0E2EA930E9452
:104A7A001B28F8CF10E0DDCEAC85BD850E94A628A4
:104A8A000E94DE2864960895FF92F82E26970E94C7
:104A9A00D9280E943528309719F4EFEFFFEF1FC08D
:104AAA00DE0116960E9451288D010E943528EE8358
:104ABA00FF83E0E0E887E987DE011A960E943C2836
:104ACA00ECEDF3E2FA93EA93FE013A96FA93EA934B
:104ADA00A6DE9F01AE81BF81E0E0EC93F9010E945E
:104AEA00E0282A96FF900895FF92F82E26971A93A7
:104AFA000A93DE0114960E9451288D01E0E0EC83AE
:104B0A00ED83EE83EF83DE0118960E943C28E3EDE5
:104B1A00F3E2FA93EA93FE013896FA93EA937FDE78
:104B2A00198108812896FF900895A991B991EE27D5
:104B3A00FF276D91662311F03196FBCF0895AA27BE
:104B4A00BB27E991F9910590002011F01196FBCF4E
:104B5A00FD010895FA93EA930C94F017FA93EA93F5
:104B6A000C940C18E0E0F0E0FA93EA930895EC81D3
:104B7A00F0E0FA93EA930C941718E12FF0E0089505
:104B8A00AE81BF81EE27A10FBE1FEC910895FE01F1
:104B9A00E95BFF4F0190F081E02D0895ED91FD91C1
:104BAA003196FE93EE930895EE81F0E00895E09138
:104BBA008603F0918703E15CF040A6E0B0E00E9432
:104BCA006528E458F74F0895E15CF040A6E0B0E0AC
:104BDA000E946528E458F74F0895F0E0FA93EA93A3
:104BEA000895F0E0EA0FFB1F0895FA93EA93EE8125
:104BFA00FF810895FA93EA93EE81EA930C94A2183E
:104C0A00E985FA85FA93EA930E949A25A12FB0E0E2
:104C1A00AE17BF070895A985BA85AE0FBF1F0895BD
:104C2A00E885F985FA93EA930895EA93E985EA9380
:104C3A000C943419EA81F0E0E7FDFFEF3896DF01C2
:104C4A00EB81F0E00E946D280895EB81A8E0EA026A
:104C5A00F0010895EB81F0E0AD81BE81EA0FFB1F00
:104C6A00ED83FE830895A985BA85EA0FFB1FA1810A
:104C7A000895EC81A8E0EA02F001A885B985AE1B87
:104C8A00BF0BBA93AA93CCCFAE1BBF0BAF83B88727
:104C9A000895A0E8B0E00E94BA280895EF5F0E9444
:104CAA00C628E1500895A2E8B0E00E94BA28089503
:104CBA00E6E6FDE2FA93EA9380E00E9479252296DD
:104CCA000895FA93EA9380E00E947925229608953E
:104CDA00A0E8B0E0E0E00E94C6280895A2E8B0E0AB
:104CEA00E0E00E94C6280895A4E8B0E00E94BA282D
:104CFA000895A4E8B0E0E0E00E94C6280895A6E876
:104D0A00B0E00E94BA280895A6E8B0E0E0E00E9468
:104D1A00C6280895A8E8B0E00E94BA280895A8E82D
:104D2A00B0E0E0E00E94C6280895AAE8B0E00E9438
:104D3A00BA280895E4E6F0E0FA93EA930C94452839
:104D4A00FA93EA93E8E5F4E0662777270E94AE280B
:104D5A00E091F804FF27662777270E94AE28E091A2
:104D6A00F704FF27662777270E94AE28E091FA0406
:104D7A00FF27662777270E94AE28E091F904FF27CC
:104D8A00662777270E94AE28E091FC04FF27662752
:104D9A0077270E94AE28E091FB04FF276627772732
:104DAA000E94AE28E091F604FF27662777270E9423
:104DBA00AE28B0CFFF27662777270E94AE2808952E
:104DCA000E94941BE8ECF0E0FA93EA930C944528CD
:104DDA00F0E0E130A0E0FA070895FA93EA93C2CE30
:104DEA00E5E0F0E0FA93EA930895FA93EA93E7E0AC
:104DFA00F0E0FA93EA930895FA93EA93ECE2F0E08A
:104E0A00F4CFE0E0EA93E1E0EA930895EFEFEA9362
:104E1A000C94BA19E8ECF0E0FA93EA930C9445285A
:104E2A00E4E1F0E0FA93EA930895E1E0F0E0FA931E
:104E3A00EA930895F801E557FC4FA0810895F80117
:104E4A00E457FC4FA0810895F801E357FC4FA08175
:104E5A000895F801E257FC4FA0810895F801E1573F
:104E6A00FC4FA0810895D8011796E091EB04B9CEC2
:104E7A00EF56FC4FE081F0E0F0970895EE56FC4FB4
:104E8A00E081F0E0F0970895E0936404F0936504FC
:104E9A000895E081F0E0F0970895F8013496E98FDB
:104EAA00FA8F0895FA01A98DBA8DEA0FFB1FE4570C
:104EBA00FC4FA081AA330895EF89F88D3196EF8BC4
:104ECA00F88FAF89B88D11970895E98DFA8DE40F9F
:104EDA00F51F3196ED8BFE8B0895ED89FE89E25719
:104EEA00FC4F0895ED89FE89E157FC4F0895ED893D
:104EFA00FE89E057FC4F0895E2E0EA930E942C18DD
:104F0A00E3E0EA930E942C18E4E0EA930E942C184A
:104F1A00E5E0EA930C942C18ED89FE89E457FC4FDE
:104F2A000895E1E0F0E0E093EF04F093F0040895CF
:104F3A00AF81B885EAE0F0E008950E948A28A8E8DF
:104F4A00B0E00E94C628F4CF0E948528AAE8B0E003
:104F5A000E94C6280895E989FA89E457FC4F99CF37
:104F6A000E94C628E989FA890895ACE8B0E00E944F
:104F7A00BA280895FA93EA930E9445280C9449188E
:104F8A000E94941B0C94941BFA93EA93E2E0F0E0DB
:104F9A00FA93EA930895E0E0EA93E2E0EA9336CFDF
:104FAA00FA93EA931DCFA0E9B0E00E94BA280895C7
:104FBA00A4E9B0E00E94BA280895E2E0F0E0FA938A
:104FCA00EA930895FA93EA93E3E0F0E0FA93EA9316
:104FDA000895E4EFF1E0FA93EA930C944528FA93E2
:104FEA00EA93E4E0F0E0FA93EA930BCFECE2F1E023
:104FFA00FA93EA930C944528FA93EA9311CFA09175
:10500A006204B091630408950E94BA28D3CE2A9309
:10501A00ED85FE85FA93EA93E989FA890995089557
:10502A00E889F9893497E88BF98B0895ED85FE852F
:10503A00FA93EA93E989FA8909950895A889B989B9
:10504A0014960E94A628EE83FF83FA93EA930895A2
:10505A00A889B98914960E94A628EA87FB87089529
:10506A00DE011C960E9451280E94A62808950E94DB
:10507A0051280E94A628FA93EA931A930A9308954C
:10508A00E991F991309639F08DEC9AE00197F1F7B0
:10509A00A8953197C9F708950024AF0DB01D08955A
:1050AA00F195E195F0400895EE0FFF1FEE0FFF1FF7
:1050BA00EE0FFF1F08956F2F660F660B762F089568
:1050CA00FA9FF02DEB9FF00DEA9FE02DF10D089568
:1050DA002AD0F6DF0EF4E4DF08950024112490E1CB
:1050EA00AA0FBB1F001C111C0E1A1F0A18F40E0E61
:1050FA001F1E01C0A1609A9599F7FD01D00108957C
:10510A0012D0EBDF0EF4CCDF0895E894B7FF04C0A9
:10511A00A095B09511966894F7FDC2DFDEDFFD0118
:10512A000EF4BEDF0895E894F7FF02C0B9DF689471
:10513A00B7FF06C0A095B095119600F8039400FA3F
:10514A000895ED91FC91119708950590F491E02D41
:10515A0008957A936A93FA93EA9308951B2EBF2FC0
:10516A00F12D1A2EAE2FE12D0895F999FECFFF9356
:10517A00FFB7F894A1BDB2BDF89AE0B5FFBFFF91A1
:10518A000895F99B02C0A895FCCF9FB7F894A1BDDA
:10519A00B2BDF89A80B5E81719F0E0BDFA9AF99A03
:1051AA009FBF08955A934A933A932A931A930A935C
:1051BA0008955D814C813B812A8119810881089576
:00000001FF
