:020000000C945E
:10000200BD170C9400000C9400000C9400000C949A
:1000120000000C9400000C9400000C9400000C945E
:1000220000000C9400000C9400000C9400000C944E
:1000320000000C9400000C9400000C9400000C943E
:1000420000000C9400000C94E21A0C9400000C9432
:10005200B71A0C9400000C9400000C9400000C944D
:1000620000000C9400000C9400000C9400000C940E
:1000720000000C9400000C9400000000000000003E
:10008200000000000000000000000000000000006E
:10009200000000000000000000000000000000005E
:1000A200000000000000000000000000000000004E
:1000B200000000000000000000000000000000003E
:1000C200000000000000000000000000000000002E
:1000D200000000000000000000000000000000001E
:1000E200000000000000000000000000000000000E
:1000F20000000000000000000000000000000000FE
:1001020000000000000000000000000000000000ED
:1001120000000000000000000000000000000000DD
:1001220000000000000000000000000000000000CD
:1001320000000000000000000000000000000000BD
:1001420000000000000000000000000000000000AD
:10015200000000000000000000000000000000009D
:10016200000000000000000000000000000000008D
:10017200000000000000000000000000000000007D
:10018200000000004F000000000000070007000010
:1001920000000024FF24FF24000000444AFF4A32EA
:1001A200000040231308C4C2000000364955224013
:1001B20080000000050300000000003C42810000B6
:1001C20000000081423C000000000014083E0814B8
:1001D20000000010107C1010000000002818000021
:1001E200000000080808080808000060600000001D
:1001F20000004020100804020000007EFF8181FF01
:100202007E00008082FEFF80800000E2F191919FDB
:100212008E000062C3C9C9FF760000181412FFFFE6
:100222001000006F8F8989F97100007EFF8989F9BA
:100232007200000101F1FD0703000076FF8989FFCA
:10024200760000468F8989FF7E0000006666000006
:100252000000000056360000000000081422410091
:100262000000002424242424000000004122140859
:100272000000000201B109060000006291F1817ED6
:10028200000000FE111111FE000000FF898989762D
:100292000000007E81818142000000FF8181423C9A
:1002A200000000FF89898981000000FF0909090116
:1002B2000000007E81919172000000FF101010FF7B
:1002C2000000000081FF81000000004080817F016A
:1002D200000000FF18244281000000FF808080801F
:1002E200000000FF020C02FF000000FF040810FFE4
:1002F2000000007E8181817E000000FF1111110E3D
:1003020000007E81A141BE00000000FF1131518E2C
:1003120000000086898989710000000101FF010146
:100322000000007F8080807F0000003F4080403FCF
:100332000000003FC060C03F000000E3140814E367
:100342000000000708F00807000000C1A19189879A
:10035200000000FF8181000000000015167C1615C8
:1003620000000041417F000000000004020102047D
:100372000000004040404040000000010204000034
:100382000000006094949478000000FF88888870D0
:100392000000007884848400000000788484887FD0
:1003A200000000789494945800000010FE1101029D
:1003B2000000000C9292927E000000FF100808F0EC
:1003C2000000000084FD80000000006080807D004D
:1003D200000000FF304884000000000081FF800020
:1003E200000000FC043804F8000000FC080404F8D3
:1003F2000000007884848478000000FC141414083F
:1004020000000008141418FC000000FC0804040892
:100412000000008894949460000000047F8480406F
:100422000000007C808040FC0000003C4080403C9A
:100432000000003EC060C03E00000042241824427A
:10044200000000068888887E000000C4A4948C8482
:1004520000000008768100000000000000FF00009C
:10046200000000817608000000000008082A1C082D
:10047200000000081C2A08080000007C8281827C9F
:10048200000000000000000000000000000000006A
:10049200000000000000000000000000000000005A
:1004A200000000000000000000000000000000004A
:1004B200000000000000000000000000000000003A
:1008720000000000000000000000C1C1C1C1000072
:10088200C2C2FEFE0100C3C31F1F0100C4C4FCFCA0
:100892000100C5C5C5C50101C6BDBFBE0101C7C7AF
:1008A200C0C00100C88284830101C9C9FDFD0100E5
:1008B200CA8587860101CB888A890101CC8BCC8BC2
:1008C2000101CD8CCD8C0101CE11CE110101CFCF12
:1008D20013130100D0D08F8F0100D1D11B1B010057
:1008E200D2D291910100D39294930101D49597961B
:1008F2000101D5179A990101D69B9D9C0101D7D779
:10090200D7D70000D8D89E9E0101D9D99F9F010157
:10091200DAA0A2A10101DBA3A5A40101DCDCDCDCDD
:100922000000DDA6A8A70101DEA9ABAA0101DFAC88
:10093200AEAD0101E0E0E0E00000E1AFB1B00101E5
:10094200E2E2E2E20000E3B2B4B30101E4B5B7B619
:100952000101E5B8BAB90101E6E6BCBC0100E7E76E
:10096200E7E70000E8E8E8E80000E9E9E9E9000073
:10097200EAEAEAEA0000EBEBEBEB0000ECBDBFBEFB
:100982000101EDBDBFBE0101EEEEEEEE0000EFEFA4
:10099200EFEF0000F0F0F0F00000F1F1F1F10000F3
:1009A200F2F2F2F20000F3F3F3F30000F5F5F5F5DD
:1009B2000000F6F6F6F60000F7F7F7F70000F8F891
:1009C200F8F80000FBF9FBFA0101BBBBF4F40100EB
:1009D200811C1E1D010190181A1901019814161587
:1009E20001018E8E121201008D108D10010100C0C6
:1009F200F030381818181898B0B030303060606095
:100A0200606060C0C0C0C0C0C0C080808080800004
:100A120000000000000000000000000000000000D4
:100A220000000000000000000000000000000000C4
:100A320000000000000000000000000000000000B4
:100A420000000000000000000000000000000000A4
:100A52000000000000000000000000000000000094
:100A6200000000000000000000000000000000FF85
:100A7200FF00000C18F0E70FFD0F07000000000058
:100A820000000000000000000000010101818383DA
:100A920083C3E767E6C6060E0C0C0C0C0C1818187C
:100AA2007870E0C00000000000E0E00000000000FC
:100AB20080C0E06000E0E0606060606060E0C00014
:100AC200000080C06060C080000000E0E060606004
:100AD200606060C08000000080C06060C080000074
:100AE200000080C06060606060C08000000000FFA5
:100AF200FF00000000FFFF00FF00000000000000F8
:100B0200000000000080C06030188CC663311808F5
:100B120008090B0B0B090808080808081C3E363E9A
:100B22001C00FFFF0000000000FFFF70F88C8E0722
:100B32000301000000FFFFE0E0E06060607F3F0033
:100B4200FEFF616060606061FFFE00FFFF00000069
:100B5200000000FFFF00FEFF616060606061FFFE59
:100B620000FFFF000000000000000100000000FF85
:100B7200FF00000000FFFF003F30303030303030E7
:100B820030180CC6E331180C060301000000000007
:100B92000000000000000000000000000000000053
:100BA2000000FFFF00000000003F3F0000010307BC
:100BB2000E1C3830003F3F00000103070E3C380096
:100BC2003F3F0000000000003F3F003F3F30303019
:100BD2003030301F0F003F3F0000000000003F3F59
:100BE200000F1F303030303030381800000000FF66
:100BF200FF00000000FFFF00FF03030303030303E2
:100C020003060C193366CC983060C08000000000E7
:100C120000000000000000000000000000000000D2
:100C22000000FFFF000000000000000000000000C4
:100C320000000000000000000000000000000000B2
:100C420000000000000000000000000000000000A2
:100C52000000000000000000000000000000000092
:100C6200000000000000000000000000000000FF83
:100C7200FF00000000FFFF00FF0000000000000076
:100C8200000000000000000103060C193366444412
:100C920044E4F4B4F4E40404040404040E1F1B1F2B
:100CA2000E00FFFF000000FC0000000000F804043A
:100CB20004F8000C040404FC00F0888488F000802E
:100CC200808000FC8484040400F80404040800FC0E
:100CD200000000FC00F0888488F000FC040404F8A2
:100CE20000F8040404F800FC44C44438000000FF87
:100CF200FF00000603011C3E373E1C0000000000FE
:100D02000080808080C0C0C0C0C0E06060603030C1
:100D1200303031391918181C0C0C0C0C0E06060652
:100D2200070301000000000F080808080007080870
:100D32000807000608080807000F0000000F00005F
:100D42000000000F08080808000708080804000748
:100D520008080807000F0000000F000F0808080726
:100D6200000708080807000F0000010E000000013C
:100D720007060E0C0C0C0C0C0606060603030303F6
:100D82000301010101010000000000000000000059
:100D92000000000000000000000000000000000051
:100DA2000000000000000000000000000000000041
:100DB2000000000000000000000000000000000031
:100DC2000000000000000000000000000000000021
:100DD2000000000000000000000000000000000011
:100DE2000000000000000000000000000000000001
:100DF20000000000000000000000000000000000F1
:100E020000000000000000000000000000000000E0
:100E120000000000000000000000000000000000D0
:100E220000000000000000000000000000000000C0
:100E320000000000000000000000000000000000B0
:100E420000000000000000000000000000000000A0
:100E52000000000000000000000000000000000090
:100E62000000000000000000000000000000000080
:100E7200000000C0E0F0F0F8F8F8F8F8FCFCFCFC28
:100E8200FCFCFCFCFCFCFCFCFCFCFCFCFCFCFCFCA0
:100E9200F8F8F8F8F8F0E0E0C00000000000000008
:100EA2000000000000000000000000000000000040
:100EB2000000000000000000000000000000000030
:100EC2000000000000000000000000000000000020
:100ED2000000000000000000000000000000000010
:100EE2000000000000000000000000000000000000
:100EF2000000FEFFFF0301030303030303030303D5
:100F02000303030303FFFF030301030303030303B9
:100F12000303030303030307FFFE000000000000B6
:100F220000000000000000000000000000000000BF
:100F320000000000000000000000000000000000AF
:100F4200000000000000000000000000000000009F
:100F5200000000000000000000000000000000008F
:100F6200000000000000000000000000000000007F
:100F72000000FFFFFFC0C0C0C0C0C0C0C0C0C0C032
:100F8200C0C0C0C0E0FFFFE0C0C0C0E0D0C8C4C461
:100F9200C4C4C8D0E0C0E0F0FFFF000000000000C1
:100FA200000000000000000000000000000000003F
:100FB200000000000000000000000000000000002F
:100FC200000000000000000000000000000000001F
:100FD200000000000000000000000000000000000F
:100FE20000000000000000000000000000000000FF
:100FF2000000FFFFFFFFFFFFFFFFFFFFFFFFFFFFFD
:10100200FFFFFFFFFFFFFFFFFFFFFFFFFFFFFFFFEE
:10101200FFFFFFFFFFFFFFFFFFFF000000000000D8
:1010220000000000000000000000000000000000BE
:1010320000000000000000000000000000000000AE
:10104200000000000000000000000000000000009E
:10105200000000000000000000000000000000008E
:10106200000000000000000000000000000000007E
:1010720000003FFFFFE1E1E1E1FFFFFFF9D9D9D92C
:10108200D9D9D9D9D9D9D9D9D9D9D9D9D9D9C9FBBC
:10109200FFFFFFE1E1C1E1F7FF3F000000000000B8
:1010A200000000000000000000000000000000003E
:1010B200000000000000000000000000000000002E
:1010C200000000000000000000000000000000001E
:1010D200000000000000000000000000000000000E
:1010E20000000000000000000000000000000000FE
:1010F200000000001F3F3F3F3F3F3F000000000055
:1011020000000000000000000000000000000000DD
:101112001F3F3F3F3F3F3F1F000000000000000015
:1011220000000000000000000000000000000000BD
:1011320000000000000000000000000000000000AD
:10114200000000000000000000000000000000009D
:10115200000000000000000000000000000000008D
:1014F200000000F884C202020202FE020202C2FEE0
:1015020002020202C4F80000000000000000000015
:1015120000000000000000000000000000000000C9
:1015220000000000000000000000000000000000B9
:1015320000000000000000000000000000000000A9
:101542000000000000000000000000000000000099
:101552000000000000000000000000000000000089
:101562000000000000000000000000000000000079
:10157200001E1F7FFFFD7C1C1C1C1F1C1C1C1F1F30
:101582007CFCFC7C1F0F000000000000000000003B
:101592000000000000000000000000000000000049
:1015A2000000000000000000000000000000000039
:1015B2000000000000000000000000000000000029
:1015C2000000000000000000000000000000000019
:10195200000000000000000000000038FC0202024B
:101962000202060606BAFABA0202FC3800000000B9
:101972000000000000000000000000000000000065
:101982000000000000000000000000000000000055
:101992000000000000000000000000000000000045
:1019A2000000000000000000000000000000000035
:1019B2000000000000000000000000000000000025
:1019C2000000000000000000000000000000000015
:1019D2000000000000000000000000003F3EFEF298
:1019E200F23E3E3E3F3FF3F3FF3E3F000000000069
:1019F20000000000000000000000000000000000E5
:101A020000000000000000000000000000000000D4
:101A120000000000000000000000000000000000C4
:101A220000000000000000000000000000000000B4
:101CF200000000F884C282DAFAE2FE020202C2FEA8
:101D020002020202C4F8000000000000000000000D
:101D120000000000000000000000000000000000C1
:101D220000000000000000000000000000000000B1
:101D320000000000000000000000000000000000A1
:101D42000000000000000000000000000000000091
:101D52000000000000000000000000000000000081
:101D62000000000000000000000000000000000071
:101D7200001E1F7FFFFD7C1F1F1F1F1C1C1C1F1F1F
:101D82007CFCFC7C1F0F0000000000000000000033
:101D92000000000000000000000000000000000041
:101DA2000000000000000000000000000000000031
:101DB2000000000000000000000000000000000021
:101DC2000000000000000000000000000000000011
:101DD2000000000000000000000000000000000001
:101DE20000000000000000000000000000000000F1
:101DF20000000000000000000000000000000000E1
:101E020000000000000000000000000000000000D0
:101E120000000000000000000000000000000000C0
:101E220000000000000000000000000000000000B0
:101E320000000000000000000000000000000000A0
:101E42000000000000000000000000000000E010A0
:101E520090908000F0909090600060909010000050
:101E620000002070F8702000807800FC0000000064
:101E72000000000000000000000000000000000060
:101E82000000000000000000000000000000000050
:101E92000000000000000000000000000000000040
:101EA2000000000000000000000000000000000030
:101EB2000000000000000000000000000000000020
:101EC2000000000000000000000000000000030409
:101ED20004040300070000000000040404030000DF
:101EE2000010141414141209040A35180800000012
:101EF20000000000000000000000000000000000E0
:101F020000000000000000000000000000000000CF
:101F120000000000000000000000000000000000BF
:101F220000000000000000000000000000000000AF
:102242000000000000000000000000000000E0109C
:1022520090908000F090909060006090901000004C
:102262000000000000000000807800FC0000000078
:10227200000000000000000000000000000000005C
:10228200000000000000000000000000000000004C
:10229200000000000000000000000000000000003C
:1022A200000000000000000000000000000000002C
:1022B200000000000000000000000000000000001C
:1022C2000000000000000000000000000000030405
:1022D20004040300070000000000040404030000DB
:1022E2000010141414141209040A3518080000000E
:1022F20000000000000000000000000000000000DC
:1023020000000000000000000000000000000000CB
:1023120000000000000000000000000000000000BB
:1023220000000000000000000000000000000000AB
:1025F2000000000000808000E0E000F8F800FEFE2D
:1026020000000000000000000000000000000000C8
:1026120000000000000000000000000000000000B8
:1026220000000000000000000000000000000000A8
:102632000000000000000000000000000000000098
:102642000000000000000000000000000000000088
:102652000000000000000000000000000000000078
:102662000000000000000000000000000000000662
:10267200060007070007070007070007070007070C
:102682000000000000000000000000000000000048
:102692000000000000000000000000000000000038
:1026A2000000000000000000000000000000000028
:1026B2000000000000000000000000000000000018
:1029F2000000000000808000E0E000000000000015
:102A020000000000000000000000000000000000C4
:102A120000000000000000000000000000000000B4
:102A220000000000000000000000000000000000A4
:102A32000000000000000000000000000000000094
:102A42000000000000000000000000000000000084
:102A52000000000000000000000000000000000074
:102A6200000000000000000000000000000000065E
:102A72000600070700070700070700000000000024
:102A82000000000000000000000000000000000044
:102A92000000000000000000000000000000000034
:102AA2000000000000000000000000000000000024
:102AB2000000000000000000000000000000000014
:102AC2000000000000000000000000000000000004
:102AD20000000000000000000000000000000000F4
:102AE20000000000000000000000000000000000E4
:102AF20000000000000000000000000000000000D4
:102B020000000000000000000000000000000000C3
:102B120000000000000000000000000000000000B3
:102B220000000000000000000000000000000000A3
:102B32000000000000000000000000000000000093
:102B42000000000000000000000000000000000083
:102B52000000000000000000000000000000000073
:102B62000000000000000000000000000000000063
:102B72000000000000000000000000000000000053
:102B82000000000000000000000000000000000043
:102B9200000000000000000000000000000000062D
:102BA200060007070000000000000000000000000F
:102BB2000000000000000000000000000000000013
:102BC2000000000000000000000000000000000003
:102BD20000000000000000000000000000000000F3
:102BE20000000000000000000000000000000000E3
:102BF20000000000000000000000000000000000D3
:102C020000000000000000000000000000000000C2
:102C120000000000000000000000000000000000B2
:102C220000000000000000000000000000000000A2
:102C32000000000000000000000000000000000092
:102C42000000000000000000000000000000000082
:102C52000000000000000000000000000000000072
:102C62000000000000000000000000000000000062
:102C72000000000000000000000000000000000052
:102C82000000000000000000000000000000000042
:102C92000000000000000000000000000000000032
:102CA2000000000000000000000000000000000022
:102CB2000000000000000000000000000000000012
:102CC20000000000000000000000000000000006FC
:102CD20006000404040404040404040404040404B4
:102CE20000000000000000000000000000000000E2
:102CF20000000000000000000000000000000000D2
:102D020000000000000000000000000000000000C1
:102D120000000000000000000000000000000000B1
:102D220000000000000000000000000000000000A1
:102D3200000000000000000000000000000010275A
:102D4200E80364000A000100001000011000010005
:102D5200C10053495455383838380000000020006B
:102D62000020000000004154245454444556494474
:102D72003F0A0D0041542B4353510A0D0041542484
:102D820054544E455449503F0A0D00415424545462
:102D92004750535152593D31302C300A0D004154A5
:102DA200245454534E444D473D342C222424424C47
:102DB20025732C2564256425642564323025642519
:102DC200642C2564256425642564256425642C52BD
:102DD200322C25642C25643A58582323220D0A00EC
:102DE2004154245454534E444D473D342C22242400
:102DF200424C25732C2564256425642564323025D4
:102E02006425642C25642564256425642564256471
:102E12002C53322C313233342C25643A5858232324
:102E2200220D0A00525554413A0020202020202031
:102E32000050256400256300425553005645525FF9
:102E4200302E392E3000256425643A256425643AF3
:102E52002564256400494E4943494F204445205387
:102E62004553494F4E002A0046494E20525554417F
:102E720000494E4943494F20525554410020484190
:102E82002053414C49444F0044454C20534953542C
:102E9200454D41004E4543455349544120494E4911
:102EA20043494152204A4F524E414441004D454E02
:102EB20053414A453A003230256425642D25642564
:102EC200642D256425640050616E74616C6C610030
:102ED2004E6F204175746F72697A616461000100FE
:102EE2002D4E414E00000100A603522D0400130591
:102EF200542D04001805582D06000003262E070045
:102F020006032C2E04000D033A2E0A0011033E2E56
:102F120011001B03572E02002C03682E02002E0301
:102F2200682E02003003682E02003203682E090068
:102F320034036A2E0C003D03732E0B0049037F2ECF
:102F42000C0054038A2E19006003962E090079039F
:102F5200AF2E06008203B22E07008803B12E0900AD
:102F62008F03C92E0E009803D22E0C0003005C2D95
:102F720001005905E02E0000F894EE27EFBBF1E0C6
:102F8200F5BFE5BFF8E1A895A4B7A77FA4BFF0936A
:102F92006000E09360008DE0A2E0BB27ED938A958C
:102FA200E9F780E098E0A0E0B1E0ED930197E9F75E
:102FB200E8EEFEE285919591009761F0A591B591B9
:102FC20005901590BF01F00105900D920197E1F770
:102FD200FB01F0CFE0E0EEBBEFEFEDBFE8E0EEBFCC
:102FE200C0E0D3E00C94C5205F9A87E38A95F1F79D
:102FF2005F9887E38A95F1F70895169A179A5E9873
:103002005D98EFE3E8B9F0DF08951A935E985D9852
:10301200A981BA81A034E0E0BE0720F4169A17987D
:10302200198107C0179A1698E981FA81E054F04095
:103032001E2FE12FE064EF771E2F18B9D5DF18811C
:103042003BC01A935E985D98E981E86BEF7B1E2F77
:1030520018B9CADF188130C0EA81FB810E94E825D5
:10306200E881F9810E94EC25249608955E9A5D9884
:10307200E881E8B98DED90E00197F1F7B5DF21968F
:1030820008951A930A930E94F0250E94F525E0E420
:10309200F0E0FA93EA930E94F525169A00E010E018
:1030A2000134E0E01E0734F4E0E0EA93DFDF0F5F73
:1030B2001F4FF6CF19810881239608951A930A9318
:1030C20000E010E00830E0E01E072CF40A93D9DF9C
:1030D2000F5F1F4FF7CF0991199108951A93EB8152
:1030E200FC810E94E825E981FA810E94EC2510E02A
:1030F200183080F4ED81FE810E94E528DF010E94F4
:10310200FB25EA0FFB1FE458FF4FE491EA93AEDF81
:103112001F5FEECF188141C10E94652920E010E0B7
:10312200EC811E1700F500E00830D8F40E94FE255D
:10313200F0E0F595E795EC93ED81E1703E2F3030AC
:1031420021F00E94FE25E068EC932F5FEC81E217EC
:1031520031F4ED81F0E0F595E795ED8320E00F5F26
:10316200E3CF1F5FDDCF0E946C2928960895EF9769
:1031720021970E9465290E9405260E94E825FE01EA
:10318200EB5BFF4F0190F081E02D0E94EC2510E0F7
:10319200183008F50E94FB25BF010E94E528DE01D8
:1031A2001496EA0FFB1FFA93EA93FE01E55BFF4FC9
:1031B2000190F081E02D0E94E528E60FF71FE45808
:1031C200FF4FE491EA93FE01E95BFF4FE081EA934E
:1031D200A3DF1F5FDDCF00E0FE01EC5BFF4FE0816C
:1031E2000E1710F00C94451910E0183010F00C94E2
:1031F200371930E0FE01EC5BFF4FE0813E17A0F58E
:10320200E32FF0E0DE01A95BBF4F0D90BC91A02D32
:10321200EA0FFB1FBF01DE01AC5BBF4FAC91BB27C6
:103222000E94FB250E94F928DB01AE0FBF1FA034CC
:10323200E0E0BE0749F4E0E4F0E0FA93EA930E948A
:103242000526FA93EA9308DF0E94FB250E94E528EF
:10325200DE011496AE0FBF1FEE27A00FBE1FEC912A
:10326200EA9304DF3F5FC6CF1F5FBFCF0E940526F0
:10327200FA93EA93DE01A95BBF4F0E940C26FA93F0
:10328200EA93EADE0F5FA8CF0E946C29EF962C9694
:103292000895A981A13011F00C94C6190E9412263A
:1032A200E138A0E0FA0711F4EAEF17C0E039A0E034
:1032B200FA0711F4EBEF11C0E839A0E0FA0711F4B4
:1032C200ECEF0BC0EE38A0E0FA0711F4EDEF05C009
:1032D200ED38A0E0FA0711F4EEEFEE83AE81A13CE7
:1032E200B0F0A091A603B091A703A13CE0E0BE0715
:1032F20074F00E9415263596E491E03041F00E9468
:1033020012260E9422263496E491E03009F417C076
:103312000E941526DF01E091A803F0E03196EA0F42
:10332200FB1FE4910E942B26E091A9030E942B2609
:10333200E091AA030E942B26D1DEE2E001C0E0E088
:10334200E093A803AE81A13C58F00E9412260E948D
:103352002226DF01E091A8030E942F26E49101C0FA
:10336200EE81F0E00E9433260E9433260E94382626
:103372000E941226E093A603F093A703EC81E09348
:10338200A903EA81E093AA0308C00E9412260E94C0
:1033920033260E9433260E943826279608951A93D0
:1033A2000A9310E000E00E943E2618F4AC81A0309F
:1033B20009F029C00E94FB250E944926EC91EA935C
:1033C2000E944E260E944E26E0E00E9453260E9452
:1033D2005826AF81B885EA0FFB1FEF83F8870E945A
:1033E2006326A0E8B0E00E943F29EA1BFB0BAF81F5
:1033F200B885EA17FB072CF4E0E0EF83E8870E9428
:1034020068261F5FD0CF0E943E2618F4AC81A130FF
:1034120009F075C00E94FB250E944926AC91A13E8D
:1034220021F40E947126A73C09F002C009EF29C0CD
:103432000E94FB250E944926AC91A13E21F40E94E4
:103442007126A33C09F002C007EE1BC00E94FB25B7
:103452000E944926AC91A13E21F40E947126A23C11
:1034620009F002C008EE0DC00E94FB250E94492609
:10347200AC91A13E21F40E947126A53C09F001C045
:1034820009EE003079F00A930E947726E1E00E946B
:1034920053261E5F0E946326AF81B8850E94822652
:1034A20000E01CC00E94FB250E944926EC91EA9391
:1034B2000E947726E9850E9453260E94FB250E94DE
:1034C2004926AC91A03219F40E94582602C00E94EB
:1034D2006326AF81B8850E9482261F5F0E94632601
:1034E2003196AF81B885AE17BF0744F40E946326B8
:1034F200A0E8B0E00E9482260E94682684CFE1EC18
:10350200F0E0E093A603F093A703198108812B96BC
:1035120008950E94652908851985EC81FD81E017CF
:10352200F10700F12A853B85EE81FF81E217F3075F
:10353200B0F03A932A931A930A938EDDA0E8A09FE3
:10354200F001A19FF00DE20FF31FAC85BD85EA0FDC
:10355200FB1FE491EA938ADD2F5F3F4FE5CF0F5FB8
:103562001F4FDBCF0E946C292E960895EA93FA939F
:10357200EFB7EA931A930A931091C0000091C60024
:10358200E091C000E07811F4F19801C0F19AE12FC6
:10359200EC7181F4E62D6394F0E0E555FC4F008375
:1035A200E8ECE61509F466248394E8ECE81511F4D6
:1035B2008824F09A09911991E991EFBFF991E99163
:1035C20018950A921A92FA926A937A938A939A9324
:1035D200AA93BA93EA93FA93EFB7EA93E6E0E6BDC9
:1035E200A7E4B5E00E940C26A0914705B0914805DA
:1035F2009B9711F00C949A1B0E9487260E948C269E
:10360200E0E0E0934705E09348050E948726E13019
:1036120021F40E949126E13009F002C00E94962610
:103622000E948726E13021F40E949126E23009F0BF
:1036320002C00E949F260E948726E13021F40E9448
:103642009126E33009F004C0EFE7FDE20E94A826CC
:103652000E948726E13021F40E949126E43009F08D
:1036620004C0EDE8FDE20E94A8260E948726EA3007
:1036720010F40C949A1B0E94AF260E9491260E947D
:103682008C260E949126E63010F40C949A1B0E941C
:10369200B5260E94BB260E948C260E94BB26EA30D9
:1036A20010F40C949A1B0E94C0260E94C6260E9407
:1036B2008C260E94C626E630E0F10E94CB260E94AC
:1036C200D1260E948C260E94D126EA3090F10E94D7
:1036D200D6260E94DC260E948C260E94DC26E2303E
:1036E20021F40E94D126E33009F013C00E94C626BD
:1036F200E53021F40E94BB26E93009F00AC00E949D
:103702009126E53021F40E948726E93009F001C0B4
:1037120001C00FC0AAE8B0E0E0E00E9452290E9476
:10372200D6260E94CB260E94C0260E94B5260E9461
:10373200AF26E991EFBFF991E991B991A9919991D8
:10374200899179916991F9901990099018955C9AEB
:103752000E94E1265C980E94E12608951A93E9816D
:10376200F0E0E054F0401E2F113010F0153608F052
:1037720002C0E12F01C0E0E01881229608957A92FA
:10378200EDDFE0935705E0EAFDE20E94E7260E94A2
:103792002127E0914E050E9421270E94BB260E940C
:1037A2002127E0914C050E9421270E9487260E9432
:1037B2002127E09157050E942127E0911D050E94D3
:1037C20021278CE30E94B225EE960895E2EEFDE2F7
:1037D2000E94E7260E942127E0914E050E942127A0
:1037E2000E94BB260E942127E0914C050E942127BE
:1037F2000E9487260E942127E09158050E942127D6
:1038020088E30E94B225EA960895A0E00499A1E017
:10381200A03019F4E0E0E91509F049C0E2E0E093D4
:103822003C05E0911E05EF5FE0931E05E1E09E2E50
:103832000E942727E0911E050E942F2791F4E1E0C4
:10384200E0935805C3DFE1E0E0931F050E943427AF
:103852000E9439270E943E27E0E0F3E00E944827B9
:1038620025C0E230A0E0FA0709F50E945A270E941B
:1038720039270E945F270E946927E0935805E5E0F7
:10388200E0933C05A3DF0E946927E0931D05E0E277
:10389200E71509F074DFE0E27E2E0E946E27E6E073
:1038A200F3E00E944827E0E0E0931E0507C0049B76
:1038B20003C0E1E0E91509F001C099240895A0E0F0
:1038C2000399A1E0A03059F4E0E0EC1541F4A09195
:1038D2001D05A03021F4A0915805A13009F015C0B2
:1038E200E0911F05EF5FE0931F0531DFE1E0CE2E8F
:1038F200A0911F05AD3010F0AF3009F403C0E1E034
:10390200E0931F050E947E2707C0039B03C0E1E0EE
:10391200EC1509F001C0CC24E0911F050E942F276D
:1039220011F4E1E447C0E230A0E0FA0711F4E2E466
:1039320041C0E330A0E0FA0711F4E3E43BC0E43015
:10394200A0E0FA0711F4E4E435C0E530A0E0FA079C
:1039520011F4E5E42FC0E630A0E0FA0711F4E6E442
:1039620029C0E730A0E0FA0711F4E7E423C0E83009
:10397200A0E0FA0711F4E8E41DC0E930A0E0FA077C
:1039820011F4E9E417C0EA30A0E0FA0711F4EAE41E
:1039920011C0EB30A0E0FA0711F4EBE40BC0EC30FD
:1039A200A0E0FA0711F4ECE405C0EF30A0E0FA075A
:1039B20011F4E0E2AE2E0895A0E00299A1E0A03059
:1039C20059F4E0E0EB1541F4A0911D05A03021F47B
:1039D200A0915805A13009F015C0E0911F05E150F2
:1039E200E0931F05B4DEE1E0BE2EA0911F05A030DA
:1039F20011F4AF3009F403C0ECE0E0931F050E941C
:103A02007E2707C0029B03C0E1E0EB1509F001C06D
:103A1200BB240895A0E00199A1E0A03039F4E0E0D0
:103A2200EE1521F4A0915805A13009F028C0E394C5
:103A3200E0912005EF5FE09320057A2C0E94272772
:103A4200E09120050E942F2741F4E1E0E0931D055B
:103A5200E4E0E0933C0593DE11C0E230A0E0FA0717
:103A620069F40E946927E0931D05E3E0E0933C05B9
:103A720086DEE0E27E2EE0E0E093200507C0019BB7
:103A820003C0E1E0EE1509F001C0EE240895E091D3
:103A92002605F0912705E130A0E0FA0719F4E0E2EB
:103AA200FBE214C0E230A0E0FA0719F4E0EFF9E219
:103AB2000DC0E330A0E0FA0719F4E0EFF5E206C02A
:103AC200E430A0E0FA0769F4E0E5FCE2FA93EA9355
:103AD2000E94F0250E94F0250E9484270E948927D7
:103AE20018DD08956597E0E0EB87EC87ED87EE87B8
:103AF200EF87E88BE98BEA8B0E94632940E050E074
:103B020000E010E0083CE0E01E0714F00C94B12045
:103B12000E948E27A432B1F40E949327A43291F41A
:103B22000E949827A43571F40E949D27A83751F46A
:103B32000E94A227A43731F4F801E055FC4FA0817E
:103B4200AC3209F02EC04424E0EAE41590F0E42DF2
:103B5200F0E0BF01ED58FB4F0F01D8011696FB01B3
:103B6200EA0FFB1FE555FC4FE081D001EC93439433
:103B72000BC0E1E03E2ED8011696E42D0E942F26BE
:103B8200E555FC4FACE2A083D8011696E42D0E94C5
:103B92002F26E555FC4FA081AC32B1F6E7E0E09369
:103BA2003C050E948E27AB3281F40E949327A334F6
:103BB20061F40E949827A33541F40E949D27A13504
:103BC20021F40E94A227AA3309F046C0F8010E94FC
:103BD200A727AAE0B0E00E94F928DF01F8010E94BD
:103BE200AD27EA0FFB1FEF87F88BAF85B8891B97CC
:103BF20024F0AF85B8891F970CF005C0E1E0F0E032
:103C02000E94B32729C0AF85B8891F9724F0AF85DA
:103C1200B88952970CF005C0E2E0F0E00E94B327A9
:103C22001BC0AF85B889529724F0AF85B8895F97DA
:103C32000CF005C0E3E0F0E00E94B3270DC0AF85B1
:103C4200B889909724F0AF85B889D2970CF004C058
:103C5200E4E0F0E00E94B3270E948E27A23441F4F0
:103C62000E949327A53521F40E949827A33509F0D5
:103C720087C0F801E554FC4F0E94B827E09338054D
:103C8200F801E454FC4F0E94B827E0933905F8018B
:103C9200E354FC4F0E94B827E0933A05F801E2543E
:103CA200FC4F0E94B827E0933B05A0913B05A13150
:103CB20019F4EAE0E0933B05A0913805A13130F018
:103CC200E0913805F0E03797E0933805A091390587
:103CD200A13130F0E0913905F0E03797E0933905F2
:103CE200F801EF53FC4FA081A13331F4F801EE53F8
:103CF200FC4FA081A83309F043C0E1E0E0933C050A
:103D0200A0913A05EAE0EA02F001DF01E0913B0509
:103D12000E942F26E0934105F0934205A0913805B9
:103D2200E0E1EA02F0013197DF01E0913905F0E0CC
:103D3200AE0FBF1FEAE0F0E00E94F928E0934305CE
:103D4200F0934405A0914105B0914205EA0FFB1F93
:103D5200E0934505F0934605EDE3F5E0FA93EA9327
:103D6200E3E3FEE2FA93EA93E0914505F09146051A
:103D72000E94EC280E943A2984E00E94822528961B
:103D82000E948E27AE3481F40E949327A53461F4F9
:103D92000E949827A43541F40E949D27A93421F45A
:103DA2000E94A227A03509F049C00E94BC2740E02A
:103DB20050E0493CE0E05E075CF40E94C12729F430
:103DC2000E94CB2711F40E94D4274F5F5F4FF1CF9F
:103DD200ED89FE89E355FC4FA081A23279F50E945C
:103DE200DC270E94B827E9F40E94E1270E94B82745
:103DF200C1F40E94E6270E94B82799F4ED89FE8952
:103E02000E94AD2771F4ED89FE89ED54FC4F0E94AA
:103E1200B82739F4ED89FE89EC54FC4F0E94B8278B
:103E220009F006C0E0E0E0932205E093230506C016
:103E3200E1E0F0E0E0932205F09323050E948E2753
:103E4200A43481F40E949327A53461F40E94982738
:103E5200A63541F40E949D27A93421F40E94A2278D
:103E6200A43409F041C00E94BC270E94EB2740E025
:103E720050E0493CE0E05E075CF40E94C12729F46F
:103E82000E94CB2711F40E94D4274F5F5F4FF1CFDE
:103E92000E94FB27A081A23239F5ED89FE89E35504
:103EA200FC4FA081E0911805EA17A9F40E94DC27D3
:103EB200A081E0911905EA1771F40E94E127A0811F
:103EC200E0911A05EA1739F40E94E627A081E091F1
:103ED2001B05EA1709F003C00E94002805C0E0E0B4
:103EE200E0934905E0934A050E948E27A73481F4A6
:103EF2000E949327A03561F40E949827A23541F4CD
:103F02000E949D27AD3421F40E94A227A33409F018
:103F120024C10E94BC2740E050E0493CE0E05E073B
:103F220044F5FA01A98DBA8DEA0FFB1FE455FC4F47
:103F3200A081AC32D9F40E94CB2711F40E94D4277D
:103F4200AF89B88D129739F4E98DFA8DE40FF51F18
:103F52003196EB8BFC8BAF89B88D199739F4E98DCB
:103F6200FA8DE40FF51F3196E98BFA8B4F5F5F4FA5
:103F7200D4CFE3E0EA9385D8E4E0EA9382D8E5E09F
:103F8200EA937FD80E94FB270E94B827FF2352F0B2
:103F92003A9744F4ED89FE893196AB89BC89EA17D8
:103FA200FB0709F481C0ED89FE890E94A727EE83F1
:103FB200AE81A03010F0AA3008F005C0EE81A0E872
:103FC200B0E00E9452290E94E6270E94B827EE83A1
:103FD200AE81A03010F0AA3008F005C0EE81A2E850
:103FE200B0E00E9452290E94E1270E94B827EE8386
:103FF200AE81A03010F0AA3008F005C0EE81A4E82E
:10400200B0E00E9452290E94DC270E94B827EE836A
:10401200AE81A03010F0AA3008F005C0EE81A6E80B
:10402200B0E00E945229ED89FE89E355FC4F0E94BF
:10403200B827EE83AE81A03010F0AA3008F004C099
:104042000E941226EB87FC870E94FB270E94B8275A
:10405200EE83AE81A03010F0AA3008F004C00E94B6
:104062001226ED87FE87ED85FE85AAE0B0E00E946C
:10407200F928AB85BC85EA0FFB1FE987FA873597DC
:10408200EF83F887A885AA234AF47896EF83F88706
:104092000E9407280E940C280E9413280E940728C9
:1040A2000E940C280E941328EB89FC89E455FC4FDE
:1040B200E081F0E0E0932405F0932505E7E3FEE2DA
:1040C200FA93EA93E0912405F09125050E94EC28E9
:1040D2000E943A2984E00E94B22526960E941A285C
:1040E200FF2312F03A970CF038C00E941A28AEE86B
:1040F200B0E00E941F28E355FC4F0E94B827ACE8AD
:10410200B0E00E941F28E255FC4F0E94B827A2E9A6
:10411200B0E00E941F28E155FC4F0E94B827A0E999
:10412200B0E00E941F28E055FC4F0E94B827A6E984
:10413200B0E00E941F280E94A727A4E9B0E00E94D5
:104142005229AF81B885539744F00E942428F0E0A9
:104152003197ACE8B0E00E9452290F5F1F4FD2CCDA
:1041620088246624F19A00E010E0083CE0E01E0793
:104172003CF4ABEAB3E00E9429280F5F1F4FF5CF52
:104182000E946A296B96089500E010E0E0E8E0934F
:104192006100E0E0E0936100EFEFE7B9E2B9E0EF40
:1041A200E1B9E0E0E5B9EFEFE4B9E0E0EBB9E0EF67
:1041B200EAB9E0E0E093C000E8E9E093C100E6E09C
:1041C200E093C200E0E0E093C500E5E0E093C400C4
:1041D200E0E0E4BDE5E0E5BDE0E0E6BDE7BDE8BD69
:1041E200E1E0E0936E000E94FE17EAE0F0E00E9438
:1041F2002E280E943428E0EFF9E00E9438280E941D
:10420200F0250E943B280E944028E0EDF7E00E9442
:104212002E28E0EFFDE00E9438280E94F025EDE212
:10422200F0E0FA93EA930E944028E3E1F5E0FA9382
:10423200EA93E7E3F0E00E944628EDE0F3E0FA9328
:10424200EA93EBE3F0E00E9454280E945728E8E149
:10425200F5E0FA93EA93E2E5F0E00E9454280E9426
:104262005728E1E1F3E0FA93EA93E8E2F0E00E94F2
:104272005F280E945728E0EDF7E00E942E280E9456
:10428200DC26EF3F79F4AAE8B0E0E0E00E94522990
:104292000E94CB260E94B5260E94D6260E94C026E6
:1042A2000E94AF260E946628EF3F41F40E94242814
:1042B200EF3F21F40E946B28EF3F09F019C0ACE8F0
:1042C200B0E0E0E00E945229AEE8B0E00E9452293C
:1042D200A0E9B0E00E945229A2E9B0E00E9452296E
:1042E200A4E9B0E00E945229A6E9B0E00E94522956
:1042F200A8E2B0E00E944629EF3F31F4A8E2B0E024
:10430200E0E00E94522904C0A8E2B0E00E944629DF
:10431200E0935705AAE2B0E00E944629E33038F064
:10432200AAE2B0E0E0E00E945229E093580500E0E2
:1043320010E0003AE0E01E073CF4A3E7B4E00E947C
:1043420029280F5F1F4FF5CF78940E945A270E94A9
:1043520039270E945F270E94962686E695E00197FC
:10436200F1F7C0DB9924CC24BB240E940028F199E8
:1043720002C0B8DBF19AAA92EFE4F0E00E945F2853
:10438200E0E0EA93E1E0EA930E944A193EDA97DA22
:1043920013DB40DB7CDBA0914905B0914A05119704
:1043A20011F00C94E323A0912205B09123051197FB
:1043B20011F4E5E401C0E0E2EA93E3E1F0E00E94F7
:1043C2003828E1E0EA93EA930E944A19E0913C0519
:1043D200E03011F00C945C22E8E2F5E0FA93EA9303
:1043E200E8E4FEE2FA93EA930E94DC260E94212787
:1043F2000E94D1260E9421270E94C6260E942127C0
:104402000E94BB260E9421270E9491260E942127FA
:104412000E9487260E94212788E10E9482256C96AD
:104422000E948726E0934B050E949126E0934C055B
:104432000E94BB26E0934D050E94C626E0934E05DE
:104442000E94D126E0934F050E94DC26E09350059E
:104452000E942428E0935105AEE8B0E00E9446296C
:10446200E09352050E946628E0935305A2E9B0E06A
:104472000E944629E09354050E946B28E09355055B
:10448200A6E9B0E00E944629E0935605E09157055F
:10449200A8E2B0E00E945229E0915805AAE2B0E0F9
:1044A2000E945229E8E2F5E0FA93EA93E7E0F0E0AD
:1044B2000E94462839C1A0913C05A130F9F40E941E
:1044C200EB270E9489270E94D128EDE3F5E0FA93B9
:1044D200EA93E0E3F0E00E947028E0E0EA93E2E091
:1044E200EA93E1E0EA930E94D0190E943428E0EDB9
:1044F200F7E00E9477280E94EB2713C1A0913C05A8
:10450200A23011F00C94C6220E94EB270E94892748
:104512000E94D128EBE1F3E00E9454280E947B28FC
:10452200E4EFF1E00E947728ECE2F3E0FA93EA93F9
:10453200EDE2F0E00E9480280E948728EEE2F3E09C
:10454200FA93EA93E5E3F0E00E9480280E9487282C
:10455200E0E3F3E0FA93EA93EDE3F0E00E948028CF
:104562000E948728E2E3F3E0FA93EA93E5E4F0E0BD
:104572000E948028E4EFF1E00E9477280E9434280C
:104582000E948A280E94EB27CCC0A0913C05A33050
:10459200B9F40E94EB270E9489270E94D128E4E304
:1045A200F3E0FA93EA93ECE1F0E00E9470280E94B3
:1045B20057280E9434280E948A280E94EB27B1C003
:1045C200A0913C05A430B9F40E94EB270E948927F0
:1045D2000E94D128EDE3F3E00E948D28E3E0F0E0B1
:1045E200FA93EA930E9457280E9434280E948A284C
:1045F2000E94EB2796C0A0913C05A530E9F40E94E9
:10460200EB270E9489270E94D128E9E4F3E00E9467
:104612008D280E947B28E4E5F3E00E948D28E4E0E7
:10462200F0E0FA93EA930E9457280E9434280E94ED
:104632008A280E94EB2775C0A0913C05A63099F408
:104642000E94EB270E9489270E94D128E0E6F3E02E
:104652000E948D280E947B280E9434280E948A286A
:104662000E94EB275EC0A0913C05A73011F00C948C
:1046720095230E945F18E9E7F3E0FA93EA93EEE1EB
:10468200F0E00E9438280E945728E3E7F4E00E94F5
:1046920038280E9489270E945728E8EBFBE00E94F5
:1046A2007728049B08C0039B06C0029B04C0019BA1
:1046B20002C0009901C003C00E947E27F2CF0E946F
:1046C2005F180E947E27A0915805A13049F40E94EC
:1046D20034270E9439270E943E27E2E8F3E00AC00D
:1046E2000E945A270E9439270E945F270E946E2744
:1046F200E8E8F3E0FA93EA93ECE2F0E00E945F2844
:104702000E9457280E949F2600E010E0003AE0E055
:104712001E073CF4A3E7B4E00E9429280F5F1F4F55
:10472200F5CFE0E0E0933C050E949028A134E0E060
:10473200BE0719F4E0EFFDE10BC00E949028A635F8
:10474200E0E0BE0719F00E949028D997E0EFF1E26D
:10475200FA93EA93EFE5F0E00E9438280E943B28A2
:104762000E9489270E948A1AE0E3F5E0FA93EA930D
:10477200E8EBFEE2FA93EA93A6E9B0E00E949528FC
:104782000E946B280E942127A2E9B0E00E9495288E
:104792000E9466280E942127AEE8B0E00E94952878
:1047A2000E9424280E94212788E1ABD16C96E0E385
:1047B200F5E0FA93EA93E2E2F0E00E9454280E94C4
:1047C200572812C0EFE8F3E0FA93EA93EEE1F0E043
:1047D200FA93EA930E947B28E8E9F3E0FA93EA93DA
:1047E200EFE0F0E00E948028E0EFF5E1FA93EA932F
:1047F200E9E6F0E00E9454280E943B280E944028EB
:10480200B6CDFFCFE091C000E072E1F3E881E09322
:10481200C60021960895EA81EA93F4DFA881B9815E
:104822000E940C26239608951A930A93AA81BB81AB
:1048320012960E943229309729F1AA81BB811496DF
:104842000E9432298F01309761F00230E0E01E07AA
:10485200C0F0F80131978F01AA81BB811496ED93C4
:10486200FC93AA81BB8112960E940C263197AC81DF
:10487200A083AA81BB810E943229FF2312F00E94E9
:104882000C2606C0AA81BB81EFEFFFEFED93FC93EC
:10489200198108812596089526970E94632910E0C0
:1048A200AC85BD85E0E0F0E0ED93FC93EA89FB89FD
:1048B2003196EA8BFB8B3197E4912E2FE03011F485
:1048C2000C947A25E12FE03039F4253211F411E00D
:1048D20002C00E9498280CC1E130A9F4253219F4D3
:1048E2000E94982804C112E040E000E02D3211F449
:1048F20001E0FEC02B3211F44BE2FAC0203211F477
:1049020040E2F6C002C0E23039F450E013E0203356
:1049120011F40068EDC004C0E33011F00C94792565
:10492200203310F02A3308F007C0AAE05A9F502D16
:10493200E22FE0535E0FDCC0E22FE33649F40E941F
:10494200A128E889F989A481AA930E94A728CFC047
:10495200E33741F40E94A1280E94AF280E94D32588
:104962001E2F0AC0E03761F40E94A1280E94AF28DE
:104972000E94DD251E2F086002600F7730E035C0EF
:10498200E43611F0E93611F4046002C0E53731F47F
:10499200E0E4FDE2EE83FF8315E00DC0E83511F49B
:1049A200086004C0E83711F00C947825EAE4FDE2CF
:1049B200EE83FF8314E002FF14C00E94A1280E942C
:1049C200B928AB85AA233AF4EA85FB850E94E1283F
:1049D200EA87FB874DE2403011F01F5F01C00B7F79
:1049E20004C00E94A1280E94B92800FD11C0151719
:1049F20078F407FF08C002FF04C00B7F242F115078
:104A020001C020E301C020E20E9498285150EFCF5C
:104A1200312F01FF17C03030A1F003FF06C0EE8135
:104A2200FF812591EE83FF8305C0AE81BF812D9169
:104A3200AE83BF830E949828503009F05150315004
:104A4200EACF4BC020E3EE81FF810E943629E8873E
:104A5200F987EE81FF813296EE83FF83E885F9853F
:104A6200AA85BB85AE17BF0750F02F5FA885B98511
:104A7200EA85FB85EA1BFB0BEA87FB87EFCF2A332C
:104A820028F003FF02C0295F01C0295D04FD1AC09E
:104A9200213320F4A885B985119709F409C0531769
:104AA20010F000FF01C013C020E207FF0BC020E39B
:104AB200006102FF07C00B7F4A930E94A728503073
:104AC20009F051500E949828503009F0515031504D
:104AD200A885B985129708F0B5CF00FF08C05030FD
:104AE20031F05150E0E2EA930E94A728F8CF10E09B
:104AF200DDCEAC85BD850E9432290E946A2964966A
:104B02000895FF92F82E26970E9465290E94C128D7
:104B1200309719F4EFEFFFEF1FC0DE0116960E94E7
:104B2200DD288D010E94C128EE83FF83E0E0E88743
:104B3200E987DE011A960E94C828E5E1F4E2FA93B9
:104B4200EA93FE013A96FA93EA93A6DE9F01AE81BA
:104B5200BF81E0E0EC93F9010E946C292A96FF9054
:104B62000895FF92F82E26971A930A93DE0114965F
:104B72000E94DD288D01E0E0EC83ED83EE83EF837C
:104B8200DE0118960E94C828ECE0F4E2FA93EA9358
:104B9200FE013896FA93EA937FDE198108812896FE
:104BA200FF900895A991B991EE27FF276D91662391
:104BB20011F03196FBCF0895AA27BB27E991F9910D
:104BC2000590002011F01196FBCFFD010895FA9394
:104BD200EA930C940618FA93EA930C942218E0E0F4
:104BE200F0E0FA93EA930895EC81F0E0FA93EA9305
:104BF2000C942D18E12FF0E00895AE81BF81EE27CD
:104C0200A10FBE1FEC910895FE01E95BFF4F0190D9
:104C1200F081E02D0895ED91FD913196FE93EE9392
:104C22000895EE81F0E00895E091A603F091A703C4
:104C3200E15CF040A6E0B0E00E94F128E458F74FB2
:104C42000895E15CF040A6E0B0E00E94F128E4584B
:104C5200F74F0895F0E0FA93EA930895F0E0EA0F2F
:104C6200FB1F0895FA93EA93EE81FF810895FA9368
:104C7200EA93EE81EA930C94B818E985FA85FA93DF
:104C8200EA930E94D325A12FB0E0AE17BF07089583
:104C9200A985BA85AE0FBF1F0895E885F985FA93F5
:104CA200EA930895EA93E985EA930C944A19EA8112
:104CB200F0E0E7FDFFEF3896DF01EB81F0E00E94C4
:104CC200F9280895EB81A8E0EA02F0010895EB814A
:104CD200F0E0AD81BE81EA0FFB1FED83FE830895F4
:104CE200A985BA85EA0FFB1FA1810895EC81A8E08E
:104CF200EA02F001A885B985AE1BBF0BBA93AA934D
:104D0200CCCFAE1BBF0BAF83B8870895A0E8B0E04D
:104D12000E9446290895EF5F0E945229E1500895AA
:104D2200A2E8B0E00E9446290895E8E6FDE2FA937F
:104D3200EA9380E00E94B22522960895E6E7FDE21A
:104D4200FA93EA9380E00E94B22522960895FA939C
:104D5200EA9380E00E94B22522960895A0E8B0E08E
:104D6200E0E00E9452290895A2E8B0E0E0E00E944B
:104D720052290895A4E8B0E00E9446290895A4E8C3
:104D8200B0E0E0E00E9452290895A6E8B0E00E9457
:104D920046290895A6E8B0E0E0E00E94522908956D
:104DA200A8E8B0E00E9446290895A8E8B0E0E0E053
:104DB2000E9452290895AAE8B0E00E944629089567
:104DC200E4E6F0E0FA93EA930C94D128FA93EA939A
:104DD200E8E1F5E0662777270E943A29E09152053B
:104DE200FF27662777270E943A29E0915105FF277E
:104DF200662777270E943A29E0915405FF27662704
:104E020077270E943A29E0915305FF2766277727E3
:104E12000E943A29E0915605FF27662777270E94CC
:104E22003A29E0915505FF27662777270E943A29FC
:104E3200E0915005FF27662777270E943A29B0CFD5
:104E4200FF27662777270E943A2908950E94A81B08
:104E5200E8ECF0E0FA93EA930C94D128F0E0E13028
:104E6200A0E0FA070895E0EFF9E1FA93EA93B7CEEA
:104E7200E5E0F0E0FA93EA930895E3E2F0E0FA93D2
:104E8200EA93E7E0F0E0FA93EA930C948A1AFA9331
:104E9200EA93ECE2F0E0FA93EA93E7E0F0E0FA93C7
:104EA200EA93E0E0EA93E1E0EA93EFEFEA930C940D
:104EB200D019E0EFF1E1FA93EA9391CEE9E1F0E063
:104EC200FA93EA93E7E0F0E0FA93EA930C948A1AF1
:104ED200EFE0E0931F05E0E00895E0E2EA93EFE4FB
:104EE200F0E0FA93EA93E7E0F0E0FA93EA93E0E085
:104EF200EA93E1E0EA930C944A19E8ECF0E0FA93C1
:104F0200EA930C94D128E4E1F0E0FA93EA9308954D
:104F1200E1E0F0E0FA93EA930895F801E555FC4FD9
:104F2200A0810895F801E455FC4FA0810895F8018D
:104F3200E355FC4FA0810895F801E255FC4FA08192
:104F42000895F801E155FC4FA0810895EF54FC4FFC
:104F5200E081F0E0F0970895EE54FC4FE081F0E03C
:104F6200F0970895E0932605F09327050895E081D0
:104F7200F0E0F0970895F8013496E98FFA8F0895DA
:104F8200FA01A98DBA8DEA0FFB1FE455FC4FA081EF
:104F9200AA330895EF89F88D3196EF8BF88FAF8998
:104FA200B88D11970895E98DFA8DE40FF51F3196AA
:104FB200ED8BFE8B0895ED89FE89E255FC4F089535
:104FC200ED89FE89E155FC4F0895ED89FE89E05592
:104FD200FC4F0895E2E0EA930E944218E3E0EA936C
:104FE2000E944218E4E0EA930E944218E5E0EA9344
:104FF2000C944218ED89FE89E455FC4F0895E1E0D6
:10500200F0E0E0934905F0934A050895AF81B88531
:10501200EAE0F0E008950E941629A8E8B0E00E94B4
:105022005229F4CF0E941129AAE8B0E00E94522925
:105032000895E989FA89E455FC4F99CF0E945229D3
:10504200E989FA890895ACE8B0E00E9446290895FA
:10505200A00FB11FE0E0EC930895FA93EA930E9447
:10506200D1280C945F180E94A81B0C94A81BFA93D9
:10507200EA93B5CDEFE7F0E0FA93EA930895E7E01B
:10508200F0E0FA93EA930C948A1AFA93EA93E2E034
:10509200F0E0FA93EA93E0E0EA93E2E0EA93EFEFDA
:1050A200EA930C94D019FA93EA93E2CEE0E0EA9301
:1050B200E1E0EA93EFEFEA930C94D019FA93EA93C2
:1050C200E7E0F0E0FA93EA930895A0E9B0E00E94E5
:1050D20046290895A4E9B0E00E9446290895FA936A
:1050E200EA93E3E0F0E0FA93EA930895FA93EA93FD
:1050F2000C94D128E2E0F0E0FA93EA93D7CFFA9346
:10510200EA93E4E0F0E0FA93EA93D0CFECE2F1E044
:10511200EDCFE8EEF3E0EACFFA93EA93F4CEA09172
:105122002405B091250508950E94462989CE2A9327
:10513200ED85FE85FA93EA93E989FA89099508953E
:10514200E889F9893497E88BF98B0895ED85FE8516
:10515200FA93EA93E989FA8909950895A889B989A0
:1051620014960E943229EE83FF83FA93EA930895FC
:10517200A889B98914960E943229EA87FB87089583
:10518200DE011C960E94DD280E94322908950E94A9
:10519200DD280E943229FA93EA931A930A9308951A
:1051A200E991F991309639F08DEC9AE00197F1F797
:1051B200A8953197C9F708950024AF0DB01D089541
:1051C200F195E195F0400895EE0FFF1FEE0FFF1FDE
:1051D200EE0FFF1F08956F2F660F660B762F08954F
:1051E200FA9FF02DEB9FF00DEA9FE02DF10D08954F
:1051F2002AD0F6DF0EF4E4DF08950024112490E1B2
:10520200AA0FBB1F001C111C0E1A1F0A18F40E0E47
:105212001F1E01C0A1609A9599F7FD01D001089562
:1052220012D0EBDF0EF4CCDF0895E894B7FF04C090
:10523200A095B09511966894F7FDC2DFDEDFFD01FF
:105242000EF4BEDF0895E894F7FF02C0B9DF689458
:10525200B7FF06C0A095B095119600F8039400FA26
:105262000895ED91FC91119708950590F491E02D28
:1052720008957A936A93FA93EA9308951B2EBF2FA7
:10528200F12D1A2EAE2FE12D0895F999FECFFF933D
:10529200FFB7F894A1BDB2BDF89AE0B5FFBFFF9188
:1052A2000895F99B02C0A895FCCF9FB7F894A1BDC1
:1052B200B2BDF89A80B5E81719F0E0BDFA9AF99AEA
:1052C2009FBF08955A934A933A932A931A930A9343
:1052D20008955D814C813B812A811981088108955D
:00000001FF
