:080000000C9464170C9400003D
:100008000C9400000C9400000C9400000C94000068
:100018000C9400000C9400000C9400000C94000058
:100028000C9400000C9400000C9400000C94000048
:100038000C9400000C9400000C9400000C94000038
:100048000C948A1A0C9400000C945F1A0C9400000B
:100058000C9400000C9400000C9400000C94000018
:100068000C9400000C9400000C9400000C94000008
:100078000C940000000000000000000000000000D8
:100088000000000000000000000000000000000068
:100098000000000000000000000000000000000058
:1000A8000000000000000000000000000000000048
:1000B8000000000000000000000000000000000038
:1000C8000000000000000000000000000000000028
:1000D8000000000000000000000000000000000018
:1000E8000000000000000000000000000000000008
:1000F80000000000000000000000000000000000F8
:1001080000000000000000000000000000000000E7
:1001180000000000000000000000000000000000D7
:1001280000000000000000000000000000000000C7
:1001380000000000000000000000000000000000B7
:1001480000000000000000000000000000000000A7
:100158000000000000000000000000000000000097
:100168000000000000000000000000000000000087
:1001780000000000000000000000000000004F0028
:100188000000000000070007000000000024FF2412
:10019800FF24000000444AFF4A32000040231308AD
:1001A800C4C2000000364955224080000000050303
:1001B80000000000003C4281000000000081423C39
:1001C800000000000014083E081400000010107C15
:1001D800101000000000281800000000000808089F
:1001E80008080800006060000000000040201008B7
:1001F80004020000007EFF8181FF7E00008082FEF5
:10020800FF80800000E2F191919F8E000062C3C9D7
:10021800C9FF760000181412FFFF1000006F8F89C5
:1002280089F97100007EFF8989F97200000101F1E6
:10023800FD0703000076FF8989FF760000468F8955
:1002480089FF7E0000006666000000000000563648
:1002580000000000000814224100000000242424AB
:10026800242400000000412214080000000201B10B
:1002780009060000006291F1817E000000FE111164
:1002880011FE000000FF898989760000007E8181C7
:100298008142000000FF8181423C000000FF898903
:1002A8008981000000FF090909010000007E819191
:1002B8009172000000FF101010FF0000000081FF85
:1002C80081000000004080817F01000000FF1824A9
:1002D8004281000000FF80808080000000FF020C47
:1002E80002FF000000FF040810FF0000007E81816B
:1002F800817E000000FF1111110E00007E81A141D6
:10030800BE00000000FF1131518E0000008689896F
:1003180089710000000101FF01010000007F808059
:10032800807F0000003F4080403F0000003FC060E9
:10033800C03F000000E3140814E30000000708F0C1
:100348000807000000C1A1918987000000FF818192
:10035800000000000015167C161500000041417FC2
:1003680000000000000402010204000000404040B8
:100378004040000000010204000000000060949466
:100388009478000000FF88888870000000788484D2
:100398008400000000788484887F000000789494AA
:1003A800945800000010FE1101020000000C929207
:1003B800927E000000FF100808F00000000084FD95
:1003C80080000000006080807D00000000FF304851
:1003D80084000000000081FF8000000000FC043859
:1003E80004F8000000FC080404F800000078848485
:1003F8008478000000FC1414140800000008141489
:1004080018FC000000FC080404080000008894940C
:100418009460000000047F8480400000007C80809D
:1004280040FC0000003C4080403C0000003EC060B2
:10043800C03E0000004224182442000000068888BC
:10044800887E000000C4A4948C8400000008768193
:1004580000000000000000FF000000000081760896
:10046800000000000008082A1C08000000081C2AD8
:1004780008080000007C8281827C000000000000E7
:100488000000000000000000000000000000000064
:100498000000000000000000000000000000000054
:1004A8000000000000000000000000000000000044
:1004B8000000000000000000000000000000000034
:1008780000000000C1C1C1C10000C2C2FEFE0100EB
:10088800C3C31F1F0100C4C4FCFC0100C5C5C5C506
:100898000101C6BDBFBE0101C7C7C0C00100C882F3
:1008A80084830101C9C9FDFD0100CA85878601014C
:1008B800CB888A890101CC8BCC8B0101CD8CCD8C66
:1008C8000101CE11CE110101CFCF13130100D0D0F9
:1008D8008F8F0100D1D11B1B0100D2D29191010051
:1008E800D39294930101D49597960101D5179A99BB
:1008F8000101D69B9D9C0101D7D7D7D70000D8D836
:100908009E9E0101D9D99F9F0101DAA0A2A10101F0
:10091800DBA3A5A40101DCDCDCDC0000DDA6A8A7C4
:100928000101DEA9ABAA0101DFACAEAD0101E0E037
:10093800E0E00000E1AFB1B00101E2E2E2E2000074
:10094800E3B2B4B30101E4B5B7B60101E5B8BAB989
:100958000101E6E6BCBC0100E7E7E7E70000E8E8DC
:10096800E8E80000E9E9E9E90000EAEAEAEA000063
:10097800EBEBEBEB0000ECBDBFBE0101EDBDBFBE74
:100988000101EEEEEEEE0000EFEFEFEF0000F0F009
:10099800F0F00000F1F1F1F10000F2F2F2F20000E3
:1009A800F3F3F3F30000F5F5F5F50000F6F6F6F6C7
:1009B8000000F7F7F7F70000F8F8F8F80000FBF97F
:1009C800FBFA0101BBBBF4F40100811C1E1D0101EF
:1009D80090181A1901019814161501018E8E121219
:1009E80001008D108D10010100C0F0303818181862
:1009F8001898B0B0303030606060606060C0C0C0CF
:100A0800C0C0C0C08080808080000000000000005E
:100A180000000000000000000000000000000000CE
:100A280000000000000000000000000000000000BE
:100A380000000000000000000000000000000000AE
:100A4800000000000000000000000000000000009E
:100A5800000000000000000000000000000000008E
:100A6800000000000000000000FFFF00000C18F06C
:100A7800E70FFD0F07000000000000000000000065
:100A88000000000001010181838383C3E767E6C694
:100A9800060E0C0C0C0C0C1818187870E0C000002E
:100AA800000000E0E0000000000080C0E06000E01E
:100AB800E0606060606060E0C000000080C060606E
:100AC800C080000000E0E0606060606060C080009E
:100AD800000080C06060C0800000000080C06060CE
:100AE800606060C08000000000FFFF00000000FFA1
:100AF800FF00FF0000000000000000000000008070
:100B0800C06030188CC66331180808090B0B0B0934
:100B18000808080808081C3E363E1C00FFFF0000B5
:100B2800000000FFFF70F88C8E070301000000FF33
:100B3800FFE0E0E06060607F3F00FEFF61606060B2
:100B48006061FFFE00FFFF000000000000FFFF00E3
:100B5800FEFF616060606061FFFE00FFFF00000053
:100B6800000000000100000000FFFF00000000FF7F
:100B7800FF003F3030303030303030180CC6E331B1
:100B8800180C06030100000000000000000000002F
:100B9800000000000000000000000000FFFF00004F
:100BA8000000003F3F00000103070E1C3830003FE3
:100BB8003F00000103070E3C38003F3F00000000E3
:100BC80000003F3F003F3F3030303030301F0F00D3
:100BD8003F3F0000000000003F3F000F1F30303053
:100BE800303030381800000000FFFF00000000FF20
:100BF800FF00FF0303030303030303060C19336613
:100C0800CC983060C08000000000000000000000A8
:100C1800000000000000000000000000FFFF0000CE
:100C280000000000000000000000000000000000BC
:100C380000000000000000000000000000000000AC
:100C4800000000000000000000000000000000009C
:100C5800000000000000000000000000000000008C
:100C6800000000000000000000FFFF00000000FF7F
:100C7800FF00FF000000000000000000000000006E
:100C8800000103060C193366444444E4F4B4F4E464
:100C98000404040404040E1F1B1F0E00FFFF0000C1
:100CA80000FC0000000000F8040404F8000C040430
:100CB80004FC00F0888488F00080808000FC848434
:100CC800040400F80404040800FC000000FC00F020
:100CD800888488F000FC040404F800F8040404F88C
:100CE80000FC44C44438000000FFFF000006030174
:100CF8001C3E373E1C00000000000080808080C041
:100D0800C0C0C0C0E0606060303030303139191880
:100D1800181C0C0C0C0C0E0606060703010000003C
:100D2800000F080808080007080808070006080850
:100D38000807000F0000000F00000000000F08085F
:100D48000808000708080804000708080807000F33
:100D58000000000F000F0808080700070808080728
:100D6800000F0000010E0000000107060E0C0C0C1D
:100D78000C0C060606060303030303010101010127
:100D8800000000000000000000000000000000005B
:100D9800000000000000000000000000000000004B
:100DA800000000000000000000000000000000003B
:100DB800000000000000000000000000000000002B
:100DC800000000000000000000000000000000001B
:100DD800000000000000000000000000000000000B
:100DE80000000000000000000000000000000000FB
:100DF80000000000000000000000000000000000EB
:100E080000000000000000000000000000000000DA
:100E180000000000000000000000000000000000CA
:100E280000000000000000000000000000000000BA
:100E380000000000000000000000000000000000AA
:100E4800000000000000000000000000000000009A
:100E5800000000000000000000000000000000008A
:100E680000000000000000000000000000C0E0F0EA
:100E7800F0F8F8F8F8F8FCFCFCFCFCFCFCFCFCFCCA
:100E8800FCFCFCFCFCFCFCFCFCFCF8F8F8F8F8F0BA
:100E9800E0E0C000000000000000000000000000CA
:100EA800000000000000000000000000000000003A
:100EB800000000000000000000000000000000002A
:100EC800000000000000000000000000000000001A
:100ED800000000000000000000000000000000000A
:100EE800000000000000000000000000FEFFFF03FB
:100EF800010303030303030303030303030303FFC0
:100F0800FF030301030303030303030303030303AF
:100F18000307FFFE000000000000000000000000C2
:100F280000000000000000000000000000000000B9
:100F380000000000000000000000000000000000A9
:100F48000000000000000000000000000000000099
:100F58000000000000000000000000000000000089
:100F6800000000000000000000000000FFFFFFC0BC
:100F7800C0C0C0C0C0C0C0C0C0C0C0C0C0C0E0FF0A
:100F8800FFE0C0C0C0E0D0C8C4C4C4C4C8D0E0C07A
:100F9800E0F0FFFF0000000000000000000000007B
:100FA8000000000000000000000000000000000039
:100FB8000000000000000000000000000000000029
:100FC8000000000000000000000000000000000019
:100FD8000000000000000000000000000000000009
:100FE800000000000000000000000000FFFFFFFFFD
:100FF800FFFFFFFFFFFFFFFFFFFFFFFFFFFFFFFFF9
:10100800FFFFFFFFFFFFFFFFFFFFFFFFFFFFFFFFE8
:10101800FFFFFFFF000000000000000000000000CC
:1010280000000000000000000000000000000000B8
:1010380000000000000000000000000000000000A8
:101048000000000000000000000000000000000098
:101058000000000000000000000000000000000088
:101068000000000000000000000000003FFFFFE15A
:10107800E1E1E1FFFFFFF9D9D9D9D9D9D9D9D9D92E
:10108800D9D9D9D9D9D9D9D9C9FBFFFFFFE1E1C14C
:10109800E1F7FF3F00000000000000000000000032
:1010A8000000000000000000000000000000000038
:1010B8000000000000000000000000000000000028
:1010C8000000000000000000000000000000000018
:1010D8000000000000000000000000000000000008
:1010E80000000000000000000000000000001F3F9A
:1010F8003F3F3F3F3F0000000000000000000000AD
:10110800000000000000000000001F3F3F3F3F3F7D
:101118003F1F000000000000000000000000000069
:1011280000000000000000000000000000000000B7
:1011380000000000000000000000000000000000A7
:101148000000000000000000000000000000000097
:101158000000000000000000000000000000000087
:1014E80000000000000000000000000000F884C2B6
:1014F80002020202FE020202C2FE02020202C4F854
:1015080000000000000000000000000000000000D3
:1015180000000000000000000000000000000000C3
:1015280000000000000000000000000000000000B3
:1015380000000000000000000000000000000000A3
:101548000000000000000000000000000000000093
:101558000000000000000000000000000000000083
:1015680000000000000000000000001E1F7FFFFDBB
:101578007C1C1C1C1F1C1C1C1F1F7CFCFC7C1F0FC4
:101588000000000000000000000000000000000053
:101598000000000000000000000000000000000043
:1015A8000000000000000000000000000000000033
:1015B8000000000000000000000000000000000023
:10195800000000000038FC0202020202060606BA75
:10196800FABA0202FC380000000000000000000083
:10197800000000000000000000000000000000005F
:10198800000000000000000000000000000000004F
:10199800000000000000000000000000000000003F
:1019A800000000000000000000000000000000002F
:1019B800000000000000000000000000000000001F
:1019C800000000000000000000000000000000000F
:1019D8000000000000003F3EFEF2F23E3E3E3F3F68
:1019E800F3F3FF3E3F00000000000000000000008D
:1019F80000000000000000000000000000000000DF
:101A080000000000000000000000000000000000CE
:101A180000000000000000000000000000000000BE
:101A280000000000000000000000000000000000AE
:101CE80000000000000000000000000000F884C2AE
:101CF80082DAFAE2FE020202C2FE02020202C4F81C
:101D080000000000000000000000000000000000CB
:101D180000000000000000000000000000000000BB
:101D280000000000000000000000000000000000AB
:101D3800000000000000000000000000000000009B
:101D4800000000000000000000000000000000008B
:101D5800000000000000000000000000000000007B
:101D680000000000000000000000001E1F7FFFFDB3
:101D78007C1F1F1F1F1C1C1C1F1F7CFCFC7C1F0FB3
:101D8800000000000000000000000000000000004B
:101D9800000000000000000000000000000000003B
:101DA800000000000000000000000000000000002B
:101DB800000000000000000000000000000000001B
:101DC800000000000000000000000000000000000B
:101DD80000000000000000000000000000000000FB
:101DE80000000000000000000000000000000000EB
:101DF80000000000000000000000000000000000DB
:101E080000000000000000000000000000000000CA
:101E180000000000000000000000000000000000BA
:101E280000000000000000000000000000000000AA
:101E3800000000000000000000000000000000009A
:101E48000000000000000000E01090908000F0907A
:101E58009090600060909010000000002070F87072
:101E68002000807800FC0000000000000000000056
:101E7800000000000000000000000000000000005A
:101E8800000000000000000000000000000000004A
:101E9800000000000000000000000000000000003A
:101EA800000000000000000000000000000000002A
:101EB800000000000000000000000000000000001A
:101EC80000000000000000000304040403000700F1
:101ED800000000000404040300000010141414148B
:101EE8001209040A3518080000000000000000006C
:101EF80000000000000000000000000000000000DA
:101F080000000000000000000000000000000000C9
:101F180000000000000000000000000000000000B9
:101F280000000000000000000000000000000000A9
:102248000000000000000000E01090908000F09076
:102258009090600060909010000000000000000066
:102268000000807800FC0000000000000000000072
:102278000000000000000000000000000000000056
:102288000000000000000000000000000000000046
:102298000000000000000000000000000000000036
:1022A8000000000000000000000000000000000026
:1022B8000000000000000000000000000000000016
:1022C80000000000000000000304040403000700ED
:1022D8000000000004040403000000101414141487
:1022E8001209040A35180800000000000000000068
:1022F80000000000000000000000000000000000D6
:1023080000000000000000000000000000000000C5
:1023180000000000000000000000000000000000B5
:1023280000000000000000000000000000000000A5
:1025E8000000000000000000000000000000008063
:1025F8008000E0E000F8F800FEFE000000000000A7
:1026080000000000000000000000000000000000C2
:1026180000000000000000000000000000000000B2
:1026280000000000000000000000000000000000A2
:102638000000000000000000000000000000000092
:102648000000000000000000000000000000000082
:102658000000000000000000000000000000000072
:102668000000000000000000000606000707000741
:102678000700070700070700070700000000000021
:102688000000000000000000000000000000000042
:102698000000000000000000000000000000000032
:1026A8000000000000000000000000000000000022
:1026B8000000000000000000000000000000000012
:1029E800000000000000000000000000000000805F
:1029F8008000E0E00000000000000000000000008F
:102A080000000000000000000000000000000000BE
:102A180000000000000000000000000000000000AE
:102A2800000000000000000000000000000000009E
:102A3800000000000000000000000000000000008E
:102A4800000000000000000000000000000000007E
:102A5800000000000000000000000000000000006E
:102A6800000000000000000000060600070700073D
:102A78000700070700000000000000000000000039
:102A8800000000000000000000000000000000003E
:102A9800000000000000000000000000000000002E
:102AA800000000000000000000000000000000001E
:102AB800000000000000000000000000000000000E
:102AC80000000000000000000000000000000000FE
:102AD80000000000000000000000000000000000EE
:102AE80000000000000000000000000000000000DE
:102AF80000000000000000000000000000000000CE
:102B080000000000000000000000000000000000BD
:102B180000000000000000000000000000000000AD
:102B2800000000000000000000000000000000009D
:102B3800000000000000000000000000000000008D
:102B4800000000000000000000000000000000007D
:102B5800000000000000000000000000000000006D
:102B6800000000000000000000000000000000005D
:102B7800000000000000000000000000000000004D
:102B8800000000000000000000000000000000003D
:102B98000000000000000000000606000707000013
:102BA800000000000000000000000000000000001D
:102BB800000000000000000000000000000000000D
:102BC80000000000000000000000000000000000FD
:102BD80000000000000000000000000000000000ED
:102BE80000000000000000000000000000000000DD
:102BF80000000000000000000000000000000000CD
:102C080000000000000000000000000000000000BC
:102C180000000000000000000000000000000000AC
:102C2800000000000000000000000000000000009C
:102C3800000000000000000000000000000000008C
:102C4800000000000000000000000000000000007C
:102C5800000000000000000000000000000000006C
:102C6800000000000000000000000000000000005C
:102C7800000000000000000000000000000000004C
:102C8800000000000000000000000000000000003C
:102C9800000000000000000000000000000000002C
:102CA800000000000000000000000000000000001C
:102CB800000000000000000000000000000000000C
:102CC80000000000000000000006060004040404E0
:102CD80004040404040404040404000000000000C4
:102CE80000000000000000000000000000000000DC
:102CF80000000000000000000000000000000000CC
:102D080000000000000000000000000000000000BB
:102D180000000000000000000000000000000000AB
:102D2800000000000000000000000000000000009B
:102D380000000000000000001027E80364000A00FB
:102D480001000010000110000100C1005349545552
:102D580031363937200000200000000000004154BF
:102D680024545444455649443F0A0D0041542B43CA
:102D780053510A0D0041542454544E455449503F70
:102D88000A0D0041542454544750535152593D316F
:102D9800302C300A0D0020202020202000525554CD
:102DA800413A004D454E53414A4520454E5649410A
:102DB800444F004154244D5347534E443D342C2234
:102DC8002424424C25732C2564256425642564320B
:102DD80030256425642C25642564256425642564D0
:102DE80025642C52322C25642C25643A5858232308
:102DF800220D0A0050256400256300425553002522
:102E08006425643A256425643A25642564004D45A3
:102E18004E53414A4500454E564941444F200046CD
:102E2800494E205255544100494E4943494F20527A
:102E3800555441003230256425642D256425642DC0
:102E4800256425640050616E74616C6C61004E6F7E
:102E5800204175746F72697A6164610001002D4EBA
:102E6800414E000001005E03522D04002B04542D36
:102E780004003004582D070000039E2D06000703A8
:102E8800A52D10000D03AB2D04001D03032E080013
:102E98002103162E090029031E2E09003203272EAE
:102EA8000C003B03302E090047034D2E0E00500343
:102EB800562E0A0005005C2D01006F04642E0000E8
:102EC800F894EE27EFBBF1E0F5BFE5BFF8E1A89570
:102ED800A4B7A77FA4BFF0936000E09360008DE0E3
:102EE800A2E0BB27ED938A95E9F780E098E0A0E09F
:102EF800B1E0ED930197E9F7ECE6FEE28591959153
:102F0800009761F0A591B59105901590BF01F0016A
:102F180005900D920197E1F7FB01F0CFE0E0EEBBE1
:102F2800EFEFEDBFE8E0EEBFC0E0D3E00C94532034
:102F38005F9A87E38A95F1F75F9887E38A95F1F7B7
:102F48000895169A179A5E985D98EFE3E8B9F0DF4E
:102F580008951A935E985D98A981BA81A034E0E03B
:102F6800BE0720F4169A1798198107C0179A169861
:102F7800E981FA81E054F0401E2FE12FE064EF77F9
:102F88001E2F18B9D5DF18813BC01A935E985D983B
:102F9800E981E86BEF7B1E2F18B9CADF188130C0B2
:102FA800EA81FB810E948524E881F9810E948924B5
:102FB800249608955E9A5D98E881E8B98DED90E0D1
:102FC8000197F1F7B5DF219608951A930A930E94A5
:102FD8008D240E949224E0E4F0E0FA93EA930E94A0
:102FE8009224169A00E010E00134E0E01E0734F461
:102FF800E0E0EA93DFDF0F5F1F4FF6CF198108810A
:10300800239608951A930A9300E010E00830E0E050
:103018001E072CF40A93D9DF0F5F1F4FF7CF0991D2
:10302800199108951A93EB81FC810E948524E98106
:10303800FA810E94892410E0183080F4ED81FE8125
:103048000E946827DF010E949824EA0FFB1FE458BA
:10305800FF4FE491EA93AEDF1F5FEECF188142C1C4
:103068000E94E82720E010E0EC811E1700F500E040
:103078000830D8F40E949B24F0E0F595E795EC938E
:10308800ED81E1703E2F303021F00E949B24E068F2
:10309800EC932F5FEC81E21731F4ED81F0E0F595C8
:1030A800E795ED8320E00F5FE3CF1F5FDDCF0E9440
:1030B800EF2728960895EF9721970E94E8270E9406
:1030C800A2240E948524FE01EB5BFF4F0190F08152
:1030D800E02D0E94892410E0183008F50E949824F9
:1030E800BF010E946827DE011496EA0FFB1FFA93BE
:1030F800EA93FE01E55BFF4F0190F081E02D0E940D
:103108006827E60FF71FE458FF4FE491EA93FE01A2
:10311800E95BFF4FE081EA93A3DF1F5FDDCF00E0AB
:10312800FE01EC5BFF4FE0810E1710F00C94EC18D9
:1031380010E0183010F00C94DE1830E0FE01EC5B63
:10314800FF4FE0813E17A0F5E32FF0E0DE01A95B19
:10315800BF4F0D90BC91A02DEA0FFB1FBF01DE01F0
:10316800AC5BBF4FAC91BB270E9498240E947C2780
:10317800DB01AE0FBF1FA034E0E0BE0749F4E0E476
:10318800F0E0FA93EA930E94A224FA93EA9308DF04
:103198000E9498240E946827DE011496AE0FBF1F74
:1031A800EE27A00FBE1FEC91EA9304DF3F5FC6CF66
:1031B8001F5FBFCF0E94A224FA93EA93DE01A95BA6
:1031C800BF4F0E94A924FA93EA93EADE0F5FA8CFC3
:1031D8000E94EF27EF962C960895A981A13011F04F
:1031E8000C946E190E94AF24E138A0E0FA0711F49C
:1031F800EAEF17C0E039A0E0FA0711F4EBEF11C0CD
:10320800E839A0E0FA0711F4ECEF0BC0EE38A0E0C3
:10321800FA0711F4EDEF05C0ED38A0E0FA0711F454
:10322800EEEFEE83AE81A13CB0F0A0915E03B091C9
:103238005F03A13CE0E0BE0774F00E94B22435961B
:10324800E491E03041F00E94AF240E94BF243496FC
:10325800E491E03009F417C00E94B224DF01E09144
:103268006003F0E03196EA0FFB1FE4910E94C82446
:10327800E09161030E94C824E09162030E94C8247F
:10328800D1DEE2E001C0E0E0E0936003AE81A13C62
:1032980060F00E94AF240E94BF24DF01E091600328
:1032A800F0E0EA0FFB1FE49101C0EE81F0E00E941C
:1032B800CC240E94CC240E94D1240E94AF24E09305
:1032C8005E03F0935F03EC81E0936103EA81E0938E
:1032D800620308C00E94AF240E94CC240E94CC2420
:1032E8000E94D124279608951A930A9310E000E0CB
:1032F8000E94D72418F4AC81A03009F029C00E949C
:1033080098240E94E224EC91EA930E94E7240E9408
:10331800E724E0E00E94EC240E94F124AF81B88504
:10332800EA0FFB1FEF83F8870E94FC24A0E8B0E0B7
:103338000E94C227EA1BFB0BAF81B885EA17FB077F
:103348002CF4E0E0EF83E8870E9401251F5FD0CFCF
:103358000E94D72418F4AC81A13009F075C00E94EE
:1033680098240E94E224AC91A13E21F40E940A25EF
:10337800A73C09F002C009EF29C00E9498240E94C6
:10338800E224AC91A13E21F40E940A25A33C09F055
:1033980002C007EE1BC00E9498240E94E224AC9150
:1033A800A13E21F40E940A25A23C09F002C008EEC1
:1033B8000DC00E9498240E94E224AC91A13E21F401
:1033C8000E940A25A53C09F001C009EE003079F0F9
:1033D8000A930E941025E1E00E94EC241E5F0E94DF
:1033E800FC24AF81B8850E941B2500E01CC00E9408
:1033F80098240E94E224EC91EA930E941025E98522
:103408000E94EC240E9498240E94E224AC91A032ED
:1034180019F40E94F12402C00E94FC24AF81B885EF
:103428000E941B251F5F0E94FC243196AF81B8853E
:10343800AE17BF0744F40E94FC24A0E8B0E00E9445
:103448001B250E94012584CFE1ECF0E0E0935E03A8
:10345800F0935F03198108812B9608950E94E8274D
:1034680008851985EC81FD81E017F10700F12A85AF
:103478003B85EE81FF81E217F307B0F03A932A9378
:103488001A930A938DDDA0E8A09FF001A19FF00D8B
:10349800E20FF31FAC85BD85EA0FFB1FE491EA93A9
:1034A80089DD2F5F3F4FE5CF0F5F1F4FDBCF0E94B6
:1034B800EF272E960895EA93FA93EFB7EA931A93B3
:1034C8000A931091C0000091C600E091C000E07816
:1034D80011F4F19801C0F19AE12FEC7181F4E42D17
:1034E8004394F0E0ED59FC4F0083E8ECE41509F44F
:1034F80044246394E8ECE61511F46624F09A0991E3
:103508001991E991EFBFF991E99118950A921A92E8
:10351800FA926A937A938A939A93AA93BA93EA93BC
:10352800FA93EFB7EA93E6E0E6BDA9E4B4E00E94B7
:10353800A924A0914904B0914A049B9711F00C94D6
:10354800441B0E9420250E942525E0E0E0934904C1
:10355800E0934A040E942025E13021F40E942A25A4
:10356800E13009F002C00E942F250E942025E13099
:1035780021F40E942A25E23009F004C0E4E7FDE2C4
:103588000E9438250E942025E13021F40E942A2536
:10359800E33009F004C0EDE7FDE20E9438250E94FF
:1035A8002025E13021F40E942A25E43009F004C0E6
:1035B800EBE8FDE20E9438250E942025EA3010F44D
:1035C8000C94441B0E943F250E942A250E94252511
:1035D8000E942A25E63010F40C94441B0E944525CD
:1035E8000E944B250E9425250E944B25EA3010F4A5
:1035F8000C94441B0E9450250E9456250E942525A4
:103608000E945625E630E0F10E945B250E94612564
:103618000E9425250E946125EA3090F10E946625C6
:103628000E946C250E9425250E946C25E23021F419
:103638000E946125E33009F013C00E945625E53049
:1036480021F40E944B25E93009F00AC00E942A257E
:10365800E53021F40E942025E93009F001C001C0BD
:103668000FC0AAE8B0E0E0E00E94D5270E946625D6
:103678000E945B250E9450250E9445250E943F25F7
:10368800E991EFBFF991E991B991A991999189913E
:1036980079916991F9901990099018955C9A0E940E
:1036A80071255C980E94712508951A93E981F0E0CC
:1036B800E054F0401E2F113010F01A3608F002C006
:1036C800E12F01C0E0E0188122960895A0E0049956
:1036D800A1E0A03019F4E0E0E71509F01EC0E2E02F
:1036E800E0933E04E1E0F0E0DE0EEF1E7E2ED6DF32
:1036F800E1E0E0933904AAE2B0E00E94D5270E94F5
:1037080077250E947D2528F4E5E0F0E0ED15FE051B
:1037180009F402C0DD24EE2407C0049B03C0E1E0E5
:10372800E71509F001C07724ED2DFE2D3097E1F45F
:10373800A0913904A130B9F40E9482250E948725FE
:103748000E948C250E949625E0E0E0933904AAE2C5
:10375800B0E00E94D527E0E2EA930E949D25E0E0D0
:10376800F3E00E94AB2530C0E130A0E0FA07A1F4F5
:10377800A0913904A13079F4E0E0E09339040E9483
:10378800BD250E94C4250E9487250E94C925E7E01F
:10379800F3E00E94AB2518C0E230A0E0FA07A1F4DC
:1037A800A0913904A53081F40E94C4250E94872580
:1037B8000E94C925EDE0F3E0FA93EA93E3E2F0E032
:1037C8000E94D3250E94DA250895A0E00399A1E07C
:1037D800A03041F40E947D2529F4E0E0EA1511F4B7
:1037E800EB1509F016C0A5E3B4E00E94A9243197AF
:1037F80055DFE1E0AE2E0E94E2251D9720F00E94E1
:10380800E2251F9709F402C00E94BD250E94772572
:1038180007C0039B03C0E1E0EA1509F001C0AA2430
:10382800E0913504F0913604E130A0E0FA0711F494
:10383800E1E447C0E230A0E0FA0711F4E2E441C055
:10384800E330A0E0FA0711F4E3E43BC0E430A0E081
:10385800FA0711F4E4E435C0E530A0E0FA0711F402
:10386800E5E42FC0E630A0E0FA0711F4E6E429C049
:10387800E730A0E0FA0711F4E7E423C0E830A0E05D
:10388800FA0711F4E8E41DC0E930A0E0FA0711F4E2
:10389800E9E417C0EA30A0E0FA0711F4EAE411C03D
:1038A800EB30A0E0FA0711F4EBE40BC0EC30A0E039
:1038B800FA0711F4ECE405C0EF30A0E0FA0711F4C0
:1038C800E0E25E2E0895A0E00299A1E0A03041F464
:1038D8000E947D2529F4E0E0E91511F4EB1509F0C3
:1038E8001DC0A5E3B4E0ED91FD913197FE93EE93F1
:1038F8003196D4DEE1E09E2E0E94E225109721F455
:103908000E94E2251F9709F406C0ECE0F0E0E0937E
:103918003504F09336040E94772507C0029B03C044
:10392800E1E0E91509F001C099240895A0E00199A2
:10393800A1E0A03059F4E0E0EC1541F4EB1531F4C6
:10394800AAE2B0E00E94C927E13009F02BC0C39475
:10395800852CE1E0BE2EA2DE0E947725E5E0E0930B
:1039680039040E94E725E4E00E94EF250E942D26F5
:10397800E09150040E942D260E944B250E942D267E
:10398800E0914E040E942D260E9420250E942D269B
:103998000E943326EB2D0E942D268CE30E944F2493
:1039A800EE9607C0019B03C0E1E0EC1509F001C0E9
:1039B800C394A0E00199A1E0A03031F4E1E0EB1557
:1039C80019F4E2E0EC1509F02AC00E949625C39488
:1039D800BB2464DE0E9477250E94E725E3E00E946D
:1039E800EF250E942D26E09150040E942D260E946A
:1039F8004B250E942D26E0914E040E942D260E9400
:103A080020250E942D260E943326EB2D0E942D266C
:103A18008CE30E944F24EE96E0E28E2E07C0019BB5
:103A280003C0E3E0EC1509F001C0CC240895E0914F
:103A38005D04F0915E04E130A0E0FA0719F4E0E2D9
:103A4800FBE214C0E230A0E0FA0719F4E0EFF9E273
:103A58000DC0E330A0E0FA0719F4E0EFF5E206C084
:103A6800E430A0E0FA0761F4E0E5FCE2FA93EA93B7
:103A78000E948D240E948D24E4E1F0E00E94382603
:103A880008956597E0E0EB87EC87ED87EE87EF8791
:103A9800E88BE98BEA8B0E94E62740E050E000E0E3
:103AA80010E0083CE0E01E0714F00C943D200E9452
:103AB8004026AB3291F40E944526A33471F4F801F4
:103AC800EB59FC4FA081A33541F40E944A26A13549
:103AD80021F40E944F26AA3309F046C0F8010E943B
:103AE8005426AAE0B0E00E947C27DF01F8010E947A
:103AF8005A26EA0FFB1FEF87F88BAF85B8891B970B
:103B080024F0AF85B8891F970CF005C0E1E0F0E01C
:103B18000E94602629C0AF85B8891F9724F0AF8519
:103B2800B88952970CF005C0E2E0F0E00E946026E8
:103B38001BC0AF85B889529724F0AF85B8895F97C5
:103B48000CF005C0E3E0F0E00E9460260DC0AF85F0
:103B5800B889909724F0AF85B889D2970CF004C043
:103B6800E4E0F0E00E9460260E944026A23441F47E
:103B78000E944526A53521F40E946526A33509F043
:103B880088C0F801ED58FC4F0E946A26E0933A0479
:103B9800F801EC58FC4F0E946A26E0933B04F801B8
:103BA800EB58FC4F0E946A26E0933C04F801EA585F
:103BB800FC4F0E946A26E0933D04A0913D04A13188
:103BC80019F4EAE0E0933D04A0913A04A13130F001
:103BD800E0913A04F0E03797E0933A04A0913B046F
:103BE800A13130F0E0913B04F0E03797E0933B04DB
:103BF800F801E758FC4FA081A13331F4F801E658E9
:103C0800FC4FA081A83309F044C0E1E0E0933E04F2
:103C1800A0913C04EAE0EA02F001DF01E0913D04F2
:103C2800F0E0EA0FFB1FE0934304F0934404A091F3
:103C38003A04E0E1EA02F0013197DF01E0913B0448
:103C4800F0E0AE0FBF1FEAE0F0E00E947C27E093AF
:103C58004504F0934604A0914304B0914404EA0F4C
:103C6800FB1FE0934704F0934804EFE3F4E0FA9372
:103C7800EA93ECEFFDE2FA93EA93E0914704F091BE
:103C880048040E946F270E94BD2784E00E941F24D9
:103C980028960E944026AE3481F40E944526A53419
:103CA80061F40E946526A43541F40E944A26A9348D
:103CB80021F40E944F26A03509F049C00E946E26C3
:103CC80040E050E0493CE0E05E075CF40E94732667
:103CD80029F40E947D2611F40E9486264F5F5F4FCB
:103CE800F1CFED89FE89EB59FC4FA081A23279F51D
:103CF8000E948E260E946A26E9F40E9493260E945A
:103D08006A26C1F40E9498260E946A2699F4ED89D1
:103D1800FE890E945A2671F4ED89FE89E559FC4F07
:103D28000E946A2639F4ED89FE89E459FC4F0E9405
:103D38006A2609F006C0E0E0E0935904E0935A04CB
:103D480006C0E1E0F0E0E0935904F0935A040E94C1
:103D58004026A43481F40E944526A53461F40E94CB
:103D68006526A63541F40E944A26A93421F40E940A
:103D78004F26A43409F041C00E946E260E949D2659
:103D880040E050E0493CE0E05E075CF40E947326A6
:103D980029F40E947D2611F40E9486264F5F5F4F0A
:103DA800F1CF0E94AD26A081A23239F5ED89FE89B6
:103DB800EB59FC4FA081E0913004EA17A9F40E9466
:103DC8008E26A081E0913104EA1771F40E949326AF
:103DD800A081E0913204EA1739F40E949826A08164
:103DE800E0913304EA1709F003C00E94B22605C027
:103DF800E0E0E0934B04E0934C040E944026A73493
:103E080081F40E944526A03561F40E946526A235FA
:103E180041F40E944A26AD3421F40E944F26A3346F
:103E280009F024C10E946E2640E050E0493CE0E0E1
:103E38005E0744F5FA01A98DBA8DEA0FFB1FEC590C
:103E4800FC4FA081AC32D9F40E947D2611F40E9467
:103E58008626AF89B88D129739F4E98DFA8DE40F6B
:103E6800F51F3196EB8BFC8BAF89B88D199739F418
:103E7800E98DFA8DE40FF51F3196E98BFA8B4F5FC8
:103E88005F4FD4CFE3E0EA93A0D8E4E0EA939DD86B
:103E9800E5E0EA939AD80E94AD260E946A26FF239D
:103EA80052F03A9744F4ED89FE893196AB89BC8982
:103EB800EA17FB0709F481C0ED89FE890E945426A0
:103EC800EE83AE81A03010F0AA3008F005C0EE8174
:103ED800A0E8B0E00E94D5270E9498260E946A2692
:103EE800EE83AE81A03010F0AA3008F005C0EE8154
:103EF800A2E8B0E00E94D5270E9493260E946A2675
:103F0800EE83AE81A03010F0AA3008F005C0EE8133
:103F1800A4E8B0E00E94D5270E948E260E946A2657
:103F2800EE83AE81A03010F0AA3008F005C0EE8113
:103F3800A6E8B0E00E94D527ED89FE89EB59FC4F31
:103F48000E946A26EE83AE81A03010F0AA3008F0F5
:103F580004C00E94AF24EB87FC870E94AD260E9414
:103F68006A26EE83AE81A03010F0AA3008F004C0B3
:103F78000E94AF24ED87FE87ED85FE85AAE0B0E0BC
:103F88000E947C27AB85BC85EA0FFB1FE987FA876F
:103F98003597EF83F887A885AA234AF47896EF83A4
:103FA800F8870E94B9260E94BE260E94C5260E9454
:103FB800B9260E94BE260E94C526EB89FC89EC59C9
:103FC800FC4FE081F0E0E0935B04F0935C04E0E0F8
:103FD800FEE2FA93EA93E0915B04F0915C040E949C
:103FE8006F270E94BD2784E00E944F2426960E94D6
:103FF800CC26FF2312F03A970CF038C00E94CC264A
:10400800AEE8B0E00E94D126EB59FC4F0E946A2628
:10401800ACE8B0E00E94D126EA59FC4F0E946A261B
:10402800A2E9B0E00E94D126E959FC4F0E946A2615
:10403800A0E9B0E00E94D126E859FC4F0E946A2608
:10404800A6E9B0E00E94D1260E945426A4E9B0E077
:104058000E94D527AF81B885539744F00E94D62691
:10406800F0E03197ACE8B0E00E94D5270F5F1F4F12
:1040780018CD66244424F19A20E030E0293CE0E0A1
:104088003E074CF4A3E6B3E0A20FB31FE0E0EC93C5
:104098002F5F3F4FF3CF0E94ED276B960895E0E81E
:1040A800E0936100E0E0E0936100EFEFE7B9E2B987
:1040B800E0EFE1B9E0E0E5B9EFEFE4B9E0E0EBB952
:1040C800E0EFEAB9E0E0E093C000E8E9E093C1007E
:1040D800E6E0E093C200E0E0E093C500E5E0E093AD
:1040E800C400E0E0E4BDE5E0E5BDE0E0E6BDE7BD35
:1040F800E8BDE1E0E0936E000E94A517EAE0F0E079
:104108000E94DB260E94E126E0EFF9E00E94E52606
:104118000E948D24EFE7F0E00E94D3259FD9E0EDBF
:10412800F7E00E94DB26E0EFFDE00E94E5260E9412
:104138008D24EDE2F0E00E94D32590D9EBE2F4E083
:10414800FA93EA93E7E3F0E00E94E8260E94F1265A
:10415800EDE1F3E0FA93EA93EBE3F0E00E94F7264F
:104168000E94DA25E0E3F4E0FA93EA93E2E5F0E06E
:104178000E94F7260E94DA25E0EDF7E00E94DB2690
:104188000E946C25EF3F79F4AAE8B0E0E0E00E94D5
:10419800D5270E945B250E9445250E9466250E941E
:1041A80050250E943F250E94FA26EF3F41F40E94C5
:1041B800D626EF3F21F40E94FF26EF3F09F019C0F1
:1041C800ACE8B0E0E0E00E94D527AEE8B0E00E949D
:1041D800D527A0E9B0E00E94D527A2E9B0E00E9467
:1041E800D527A4E9B0E00E94D527A6E9B0E00E944F
:1041F800D527A8E2B0E00E94C927EF3F29F4A8E23A
:10420800B0E0E0E00E94D527AAE2B0E00E94C9270A
:10421800EF3F29F4AAE2B0E0E0E00E94D5277894C5
:104228000E9482250E9487250E948C250E942F25A6
:1042380086E695E00197F1F724DC7724AA249924EF
:104248000E94B226F19902C01CDCF19A5A920E948F
:104258009D253CDABADA37DB69DBE9DBA0914B0450
:10426800B0914C04119711F00C947622A091590446
:10427800B0915A04119711F4E5E401C0E0E2EA9321
:10428800E3E1F0E00E94E5260E9404270E94F1186D
:10429800E0913E04E03011F00C94B821EFE5F4E031
:1042A800FA93EA93E7E0FEE2FA93EA930E946C2518
:1042B8000E942D260E9461250E942D260E945625C7
:1042C8000E942D260E944B250E942D260E942A25F9
:1042D8000E942D260E9420250E942D2688E1ABD21F
:1042E8006C960E942025E0934D040E942A25E093B5
:1042F8004E040E944B25E0934F040E945625E093FC
:1043080050040E946125E09351040E946C25E093BB
:1043180052040E94D626E0935304AEE8B0E00E940F
:10432800C927E09354040E94FA26E0935504A2E9B1
:10433800B0E00E94C927E09356040E94FF26E0934C
:104348005704A6E9B0E00E94C927E0935804EFE5B6
:10435800F4E00E94D325E2E0F0E0FA93EA93E0E08B
:10436800EA930E94F12672C0A0913E04A130E9F4BC
:104378000E949D260E940827EFE3F4E0FA93EA934F
:10438800E0E3F0E0FA93EA93E3E0F0E0FA93EA93EB
:10439800E0E0EA93E2E0EA93E1E0EA930E94781928
:1043A8000E94E126E0EDF7E048C0A0913E04A2306B
:1043B800B9F40E949D260E940827E1E2F3E00E94DA
:1043C8000E270E94E8260E9404270E947819E9E235
:1043D800F3E00E940E27FA93EA93E4E0F0E021C0AC
:1043E800A0913E04A33059F40E949D260E940827FC
:1043F800E2E3F3E0FA93EA93ECE1F0E00EC0A09177
:104408003E04A43019F50E949D260E940827EBE37C
:10441800F3E0FA93EA93E4E1F0E0FA93EA93E3E055
:10442800F0E0FA93EA93E0E0EA930E9404270E94FE
:1044380078190E94E126E8EEF3E0FA93EA930E94E5
:1044480054270E949D26E0E0E0933E040E94132733
:10445800A134E0E0BE0719F4E0EFFDE10BC00E94D3
:104468001327A635E0E0BE0719F00E941327D99755
:10447800E0EFF1E2FA93EA93EFE5F0E00E94E52637
:10448800EFE7F0E00E943826E7E6F4E0FA93EA93D3
:10449800ECE3FEE2FA93EA93A6E9B0E00E9418275B
:1044A8000E94FF260E942D26A2E9B0E00E9418274C
:1044B8000E94FA260E942D26AEE8B0E00E94182736
:1044C8000E94D6260E942D2688E1B5D16C96E7E693
:1044D800F4E0FA93EA93E2E2F0E00E94F7260E9401
:1044E800DA251AC0E7E4F3E00E940E27FA93EA936C
:1044F800E2E0F0E0FA93EA930E94DA25E0E5F3E0DF
:10450800FA93EA93EFE0F0E0FA93EA93E4E0F0E05C
:10451800FA93EA930E94DA25E0EFF5E1FA93EA9339
:10452800E9E6F0E00E94F726EFE7F0E00E94D325E5
:104538000E94321A87CEFFCFE091C000E072E1F30B
:10454800E881E093C60021960895EA81EA93F4DFB2
:10455800A881B9810E94A924239608951A930A93E1
:10456800AA81BB8112960E94B527309729F1AA81AA
:10457800BB8114960E94B5278F01309761F00230F5
:10458800E0E01E07C0F0F80131978F01AA81BB81D6
:104598001496ED93FC93AA81BB8112960E94A924DC
:1045A8003197AC81A083AA81BB810E94B527FF23E4
:1045B80012F00E94A92406C0AA81BB81EFEFFFEF89
:1045C800ED93FC93198108812596089526970E94FA
:1045D800E62710E0AC85BD85E0E0F0E0ED93FC93C4
:1045E800EA89FB893196EA8BFB8B3197E4912E2F70
:1045F800E03011F40C941724E12FE03039F425321F
:1046080011F411E002C00E941B270CC1E130A9F48B
:10461800253219F40E941B2704C112E040E000E093
:104628002D3211F401E0FEC02B3211F44BE2FAC036
:10463800203211F440E2F6C002C0E23039F450E012
:1046480013E0203311F40068EDC004C0E33011F02A
:104658000C941624203310F02A3308F007C0AAE07F
:104668005A9F502DE22FE0535E0FDCC0E22FE33655
:1046780049F40E942427E889F989A481AA930E9411
:104688002A27CFC0E33741F40E9424270E9432270B
:104698000E9470241E2F0AC0E03761F40E9424276C
:1046A8000E9432270E947A241E2F086002600F772A
:1046B80030E035C0E43611F0E93611F4046002C088
:1046C800E53731F4E0E4FDE2EE83FF8315E00DC049
:1046D800E83511F4086004C0E83711F00C9415248B
:1046E800EAE4FDE2EE83FF8314E002FF14C00E94B7
:1046F80024270E943C27AB85AA233AF4EA85FB8548
:104708000E946427EA87FB874DE2403011F01F5F63
:1047180001C00B7F04C00E9424270E943C2700FD93
:1047280011C0151778F407FF08C002FF04C00B7FFB
:10473800242F115001C020E301C020E20E941B2752
:104748005150EFCF312F01FF17C03030A1F003FFD8
:1047580006C0EE81FF812591EE83FF8305C0AE81FF
:10476800BF812D91AE83BF830E941B27503009F073
:1047780051503150EACF4BC020E3EE81FF810E94B7
:10478800B927E887F987EE81FF813296EE83FF83A8
:10479800E885F985AA85BB85AE17BF0750F02F5F5E
:1047A800A885B985EA85FB85EA1BFB0BEA87FB87A9
:1047B800EFCF2A3328F003FF02C0295F01C0295D2B
:1047C80004FD1AC0213320F4A885B985119709F48E
:1047D80009C0531710F000FF01C013C020E207FF03
:1047E8000BC020E3006102FF07C00B7F4A930E94C1
:1047F8002A27503009F051500E941B27503009F0E9
:1048080051503150A885B985129708F0B5CF00FFEF
:1048180008C0503031F05150E0E2EA930E942A2754
:10482800F8CF10E0DDCEAC85BD850E94B5270E948B
:10483800ED2764960895FF92F82E26970E94E827A0
:104848000E944427309719F4EFEFFFEF1FC0DE01F5
:1048580016960E9460278D010E944427EE83FF83ED
:10486800E0E0E887E987DE011A960E944B27E2EB31
:10487800F2E2FA93EA93FE013A96FA93EA93A6DEF5
:104888009F01AE81BF81E0E0EC93F9010E94EF2720
:104898002A96FF900895FF92F82E26971A930A9366
:1048A800DE0114960E9460278D01E0E0EC83ED8321
:1048B800EE83EF83DE0118960E944B27E9EAF2E2C5
:1048C800FA93EA93FE013896FA93EA937FDE198108
:1048D80008812896FF900895A991B991EE27FF279E
:1048E8006D91662311F03196FBCF0895AA27BB2757
:1048F800E991F9910590002011F01196FBCFFD0187
:104908000895FA93EA930C94AD17FA93EA930C94EA
:10491800C917E0E0F0E0FA93EA930895EC81F0E03B
:10492800FA93EA930C94D417E12FF0E00895AE813E
:10493800BF81EE27A10FBE1FEC910895FE01E95B30
:10494800FF4F0190F081E02D0895ED91FD91319692
:10495800FE93EE930895EE81F0E00895E0915E03F2
:10496800F0915F03E15CF040A6E0B0E00E9474279C
:10497800E458F74F0895E15CF040A6E0B0E00E94EB
:104988007427E458F74F0895F0E0FA93EA930895EE
:10499800FA93EA93EE81FF810895FA93EA93EE8100
:1049A800EA930C945F18E985FA85FA93EA930E94D2
:1049B8007024A12FB0E0AE17BF070895A985BA8566
:1049C800AE0FBF1F0895E885F985FA93EA93089515
:1049D800EA93E985EA930C94F118EA81F0E0E7FD9F
:1049E800FFEF3896DF01EB81F0E00E947C27089505
:1049F800EB81A8E0EA02F0010895EB81F0E0AD81D7
:104A0800BE81EA0FFB1FED83FE830895A985BA8551
:104A1800EA0FFB1FA1810895EC81A8E0EA02F001EA
:104A2800A885B985AE1BBF0BBA93AA93CCCFAE1B92
:104A3800BF0BAF83B8870895A0E8B0E00E94C927EC
:104A48000895EF5F0E94D527E1500895A2E8B0E0ED
:104A58000E94C9270895E6E6FDE2FA93EA9380E00A
:104A68000E944F2422960895FA93EA9380E00E94C8
:104A78004F2422960895A0E8B0E0E0E00E94D527F0
:104A88000895A2E8B0E0E0E00E94D5270895A4E8E0
:104A9800B0E00E94C9270895A4E8B0E0E0E00E94D1
:104AA800D5270895A6E8B0E00E94C9270895A6E88A
:104AB800B0E0E0E00E94D5270895A8E8B0E00E94A1
:104AC800C9270895A8E8B0E0E0E00E94D527089536
:104AD800AAE8B0E00E94C9270895E4E6F0E0FA9356
:104AE800EA930C945427E8ECF0E0FA93EA930C94D8
:104AF8005427E1E0F0E0ED15FE050895E0EFF1E15F
:104B0800FA93EA9306CFE5E0F0E0FA93EA93089582
:104B1800E9E1F0E0FA93EA93E7E0F0E0FA93EA9348
:104B28000C94321AEFE0F0E0E0933504F093360489
:104B38000895EFE4F0E0FA93EA93E7E0F0E0FA93FF
:104B4800EA93E0E0EA93E1E0EA930C94F118FA932F
:104B5800EA93ECE2F0E0FA93EA93E7E0F0E0FA9304
:104B6800EA93E0E0EA93E1E0EA93EFEFEA930C944A
:104B78007819E1E0F0E0E0933504F0933604089505
:104B8800E0EFF9E1FA93EA93C4CEE3E2F0E0FA93B6
:104B9800EA93E7E0F0E0FA93EA930C94321AFA9376
:104BA800EA93E7E0F0E0FA93EA930895E0E0EA9305
:104BB800E1E0EA93EFEFEA930C947819A0913504B9
:104BC800B091360408958A920E94591BA8E2B0E079
:104BD8000E94D5270895E0933E04EBEBFDE2FA939B
:104BE800EA93E0E3F4E0662777270E94BD27E09187
:104BF8005404FF27662777270E94BD27E0915304B6
:104C0800FF27662777270E94BD27E0915604FF27D4
:104C1800662777270E94BD27E0915504FF2766275E
:104C280077270E94BD27E0915804FF27662777273A
:104C38000E94BD27E0915704FF27662777270E9427
:104C4800BD27E0915204FF27662777270E94BD27DA
:104C580034CFFF27662777270E94BD270895A8E24B
:104C6800B0E00E94C927F5CFFA93EA93E1E0F0E0BB
:104C7800FA93EA930C94321AF801ED59FC4FA0818B
:104C88000895F801EC59FC4FA0810895F801EA59FC
:104C9800FC4FA0810895F801E959FC4FA0810895BF
:104CA800E759FC4FE081F0E0F0970895E659FC4F92
:104CB800E081F0E0F0970895E0935D04F0935E04DE
:104CC8000895F801EB59FC4FA0810895E081F0E0C8
:104CD800F0970895F8013496E98FFA8F0895FA014C
:104CE800A98DBA8DEA0FFB1FEC59FC4FA081AA339E
:104CF8000895EF89F88D3196EF8BF88FAF89B88DCD
:104D080011970895E98DFA8DE40FF51F3196ED8B13
:104D1800FE8B0895ED89FE89EA59FC4F0895ED89C7
:104D2800FE89E959FC4F0895ED89FE89E859FC4F41
:104D38000895E2E0EA930E94E917E3E0EA930E940B
:104D4800E917E4E0EA930E94E917E5E0EA930C9496
:104D5800E917ED89FE89EC59FC4F0895E1E0F0E090
:104D6800E0934B04F0934C040895AF81B885EAE0D2
:104D7800F0E008950E949927A8E8B0E00E94D5279E
:104D8800F4CF0E949427AAE8B0E00E94D52708959E
:104D9800E989FA89EC59FC4F99CF0E94D527E9890E
:104DA800FA890895ACE8B0E00E94C9270895FA93FB
:104DB800EA930E9454270C9406180E94521B0C94E4
:104DC800521BFA93EA93A5CDFA93EA93E2E0F0E056
:104DD800FA93EA93E0E0EA930895E2E0EA93EFEFCA
:104DE800EA930C947819FA93EA938DCEA0E9B0E08F
:104DF8000E94C9270895A4E9B0E00E94C927089530
:104E0800E1E0EA93EA930895E1E0F0E0FA93EA93A7
:104E18000C945427FA93EA93EEE1F0E00895A091F8
:104E28005B04B0915C0408950E94C92712CF2A93AD
:104E3800ED85FE85FA93EA93E989FA89099508953B
:104E4800E889F9893497E88BF98B0895ED85FE8513
:104E5800FA93EA93E989FA8909950895A889B9899D
:104E680014960E94B527EE83FF83FA93EA93089578
:104E7800A889B98914960E94B527EA87FB870895FF
:104E8800DE011C960E9460270E94B52708950E94A3
:104E980060270E94B527FA93EA931A930A93089514
:104EA800E991F991309639F08DEC9AE00197F1F794
:104EB800A8953197C9F708950024AF0DB01D08953E
:104EC800F195E195F0400895EE0FFF1FEE0FFF1FDB
:104ED800EE0FFF1F08956F2F660F660B762F08954C
:104EE800FA9FF02DEB9FF00DEA9FE02DF10D08954C
:104EF8002AD0F6DF0EF4E4DF08950024112490E1AF
:104F0800AA0FBB1F001C111C0E1A1F0A18F40E0E44
:104F18001F1E01C0A1609A9599F7FD01D00108955F
:104F280012D0EBDF0EF4CCDF0895E894B7FF04C08D
:104F3800A095B09511966894F7FDC2DFDEDFFD01FC
:104F48000EF4BEDF0895E894F7FF02C0B9DF689455
:104F5800B7FF06C0A095B095119600F8039400FA23
:104F68000895ED91FC91119708950590F491E02D25
:104F780008957A936A93FA93EA9308951B2EBF2FA4
:104F8800F12D1A2EAE2FE12D0895F999FECFFF933A
:104F9800FFB7F894A1BDB2BDF89AE0B5FFBFFF9185
:104FA8000895F99B02C0A895FCCF9FB7F894A1BDBE
:104FB800B2BDF89A80B5E81719F0E0BDFA9AF99AE7
:104FC8009FBF08955A934A933A932A931A930A9340
:104FD80008955D814C813B812A811981088108955A
:00000001FF
