:100000000C9444170C9400000C9400000C94000015
:100010000C9400000C9400000C9400000C94000060
:100020000C9400000C9400000C9400000C94000050
:100030000C9400000C9400000C9400000C94000040
:100040000C9400000C9400000C946A1A0C940000AC
:100050000C943F1A0C9400000C9400000C940000C7
:100060000C9400000C9400000C9400000C94000010
:100070000C9400000C9400000C94000000000000A0
:100080000000000000000000000000000000000070
:100090000000000000000000000000000000000060
:1000A0000000000000000000000000000000000050
:1000B0000000000000000000000000000000000040
:1000C0000000000000000000000000000000000030
:1000D0000000000000000000000000000000000020
:1000E0000000000000000000000000000000000010
:1000F0000000000000000000000000000000000000
:1001000000000000000000000000000000000000EF
:1001100000000000000000000000000000000000DF
:1001200000000000000000000000000000000000CF
:1001300000000000000000000000000000000000BF
:1001400000000000000000000000000000000000AF
:10015000000000000000000000000000000000009F
:10016000000000000000000000000000000000008F
:10017000000000000000000000000000000000007F
:100180000000000000004F00000000000007000712
:10019000000000000024FF24FF24000000444AFF68
:1001A0004A32000040231308C4C2000000364955FB
:1001B000224080000000050300000000003C428156
:1001C000000000000081423C000000000014083ED6
:1001D000081400000010107C101000000000281807
:1001E000000000000008080808080800006060001F
:1001F000000000004020100804020000007EFF8183
:1002000081FF7E00008082FEFF80800000E2F1918D
:10021000919F8E000062C3C9C9FF760000181412B6
:10022000FFFF1000006F8F8989F97100007EFF8940
:1002300089F97200000101F1FD0703000076FF89D2
:1002400089FF760000468F8989FF7E000000666680
:1002500000000000000056360000000000081422D4
:100260004100000000242424242400000000412236
:1002700014080000000201B109060000006291F1BB
:10028000817E000000FE111111FE000000FF89892F
:1002900089760000007E81818142000000FF81811B
:1002A000423C000000FF89898981000000FF0909A4
:1002B00009010000007E81919172000000FF101082
:1002C00010FF0000000081FF8100000000408081DD
:1002D0007F01000000FF18244281000000FF8080A1
:1002E0008080000000FF020C02FF000000FF0408F5
:1002F00010FF0000007E8181817E000000FF11114F
:10030000110E00007E81A141BE00000000FF1131EE
:10031000518E00000086898989710000000101FF6B
:1003200001010000007F8080807F0000003F40804E
:10033000403F0000003FC060C03F000000E31408E1
:1003400014E30000000708F00807000000C1A191B5
:100350008987000000FF8181000000000015167CE5
:10036000161500000041417F00000000000402015A
:100370000204000000404040404000000001020430
:1003800000000000006094949478000000FF8888CA
:1003900088700000007884848400000000788484E1
:1003A000887F000000789494945800000010FE119B
:1003B00001020000000C9292927E000000FF1008E3
:1003C00008F00000000084FD8000000000608080D4
:1003D0007D00000000FF304884000000000081FF25
:1003E0008000000000FC043804F8000000FC080451
:1003F00004F80000007884848478000000FC141461
:10040000140800000008141418FC000000FC080484
:1004100004080000008894949460000000047F8425
:1004200080400000007C808040FC0000003C408058
:10043000403C0000003EC060C03E00000042241866
:100440002442000000068888887E000000C4A4942E
:100450008C8400000008768100000000000000FF8E
:100460000000000000817608000000000008082A53
:100470001C08000000081C2A08080000007C82817B
:10048000827C00000000000000000000000000006E
:10049000000000000000000000000000000000005C
:1004A000000000000000000000000000000000004C
:1004B000000000000000000000000000000000003C
:1004C000000000000000000000000000000000002C
:10087000000000000000000000000000C1C1C1C174
:100880000000C2C2FEFE0100C3C31F1F0100C4C49A
:10089000FCFC0100C5C5C5C50101C6BDBFBE010147
:1008A000C7C7C0C00100C88284830101C9C9FDFD5A
:1008B0000100CA8587860101CB888A890101CC8B1A
:1008C000CC8B0101CD8CCD8C0101CE11CE1101015B
:1008D000CFCF13130100D0D08F8F0100D1D11B1BBC
:1008E0000100D2D291910100D39294930101D49549
:1008F00097960101D5179A990101D69B9D9C0101FC
:10090000D7D7D7D70000D8D89E9E0101D9D99F9FAD
:100910000101DAA0A2A10101DBA3A5A40101DCDC95
:10092000DCDC0000DDA6A8A70101DEA9ABAA01015D
:10093000DFACAEAD0101E0E0E0E00000E1AFB1B05E
:100940000101E2E2E2E20000E3B2B4B30101E4B586
:10095000B7B60101E5B8BAB90101E6E6BCBC0100D1
:10096000E7E7E7E70000E8E8E8E80000E9E9E9E9A7
:100970000000EAEAEAEA0000EBEBEBEB0000ECBD7A
:10098000BFBE0101EDBDBFBE0101EEEEEEEE000007
:10099000EFEFEFEF0000F0F0F0F00000F1F1F1F117
:1009A0000000F2F2F2F20000F3F3F3F30000F5F5C9
:1009B000F5F50000F6F6F6F60000F7F7F7F7000099
:1009C000F8F8F8F80000FBF9FBFA0101BBBBF4F4FE
:1009D0000100811C1E1D010190181A1901019814B3
:1009E000161501018E8E121201008D108D1001015D
:1009F00000C0F030381818181898B0B03030306097
:100A00006060606060C0C0C0C0C0C0C080808080C6
:100A10008000000000000000000000000000000056
:100A200000000000000000000000000000000000C6
:100A300000000000000000000000000000000000B6
:100A400000000000000000000000000000000000A6
:100A50000000000000000000000000000000000096
:100A60000000000000000000000000000000000086
:100A700000FFFF00000C18F0E70FFD0F070000005B
:100A800000000000000000000000000001010181E2
:100A9000838383C3E767E6C6060E0C0C0C0C0C18A8
:100AA00018187870E0C00000000000E0E0000000CE
:100AB000000080C0E06000E0E0606060606060E0D6
:100AC000C000000080C06060C080000000E0E06006
:100AD0006060606060C08000000080C06060C080B6
:100AE0000000000080C06060606060C080000000A6
:100AF00000FFFF00000000FFFF00FF0000000000FB
:100B00000000000000000080C06030188CC6633117
:100B1000180808090B0B0B090808080808081C3EF0
:100B2000363E1C00FFFF0000000000FFFF70F88C45
:100B30008E070301000000FFFFE0E0E06060607FDF
:100B40003F00FEFF616060606061FFFE00FFFF002C
:100B50000000000000FFFF00FEFF61606060606158
:100B6000FFFE00FFFF000000000000000100000089
:100B700000FFFF00000000FFFF003F30303030304A
:100B8000303030180CC6E331180C060301000000A9
:100B90000000000000000000000000000000000055
:100BA00000000000FFFF00000000003F3F000001C8
:100BB00003070E1C3830003F3F00000103070E3CC6
:100BC00038003F3F0000000000003F3F003F3F3043
:100BD00030303030301F0F003F3F00000000000079
:100BE0003F3F000F1F3030303030303818000000E9
:100BF00000FFFF00000000FFFF00FF0303030303EB
:100C0000030303060C193366CC983060C0800000E3
:100C100000000000000000000000000000000000D4
:100C200000000000FFFF00000000000000000000C6
:100C300000000000000000000000000000000000B4
:100C400000000000000000000000000000000000A4
:100C50000000000000000000000000000000000094
:100C60000000000000000000000000000000000084
:100C700000FFFF00000000FFFF00FF000000000079
:100C80000000000000000000000103060C1933669C
:100C9000444444E4F4B4F4E40404040404040E1FDF
:100CA0001B1F0E00FFFF000000FC0000000000F80A
:100CB000040404F8000C040404FC00F0888488F0A8
:100CC0000080808000FC8484040400F8040404088C
:100CD00000FC000000FC00F0888488F000FC0404A4
:100CE00004F800F8040404F800FC44C4443800008C
:100CF00000FFFF00000603011C3E373E1C00000001
:100D000000000080808080C0C0C0C0C0E060606023
:100D10003030303031391918181C0C0C0C0C0E0600
:100D20000606070301000000000F08080808000776
:100D300008080807000608080807000F0000000F51
:100D400000000000000F0808080800070808080451
:100D5000000708080807000F0000000F000F080830
:100D60000807000708080807000F0000010E000030
:100D7000000107060E0C0C0C0C0C060606060303FD
:100D80000303030101010101000000000000000055
:100D90000000000000000000000000000000000053
:100DA0000000000000000000000000000000000043
:100DB0000000000000000000000000000000000033
:100DC0000000000000000000000000000000000023
:100DD0000000000000000000000000000000000013
:100DE0000000000000000000000000000000000003
:100DF00000000000000000000000000000000000F3
:100E000000000000000000000000000000000000E2
:100E100000000000000000000000000000000000D2
:100E200000000000000000000000000000000000C2
:100E300000000000000000000000000000000000B2
:100E400000000000000000000000000000000000A2
:100E50000000000000000000000000000000000092
:100E60000000000000000000000000000000000082
:100E70000000000000C0E0F0F0F8F8F8F8F8FCFC22
:100E8000FCFCFCFCFCFCFCFCFCFCFCFCFCFCFCFCA2
:100E9000FCFCF8F8F8F8F8F0E0E0C0000000000012
:100EA0000000000000000000000000000000000042
:100EB0000000000000000000000000000000000032
:100EC0000000000000000000000000000000000022
:100ED0000000000000000000000000000000000012
:100EE0000000000000000000000000000000000002
:100EF00000000000FEFFFF030103030303030303DD
:100F000003030303030303FFFF03030103030303BB
:100F100003030303030303030307FFFE00000000B2
:100F200000000000000000000000000000000000C1
:100F300000000000000000000000000000000000B1
:100F400000000000000000000000000000000000A1
:100F50000000000000000000000000000000000091
:100F60000000000000000000000000000000000081
:100F700000000000FFFFFFC0C0C0C0C0C0C0C0C0B4
:100F8000C0C0C0C0C0C0E0FFFFE0C0C0C0E0D0C86B
:100F9000C4C4C4C4C8D0E0C0E0F0FFFF000000003B
:100FA0000000000000000000000000000000000041
:100FB0000000000000000000000000000000000031
:100FC0000000000000000000000000000000000021
:100FD0000000000000000000000000000000000011
:100FE0000000000000000000000000000000000001
:100FF00000000000FFFFFFFFFFFFFFFFFFFFFFFFFD
:10100000FFFFFFFFFFFFFFFFFFFFFFFFFFFFFFFFF0
:10101000FFFFFFFFFFFFFFFFFFFFFFFF00000000DC
:1010200000000000000000000000000000000000C0
:1010300000000000000000000000000000000000B0
:1010400000000000000000000000000000000000A0
:101050000000000000000000000000000000000090
:101060000000000000000000000000000000000080
:10107000000000003FFFFFE1E1E1E1FFFFFFF9D9E0
:10108000D9D9D9D9D9D9D9D9D9D9D9D9D9D9D9D9D0
:10109000C9FBFFFFFFE1E1C1E1F7FF3F00000000F6
:1010A0000000000000000000000000000000000040
:1010B0000000000000000000000000000000000030
:1010C0000000000000000000000000000000000020
:1010D0000000000000000000000000000000000010
:1010E0000000000000000000000000000000000000
:1010F0000000000000001F3F3F3F3F3F3F00000057
:1011000000000000000000000000000000000000DF
:1011100000001F3F3F3F3F3F3F1F00000000000017
:1011200000000000000000000000000000000000BF
:1011300000000000000000000000000000000000AF
:10114000000000000000000000000000000000009F
:10115000000000000000000000000000000000008F
:1014F0000000000000F884C202020202FE020202A2
:10150000C2FE02020202C4F8000000000000000057
:1015100000000000000000000000000000000000CB
:1015200000000000000000000000000000000000BB
:1015300000000000000000000000000000000000AB
:10154000000000000000000000000000000000009B
:10155000000000000000000000000000000000008B
:10156000000000000000000000000000000000007B
:101570000000001E1F7FFFFD7C1C1C1C1F1C1C1C70
:101580001F1F7CFCFC7C1F0F0000000000000000FF
:10159000000000000000000000000000000000004B
:1015A000000000000000000000000000000000003B
:1015B000000000000000000000000000000000002B
:1015C000000000000000000000000000000000001B
:101950000000000000000000000000000038FC0251
:1019600002020202060606BAFABA0202FC380000B7
:101970000000000000000000000000000000000067
:101980000000000000000000000000000000000057
:101990000000000000000000000000000000000047
:1019A0000000000000000000000000000000000037
:1019B0000000000000000000000000000000000027
:1019C0000000000000000000000000000000000017
:1019D00000000000000000000000000000003F3E8A
:1019E000FEF2F23E3E3E3F3FF3F3FF3E3F0000007B
:1019F00000000000000000000000000000000000E7
:101A000000000000000000000000000000000000D6
:101A100000000000000000000000000000000000C6
:101A200000000000000000000000000000000000B6
:101CF0000000000000F884C282DAFAE2FE0202026A
:101D0000C2FE02020202C4F800000000000000004F
:101D100000000000000000000000000000000000C3
:101D200000000000000000000000000000000000B3
:101D300000000000000000000000000000000000A3
:101D40000000000000000000000000000000000093
:101D50000000000000000000000000000000000083
:101D60000000000000000000000000000000000073
:101D70000000001E1F7FFFFD7C1F1F1F1F1C1C1C5F
:101D80001F1F7CFCFC7C1F0F0000000000000000F7
:101D90000000000000000000000000000000000043
:101DA0000000000000000000000000000000000033
:101DB0000000000000000000000000000000000023
:101DC0000000000000000000000000000000000013
:101DD0000000000000000000000000000000000003
:101DE00000000000000000000000000000000000F3
:101DF00000000000000000000000000000000000E3
:101E000000000000000000000000000000000000D2
:101E100000000000000000000000000000000000C2
:101E200000000000000000000000000000000000B2
:101E300000000000000000000000000000000000A2
:101E40000000000000000000000000000000000092
:101E5000E01090908000F090909060006090901062
:101E6000000000002070F8702000807800FC000066
:101E70000000000000000000000000000000000062
:101E80000000000000000000000000000000000052
:101E90000000000000000000000000000000000042
:101EA0000000000000000000000000000000000032
:101EB0000000000000000000000000000000000022
:101EC0000000000000000000000000000000000012
:101ED00003040404030007000000000004040403DA
:101EE00000000010141414141209040A3518080014
:101EF00000000000000000000000000000000000E2
:101F000000000000000000000000000000000000D1
:101F100000000000000000000000000000000000C1
:101F200000000000000000000000000000000000B1
:10225000E01090908000F09090906000609090105E
:1022600000000000000000000000807800FC00007A
:10227000000000000000000000000000000000005E
:10228000000000000000000000000000000000004E
:10229000000000000000000000000000000000003E
:1022A000000000000000000000000000000000002E
:1022B000000000000000000000000000000000001E
:1022C000000000000000000000000000000000000E
:1022D00003040404030007000000000004040403D6
:1022E00000000010141414141209040A3518080010
:1022F00000000000000000000000000000000000DE
:1023000000000000000000000000000000000000CD
:1023100000000000000000000000000000000000BD
:1023200000000000000000000000000000000000AD
:1025F00000000000000000808000E0E000F8F8002B
:10260000FEFE0000000000000000000000000000CE
:1026100000000000000000000000000000000000BA
:1026200000000000000000000000000000000000AA
:10263000000000000000000000000000000000009A
:10264000000000000000000000000000000000008A
:10265000000000000000000000000000000000007A
:10266000000000000000000000000000000000006A
:102670000006060007070007070007070007070016
:10268000070700000000000000000000000000003C
:10269000000000000000000000000000000000003A
:1026A000000000000000000000000000000000002A
:1026B000000000000000000000000000000000001A
:1026C000000000000000000000000000000000000A
:1029F00000000000000000808000E0E00000000017
:102A000000000000000000000000000000000000C6
:102A100000000000000000000000000000000000B6
:102A200000000000000000000000000000000000A6
:102A30000000000000000000000000000000000096
:102A40000000000000000000000000000000000086
:102A50000000000000000000000000000000000076
:102A60000000000000000000000000000000000066
:102A70000006060007070007070007070000000020
:102A80000000000000000000000000000000000046
:102A90000000000000000000000000000000000036
:102AA0000000000000000000000000000000000026
:102AB0000000000000000000000000000000000016
:102AC0000000000000000000000000000000000006
:102AD00000000000000000000000000000000000F6
:102AE00000000000000000000000000000000000E6
:102AF00000000000000000000000000000000000D6
:102B000000000000000000000000000000000000C5
:102B100000000000000000000000000000000000B5
:102B200000000000000000000000000000000000A5
:102B30000000000000000000000000000000000095
:102B40000000000000000000000000000000000085
:102B50000000000000000000000000000000000075
:102B60000000000000000000000000000000000065
:102B70000000000000000000000000000000000055
:102B80000000000000000000000000000000000045
:102B90000000000000000000000000000000000035
:102BA000000606000707000000000000000000000B
:102BB0000000000000000000000000000000000015
:102BC0000000000000000000000000000000000005
:102BD00000000000000000000000000000000000F5
:102BE00000000000000000000000000000000000E5
:102BF00000000000000000000000000000000000D5
:102C000000000000000000000000000000000000C4
:102C100000000000000000000000000000000000B4
:102C200000000000000000000000000000000000A4
:102C30000000000000000000000000000000000094
:102C40000000000000000000000000000000000084
:102C50000000000000000000000000000000000074
:102C60000000000000000000000000000000000064
:102C70000000000000000000000000000000000054
:102C80000000000000000000000000000000000044
:102C90000000000000000000000000000000000034
:102CA0000000000000000000000000000000000024
:102CB0000000000000000000000000000000000014
:102CC0000000000000000000000000000000000004
:102CD00000060600040404040404040404040404B8
:102CE00004040000000000000000000000000000DC
:102CF00000000000000000000000000000000000D4
:102D000000000000000000000000000000000000C3
:102D100000000000000000000000000000000000B3
:102D200000000000000000000000000000000000A3
:102D30000000000000000000000000000000000093
:102D40001027E80364000A000100001000011000D1
:102D50000100C10053495455313639372000002055
:102D60000000000000004154245454444556494496
:102D70003F0A0D0041542B4353510A0D0041542486
:102D800054544E455449503F0A0D00415424545464
:102D90004750535152593D31302C300A0D002020FC
:102DA0002020202000525554413A004154244D53D4
:102DB00047534E443D342C222424424C25732C2569
:102DC000642564256425643230256425642C2564DB
:102DD000256425642564256425642C52322C2564E1
:102DE0002C25643A58582323220D0A0025630042FB
:102DF000555300256425643A256425643A256425E5
:102E0000640050756E746F20646520636F6E747219
:102E10006F6C003230256425642D256425642D25D2
:102E20006425640050616E74616C6C61004E6F20AB
:102E30004175746F72697A616461000001002D4E02
:102E4000414E000001003903522D04000604542DA8
:102E500004000B04582D070000039E2D06000703F5
:102E6000A52D04000D03EF2D11001103022E090002
:102E70002203242E0E002B032D2E0A0005005C2DAC
:102E8000010034043C2E0000F894EE27EFBBF1E083
:102E9000F5BFE5BFF8E1A895A4B7A77FA4BFF0935D
:102EA0006000E09360008DE0A2E0BB27ED938A957F
:102EB000E9F780E098E0A0E0B1E0ED930197E9F751
:102EC000E4E4FEE285919591009761F0A591B591BA
:102ED00005901590BF01F00105900D920197E1F763
:102EE000FB01F0CFE0E0EEBBEFEFEDBFE8E0EEBFBF
:102EF000C0E0D3E00C948A1F5F9A87E38A95F1F7CC
:102F00005F9887E38A95F1F70895169A179A5E9865
:102F10005D98EFE3E8B9F0DF08951A935E985D9845
:102F2000A981BA81A034E0E0BE0720F4169A179870
:102F3000198107C0179A1698E981FA81E054F04088
:102F40001E2FE12FE064EF771E2F18B9D5DF18810F
:102F50003BC01A935E985D98E981E86BEF7B1E2F6A
:102F600018B9CADF188130C0EA81FB810E94512361
:102F7000E881F9810E945523249608955E9A5D9810
:102F8000E881E8B98DED90E00197F1F7B5DF219682
:102F900008951A930A930E9459230E945E23E0E445
:102FA000F0E0FA93EA930E945E23169A00E010E0A4
:102FB0000134E0E01E0734F4E0E0EA93DFDF0F5F66
:102FC0001F4FF6CF19810881239608951A930A930B
:102FD00000E010E00830E0E01E072CF40A93D9DF8F
:102FE0000F5F1F4FF7CF0991199108951A93EB8145
:102FF000FC810E945123E981FA810E94552310E04F
:10300000183080F4ED81FE810E946026DF010E946D
:103010006423EA0FFB1FE458FF4FE491EA93AEDF0D
:103020001F5FEECF188142C10E94EC2620E010E025
:10303000EC811E1700F500E00830D8F40E946723E9
:10304000F0E0F595E795EC93ED81E1703E2F30309F
:1030500021F00E946723E068EC932F5FEC81E21778
:1030600031F4ED81F0E0F595E795ED8320E00F5F19
:10307000E3CF1F5FDDCF0E94F32628960895EF97D8
:1030800021970E94EC260E946E230E945123FE018C
:10309000EB5BFF4F0190F081E02D0E94552310E083
:1030A000183008F50E946423BF010E946026DE01EB
:1030B0001496EA0FFB1FFA93EA93FE01E55BFF4FBC
:1030C0000190F081E02D0E946026E60FF71FE45882
:1030D000FF4FE491EA93FE01E95BFF4FE081EA9341
:1030E000A3DF1F5FDDCF00E0FE01EC5BFF4FE0815F
:1030F0000E1710F00C94CC1810E0183010F00C944F
:10310000BE1830E0FE01EC5BFF4FE0813E17A0F5FA
:10311000E32FF0E0DE01A95BBF4F0D90BC91A02D25
:10312000EA0FFB1FBF01DE01AC5BBF4FAC91BB27B9
:103130000E9464230E947426DB01AE0FBF1FA034DF
:10314000E0E0BE0749F4E0E4F0E0FA93EA930E947D
:103150006E23FA93EA9308DF0E9464230E9460269C
:10316000DE011496AE0FBF1FEE27A00FBE1FEC911D
:10317000EA9304DF3F5FC6CF1F5FBFCF0E946E237D
:10318000FA93EA93DE01A95BBF4F0E947523FA937D
:10319000EA93EADE0F5FA8CF0E94F326EF962C9603
:1031A0000895A981A13011F00C944E190E947B233F
:1031B000E138A0E0FA0711F4EAEF17C0E039A0E027
:1031C000FA0711F4EBEF11C0E839A0E0FA0711F4A7
:1031D000ECEF0BC0EE38A0E0FA0711F4EDEF05C0FC
:1031E000ED38A0E0FA0711F4EEEFEE83AE81A13CDA
:1031F000B0F0A0913903B0913A03A13CE0E0BE07E2
:1032000074F00E947E233596E491E03041F00E94F4
:103210007B230E948B233496E491E03009F417C09D
:103220000E947E23DF01E0913B03F0E03196EA0F3C
:10323000FB1FE4910E949423E0913C030E9494239D
:10324000E0913D030E949423D1DEE2E001C0E0E082
:10325000E0933B03AE81A13C60F00E947B230E947F
:103260008B23DF01E0913B03F0E0EA0FFB1FE491C9
:1032700001C0EE81F0E00E9498230E9498230E94F2
:103280009D230E947B23E0933903F0933A03EC8162
:10329000E0933C03EA81E0933D0308C00E947B2356
:1032A0000E9498230E9498230E949D2327960895A8
:1032B0001A930A9310E000E00E94A32318F4AC8153
:1032C000A03009F029C00E9464230E94AE23EC9133
:1032D000EA930E94B3230E94B323E0E00E94B82344
:1032E0000E94BD23AF81B885EA0FFB1FEF83F887EB
:1032F0000E94C823A0E8B0E00E94BA26EA1BFB0B9C
:10330000AF81B885EA17FB072CF4E0E0EF83E8878C
:103310000E94CD231F5FD0CF0E94A32318F4AC815D
:10332000A13009F075C00E9464230E94AE23AC91C5
:10333000A13E21F40E94D623A73C09F002C009EF68
:1033400029C00E9464230E94AE23AC91A13E21F4C7
:103350000E94D623A33C09F002C007EE1BC00E94C6
:1033600064230E94AE23AC91A13E21F40E94D62397
:10337000A23C09F002C008EE0DC00E9464230E9426
:10338000AE23AC91A13E21F40E94D623A53C09F0C6
:1033900001C009EE003079F00A930E94DC23E1E0DD
:1033A0000E94B8231E5F0E94C823AF81B8850E9487
:1033B000E72300E01CC00E9464230E94AE23EC912E
:1033C000EA930E94DC23E9850E94B8230E946423CB
:1033D0000E94AE23AC91A03219F40E94BD2302C01A
:1033E0000E94C823AF81B8850E94E7231F5F0E9417
:1033F000C8233196AF81B885AE17BF0744F40E9449
:10340000C823A0E8B0E00E94E7230E94CD2384CF28
:10341000E1ECF0E0E0933903F0933A03198108817D
:103420002B9608950E94EC2608851985EC81FD8174
:10343000E017F10700F12A853B85EE81FF81E21755
:10344000F307B0F03A932A931A930A938DDDA0E81C
:10345000A09FF001A19FF00DE20FF31FAC85BD8589
:10346000EA0FFB1FE491EA9389DD2F5F3F4FE5CF21
:103470000F5F1F4FDBCF0E94F3262E960895EA932D
:10348000FA93EFB7EA931A930A931091C000009150
:10349000C600E091C000E07811F4F19801C0F19A03
:1034A000E12FEC7181F4E42D4394F0E0E25CFC4FF9
:1034B0000083E8ECE41509F444246394E8ECE61591
:1034C00011F46624F09A09911991E991EFBFF991ED
:1034D000E99118950A921A92FA926A937A938A93CA
:1034E0009A93AA93BA93EA93FA93EFB7EA93E6E032
:1034F000E6BDAAE1B4E00E947523A0911A04B09140
:103500001B049B9711F00C94211B0E94EC230E943A
:10351000F123E0E0E0931A04E0931B040E94EC2303
:10352000E430A0E0FA0711F40E94F6230E94EC2395
:10353000E930A0E0FA0741F4E4E7FDE2FA93EA9308
:1035400080E00E94122322960E94EC233A9714F402
:103550000C94211B0E94FF230E9406240E94F12349
:103560000E940624DF01E2E0F0E00E9491263097FD
:1035700019F4EDE7FDE202C0EBE8FDE2FA93EA930D
:1035800080E00E94122322960E940624369714F4AB
:103590000C94211B0E940B240E9412240E94F123F0
:1035A0000E9412243A9714F40C94211B0E941724B1
:1035B0000E941E240E94F1230E941E24369714F4B8
:1035C0000C94211B0E9423240E942A240E94F12390
:1035D0000E942A243A97ACF10E942F240E9436249C
:1035E0000E94F1230E943624329731F40E942A244B
:1035F000E330A0E0FA0709F017C00E941E243597B7
:1036000031F40E941224E930A0E0FA0709F00CC05E
:103610000E940624359731F40E94EC23E930A0E0A3
:10362000FA0709F001C001C00CC00E943B240E94AF
:103630002F240E9423240E9417240E940B240E94FE
:10364000FF23E991EFBFF991E991B991A99199917E
:10365000899179916991F9901990099018955C9ADE
:103660000E9442245C980E94422408951A93E981A2
:10367000F0E0E054F0401E2F113010F0103108F04F
:1036800002C0E12F01C0E0E0188122960895A0E079
:103690000499A1E0A03019F4E0E0E71509F015C0A5
:1036A000E1E0F0E0DE0EEF1E7E2EAAE2B0E00E9426
:1036B000D126D5DFE1E0E09314040E9448240E9463
:1036C0004E2410F4DD24EE2407C0049B03C0E1E087
:1036D000E71509F001C07724ED2DFE2D3097E1F4B8
:1036E000A0911404A130B9F40E9453240E945824DC
:1036F0000E945D240E946724E0E0E0931404AAE2A3
:10370000B0E00E946E24E0E2EA930E947324E0E0BD
:10371000F3E00E9481241BC0E130A0E0FA07B9F475
:10372000A0911404A13099F4E0E0E09314040E9405
:103730009324E0EFF9E10E949A240E945824E3E2E6
:10374000F0E00E949D24E7E0F3E00E9481240895C8
:10375000A0E00399A1E0A03041F40E944E2429F496
:10376000E0E0EA1511F4EB1509F016C0A0E1B4E0B1
:103770000E947523319773DFE1E0AE2E0E94A524ED
:103780001D9720F00E94A5241F9709F402C00E94F3
:1037900093240E94482407C0039B03C0E1E0EA157C
:1037A00009F001C0AA24E0911004F0911104E13065
:1037B000A0E0FA0711F4E1E447C0E230A0E0FA0724
:1037C00011F4E2E441C0E330A0E0FA0711F4E3E4CD
:1037D0003BC0E430A0E0FA0711F4E4E435C0E53082
:1037E000A0E0FA0711F4E5E42FC0E630A0E0FA0704
:1037F00011F4E6E429C0E730A0E0FA0711F4E7E4A9
:1038000023C0E830A0E0FA0711F4E8E41DC0E93075
:10381000A0E0FA0711F4E9E417C0EA30A0E0FA07E3
:1038200011F4EAE411C0EB30A0E0FA0711F4EBE484
:103830000BC0EC30A0E0FA0711F4ECE405C0EF3067
:10384000A0E0FA0711F4E0E25E2E0895A0E00299EC
:10385000A1E0A03041F40E944E2429F4E0E0E915F3
:1038600011F4EB1509F01DC0A0E1B4E0ED91FD915C
:103870003197FE93EE933196F2DEE1E09E2E0E94A8
:10388000A524109721F40E94A5241F9709F406C0CF
:10389000ECE0F0E0E0931004F09311040E9448245F
:1038A00007C0029B03C0E1E0E91509F001C09924BB
:1038B0000895A0E00199A1E0A03069F4E0E0EC15E2
:1038C00051F4EB1541F4AAE2B0E00E94C126E130C8
:1038D000A0E0FA0709F01EC0C394852CE1E0BE2EDB
:1038E000BEDE0E9448240E94AA240E94EC240E946A
:1038F0002A240E94EC240E941E240E94EC240E9490
:10390000F1240E94EC240E94EC230E94EC240E94EB
:10391000F82407C0019B03C0E1E0E91509F001C0EC
:10392000C394A0E00199A1E0A03019F4E1E0EB1507
:1039300009F020C00E946724C394E0E28E2EBB24CD
:103940008EDE0E9448240E94AA240E94EC240E9439
:103950002A240E94EC240E941E240E94EC240E942F
:10396000F1240E94EC240E94EC230E94EC240E948B
:10397000F82407C0019B03C0E1E0EC1509F001C089
:10398000CC240895E0912204F0912304E130A0E0DA
:10399000FA0719F4E0E2FBE214C0E230A0E0FA0713
:1039A00019F4E0EFF9E20DC0E330A0E0FA0719F4F2
:1039B000E0EFF5E206C0E430A0E0FA0761F4E0E5EC
:1039C000FCE2FA93EA930E9459230E945923E4E10E
:1039D000F0E00E940C2508956497E0E0EA83EB8311
:1039E000EC83ED83EE83EF83E887E9870E94EA2684
:1039F00040E050E000E010E0083CE0E01E0714F07A
:103A00000C94741F0E941425AB3291F40E94192566
:103A1000A33471F4F801E05CFC4FA081A33541F4BC
:103A20000E941E25A13521F40E942325AA3309F006
:103A300046C0F8010E942825AAE0B0E00E94742642
:103A4000DF01F8010E942E25EA0FFB1FEE83FF83A2
:103A5000AE81BF811B9724F0AE81BF811F970CF010
:103A600005C0E1E0F0E00E94342529C0AE81BF81AD
:103A70001F9724F0AE81BF8152970CF005C0E2E0A1
:103A8000F0E00E9434251BC0AE81BF81529724F024
:103A9000AE81BF815F970CF005C0E3E0F0E00E94CB
:103AA00034250DC0AE81BF81909724F0AE81BF81D7
:103AB000D2970CF004C0E4E0F0E00E9434250E94AC
:103AC0001425A23441F40E941925A53521F40E9441
:103AD0003925A33509F028C0F801EF5AFC4FE081E1
:103AE000E0931804F801E05BFC4FE081E0931704D9
:103AF000F801E15BFC4FE081E0931604F801E25B22
:103B0000FC4FE081E0931504F801EC5AFC4FA081D2
:103B1000A13331F4F801EB5AFC4FA081A83309F02E
:103B200003C0E1E0E09319040E941425AE3481F44F
:103B30000E941925A53461F40E943925A43541F469
:103B40000E941E25A93421F40E942325A03509F0E6
:103B500049C00E943E2540E050E0493CE0E05E075D
:103B60005CF40E94432529F40E944D2511F40E9423
:103B700056254F5F5F4FF1CFEC85FD85E05CFC4F34
:103B8000A081A23279F50E945E250E946325E9F4A6
:103B90000E9467250E946325C1F40E946C250E9443
:103BA000632599F4EC85FD850E942E2571F4EC8542
:103BB000FD85EA5BFC4F0E94632539F4EC85FD85A9
:103BC000E95BFC4F0E94632509F006C0E0E0E0934A
:103BD0001E04E0931F0406C0E1E0F0E0E0931E0441
:103BE000F0931F040E941425A43481F40E94192527
:103BF000A53461F40E943925A63541F40E941E25A2
:103C0000A93421F40E942325A43409F043C00E9462
:103C10003E250E94712540E050E0493CE0E05E070F
:103C20005CF40E94432529F40E944D2511F40E9462
:103C300056254F5F5F4FF1CF0E948125A081A232B0
:103C400049F5EC85FD85E05CFC4FA081E0910B041B
:103C5000EA17A9F40E945E25A081E0910C04EA17FE
:103C600071F40E946725A081E0910D04EA1739F4F0
:103C70000E946C25A081E0910E04EA1709F003C0B0
:103C80000E94862507C00E947125E0E0E0931C0495
:103C9000E0931D040E941425A73481F40E94192585
:103CA000A03561F40E943925A23541F40E941E25F9
:103CB000AD3421F40E942325A33409F012C10E94DF
:103CC0003E2540E050E0493CE0E05E0744F5FA0163
:103CD000A889B989EA0FFB1FE15CFC4FA081AC32D7
:103CE000D9F40E944D2511F40E945625AE85BF855A
:103CF000129739F4E889F989E40FF51F3196EA87BC
:103D0000FB87AE85BF85199739F4E889F989E40FF7
:103D1000F51F3196E887F9874F5F5F4FD4CFE3E017
:103D2000EA9337D9E4E0EA9334D9E5E0EA9331D96C
:103D30000E9481250E946325FF2352F03A9744F4A4
:103D4000EC85FD853196AA85BB85EA17FB0709F44A
:103D50004DC0EC85FD850E942825A0E1B0E00E94C1
:103D6000D1260E946C250E946325A2E1B0E00E944A
:103D7000D1260E9467250E946325A4E1B0E00E943D
:103D8000D1260E945E250E946325A6E1B0E00E9434
:103D9000D126EC85FD85E05CFC4F0E946325EE8B0F
:103DA000FF8B0E9481250E946325E88FF98FAAE08E
:103DB000B0E00E947426AE89BF89EA0FFB1FEC8B2E
:103DC000FD8B3597EA8BFB8BAB89AA234AF4789657
:103DD000EA8BFB8B0E948D250E9492250E949925DB
:103DE0000E948D250E9492250E949925EA85FB85D7
:103DF000E15CFC4FE081F0E0E0932004F0932104CB
:103E0000ECEEFDE2FA93EA93E0912004F0912104B4
:103E10000E94EC2484E00E94122326960E94A02592
:103E2000FF2312F03A970CF038C00E94A025AEE1B3
:103E3000B0E00E94A525E05CFC4F0E946325ACE148
:103E4000B0E00E94A525EF5BFC4F0E946325A2E233
:103E5000B0E00E94A525EE5BFC4F0E946325A0E226
:103E6000B0E00E94A525ED5BFC4F0E946325A6E211
:103E7000B0E00E94A5250E942825A4E2B0E00E949F
:103E8000D126AA89BB8953973CF00E94AA25319775
:103E9000ACE1B0E00E94D12624C00E94AF25A6E28A
:103EA000B0E00E94D1260E94B425A4E2B0E00E94B6
:103EB000D1260E94B925A2E2B0E00E94D1260E943C
:103EC000BE25A0E2B0E00E94D1260E94C325AEE14B
:103ED000B0E00E94D1260E94AA25ACE1B0E00E9489
:103EE000D1260F5F1F4F88CD66244424F19A20E02D
:103EF00030E0293CE0E03E074CF4AEE3B3E0A20F33
:103F0000B31FE0E0EC932F5F3F4FF3CF0E94F12609
:103F10006A960895E0E8E0936100E0E0E0936100D4
:103F2000EFEFE7B9E2B9E0EFE1B9E0E0E5B9EFEFD3
:103F3000E4B9E0E0EBB9E0EFEAB9E0E0E093C0001B
:103F4000E8E9E093C100E6E0E093C200E0E0E0933E
:103F5000C500E5E0E093C400E0E0E4BDE5E0E5BDD8
:103F6000E0E0E6BDE7BDE8BDE1E0E0936E000E9461
:103F70008517EAE0F0E00E94C82571DB70DBE0EF16
:103F8000F9E00E949A240E945923EFE7F0E00E9492
:103F90009D24E0EDF7E00E94C825E0EFFDE00E94DF
:103FA0009A240E945923EDE2F0E00E949D24E6E06D
:103FB000F4E0FA93EA93E7E3F0E00E94CE25EDE027
:103FC000F3E0FA93EA93EBE3F0E00E94DC250E9431
:103FD000DF25EBE0F4E0FA93EA93E2E5F0E00E94FB
:103FE000DC250E94DF25E0EDF7E00E94C825ABE16B
:103FF000B0E00E94C526EE2362F40E943B240E949A
:1040000023240E940B240E942F240E9417240E9424
:10401000FF23A1E2B0E00E94C526EE23C2F4ACE18A
:10402000B0E00E946E24AEE1B0E00E946E24A0E2F7
:10403000B0E00E946E24A2E2B0E00E946E24A4E2EE
:10404000B0E00E946E24A6E2B0E00E946E24A8E2D6
:10405000B0E00E94C526AE2F78940E9453240E949F
:1040600058240E945D240E94F62386E695E001977D
:10407000F1F7B2DC0E9486257724AA249924F199CD
:1040800002C0AADCF19A5A920E94732400DB60DB22
:10409000DDDB0FDC77DCA0911C04B0911D041197CF
:1040A00011F00C944321A0911E04B0911F041197AC
:1040B00011F4E5E401C0E0E2EA93E3E1F0E00E94FC
:1040C0009A24E1E0EA93EA930E94D118E09119045E
:1040D000E03059F5E4E2F4E0FA93EA93E3EFFDE22D
:1040E000FA93EA930E9436240E94EC240E942A2428
:1040F0000E94EC240E941E240E94EC240E941224A0
:104100000E94EC240E9406240E94EC240E94EC23CE
:104110000E94EC240E94E725E4E2F4E0FA93EA939B
:10412000E7E0F0E00E94CE2521C00E947125E1E089
:10413000F0E0FA93EA930E944C26E1E1F3E00E945A
:10414000DC250E94EC25E5E1F4E00E94F1250E94C7
:10415000F62585DA84DAE0EDF7E0FA93EA930E9437
:104160004C26E0E0E09319040E9471250E94FD2591
:10417000A134E0E0BE07D9F5E0EFFDE10E940226A0
:104180000E9407260E943624EF3FA0E0FA0761F460
:104190000E943B240E9423240E940B240E942F246F
:1041A0000E9417240E94FF230E940A260E94EC24EA
:1041B0000E94B4250E94EC240E94B9250E94EC24A0
:1041C0000E94BE250E94EC240E94C3250E94EC247C
:1041D0000E94AA250E94EC240E94E725ECE2F4E06C
:1041E0000E94F1250E94DC250E94DF254BC00E9421
:1041F000FD25A635E0E0BE0721F00E94FD25D997F8
:10420000D9F5E0EFF1E20E9402260E9407260E9403
:104210003624EF3FA0E0FA0761F40E943B240E949D
:1042200023240E940B240E942F240E9417240E9402
:10423000FF230E940A260E94EC240E94B4250E94BB
:10424000EC240E94B9250E94EC240E94BE250E9405
:10425000EC240E94C3250E94EC240E94AA250E94FF
:10426000EC240E94E725ECE2F4E00E94F1250E9494
:10427000DC250E94DF2506C0E0EFF1E20E94022665
:104280000E94072612C0E2E2F3E0FA93EA93EEE11D
:10429000F0E0FA93EA930E94EC25EBE2F3E0FA9364
:1042A000EA93EFE0F0E00E94F625E0EFF5E1FA9303
:1042B000EA93E9E6F0E00E94DC25EFE7F0E00E94F7
:1042C0009D24DDCEFFCFE091C000E072E1F3E881F4
:1042D000E093C60021960895EA81EA93F4DFA8816D
:1042E000B9810E947523239608951A930A93AA818F
:1042F000BB8112960E94AD26309729F1AA81BB811D
:1043000014960E94AD268F01309761F00230E0E0F4
:104310001E07C0F0F80131978F01AA81BB81149666
:10432000ED93FC93AA81BB8112960E94752331976D
:10433000AC81A083AA81BB810E94AD26FF2312F02D
:104340000E94752306C0AA81BB81EFEFFFEFED93BA
:10435000FC93198108812596089526970E94EA26E4
:1043600010E0AC85BD85E0E0F0E0ED93FC93EA89D8
:10437000FB893196EA8BFB8B3197E4912E2FE0304D
:1043800011F40C94DA22E12FE03039F4253211F4E3
:1043900011E002C00E9413260CC1E130A9F42532BD
:1043A00019F40E94132604C112E040E000E02D320F
:1043B00011F401E0FEC02B3211F44BE2FAC02032BE
:1043C00011F440E2F6C002C0E23039F450E013E0EC
:1043D000203311F40068EDC004C0E33011F00C94F8
:1043E000D922203310F02A3308F007C0AAE05A9FE0
:1043F000502DE22FE0535E0FDCC0E22FE33649F48C
:104400000E941C26E889F989A481AA930E94222689
:10441000CFC0E33741F40E941C260E942A260E9446
:104420003C231E2F0AC0E03761F40E941C260E9424
:104430002A260E9446231E2F086002600F7730E074
:1044400035C0E43611F0E93611F4046002C0E537F6
:1044500031F4E0E4FDE2EE83FF8315E00DC0E835C2
:1044600011F4086004C0E83711F00C94D822EAE493
:10447000FDE2EE83FF8314E002FF14C00E941C26BD
:104480000E943426AB85AA233AF4EA85FB850E9474
:104490005C26EA87FB874DE2403011F01F5F01C0C8
:1044A0000B7F04C00E941C260E94342600FD11C010
:1044B000151778F407FF08C002FF04C00B7F242FF4
:1044C000115001C020E301C020E20E941326515088
:1044D000EFCF312F01FF17C03030A1F003FF06C02E
:1044E000EE81FF812591EE83FF8305C0AE81BF8100
:1044F0002D91AE83BF830E941326503009F0515096
:104500003150EACF4BC020E3EE81FF810E94B126FB
:10451000E887F987EE81FF813296EE83FF83E88595
:10452000F985AA85BB85AE17BF0750F02F5FA88518
:10453000B985EA85FB85EA1BFB0BEA87FB87EFCF92
:104540002A3328F003FF02C0295F01C0295D04FD62
:104550001AC0213320F4A885B985119709F409C040
:10456000531710F000FF01C013C020E207FF0BC07B
:1045700020E3006102FF07C00B7F4A930E942226BE
:10458000503009F051500E941326503009F051501C
:104590003150A885B985129708F0B5CF00FF08C043
:1045A000503031F05150E0E2EA930E942226F8CFD9
:1045B00010E0DDCEAC85BD850E94AD260E94F126BF
:1045C00064960895FF92F82E26970E94EC260E948A
:1045D0003C26309719F4EFEFFFEF1FC0DE0116966F
:1045E0000E9458268D010E943C26EE83FF83E0E066
:1045F000E887E987DE011A960E944326E5E7F1E2A3
:10460000FA93EA93FE013A96FA93EA93A6DE9F01A3
:10461000AE81BF81E0E0EC93F9010E94F3262A9677
:10462000FF900895FF92F82E26971A930A93DE01C1
:1046300014960E9458268D01E0E0EC83ED83EE8312
:10464000EF83DE0118960E944326ECE6F1E2FA932E
:10465000EA93FE013896FA93EA937FDE1981088186
:104660002896FF900895A991B991E991F991EA17D7
:10467000FB070CF0FD010895A991B991EE27FF27E2
:104680006D91662311F03196FBCF0895AA27BB27C1
:10469000E991F9910590002011F01196FBCFFD01F1
:1046A0000895FA93EA930C948D17FA93EA930C9475
:1046B000A917E0E0F0E0FA93EA930895EC81F0E0C6
:1046C000FA93EA930C94B417E12FF0E00895AE81C9
:1046D000BF81EE27A10FBE1FEC910895FE01E95B9B
:1046E000FF4F0190F081E02D0895ED91FD913196FD
:1046F000FE93EE930895EE81F0E00895E091390382
:10470000F0913A03E15CF040A6E0B0E00E946C2634
:10471000E458F74F0895E15CF040A6E0B0E00E9455
:104720006C26E458F74F0895F0E0FA93EA93089561
:10473000FA93EA93EE81FF810895FA93EA93EE816A
:10474000EA930C943F18E985FA85FA93EA930E945C
:104750003C23A12FB0E0AE17BF070895A985BA8505
:10476000AE0FBF1F0895E885F985FA93EA9308957F
:10477000EA93E985EA930C94D118EA81F0E0E7FD29
:10478000FFEF3896DF01EB81F0E00E947426089578
:10479000EB81A8E0EA02F0010895EB81F0E0AD8141
:1047A000BE81EA0FFB1FED83FE830895A985BA85BC
:1047B000EA0FFB1FA1810895EC81A8E0EA02F00155
:1047C000A885B985AE1BBF0BBA93AA93CCCFAE1BFD
:1047D000BF0BAF83B8870895A0E1B0E00E94C12667
:1047E000089531960E94D12631970895E6E6FDE2BC
:1047F000FA93EA9380E00E94122322960895A0E1A2
:10480000B0E0E0E0F0E00E94D1260895A2E1B0E03F
:104810000E94C1260895A2E1B0E0E0E0F0E00E942D
:10482000D1260895A4E1B0E00E94C1260895A4E134
:10483000B0E0E0E0F0E00E94D1260895A6E1B0E00B
:104840000E94C1260895A6E1B0E0E0E0F0E00E94F9
:10485000D1260895A8E1B0E00E94C1260895A8E1FC
:10486000B0E0E0E0F0E00E94D1260895AAE1B0E0D7
:104870000E94C1260895AAE1B0E0E0E0F0E00E94C5
:10488000D1260895E4E6F0E0FA93EA930C944C26DE
:10489000E8ECF0E0FA93EA930C944C26E1E0F0E0C7
:1048A000ED15FE050895E0EFF1E1FA93EA9301CFEB
:1048B000E5E0F0E0FA93EA930895E9E1F0E0FA9395
:1048C000EA93E7E0F0E0FA93EA930C94121AEFE02F
:1048D000F0E0E0931004F09311040895E0E0F0E0BC
:1048E0000E94D1260895EFE4F0E0FA93EA93E7E01E
:1048F000F0E0FA93EA93E0E0EA93E1E0EA930C94C3
:10490000D118FA93EA93ECE2F0E0FA93EA93E7E045
:10491000F0E0FA93EA93E0E0EA93E1E0EA93EFEF64
:10492000EA930C945819E1E0F0E0E0931004F0935E
:1049300011040895FA93EA93BCCEFA93EA93E7E060
:10494000F0E0FA93EA930C94121AA0911004B0913B
:10495000110408958A920E94361BA8E2B0E00E94DA
:10496000D926EBEAFDE2FA93EA93EBE0F4E066275E
:1049700077270E94B526AEE1B0E00E94C1260E94D2
:1049800067260E94B526ACE1B0E00E94C1260E94D5
:1049900067260E94B526A2E2B0E00E94C1260E94CE
:1049A00067260E94B526A0E2B0E00E94C1260E94C0
:1049B00067260E94B526A6E2B0E00E94C1260E94AA
:1049C00067260E94B526A4E2B0E00E94C1260E949C
:1049D00067260E94B5264ACF0E9467260E94B52608
:1049E0000895E3E3F3E2662777270E94B5260ECF0A
:1049F000A8E2B0E00E94C526FF27662777270E941D
:104A0000B526EB2DFF27662777270E94B5268CE376
:104A10000E941223EE960895FA93EA93E1E0F0E003
:104A2000FA93EA930C94121AF801E25CFC4FA0810D
:104A30000895F801E15CFC4FA0810895F801EF5B57
:104A4000FC4FA0810895F801EE5BFC4FA081089512
:104A5000EC5BFC4FE081F0E0F0970895EB5BFC4FDE
:104A6000E081F0E0F0970895E0932204F0932304AE
:104A70000895F801E05CFC4FA0810895F801349698
:104A8000E88BF98B0895FA01A889B989EA0FFB1F11
:104A9000E15CFC4FA081AA330895EE85FF85319635
:104AA000EE87FF87AE85BF8511970895E889F9895C
:104AB000E40FF51F3196EC87FD870895EC85FD85A1
:104AC000EF5BFC4F0895E081F0E0F0970895EC85EE
:104AD000FD85EE5BFC4F0895EC85FD85ED5BFC4F9D
:104AE0000895E2E0EA930E94C917E3E0EA930E9486
:104AF000C917E4E0EA930E94C917E5E0EA930C9431
:104B0000C917EC85FD85E15CFC4F0895E1E0F0E01C
:104B1000E0931C04F0931D040895AA89BB89EAE080
:104B2000F0E008950E949126A8E1B0E00E94D1260D
:104B3000F4CF0E948C26AAE1B0E00E94D12608950D
:104B4000E885F985E15CFC4FBECF0E94D126E8855F
:104B5000F9850895ACE1B0E00E94C1260895A6E26F
:104B6000B0E00E94C1260895A4E2B0E00E94C126F0
:104B70000895A2E2B0E00E94C1260895A0E2B0E04C
:104B80000E94C1260895AEE1B0E00E94C1260895BA
:104B9000FA93EA930E944C260C94E617FA93EA9350
:104BA000E2E0F0E0FA93EA93E0E0EA93E2E0EA93ED
:104BB000EFEFEA930C945819FA93EA9379CEE0E078
:104BC000EA93E1E0EA93EFEFEA930C94581988E155
:104BD0000E94E2226C960895E2E0F0E0FA93EA93F4
:104BE000EECFFA93EA93E2E2F0E00895FA93EA93C3
:104BF000E4E0F0E0FA93EA93E2CFA0912004B091D0
:104C000021040895FA93EA93EFE5F0E093CEEFE7FD
:104C1000F0E002CFECE2F4E0FA93EA93E3E1FEE2A3
:104C2000FA93EA939CCF2A93ED85FE85FA93EA9353
:104C3000E989FA8909950895E889F9893497E88B13
:104C4000F98B0895ED85FE85FA93EA93E989FA894F
:104C500009950895A889B98914960E94AD26EE8316
:104C6000FF83FA93EA930895A889B98914960E945C
:104C7000AD26EA87FB870895DE011C960E94582620
:104C80000E94AD2608950E9458260E94AD26FA93F0
:104C9000EA931A930A930895E991F991309639F0BD
:104CA0008DEC9AE00197F1F7A8953197C9F708952F
:104CB0000024AF0DB01D0895F195E195F0400895E1
:104CC000EE0FFF1FEE0FFF1FEE0FFF1F08956F2F58
:104CD000660F660B762F0895FA9FF02DEB9FF00D6F
:104CE000EA9FE02DF10D08952AD0F6DF0EF4E4DFFF
:104CF00008950024112490E1AA0FBB1F001C111C71
:104D00000E1A1F0A18F40E0E1F1E01C0A1609A95FC
:104D100099F7FD01D001089512D0EBDF0EF4CCDF3E
:104D20000895E894B7FF04C0A095B09511966894D3
:104D3000F7FDC2DFDEDFFD010EF4BEDF0895E8946B
:104D4000F7FF02C0B9DF6894B7FF06C0A095B09521
:104D5000119600F8039400FA0895ED91FC911197D3
:104D600008950590F491E02D08957A936A93FA934B
:104D7000EA9308951B2EBF2FF12D1A2EAE2FE12D91
:104D80000895119602D0FE2F1197F999FECFFF9347
:104D9000FFB7F894A1BDB2BDF89AE0B5FFBFFF918F
:104DA000089507D01196EF93EF2F03D0EF9111974D
:104DB0000895F99B02C0A895FCCF9FB7F894A1BDB8
:104DC000B2BDF89A80B5E81719F0E0BDFA9AF99AE1
:104DD0009FBF08955A934A933A932A931A930A933A
:104DE00008955D814C813B812A8119810881089554
:00000001FF
