:0A0000000C94A7170C9400000C9458
:10000A0000000C9400000C9400000C9400000C9466
:10001A0000000C9400000C9400000C9400000C9456
:10002A0000000C9400000C9400000C9400000C9446
:10003A0000000C9400000C9400000C9400000C9436
:10004A00CD1A0C9400000C94A21A0C9400000C9483
:10005A0000000C9400000C9400000C9400000C9416
:10006A0000000C9400000C9400000C9400000C9406
:10007A000000000000000000000000000000000076
:10008A000000000000000000000000000000000066
:10009A000000000000000000000000000000000056
:1000AA000000000000000000000000000000000046
:1000BA000000000000000000000000000000000036
:1000CA000000000000000000000000000000000026
:1000DA000000000000000000000000000000000016
:1000EA000000000000000000000000000000000006
:1000FA0000000000000000000000000000000000F6
:10010A0000000000000000000000000000000000E5
:10011A0000000000000000000000000000000000D5
:10012A0000000000000000000000000000000000C5
:10013A0000000000000000000000000000000000B5
:10014A0000000000000000000000000000000000A5
:10015A000000000000000000000000000000000095
:10016A000000000000000000000000000000000085
:10017A000000000000000000000000004F00000026
:10018A00000000070007000000000024FF24FF24ED
:10019A00000000444AFF4A32000040231308C4C248
:1001AA000000003649552240800000000503000087
:1001BA000000003C4281000000000081423C000037
:1001CA0000000014083E081400000010107C1010F3
:1001DA0000000000281800000000000808080808AD
:1001EA0008000060600000000000402010080402BF
:1001FA000000007EFF8181FF7E00008082FEFF807A
:10020A00800000E2F191919F8E000062C3C9C9FF8C
:10021A00760000181412FFFF1000006F8F8989F909
:10022A007100007EFF8989F97200000101F1FD0762
:10023A0003000076FF8989FF760000468F8989FFCF
:10024A007E000000666600000000000056360000CE
:10025A000000000814224100000000242424242461
:10026A0000000000412214080000000201B1090642
:10027A000000006291F1817E000000FE111111FE62
:10028A00000000FF898989760000007E8181814211
:10029A00000000FF8181423C000000FF89898981BA
:1002AA00000000FF090909010000007E8191917296
:1002BA00000000FF101010FF0000000081FF810005
:1002CA000000004080817F01000000FF1824428165
:1002DA00000000FF80808080000000FF020C02FF07
:1002EA00000000FF040810FF0000007E8181817E6B
:1002FA00000000FF1111110E00007E81A141BE0015
:10030A00000000FF1131518E000000868989897131
:10031A000000000101FF01010000007F8080807F52
:10032A000000003F4080403F0000003FC060C03FE7
:10033A00000000E3140814E30000000708F00807AF
:10034A00000000C1A1918987000000FF818100009F
:10035A0000000015167C161500000041417F0000C0
:10036A000000000402010204000000404040404036
:10037A0000000001020400000000006094949478D8
:10038A00000000FF88888870000000788484840058
:10039A00000000788484887F000000789494945840
:1003AA0000000010FE1101020000000C9292927EE1
:1003BA00000000FF100808F00000000084FD800023
:1003CA000000006080807D00000000FF304884004B
:1003DA000000000081FF8000000000FC043804F8DF
:1003EA00000000FC080404F8000000788484847883
:1003FA00000000FC1414140800000008141418FC6F
:10040A00000000FC0804040800000088949494602A
:10041A00000000047F8480400000007C808040FC53
:10042A000000003C4080403C0000003EC060C03EEE
:10043A000000004224182442000000068888887EB2
:10044A00000000C4A4948C84000000087681000097
:10045A000000000000FF0000000000817608000094
:10046A0000000008082A1C08000000081C2A0808C6
:10047A000000007C8281827C0000000000000000F5
:10048A000000000000000000000000000000000062
:10049A000000000000000000000000000000000052
:1004AA000000000000000000000000000000000042
:1004BA000000000000000000000000000000000032
:10087A000000C1C1C1C10000C2C2FEFE0100C3C363
:10088A001F1F0100C4C4FCFC0100C5C5C5C5010188
:10089A00C6BDBFBE0101C7C7C0C00100C8828483EC
:1008AA000101C9C9FDFD0100CA8587860101CB88FE
:1008BA008A890101CC8BCC8B0101CD8CCD8C0101B5
:1008CA00CE11CE110101CFCF13130100D0D08F8FDB
:1008DA000100D1D11B1B0100D2D291910100D39208
:1008EA0094930101D49597960101D5179A9901011C
:1008FA00D69B9D9C0101D7D7D7D70000D8D89E9EFA
:10090A000101D9D99F9F0101DAA0A2A10101DBA3AC
:10091A00A5A40101DCDCDCDC0000DDA6A8A701013E
:10092A00DEA9ABAA0101DFACAEAD0101E0E0E0E077
:10093A000000E1AFB1B00101E2E2E2E20000E3B29D
:10094A00B4B30101E4B5B7B60101E5B8BAB901011A
:10095A00E6E6BCBC0100E7E7E7E70000E8E8E8E80C
:10096A000000E9E9E9E90000EAEAEAEA0000EBEB5B
:10097A00EBEB0000ECBDBFBE0101EDBDBFBE010146
:10098A00EEEEEEEE0000EFEFEFEF0000F0F0F0F029
:10099A000000F1F1F1F10000F2F2F2F20000F3F3DB
:1009AA00F3F30000F5F5F5F50000F6F6F6F60000AB
:1009BA00F7F7F7F70000F8F8F8F80000FBF9FBFA88
:1009CA000101BBBBF4F40100811C1E1D010190183A
:1009DA001A1901019814161501018E8E12120100BE
:1009EA008D108D10010100C0F030381818181898B1
:1009FA00B0B0303030606060606060C0C0C0C0C0FD
:100A0A00C0C08080808080000000000000000000DC
:100A1A0000000000000000000000000000000000CC
:100A2A0000000000000000000000000000000000BC
:100A3A0000000000000000000000000000000000AC
:100A4A00000000000000000000000000000000009C
:100A5A00000000000000000000000000000000008C
:100A6A0000000000000000FFFF00000C18F0E70F74
:100A7A00FD0F070000000000000000000000000059
:100A8A00000001010181838383C3E767E6C6060E7E
:100A9A000C0C0C0C0C1818187870E0C00000000040
:100AAA0000E0E0000000000080C0E06000E0E060DC
:100ABA006060606060E0C000000080C06060C0806C
:100ACA00000000E0E0606060606060C080000000DC
:100ADA0080C06060C0800000000080C0606060600C
:100AEA0060C08000000000FFFF00000000FFFF0060
:100AFA00FF00000000000000000000000080C0604D
:100B0A0030188CC66331180808090B0B0B09080842
:100B1A00080808081C3E363E1C00FFFF00000000C3
:100B2A0000FFFF70F88C8E070301000000FFFFE052
:100B3A00E0E06060607F3F00FEFF616060606061CE
:100B4A00FFFE00FFFF000000000000FFFF00FEFFA5
:100B5A00616060606061FFFE00FFFF00000000004E
:100B6A0000000100000000FFFF00000000FFFF007E
:100B7A003F3030303030303030180CC6E331180C8A
:100B8A000603010000000000000000000000000051
:100B9A0000000000000000000000FFFF000000004D
:100BAA00003F3F00000103070E1C3830003F3F00A2
:100BBA00000103070E3C38003F3F00000000000020
:100BCA003F3F003F3F3030303030301F0F003F3F53
:100BDA000000000000003F3F000F1F30303030306F
:100BEA0030381800000000FFFF00000000FFFF007F
:100BFA00FF0303030303030303060C193366CC98AC
:100C0A003060C0800000000000000000000000000A
:100C1A0000000000000000000000FFFF00000000CC
:100C2A0000000000000000000000000000000000BA
:100C3A0000000000000000000000000000000000AA
:100C4A00000000000000000000000000000000009A
:100C5A00000000000000000000000000000000008A
:100C6A0000000000000000FFFF00000000FFFF007E
:100C7A00FF0000000000000000000000000000016A
:100C8A0003060C193366444444E4F4B4F4E404045B
:100C9A00040404040E1F1B1F0E00FFFF000000FCCB
:100CAA000000000000F8040404F8000C040404FC2A
:100CBA0000F0888488F00080808000FC848404042A
:100CCA0000F80404040800FC000000FC00F088841A
:100CDA0088F000FC040404F800F8040404F800FC9A
:100CEA0044C44438000000FFFF00000603011C3E14
:100CFA00373E1C00000000000080808080C0C0C019
:100D0A00C0C0E06060603030303031391918181CCA
:100D1A000C0C0C0C0E060606070301000000000F5F
:100D2A00080808080007080808070006080808074E
:100D3A00000F0000000F00000000000F080808085C
:100D4A00000708080804000708080807000F000041
:100D5A00000F000F08080807000708080807000F17
:100D6A000000010E0000000107060E0C0C0C0C0C12
:100D7A00060606060303030303010101010100003D
:100D8A000000000000000000000000000000000059
:100D9A000000000000000000000000000000000049
:100DAA000000000000000000000000000000000039
:100DBA000000000000000000000000000000000029
:100DCA000000000000000000000000000000000019
:100DDA000000000000000000000000000000000009
:100DEA0000000000000000000000000000000000F9
:100DFA0000000000000000000000000000000000E9
:100E0A0000000000000000000000000000000000D8
:100E1A0000000000000000000000000000000000C8
:100E2A0000000000000000000000000000000000B8
:100E3A0000000000000000000000000000000000A8
:100E4A000000000000000000000000000000000098
:100E5A000000000000000000000000000000000088
:100E6A000000000000000000000000C0E0F0F0F800
:100E7A00F8F8F8F8FCFCFCFCFCFCFCFCFCFCFCFCB8
:100E8A00FCFCFCFCFCFCFCFCF8F8F8F8F8F0E0E0F0
:100E9A00C000000000000000000000000000000088
:100EAA000000000000000000000000000000000038
:100EBA000000000000000000000000000000000028
:100ECA000000000000000000000000000000000018
:100EDA000000000000000000000000000000000008
:100EEA0000000000000000000000FEFFFF030103F5
:100EFA0003030303030303030303030303FFFF03C0
:100F0A0003010303030303030303030303030307A5
:100F1A00FFFE0000000000000000000000000000CA
:100F2A0000000000000000000000000000000000B7
:100F3A0000000000000000000000000000000000A7
:100F4A000000000000000000000000000000000097
:100F5A000000000000000000000000000000000087
:100F6A0000000000000000000000FFFFFFC0C0C03A
:100F7A00C0C0C0C0C0C0C0C0C0C0C0C0E0FFFFE0A9
:100F8A00C0C0C0E0D0C8C4C4C4C4C8D0E0C0E0F087
:100F9A00FFFF000000000000000000000000000049
:100FAA000000000000000000000000000000000037
:100FBA000000000000000000000000000000000027
:100FCA000000000000000000000000000000000017
:100FDA000000000000000000000000000000000007
:100FEA0000000000000000000000FFFFFFFFFFFFFD
:100FFA00FFFFFFFFFFFFFFFFFFFFFFFFFFFFFFFFF7
:10100A00FFFFFFFFFFFFFFFFFFFFFFFFFFFFFFFFE6
:10101A00FFFF0000000000000000000000000000C8
:10102A0000000000000000000000000000000000B6
:10103A0000000000000000000000000000000000A6
:10104A000000000000000000000000000000000096
:10105A000000000000000000000000000000000086
:10106A00000000000000000000003FFFFFE1E1E196
:10107A00E1FFFFFFF9D9D9D9D9D9D9D9D9D9D9D93C
:10108A00D9D9D9D9D9D9C9FBFFFFFFE1E1C1E1F724
:10109A00FF3F000000000000000000000000000008
:1010AA000000000000000000000000000000000036
:1010BA000000000000000000000000000000000026
:1010CA000000000000000000000000000000000016
:1010DA000000000000000000000000000000000006
:1010EA000000000000000000000000001F3F3F3F1A
:1010FA003F3F3F0000000000000000000000000029
:10110A0000000000000000001F3F3F3F3F3F3F1F1D
:10111A0000000000000000000000000000000000C5
:10112A0000000000000000000000000000000000B5
:10113A0000000000000000000000000000000000A5
:10114A000000000000000000000000000000000095
:1014EA000000000000000000000000F884C20202B0
:1014FA000202FE020202C2FE02020202C4F8000056
:10150A0000000000000000000000000000000000D1
:10151A0000000000000000000000000000000000C1
:10152A0000000000000000000000000000000000B1
:10153A0000000000000000000000000000000000A1
:10154A000000000000000000000000000000000091
:10155A000000000000000000000000000000000081
:10156A000000000000000000001E1F7FFFFD7C1C21
:10157A001C1C1F1C1C1C1F1F7CFCFC7C1F0F00005A
:10158A000000000000000000000000000000000051
:10159A000000000000000000000000000000000041
:1015AA000000000000000000000000000000000031
:1015BA000000000000000000000000000000000021
:10195A0000000038FC0202020202060606BAFABABF
:10196A000202FC3800000000000000000000000035
:10197A00000000000000000000000000000000005D
:10198A00000000000000000000000000000000004D
:10199A00000000000000000000000000000000003D
:1019AA00000000000000000000000000000000002D
:1019BA00000000000000000000000000000000001D
:1019CA00000000000000000000000000000000000D
:1019DA00000000003F3EFEF2F23E3E3E3F3FF3F380
:1019EA00FF3E3F0000000000000000000000000071
:1019FA0000000000000000000000000000000000DD
:101A0A0000000000000000000000000000000000CC
:101A1A0000000000000000000000000000000000BC
:101A2A0000000000000000000000000000000000AC
:101CEA000000000000000000000000F884C282DA50
:101CFA00FAE2FE020202C2FE02020202C4F8000076
:101D0A0000000000000000000000000000000000C9
:101D1A0000000000000000000000000000000000B9
:101D2A0000000000000000000000000000000000A9
:101D3A000000000000000000000000000000000099
:101D4A000000000000000000000000000000000089
:101D5A000000000000000000000000000000000079
:101D6A000000000000000000001E1F7FFFFD7C1F16
:101D7A001F1F1F1C1C1C1F1F7CFCFC7C1F0F00004C
:101D8A000000000000000000000000000000000049
:101D9A000000000000000000000000000000000039
:101DAA000000000000000000000000000000000029
:101DBA000000000000000000000000000000000019
:101DCA000000000000000000000000000000000009
:101DDA0000000000000000000000000000000000F9
:101DEA0000000000000000000000000000000000E9
:101DFA0000000000000000000000000000000000D9
:101E0A0000000000000000000000000000000000C8
:101E1A0000000000000000000000000000000000B8
:101E2A0000000000000000000000000000000000A8
:101E3A000000000000000000000000000000000098
:101E4A00000000000000E01090908000F090909058
:101E5A00600060909010000000002070F870200070
:101E6A00807800FC00000000000000000000000074
:101E7A000000000000000000000000000000000058
:101E8A000000000000000000000000000000000048
:101E9A000000000000000000000000000000000038
:101EAA000000000000000000000000000000000028
:101EBA000000000000000000000000000000000018
:101ECA0000000000000003040404030007000000EF
:101EDA00000004040403000000101414141412096E
:101EEA00040A351808000000000000000000000085
:101EFA0000000000000000000000000000000000D8
:101F0A0000000000000000000000000000000000C7
:101F1A0000000000000000000000000000000000B7
:101F2A0000000000000000000000000000000000A7
:10224A00000000000000E01090908000F090909054
:10225A006000609090100000000000000000000084
:10226A00807800FC00000000000000000000000070
:10227A000000000000000000000000000000000054
:10228A000000000000000000000000000000000044
:10229A000000000000000000000000000000000034
:1022AA000000000000000000000000000000000024
:1022BA000000000000000000000000000000000014
:1022CA0000000000000003040404030007000000EB
:1022DA00000004040403000000101414141412096A
:1022EA00040A351808000000000000000000000081
:1022FA0000000000000000000000000000000000D4
:10230A0000000000000000000000000000000000C3
:10231A0000000000000000000000000000000000B3
:10232A0000000000000000000000000000000000A3
:1025EA0000000000000000000000000000808000E1
:1025FA00E0E000F8F800FEFE000000000000000025
:10260A0000000000000000000000000000000000C0
:10261A0000000000000000000000000000000000B0
:10262A0000000000000000000000000000000000A0
:10263A000000000000000000000000000000000090
:10264A000000000000000000000000000000000080
:10265A000000000000000000000000000000000070
:10266A000000000000000006060007070007070038
:10267A000707000707000707000000000000000026
:10268A000000000000000000000000000000000040
:10269A000000000000000000000000000000000030
:1026AA000000000000000000000000000000000020
:1026BA000000000000000000000000000000000010
:1029EA0000000000000000000000000000808000DD
:1029FA00E0E000000000000000000000000000000D
:102A0A0000000000000000000000000000000000BC
:102A1A0000000000000000000000000000000000AC
:102A2A00000000000000000000000000000000009C
:102A3A00000000000000000000000000000000008C
:102A4A00000000000000000000000000000000007C
:102A5A00000000000000000000000000000000006C
:102A6A000000000000000006060007070007070034
:102A7A00070700000000000000000000000000003E
:102A8A00000000000000000000000000000000003C
:102A9A00000000000000000000000000000000002C
:102AAA00000000000000000000000000000000001C
:102ABA00000000000000000000000000000000000C
:102ACA0000000000000000000000000000000000FC
:102ADA0000000000000000000000000000000000EC
:102AEA0000000000000000000000000000000000DC
:102AFA0000000000000000000000000000000000CC
:102B0A0000000000000000000000000000000000BB
:102B1A0000000000000000000000000000000000AB
:102B2A00000000000000000000000000000000009B
:102B3A00000000000000000000000000000000008B
:102B4A00000000000000000000000000000000007B
:102B5A00000000000000000000000000000000006B
:102B6A00000000000000000000000000000000005B
:102B7A00000000000000000000000000000000004B
:102B8A00000000000000000000000000000000003B
:102B9A000000000000000006060007070000000011
:102BAA00000000000000000000000000000000001B
:102BBA00000000000000000000000000000000000B
:102BCA0000000000000000000000000000000000FB
:102BDA0000000000000000000000000000000000EB
:102BEA0000000000000000000000000000000000DB
:102BFA0000000000000000000000000000000000CB
:102C0A0000000000000000000000000000000000BA
:102C1A0000000000000000000000000000000000AA
:102C2A00000000000000000000000000000000009A
:102C3A00000000000000000000000000000000008A
:102C4A00000000000000000000000000000000007A
:102C5A00000000000000000000000000000000006A
:102C6A00000000000000000000000000000000005A
:102C7A00000000000000000000000000000000004A
:102C8A00000000000000000000000000000000003A
:102C9A00000000000000000000000000000000002A
:102CAA00000000000000000000000000000000001A
:102CBA00000000000000000000000000000000000A
:102CCA0000000000000000060600040404040404D6
:102CDA0004040404040404040000000000000000CA
:102CEA0000000000000000000000000000000000DA
:102CFA0000000000000000000000000000000000CA
:102D0A0000000000000000000000000000000000B9
:102D1A0000000000000000000000000000000000A9
:102D2A000000000000000000000000000000000099
:102D3A000000000000001027E80364000A000100F8
:102D4A000010000110000100C100534954553136EA
:102D5A0039372000002000000000000041542454AC
:102D6A005444455649443F0A0D0041542B4353519C
:102D7A000A0D0041542454544E455449503F0A0DFB
:102D8A000041542454544750535152593D31302C28
:102D9A00300A0D004154245454534E444D473D3497
:102DAA002C222424424C25732C2564256425642571
:102DBA00643230256425642C2564256425642564E1
:102DCA00256425642C52322C25642C25643A5858E3
:102DDA002323220D0A004154245454534E444D4790
:102DEA003D342C222424424C25732C256425642549
:102DFA006425643230256425642C256425642564A1
:102E0A002564256425642C53322C313233342C2525
:102E1A00643A58582323220D0A00525554413A0065
:102E2A0020202020202000502564002563004255E0
:102E3A005300256425643A256425643A256425648B
:102E4A0000494E4943494F20444520534553494F71
:102E5A004E002A0046494E205255544100494E49D7
:102E6A0043494F2052555441002048412053414C78
:102E7A0049444F0044454C2053495354454D410061
:102E8A004E4543455349544120494E4943494152CD
:102E9A00204A4F524E414441003230256425642D68
:102EAA00256425642D256425640050616E74616C67
:102EBA006C61004E6F204175746F72697A6164614A
:102ECA00000001002D4E414E000001008603522DE4
:102EDA0004005304542D04005804582D060000031E
:102EEA00242E070006032A2E04000D03382E110093
:102EFA0011034B2E020022035C2E020024035C2ED7
:102F0A00020026035C2E020028035C2E09002A0315
:102F1A005E2E0C003303672E0B003F03732E0C004A
:102F2A004A037E2E190056038A2E09006F03B42E17
:102F3A000E007803BD2E0A0005005C2D01009704DF
:102F4A00CC2E0000F894EE27EFBBF1E0F5BFE5BF09
:102F5A00F8E1A895A4B7A77FA4BFF0936000E09317
:102F6A0060008DE0A2E0BB27ED938A95E9F780E047
:102F7A0098E0A0E0B1E0ED930197E9F7E4EDFEE215
:102F8A0085919591009761F0A591B591059015905D
:102F9A00BF01F00105900D920197E1F7FB01F0CF17
:102FAA00E0E0EEBBEFEFEDBFE8E0EEBFC0E0D3E05C
:102FBA000C947B205F9A87E38A95F1F75F9887E301
:102FCA008A95F1F70895169A179A5E985D98EFE335
:102FDA00E8B9F0DF08951A935E985D98A981BA81DD
:102FEA00A034E0E0BE0720F4169A1798198107C0AA
:102FFA00179A1698E981FA81E054F0401E2FE12FC2
:10300A00E064EF771E2F18B9D5DF18813BC01A93F9
:10301A005E985D98E981E86BEF7B1E2F18B9CADFCD
:10302A00188130C0EA81FB810E943325E881F98149
:10303A000E943725249608955E9A5D98E881E8B93A
:10304A008DED90E00197F1F7B5DF219608951A9377
:10305A000A930E943B250E944025E0E4F0E0FA939F
:10306A00EA930E944025169A00E010E00134E0E05D
:10307A001E0734F4E0E0EA93DFDF0F5F1F4FF6CF5D
:10308A0019810881239608951A930A9300E010E0A3
:10309A000830E0E01E072CF40A93D9DF0F5F1F4FB8
:1030AA00F7CF0991199108951A93EB81FC810E9437
:1030BA003325E981FA810E94372510E0183080F41F
:1030CA00ED81FE810E94C927DF010E944625EA0F91
:1030DA00FB1FE458FF4FE491EA93AEDF1F5FEECF88
:1030EA00188142C10E94492820E010E0EC811E1795
:1030FA0000F500E00830D8F40E944925F0E0F59583
:10310A00E795EC93ED81E1703E2F303021F00E947B
:10311A004925E068EC932F5FEC81E21731F4ED81E9
:10312A00F0E0F595E795ED8320E00F5FE3CF1F5FB1
:10313A00DDCF0E94502828960895EF9721970E9484
:10314A0049280E9450250E943325FE01EB5BFF4F60
:10315A000190F081E02D0E94372510E0183008F523
:10316A000E944625BF010E94C927DE011496EA0F74
:10317A00FB1FFA93EA93FE01E55BFF4F0190F08192
:10318A00E02D0E94C927E60FF71FE458FF4FE4918C
:10319A00EA93FE01E95BFF4FE081EA93A3DF1F5F39
:1031AA00DDCF00E0FE01EC5BFF4FE0810E1710F06F
:1031BA000C942F1910E0183010F00C94211930E0FB
:1031CA00FE01EC5BFF4FE0813E17A0F5E32FF0E034
:1031DA00DE01A95BBF4F0D90BC91A02DEA0FFB1F2A
:1031EA00BF01DE01AC5BBF4FAC91BB270E944625F5
:1031FA000E94DD27DB01AE0FBF1FA034E0E0BE074F
:10320A0049F4E0E4F0E0FA93EA930E945025FA9335
:10321A00EA9308DF0E9446250E94C927DE01149618
:10322A00AE0FBF1FEE27A00FBE1FEC91EA9304DF7B
:10323A003F5FC6CF1F5FBFCF0E945025FA93EA9324
:10324A00DE01A95BBF4F0E945725FA93EA93EADE93
:10325A000F5FA8CF0E945028EF962C960895A98157
:10326A00A13011F00C94B1190E945D25E138A0E05B
:10327A00FA0711F4EAEF17C0E039A0E0FA0711F4EF
:10328A00EBEF11C0E839A0E0FA0711F4ECEF0BC03C
:10329A00EE38A0E0FA0711F4EDEF05C0ED38A0E032
:1032AA00FA0711F4EEEFEE83AE81A13CB0F0A091E3
:1032BA008603B0918703A13CE0E0BE0774F00E9448
:1032CA0060253596E491E03041F00E945D250E9428
:1032DA006D253496E491E03009F417C00E94602508
:1032EA00DF01E0918803F0E03196EA0FFB1FE491D9
:1032FA000E947625E09189030E947625E0918A034F
:10330A000E947625D1DEE2E001C0E0E0E093880386
:10331A00AE81A13C60F00E945D250E946D25DF010F
:10332A00E0918803F0E0EA0FFB1FE49101C0EE810F
:10333A00F0E00E947A250E947A250E947F250E9449
:10334A005D25E0938603F0938703EC81E09389037C
:10335A00EA81E0938A0308C00E945D250E947A25CB
:10336A000E947A250E947F25279608951A930A9328
:10337A0010E000E00E94852518F4AC81A03009F025
:10338A0029C00E9446250E949025EC91EA930E944A
:10339A0095250E949525E0E00E949A250E949F2586
:1033AA00AF81B885EA0FFB1FEF83F8870E94AA2531
:1033BA00A0E8B0E00E942328EA1BFB0BAF81B88586
:1033CA00EA17FB072CF4E0E0EF83E8870E94AF25B9
:1033DA001F5FD0CF0E94852518F4AC81A13009F077
:1033EA0075C00E9446250E949025AC91A13E21F409
:1033FA000E94B825A73C09F002C009EF29C00E9423
:10340A0046250E949025AC91A13E21F40E94B82540
:10341A00A33C09F002C007EE1BC00E9446250E9489
:10342A009025AC91A13E21F40E94B825A23C09F056
:10343A0002C008EE0DC00E9446250E949025AC915C
:10344A00A13E21F40E94B825A53C09F001C009EE6D
:10345A00003079F00A930E94BE25E1E00E949A2585
:10346A001E5F0E94AA25AF81B8850E94C92500E087
:10347A001CC00E9446250E949025EC91EA930E9466
:10348A00BE25E9850E949A250E9446250E9490251C
:10349A00AC91A03219F40E949F2502C00E94AA256D
:1034AA00AF81B8850E94C9251F5F0E94AA2531965F
:1034BA00AF81B885AE17BF0744F40E94AA25A0E8D9
:1034CA00B0E00E94C9250E94AF2584CFE1ECF0E06C
:1034DA00E0938603F0938703198108812B96089558
:1034EA000E94492808851985EC81FD81E017F107BA
:1034FA0000F12A853B85EE81FF81E217F307B0F0E0
:10350A003A932A931A930A938DDDA0E8A09FF001BB
:10351A00A19FF00DE20FF31FAC85BD85EA0FFB1FDB
:10352A00E491EA9389DD2F5F3F4FE5CF0F5F1F4F8D
:10353A00DBCF0E9450282E960895EA93FA93EFB7AC
:10354A00EA931A930A931091C0000091C600E09181
:10355A00C000E07811F4F19801C0F19AE12FEC7102
:10356A0081F4E42D4394F0E0E557FC4F0083E8EC46
:10357A00E41509F444246394E8ECE61511F466248E
:10358A00F09A09911991E991EFBFF991E99118958A
:10359A000A921A92FA926A937A938A939A93AA93BC
:1035AA00BA93EA93FA93EFB7EA93E6E0E6BDA5E8A1
:1035BA00B4E00E945725A0918504B09186049B9798
:1035CA0011F00C94871B0E94CE250E94D325E0E0BF
:1035DA00E0938504E09386040E94CE25E13021F42D
:1035EA000E94D825E13009F002C00E94DD250E9420
:1035FA00CE25E13021F40E94D825E23009F004C03A
:10360A00E4E7FDE20E94E6250E94CE25E13021F49E
:10361A000E94D825E33009F004C0EDE7FDE20E94DC
:10362A00E6250E94CE25E13021F40E94D825E43017
:10363A0009F004C0EBE8FDE20E94E6250E94CE25CF
:10364A00EA3010F40C94871B0E94ED250E94D825BD
:10365A000E94D3250E94D825E63010F40C94871BCB
:10366A000E94F3250E94F9250E94D3250E94F9257C
:10367A00EA3010F40C94871B0E94FE250E9404264F
:10368A000E94D3250E940426E630E0F10E94092612
:10369A000E940F260E94D3250E940F26EA3090F13D
:1036AA000E9414260E941A260E94D3250E941A26D6
:1036BA00E23021F40E940F26E33009F013C00E9481
:1036CA000426E53021F40E94F925E93009F00AC000
:1036DA000E94D825E53021F40E94CE25E93009F070
:1036EA0001C001C00FC0AAE8B0E0E0E00E9436289D
:1036FA000E9414260E9409260E94FE250E94F32594
:10370A000E94ED25E991EFBFF991E991B991A9914B
:10371A009991899179916991F990199009901895DF
:10372A005C9A0E941F265C980E941F2608951A938D
:10373A00E981F0E0E054F0401E2F113010F0153608
:10374A0008F002C0E12F01C0E0E018812296089536
:10375A008A92EDDFE0939504EEE9FDE20E942526C8
:10376A000E945F26E0918C040E945F260E94F92540
:10377A000E945F26E0918A040E945F260E94CE255D
:10378A000E945F26E09195040E945F26EE2D0E941A
:10379A005F268CE30E94FD24EE960895E0EEFDE29A
:1037AA000E9425260E945F26E0918C040E945F26D3
:1037BA000E94F9250E945F26E0918A040E945F26F2
:1037CA000E94CE250E945F26E09196040E945F2601
:1037DA0088E30E94FD24EA960895A0E00499A1E0F6
:1037EA00A03019F4E0E0E71509F05CC0E2E0E093EC
:1037FA007A04D394E1E07E2E0E946526ED2D0E9484
:10380A006D26D9F4E1E0E0939604C8DFE1E0E093A5
:10381A005D04E0EFF9E10E9472260E947526E3E258
:10382A00F0E00E947A265CDEE0E0F3E00E94812666
:10383A000E9486260E948B2634C0E230A0E0FA0756
:10384A0081F5E0EFF1E10E9472260E947526E9E116
:10385A00F0E00E947A2644DEEFE0E0935D04E0E0C7
:10386A00E0939604E5E0E0937A0498DFEFE0E093D2
:10387A005D04EE24E0E2E81509F06ADFE0E28E2E4C
:10388A00EA93EFE4F0E00E947A260E948626E7DCBB
:10389A00E6E0F3E00E9481260E9486260E948B269B
:1038AA00DD2407C0049B03C0E1E0E71509F001C06D
:1038BA0077240895A0E00399A1E0A03049F4E0E05C
:1038CA00EA1531F4EE1521F4A0919604A13009F01D
:1038DA0015C0E0915D04EF5FE0935D0421DFE1E054
:1038EA00AE2EA0915D04AD3010F0AF3009F403C0E4
:1038FA00E1E0E0935D040E948F2607C0039B03C0AA
:10390A00E1E0EA1509F001C0AA24E0915D040E94F1
:10391A006D2611F4E1E447C0E230A0E0FA0711F4A1
:10392A00E2E441C0E330A0E0FA0711F4E3E43BC06B
:10393A00E430A0E0FA0711F4E4E435C0E530A0E091
:10394A00FA0711F4E5E42FC0E630A0E0FA0711F413
:10395A00E6E429C0E730A0E0FA0711F4E7E423C05F
:10396A00E830A0E0FA0711F4E8E41DC0E930A0E06D
:10397A00FA0711F4E9E417C0EA30A0E0FA0711F4F3
:10398A00EAE411C0EB30A0E0FA0711F4EBE40BC053
:10399A00EC30A0E0FA0711F4ECE405C0EF30A0E047
:1039AA00FA0711F4E0E25E2E0895A0E00299A1E080
:1039BA00A03049F4E0E0E91531F4EE1521F4A091C4
:1039CA009604A13009F015C0E0915D04E150E0933E
:1039DA005D04A6DEE1E09E2EA0915D04A03011F404
:1039EA00AF3009F403C0ECE0E0935D040E948F2637
:1039FA0007C0029B03C0E1E0E91509F001C0992460
:103A0A000895A0E00199A1E0A03039F4E0E0EC15B6
:103A1A0021F4A0919604A13009F027C0C394E09143
:103A2A005E04EF5FE0935E04852C0E946526E091B8
:103A3A005E040E946D2639F4E1E0EE2EE4E0E093A4
:103A4A007A0486DE11C0E230A0E0FA0769F4EFE0FA
:103A5A00E0935D04EE24E3E0E0937A0479DEE0E2A9
:103A6A008E2EE0E0E0935E0407C0019B03C0E1E014
:103A7A00EC1509F001C0CC240895E0916404F0919A
:103A8A006504E130A0E0FA0719F4E0E2FBE214C0B1
:103A9A00E230A0E0FA0719F4E0EFF9E20DC0E330F2
:103AAA00A0E0FA0719F4E0EFF5E206C0E430A0E07E
:103ABA00FA0769F4E0E5FCE2FA93EA930E943B25EF
:103ACA000E943B250E9495260E949A2609DD0895A8
:103ADA006597E0E0EB87EC87ED87EE87EF87E88B69
:103AEA00E98BEA8B0E94472840E050E000E010E0B2
:103AFA00083CE0E01E0714F00C9465200E949F2603
:103B0A00AB3291F40E94A426A33471F4F801E3576E
:103B1A00FC4FA081A33541F40E94A926A13521F4C6
:103B2A000E94AE26AA3309F046C0F8010E94B326C5
:103B3A00AAE0B0E00E94DD27DF01F8010E94B92661
:103B4A00EA0FFB1FEF87F88BAF85B8891B9724F024
:103B5A00AF85B8891F970CF005C0E1E0F0E00E943C
:103B6A00BF2629C0AF85B8891F9724F0AF85B889C9
:103B7A0052970CF005C0E2E0F0E00E94BF261BC09D
:103B8A00AF85B889529724F0AF85B8895F970CF052
:103B9A0005C0E3E0F0E00E94BF260DC0AF85B889FA
:103BAA00909724F0AF85B889D2970CF004C0E4E06E
:103BBA00F0E00E94BF260E949F26A23441F40E9490
:103BCA00A426A53521F40E94C426A33509F088C08D
:103BDA00F801E556FC4F0E94C926E0937604F801E5
:103BEA00E456FC4F0E94C926E0937704F801E35695
:103BFA00FC4F0E94C926E0937804F801E256FC4F74
:103C0A000E94C926E0937904A0917904A13119F49C
:103C1A00EAE0E0937904A0917604A13130F0E091D2
:103C2A007604F0E03797E0937604A0917704A13107
:103C3A0030F0E0917704F0E03797E0937704F801E9
:103C4A00EF55FC4FA081A13331F4F801EE55FC4F3A
:103C5A00A081A83309F044C0E1E0E0937A04A0917E
:103C6A007804EAE0EA02F001DF01E0917904F0E089
:103C7A00EA0FFB1FE0937F04F0938004A09176047F
:103C8A00E0E1EA02F0013197DF01E0917704F0E028
:103C9A00AE0FBF1FEAE0F0E00E94DD27E093810447
:103CAA00F0938204A0917F04B0918004EA0FFB1F75
:103CBA00E0938304F0938404EBE7F4E0FA93EA9345
:103CCA00E1E3FEE2FA93EA93E0918304F09184043B
:103CDA000E94D0270E941E2884E00E94CD242896A4
:103CEA000E949F26AE3481F40E94A426A53461F472
:103CFA000E94C426A43541F40E94A926A93421F4BD
:103D0A000E94AE26A03509F049C00E94CD2640E0A7
:103D1A0050E0493CE0E05E075CF40E94D22629F4B8
:103D2A000E94DC2611F40E94E5264F5F5F4FF1CF17
:103D3A00ED89FE89E357FC4FA081A23279F50E94F2
:103D4A00ED260E94C926E9F40E94F2260E94C9269D
:103D5A00C1F40E94F7260E94C92699F4ED89FE89CA
:103D6A000E94B92671F4ED89FE89ED56FC4F0E9436
:103D7A00C92639F4ED89FE89EC56FC4F0E94C92602
:103D8A0009F006C0E0E0E0936004E093610406C035
:103D9A00E1E0F0E0E0936004F09361040E949F2662
:103DAA00A43481F40E94A426A53461F40E94C42696
:103DBA00A63541F40E94A926A93421F40E94AE2610
:103DCA00A43409F041C00E94CD260E94FC2640E09E
:103DDA0050E0493CE0E05E075CF40E94D22629F4F8
:103DEA000E94DC2611F40E94E5264F5F5F4FF1CF57
:103DFA000E940C27A081A23239F5ED89FE89E3578A
:103E0A00FC4FA081E0915804EA17A9F40E94ED261C
:103E1A00A081E0915904EA1771F40E94F226A08168
:103E2A00E0915A04EA1739F40E94F726A081E0913A
:103E3A005B04EA1709F003C00E94112705C0E0E0FD
:103E4A00E0938704E09388040E949F26A73481F4B4
:103E5A000E94A426A03561F40E94C426A23541F42A
:103E6A000E94A926AD3421F40E94AE26A33409F09B
:103E7A0024C10E94CD2640E050E0493CE0E05E07C4
:103E8A0044F5FA01A98DBA8DEA0FFB1FE457FC4FDE
:103E9A00A081AC32D9F40E94DC2611F40E94E526F6
:103EAA00AF89B88D129739F4E98DFA8DE40FF51FB1
:103EBA003196EB8BFC8BAF89B88D199739F4E98D64
:103ECA00FA8DE40FF51F3196E98BFA8B4F5F5F4F3E
:103EDA00D4CFE3E0EA93BBD8E4E0EA93B8D8E5E0CC
:103EEA00EA93B5D80E940C270E94C926FF2352F0F4
:103EFA003A9744F4ED89FE893196AB89BC89EA1771
:103F0A00FB0709F481C0ED89FE890E94B326EE837E
:103F1A00AE81A03010F0AA3008F005C0EE81A0E80A
:103F2A00B0E00E9436280E94F7260E94C926EE8336
:103F3A00AE81A03010F0AA3008F005C0EE81A2E8E8
:103F4A00B0E00E9436280E94F2260E94C926EE831B
:103F5A00AE81A03010F0AA3008F005C0EE81A4E8C6
:103F6A00B0E00E9436280E94ED260E94C926EE8300
:103F7A00AE81A03010F0AA3008F005C0EE81A6E8A4
:103F8A00B0E00E943628ED89FE89E357FC4F0E9473
:103F9A00C926EE83AE81A03010F0AA3008F004C022
:103FAA000E945D25EB87FC870E940C270E94C92688
:103FBA00EE83AE81A03010F0AA3008F004C00E944F
:103FCA005D25ED87FE87ED85FE85AAE0B0E00E94BB
:103FDA00DD27AB85BC85EA0FFB1FE987FA87359792
:103FEA00EF83F887A885AA234AF47896EF83F8879F
:103FFA000E9418270E941D270E9424270E94182722
:10400A000E941D270E942427EB89FC89E457FC4F54
:10401A00E081F0E0E0936204F0936304E5E3FEE2FA
:10402A00FA93EA93E0916204F09163040E94D02724
:10403A000E941E2884E00E94FD2426960E942B27B7
:10404A00FF2312F03A970CF038C00E942B27AEE8F3
:10405A00B0E00E943027E357FC4F0E94C926ACE823
:10406A00B0E00E943027E257FC4F0E94C926A2E91D
:10407A00B0E00E943027E157FC4F0E94C926A0E910
:10408A00B0E00E943027E057FC4F0E94C926A6E9FB
:10409A00B0E00E9430270E94B326A4E9B0E00E9453
:1040AA003628AF81B885539744F00E943527F0E04F
:1040BA003197ACE8B0E00E9436280F5F1F4F18CD49
:1040CA0066244424F19A20E030E0293CE0E03E07EF
:1040DA004CF4ABE8B3E0A20FB31FE0E0EC932F5F20
:1040EA003F4FF3CF0E944E286B960895E0E8E09385
:1040FA006100E0E0E0936100EFEFE7B9E2B9E0EFD9
:10410A00E1B9E0E0E5B9EFEFE4B9E0E0EBB9E0EFFF
:10411A00EAB9E0E0E093C000E8E9E093C100E6E034
:10412A00E093C200E0E0E093C500E5E0E093C4005C
:10413A00E0E0E4BDE5E0E5BDE0E0E6BDE7BDE8BD01
:10414A00E1E0E0936E000E94E817EAE0F0E00E94E6
:10415A003A27E6DAE5DAE0EFF9E00E9472260E94F1
:10416A003B25EFE7F0E00E947A26BAD9E0EDF7E0C6
:10417A000E943A27E0EFFDE00E9472260E943B254A
:10418A00EDE2F0E00E947A26ABD9E3E5F4E0FA9397
:10419A00EA93E7E3F0E00E9440270E944727EDE018
:1041AA00F3E0FA93EA93EBE3F0E00E944C270E94D3
:1041BA0086260E948B26E8E5F4E0FA93EA93E2E584
:1041CA00F0E00E944C270E9486260E948B26E0ED92
:1041DA00F7E00E943A270E941A26EF3F79F4AAE8EC
:1041EA00B0E0E0E00E9436280E9409260E94F325EA
:1041FA000E9414260E94FE250E94ED250E944F2748
:10420A00EF3F41F40E943527EF3F21F40E945427E3
:10421A00EF3F09F019C0ACE8B0E0E0E00E943628B0
:10422A00AEE8B0E00E943628A0E9B0E00E94362845
:10423A00A2E9B0E00E943628A4E9B0E00E9436283C
:10424A00A6E9B0E00E943628A8E2B0E00E942A2837
:10425A00EF3F31F4A8E2B0E0E0E00E94362804C063
:10426A00A8E2B0E00E942A28E0939504AAE2B0E00E
:10427A000E942A28EF3F31F4AAE2B0E0E0E00E946F
:10428A00362804C0AAE2B0E00E942A28E0939604E5
:10429A007894E0EFF1E10E9472260E947526E9E126
:1042AA00F0E00E947A261CD90E94DD2586E695E078
:1042BA000197F1F70DDC7724AA2499240E9411278B
:1042CA00F19902C005DCF19A5A92EFE4F0E00E94FB
:1042DA007A260E9486260E9434197FDAEBDA65DB99
:1042EA0090DBCBDBA0918704B0918804119711F081
:1042FA000C942823A0916004B0916104119711F4E1
:10430A00E5E401C0E0E2EA93E3E1F0E00E9472260C
:10431A00E1E0EA93EA930E943419E0917A04E030EA
:10432A0011F00C940622E6E6F4E0FA93EA93ECE341
:10433A00FEE2FA93EA930E941A260E945F260E94DE
:10434A000F260E945F260E9404260E945F260E9472
:10435A00F9250E945F260E94D8250E945F260E94A6
:10436A00CE250E945F2688E113D36C960E94CE2543
:10437A00E09389040E94D825E0938A040E94F925D3
:10438A00E0938B040E940426E0938C040E940F267B
:10439A00E0938D040E941A26E0938E040E9435272A
:1043AA00E0938F04AEE8B0E00E942A28E0939004DC
:1043BA000E944F27E0939104A2E9B0E00E942A28C4
:1043CA00E09392040E945427E0939304A6E9B0E094
:1043DA000E942A28E0939404E0919504A8E2B0E0B0
:1043EA000E943628E0919604AAE2B0E00E9436289C
:1043FA00E6E6F4E00E947A260E9459270E9447279F
:10440A00D0C0A0917A04A130F9F40E94FC260E943F
:10441A009A260E94B527EBE7F4E0FA93EA93E0E3E1
:10442A00F0E0FA93EA93E3E0F0E0FA93EA93E0E04B
:10443A00EA93E2E0EA93E1E0EA930E94BB1970D9B9
:10444A006FD9E0EDF7E0A4C0A0917A04A23011F090
:10445A000C9472220E94FC260E949A260E94B5277A
:10446A00E1E1F3E00E944C270E9459270E94862628
:10447A000E948B260E945E27E2E2F3E0FA93EA9317
:10448A00EDE2F0E00E9464270E948B260E946B27CF
:10449A00E4E2F3E0FA93EA93E5E3F0E00E946427AA
:1044AA000E948B260E946B27E6E2F3E0FA93EA93D6
:1044BA00EDE3F0E00E9464270E948B260E946B279E
:1044CA00E8E2F3E0FA93EA93E5E4F0E00E94642775
:1044DA000E948B260E945E2757C0A0917A04A330BF
:1044EA0089F40E94FC260E949A260E94B527EAE2D5
:1044FA00F3E0FA93EA93ECE1F0E0FA93EA93E3E06B
:10450A00F0E03CC0A0917A04A43069F40E94FC2631
:10451A000E949A260E94B527E3E3F3E00E947127DE
:10452A00E3E0F0E02BC0A0917A04A530B9F40E9430
:10453A00FC260E949A260E94B527EFE3F3E00E9428
:10454A0071270E9459270E9486260E948B26EAE438
:10455A00F3E00E947127E4E0F0E010C0A0917A0431
:10456A00A630F9F40E94FC260E949A260E94B527DA
:10457A00E6E5F3E00E947127E2E0F0E0FA93EA93BD
:10458A000E9486260E948B26CBD8CAD8E8EEF3E092
:10459A00FA93EA930E94B5270E94FC26E0E0E09392
:1045AA007A040E947427A134E0E0BE0719F4E0EF10
:1045BA00FDE10BC00E947427A635E0E0BE0719F0A2
:1045CA000E947427D997E0EFF1E2FA93EA93EFE5B4
:1045DA00F0E00E947226EFE7F0E0FA93EA930E9475
:1045EA009A260E94751AEEE6F4E0FA93EA93E3EA51
:1045FA00FEE2FA93EA93A6E9B0E00E9479270E94C4
:10460A0054270E945F26A2E9B0E00E9479270E94FF
:10461A004F270E945F26AEE8B0E00E9479270E94E9
:10462A0035270E945F2688E1B3D16C96EEE6F4E066
:10463A00FA93EA93E2E2F0E00E944C270E9486266F
:10464A000E948B2616C0EFE6F3E0FA93EA93EEE1B6
:10465A00F0E00E9440270E9486260E948B26E8E707
:10466A00F3E0FA93EA93EFE0F0E00E9464270E94F5
:10467A008B26E0EFF5E1FA93EA93E9E6F0E00E948F
:10468A004C27EFE7F0E00E947A260E94751A18CEAE
:10469A00FFCFE091C000E072E1F3E881E093C60049
:1046AA0021960895EA81EA93F4DFA881B9810E94EC
:1046BA005725239608951A930A93AA81BB811296C5
:1046CA000E941628309729F1AA81BB8114960E946C
:1046DA0016288F01309761F00230E0E01E07C0F023
:1046EA00F80131978F01AA81BB811496ED93FC934F
:1046FA00AA81BB8112960E9457253197AC81A0836B
:10470A00AA81BB810E941628FF2312F00E94572516
:10471A0006C0AA81BB81EFEFFFEFED93FC931981ED
:10472A0008812596089526970E94472810E0AC85AF
:10473A00BD85E0E0F0E0ED93FC93EA89FB893196D0
:10474A00EA8BFB8B3197E4912E2FE03011F40C9415
:10475A00C524E12FE03039F4253211F411E002C00A
:10476A000E947C270CC1E130A9F4253219F40E9479
:10477A007C2704C112E040E000E02D3211F401E090
:10478A00FEC02B3211F44BE2FAC0203211F440E29F
:10479A00F6C002C0E23039F450E013E0203311F4DD
:1047AA000068EDC004C0E33011F00C94C424203337
:1047BA0010F02A3308F007C0AAE05A9F502DE22FC2
:1047CA00E0535E0FDCC0E22FE33649F40E948527EE
:1047DA00E889F989A481AA930E948B27CFC0E3377D
:1047EA0041F40E9485270E9493270E941E251E2FAE
:1047FA000AC0E03761F40E9485270E9493270E942D
:10480A0028251E2F086002600F7730E035C0E43695
:10481A0011F0E93611F4046002C0E53731F4E0E43E
:10482A00FDE2EE83FF8315E00DC0E83511F4086060
:10483A0004C0E83711F00C94C324EAE4FDE2EE83E5
:10484A00FF8314E002FF14C00E9485270E949D275F
:10485A00AB85AA233AF4EA85FB850E94C527EA8735
:10486A00FB874DE2403011F01F5F01C00B7F04C08F
:10487A000E9485270E949D2700FD11C0151778F414
:10488A0007FF08C002FF04C00B7F242F115001C08C
:10489A0020E301C020E20E947C275150EFCF312F44
:1048AA0001FF17C03030A1F003FF06C0EE81FF817F
:1048BA002591EE83FF8305C0AE81BF812D91AE8322
:1048CA00BF830E947C27503009F051503150EACF03
:1048DA004BC020E3EE81FF810E941A28E887F987FE
:1048EA00EE81FF813296EE83FF83E885F985AA85FA
:1048FA00BB85AE17BF0750F02F5FA885B985EA853B
:10490A00FB85EA1BFB0BEA87FB87EFCF2A3328F0EC
:10491A0003FF02C0295F01C0295D04FD1AC02133CB
:10492A0020F4A885B985119709F409C0531710F026
:10493A0000FF01C013C020E207FF0BC020E30061A3
:10494A0002FF07C00B7F4A930E948B27503009F061
:10495A0051500E947C27503009F051503150A8859F
:10496A00B985129708F0B5CF00FF08C0503031F072
:10497A005150E0E2EA930E948B27F8CF10E0DDCE97
:10498A00AC85BD850E9416280E944E28649608951B
:10499A00FF92F82E26970E9449280E94A527309751
:1049AA0019F4EFEFFFEF1FC0DE0116960E94C12730
:1049BA008D010E94A527EE83FF83E0E0E887E9875F
:1049CA00DE011A960E94AC27E0E6F3E2FA93EA9334
:1049DA00FE013A96FA93EA93A6DE9F01AE81BF8161
:1049EA00E0E0EC93F9010E9450282A96FF9008957E
:1049FA00FF92F82E26971A930A93DE0114960E94C4
:104A0A00C1278D01E0E0EC83ED83EE83EF83DE01C5
:104A1A0018960E94AC27E7E5F3E2FA93EA93FE01BF
:104A2A003896FA93EA937FDE198108812896FF90D7
:104A3A000895A991B991EE27FF276D91662311F088
:104A4A003196FBCF0895AA27BB27E991F9910590E2
:104A5A00002011F01196FBCFFD010895FA93EA9315
:104A6A000C94F017FA93EA930C940C18E0E0F0E037
:104A7A00FA93EA930895EC81F0E0FA93EA930C949E
:104A8A001718E12FF0E00895AE81BF81EE27A10F3C
:104A9A00BE1FEC910895FE01E95BFF4F0190F08182
:104AAA00E02D0895ED91FD913196FE93EE930895D0
:104ABA00EE81F0E00895E0918603F0918703E15CCE
:104ACA00F040A6E0B0E00E94D527E458F74F0895D9
:104ADA00E15CF040A6E0B0E00E94D527E458F74F29
:104AEA000895F0E0FA93EA930895FA93EA93EE812F
:104AFA00FF810895FA93EA93EE81EA930C94A2183F
:104B0A00E985FA85FA93EA930E941E25A12FB0E05F
:104B1A00AE17BF070895A985BA85AE0FBF1F0895BE
:104B2A00E885F985FA93EA930895EA93E985EA9381
:104B3A000C943419EA81F0E0E7FDFFEF3896DF01C3
:104B4A00EB81F0E00E94DD270895EB81A8E0EA02FC
:104B5A00F0010895EB81F0E0AD81BE81EA0FFB1F01
:104B6A00ED83FE830895A985BA85EA0FFB1FA1810B
:104B7A000895EC81A8E0EA02F001A885B985AE1B88
:104B8A00BF0BBA93AA93CCCFAE1BBF0BAF83B88728
:104B9A000895A0E8B0E00E942A280895EF5F0E94D5
:104BAA003628E1500895A2E8B0E00E942A28089524
:104BBA00E6E6FDE2FA93EA9380E00E94FD2422965B
:104BCA000895FA93EA9380E00E94FD2422960895BC
:104BDA00A0E8B0E0E0E00E9436280895A2E8B0E03C
:104BEA00E0E00E9436280895A4E8B0E00E942A284E
:104BFA000895A4E8B0E0E0E00E9436280895A6E807
:104C0A00B0E00E942A280895A6E8B0E0E0E00E94F9
:104C1A0036280895A8E8B0E00E942A280895A8E84E
:104C2A00B0E0E0E00E9436280895AAE8B0E00E94C9
:104C3A002A280895E4E6F0E0FA93EA930C94B5275B
:104C4A00FA93EA93E8E5F4E0662777270E941E289C
:104C5A00E0919004FF27662777270E941E28E0919B
:104C6A008F04FF27662777270E941E28E091920467
:104C7A00FF27662777270E941E28E0919104FF27C5
:104C8A00662777270E941E28E0919404FF2766274B
:104C9A0077270E941E28E0919304FF27662777272B
:104CAA000E941E28E0918E04FF27662777270E941C
:104CBA001E28B0CFFF27662777270E941E2808954F
:104CCA000E94951BE8ECF0E0FA93EA930C94B5275E
:104CDA00F0E0E130A0E0FA070895FA93EA93C6CE2D
:104CEA00E5E0F0E0FA93EA930895FA93EA93E7E0AD
:104CFA00F0E0FA93EA930895FA93EA93ECE2F0E08B
:104D0A00F4CFE0E0EA93E1E0EA930895EFEFEA9363
:104D1A000C94BB19E8ECF0E0FA93EA930C94B527EB
:104D2A00E4E1F0E0FA93EA930895E1E0F0E0FA931F
:104D3A00EA930895F801E557FC4FA0810895F80118
:104D4A00E457FC4FA0810895F801E257FC4FA08177
:104D5A000895F801E157FC4FA0810895EF56FC4FE2
:104D6A00E081F0E0F0970895EE56FC4FE081F0E024
:104D7A00F0970895E0936404F09365040895F801A8
:104D8A00E357FC4FA0810895E081F0E0F097089581
:104D9A00F8013496E98FFA8F0895FA01A98DBA8D30
:104DAA00EA0FFB1FE457FC4FA081AA330895EF894D
:104DBA00F88D3196EF8BF88FAF89B88D11970895DA
:104DCA00E98DFA8DE40FF51F3196ED8BFE8B089570
:104DDA00ED89FE89E257FC4F0895ED89FE89E15776
:104DEA00FC4F0895ED89FE89E057FC4F0895E2E0F3
:104DFA00EA930E942C18E3E0EA930E942C18E4E05C
:104E0A00EA930E942C18E5E0EA930C942C18ED8999
:104E1A00FE89E457FC4F0895E1E0F0E0E09387044F
:104E2A00F09388040895AF81B885EAE0F0E0089528
:104E3A000E94FA27A8E8B0E00E943628F4CF0E9420
:104E4A00F527AAE8B0E00E9436280895E989FA8988
:104E5A00E457FC4F99CF0E943628E989FA890895C8
:104E6A00ACE8B0E00E942A280895FA93EA930E94D7
:104E7A00B5270C944918FA93EA93E2E0F0E0FA9322
:104E8A00EA930895E0E0EA93E2E0EA933FCFFA93E7
:104E9A00EA9326CFA0E9B0E00E942A280895A4E95F
:104EAA00B0E00E942A280895E2E0F0E0FA93EA933B
:104EBA000895E4EFF1E0FA93EA930C94B527FA9394
:104ECA00EA93E4E0F0E0FA93EA931BCFECE2F1E034
:104EDA00FA93EA930C94B527FA93EA9321CFA09117
:104EEA006204B091630408950E942A28E3CE2A93AB
:104EFA00ED85FE85FA93EA93E989FA890995089579
:104F0A00E889F9893497E88BF98B0895ED85FE8550
:104F1A00FA93EA93E989FA8909950895A889B989DA
:104F2A0014960E941628EE83FF83FA93EA93089553
:104F3A00A889B98914960E941628EA87FB870895DA
:104F4A00DE011C960E94C1270E94162808950E941D
:104F5A00C1270E941628FA93EA931A930A9308958E
:104F6A00E991F991309639F08DEC9AE00197F1F7D1
:104F7A00A8953197C9F708950024AF0DB01D08957B
:104F8A00F195E195F0400895EE0FFF1FEE0FFF1F18
:104F9A00EE0FFF1F08956F2F660F660B762F089589
:104FAA00FA9FF02DEB9FF00DEA9FE02DF10D089589
:104FBA002AD0F6DF0EF4E4DF08950024112490E1EC
:104FCA00AA0FBB1F001C111C0E1A1F0A18F40E0E82
:104FDA001F1E01C0A1609A9599F7FD01D00108959D
:104FEA0012D0EBDF0EF4CCDF0895E894B7FF04C0CB
:104FFA00A095B09511966894F7FDC2DFDEDFFD013A
:10500A000EF4BEDF0895E894F7FF02C0B9DF689492
:10501A00B7FF06C0A095B095119600F8039400FA60
:10502A000895ED91FC91119708950590F491E02D62
:10503A0008957A936A93FA93EA9308951B2EBF2FE1
:10504A00F12D1A2EAE2FE12D0895F999FECFFF9377
:10505A00FFB7F894A1BDB2BDF89AE0B5FFBFFF91C2
:10506A000895F99B02C0A895FCCF9FB7F894A1BDFB
:10507A00B2BDF89A80B5E81719F0E0BDFA9AF99A24
:10508A009FBF08955A934A933A932A931A930A937D
:10509A0008955D814C813B812A8119810881089597
:00000001FF
