:020000000C945E
:10000200B9170C9400000C9400000C9400000C949E
:1000120000000C9400000C9400000C9400000C945E
:1000220000000C9400000C9400000C9400000C944E
:1000320000000C9400000C9400000C9400000C943E
:1000420000000C9400000C94DE1A0C9400000C9436
:10005200B31A0C9400000C9400000C9400000C9451
:1000620000000C9400000C9400000C9400000C940E
:1000720000000C9400000C9400000000000000003E
:10008200000000000000000000000000000000006E
:10009200000000000000000000000000000000005E
:1000A200000000000000000000000000000000004E
:1000B200000000000000000000000000000000003E
:1000C200000000000000000000000000000000002E
:1000D200000000000000000000000000000000001E
:1000E200000000000000000000000000000000000E
:1000F20000000000000000000000000000000000FE
:1001020000000000000000000000000000000000ED
:1001120000000000000000000000000000000000DD
:1001220000000000000000000000000000000000CD
:1001320000000000000000000000000000000000BD
:1001420000000000000000000000000000000000AD
:10015200000000000000000000000000000000009D
:10016200000000000000000000000000000000008D
:10017200000000000000000000000000000000007D
:10018200000000004F000000000000070007000010
:1001920000000024FF24FF24000000444AFF4A32EA
:1001A200000040231308C4C2000000364955224013
:1001B20080000000050300000000003C42810000B6
:1001C20000000081423C000000000014083E0814B8
:1001D20000000010107C1010000000002818000021
:1001E200000000080808080808000060600000001D
:1001F20000004020100804020000007EFF8181FF01
:100202007E00008082FEFF80800000E2F191919FDB
:100212008E000062C3C9C9FF760000181412FFFFE6
:100222001000006F8F8989F97100007EFF8989F9BA
:100232007200000101F1FD0703000076FF8989FFCA
:10024200760000468F8989FF7E0000006666000006
:100252000000000056360000000000081422410091
:100262000000002424242424000000004122140859
:100272000000000201B109060000006291F1817ED6
:10028200000000FE111111FE000000FF898989762D
:100292000000007E81818142000000FF8181423C9A
:1002A200000000FF89898981000000FF0909090116
:1002B2000000007E81919172000000FF101010FF7B
:1002C2000000000081FF81000000004080817F016A
:1002D200000000FF18244281000000FF808080801F
:1002E200000000FF020C02FF000000FF040810FFE4
:1002F2000000007E8181817E000000FF1111110E3D
:1003020000007E81A141BE00000000FF1131518E2C
:1003120000000086898989710000000101FF010146
:100322000000007F8080807F0000003F4080403FCF
:100332000000003FC060C03F000000E3140814E367
:100342000000000708F00807000000C1A19189879A
:10035200000000FF8181000000000015167C1615C8
:1003620000000041417F000000000004020102047D
:100372000000004040404040000000010204000034
:100382000000006094949478000000FF88888870D0
:100392000000007884848400000000788484887FD0
:1003A200000000789494945800000010FE1101029D
:1003B2000000000C9292927E000000FF100808F0EC
:1003C2000000000084FD80000000006080807D004D
:1003D200000000FF304884000000000081FF800020
:1003E200000000FC043804F8000000FC080404F8D3
:1003F2000000007884848478000000FC141414083F
:1004020000000008141418FC000000FC0804040892
:100412000000008894949460000000047F8480406F
:100422000000007C808040FC0000003C4080403C9A
:100432000000003EC060C03E00000042241824427A
:10044200000000068888887E000000C4A4948C8482
:1004520000000008768100000000000000FF00009C
:10046200000000817608000000000008082A1C082D
:10047200000000081C2A08080000007C8281827C9F
:10048200000000000000000000000000000000006A
:10049200000000000000000000000000000000005A
:1004A200000000000000000000000000000000004A
:1004B200000000000000000000000000000000003A
:1008720000000000000000000000C1C1C1C1000072
:10088200C2C2FEFE0100C3C31F1F0100C4C4FCFCA0
:100892000100C5C5C5C50101C6BDBFBE0101C7C7AF
:1008A200C0C00100C88284830101C9C9FDFD0100E5
:1008B200CA8587860101CB888A890101CC8BCC8BC2
:1008C2000101CD8CCD8C0101CE11CE110101CFCF12
:1008D20013130100D0D08F8F0100D1D11B1B010057
:1008E200D2D291910100D39294930101D49597961B
:1008F2000101D5179A990101D69B9D9C0101D7D779
:10090200D7D70000D8D89E9E0101D9D99F9F010157
:10091200DAA0A2A10101DBA3A5A40101DCDCDCDCDD
:100922000000DDA6A8A70101DEA9ABAA0101DFAC88
:10093200AEAD0101E0E0E0E00000E1AFB1B00101E5
:10094200E2E2E2E20000E3B2B4B30101E4B5B7B619
:100952000101E5B8BAB90101E6E6BCBC0100E7E76E
:10096200E7E70000E8E8E8E80000E9E9E9E9000073
:10097200EAEAEAEA0000EBEBEBEB0000ECBDBFBEFB
:100982000101EDBDBFBE0101EEEEEEEE0000EFEFA4
:10099200EFEF0000F0F0F0F00000F1F1F1F10000F3
:1009A200F2F2F2F20000F3F3F3F30000F5F5F5F5DD
:1009B2000000F6F6F6F60000F7F7F7F70000F8F891
:1009C200F8F80000FBF9FBFA0101BBBBF4F40100EB
:1009D200811C1E1D010190181A1901019814161587
:1009E20001018E8E121201008D108D10010100C0C6
:1009F200F030381818181898B0B030303060606095
:100A0200606060C0C0C0C0C0C0C080808080800004
:100A120000000000000000000000000000000000D4
:100A220000000000000000000000000000000000C4
:100A320000000000000000000000000000000000B4
:100A420000000000000000000000000000000000A4
:100A52000000000000000000000000000000000094
:100A6200000000000000000000000000000000FF85
:100A7200FF00000C18F0E70FFD0F07000000000058
:100A820000000000000000000000010101818383DA
:100A920083C3E767E6C6060E0C0C0C0C0C1818187C
:100AA2007870E0C00000000000E0E00000000000FC
:100AB20080C0E06000E0E0606060606060E0C00014
:100AC200000080C06060C080000000E0E060606004
:100AD200606060C08000000080C06060C080000074
:100AE200000080C06060606060C08000000000FFA5
:100AF200FF00000000FFFF00FF00000000000000F8
:100B0200000000000080C06030188CC663311808F5
:100B120008090B0B0B090808080808081C3E363E9A
:100B22001C00FFFF0000000000FFFF70F88C8E0722
:100B32000301000000FFFFE0E0E06060607F3F0033
:100B4200FEFF616060606061FFFE00FFFF00000069
:100B5200000000FFFF00FEFF616060606061FFFE59
:100B620000FFFF000000000000000100000000FF85
:100B7200FF00000000FFFF003F30303030303030E7
:100B820030180CC6E331180C060301000000000007
:100B92000000000000000000000000000000000053
:100BA2000000FFFF00000000003F3F0000010307BC
:100BB2000E1C3830003F3F00000103070E3C380096
:100BC2003F3F0000000000003F3F003F3F30303019
:100BD2003030301F0F003F3F0000000000003F3F59
:100BE200000F1F303030303030381800000000FF66
:100BF200FF00000000FFFF00FF03030303030303E2
:100C020003060C193366CC983060C08000000000E7
:100C120000000000000000000000000000000000D2
:100C22000000FFFF000000000000000000000000C4
:100C320000000000000000000000000000000000B2
:100C420000000000000000000000000000000000A2
:100C52000000000000000000000000000000000092
:100C6200000000000000000000000000000000FF83
:100C7200FF00000000FFFF00FF0000000000000076
:100C8200000000000000000103060C193366444412
:100C920044E4F4B4F4E40404040404040E1F1B1F2B
:100CA2000E00FFFF000000FC0000000000F804043A
:100CB20004F8000C040404FC00F0888488F000802E
:100CC200808000FC8484040400F80404040800FC0E
:100CD200000000FC00F0888488F000FC040404F8A2
:100CE20000F8040404F800FC44C44438000000FF87
:100CF200FF00000603011C3E373E1C0000000000FE
:100D02000080808080C0C0C0C0C0E06060603030C1
:100D1200303031391918181C0C0C0C0C0E06060652
:100D2200070301000000000F080808080007080870
:100D32000807000608080807000F0000000F00005F
:100D42000000000F08080808000708080804000748
:100D520008080807000F0000000F000F0808080726
:100D6200000708080807000F0000010E000000013C
:100D720007060E0C0C0C0C0C0606060603030303F6
:100D82000301010101010000000000000000000059
:100D92000000000000000000000000000000000051
:100DA2000000000000000000000000000000000041
:100DB2000000000000000000000000000000000031
:100DC2000000000000000000000000000000000021
:100DD2000000000000000000000000000000000011
:100DE2000000000000000000000000000000000001
:100DF20000000000000000000000000000000000F1
:100E020000000000000000000000000000000000E0
:100E120000000000000000000000000000000000D0
:100E220000000000000000000000000000000000C0
:100E320000000000000000000000000000000000B0
:100E420000000000000000000000000000000000A0
:100E52000000000000000000000000000000000090
:100E62000000000000000000000000000000000080
:100E7200000000C0E0F0F0F8F8F8F8F8FCFCFCFC28
:100E8200FCFCFCFCFCFCFCFCFCFCFCFCFCFCFCFCA0
:100E9200F8F8F8F8F8F0E0E0C00000000000000008
:100EA2000000000000000000000000000000000040
:100EB2000000000000000000000000000000000030
:100EC2000000000000000000000000000000000020
:100ED2000000000000000000000000000000000010
:100EE2000000000000000000000000000000000000
:100EF2000000FEFFFF0301030303030303030303D5
:100F02000303030303FFFF030301030303030303B9
:100F12000303030303030307FFFE000000000000B6
:100F220000000000000000000000000000000000BF
:100F320000000000000000000000000000000000AF
:100F4200000000000000000000000000000000009F
:100F5200000000000000000000000000000000008F
:100F6200000000000000000000000000000000007F
:100F72000000FFFFFFC0C0C0C0C0C0C0C0C0C0C032
:100F8200C0C0C0C0E0FFFFE0C0C0C0E0D0C8C4C461
:100F9200C4C4C8D0E0C0E0F0FFFF000000000000C1
:100FA200000000000000000000000000000000003F
:100FB200000000000000000000000000000000002F
:100FC200000000000000000000000000000000001F
:100FD200000000000000000000000000000000000F
:100FE20000000000000000000000000000000000FF
:100FF2000000FFFFFFFFFFFFFFFFFFFFFFFFFFFFFD
:10100200FFFFFFFFFFFFFFFFFFFFFFFFFFFFFFFFEE
:10101200FFFFFFFFFFFFFFFFFFFF000000000000D8
:1010220000000000000000000000000000000000BE
:1010320000000000000000000000000000000000AE
:10104200000000000000000000000000000000009E
:10105200000000000000000000000000000000008E
:10106200000000000000000000000000000000007E
:1010720000003FFFFFE1E1E1E1FFFFFFF9D9D9D92C
:10108200D9D9D9D9D9D9D9D9D9D9D9D9D9D9C9FBBC
:10109200FFFFFFE1E1C1E1F7FF3F000000000000B8
:1010A200000000000000000000000000000000003E
:1010B200000000000000000000000000000000002E
:1010C200000000000000000000000000000000001E
:1010D200000000000000000000000000000000000E
:1010E20000000000000000000000000000000000FE
:1010F200000000001F3F3F3F3F3F3F000000000055
:1011020000000000000000000000000000000000DD
:101112001F3F3F3F3F3F3F1F000000000000000015
:1011220000000000000000000000000000000000BD
:1011320000000000000000000000000000000000AD
:10114200000000000000000000000000000000009D
:10115200000000000000000000000000000000008D
:1014F200000000F884C202020202FE020202C2FEE0
:1015020002020202C4F80000000000000000000015
:1015120000000000000000000000000000000000C9
:1015220000000000000000000000000000000000B9
:1015320000000000000000000000000000000000A9
:101542000000000000000000000000000000000099
:101552000000000000000000000000000000000089
:101562000000000000000000000000000000000079
:10157200001E1F7FFFFD7C1C1C1C1F1C1C1C1F1F30
:101582007CFCFC7C1F0F000000000000000000003B
:101592000000000000000000000000000000000049
:1015A2000000000000000000000000000000000039
:1015B2000000000000000000000000000000000029
:1015C2000000000000000000000000000000000019
:10195200000000000000000000000038FC0202024B
:101962000202060606BAFABA0202FC3800000000B9
:101972000000000000000000000000000000000065
:101982000000000000000000000000000000000055
:101992000000000000000000000000000000000045
:1019A2000000000000000000000000000000000035
:1019B2000000000000000000000000000000000025
:1019C2000000000000000000000000000000000015
:1019D2000000000000000000000000003F3EFEF298
:1019E200F23E3E3E3F3FF3F3FF3E3F000000000069
:1019F20000000000000000000000000000000000E5
:101A020000000000000000000000000000000000D4
:101A120000000000000000000000000000000000C4
:101A220000000000000000000000000000000000B4
:101CF200000000F884C282DAFAE2FE020202C2FEA8
:101D020002020202C4F8000000000000000000000D
:101D120000000000000000000000000000000000C1
:101D220000000000000000000000000000000000B1
:101D320000000000000000000000000000000000A1
:101D42000000000000000000000000000000000091
:101D52000000000000000000000000000000000081
:101D62000000000000000000000000000000000071
:101D7200001E1F7FFFFD7C1F1F1F1F1C1C1C1F1F1F
:101D82007CFCFC7C1F0F0000000000000000000033
:101D92000000000000000000000000000000000041
:101DA2000000000000000000000000000000000031
:101DB2000000000000000000000000000000000021
:101DC2000000000000000000000000000000000011
:101DD2000000000000000000000000000000000001
:101DE20000000000000000000000000000000000F1
:101DF20000000000000000000000000000000000E1
:101E020000000000000000000000000000000000D0
:101E120000000000000000000000000000000000C0
:101E220000000000000000000000000000000000B0
:101E320000000000000000000000000000000000A0
:101E42000000000000000000000000000000E010A0
:101E520090908000F0909090600060909010000050
:101E620000002070F8702000807800FC0000000064
:101E72000000000000000000000000000000000060
:101E82000000000000000000000000000000000050
:101E92000000000000000000000000000000000040
:101EA2000000000000000000000000000000000030
:101EB2000000000000000000000000000000000020
:101EC2000000000000000000000000000000030409
:101ED20004040300070000000000040404030000DF
:101EE2000010141414141209040A35180800000012
:101EF20000000000000000000000000000000000E0
:101F020000000000000000000000000000000000CF
:101F120000000000000000000000000000000000BF
:101F220000000000000000000000000000000000AF
:102242000000000000000000000000000000E0109C
:1022520090908000F090909060006090901000004C
:102262000000000000000000807800FC0000000078
:10227200000000000000000000000000000000005C
:10228200000000000000000000000000000000004C
:10229200000000000000000000000000000000003C
:1022A200000000000000000000000000000000002C
:1022B200000000000000000000000000000000001C
:1022C2000000000000000000000000000000030405
:1022D20004040300070000000000040404030000DB
:1022E2000010141414141209040A3518080000000E
:1022F20000000000000000000000000000000000DC
:1023020000000000000000000000000000000000CB
:1023120000000000000000000000000000000000BB
:1023220000000000000000000000000000000000AB
:1025F2000000000000808000E0E000F8F800FEFE2D
:1026020000000000000000000000000000000000C8
:1026120000000000000000000000000000000000B8
:1026220000000000000000000000000000000000A8
:102632000000000000000000000000000000000098
:102642000000000000000000000000000000000088
:102652000000000000000000000000000000000078
:102662000000000000000000000000000000000662
:10267200060007070007070007070007070007070C
:102682000000000000000000000000000000000048
:102692000000000000000000000000000000000038
:1026A2000000000000000000000000000000000028
:1026B2000000000000000000000000000000000018
:1029F2000000000000808000E0E000000000000015
:102A020000000000000000000000000000000000C4
:102A120000000000000000000000000000000000B4
:102A220000000000000000000000000000000000A4
:102A32000000000000000000000000000000000094
:102A42000000000000000000000000000000000084
:102A52000000000000000000000000000000000074
:102A6200000000000000000000000000000000065E
:102A72000600070700070700070700000000000024
:102A82000000000000000000000000000000000044
:102A92000000000000000000000000000000000034
:102AA2000000000000000000000000000000000024
:102AB2000000000000000000000000000000000014
:102AC2000000000000000000000000000000000004
:102AD20000000000000000000000000000000000F4
:102AE20000000000000000000000000000000000E4
:102AF20000000000000000000000000000000000D4
:102B020000000000000000000000000000000000C3
:102B120000000000000000000000000000000000B3
:102B220000000000000000000000000000000000A3
:102B32000000000000000000000000000000000093
:102B42000000000000000000000000000000000083
:102B52000000000000000000000000000000000073
:102B62000000000000000000000000000000000063
:102B72000000000000000000000000000000000053
:102B82000000000000000000000000000000000043
:102B9200000000000000000000000000000000062D
:102BA200060007070000000000000000000000000F
:102BB2000000000000000000000000000000000013
:102BC2000000000000000000000000000000000003
:102BD20000000000000000000000000000000000F3
:102BE20000000000000000000000000000000000E3
:102BF20000000000000000000000000000000000D3
:102C020000000000000000000000000000000000C2
:102C120000000000000000000000000000000000B2
:102C220000000000000000000000000000000000A2
:102C32000000000000000000000000000000000092
:102C42000000000000000000000000000000000082
:102C52000000000000000000000000000000000072
:102C62000000000000000000000000000000000062
:102C72000000000000000000000000000000000052
:102C82000000000000000000000000000000000042
:102C92000000000000000000000000000000000032
:102CA2000000000000000000000000000000000022
:102CB2000000000000000000000000000000000012
:102CC20000000000000000000000000000000006FC
:102CD20006000404040404040404040404040404B4
:102CE20000000000000000000000000000000000E2
:102CF20000000000000000000000000000000000D2
:102D020000000000000000000000000000000000C1
:102D120000000000000000000000000000000000B1
:102D220000000000000000000000000000000000A1
:102D3200000000000000000000000000000010275A
:102D4200E80364000A000100001000011000010005
:102D5200C10053495455383838380000000020006B
:102D62000020000000004154245454444556494474
:102D72003F0A0D0041542B4353510A0D0041542484
:102D820054544E455449503F0A0D00415424545462
:102D92004750535152593D31302C300A0D004154A5
:102DA200245454534E444D473D342C222424424C47
:102DB20025732C2564256425642564323025642519
:102DC200642C2564256425642564256425642C52BD
:102DD200322C25642C25643A58582323220D0A00EC
:102DE2004154245454534E444D473D342C22242400
:102DF200424C25732C2564256425642564323025D4
:102E02006425642C25642564256425642564256471
:102E12002C53322C313233342C25643A5858232324
:102E2200220D0A00525554413A0020202020202031
:102E32000050256400256300425553005645525FF9
:102E4200302E392E3000256425643A256425643AF3
:102E52002564256400494E4943494F204445205387
:102E62004553494F4E002A0046494E20525554417F
:102E720000494E4943494F20525554410020484190
:102E82002053414C49444F0044454C20534953542C
:102E9200454D41004E4543455349544120494E4911
:102EA20043494152204A4F524E414441004D454E02
:102EB20053414A453A003230256425642D25642564
:102EC200642D256425640050616E74616C6C610030
:102ED2004E6F204175746F72697A616461000100FE
:102EE2002D4E414E00494E46000001009903522DDD
:102EF20004000605542D04000B05582D060000039E
:102F0200262E070006032C2E04000D033A2E0A007B
:102F120011033E2E11001B03572E02002C03682EB4
:102F220002002E03682E02003003682E02003203D4
:102F3200682E090034036A2E0C003D03732E0B0029
:102F420049037F2E0C0054038A2E19006003962E2B
:102F520009007903AF2E09008203C92E0E008B03EC
:102F6200D22E0C0003005C2D01004C05E02E000067
:102F7200F894EE27EFBBF1E0F5BFE5BFF8E1A895C5
:102F8200A4B7A77FA4BFF0936000E09360008DE038
:102F9200A2E0BB27ED938A95E9F780E098E0A0E0F4
:102FA200B1E0ED930197E9F7ECEEFEE285919591A0
:102FB200009761F0A591B59105901590BF01F001C0
:102FC20005900D920197E1F7FB01F0CFE0E0EEBB37
:102FD200EFEFEDBFE8E0EEBFC0E0D3E00C94D2200B
:102FE2005F9A87E38A95F1F75F9887E38A95F1F70D
:102FF2000895169A179A5E985D98EFE3E8B9F0DFA4
:1030020008951A935E985D98A981BA81A034E0E090
:10301200BE0720F4169A1798198107C0179A1698B6
:10302200E981FA81E054F0401E2FE12FE064EF774E
:103032001E2F18B9D5DF18813BC01A935E985D9890
:10304200E981E86BEF7B1E2F18B9CADF188130C007
:10305200EA81FB810E94FE25E881F9810E94022615
:10306200249608955E9A5D98E881E8B98DED90E026
:103072000197F1F7B5DF219608951A930A930E94FA
:1030820006260E940B26E0E4F0E0FA93EA930E94FF
:103092000B26169A00E010E00134E0E01E0734F43B
:1030A200E0E0EA93DFDF0F5F1F4FF6CF198108815F
:1030B200239608951A930A9300E010E00830E0E0A6
:1030C2001E072CF40A93D9DF0F5F1F4FF7CF099128
:1030D200199108951A93EB81FC810E94FE25E981E2
:1030E200FA810E94022610E0183080F4ED81FE8100
:1030F2000E94AD28DF010E941126EA0FFB1FE4584F
:10310200FF4FE491EA93AEDF1F5FEECF188141C11A
:103112000E942D2920E010E0EC811E1700F500E04E
:103122000830D8F40E941426F0E0F595E795EC9368
:10313200ED81E1703E2F303021F00E941426E068CC
:10314200EC932F5FEC81E21731F4ED81F0E0F5951D
:10315200E795ED8320E00F5FE3CF1F5FDDCF0E9495
:10316200342928960895EF9721970E942D290E94CD
:103172001B260E94FE25FE01EB5BFF4F0190F081B2
:10318200E02D0E94022610E0183008F50E94112658
:10319200BF010E94AD28DE011496EA0FFB1FFA93CD
:1031A200EA93FE01E55BFF4F0190F081E02D0E9462
:1031B200AD28E60FF71FE458FF4FE491EA93FE01B2
:1031C200E95BFF4FE081EA93A3DF1F5FDDCF00E001
:1031D200FE01EC5BFF4FE0810E1710F00C944119D9
:1031E20010E0183010F00C94331930E0FE01EC5B63
:1031F200FF4FE0813E17A0F5E32FF0E0DE01A95B6F
:10320200BF4F0D90BC91A02DEA0FFB1FBF01DE0145
:10321200AC5BBF4FAC91BB270E9411260E94C12814
:10322200DB01AE0FBF1FA034E0E0BE0749F4E0E4CB
:10323200F0E0FA93EA930E941B26FA93EA9308DFDE
:103242000E9411260E94AD28DE011496AE0FBF1F08
:10325200EE27A00FBE1FEC91EA9304DF3F5FC6CFBB
:103262001F5FBFCF0E941B26FA93EA93DE01A95B80
:10327200BF4F0E942226FA93EA93EADE0F5FA8CF9D
:103282000E943429EF962C960895A981A13011F05D
:103292000C94C2190E942826E138A0E0FA0711F422
:1032A200EAEF17C0E039A0E0FA0711F4EBEF11C022
:1032B200E839A0E0FA0711F4ECEF0BC0EE38A0E019
:1032C200FA0711F4EDEF05C0ED38A0E0FA0711F4AA
:1032D200EEEFEE83AE81A13CB0F0A0919903B091E4
:1032E2009A03A13CE0E0BE0774F00E942B263596BB
:1032F200E491E03041F00E9428260E94382634965C
:10330200E491E03009F417C00E942B26DF01E0911E
:103312009B03F0E03196EA0FFB1FE4910E944126E5
:10332200E0919C030E944126E0919D030E94412668
:10333200D1DEE2E001C0E0E0E0939B03AE81A13C7C
:1033420058F00E9428260E943826DF01E0919B0354
:103352000E944526E49101C0EE81F0E00E944926D8
:103362000E9449260E944E260E942826E093990335
:10337200F0939A03EC81E0939C03EA81E0939D032E
:1033820008C00E9428260E9449260E9449260E94BF
:103392004E26279608951A930A9310E000E00E94A1
:1033A200542618F4AC81A03009F029C00E941126DD
:1033B2000E945F26EC91EA930E9464260E94642692
:1033C200E0E00E9469260E946E26AF81B885EA0F6E
:1033D200FB1FEF83F8870E947926A0E8B0E00E94E5
:1033E2000729EA1BFB0BAF81B885EA17FB072CF410
:1033F200E0E0EF83E8870E947E261F5FD0CF0E9425
:10340200542618F4AC81A13009F075C00E9411262F
:103412000E945F26AC91A13E21F40E948726A73C20
:1034220009F002C009EF29C00E9411260E945F26FE
:10343200AC91A13E21F40E948726A33C09F002C070
:1034420007EE1BC00E9411260E945F26AC91A13E8E
:1034520021F40E948726A23C09F002C008EE0DC0AA
:103462000E9411260E945F26AC91A13E21F40E9487
:103472008726A53C09F001C009EE003079F00A93D5
:103482000E948D26E1E00E9469261E5F0E94792635
:10349200AF81B8850E94982600E01CC00E941126C8
:1034A2000E945F26EC91EA930E948D26E9850E9494
:1034B20069260E9411260E945F26AC91A03219F45F
:1034C2000E946E2602C00E947926AF81B8850E94B2
:1034D20098261F5F0E9479263196AF81B885AE1774
:1034E200BF0744F40E947926A0E8B0E00E94982623
:1034F2000E947E2684CFE1ECF0E0E0939903F09302
:103502009A03198108812B9608950E942D29088516
:103512001985EC81FD81E017F10700F12A853B85D1
:10352200EE81FF81E217F307B0F03A932A931A93E0
:103532000A938EDDA0E8A09FF001A19FF00DE20F9B
:10354200F31FAC85BD85EA0FFB1FE491EA938ADD88
:103552002F5F3F4FE5CF0F5F1F4FDBCF0E94342914
:103562002E960895EA93FA93EFB7EA931A930A9381
:103572001091C0000091C600E091C000E07811F403
:10358200F19801C0F19AE12FEC7181F4E62D639478
:10359200F0E0E256FC4F0083E8ECE61509F46624FD
:1035A2008394E8ECE81511F48824F09A09911991B2
:1035B200E991EFBFF991E99118950A921A92FA925C
:1035C2006A937A938A939A93AA93BA93EA93FA9311
:1035D200EFB7EA93E6E0E6BDAAE3B5E00E94222651
:1035E200A0913A05B0913B059B9711F00C94961B64
:1035F2000E949D260E94A226E0E0E0933A05E09315
:103602003B050E949D26E13021F40E94A726E1306D
:1036120009F002C00E94AC260E949D26E13021F4EE
:103622000E94A726E23009F002C00E94B5260E943D
:103632009D26E13021F40E94A726E33009F004C060
:10364200EFE7FDE20E94BE260E949D26E13021F4B2
:103652000E94A726E43009F004C0EDE8FDE20E94D2
:10366200BE260E949D26EA3010F40C94961B0E94FE
:10367200C5260E94A7260E94A2260E94A726E630FF
:1036820010F40C94961B0E94CB260E94D1260E9415
:10369200A2260E94D126EA3010F40C94961B0E94B6
:1036A200D6260E94DC260E94A2260E94DC26E63054
:1036B200E0F10E94E1260E94E7260E94A2260E94D3
:1036C200E726EA3090F10E94EC260E94F2260E9440
:1036D200A2260E94F226E23021F40E94E726E3307D
:1036E20009F013C00E94DC26E53021F40E94D126A5
:1036F200E93009F00AC00E94A726E53021F40E94B1
:103702009D26E93009F001C001C00FC0AAE8B0E06F
:10371200E0E00E941A290E94EC260E94E1260E9403
:10372200D6260E94CB260E94C526E991EFBFF991C9
:10373200E991B991A9919991899179916991F990B8
:103742001990099018955C9A0E94F7265C980E943D
:10375200F72608951A93E981F0E0E054F0401E2F15
:10376200113010F0153608F002C0E12F01C0E0E080
:103772001881229608957A92EDDFE0934A05E0EAF5
:10378200FDE20E94FD260E943727E09141050E943A
:1037920037270E94D1260E943727E0913F050E94D9
:1037A20037270E949D260E943727E0914A050E94F2
:1037B2003727E09110050E9437278CE30E94C82525
:1037C200EE960895E2EEFDE20E94FD260E94372762
:1037D200E09141050E9437270E94D1260E94372797
:1037E200E0913F050E9437270E949D260E943727BD
:1037F200E0914B050E94372788E30E94C825EA968C
:103802000895A0E00499A1E0A03019F4E0E0E915E0
:1038120009F061C0E2E0E0932F05E0911105EF5F4E
:10382200E0931105E1E09E2E0E943D27E0911105F3
:103832000E944527D9F4E1E0E0934B05C3DFE1E0C4
:10384200E0931205E0EFF9E10E944A270E944D271A
:10385200E3E2F0E00E94522758DEE0E0F3E00E944B
:1038620059270E945E270E94632734C0E230A0E0FD
:10387200FA0781F5E0EFF1E10E944A270E944D2705
:10388200E9E1F0E00E94522740DE0E946727E093C0
:103892004B05E5E0E0932F0595DF0E946727E09353
:1038A2001005E0E2E71509F066DFE0E27E2EEA931A
:1038B200EFE4F0E00E9452270E945E27E6DCE6E099
:1038C200F3E00E9459270E945E270E946327E0E0EE
:1038D200E093110507C0049B03C0E1E0E91509F07C
:1038E20001C099240895A0E00399A1E0A03059F401
:1038F200E0E0EC1541F4A0911005A03021F4A09174
:103902004B05A13009F015C0E0911205EF5FE0937D
:10391200120519DFE1E0CE2EA0911205AD3010F0B4
:10392200AF3009F403C0E1E0E09312050E946C2776
:1039320007C0039B03C0E1E0EC1509F001C0CC24F1
:10394200E09112050E94452711F4E1E447C0E230FC
:10395200A0E0FA0711F4E2E441C0E330A0E0FA0784
:1039620011F4E3E43BC0E430A0E0FA0711F4E4E42C
:1039720035C0E530A0E0FA0711F4E5E42FC0E630E7
:10398200A0E0FA0711F4E6E429C0E730A0E0FA0764
:1039920011F4E7E423C0E830A0E0FA0711F4E8E408
:1039A2001DC0E930A0E0FA0711F4E9E417C0EA30DB
:1039B200A0E0FA0711F4EAE411C0EB30A0E0FA0744
:1039C20011F4EBE40BC0EC30A0E0FA0711F4ECE4E4
:1039D20005C0EF30A0E0FA0711F4E0E2AE2E089540
:1039E200A0E00299A1E0A03059F4E0E0EB1541F427
:1039F200A0911005A03021F4A0914B05A13009F04F
:103A020015C0E0911205E150E09312059CDEE1E061
:103A1200BE2EA0911205A03011F4AF3009F403C0FC
:103A2200ECE0E09312050E946C2707C0029B03C0E2
:103A3200E1E0EB1509F001C0BB240895A0E0019973
:103A4200A1E0A03039F4E0E0EE1521F4A0914B059D
:103A5200A13009F028C0E394E0911305EF5FE093F1
:103A620013057A2C0E943D27E09113050E944527F9
:103A720041F4E1E0E0931005E4E0E0932F057BDE02
:103A820011C0E230A0E0FA0769F40E946727E093D0
:103A92001005E3E0E0932F056EDEE0E27E2EE0E02B
:103AA200E093130507C0019B03C0E1E0EE1509F0A6
:103AB20001C0EE240895E0911905F0911A05E13054
:103AC200A0E0FA0719F4E0E2FBE214C0E230A0E061
:103AD200FA0719F4E0EFF9E20DC0E330A0E0FA07CB
:103AE20019F4E0EFF5E206C0E430A0E0FA0769F469
:103AF200E0E5FCE2FA93EA930E9406260E9406267B
:103B02000E9472270E94772700DD08956597E0E002
:103B1200EB87EC87ED87EE87EF87E88BE98BEA8B03
:103B22000E942B2940E050E000E010E0083CE0E079
:103B32001E0714F00C94BE200E947C27A432B1F41C
:103B42000E948127A43291F40E948627A43571F441
:103B52000E948B27A83751F40E949027A43731F492
:103B6200F801ED55FC4FA081AC3209F02EC044247F
:103B7200E0EAE41590F0E42DF0E0BF01EA59FB4FD2
:103B82000F01D8011696FB01EA0FFB1FE256FC4F0C
:103B9200E081D001EC9343940BC0E1E03E2ED801CA
:103BA2001696E42D0E944526E256FC4FACE2A08315
:103BB200D8011696E42D0E944526E256FC4FA081BC
:103BC200AC32B1F6E7E0E0932F050E947C27AB32DE
:103BD20081F40E948127A33461F40E948627A335D1
:103BE20041F40E948B27A13521F40E949027AA3329
:103BF20009F046C0F8010E949527AAE0B0E00E94B1
:103C0200C128DF01F8010E949B27EA0FFB1FEF8703
:103C1200F88BAF85B8891B9724F0AF85B8891F97B9
:103C22000CF005C0E1E0F0E00E94A12729C0AF85B9
:103C3200B8891F9724F0AF85B88952970CF005C058
:103C4200E2E0F0E00E94A1271BC0AF85B88952973D
:103C520024F0AF85B8895F970CF005C0E3E0F0E08F
:103C62000E94A1270DC0AF85B889909724F0AF8537
:103C7200B889D2970CF004C0E4E0F0E00E94A127DA
:103C82000E947C27A23441F40E948127A53521F4A9
:103C92000E948627A33509F087C0F801E255FC4F40
:103CA2000E94A627E0932B05F801E155FC4F0E94E4
:103CB200A627E0932C05F801E055FC4F0E94A627A9
:103CC200E0932D05F801EF54FC4F0E94A627E093E4
:103CD2002E05A0912E05A13119F4EAE0E0932E05FC
:103CE200A0912B05A13130F0E0912B05F0E0379740
:103CF200E0932B05A0912C05A13130F0E0912C0529
:103D0200F0E03797E0932C05F801EC54FC4FA081CA
:103D1200A13331F4F801EB54FC4FA081A83309F030
:103D220043C0E1E0E0932F05A0912D05EAE0EA9F70
:103D3200F001DF01E0912E050E944526E093340553
:103D4200F0933505A0912B05E0E1EA9FF001319750
:103D5200DF01E0912C05F0E0AE0FBF1FEAE0F0E0DA
:103D62000E94C128E0933605F0933705A0913405EF
:103D7200B0913505EA0FFB1FE0933805F093390542
:103D8200E0E3F5E0FA93EA93E3E3FEE2FA93EA93DF
:103D9200E0913805F09139050E94B4280E94022969
:103DA20084E00E94982528960E947C27AE3481F4F4
:103DB2000E948127A53461F40E948627A43541F42C
:103DC2000E948B27A93421F40E949027A03509F084
:103DD20049C00E94AA2740E050E0493CE0E05E076B
:103DE2005CF40E94AF2729F40E94B92711F40E94C3
:103DF200C2274F5F5F4FF1CFED89FE89E056FC4F3E
:103E0200A081A23279F50E94CA270E94A627E9F46E
:103E12000E94CF270E94A627C1F40E94D4270E94A5
:103E2200A62799F4ED89FE890E949B2771F4ED89FA
:103E3200FE89EA55FC4F0E94A62739F4ED89FE89D6
:103E4200E955FC4F0E94A62709F006C0E0E0E09386
:103E52001505E093160506C0E1E0F0E0E0931505D4
:103E6200F09316050E947C27A43481F40E948127D6
:103E7200A53461F40E948627A63541F40E948B275F
:103E8200A93421F40E949027A43409F03AC00E9478
:103E9200AA270E94D92740E050E0493CE0E05E07B3
:103EA2005CF40E94AF2729F40E94B92711F40E9402
:103EB200C2274F5F5F4FF1CF0E94E927A081A23254
:103EC20001F5ED89FE89E056FC4FA081E0910B05DA
:103ED200EA1789F40E94CA27A081E0910C05EA172B
:103EE20051F40E94CF27A081E0910D05EA1719F441
:103EF2000E94D427A081E1E0F0E0E0933C05F0933A
:103F02003D050E947C27A73481F40E948127A035B9
:103F120061F40E948627A23541F40E948B27AD34BA
:103F220021F40E949027A33409F024C10E94AA27F9
:103F320040E050E0493CE0E05E0744F5FA01A98D1B
:103F4200BA8DEA0FFB1FE156FC4FA081AC32D9F4C7
:103F52000E94B92711F40E94C227AF89B88D129727
:103F620039F4E98DFA8DE40FF51F3196EB8BFC8B5A
:103F7200AF89B88D199739F4E98DFA8DE40FF51FE1
:103F82003196E98BFA8B4F5F5F4FD4CFE3E0EA9330
:103F920074D8E4E0EA9371D8E5E0EA936ED80E941F
:103FA200E9270E94A627FF2352F03A9744F4ED89AD
:103FB200FE893196AB89BC89EA17FB0709F481C0F7
:103FC200ED89FE890E949527EE83AE81A03010F024
:103FD200AA3008F005C0EE81A0E8B0E00E941A29DC
:103FE2000E94D4270E94A627EE83AE81A03010F053
:103FF200AA3008F005C0EE81A2E8B0E00E941A29BA
:104002000E94CF270E94A627EE83AE81A03010F037
:10401200AA3008F005C0EE81A4E8B0E00E941A2997
:104022000E94CA270E94A627EE83AE81A03010F01C
:10403200AA3008F005C0EE81A6E8B0E00E941A2975
:10404200ED89FE89E056FC4F0E94A627EE83AE81E1
:10405200A03010F0AA3008F004C00E942826EB8796
:10406200FC870E94E9270E94A627EE83AE81A0303A
:1040720010F0AA3008F004C00E942826ED87FE87BF
:10408200ED85FE85AAE0B0E00E94C128AB85BC8523
:10409200EA0FFB1FE987FA873597EF83F887A88530
:1040A200AA234AF47896EF83F8870E94EE270E94AB
:1040B200F3270E94FA270E94EE270E94F3270E940C
:1040C200FA27EB89FC89E156FC4FE081F0E0E093AE
:1040D2001705F0931805E7E3FEE2FA93EA93E091FD
:1040E2001705F09118050E94B4280E94022984E065
:1040F2000E94C82526960E940128FF2312F03A97B3
:104102000CF038C00E940128AEE8B0E00E940628F8
:10411200E056FC4F0E94A627ACE8B0E00E940628B9
:10412200EF55FC4F0E94A627A2E9B0E00E940628A4
:10413200EE55FC4F0E94A627A0E9B0E00E94062897
:10414200ED55FC4F0E94A627A6E9B0E00E94062882
:104152000E949527A4E9B0E00E941A29AF81B88590
:10416200539744F00E940B28F0E03197ACE8B0E09E
:104172000E941A290F5F1F4FD9CC88246624F19A16
:1041820000E010E0083CE0E01E073CF4AEE9B3E0DA
:104192000E9410280F5F1F4FF5CF0E9432296B96A5
:1041A200089500E010E0E0E8E0936100E0E0E093D1
:1041B2006100EFEFE7B9E2B9E0EFE1B9E0E0E5B9BC
:1041C200EFEFE4B9E0E0EBB9E0EFEAB9E0E0E09369
:1041D200C000E8E9E093C100E6E0E093C200E0E05D
:1041E200E093C500E5E0E093C400E0E0E4BDE5E073
:1041F200E5BDE0E0E6BDE7BDE8BDE1E0E0936E00CD
:104202000E94FA17EAE0F0E00E9415280E941B289B
:10421200E0EFF9E00E944A270E940626EFE7F0E06D
:104222000E94522772D9E0EDF7E00E941528E0EFD4
:10423200FDE00E944A270E940626EDE2F0E00E947D
:10424200522763D9E6E0F5E0FA93EA93E7E3F0E078
:104252000E941F280E942628EDE0F3E0FA93EA93D9
:10426200EBE3F0E00E942B280E945E270E94632766
:10427200EBE0F5E0FA93EA93E2E5F0E00E942B2806
:104282000E945E270E946327E1E1F3E0FA93EA933A
:10429200E8E2F0E00E9452270E945E270E94632714
:1042A200E0EDF7E00E9415280E94F226EF3F79F434
:1042B200AAE8B0E0E0E00E941A290E94E1260E94EA
:1042C200CB260E94EC260E94D6260E94C5260E947A
:1042D2002E28EF3F41F40E940B28EF3F21F40E9469
:1042E2003328EF3F09F019C0ACE8B0E0E0E00E94EB
:1042F2001A29AEE8B0E00E941A29A0E9B0E00E94B3
:104302001A29A2E9B0E00E941A29A4E9B0E00E94A9
:104312001A29A6E9B0E00E941A29A8E2B0E00E9498
:104322000E29EF3F31F4A8E2B0E0E0E00E941A2942
:1043320004C0A8E2B0E00E940E29E0934A05AAE276
:10434200B0E00E940E29EF3F31F4AAE2B0E0E0E0D3
:104352000E941A2904C0AAE2B0E00E940E29E0934A
:104362004B0500E010E0003AE0E01E073CF4A6E650
:10437200B4E00E9410280F5F1F4FF5CF7894E0EF52
:10438200F1E10E944A270E944D27E9E1F0E00E94F4
:104392005227BBD80E94AC2686E695E00197F1F73A
:1043A200B5DB9924CC24BB24E1E0F0E0E0933C05AA
:1043B200F0933D05F19902C0A9DBF19AAA92EFE4CC
:1043C200F0E00E9452270E945E270E94461919DAE5
:1043D2008ADA06DB33DB6FDBA0913C05B0913D0549
:1043E200119711F00C94F323A0911505B0911605C5
:1043F200119711F4E5E401C0E0E2EA93E3E1F0E0B1
:104402000E944A27E1E0EA93EA930E944619E0916A
:104412002F05E03011F00C947D22EBE1F5E0FA93E8
:10442200EA93E8E4FEE2FA93EA930E94F2260E94FB
:1044320037270E94E7260E9437270E94DC260E9427
:1044420037270E94D1260E9437270E94A7260E9462
:1044520037270E949D260E94372788E10E949825CF
:104462006C960E949D26E0933E050E94A726E0934B
:104472003F050E94D126E09340050E94DC26E0938E
:1044820041050E94E726E09342050E94F226E0934E
:1044920043050E940B28E0934405AEE8B0E00E9479
:1044A2000E29E09345050E942E28E0934605A2E9D5
:1044B200B0E00E940E29E09347050E943328E09362
:1044C2004805A6E9B0E00E940E29E0934905E09173
:1044D2004A05A8E2B0E00E941A29E0914B05AAE23F
:1044E200B0E00E941A29EBE1F5E00E9452270E94F7
:1044F20038280E94262824C1A0912F05A130F9F462
:104502000E94D9270E9477270E949928E0E3F5E0CC
:10451200FA93EA93E0E3F0E00E943D28E0E0EA93B8
:10452200E2E0EA93E1E0EA930E94CC190E941B28A0
:10453200E0EDF7E00E9444280E94D927FEC0A09136
:104542002F05A23011F00C94F3220E94D9270E9469
:1045520077270E949928EBE1F3E00E942B280E9422
:1045620038280E945E270E946327E4EFF1E00E9450
:104572004428ECE2F3E0FA93EA93EDE2F0E00E94E1
:1045820048280E9463270E944F28EEE2F3E0FA9344
:10459200EA93E5E3F0E00E9448280E9463270E9424
:1045A2004F28E0E3F3E0FA93EA93EDE3F0E00E94B0
:1045B20048280E9463270E944F28E2E3F3E0FA931F
:1045C200EA93E5E4F0E00E9448280E946327E4EFC2
:1045D200F1E00E9444280E941B280E9452280E9457
:1045E200D927ABC0A0912F05A330C9F40E94D927C7
:1045F2000E9477270E949928E4E3F3E0FA93EA9372
:10460200ECE1F0E00E943D280E945E270E946327B1
:104612000E941B280E9452280E94D9278EC0A09176
:104622002F05A430C9F40E94D9270E9477270E943F
:104632009928EDE3F3E00E945528E3E0F0E0FA93D5
:10464200EA930E945E270E9463270E941B280E9411
:1046520052280E94D92771C0A0912F05A53019F5C3
:104662000E94D9270E9477270E949928E9E4F3E063
:104672000E9455280E9438280E945E270E946327C4
:10468200E4E5F3E00E945528E4E0F0E0FA93EA93CF
:104692000E945E270E9463270E941B280E945228C4
:1046A2000E94D9274AC0A0912F05A630B9F40E94D2
:1046B200D9270E9477270E949928E0E6F3E00E941A
:1046C20055280E9438280E945E270E9463270E9474
:1046D2001B280E9452280E94D9272FC0A0912F0583
:1046E200A73071F50E945B18E9E7F3E0FA93EA93C9
:1046F200EEE1F0E00E944A270E945E270E946327B3
:10470200E6E6F4E00E944A270E9477270E945E278D
:104712000E946327E8EBFBE00E9415280E94B52661
:1047220000E010E0003AE0E01E073CF4A6E6B4E048
:104732000E9410280F5F1F4FF5CFE0E0E0932F0596
:104742000E945828A134E0E0BE0719F4E0EFFDE131
:104752000BC00E945828A635E0E0BE0719F00E945F
:104762005828D997E0EFF1E2FA93EA93EFE5F0E007
:104772000E944A27EFE7F0E0FA93EA930E94772734
:104782000E94861AE3E2F5E0FA93EA93E8EBFEE28E
:10479200FA93EA93A6E9B0E00E945D280E943328CA
:1047A2000E943727A2E9B0E00E945D280E942E28CD
:1047B2000E943727AEE8B0E00E945D280E940B28D5
:1047C2000E94372788E1B3D16C96E3E2F5E0FA93D1
:1047D200EA93E2E2F0E00E942B280E945E270E9408
:1047E200632716C0E2E8F3E0FA93EA93EEE1F0E021
:1047F2000E941F280E945E270E946327EBE8F3E0D5
:10480200FA93EA93EFE0F0E00E9448280E946327BF
:10481200E0EFF5E1FA93EA93E9E6F0E00E942B2853
:10482200EFE7F0E00E9452270E94861AC3CDFFCF25
:10483200E091C000E072E1F3E881E093C6002196C6
:104842000895EA81EA93F4DFA881B9810E942226C1
:10485200239608951A930A93AA81BB8112960E9405
:10486200FA28309729F1AA81BB8114960E94FA286E
:104872008F01309761F00230E0E01E07C0F0F801CE
:1048820031978F01AA81BB811496ED93FC93AA8183
:10489200BB8112960E9422263197AC81A083AA8105
:1048A200BB810E94FA28FF2312F00E94222606C032
:1048B200AA81BB81EFEFFFEFED93FC931981088191
:1048C2002596089526970E942B2910E0AC85BD8578
:1048D200E0E0F0E0ED93FC93EA89FB893196EA8B04
:1048E200FB8B3197E4912E2FE03011F40C9490253C
:1048F200E12FE03039F4253211F411E002C00E94B8
:1049020060280CC1E130A9F4253219F40E94602814
:1049120004C112E040E000E02D3211F401E0FEC0DB
:104922002B3211F44BE2FAC0203211F440E2F6C00D
:1049320002C0E23039F450E013E0203311F4006891
:10494200EDC004C0E33011F00C948F25203310F039
:104952002A3308F007C0AAE05A9F502DE22FE053F5
:104962005E0FDCC0E22FE33649F40E946928E88931
:10497200F989A481AA930E946F28CFC0E33741F43A
:104982000E9469280E9477280E94E9251E2F0AC0EA
:10499200E03761F40E9469280E9477280E94F3257B
:1049A2001E2F086002600F7730E035C0E43611F048
:1049B200E93611F4046002C0E53731F4E0E4FDE2C7
:1049C200EE83FF8315E00DC0E83511F4086004C0E2
:1049D200E83711F00C948E25EAE4FDE2EE83FF83C2
:1049E20014E002FF14C00E9469280E948128AB854E
:1049F200AA233AF4EA85FB850E94A928EA87FB8765
:104A02004DE2403011F01F5F01C00B7F04C00E94D5
:104A120069280E94812800FD11C0151778F407FF4C
:104A220008C002FF04C00B7F242F115001C020E3F5
:104A320001C020E20E9460285150EFCF312F01FFC8
:104A420017C03030A1F003FF06C0EE81FF8125912F
:104A5200EE83FF8305C0AE81BF812D91AE83BF83FC
:104A62000E946028503009F051503150EACF4BC0BB
:104A720020E3EE81FF810E94FE28E887F987EE811C
:104A8200FF813296EE83FF83E885F985AA85BB858F
:104A9200AE17BF0750F02F5FA885B985EA85FB8561
:104AA200EA1BFB0BEA87FB87EFCF2A3328F003FFD1
:104AB20002C0295F01C0295D04FD1AC0213320F420
:104AC200A885B985119709F409C0531710F000FFA2
:104AD20001C013C020E207FF0BC020E3006102FF08
:104AE20007C00B7F4A930E946F28503009F0515043
:104AF2000E946028503009F051503150A885B98584
:104B0200129708F0B5CF00FF08C0503031F0515075
:104B1200E0E2EA930E946F28F8CF10E0DDCEAC8588
:104B2200BD850E94FA280E94322964960895FF9258
:104B3200F82E26970E942D290E948928309719F471
:104B4200EFEFFFEF1FC0DE0116960E94A5288D0130
:104B52000E948928EE83FF83E0E0E887E987DE018F
:104B62001A960E949028EBE2F4E2FA93EA93FE018D
:104B72003A96FA93EA93A6DE9F01AE81BF81E0E006
:104B8200EC93F9010E9434292A96FF900895FF922E
:104B9200F82E26971A930A93DE0114960E94A528EE
:104BA2008D01E0E0EC83ED83EE83EF83DE01189666
:104BB2000E949028E2E2F4E2FA93EA93FE01389628
:104BC200FA93EA937FDE198108812896FF9008956F
:104BD200A991B991EE27FF276D91662311F03196C5
:104BE200FBCF0895AA27BB27E991F99105900020F0
:104BF20011F01196FBCFFD010895FA93EA930C94FC
:104C02000218FA93EA930C941E18E0E0F0E0FA938B
:104C1200EA930895EC81F0E0FA93EA930C94291850
:104C2200E12FF0E00895AE81BF81EE27A10FBE1FF4
:104C3200EC910895FE01E95BFF4F0190F081E02DB8
:104C42000895ED91FD913196FE93EE930895EE81D4
:104C5200F0E00895E0919903F0919A03E15CF0404D
:104C6200A6E0B0E00E94B928E458F74F0895E15C4D
:104C7200F040A6E0B0E00E94B928E458F74F08954A
:104C8200F0E0FA93EA930895F0E0EA0FFB1F08952B
:104C9200FA93EA93EE81FF810895FA93EA93EE8103
:104CA200EA930C94B418E985FA85FA93EA930E9480
:104CB200E925A12FB0E0AE17BF070895A985BA85EF
:104CC200AE0FBF1F0895E885F985FA93EA93089518
:104CD200EA93E985EA930C944619EA81F0E0E7FD4C
:104CE200FFEF3896DF01EB81F0E00E94C1280895C2
:104CF200EB81A8E0EA9FF0010895EB81F0E0AD813D
:104D0200BE81EA0FFB1FED83FE830895A985BA8554
:104D1200EA0FFB1FA1810895EC81A8E0EA9FF00150
:104D2200A885B985AE1BBF0BBA93AA93CCCFAE1B95
:104D3200BF0BAF83B8870895A0E8B0E00E940E29A8
:104D42000895EF5F0E941A29E1500895A2E8B0E0A9
:104D52000E940E290895E8E6FDE2FA93EA9380E0C4
:104D62000E94C82522960895E6E7FDE2FA93EA93A7
:104D720080E00E94C82522960895FA93EA9380E083
:104D82000E94C82522960895A0E8B0E0E0E00E94C3
:104D92001A290895A2E8B0E0E0E00E941A290895D5
:104DA200A4E8B0E00E940E290895A4E8B0E0E0E093
:104DB2000E941A290895A6E8B0E00E940E290895DB
:104DC200A6E8B0E0E0E00E941A290895A8E8B0E061
:104DD2000E940E290895A8E8B0E0E0E00E941A2996
:104DE2000895AAE8B0E00E940E290895E4E6F0E0F2
:104DF200FA93EA930C949928FA93EA93EBE0F5E09C
:104E0200662777270E940229E0914505FF2766273A
:104E120077270E940229E0914405FF27662777271A
:104E22000E940229E0914705FF27662777270E9403
:104E32000229E0914605FF27662777270E9402296B
:104E4200E0914905FF27662777270E940229E09112
:104E52004805FF27662777270E940229E09143052C
:104E6200FF27662777270E940229B0CFFF276627F0
:104E720077270E94022908950E94A41BE8ECF0E023
:104E8200FA93EA930C949928F0E0E130A0E0FA0753
:104E92000895FA93EA93B9CEE5E0F0E0FA93EA9343
:104EA2000895FA93EA93E7E0F0E0FA93EA9308951B
:104EB200FA93EA93ECE2F0E0F4CFE0E0EA93E1E087
:104EC200EA930895EFEFEA930C94CC19EFE0E093A4
:104ED2001205E0E00895E8ECF0E0FA93EA930C940E
:104EE2009928E4E1F0E0FA93EA930895E1E0F0E032
:104EF200FA93EA930895F801E256FC4FA0810895CF
:104F0200F801E156FC4FA0810895F801E056FC4FEC
:104F1200A0810895F801EF55FC4FA0810895F80192
:104F2200EE55FC4FA0810895EC55FC4FE081F0E076
:104F3200F0970895EB55FC4FE081F0E0F09708956B
:104F4200E0931905F0931A050895E081F0E0F097D7
:104F52000895F8013496E98FFA8F0895FA01A98D20
:104F6200BA8DEA0FFB1FE156FC4FA081AA330895C8
:104F7200EF89F88D3196EF8BF88FAF89B88D119745
:104F82000895E98DFA8DE40FF51F3196ED8BFE8BB6
:104F92000895ED89FE89EF55FC4F0895ED89FE894C
:104FA200EE55FC4F0895ED89FE89ED55FC4F0895AD
:104FB200E2E0EA930E943E18E3E0EA930E943E1880
:104FC200E4E0EA930E943E18E5E0EA930C943E186E
:104FD200ED89FE89E156FC4F0895AF81B885EAE07C
:104FE200F0E008950E94DE28A8E8B0E00E941A29A5
:104FF200F4CF0E94D928AAE8B0E00E941A290895A5
:10500200E989FA89E156FC4FA0CF0E941A29E98961
:10501200FA890895ACE8B0E00E940E290895A00F25
:10502200B11FE0E0EC930895FA93EA930E94992865
:105032000C945B180E94A41B0C94A41BFA93EA9391
:10504200E2E0F0E0FA93EA930895E0E0EA93E2E026
:10505200EA9338CFFA93EA931FCFA0E9B0E00E9417
:105062000E290895A4E9B0E00E940E290895E2E015
:10507200F0E0FA93EA930895FA93EA93E3E0F0E01A
:10508200FA93EA930895FA93EA930C949928FA937F
:10509200EA93E4E0F0E0FA93EA930FCFECE2F1E076
:1050A200F2CFE8EEF3E0EFCFFA93EA931ACFA091B2
:1050B2001705B091180508950E940E29D7CE2A939C
:1050C200ED85FE85FA93EA93E989FA8909950895AF
:1050D200E889F9893497E88BF98B0895ED85FE8587
:1050E200FA93EA93E989FA8909950895A889B98911
:1050F20014960E94FA28EE83FF83FA93EA930895A6
:10510200A889B98914960E94FA28EA87FB8708952C
:10511200DE011C960E94A5280E94FA2808950E948A
:10512200A5280E94FA28FA93EA931A930A930895FB
:10513200E991F991309639F08DEC9AE00197F1F707
:10514200A8953197C9F708950024AF0DB01D0895B1
:10515200F195E195F0400895EE0FFF1FEE0FFF1F4E
:10516200EE0FFF1F08956F2F660F660B762F0895BF
:10517200FA9FF02DEB9FF00DEA9FE02DF10D0895BF
:105182002AD0F6DF0EF4E4DF08950024112490E122
:10519200AA0FBB1F001C111C0E1A1F0A18F40E0EB8
:1051A2001F1E01C0A1609A9599F7FD01D0010895D3
:1051B20012D0EBDF0EF4CCDF0895E894B7FF04C001
:1051C200A095B09511966894F7FDC2DFDEDFFD0170
:1051D2000EF4BEDF0895E894F7FF02C0B9DF6894C9
:1051E200B7FF06C0A095B095119600F8039400FA97
:1051F2000895ED91FC91119708950590F491E02D99
:1052020008957A936A93FA93EA9308951B2EBF2F17
:10521200F12D1A2EAE2FE12D0895F999FECFFF93AD
:10522200FFB7F894A1BDB2BDF89AE0B5FFBFFF91F8
:105232000895F99B02C0A895FCCF9FB7F894A1BD31
:10524200B2BDF89A80B5E81719F0E0BDFA9AF99A5A
:105252009FBF08955A934A933A932A931A930A93B3
:1052620008955D814C813B812A81198108810895CD
:00000001FF
