:080000000C94A6170C940000FB
:100008000C9400000C9400000C9400000C94000068
:100018000C9400000C9400000C9400000C94000058
:100028000C9400000C9400000C9400000C94000048
:100038000C9400000C9400000C9400000C94000038
:100048000C94CC1A0C9400000C94A11A0C94000087
:100058000C9400000C9400000C9400000C94000018
:100068000C9400000C9400000C9400000C94000008
:100078000C940000000000000000000000000000D8
:100088000000000000000000000000000000000068
:100098000000000000000000000000000000000058
:1000A8000000000000000000000000000000000048
:1000B8000000000000000000000000000000000038
:1000C8000000000000000000000000000000000028
:1000D8000000000000000000000000000000000018
:1000E8000000000000000000000000000000000008
:1000F80000000000000000000000000000000000F8
:1001080000000000000000000000000000000000E7
:1001180000000000000000000000000000000000D7
:1001280000000000000000000000000000000000C7
:1001380000000000000000000000000000000000B7
:1001480000000000000000000000000000000000A7
:100158000000000000000000000000000000000097
:100168000000000000000000000000000000000087
:1001780000000000000000000000000000004F0028
:100188000000000000070007000000000024FF2412
:10019800FF24000000444AFF4A32000040231308AD
:1001A800C4C2000000364955224080000000050303
:1001B80000000000003C4281000000000081423C39
:1001C800000000000014083E081400000010107C15
:1001D800101000000000281800000000000808089F
:1001E80008080800006060000000000040201008B7
:1001F80004020000007EFF8181FF7E00008082FEF5
:10020800FF80800000E2F191919F8E000062C3C9D7
:10021800C9FF760000181412FFFF1000006F8F89C5
:1002280089F97100007EFF8989F97200000101F1E6
:10023800FD0703000076FF8989FF760000468F8955
:1002480089FF7E0000006666000000000000563648
:1002580000000000000814224100000000242424AB
:10026800242400000000412214080000000201B10B
:1002780009060000006291F1817E000000FE111164
:1002880011FE000000FF898989760000007E8181C7
:100298008142000000FF8181423C000000FF898903
:1002A8008981000000FF090909010000007E819191
:1002B8009172000000FF101010FF0000000081FF85
:1002C80081000000004080817F01000000FF1824A9
:1002D8004281000000FF80808080000000FF020C47
:1002E80002FF000000FF040810FF0000007E81816B
:1002F800817E000000FF1111110E00007E81A141D6
:10030800BE00000000FF1131518E0000008689896F
:1003180089710000000101FF01010000007F808059
:10032800807F0000003F4080403F0000003FC060E9
:10033800C03F000000E3140814E30000000708F0C1
:100348000807000000C1A1918987000000FF818192
:10035800000000000015167C161500000041417FC2
:1003680000000000000402010204000000404040B8
:100378004040000000010204000000000060949466
:100388009478000000FF88888870000000788484D2
:100398008400000000788484887F000000789494AA
:1003A800945800000010FE1101020000000C929207
:1003B800927E000000FF100808F00000000084FD95
:1003C80080000000006080807D00000000FF304851
:1003D80084000000000081FF8000000000FC043859
:1003E80004F8000000FC080404F800000078848485
:1003F8008478000000FC1414140800000008141489
:1004080018FC000000FC080404080000008894940C
:100418009460000000047F8480400000007C80809D
:1004280040FC0000003C4080403C0000003EC060B2
:10043800C03E0000004224182442000000068888BC
:10044800887E000000C4A4948C8400000008768193
:1004580000000000000000FF000000000081760896
:10046800000000000008082A1C08000000081C2AD8
:1004780008080000007C8281827C000000000000E7
:100488000000000000000000000000000000000064
:100498000000000000000000000000000000000054
:1004A8000000000000000000000000000000000044
:1004B8000000000000000000000000000000000034
:1008780000000000C1C1C1C10000C2C2FEFE0100EB
:10088800C3C31F1F0100C4C4FCFC0100C5C5C5C506
:100898000101C6BDBFBE0101C7C7C0C00100C882F3
:1008A80084830101C9C9FDFD0100CA85878601014C
:1008B800CB888A890101CC8BCC8B0101CD8CCD8C66
:1008C8000101CE11CE110101CFCF13130100D0D0F9
:1008D8008F8F0100D1D11B1B0100D2D29191010051
:1008E800D39294930101D49597960101D5179A99BB
:1008F8000101D69B9D9C0101D7D7D7D70000D8D836
:100908009E9E0101D9D99F9F0101DAA0A2A10101F0
:10091800DBA3A5A40101DCDCDCDC0000DDA6A8A7C4
:100928000101DEA9ABAA0101DFACAEAD0101E0E037
:10093800E0E00000E1AFB1B00101E2E2E2E2000074
:10094800E3B2B4B30101E4B5B7B60101E5B8BAB989
:100958000101E6E6BCBC0100E7E7E7E70000E8E8DC
:10096800E8E80000E9E9E9E90000EAEAEAEA000063
:10097800EBEBEBEB0000ECBDBFBE0101EDBDBFBE74
:100988000101EEEEEEEE0000EFEFEFEF0000F0F009
:10099800F0F00000F1F1F1F10000F2F2F2F20000E3
:1009A800F3F3F3F30000F5F5F5F50000F6F6F6F6C7
:1009B8000000F7F7F7F70000F8F8F8F80000FBF97F
:1009C800FBFA0101BBBBF4F40100811C1E1D0101EF
:1009D80090181A1901019814161501018E8E121219
:1009E80001008D108D10010100C0F0303818181862
:1009F8001898B0B0303030606060606060C0C0C0CF
:100A0800C0C0C0C08080808080000000000000005E
:100A180000000000000000000000000000000000CE
:100A280000000000000000000000000000000000BE
:100A380000000000000000000000000000000000AE
:100A4800000000000000000000000000000000009E
:100A5800000000000000000000000000000000008E
:100A6800000000000000000000FFFF00000C18F06C
:100A7800E70FFD0F07000000000000000000000065
:100A88000000000001010181838383C3E767E6C694
:100A9800060E0C0C0C0C0C1818187870E0C000002E
:100AA800000000E0E0000000000080C0E06000E01E
:100AB800E0606060606060E0C000000080C060606E
:100AC800C080000000E0E0606060606060C080009E
:100AD800000080C06060C0800000000080C06060CE
:100AE800606060C08000000000FFFF00000000FFA1
:100AF800FF00FF0000000000000000000000008070
:100B0800C06030188CC66331180808090B0B0B0934
:100B18000808080808081C3E363E1C00FFFF0000B5
:100B2800000000FFFF70F88C8E070301000000FF33
:100B3800FFE0E0E06060607F3F00FEFF61606060B2
:100B48006061FFFE00FFFF000000000000FFFF00E3
:100B5800FEFF616060606061FFFE00FFFF00000053
:100B6800000000000100000000FFFF00000000FF7F
:100B7800FF003F3030303030303030180CC6E331B1
:100B8800180C06030100000000000000000000002F
:100B9800000000000000000000000000FFFF00004F
:100BA8000000003F3F00000103070E1C3830003FE3
:100BB8003F00000103070E3C38003F3F00000000E3
:100BC80000003F3F003F3F3030303030301F0F00D3
:100BD8003F3F0000000000003F3F000F1F30303053
:100BE800303030381800000000FFFF00000000FF20
:100BF800FF00FF0303030303030303060C19336613
:100C0800CC983060C08000000000000000000000A8
:100C1800000000000000000000000000FFFF0000CE
:100C280000000000000000000000000000000000BC
:100C380000000000000000000000000000000000AC
:100C4800000000000000000000000000000000009C
:100C5800000000000000000000000000000000008C
:100C6800000000000000000000FFFF00000000FF7F
:100C7800FF00FF000000000000000000000000006E
:100C8800000103060C193366444444E4F4B4F4E464
:100C98000404040404040E1F1B1F0E00FFFF0000C1
:100CA80000FC0000000000F8040404F8000C040430
:100CB80004FC00F0888488F00080808000FC848434
:100CC800040400F80404040800FC000000FC00F020
:100CD800888488F000FC040404F800F8040404F88C
:100CE80000FC44C44438000000FFFF000006030174
:100CF8001C3E373E1C00000000000080808080C041
:100D0800C0C0C0C0E0606060303030303139191880
:100D1800181C0C0C0C0C0E0606060703010000003C
:100D2800000F080808080007080808070006080850
:100D38000807000F0000000F00000000000F08085F
:100D48000808000708080804000708080807000F33
:100D58000000000F000F0808080700070808080728
:100D6800000F0000010E0000000107060E0C0C0C1D
:100D78000C0C060606060303030303010101010127
:100D8800000000000000000000000000000000005B
:100D9800000000000000000000000000000000004B
:100DA800000000000000000000000000000000003B
:100DB800000000000000000000000000000000002B
:100DC800000000000000000000000000000000001B
:100DD800000000000000000000000000000000000B
:100DE80000000000000000000000000000000000FB
:100DF80000000000000000000000000000000000EB
:100E080000000000000000000000000000000000DA
:100E180000000000000000000000000000000000CA
:100E280000000000000000000000000000000000BA
:100E380000000000000000000000000000000000AA
:100E4800000000000000000000000000000000009A
:100E5800000000000000000000000000000000008A
:100E680000000000000000000000000000C0E0F0EA
:100E7800F0F8F8F8F8F8FCFCFCFCFCFCFCFCFCFCCA
:100E8800FCFCFCFCFCFCFCFCFCFCF8F8F8F8F8F0BA
:100E9800E0E0C000000000000000000000000000CA
:100EA800000000000000000000000000000000003A
:100EB800000000000000000000000000000000002A
:100EC800000000000000000000000000000000001A
:100ED800000000000000000000000000000000000A
:100EE800000000000000000000000000FEFFFF03FB
:100EF800010303030303030303030303030303FFC0
:100F0800FF030301030303030303030303030303AF
:100F18000307FFFE000000000000000000000000C2
:100F280000000000000000000000000000000000B9
:100F380000000000000000000000000000000000A9
:100F48000000000000000000000000000000000099
:100F58000000000000000000000000000000000089
:100F6800000000000000000000000000FFFFFFC0BC
:100F7800C0C0C0C0C0C0C0C0C0C0C0C0C0C0E0FF0A
:100F8800FFE0C0C0C0E0D0C8C4C4C4C4C8D0E0C07A
:100F9800E0F0FFFF0000000000000000000000007B
:100FA8000000000000000000000000000000000039
:100FB8000000000000000000000000000000000029
:100FC8000000000000000000000000000000000019
:100FD8000000000000000000000000000000000009
:100FE800000000000000000000000000FFFFFFFFFD
:100FF800FFFFFFFFFFFFFFFFFFFFFFFFFFFFFFFFF9
:10100800FFFFFFFFFFFFFFFFFFFFFFFFFFFFFFFFE8
:10101800FFFFFFFF000000000000000000000000CC
:1010280000000000000000000000000000000000B8
:1010380000000000000000000000000000000000A8
:101048000000000000000000000000000000000098
:101058000000000000000000000000000000000088
:101068000000000000000000000000003FFFFFE15A
:10107800E1E1E1FFFFFFF9D9D9D9D9D9D9D9D9D92E
:10108800D9D9D9D9D9D9D9D9C9FBFFFFFFE1E1C14C
:10109800E1F7FF3F00000000000000000000000032
:1010A8000000000000000000000000000000000038
:1010B8000000000000000000000000000000000028
:1010C8000000000000000000000000000000000018
:1010D8000000000000000000000000000000000008
:1010E80000000000000000000000000000001F3F9A
:1010F8003F3F3F3F3F0000000000000000000000AD
:10110800000000000000000000001F3F3F3F3F3F7D
:101118003F1F000000000000000000000000000069
:1011280000000000000000000000000000000000B7
:1011380000000000000000000000000000000000A7
:101148000000000000000000000000000000000097
:101158000000000000000000000000000000000087
:1014E80000000000000000000000000000F884C2B6
:1014F80002020202FE020202C2FE02020202C4F854
:1015080000000000000000000000000000000000D3
:1015180000000000000000000000000000000000C3
:1015280000000000000000000000000000000000B3
:1015380000000000000000000000000000000000A3
:101548000000000000000000000000000000000093
:101558000000000000000000000000000000000083
:1015680000000000000000000000001E1F7FFFFDBB
:101578007C1C1C1C1F1C1C1C1F1F7CFCFC7C1F0FC4
:101588000000000000000000000000000000000053
:101598000000000000000000000000000000000043
:1015A8000000000000000000000000000000000033
:1015B8000000000000000000000000000000000023
:10195800000000000038FC0202020202060606BA75
:10196800FABA0202FC380000000000000000000083
:10197800000000000000000000000000000000005F
:10198800000000000000000000000000000000004F
:10199800000000000000000000000000000000003F
:1019A800000000000000000000000000000000002F
:1019B800000000000000000000000000000000001F
:1019C800000000000000000000000000000000000F
:1019D8000000000000003F3EFEF2F23E3E3E3F3F68
:1019E800F3F3FF3E3F00000000000000000000008D
:1019F80000000000000000000000000000000000DF
:101A080000000000000000000000000000000000CE
:101A180000000000000000000000000000000000BE
:101A280000000000000000000000000000000000AE
:101CE80000000000000000000000000000F884C2AE
:101CF80082DAFAE2FE020202C2FE02020202C4F81C
:101D080000000000000000000000000000000000CB
:101D180000000000000000000000000000000000BB
:101D280000000000000000000000000000000000AB
:101D3800000000000000000000000000000000009B
:101D4800000000000000000000000000000000008B
:101D5800000000000000000000000000000000007B
:101D680000000000000000000000001E1F7FFFFDB3
:101D78007C1F1F1F1F1C1C1C1F1F7CFCFC7C1F0FB3
:101D8800000000000000000000000000000000004B
:101D9800000000000000000000000000000000003B
:101DA800000000000000000000000000000000002B
:101DB800000000000000000000000000000000001B
:101DC800000000000000000000000000000000000B
:101DD80000000000000000000000000000000000FB
:101DE80000000000000000000000000000000000EB
:101DF80000000000000000000000000000000000DB
:101E080000000000000000000000000000000000CA
:101E180000000000000000000000000000000000BA
:101E280000000000000000000000000000000000AA
:101E3800000000000000000000000000000000009A
:101E48000000000000000000E01090908000F0907A
:101E58009090600060909010000000002070F87072
:101E68002000807800FC0000000000000000000056
:101E7800000000000000000000000000000000005A
:101E8800000000000000000000000000000000004A
:101E9800000000000000000000000000000000003A
:101EA800000000000000000000000000000000002A
:101EB800000000000000000000000000000000001A
:101EC80000000000000000000304040403000700F1
:101ED800000000000404040300000010141414148B
:101EE8001209040A3518080000000000000000006C
:101EF80000000000000000000000000000000000DA
:101F080000000000000000000000000000000000C9
:101F180000000000000000000000000000000000B9
:101F280000000000000000000000000000000000A9
:102248000000000000000000E01090908000F09076
:102258009090600060909010000000000000000066
:102268000000807800FC0000000000000000000072
:102278000000000000000000000000000000000056
:102288000000000000000000000000000000000046
:102298000000000000000000000000000000000036
:1022A8000000000000000000000000000000000026
:1022B8000000000000000000000000000000000016
:1022C80000000000000000000304040403000700ED
:1022D8000000000004040403000000101414141487
:1022E8001209040A35180800000000000000000068
:1022F80000000000000000000000000000000000D6
:1023080000000000000000000000000000000000C5
:1023180000000000000000000000000000000000B5
:1023280000000000000000000000000000000000A5
:1025E8000000000000000000000000000000008063
:1025F8008000E0E000F8F800FEFE000000000000A7
:1026080000000000000000000000000000000000C2
:1026180000000000000000000000000000000000B2
:1026280000000000000000000000000000000000A2
:102638000000000000000000000000000000000092
:102648000000000000000000000000000000000082
:102658000000000000000000000000000000000072
:102668000000000000000000000606000707000741
:102678000700070700070700070700000000000021
:102688000000000000000000000000000000000042
:102698000000000000000000000000000000000032
:1026A8000000000000000000000000000000000022
:1026B8000000000000000000000000000000000012
:1029E800000000000000000000000000000000805F
:1029F8008000E0E00000000000000000000000008F
:102A080000000000000000000000000000000000BE
:102A180000000000000000000000000000000000AE
:102A2800000000000000000000000000000000009E
:102A3800000000000000000000000000000000008E
:102A4800000000000000000000000000000000007E
:102A5800000000000000000000000000000000006E
:102A6800000000000000000000060600070700073D
:102A78000700070700000000000000000000000039
:102A8800000000000000000000000000000000003E
:102A9800000000000000000000000000000000002E
:102AA800000000000000000000000000000000001E
:102AB800000000000000000000000000000000000E
:102AC80000000000000000000000000000000000FE
:102AD80000000000000000000000000000000000EE
:102AE80000000000000000000000000000000000DE
:102AF80000000000000000000000000000000000CE
:102B080000000000000000000000000000000000BD
:102B180000000000000000000000000000000000AD
:102B2800000000000000000000000000000000009D
:102B3800000000000000000000000000000000008D
:102B4800000000000000000000000000000000007D
:102B5800000000000000000000000000000000006D
:102B6800000000000000000000000000000000005D
:102B7800000000000000000000000000000000004D
:102B8800000000000000000000000000000000003D
:102B98000000000000000000000606000707000013
:102BA800000000000000000000000000000000001D
:102BB800000000000000000000000000000000000D
:102BC80000000000000000000000000000000000FD
:102BD80000000000000000000000000000000000ED
:102BE80000000000000000000000000000000000DD
:102BF80000000000000000000000000000000000CD
:102C080000000000000000000000000000000000BC
:102C180000000000000000000000000000000000AC
:102C2800000000000000000000000000000000009C
:102C3800000000000000000000000000000000008C
:102C4800000000000000000000000000000000007C
:102C5800000000000000000000000000000000006C
:102C6800000000000000000000000000000000005C
:102C7800000000000000000000000000000000004C
:102C8800000000000000000000000000000000003C
:102C9800000000000000000000000000000000002C
:102CA800000000000000000000000000000000001C
:102CB800000000000000000000000000000000000C
:102CC80000000000000000000006060004040404E0
:102CD80004040404040404040404000000000000C4
:102CE80000000000000000000000000000000000DC
:102CF80000000000000000000000000000000000CC
:102D080000000000000000000000000000000000BB
:102D180000000000000000000000000000000000AB
:102D2800000000000000000000000000000000009B
:102D380000000000000000001027E80364000A00FB
:102D480001000010000110000100C1005349545552
:102D580031363937200000200000000000004154BF
:102D680024545444455649443F0A0D0041542B43CA
:102D780053510A0D0041542454544E455449503F70
:102D88000A0D0041542454544750535152593D316F
:102D9800302C300A0D004154244D5347534E443DC6
:102DA800342C222424424C25732C25642564256464
:102DB80025643230256425642C2564256425642522
:102DC80064256425642C52322C25642C25643A58D9
:102DD800582323220D0A004154244D5347534E448F
:102DE8003D342C222424424C25732C25642564254B
:102DF8006425643230256425642C256425642564A3
:102E08002564256425642C53322C313233342C2527
:102E1800643A58582323220D0A00525554413A0067
:102E280020202020202000502564002563004255E2
:102E38005300256425643A256425643A256425648D
:102E480000494E4943494F20444520534553494F73
:102E58004E002A0046494E205255544100494E49D9
:102E680043494F2052555441002048412053414C7A
:102E780049444F0044454C2053495354454D410063
:102E88004E4543455349544120494E4943494152CF
:102E9800204A4F524E414441003230256425642D6A
:102EA800256425642D256425640050616E74616C69
:102EB8006C61004E6F204175746F72697A6164614C
:102EC800000001002D4E414E000001008603522DE6
:102ED80004005304542D04005804582D0600000320
:102EE800222E07000603282E04000D03362E11009B
:102EF8001103492E020022035A2E020024035A2EDF
:102F0800020026035A2E020028035A2E09002A031B
:102F18005C2E0C003303652E0B003F03712E0C0052
:102F28004A037C2E19005603882E09006F03B22E1F
:102F38000E007803BB2E0A0005005C2D01009604E4
:102F4800CA2E0000F894EE27EFBBF1E0F5BFE5BF0D
:102F5800F8E1A895A4B7A77FA4BFF0936000E09319
:102F680060008DE0A2E0BB27ED938A95E9F780E049
:102F780098E0A0E0B1E0ED930197E9F7E2EDFEE219
:102F880085919591009761F0A591B591059015905F
:102F9800BF01F00105900D920197E1F7FB01F0CF19
:102FA800E0E0EEBBEFEFEDBFE8E0EEBFC0E0D3E05E
:102FB8000C946A205F9A87E38A95F1F75F9887E314
:102FC8008A95F1F70895169A179A5E985D98EFE337
:102FD800E8B9F0DF08951A935E985D98A981BA81DF
:102FE800A034E0E0BE0720F4169A1798198107C0AC
:102FF800179A1698E981FA81E054F0401E2FE12FC4
:10300800E064EF771E2F18B9D5DF18813BC01A93FB
:103018005E985D98E981E86BEF7B1E2F18B9CADFCF
:10302800188130C0EA81FB810E942225E881F9815C
:103038000E942625249608955E9A5D98E881E8B94D
:103048008DED90E00197F1F7B5DF219608951A9379
:103058000A930E942A250E942F25E0E4F0E0FA93C3
:10306800EA930E942F25169A00E010E00134E0E070
:103078001E0734F4E0E0EA93DFDF0F5F1F4FF6CF5F
:1030880019810881239608951A930A9300E010E0A5
:103098000830E0E01E072CF40A93D9DF0F5F1F4FBA
:1030A800F7CF0991199108951A93EB81FC810E9439
:1030B8002225E981FA810E94262510E0183080F443
:1030C800ED81FE810E94B827DF010E943525EA0FB5
:1030D800FB1FE458FF4FE491EA93AEDF1F5FEECF8A
:1030E800188142C10E94382820E010E0EC811E17A8
:1030F80000F500E00830D8F40E943825F0E0F59596
:10310800E795EC93ED81E1703E2F303021F00E947D
:103118003825E068EC932F5FEC81E21731F4ED81FC
:10312800F0E0F595E795ED8320E00F5FE3CF1F5FB3
:10313800DDCF0E943F2828960895EF9721970E9497
:1031480038280E943F250E942225FE01EB5BFF4F95
:103158000190F081E02D0E94262510E0183008F536
:103168000E943525BF010E94B827DE011496EA0F98
:10317800FB1FFA93EA93FE01E55BFF4F0190F08194
:10318800E02D0E94B827E60FF71FE458FF4FE4919F
:10319800EA93FE01E95BFF4FE081EA93A3DF1F5F3B
:1031A800DDCF00E0FE01EC5BFF4FE0810E1710F071
:1031B8000C942E1910E0183010F00C94201930E0FF
:1031C800FE01EC5BFF4FE0813E17A0F5E32FF0E036
:1031D800DE01A95BBF4F0D90BC91A02DEA0FFB1F2C
:1031E800BF01DE01AC5BBF4FAC91BB270E94352508
:1031F8000E94CC27DB01AE0FBF1FA034E0E0BE0762
:1032080049F4E0E4F0E0FA93EA930E943F25FA9348
:10321800EA9308DF0E9435250E94B827DE0114963C
:10322800AE0FBF1FEE27A00FBE1FEC91EA9304DF7D
:103238003F5FC6CF1F5FBFCF0E943F25FA93EA9337
:10324800DE01A95BBF4F0E944625FA93EA93EADEA6
:103258000F5FA8CF0E943F28EF962C960895A9816A
:10326800A13011F00C94B0190E944C25E138A0E06F
:10327800FA0711F4EAEF17C0E039A0E0FA0711F4F1
:10328800EBEF11C0E839A0E0FA0711F4ECEF0BC03E
:10329800EE38A0E0FA0711F4EDEF05C0ED38A0E034
:1032A800FA0711F4EEEFEE83AE81A13CB0F0A091E5
:1032B8008603B0918703A13CE0E0BE0774F00E944A
:1032C8004F253596E491E03041F00E944C250E944C
:1032D8005C253496E491E03009F417C00E944F252C
:1032E800DF01E0918803F0E03196EA0FFB1FE491DB
:1032F8000E946525E09189030E946525E0918A0373
:103308000E946525D1DEE2E001C0E0E0E093880399
:10331800AE81A13C60F00E944C250E945C25DF0133
:10332800E0918803F0E0EA0FFB1FE49101C0EE8111
:10333800F0E00E9469250E9469250E946E250E947E
:103348004C25E0938603F0938703EC81E09389038F
:10335800EA81E0938A0308C00E944C250E946925EF
:103368000E9469250E946E25279608951A930A934C
:1033780010E000E00E94742518F4AC81A03009F038
:1033880029C00E9435250E947F25EC91EA930E946E
:1033980084250E948425E0E00E9489250E948E25CC
:1033A800AF81B885EA0FFB1FEF83F8870E94992544
:1033B800A0E8B0E00E941228EA1BFB0BAF81B88599
:1033C800EA17FB072CF4E0E0EF83E8870E949E25CC
:1033D8001F5FD0CF0E94742518F4AC81A13009F08A
:1033E80075C00E9435250E947F25AC91A13E21F42D
:1033F8000E94A725A73C09F002C009EF29C00E9436
:1034080035250E947F25AC91A13E21F40E94A72575
:10341800A33C09F002C007EE1BC00E9435250E949C
:103428007F25AC91A13E21F40E94A725A23C09F07A
:1034380002C008EE0DC00E9435250E947F25AC9180
:10344800A13E21F40E94A725A53C09F001C009EE80
:10345800003079F00A930E94AD25E1E00E948925A9
:103468001E5F0E949925AF81B8850E94B82500E0AB
:103478001CC00E9435250E947F25EC91EA930E948A
:10348800AD25E9850E9489250E9435250E947F2562
:10349800AC91A03219F40E948E2502C00E94992591
:1034A800AF81B8850E94B8251F5F0E949925319683
:1034B800AF81B885AE17BF0744F40E949925A0E8EC
:1034C800B0E00E94B8250E949E2584CFE1ECF0E090
:1034D800E0938603F0938703198108812B9608955A
:1034E8000E94382808851985EC81FD81E017F107CD
:1034F80000F12A853B85EE81FF81E217F307B0F0E2
:103508003A932A931A930A938DDDA0E8A09FF001BD
:10351800A19FF00DE20FF31FAC85BD85EA0FFB1FDD
:10352800E491EA9389DD2F5F3F4FE5CF0F5F1F4F8F
:10353800DBCF0E943F282E960895EA93FA93EFB7BF
:10354800EA931A930A931091C0000091C600E09183
:10355800C000E07811F4F19801C0F19AE12FEC7104
:1035680081F4E42D4394F0E0E557FC4F0083E8EC48
:10357800E41509F444246394E8ECE61511F4662490
:10358800F09A09911991E991EFBFF991E99118958C
:103598000A921A92FA926A937A938A939A93AA93BE
:1035A800BA93EA93FA93EFB7EA93E6E0E6BDA4E8A4
:1035B800B4E00E944625A0918404B09185049B97AD
:1035C80011F00C94861B0E94BD250E94C225E0E0E4
:1035D800E0938404E09385040E94BD25E13021F442
:1035E8000E94C725E13009F002C00E94CC250E9444
:1035F800BD25E13021F40E94C725E23009F004C05E
:10360800E4E7FDE20E94D5250E94BD25E13021F4C2
:103618000E94C725E33009F004C0EDE7FDE20E94EF
:10362800D5250E94BD25E13021F40E94C725E4304C
:1036380009F004C0EBE8FDE20E94D5250E94BD25F3
:10364800EA3010F40C94861B0E94DC250E94C725E2
:103658000E94C2250E94C725E63010F40C94861BF0
:103668000E94E2250E94E8250E94C2250E94E825C2
:10367800EA3010F40C94861B0E94ED250E94F32575
:103688000E94C2250E94F325E630E0F10E94F82549
:103698000E94FE250E94C2250E94FE25EA3090F174
:1036A8000E9403260E9409260E94C2250E9409261C
:1036B800E23021F40E94FE25E33009F013C00E9495
:1036C800F325E53021F40E94E825E93009F00AC025
:1036D8000E94C725E53021F40E94BD25E93009F094
:1036E80001C001C00FC0AAE8B0E0E0E00E942528B0
:1036F8000E9403260E94F8250E94ED250E94E225DB
:103708000E94DC25E991EFBFF991E991B991A9915E
:103718009991899179916991F990199009901895E1
:103728005C9A0E940E265C980E940E2608951A93B1
:10373800E981F0E0E054F0401E2F113010F015360A
:1037480008F002C0E12F01C0E0E018812296089538
:103758008A92EDDFE0939404EEE9FDE20E941426DC
:103768000E944E26E0918B040E944E260E94E82576
:103778000E944E26E09189040E944E260E94BD2593
:103788000E944E26E09194040E944E26EB2D0E9442
:103798004E268CE30E94EC24EE960895EFEDFDE2B0
:1037A8000E9414260E944E26E0918B040E944E2609
:1037B8000E94E8250E944E26E09189040E944E2628
:1037C8000E94BD250E944E26E09195040E944E2637
:1037D80088E30E94EC24EA960895A0E00499A1E009
:1037E800A03019F4E0E0E71509F059C0E2E0E093F1
:1037F8007904E394E1E07E2E0E945426EE2D0E9487
:103808005C26D1F4E1E0E0939504C8DFE1E0DE2E28
:10381800E0EFF9E10E9461260E946426E3E2F0E00D
:103828000E9469265DDEE0E0F3E00E9470260E94B7
:1038380075260E947A2632C0E230A0E0FA0771F5B8
:10384800E0EFF1E10E9461260E946426E9E1F0E0E0
:103858000E94692645DEEFE0DE2EE0E0E093950465
:10386800E5E0E09379049ADFEFE0DE2EBB24E0E2A6
:10387800E81509F06DDFE0E28E2EEA93EFE4F0E060
:103888000E9469260E947526EADCE6E0F3E00E94C1
:1038980070260E9475260E947A26EE2407C0049B93
:1038A80003C0E1E0E71509F001C077240895A0E01E
:1038B8000399A1E0A03049F4E0E0EA1531F4EB15F2
:1038C80021F4A0919504A13009F010C0D39428DF09
:1038D800E1E0AE2EECE0ED1518F4EFE0ED1509F49B
:1038E80002C0E1E0DE2E0E947E2607C0039B03C0D3
:1038F800E1E0EA1509F001C0AA24ED2D0E945C263A
:1039080011F4E1E447C0E230A0E0FA0711F4E2E480
:1039180041C0E330A0E0FA0711F4E3E43BC0E4302F
:10392800A0E0FA0711F4E4E435C0E530A0E0FA07B6
:1039380011F4E5E42FC0E630A0E0FA0711F4E6E45C
:1039480029C0E730A0E0FA0711F4E7E423C0E83023
:10395800A0E0FA0711F4E8E41DC0E930A0E0FA0796
:1039680011F4E9E417C0EA30A0E0FA0711F4EAE438
:1039780011C0EB30A0E0FA0711F4EBE40BC0EC3017
:10398800A0E0FA0711F4ECE405C0EF30A0E0FA0774
:1039980011F4E0E25E2E0895A0E00299A1E0A030C3
:1039A80049F4E0E0E91531F4EB1521F4A091950410
:1039B800A13009F00FC0DA94B3DEE1E09E2EDD20DD
:1039C80019F4EFE0ED1509F402C0ECE0DE2E0E94D8
:1039D8007E2607C0029B03C0E1E0E91509F001C09B
:1039E80099240895A0E00199A1E0A03039F4E0E01D
:1039F800EC1521F4A0919504A13009F026C0C394D8
:103A0800E0915D04EF5FE0935D04852C0E945426ED
:103A1800E0915D040E945C2639F4E1E0BE2EE4E00A
:103A2800E093790495DE10C0E230A0E0FA0761F473
:103A3800EFE0DE2EBB24E3E0E093790489DEE0E2E8
:103A48008E2EE0E0E0935D0407C0019B03C0E1E037
:103A5800EC1509F001C0CC240895E0916304F091BD
:103A68006404E130A0E0FA0719F4E0E2FBE214C0D4
:103A7800E230A0E0FA0719F4E0EFF9E20DC0E33014
:103A8800A0E0FA0719F4E0EFF5E206C0E430A0E0A0
:103A9800FA0769F4E0E5FCE2FA93EA930E942A2522
:103AA8000E942A250E9484260E94892619DD0895ED
:103AB8006597E0E0EB87EC87ED87EE87EF87E88B8B
:103AC800E98BEA8B0E94362840E050E000E010E0E5
:103AD800083CE0E01E0714F00C9454200E948E2647
:103AE800AB3291F40E949326A33471F4F801E357A2
:103AF800FC4FA081A33541F40E949826A13521F4FA
:103B08000E949D26AA3309F046C0F8010E94A22609
:103B1800AAE0B0E00E94CC27DF01F8010E94A826A5
:103B2800EA0FFB1FEF87F88BAF85B8891B9724F046
:103B3800AF85B8891F970CF005C0E1E0F0E00E945E
:103B4800AE2629C0AF85B8891F9724F0AF85B889FC
:103B580052970CF005C0E2E0F0E00E94AE261BC0D0
:103B6800AF85B889529724F0AF85B8895F970CF074
:103B780005C0E3E0F0E00E94AE260DC0AF85B8892D
:103B8800909724F0AF85B889D2970CF004C0E4E090
:103B9800F0E00E94AE260E948E26A23441F40E94D4
:103BA8009326A53521F40E94B326A33509F088C0D1
:103BB800F801E556FC4F0E94B826E0937504F80119
:103BC800E456FC4F0E94B826E0937604F801E356C9
:103BD800FC4F0E94B826E0937704F801E256FC4FA8
:103BE8000E94B826E0937804A0917804A13119F4D2
:103BF800EAE0E0937804A0917504A13130F0E091F7
:103C08007504F0E03797E0937504A0917604A1312C
:103C180030F0E0917604F0E03797E0937604F8010D
:103C2800EF55FC4FA081A13331F4F801EE55FC4F5C
:103C3800A081A83309F044C0E1E0E0937904A091A1
:103C48007704EAE0EA02F001DF01E0917804F0E0AD
:103C5800EA0FFB1FE0937E04F0937F04A0917504A4
:103C6800E0E1EA02F0013197DF01E0917604F0E04B
:103C7800AE0FBF1FEAE0F0E00E94CC27E09380047B
:103C8800F0938104A0917E04B0917F04EA0FFB1F9A
:103C9800E0938204F0938304EAE7F4E0FA93EA936A
:103CA800EFE2FEE2FA93EA93E0918204F091830452
:103CB8000E94BF270E940D2884E00E94BC242896F9
:103CC8000E948E26AE3481F40E949326A53461F4B6
:103CD8000E94B326A43541F40E949826A93421F401
:103CE8000E949D26A03509F049C00E94BC2640E0EC
:103CF80050E0493CE0E05E075CF40E94C12629F4EC
:103D08000E94CB2611F40E94D4264F5F5F4FF1CF5B
:103D1800ED89FE89E357FC4FA081A23279F50E9414
:103D2800DC260E94B826E9F40E94E1260E94B82603
:103D3800C1F40E94E6260E94B82699F4ED89FE890E
:103D48000E94A82671F4ED89FE89ED56FC4F0E9469
:103D5800B82639F4ED89FE89EC56FC4F0E94B82646
:103D680009F006C0E0E0E0935F04E093600406C059
:103D7800E1E0F0E0E0935F04F09360040E948E2697
:103D8800A43481F40E949326A53461F40E94B326DA
:103D9800A63541F40E949826A93421F40E949D2654
:103DA800A43409F041C00E94BC260E94EB2640E0E2
:103DB80050E0493CE0E05E075CF40E94C12629F42B
:103DC8000E94CB2611F40E94D4264F5F5F4FF1CF9B
:103DD8000E94FB26A081A23239F5ED89FE89E357BE
:103DE800FC4FA081E0915804EA17A9F40E94DC2650
:103DF800A081E0915904EA1771F40E94E126A0819C
:103E0800E0915A04EA1739F40E94E626A081E0916D
:103E18005B04EA1709F003C00E94002705C0E0E030
:103E2800E0938604E09387040E948E26A73481F4E9
:103E38000E949326A03561F40E94B326A23541F46E
:103E48000E949826AD3421F40E949D26A33409F0DF
:103E580024C10E94BC2640E050E0493CE0E05E07F7
:103E680044F5FA01A98DBA8DEA0FFB1FE457FC4F00
:103E7800A081AC32D9F40E94CB2611F40E94D4263A
:103E8800AF89B88D129739F4E98DFA8DE40FF51FD3
:103E98003196EB8BFC8BAF89B88D199739F4E98D86
:103EA800FA8DE40FF51F3196E98BFA8B4F5F5F4F60
:103EB800D4CFE3E0EA93CBD8E4E0EA93C8D8E5E0CE
:103EC800EA93C5D80E94FB260E94B826FF2352F029
:103ED8003A9744F4ED89FE893196AB89BC89EA1793
:103EE800FB0709F481C0ED89FE890E94A226EE83B2
:103EF800AE81A03010F0AA3008F005C0EE81A0E82D
:103F0800B0E00E9425280E94E6260E94B826EE838B
:103F1800AE81A03010F0AA3008F005C0EE81A2E80A
:103F2800B0E00E9425280E94E1260E94B826EE8370
:103F3800AE81A03010F0AA3008F005C0EE81A4E8E8
:103F4800B0E00E9425280E94DC260E94B826EE8355
:103F5800AE81A03010F0AA3008F005C0EE81A6E8C6
:103F6800B0E00E942528ED89FE89E357FC4F0E94A6
:103F7800B826EE83AE81A03010F0AA3008F004C055
:103F88000E944C25EB87FC870E94FB260E94B826DE
:103F9800EE83AE81A03010F0AA3008F004C00E9471
:103FA8004C25ED87FE87ED85FE85AAE0B0E00E94EE
:103FB800CC27AB85BC85EA0FFB1FE987FA873597C5
:103FC800EF83F887A885AA234AF47896EF83F887C1
:103FD8000E9407270E940C270E9413270E94072788
:103FE8000E940C270E941327EB89FC89E457FC4F99
:103FF800E081F0E0E0936104F0936204E3E3FEE221
:10400800FA93EA93E0916104F09162040E94BF2759
:104018000E940D2884E00E94EC2426960E941A270C
:10402800FF2312F03A970CF038C00E941A27AEE826
:10403800B0E00E941F27E357FC4F0E94B826ACE867
:10404800B0E00E941F27E257FC4F0E94B826A2E961
:10405800B0E00E941F27E157FC4F0E94B826A0E954
:10406800B0E00E941F27E057FC4F0E94B826A6E93F
:10407800B0E00E941F270E94A226A4E9B0E00E9497
:104088002528AF81B885539744F00E942427F0E093
:104098003197ACE8B0E00E9425280F5F1F4F18CD7C
:1040A80066244424F19A20E030E0293CE0E03E0711
:1040B8004CF4ABE8B3E0A20FB31FE0E0EC932F5F42
:1040C8003F4FF3CF0E943D286B960895E0E8E093B8
:1040D8006100E0E0E0936100EFEFE7B9E2B9E0EFFB
:1040E800E1B9E0E0E5B9EFEFE4B9E0E0EBB9E0EF22
:1040F800EAB9E0E0E093C000E8E9E093C100E6E057
:10410800E093C200E0E0E093C500E5E0E093C4007E
:10411800E0E0E4BDE5E0E5BDE0E0E6BDE7BDE8BD23
:10412800E1E0E0936E000E94E717EAE0F0E00E9409
:104138002927F6DAF5DAE0EFF9E00E9461260E9415
:104148002A25EFE7F0E00E946926CAD9E0EDF7E0FA
:104158000E942927E0EFFDE00E9461260E942A259F
:10416800EDE2F0E00E946926BBD9E3E5F4E0FA93BA
:10417800EA93E7E3F0E00E942F270E943627EDE05C
:10418800F3E0FA93EA93EBE3F0E00E943B270E9406
:1041980075260E947A26E8E5F4E0FA93EA93E2E5C8
:1041A800F0E00E943B270E9475260E947A26E0EDE7
:1041B800F7E00E9429270E940926EF3F79F4AAE830
:1041C800B0E0E0E00E9425280E94F8250E94E22540
:1041D8000E9403260E94ED250E94DC250E943E27AE
:1041E800EF3F41F40E942427EF3F21F40E94432728
:1041F800EF3F09F019C0ACE8B0E0E0E00E942528E4
:10420800AEE8B0E00E942528A0E9B0E00E94252889
:10421800A2E9B0E00E942528A4E9B0E00E94252880
:10422800A6E9B0E00E942528A8E2B0E00E9419287B
:10423800EF3F31F4A8E2B0E0E0E00E94252804C096
:10424800A8E2B0E00E941928E0939404AAE2B0E042
:104258000E941928EF3F31F4AAE2B0E0E0E00E94A2
:10426800252804C0AAE2B0E00E941928E09395042A
:104278007894E0EFF1E10E9461260E946426E9E16A
:10428800F0E00E9469262CD90E94CC2586E695E0AC
:104298000197F1F70DDC7724AA2499240E940027BE
:1042A800F19902C005DCF19A5A92EFE4F0E00E941D
:1042B80069260E9475260E9433198FDAF8DA6CDBBA
:1042C80091DBCBDBA0918604B0918704119711F0A4
:1042D8000C941723A0915F04B0916004119711F416
:1042E800E5E401C0E0E2EA93E3E1F0E00E94612640
:1042F800E1E0EA93EA930E943319E0917904E0300F
:1043080011F00C94F521E5E6F4E0FA93EA93EAE378
:10431800FEE2FA93EA930E9409260E944E260E9422
:10432800FE250E944E260E94F3250E944E260E94DA
:10433800E8250E944E260E94C7250E944E260E940C
:10434800BD250E944E2688E113D36C960E94BD2598
:10435800E09388040E94C725E09389040E94E82519
:10436800E0938A040E94F325E0938B040E94FE25C3
:10437800E0938C040E940926E0938D040E94242770
:10438800E0938E04AEE8B0E00E941928E0938F0411
:104398000E943E27E0939004A2E9B0E00E94192809
:1043A800E09391040E944327E0939204A6E9B0E0C9
:1043B8000E941928E0939304E0919404A8E2B0E0E5
:1043C8000E942528E0919504AAE2B0E00E942528E1
:1043D800E5E6F4E00E9469260E9448270E943627F5
:1043E800D0C0A0917904A130F9F40E94EB260E9474
:1043F80089260E94A427EAE7F4E0FA93EA93E0E327
:10440800F0E0FA93EA93E3E0F0E0FA93EA93E0E06D
:10441800EA93E2E0EA93E1E0EA930E94BA1980D9CC
:104428007FD9E0EDF7E0A4C0A0917904A23011F0A3
:104438000C9461220E94EB260E9489260E94A427E0
:10444800E1E1F3E00E943B270E9448270E9475267D
:104458000E947A260E944D27E2E2F3E0FA93EA935B
:10446800EDE2F0E00E9453270E947A260E945A2724
:10447800E4E2F3E0FA93EA93E5E3F0E00E945327DD
:104488000E947A260E945A27E6E2F3E0FA93EA931A
:10449800EDE3F0E00E9453270E947A260E945A27F3
:1044A800E8E2F3E0FA93EA93E5E4F0E00E945327A8
:1044B8000E947A260E944D2757C0A0917904A33004
:1044C80089F40E94EB260E9489260E94A427EAE22A
:1044D800F3E0FA93EA93ECE1F0E0FA93EA93E3E08D
:1044E800F0E03CC0A0917904A43069F40E94EB2666
:1044F8000E9489260E94A427E3E3F3E00E94602734
:10450800E3E0F0E02BC0A0917904A530B9F40E9453
:10451800EB260E9489260E94A427EFE3F3E00E947D
:1045280060270E9448270E9475260E947A26EAE49E
:10453800F3E00E946027E4E0F0E010C0A091790465
:10454800A630F9F40E94EB260E9489260E94A4272F
:10455800E6E5F3E00E946027E2E0F0E0FA93EA93F0
:104568000E9475260E947A26DBD8DAD8E8EEF3E0B6
:10457800FA93EA930E94A4270E94EB26E0E0E093D6
:1045880079040E946327A134E0E0BE0719F4E0EF44
:10459800FDE10BC00E946327A635E0E0BE0719F0D5
:1045A8000E946327D997E0EFF1E2FA93EA93EFE5E7
:1045B800F0E00E946126EFE7F0E0FA93EA930E94A8
:1045C80089260E94741AEDE6F4E0FA93EA93E1EA88
:1045D800FEE2FA93EA93A6E9B0E00E9468270E94F7
:1045E80043270E944E26A2E9B0E00E9468270E9455
:1045F8003E270E944E26AEE8B0E00E9468270E943F
:1046080024270E944E2688E1B3D16C96EDE6F4E0AB
:10461800FA93EA93E2E2F0E00E943B270E947526B3
:104628000E947A2616C0EFE6F3E0FA93EA93EEE1E9
:10463800F0E00E942F270E9475260E947A26E8E75C
:10464800F3E0FA93EA93EFE0F0E00E9453270E9428
:104658007A26E0EFF5E1FA93EA93E9E6F0E00E94C2
:104668003B27EFE7F0E00E9469260E94741A18CEF3
:10467800FFCFE091C000E072E1F3E881E093C6006B
:1046880021960895EA81EA93F4DFA881B9810E940E
:104698004625239608951A930A93AA81BB811296F8
:1046A8000E940528309729F1AA81BB8114960E949F
:1046B80005288F01309761F00230E0E01E07C0F056
:1046C800F80131978F01AA81BB811496ED93FC9371
:1046D800AA81BB8112960E9446253197AC81A0839E
:1046E800AA81BB810E940528FF2312F00E9446255B
:1046F80006C0AA81BB81EFEFFFEFED93FC93198110
:1047080008812596089526970E94362810E0AC85E2
:10471800BD85E0E0F0E0ED93FC93EA89FB893196F2
:10472800EA8BFB8B3197E4912E2FE03011F40C9437
:10473800B424E12FE03039F4253211F411E002C03D
:104748000E946B270CC1E130A9F4253219F40E94AC
:104758006B2704C112E040E000E02D3211F401E0C3
:10476800FEC02B3211F44BE2FAC0203211F440E2C1
:10477800F6C002C0E23039F450E013E0203311F4FF
:104788000068EDC004C0E33011F00C94B32420336A
:1047980010F02A3308F007C0AAE05A9F502DE22FE4
:1047A800E0535E0FDCC0E22FE33649F40E94742721
:1047B800E889F989A481AA930E947A27CFC0E337B0
:1047C80041F40E9474270E9482270E940D251E2F03
:1047D8000AC0E03761F40E9474270E9482270E9471
:1047E80017251E2F086002600F7730E035C0E436C9
:1047F80011F0E93611F4046002C0E53731F4E0E461
:10480800FDE2EE83FF8315E00DC0E83511F4086082
:1048180004C0E83711F00C94B224EAE4FDE2EE8318
:10482800FF8314E002FF14C00E9474270E948C27A3
:10483800AB85AA233AF4EA85FB850E94B427EA8768
:10484800FB874DE2403011F01F5F01C00B7F04C0B1
:104858000E9474270E948C2700FD11C0151778F458
:1048680007FF08C002FF04C00B7F242F115001C0AE
:1048780020E301C020E20E946B275150EFCF312F77
:1048880001FF17C03030A1F003FF06C0EE81FF81A1
:104898002591EE83FF8305C0AE81BF812D91AE8344
:1048A800BF830E946B27503009F051503150EACF36
:1048B8004BC020E3EE81FF810E940928E887F98731
:1048C800EE81FF813296EE83FF83E885F985AA851C
:1048D800BB85AE17BF0750F02F5FA885B985EA855D
:1048E800FB85EA1BFB0BEA87FB87EFCF2A3328F00F
:1048F80003FF02C0295F01C0295D04FD1AC02133EE
:1049080020F4A885B985119709F409C0531710F048
:1049180000FF01C013C020E207FF0BC020E30061C5
:1049280002FF07C00B7F4A930E947A27503009F094
:1049380051500E946B27503009F051503150A885D2
:10494800B985129708F0B5CF00FF08C0503031F094
:104958005150E0E2EA930E947A27F8CF10E0DDCECA
:10496800AC85BD850E9405280E943D28649608955F
:10497800FF92F82E26970E9438280E949427309795
:1049880019F4EFEFFFEF1FC0DE0116960E94B02763
:104998008D010E949427EE83FF83E0E0E887E98792
:1049A800DE011A960E949B27EFE4F3E2FA93EA935A
:1049B800FE013A96FA93EA93A6DE9F01AE81BF8183
:1049C800E0E0EC93F9010E943F282A96FF900895B1
:1049D800FF92F82E26971A930A93DE0114960E94E6
:1049E800B0278D01E0E0EC83ED83EE83EF83DE01F9
:1049F80018960E949B27E6E4F3E2FA93EA93FE01F5
:104A08003896FA93EA937FDE198108812896FF90F9
:104A18000895A991B991EE27FF276D91662311F0AA
:104A28003196FBCF0895AA27BB27E991F991059004
:104A3800002011F01196FBCFFD010895FA93EA9337
:104A48000C94EF17FA93EA930C940B18E0E0F0E05B
:104A5800FA93EA930895EC81F0E0FA93EA930C94C0
:104A68001618E12FF0E00895AE81BF81EE27A10F5F
:104A7800BE1FEC910895FE01E95BFF4F0190F081A4
:104A8800E02D0895ED91FD913196FE93EE930895F2
:104A9800EE81F0E00895E0918603F0918703E15CF0
:104AA800F040A6E0B0E00E94C427E458F74F08950C
:104AB800E15CF040A6E0B0E00E94C427E458F74F5C
:104AC8000895F0E0FA93EA930895FA93EA93EE8151
:104AD800FF810895FA93EA93EE81EA930C94A11862
:104AE800E985FA85FA93EA930E940D25A12FB0E093
:104AF800AE17BF070895A985BA85AE0FBF1F0895E1
:104B0800E885F985FA93EA930895EA93E985EA93A3
:104B18000C943319EA81F0E0E7FDFFEF3896DF01E6
:104B2800EB81F0E00E94CC270895EB81A8E0EA022F
:104B3800F0010895EB81F0E0AD81BE81EA0FFB1F23
:104B4800ED83FE830895A985BA85EA0FFB1FA1812D
:104B58000895EC81A8E0EA02F001A885B985AE1BAA
:104B6800BF0BBA93AA93CCCFAE1BBF0BAF83B8874A
:104B78000895A0E8B0E00E9419280895EF5F0E9408
:104B88002528E1500895A2E8B0E00E941928089568
:104B9800E6E6FDE2FA93EA9380E00E94EC2422968E
:104BA8000895FA93EA9380E00E94EC2422960895EF
:104BB800A0E8B0E0E0E00E9425280895A2E8B0E06F
:104BC800E0E00E9425280895A4E8B0E00E94192892
:104BD8000895A4E8B0E0E0E00E9425280895A6E83A
:104BE800B0E00E9419280895A6E8B0E0E0E00E942D
:104BF80025280895A8E8B0E00E9419280895A8E893
:104C0800B0E0E0E00E9425280895AAE8B0E00E94FC
:104C180019280895E4E6F0E0FA93EA930C94A4279F
:104C2800FA93EA93E8E5F4E0662777270E940D28CF
:104C3800E0918F04FF27662777270E940D28E091CF
:104C48008E04FF27662777270E940D28E09191049C
:104C5800FF27662777270E940D28E0919004FF27F9
:104C6800662777270E940D28E0919304FF2766277F
:104C780077270E940D28E0919204FF27662777275F
:104C88000E940D28E0918D04FF27662777270E9450
:104C98000D28B0CFFF27662777270E940D28089593
:104CA8000E94941BE8ECF0E0FA93EA930C94A42792
:104CB800F0E0E130A0E0FA070895FA93EA93C6CE4F
:104CC800E5E0F0E0FA93EA930895FA93EA93E7E0CF
:104CD800F0E0FA93EA930895FA93EA93ECE2F0E0AD
:104CE800F4CFE0E0EA93E1E0EA930895EFEFEA9386
:104CF8000C94BA19E8ECF0E0FA93EA930C94A42720
:104D0800E4E1F0E0FA93EA930895E1E0F0E0FA9341
:104D1800EA930895F801E557FC4FA0810895F8013A
:104D2800E457FC4FA0810895F801E257FC4FA08199
:104D38000895F801E157FC4FA0810895EF56FC4F04
:104D4800E081F0E0F0970895EE56FC4FE081F0E046
:104D5800F0970895E0936304F09364040895F801CC
:104D6800E357FC4FA0810895E081F0E0F0970895A3
:104D7800F8013496E98FFA8F0895FA01A98DBA8D52
:104D8800EA0FFB1FE457FC4FA081AA330895EF896F
:104D9800F88D3196EF8BF88FAF89B88D11970895FC
:104DA800E98DFA8DE40FF51F3196ED8BFE8B089592
:104DB800ED89FE89E257FC4F0895ED89FE89E15798
:104DC800FC4F0895ED89FE89E057FC4F0895E2E015
:104DD800EA930E942B18E3E0EA930E942B18E4E080
:104DE800EA930E942B18E5E0EA930C942B18ED89BE
:104DF800FE89E457FC4F0895E1E0F0E0E093860473
:104E0800F09387040895AF81B885EAE0F0E008954B
:104E18000E94E927A8E8B0E00E942528F4CF0E9464
:104E2800E427AAE8B0E00E9425280895E989FA89CC
:104E3800E457FC4F99CF0E942528E989FA890895FB
:104E4800ACE8B0E00E9419280895FA93EA930E940A
:104E5800A4270C944818FA93EA93E2E0F0E0FA9356
:104E6800EA930895E0E0EA93E2E0EA933FCFFA9309
:104E7800EA9326CFA0E9B0E00E9419280895A4E992
:104E8800B0E00E9419280895E2E0F0E0FA93EA936E
:104E98000895E4EFF1E0FA93EA930C94A427FA93C7
:104EA800EA93E4E0F0E0FA93EA931BCFECE2F1E056
:104EB800FA93EA930C94A427FA93EA9321CFA0914A
:104EC8006104B091620408950E941928E3CE2A93E0
:104ED800ED85FE85FA93EA93E989FA89099508959B
:104EE800E889F9893497E88BF98B0895ED85FE8573
:104EF800FA93EA93E989FA8909950895A889B989FD
:104F080014960E940528EE83FF83FA93EA93089586
:104F1800A889B98914960E940528EA87FB8708950D
:104F2800DE011C960E94B0270E94052808950E9461
:104F3800B0270E940528FA93EA931A930A930895D2
:104F4800E991F991309639F08DEC9AE00197F1F7F3
:104F5800A8953197C9F708950024AF0DB01D08959D
:104F6800F195E195F0400895EE0FFF1FEE0FFF1F3A
:104F7800EE0FFF1F08956F2F660F660B762F0895AB
:104F8800FA9FF02DEB9FF00DEA9FE02DF10D0895AB
:104F98002AD0F6DF0EF4E4DF08950024112490E10E
:104FA800AA0FBB1F001C111C0E1A1F0A18F40E0EA4
:104FB8001F1E01C0A1609A9599F7FD01D0010895BF
:104FC80012D0EBDF0EF4CCDF0895E894B7FF04C0ED
:104FD800A095B09511966894F7FDC2DFDEDFFD015C
:104FE8000EF4BEDF0895E894F7FF02C0B9DF6894B5
:104FF800B7FF06C0A095B095119600F8039400FA83
:105008000895ED91FC91119708950590F491E02D84
:1050180008957A936A93FA93EA9308951B2EBF2F03
:10502800F12D1A2EAE2FE12D0895F999FECFFF9399
:10503800FFB7F894A1BDB2BDF89AE0B5FFBFFF91E4
:105048000895F99B02C0A895FCCF9FB7F894A1BD1D
:10505800B2BDF89A80B5E81719F0E0BDFA9AF99A46
:105068009FBF08955A934A933A932A931A930A939F
:1050780008955D814C813B812A81198108810895B9
:00000001FF
